{
  "_format": "hh-sol-artifact-1",
  "contractName": "JuryNFTSwap",
  "sourceName": "contracts/JuryNFTSwap.sol",
  "abi": [
    {
      "inputs": [
        {
          "internalType": "address",
          "name": "token",
          "type": "address"
        }
      ],
      "stateMutability": "nonpayable",
      "type": "constructor"
    },
    {
      "inputs": [
        {
          "internalType": "address",
          "name": "nftAddress",
          "type": "address"
        },
        {
          "internalType": "uint256",
          "name": "tokenId",
          "type": "uint256"
        }
      ],
      "name": "HasListed",
      "type": "error"
    },
    {
      "inputs": [
        {
          "internalType": "address",
          "name": "nftAddress",
          "type": "address"
        },
        {
          "internalType": "uint256",
          "name": "tokenId",
          "type": "uint256"
        },
        {
          "internalType": "uint256",
          "name": "redemptionTime",
          "type": "uint256"
        }
      ],
      "name": "RedemptionTimeNotReached",
      "type": "error"
    },
    {
      "anonymous": false,
      "inputs": [
        {
          "indexed": true,
          "internalType": "address",
          "name": "buyer",
          "type": "address"
        },
        {
          "indexed": false,
          "internalType": "address",
          "name": "nftAddress",
          "type": "address"
        },
        {
          "indexed": false,
          "internalType": "uint256",
          "name": "tokenId",
          "type": "uint256"
        },
        {
          "indexed": false,
          "internalType": "uint256",
          "name": "price",
          "type": "uint256"
        }
      ],
      "name": "BuyNFT",
      "type": "event"
    },
    {
      "anonymous": false,
      "inputs": [
        {
          "indexed": true,
          "internalType": "address",
          "name": "nftAddress",
          "type": "address"
        },
        {
          "indexed": true,
          "internalType": "uint256",
          "name": "tokenId",
          "type": "uint256"
        },
        {
          "indexed": false,
          "internalType": "uint256",
          "name": "price",
          "type": "uint256"
        }
      ],
      "name": "HangOut",
      "type": "event"
    },
    {
      "anonymous": false,
      "inputs": [
        {
          "indexed": true,
          "internalType": "address",
          "name": "redeemer",
          "type": "address"
        },
        {
          "indexed": false,
          "internalType": "address",
          "name": "nftAddress",
          "type": "address"
        },
        {
          "indexed": false,
          "internalType": "uint256",
          "name": "tokenId",
          "type": "uint256"
        },
        {
          "indexed": false,
          "internalType": "uint256",
          "name": "redeemPrice",
          "type": "uint256"
        }
      ],
      "name": "Redeem",
      "type": "event"
    },
    {
      "inputs": [
        {
          "internalType": "address",
          "name": "nftAddr",
          "type": "address"
        },
        {
          "internalType": "uint256",
          "name": "tokenId",
          "type": "uint256"
        }
      ],
      "name": "buy",
      "outputs": [],
      "stateMutability": "nonpayable",
      "type": "function"
    },
    {
      "inputs": [],
      "name": "getAllListing",
      "outputs": [
        {
          "components": [
            {
              "internalType": "address",
              "name": "nftAddr",
              "type": "address"
            },
            {
              "internalType": "uint256",
              "name": "tokenId",
              "type": "uint256"
            },
            {
              "internalType": "uint256",
              "name": "price",
              "type": "uint256"
            },
            {
              "internalType": "string",
              "name": "uri",
              "type": "string"
            }
          ],
          "internalType": "struct JuryNFTSwap.Info[]",
          "name": "",
          "type": "tuple[]"
        },
        {
          "internalType": "uint256",
          "name": "",
          "type": "uint256"
        }
      ],
      "stateMutability": "view",
      "type": "function"
    },
    {
      "inputs": [
        {
          "internalType": "address",
          "name": "nftAddr",
          "type": "address"
        },
        {
          "internalType": "uint256",
          "name": "tokenId",
          "type": "uint256"
        },
        {
          "internalType": "uint256",
          "name": "price",
          "type": "uint256"
        }
      ],
      "name": "hangOut",
      "outputs": [],
      "stateMutability": "nonpayable",
      "type": "function"
    },
    {
      "inputs": [
        {
          "internalType": "uint256",
          "name": "",
          "type": "uint256"
        }
      ],
      "name": "infos",
      "outputs": [
        {
          "internalType": "address",
          "name": "nftAddr",
          "type": "address"
        },
        {
          "internalType": "uint256",
          "name": "tokenId",
          "type": "uint256"
        },
        {
          "internalType": "uint256",
          "name": "price",
          "type": "uint256"
        },
        {
          "internalType": "string",
          "name": "uri",
          "type": "string"
        }
      ],
      "stateMutability": "view",
      "type": "function"
    },
    {
      "inputs": [],
      "name": "melonToken",
      "outputs": [
        {
          "internalType": "contract MelonToken",
          "name": "",
          "type": "address"
        }
      ],
      "stateMutability": "view",
      "type": "function"
    },
    {
      "inputs": [
        {
          "internalType": "address",
          "name": "",
          "type": "address"
        },
        {
          "internalType": "uint256",
          "name": "",
          "type": "uint256"
        }
      ],
      "name": "nftListings",
      "outputs": [
        {
          "internalType": "address",
          "name": "nftAddr",
          "type": "address"
        },
        {
          "internalType": "uint256",
          "name": "tokenId",
          "type": "uint256"
        },
        {
          "internalType": "uint256",
          "name": "price",
          "type": "uint256"
        },
        {
          "internalType": "string",
          "name": "uri",
          "type": "string"
        }
      ],
      "stateMutability": "view",
      "type": "function"
    },
    {
      "inputs": [
        {
          "internalType": "address",
          "name": "operator",
          "type": "address"
        },
        {
          "internalType": "address",
          "name": "from",
          "type": "address"
        },
        {
          "internalType": "uint256",
          "name": "tokenId",
          "type": "uint256"
        },
        {
          "internalType": "bytes",
          "name": "data",
          "type": "bytes"
        }
      ],
      "name": "onERC721Received",
      "outputs": [
        {
          "internalType": "bytes4",
          "name": "",
          "type": "bytes4"
        }
      ],
      "stateMutability": "pure",
      "type": "function"
    },
    {
      "inputs": [
        {
          "internalType": "address",
          "name": "nftAddr",
          "type": "address"
        },
        {
          "internalType": "uint256",
          "name": "tokenId",
          "type": "uint256"
        },
        {
          "internalType": "uint256",
          "name": "price",
          "type": "uint256"
        }
      ],
      "name": "redeem",
      "outputs": [],
      "stateMutability": "nonpayable",
      "type": "function"
    }
  ],
  "bytecode": "0x60806040523480156200001157600080fd5b506040516200227e3803806200227e8339818101604052810190620000379190620000e8565b806000806101000a81548173ffffffffffffffffffffffffffffffffffffffff021916908373ffffffffffffffffffffffffffffffffffffffff160217905550506200011a565b600080fd5b600073ffffffffffffffffffffffffffffffffffffffff82169050919050565b6000620000b08262000083565b9050919050565b620000c281620000a3565b8114620000ce57600080fd5b50565b600081519050620000e281620000b7565b92915050565b6000602082840312156200010157620001006200007e565b5b60006200011184828501620000d1565b91505092915050565b612154806200012a6000396000f3fe608060405234801561001057600080fd5b50600436106100885760003560e01c8063467efe5a1161005b578063467efe5a1461013f5780636b915d431461015e578063cce7ec131461017c578063e29e8a191461019857610088565b8063150b7a021461008d57806328de3c9b146100bd5780632b83cccd146100f05780634309d5941461010c575b600080fd5b6100a760048036038101906100a29190611359565b6101b4565b6040516100b4919061141c565b60405180910390f35b6100d760048036038101906100d29190611437565b6101c9565b6040516100e79493929190611512565b60405180910390f35b61010a6004803603810190610105919061155e565b6102b1565b005b610126600480360381019061012191906115b1565b6103ca565b6040516101369493929190611512565b60405180910390f35b6101476104af565b60405161015592919061177e565b60405180910390f35b610166610617565b604051610173919061180d565b60405180910390f35b610196600480360381019061019191906115b1565b61063b565b005b6101b260048036038101906101ad919061155e565b610b58565b005b600063150b7a0260e01b905095945050505050565b600181815481106101d957600080fd5b90600052602060002090600402016000915090508060000160009054906101000a900473ffffffffffffffffffffffffffffffffffffffff169080600101549080600201549080600301805461022e90611857565b80601f016020809104026020016040519081016040528092919081815260200182805461025a90611857565b80156102a75780601f1061027c576101008083540402835291602001916102a7565b820191906000526020600020905b81548152906001019060200180831161028a57829003601f168201915b5050505050905084565b6102bc838383610b58565b60008054906101000a900473ffffffffffffffffffffffffffffffffffffffff1673ffffffffffffffffffffffffffffffffffffffff1663a9059cbb33606460628561030891906118b7565b6103129190611928565b6040518363ffffffff1660e01b815260040161032f929190611959565b6020604051808303816000875af115801561034e573d6000803e3d6000fd5b505050506040513d601f19601f8201168201806040525081019061037291906119ba565b503373ffffffffffffffffffffffffffffffffffffffff167f3f693fff038bb8a046aa76d9516190ac7444f7d69cf952c4cbdc086fdef2d6fc8484846040516103bd939291906119e7565b60405180910390a2505050565b6002602052816000526040600020602052806000526040600020600091509150508060000160009054906101000a900473ffffffffffffffffffffffffffffffffffffffff169080600101549080600201549080600301805461042c90611857565b80601f016020809104026020016040519081016040528092919081815260200182805461045890611857565b80156104a55780601f1061047a576101008083540402835291602001916104a5565b820191906000526020600020905b81548152906001019060200180831161048857829003601f168201915b5050505050905084565b606060006001808054905081805480602002602001604051908101604052809291908181526020016000905b8282101561060957838290600052602060002090600402016040518060800160405290816000820160009054906101000a900473ffffffffffffffffffffffffffffffffffffffff1673ffffffffffffffffffffffffffffffffffffffff1673ffffffffffffffffffffffffffffffffffffffff168152602001600182015481526020016002820154815260200160038201805461057890611857565b80601f01602080910402602001604051908101604052809291908181526020018280546105a490611857565b80156105f15780601f106105c6576101008083540402835291602001916105f1565b820191906000526020600020905b8154815290600101906020018083116105d457829003601f168201915b505050505081525050815260200190600101906104db565b505050509150915091509091565b60008054906101000a900473ffffffffffffffffffffffffffffffffffffffff1681565b81816000600260008473ffffffffffffffffffffffffffffffffffffffff1673ffffffffffffffffffffffffffffffffffffffff16815260200190815260200160002060008381526020019081526020016000206040518060800160405290816000820160009054906101000a900473ffffffffffffffffffffffffffffffffffffffff1673ffffffffffffffffffffffffffffffffffffffff1673ffffffffffffffffffffffffffffffffffffffff168152602001600182015481526020016002820154815260200160038201805461071490611857565b80601f016020809104026020016040519081016040528092919081815260200182805461074090611857565b801561078d5780601f106107625761010080835404028352916020019161078d565b820191906000526020600020905b81548152906001019060200180831161077057829003601f168201915b505050505081525050905060008160400151116107df576040517f08c379a00000000000000000000000000000000000000000000000000000000081526004016107d690611a6a565b60405180910390fd5b60008590506000600260008873ffffffffffffffffffffffffffffffffffffffff1673ffffffffffffffffffffffffffffffffffffffff16815260200190815260200160002060008781526020019081526020016000206040518060800160405290816000820160009054906101000a900473ffffffffffffffffffffffffffffffffffffffff1673ffffffffffffffffffffffffffffffffffffffff1673ffffffffffffffffffffffffffffffffffffffff16815260200160018201548152602001600282015481526020016003820180546108bb90611857565b80601f01602080910402602001604051908101604052809291908181526020018280546108e790611857565b80156109345780601f1061090957610100808354040283529160200191610934565b820191906000526020600020905b81548152906001019060200180831161091757829003601f168201915b505050505081525050905061094b60018888610fcb565b60008054906101000a900473ffffffffffffffffffffffffffffffffffffffff1673ffffffffffffffffffffffffffffffffffffffff166323b872dd333084604001516040518463ffffffff1660e01b81526004016109ac93929190611a8a565b6020604051808303816000875af11580156109cb573d6000803e3d6000fd5b505050506040513d601f19601f820116820180604052508101906109ef91906119ba565b508173ffffffffffffffffffffffffffffffffffffffff166342842e0e3033896040518463ffffffff1660e01b8152600401610a2d93929190611a8a565b600060405180830381600087803b158015610a4757600080fd5b505af1158015610a5b573d6000803e3d6000fd5b50505050600260008873ffffffffffffffffffffffffffffffffffffffff1673ffffffffffffffffffffffffffffffffffffffff1681526020019081526020016000206000878152602001908152602001600020600080820160006101000a81549073ffffffffffffffffffffffffffffffffffffffff021916905560018201600090556002820160009055600382016000610af791906111ef565b50503373ffffffffffffffffffffffffffffffffffffffff167fe35677743c6b7abf01cca38cf0f4b986386e50105ec5fd3f42daeea57acf57a988888460400151604051610b47939291906119e7565b60405180910390a250505050505050565b828260008290503373ffffffffffffffffffffffffffffffffffffffff168173ffffffffffffffffffffffffffffffffffffffff16636352211e846040518263ffffffff1660e01b8152600401610baf9190611ac1565b602060405180830381865afa158015610bcc573d6000803e3d6000fd5b505050506040513d601f19601f82011682018060405250810190610bf09190611af1565b73ffffffffffffffffffffffffffffffffffffffff1614610c46576040517f08c379a0000000000000000000000000000000000000000000000000000000008152600401610c3d90611b90565b60405180910390fd5b60008690506000600260008973ffffffffffffffffffffffffffffffffffffffff1673ffffffffffffffffffffffffffffffffffffffff1681526020019081526020016000206000888152602001908152602001600020600201541115610ce65786866040517ff6854128000000000000000000000000000000000000000000000000000000008152600401610cdd929190611959565b60405180910390fd5b8073ffffffffffffffffffffffffffffffffffffffff166342842e0e3330896040518463ffffffff1660e01b8152600401610d2393929190611a8a565b600060405180830381600087803b158015610d3d57600080fd5b505af1158015610d51573d6000803e3d6000fd5b50505050600060405180608001604052808973ffffffffffffffffffffffffffffffffffffffff1681526020018881526020018781526020018973ffffffffffffffffffffffffffffffffffffffff1663c87b56dd8a6040518263ffffffff1660e01b8152600401610dc39190611ac1565b600060405180830381865afa158015610de0573d6000803e3d6000fd5b505050506040513d6000823e3d601f19601f82011682018060405250810190610e099190611cd1565b815250905080600260008a73ffffffffffffffffffffffffffffffffffffffff1673ffffffffffffffffffffffffffffffffffffffff168152602001908152602001600020600089815260200190815260200160002060008201518160000160006101000a81548173ffffffffffffffffffffffffffffffffffffffff021916908373ffffffffffffffffffffffffffffffffffffffff16021790555060208201518160010155604082015181600201556060820151816003019081610ecf9190611ebc565b50905050600181908060018154018082558091505060019003906000526020600020906004020160009091909190915060008201518160000160006101000a81548173ffffffffffffffffffffffffffffffffffffffff021916908373ffffffffffffffffffffffffffffffffffffffff16021790555060208201518160010155604082015181600201556060820151816003019081610f6f9190611ebc565b505050868873ffffffffffffffffffffffffffffffffffffffff167f40405dffa400b60b90a33259490fd4b4ca34a6ca7ec47e3d5f9b3bfbc0e7fda888604051610fb99190611ac1565b60405180910390a35050505050505050565b60005b83805490508110156111e9578273ffffffffffffffffffffffffffffffffffffffff1684828154811061100457611003611f8e565b5b906000526020600020906004020160000160009054906101000a900473ffffffffffffffffffffffffffffffffffffffff1673ffffffffffffffffffffffffffffffffffffffff1614801561107c57508184828154811061106857611067611f8e565b5b906000526020600020906004020160010154145b156111dc5783600185805490506110939190611fbd565b815481106110a4576110a3611f8e565b5b90600052602060002090600402018482815481106110c5576110c4611f8e565b5b90600052602060002090600402016000820160009054906101000a900473ffffffffffffffffffffffffffffffffffffffff168160000160006101000a81548173ffffffffffffffffffffffffffffffffffffffff021916908373ffffffffffffffffffffffffffffffffffffffff1602179055506001820154816001015560028201548160020155600382018160030190816111629190612007565b5090505083805480611177576111766120ef565b5b6001900381819060005260206000209060040201600080820160006101000a81549073ffffffffffffffffffffffffffffffffffffffff0219169055600182016000905560028201600090556003820160006111d391906111ef565b505090556111e9565b8080600101915050610fce565b50505050565b5080546111fb90611857565b6000825580601f1061120d575061122c565b601f01602090049060005260206000209081019061122b919061122f565b5b50565b5b80821115611248576000816000905550600101611230565b5090565b6000604051905090565b600080fd5b600080fd5b600073ffffffffffffffffffffffffffffffffffffffff82169050919050565b600061128b82611260565b9050919050565b61129b81611280565b81146112a657600080fd5b50565b6000813590506112b881611292565b92915050565b6000819050919050565b6112d1816112be565b81146112dc57600080fd5b50565b6000813590506112ee816112c8565b92915050565b600080fd5b600080fd5b600080fd5b60008083601f840112611319576113186112f4565b5b8235905067ffffffffffffffff811115611336576113356112f9565b5b602083019150836001820283011115611352576113516112fe565b5b9250929050565b60008060008060006080868803121561137557611374611256565b5b6000611383888289016112a9565b9550506020611394888289016112a9565b94505060406113a5888289016112df565b935050606086013567ffffffffffffffff8111156113c6576113c561125b565b5b6113d288828901611303565b92509250509295509295909350565b60007fffffffff0000000000000000000000000000000000000000000000000000000082169050919050565b611416816113e1565b82525050565b6000602082019050611431600083018461140d565b92915050565b60006020828403121561144d5761144c611256565b5b600061145b848285016112df565b91505092915050565b61146d81611280565b82525050565b61147c816112be565b82525050565b600081519050919050565b600082825260208201905092915050565b60005b838110156114bc5780820151818401526020810190506114a1565b60008484015250505050565b6000601f19601f8301169050919050565b60006114e482611482565b6114ee818561148d565b93506114fe81856020860161149e565b611507816114c8565b840191505092915050565b60006080820190506115276000830187611464565b6115346020830186611473565b6115416040830185611473565b818103606083015261155381846114d9565b905095945050505050565b60008060006060848603121561157757611576611256565b5b6000611585868287016112a9565b9350506020611596868287016112df565b92505060406115a7868287016112df565b9150509250925092565b600080604083850312156115c8576115c7611256565b5b60006115d6858286016112a9565b92505060206115e7858286016112df565b9150509250929050565b600081519050919050565b600082825260208201905092915050565b6000819050602082019050919050565b61162681611280565b82525050565b611635816112be565b82525050565b600082825260208201905092915050565b600061165782611482565b611661818561163b565b935061167181856020860161149e565b61167a816114c8565b840191505092915050565b600060808301600083015161169d600086018261161d565b5060208301516116b0602086018261162c565b5060408301516116c3604086018261162c565b50606083015184820360608601526116db828261164c565b9150508091505092915050565b60006116f48383611685565b905092915050565b6000602082019050919050565b6000611714826115f1565b61171e81856115fc565b9350836020820285016117308561160d565b8060005b8581101561176c578484038952815161174d85826116e8565b9450611758836116fc565b925060208a01995050600181019050611734565b50829750879550505050505092915050565b600060408201905081810360008301526117988185611709565b90506117a76020830184611473565b9392505050565b6000819050919050565b60006117d36117ce6117c984611260565b6117ae565b611260565b9050919050565b60006117e5826117b8565b9050919050565b60006117f7826117da565b9050919050565b611807816117ec565b82525050565b600060208201905061182260008301846117fe565b92915050565b7f4e487b7100000000000000000000000000000000000000000000000000000000600052602260045260246000fd5b6000600282049050600182168061186f57607f821691505b60208210810361188257611881611828565b5b50919050565b7f4e487b7100000000000000000000000000000000000000000000000000000000600052601160045260246000fd5b60006118c2826112be565b91506118cd836112be565b92508282026118db816112be565b915082820484148315176118f2576118f1611888565b5b5092915050565b7f4e487b7100000000000000000000000000000000000000000000000000000000600052601260045260246000fd5b6000611933826112be565b915061193e836112be565b92508261194e5761194d6118f9565b5b828204905092915050565b600060408201905061196e6000830185611464565b61197b6020830184611473565b9392505050565b60008115159050919050565b61199781611982565b81146119a257600080fd5b50565b6000815190506119b48161198e565b92915050565b6000602082840312156119d0576119cf611256565b5b60006119de848285016119a5565b91505092915050565b60006060820190506119fc6000830186611464565b611a096020830185611473565b611a166040830184611473565b949350505050565b7f43757272656e74204e465420686173206e6f206c697374656421000000000000600082015250565b6000611a54601a8361148d565b9150611a5f82611a1e565b602082019050919050565b60006020820190508181036000830152611a8381611a47565b9050919050565b6000606082019050611a9f6000830186611464565b611aac6020830185611464565b611ab96040830184611473565b949350505050565b6000602082019050611ad66000830184611473565b92915050565b600081519050611aeb81611292565b92915050565b600060208284031215611b0757611b06611256565b5b6000611b1584828501611adc565b91505092915050565b7f54686973204e4654206973206e6f742062656c6f6e6720746f2063757272656e60008201527f7420616464726573732100000000000000000000000000000000000000000000602082015250565b6000611b7a602a8361148d565b9150611b8582611b1e565b604082019050919050565b60006020820190508181036000830152611ba981611b6d565b9050919050565b600080fd5b7f4e487b7100000000000000000000000000000000000000000000000000000000600052604160045260246000fd5b611bed826114c8565b810181811067ffffffffffffffff82111715611c0c57611c0b611bb5565b5b80604052505050565b6000611c1f61124c565b9050611c2b8282611be4565b919050565b600067ffffffffffffffff821115611c4b57611c4a611bb5565b5b611c54826114c8565b9050602081019050919050565b6000611c74611c6f84611c30565b611c15565b905082815260208101848484011115611c9057611c8f611bb0565b5b611c9b84828561149e565b509392505050565b600082601f830112611cb857611cb76112f4565b5b8151611cc8848260208601611c61565b91505092915050565b600060208284031215611ce757611ce6611256565b5b600082015167ffffffffffffffff811115611d0557611d0461125b565b5b611d1184828501611ca3565b91505092915050565b60008190508160005260206000209050919050565b60006020601f8301049050919050565b600082821b905092915050565b600060088302611d7c7fffffffffffffffffffffffffffffffffffffffffffffffffffffffffffffffff82611d3f565b611d868683611d3f565b95508019841693508086168417925050509392505050565b6000611db9611db4611daf846112be565b6117ae565b6112be565b9050919050565b6000819050919050565b611dd383611d9e565b611de7611ddf82611dc0565b848454611d4c565b825550505050565b600090565b611dfc611def565b611e07818484611dca565b505050565b5b81811015611e2b57611e20600082611df4565b600181019050611e0d565b5050565b601f821115611e7057611e4181611d1a565b611e4a84611d2f565b81016020851015611e59578190505b611e6d611e6585611d2f565b830182611e0c565b50505b505050565b600082821c905092915050565b6000611e9360001984600802611e75565b1980831691505092915050565b6000611eac8383611e82565b9150826002028217905092915050565b611ec582611482565b67ffffffffffffffff811115611ede57611edd611bb5565b5b611ee88254611857565b611ef3828285611e2f565b600060209050601f831160018114611f265760008415611f14578287015190505b611f1e8582611ea0565b865550611f86565b601f198416611f3486611d1a565b60005b82811015611f5c57848901518255600182019150602085019450602081019050611f37565b86831015611f795784890151611f75601f891682611e82565b8355505b6001600288020188555050505b505050505050565b7f4e487b7100000000000000000000000000000000000000000000000000000000600052603260045260246000fd5b6000611fc8826112be565b9150611fd3836112be565b9250828203905081811115611feb57611fea611888565b5b92915050565b60008154905061200081611857565b9050919050565b8181036120155750506120ed565b61201e82611ff1565b67ffffffffffffffff81111561203757612036611bb5565b5b6120418254611857565b61204c828285611e2f565b6000601f83116001811461207b5760008415612069578287015490505b6120738582611ea0565b8655506120e6565b601f19841661208987611d1a565b965061209486611d1a565b60005b828110156120bc57848901548255600182019150600185019450602081019050612097565b868310156120d957848901546120d5601f891682611e82565b8355505b6001600288020188555050505b5050505050505b565b7f4e487b7100000000000000000000000000000000000000000000000000000000600052603160045260246000fdfea2646970667358221220ee037b67dccd61c73fcf9d14cc55121dcc003bd5d01187dfb0fbaebf2c7533e864736f6c63430008180033",
  "linkReferences": {},
  "deployedLinkReferences": {}
}