{
  "_format": "hh-sol-artifact-1",
  "contractName": "JuryNFTSwap",
  "sourceName": "contracts/JuryNFTSwap.sol",
  "abi": [
    {
      "inputs": [
        {
          "internalType": "address",
          "name": "_tokenAddr",
          "type": "address"
        },
        {
          "internalType": "address",
          "name": "_melonNFTAddr",
          "type": "address"
        },
        {
          "internalType": "address",
          "name": "_proposalAddr",
          "type": "address"
        }
      ],
      "stateMutability": "nonpayable",
      "type": "constructor"
    },
    {
      "inputs": [
        {
          "internalType": "uint256",
          "name": "tokenId",
          "type": "uint256"
        }
      ],
      "name": "AlreadyListed",
      "type": "error"
    },
    {
      "inputs": [
        {
          "internalType": "address",
          "name": "user",
          "type": "address"
        },
        {
          "internalType": "uint256",
          "name": "holdAmount",
          "type": "uint256"
        }
      ],
      "name": "MaximumNumberOfHoldings",
      "type": "error"
    },
    {
      "inputs": [
        {
          "internalType": "uint256",
          "name": "tokenId",
          "type": "uint256"
        }
      ],
      "name": "NotListed",
      "type": "error"
    },
    {
      "inputs": [
        {
          "internalType": "address",
          "name": "user",
          "type": "address"
        },
        {
          "internalType": "uint256",
          "name": "tokenId",
          "type": "uint256"
        }
      ],
      "name": "NotNFTOwner",
      "type": "error"
    },
    {
      "inputs": [
        {
          "internalType": "address",
          "name": "pledger",
          "type": "address"
        }
      ],
      "name": "NotPledger",
      "type": "error"
    },
    {
      "inputs": [
        {
          "internalType": "address",
          "name": "NFTAddr",
          "type": "address"
        },
        {
          "internalType": "uint256",
          "name": "tokenId",
          "type": "uint256"
        },
        {
          "internalType": "uint256",
          "name": "redemptionTime",
          "type": "uint256"
        }
      ],
      "name": "RedemptionTimeNotReached",
      "type": "error"
    },
    {
      "anonymous": false,
      "inputs": [
        {
          "indexed": true,
          "internalType": "address",
          "name": "buyer",
          "type": "address"
        },
        {
          "indexed": false,
          "internalType": "uint256",
          "name": "tokenId",
          "type": "uint256"
        },
        {
          "indexed": false,
          "internalType": "uint256",
          "name": "price",
          "type": "uint256"
        }
      ],
      "name": "BuyNFT",
      "type": "event"
    },
    {
      "anonymous": false,
      "inputs": [
        {
          "indexed": true,
          "internalType": "uint256",
          "name": "tokenId",
          "type": "uint256"
        },
        {
          "indexed": false,
          "internalType": "uint256",
          "name": "price",
          "type": "uint256"
        }
      ],
      "name": "HangOut",
      "type": "event"
    },
    {
      "anonymous": false,
      "inputs": [
        {
          "indexed": true,
          "internalType": "address",
          "name": "previousOwner",
          "type": "address"
        },
        {
          "indexed": true,
          "internalType": "address",
          "name": "newOwner",
          "type": "address"
        }
      ],
      "name": "OwnershipTransferred",
      "type": "event"
    },
    {
      "anonymous": false,
      "inputs": [
        {
          "indexed": true,
          "internalType": "address",
          "name": "redeemer",
          "type": "address"
        },
        {
          "indexed": false,
          "internalType": "uint256",
          "name": "tokenId",
          "type": "uint256"
        },
        {
          "indexed": false,
          "internalType": "uint256",
          "name": "redeemPrice",
          "type": "uint256"
        }
      ],
      "name": "Redeem",
      "type": "event"
    },
    {
      "anonymous": false,
      "inputs": [
        {
          "indexed": true,
          "internalType": "address",
          "name": "buyer",
          "type": "address"
        },
        {
          "indexed": false,
          "internalType": "uint256",
          "name": "tokenId",
          "type": "uint256"
        },
        {
          "indexed": false,
          "internalType": "uint256",
          "name": "price",
          "type": "uint256"
        }
      ],
      "name": "StartUpNFTSending",
      "type": "event"
    },
    {
      "inputs": [],
      "name": "getAllListing",
      "outputs": [
        {
          "components": [
            {
              "internalType": "uint256",
              "name": "tokenId",
              "type": "uint256"
            },
            {
              "internalType": "uint256",
              "name": "price",
              "type": "uint256"
            },
            {
              "internalType": "string",
              "name": "uri",
              "type": "string"
            }
          ],
          "internalType": "struct JuryNFTSwap.Info[]",
          "name": "",
          "type": "tuple[]"
        },
        {
          "internalType": "uint256",
          "name": "",
          "type": "uint256"
        }
      ],
      "stateMutability": "view",
      "type": "function"
    },
    {
      "inputs": [
        {
          "internalType": "uint256",
          "name": "",
          "type": "uint256"
        }
      ],
      "name": "infoByTokenId",
      "outputs": [
        {
          "internalType": "uint256",
          "name": "tokenId",
          "type": "uint256"
        },
        {
          "internalType": "uint256",
          "name": "price",
          "type": "uint256"
        },
        {
          "internalType": "string",
          "name": "uri",
          "type": "string"
        }
      ],
      "stateMutability": "view",
      "type": "function"
    },
    {
      "inputs": [
        {
          "internalType": "uint256",
          "name": "",
          "type": "uint256"
        }
      ],
      "name": "infos",
      "outputs": [
        {
          "internalType": "uint256",
          "name": "tokenId",
          "type": "uint256"
        },
        {
          "internalType": "uint256",
          "name": "price",
          "type": "uint256"
        },
        {
          "internalType": "string",
          "name": "uri",
          "type": "string"
        }
      ],
      "stateMutability": "view",
      "type": "function"
    },
    {
      "inputs": [
        {
          "internalType": "uint256",
          "name": "tokenId",
          "type": "uint256"
        },
        {
          "internalType": "uint256",
          "name": "price",
          "type": "uint256"
        }
      ],
      "name": "initialNFTHangOut",
      "outputs": [],
      "stateMutability": "nonpayable",
      "type": "function"
    },
    {
      "inputs": [
        {
          "internalType": "uint256",
          "name": "tokenId",
          "type": "uint256"
        },
        {
          "internalType": "address",
          "name": "pledger",
          "type": "address"
        }
      ],
      "name": "issuanceStartUpNFT",
      "outputs": [],
      "stateMutability": "nonpayable",
      "type": "function"
    },
    {
      "inputs": [],
      "name": "melonNFT",
      "outputs": [
        {
          "internalType": "contract MelonNFT",
          "name": "",
          "type": "address"
        }
      ],
      "stateMutability": "view",
      "type": "function"
    },
    {
      "inputs": [],
      "name": "melonToken",
      "outputs": [
        {
          "internalType": "contract MelonToken",
          "name": "",
          "type": "address"
        }
      ],
      "stateMutability": "view",
      "type": "function"
    },
    {
      "inputs": [
        {
          "internalType": "address",
          "name": "operator",
          "type": "address"
        },
        {
          "internalType": "address",
          "name": "from",
          "type": "address"
        },
        {
          "internalType": "uint256",
          "name": "tokenId",
          "type": "uint256"
        },
        {
          "internalType": "bytes",
          "name": "data",
          "type": "bytes"
        }
      ],
      "name": "onERC721Received",
      "outputs": [
        {
          "internalType": "bytes4",
          "name": "",
          "type": "bytes4"
        }
      ],
      "stateMutability": "pure",
      "type": "function"
    },
    {
      "inputs": [],
      "name": "owner",
      "outputs": [
        {
          "internalType": "address",
          "name": "",
          "type": "address"
        }
      ],
      "stateMutability": "view",
      "type": "function"
    },
    {
      "inputs": [],
      "name": "proposal",
      "outputs": [
        {
          "internalType": "contract Proposal",
          "name": "",
          "type": "address"
        }
      ],
      "stateMutability": "view",
      "type": "function"
    },
    {
      "inputs": [
        {
          "internalType": "uint256",
          "name": "tokenId",
          "type": "uint256"
        }
      ],
      "name": "purchaseCommonNFT",
      "outputs": [],
      "stateMutability": "nonpayable",
      "type": "function"
    },
    {
      "inputs": [
        {
          "internalType": "uint256",
          "name": "tokenId",
          "type": "uint256"
        },
        {
          "internalType": "uint256",
          "name": "price",
          "type": "uint256"
        }
      ],
      "name": "redeem",
      "outputs": [],
      "stateMutability": "nonpayable",
      "type": "function"
    },
    {
      "inputs": [],
      "name": "renounceOwnership",
      "outputs": [],
      "stateMutability": "nonpayable",
      "type": "function"
    },
    {
      "inputs": [
        {
          "internalType": "address",
          "name": "newOwner",
          "type": "address"
        }
      ],
      "name": "transferOwnership",
      "outputs": [],
      "stateMutability": "nonpayable",
      "type": "function"
    }
  ],
  "bytecode": "0x60806040523480156200001157600080fd5b5060405162002b1038038062002b10833981810160405281019062000037919062000259565b620000576200004b6200012360201b60201c565b6200012b60201b60201c565b82600160006101000a81548173ffffffffffffffffffffffffffffffffffffffff021916908373ffffffffffffffffffffffffffffffffffffffff16021790555081600260006101000a81548173ffffffffffffffffffffffffffffffffffffffff021916908373ffffffffffffffffffffffffffffffffffffffff16021790555080600360006101000a81548173ffffffffffffffffffffffffffffffffffffffff021916908373ffffffffffffffffffffffffffffffffffffffff160217905550505050620002b5565b600033905090565b60008060009054906101000a900473ffffffffffffffffffffffffffffffffffffffff169050816000806101000a81548173ffffffffffffffffffffffffffffffffffffffff021916908373ffffffffffffffffffffffffffffffffffffffff1602179055508173ffffffffffffffffffffffffffffffffffffffff168173ffffffffffffffffffffffffffffffffffffffff167f8be0079c531659141344cd1fd0a4f28419497f9722a3daafe3b4186f6b6457e060405160405180910390a35050565b600080fd5b600073ffffffffffffffffffffffffffffffffffffffff82169050919050565b60006200022182620001f4565b9050919050565b620002338162000214565b81146200023f57600080fd5b50565b600081519050620002538162000228565b92915050565b600080600060608486031215620002755762000274620001ef565b5b6000620002858682870162000242565b9350506020620002988682870162000242565b9250506040620002ab8682870162000242565b9150509250925092565b61284b80620002c56000396000f3fe608060405234801561001057600080fd5b50600436106100ea5760003560e01c8063753ec1031161008c578063b7a7d14f11610066578063b7a7d14f1461022a578063cb5b7d3414610246578063f2fde38b14610278578063f656956514610294576100ea565b8063753ec103146101d25780637cbc2373146101f05780638da5cb5b1461020c576100ea565b8063467efe5a116100c8578063467efe5a1461016f5780634f7fc7dd1461018e5780636b915d43146101aa578063715018a6146101c8576100ea565b8063150b7a02146100ef5780631b02e2d61461011f57806328de3c9b1461013d575b600080fd5b6101096004803603810190610104919061199f565b6102b0565b6040516101169190611a62565b60405180910390f35b6101276102c5565b6040516101349190611adc565b60405180910390f35b61015760048036038101906101529190611af7565b6102eb565b60405161016693929190611bc3565b60405180910390f35b6101776103ad565b604051610185929190611d6c565b60405180910390f35b6101a860048036038101906101a39190611d9c565b6104bf565b005b6101b261086e565b6040516101bf9190611dfd565b60405180910390f35b6101d0610894565b005b6101da6108a8565b6040516101e79190611e39565b60405180910390f35b61020a60048036038101906102059190611d9c565b6108ce565b005b610214610d46565b6040516102219190611e63565b60405180910390f35b610244600480360381019061023f9190611af7565b610d6f565b005b610260600480360381019061025b9190611af7565b611159565b60405161026f93929190611bc3565b60405180910390f35b610292600480360381019061028d9190611e7e565b61120b565b005b6102ae60048036038101906102a99190611eab565b61128e565b005b600063150b7a0260e01b905095945050505050565b600260009054906101000a900473ffffffffffffffffffffffffffffffffffffffff1681565b600481815481106102fb57600080fd5b906000526020600020906003020160009150905080600001549080600101549080600201805461032a90611f1a565b80601f016020809104026020016040519081016040528092919081815260200182805461035690611f1a565b80156103a35780601f10610378576101008083540402835291602001916103a3565b820191906000526020600020905b81548152906001019060200180831161038657829003601f168201915b5050505050905083565b606060006004808054905081805480602002602001604051908101604052809291908181526020016000905b828210156104b15783829060005260206000209060030201604051806060016040529081600082015481526020016001820154815260200160028201805461042090611f1a565b80601f016020809104026020016040519081016040528092919081815260200182805461044c90611f1a565b80156104995780601f1061046e57610100808354040283529160200191610499565b820191906000526020600020905b81548152906001019060200180831161047c57829003601f168201915b505050505081525050815260200190600101906103d9565b505050509150915091509091565b33828173ffffffffffffffffffffffffffffffffffffffff16600260009054906101000a900473ffffffffffffffffffffffffffffffffffffffff1673ffffffffffffffffffffffffffffffffffffffff16636352211e836040518263ffffffff1660e01b81526004016105339190611f4b565b602060405180830381865afa158015610550573d6000803e3d6000fd5b505050506040513d601f19601f820116820180604052508101906105749190611f7b565b73ffffffffffffffffffffffffffffffffffffffff16146105ce5781816040517f21e303dc0000000000000000000000000000000000000000000000000000000081526004016105c5929190611fa8565b60405180910390fd5b8360006005600083815260200190815260200160002060020180546105f290611f1a565b9050111561063757806040517f7fbcdff900000000000000000000000000000000000000000000000000000000815260040161062e9190611f4b565b60405180910390fd5b61063f6115d2565b600260009054906101000a900473ffffffffffffffffffffffffffffffffffffffff1673ffffffffffffffffffffffffffffffffffffffff166342842e0e3330886040518463ffffffff1660e01b815260040161069e93929190611fd1565b600060405180830381600087803b1580156106b857600080fd5b505af11580156106cc573d6000803e3d6000fd5b505050506000600260009054906101000a900473ffffffffffffffffffffffffffffffffffffffff1673ffffffffffffffffffffffffffffffffffffffff1663c87b56dd876040518263ffffffff1660e01b815260040161072d9190611f4b565b600060405180830381865afa15801561074a573d6000803e3d6000fd5b505050506040513d6000823e3d601f19601f820116820180604052508101906107739190612129565b9050600060405180606001604052808881526020018781526020018381525090506004819080600181540180825580915050600190039060005260206000209060030201600090919091909150600082015181600001556020820151816001015560408201518160020190816107e99190612314565b5050508060056000898152602001908152602001600020600082015181600001556020820151816001015560408201518160020190816108299190612314565b50905050867fac040a3669b42aba8178c26fbd2fd6a5148e4e5434c9ce01dcb0144e45fc73dc8760405161085d9190611f4b565b60405180910390a250505050505050565b600160009054906101000a900473ffffffffffffffffffffffffffffffffffffffff1681565b61089c6115d2565b6108a66000611650565b565b600360009054906101000a900473ffffffffffffffffffffffffffffffffffffffff1681565b33828173ffffffffffffffffffffffffffffffffffffffff16600260009054906101000a900473ffffffffffffffffffffffffffffffffffffffff1673ffffffffffffffffffffffffffffffffffffffff16636352211e836040518263ffffffff1660e01b81526004016109429190611f4b565b602060405180830381865afa15801561095f573d6000803e3d6000fd5b505050506040513d601f19601f820116820180604052508101906109839190611f7b565b73ffffffffffffffffffffffffffffffffffffffff16146109dd5781816040517f21e303dc0000000000000000000000000000000000000000000000000000000081526004016109d4929190611fa8565b60405180910390fd5b836000600560008381526020019081526020016000206002018054610a0190611f1a565b90501115610a4657806040517f7fbcdff9000000000000000000000000000000000000000000000000000000008152600401610a3d9190611f4b565b60405180910390fd5b600260009054906101000a900473ffffffffffffffffffffffffffffffffffffffff1673ffffffffffffffffffffffffffffffffffffffff166342842e0e3330886040518463ffffffff1660e01b8152600401610aa593929190611fd1565b600060405180830381600087803b158015610abf57600080fd5b505af1158015610ad3573d6000803e3d6000fd5b505050506000600260009054906101000a900473ffffffffffffffffffffffffffffffffffffffff1673ffffffffffffffffffffffffffffffffffffffff1663c87b56dd876040518263ffffffff1660e01b8152600401610b349190611f4b565b600060405180830381865afa158015610b51573d6000803e3d6000fd5b505050506040513d6000823e3d601f19601f82011682018060405250810190610b7a9190612129565b905060006040518060600160405280888152602001878152602001838152509050600481908060018154018082558091505060019003906000526020600020906003020160009091909190915060008201518160000155602082015181600101556040820151816002019081610bf09190612314565b505050806005600089815260200190815260200160002060008201518160000155602082015181600101556040820151816002019081610c309190612314565b50905050600160009054906101000a900473ffffffffffffffffffffffffffffffffffffffff1673ffffffffffffffffffffffffffffffffffffffff1663a9059cbb33606460628a610c829190612415565b610c8c9190612486565b6040518363ffffffff1660e01b8152600401610ca9929190611fa8565b6020604051808303816000875af1158015610cc8573d6000803e3d6000fd5b505050506040513d601f19601f82011682018060405250810190610cec91906124ef565b503373ffffffffffffffffffffffffffffffffffffffff167fe5b754fb1abb7f01b499791d0b820ae3b6af3424ac1c59768edb53f4ec31a9298888604051610d3592919061251c565b60405180910390a250505050505050565b60008060009054906101000a900473ffffffffffffffffffffffffffffffffffffffff16905090565b806000600560008381526020019081526020016000206002018054610d9390611f1a565b905003610dd757806040517fd176cea0000000000000000000000000000000000000000000000000000000008152600401610dce9190611f4b565b60405180910390fd5b6000600260009054906101000a900473ffffffffffffffffffffffffffffffffffffffff1673ffffffffffffffffffffffffffffffffffffffff166370a08231336040518263ffffffff1660e01b8152600401610e349190611e63565b602060405180830381865afa158015610e51573d6000803e3d6000fd5b505050506040513d601f19601f82011682018060405250810190610e75919061255a565b905060038110610ebe5733816040517f8c13eb06000000000000000000000000000000000000000000000000000000008152600401610eb5929190611fa8565b60405180910390fd5b6000600560008581526020019081526020016000206040518060600160405290816000820154815260200160018201548152602001600282018054610f0290611f1a565b80601f0160208091040260200160405190810160405280929190818152602001828054610f2e90611f1a565b8015610f7b5780601f10610f5057610100808354040283529160200191610f7b565b820191906000526020600020905b815481529060010190602001808311610f5e57829003601f168201915b5050505050815250509050600160009054906101000a900473ffffffffffffffffffffffffffffffffffffffff1673ffffffffffffffffffffffffffffffffffffffff166323b872dd333084602001516040518463ffffffff1660e01b8152600401610fe993929190611fd1565b6020604051808303816000875af1158015611008573d6000803e3d6000fd5b505050506040513d601f19601f8201168201806040525081019061102c91906124ef565b50600260009054906101000a900473ffffffffffffffffffffffffffffffffffffffff1673ffffffffffffffffffffffffffffffffffffffff166342842e0e3033876040518463ffffffff1660e01b815260040161108c93929190611fd1565b600060405180830381600087803b1580156110a657600080fd5b505af11580156110ba573d6000803e3d6000fd5b505050506005600085815260200190815260200160002060008082016000905560018201600090556002820160006110f29190611835565b50506110ff600485611714565b3373ffffffffffffffffffffffffffffffffffffffff167f5d963241241cfe9e161d13500d628058954b3febfde03e4b1f4071370e72fe2b85836020015160405161114b92919061251c565b60405180910390a250505050565b600560205280600052604060002060009150905080600001549080600101549080600201805461118890611f1a565b80601f01602080910402602001604051908101604052809291908181526020018280546111b490611f1a565b80156112015780601f106111d657610100808354040283529160200191611201565b820191906000526020600020905b8154815290600101906020018083116111e457829003601f168201915b5050505050905083565b6112136115d2565b600073ffffffffffffffffffffffffffffffffffffffff168173ffffffffffffffffffffffffffffffffffffffff1603611282576040517f08c379a0000000000000000000000000000000000000000000000000000000008152600401611279906125f9565b60405180910390fd5b61128b81611650565b50565b806000600360009054906101000a900473ffffffffffffffffffffffffffffffffffffffff1673ffffffffffffffffffffffffffffffffffffffff16638c5fe473836040518263ffffffff1660e01b81526004016112ec9190611e63565b602060405180830381865afa158015611309573d6000803e3d6000fd5b505050506040513d601f19601f8201168201806040525081019061132d919061255a565b90506000810361137457816040517f7a33e99c00000000000000000000000000000000000000000000000000000000815260040161136b9190611e63565b60405180910390fd5b83600060056000838152602001908152602001600020600201805461139890611f1a565b9050036113dc57806040517fd176cea00000000000000000000000000000000000000000000000000000000081526004016113d39190611f4b565b60405180910390fd5b600060056000878152602001908152602001600020604051806060016040529081600082015481526020016001820154815260200160028201805461142090611f1a565b80601f016020809104026020016040519081016040528092919081815260200182805461144c90611f1a565b80156114995780601f1061146e57610100808354040283529160200191611499565b820191906000526020600020905b81548152906001019060200180831161147c57829003601f168201915b5050505050815250509050600260009054906101000a900473ffffffffffffffffffffffffffffffffffffffff1673ffffffffffffffffffffffffffffffffffffffff166342842e0e3087896040518463ffffffff1660e01b815260040161150393929190611fd1565b600060405180830381600087803b15801561151d57600080fd5b505af1158015611531573d6000803e3d6000fd5b50505050611540600487611714565b6005600087815260200190815260200160002060008082016000905560018201600090556002820160006115749190611835565b50508473ffffffffffffffffffffffffffffffffffffffff167fde4f139185ace785cbf7e66c8f61847efcaa12e5e37cf3372124403285b25d878783602001516040516115c292919061251c565b60405180910390a2505050505050565b6115da61182d565b73ffffffffffffffffffffffffffffffffffffffff166115f8610d46565b73ffffffffffffffffffffffffffffffffffffffff161461164e576040517f08c379a000000000000000000000000000000000000000000000000000000000815260040161164590612665565b60405180910390fd5b565b60008060009054906101000a900473ffffffffffffffffffffffffffffffffffffffff169050816000806101000a81548173ffffffffffffffffffffffffffffffffffffffff021916908373ffffffffffffffffffffffffffffffffffffffff1602179055508173ffffffffffffffffffffffffffffffffffffffff168173ffffffffffffffffffffffffffffffffffffffff167f8be0079c531659141344cd1fd0a4f28419497f9722a3daafe3b4186f6b6457e060405160405180910390a35050565b60005b8280549050811015611828578183828154811061173757611736612685565b5b9060005260206000209060030201600001540361181b57826001848054905061176091906126b4565b8154811061177157611770612685565b5b906000526020600020906003020183828154811061179257611791612685565b5b90600052602060002090600302016000820154816000015560018201548160010155600282018160020190816117c891906126fe565b50905050828054806117dd576117dc6127e6565b5b600190038181906000526020600020906003020160008082016000905560018201600090556002820160006118129190611835565b50509055611828565b8080600101915050611717565b505050565b600033905090565b50805461184190611f1a565b6000825580601f106118535750611872565b601f0160209004906000526020600020908101906118719190611875565b5b50565b5b8082111561188e576000816000905550600101611876565b5090565b6000604051905090565b600080fd5b600080fd5b600073ffffffffffffffffffffffffffffffffffffffff82169050919050565b60006118d1826118a6565b9050919050565b6118e1816118c6565b81146118ec57600080fd5b50565b6000813590506118fe816118d8565b92915050565b6000819050919050565b61191781611904565b811461192257600080fd5b50565b6000813590506119348161190e565b92915050565b600080fd5b600080fd5b600080fd5b60008083601f84011261195f5761195e61193a565b5b8235905067ffffffffffffffff81111561197c5761197b61193f565b5b60208301915083600182028301111561199857611997611944565b5b9250929050565b6000806000806000608086880312156119bb576119ba61189c565b5b60006119c9888289016118ef565b95505060206119da888289016118ef565b94505060406119eb88828901611925565b935050606086013567ffffffffffffffff811115611a0c57611a0b6118a1565b5b611a1888828901611949565b92509250509295509295909350565b60007fffffffff0000000000000000000000000000000000000000000000000000000082169050919050565b611a5c81611a27565b82525050565b6000602082019050611a776000830184611a53565b92915050565b6000819050919050565b6000611aa2611a9d611a98846118a6565b611a7d565b6118a6565b9050919050565b6000611ab482611a87565b9050919050565b6000611ac682611aa9565b9050919050565b611ad681611abb565b82525050565b6000602082019050611af16000830184611acd565b92915050565b600060208284031215611b0d57611b0c61189c565b5b6000611b1b84828501611925565b91505092915050565b611b2d81611904565b82525050565b600081519050919050565b600082825260208201905092915050565b60005b83811015611b6d578082015181840152602081019050611b52565b60008484015250505050565b6000601f19601f8301169050919050565b6000611b9582611b33565b611b9f8185611b3e565b9350611baf818560208601611b4f565b611bb881611b79565b840191505092915050565b6000606082019050611bd86000830186611b24565b611be56020830185611b24565b8181036040830152611bf78184611b8a565b9050949350505050565b600081519050919050565b600082825260208201905092915050565b6000819050602082019050919050565b611c3681611904565b82525050565b600082825260208201905092915050565b6000611c5882611b33565b611c628185611c3c565b9350611c72818560208601611b4f565b611c7b81611b79565b840191505092915050565b6000606083016000830151611c9e6000860182611c2d565b506020830151611cb16020860182611c2d565b5060408301518482036040860152611cc98282611c4d565b9150508091505092915050565b6000611ce28383611c86565b905092915050565b6000602082019050919050565b6000611d0282611c01565b611d0c8185611c0c565b935083602082028501611d1e85611c1d565b8060005b85811015611d5a5784840389528151611d3b8582611cd6565b9450611d4683611cea565b925060208a01995050600181019050611d22565b50829750879550505050505092915050565b60006040820190508181036000830152611d868185611cf7565b9050611d956020830184611b24565b9392505050565b60008060408385031215611db357611db261189c565b5b6000611dc185828601611925565b9250506020611dd285828601611925565b9150509250929050565b6000611de782611aa9565b9050919050565b611df781611ddc565b82525050565b6000602082019050611e126000830184611dee565b92915050565b6000611e2382611aa9565b9050919050565b611e3381611e18565b82525050565b6000602082019050611e4e6000830184611e2a565b92915050565b611e5d816118c6565b82525050565b6000602082019050611e786000830184611e54565b92915050565b600060208284031215611e9457611e9361189c565b5b6000611ea2848285016118ef565b91505092915050565b60008060408385031215611ec257611ec161189c565b5b6000611ed085828601611925565b9250506020611ee1858286016118ef565b9150509250929050565b7f4e487b7100000000000000000000000000000000000000000000000000000000600052602260045260246000fd5b60006002820490506001821680611f3257607f821691505b602082108103611f4557611f44611eeb565b5b50919050565b6000602082019050611f606000830184611b24565b92915050565b600081519050611f75816118d8565b92915050565b600060208284031215611f9157611f9061189c565b5b6000611f9f84828501611f66565b91505092915050565b6000604082019050611fbd6000830185611e54565b611fca6020830184611b24565b9392505050565b6000606082019050611fe66000830186611e54565b611ff36020830185611e54565b6120006040830184611b24565b949350505050565b600080fd5b7f4e487b7100000000000000000000000000000000000000000000000000000000600052604160045260246000fd5b61204582611b79565b810181811067ffffffffffffffff821117156120645761206361200d565b5b80604052505050565b6000612077611892565b9050612083828261203c565b919050565b600067ffffffffffffffff8211156120a3576120a261200d565b5b6120ac82611b79565b9050602081019050919050565b60006120cc6120c784612088565b61206d565b9050828152602081018484840111156120e8576120e7612008565b5b6120f3848285611b4f565b509392505050565b600082601f8301126121105761210f61193a565b5b81516121208482602086016120b9565b91505092915050565b60006020828403121561213f5761213e61189c565b5b600082015167ffffffffffffffff81111561215d5761215c6118a1565b5b612169848285016120fb565b91505092915050565b60008190508160005260206000209050919050565b60006020601f8301049050919050565b600082821b905092915050565b6000600883026121d47fffffffffffffffffffffffffffffffffffffffffffffffffffffffffffffffff82612197565b6121de8683612197565b95508019841693508086168417925050509392505050565b600061221161220c61220784611904565b611a7d565b611904565b9050919050565b6000819050919050565b61222b836121f6565b61223f61223782612218565b8484546121a4565b825550505050565b600090565b612254612247565b61225f818484612222565b505050565b5b818110156122835761227860008261224c565b600181019050612265565b5050565b601f8211156122c85761229981612172565b6122a284612187565b810160208510156122b1578190505b6122c56122bd85612187565b830182612264565b50505b505050565b600082821c905092915050565b60006122eb600019846008026122cd565b1980831691505092915050565b600061230483836122da565b9150826002028217905092915050565b61231d82611b33565b67ffffffffffffffff8111156123365761233561200d565b5b6123408254611f1a565b61234b828285612287565b600060209050601f83116001811461237e576000841561236c578287015190505b61237685826122f8565b8655506123de565b601f19841661238c86612172565b60005b828110156123b45784890151825560018201915060208501945060208101905061238f565b868310156123d157848901516123cd601f8916826122da565b8355505b6001600288020188555050505b505050505050565b7f4e487b7100000000000000000000000000000000000000000000000000000000600052601160045260246000fd5b600061242082611904565b915061242b83611904565b925082820261243981611904565b915082820484148315176124505761244f6123e6565b5b5092915050565b7f4e487b7100000000000000000000000000000000000000000000000000000000600052601260045260246000fd5b600061249182611904565b915061249c83611904565b9250826124ac576124ab612457565b5b828204905092915050565b60008115159050919050565b6124cc816124b7565b81146124d757600080fd5b50565b6000815190506124e9816124c3565b92915050565b6000602082840312156125055761250461189c565b5b6000612513848285016124da565b91505092915050565b60006040820190506125316000830185611b24565b61253e6020830184611b24565b9392505050565b6000815190506125548161190e565b92915050565b6000602082840312156125705761256f61189c565b5b600061257e84828501612545565b91505092915050565b7f4f776e61626c653a206e6577206f776e657220697320746865207a65726f206160008201527f6464726573730000000000000000000000000000000000000000000000000000602082015250565b60006125e3602683611b3e565b91506125ee82612587565b604082019050919050565b60006020820190508181036000830152612612816125d6565b9050919050565b7f4f776e61626c653a2063616c6c6572206973206e6f7420746865206f776e6572600082015250565b600061264f602083611b3e565b915061265a82612619565b602082019050919050565b6000602082019050818103600083015261267e81612642565b9050919050565b7f4e487b7100000000000000000000000000000000000000000000000000000000600052603260045260246000fd5b60006126bf82611904565b91506126ca83611904565b92508282039050818111156126e2576126e16123e6565b5b92915050565b6000815490506126f781611f1a565b9050919050565b81810361270c5750506127e4565b612715826126e8565b67ffffffffffffffff81111561272e5761272d61200d565b5b6127388254611f1a565b612743828285612287565b6000601f8311600181146127725760008415612760578287015490505b61276a85826122f8565b8655506127dd565b601f19841661278087612172565b965061278b86612172565b60005b828110156127b35784890154825560018201915060018501945060208101905061278e565b868310156127d057848901546127cc601f8916826122da565b8355505b6001600288020188555050505b5050505050505b565b7f4e487b7100000000000000000000000000000000000000000000000000000000600052603160045260246000fdfea2646970667358221220992f78b580de93e3d2c0d119675fd12f45749cee24e5dcacffca225004e0f37e64736f6c63430008180033",
  "linkReferences": {},
  "deployedLinkReferences": {}
}