{
  "_format": "hh-sol-artifact-1",
  "contractName": "JuryNFTSwap",
  "sourceName": "contracts/JuryNFTSwap.sol",
  "abi": [
    {
      "inputs": [
        {
          "internalType": "address",
          "name": "token",
          "type": "address"
        },
        {
          "internalType": "address",
          "name": "_assessor",
          "type": "address"
        }
      ],
      "stateMutability": "nonpayable",
      "type": "constructor"
    },
    {
      "inputs": [
        {
          "internalType": "address",
          "name": "nftAddress",
          "type": "address"
        },
        {
          "internalType": "uint256",
          "name": "tokenId",
          "type": "uint256"
        }
      ],
      "name": "HasListed",
      "type": "error"
    },
    {
      "inputs": [
        {
          "internalType": "address",
          "name": "nftAddress",
          "type": "address"
        },
        {
          "internalType": "uint256",
          "name": "tokenId",
          "type": "uint256"
        },
        {
          "internalType": "uint256",
          "name": "redemptionTime",
          "type": "uint256"
        }
      ],
      "name": "RedemptionTimeNotReached",
      "type": "error"
    },
    {
      "anonymous": false,
      "inputs": [
        {
          "indexed": true,
          "internalType": "address",
          "name": "buyer",
          "type": "address"
        },
        {
          "indexed": true,
          "internalType": "address",
          "name": "nftAddress",
          "type": "address"
        },
        {
          "indexed": true,
          "internalType": "uint256",
          "name": "tokenId",
          "type": "uint256"
        },
        {
          "indexed": false,
          "internalType": "uint256",
          "name": "price",
          "type": "uint256"
        }
      ],
      "name": "BuyNFT",
      "type": "event"
    },
    {
      "anonymous": false,
      "inputs": [
        {
          "indexed": true,
          "internalType": "address",
          "name": "nftAddress",
          "type": "address"
        },
        {
          "indexed": true,
          "internalType": "uint256",
          "name": "tokenId",
          "type": "uint256"
        },
        {
          "indexed": false,
          "internalType": "uint256",
          "name": "price",
          "type": "uint256"
        }
      ],
      "name": "HangOut",
      "type": "event"
    },
    {
      "anonymous": false,
      "inputs": [
        {
          "indexed": false,
          "internalType": "address",
          "name": "redeemer",
          "type": "address"
        },
        {
          "indexed": true,
          "internalType": "address",
          "name": "nftAddress",
          "type": "address"
        },
        {
          "indexed": true,
          "internalType": "uint256",
          "name": "tokenId",
          "type": "uint256"
        },
        {
          "indexed": false,
          "internalType": "uint256",
          "name": "redeemPrice",
          "type": "uint256"
        }
      ],
      "name": "Redeem",
      "type": "event"
    },
    {
      "inputs": [
        {
          "internalType": "address",
          "name": "nftAddr",
          "type": "address"
        },
        {
          "internalType": "uint256",
          "name": "tokenId",
          "type": "uint256"
        }
      ],
      "name": "buy",
      "outputs": [],
      "stateMutability": "nonpayable",
      "type": "function"
    },
    {
      "inputs": [],
      "name": "getAllListing",
      "outputs": [
        {
          "components": [
            {
              "internalType": "address",
              "name": "nftAddr",
              "type": "address"
            },
            {
              "internalType": "uint256",
              "name": "tokenId",
              "type": "uint256"
            },
            {
              "internalType": "uint256",
              "name": "price",
              "type": "uint256"
            },
            {
              "internalType": "uint256",
              "name": "timestamp",
              "type": "uint256"
            }
          ],
          "internalType": "struct JuryNFTSwap.NFTSalesInformation[]",
          "name": "",
          "type": "tuple[]"
        }
      ],
      "stateMutability": "view",
      "type": "function"
    },
    {
      "inputs": [
        {
          "internalType": "address",
          "name": "nftAddr",
          "type": "address"
        },
        {
          "internalType": "uint256",
          "name": "tokenId",
          "type": "uint256"
        },
        {
          "internalType": "uint256",
          "name": "price",
          "type": "uint256"
        }
      ],
      "name": "hangOut",
      "outputs": [],
      "stateMutability": "nonpayable",
      "type": "function"
    },
    {
      "inputs": [],
      "name": "jury",
      "outputs": [
        {
          "internalType": "contract Jury",
          "name": "",
          "type": "address"
        }
      ],
      "stateMutability": "view",
      "type": "function"
    },
    {
      "inputs": [],
      "name": "melonToken",
      "outputs": [
        {
          "internalType": "contract MelonToken",
          "name": "",
          "type": "address"
        }
      ],
      "stateMutability": "view",
      "type": "function"
    },
    {
      "inputs": [
        {
          "internalType": "address",
          "name": "",
          "type": "address"
        },
        {
          "internalType": "uint256",
          "name": "",
          "type": "uint256"
        }
      ],
      "name": "nftListings",
      "outputs": [
        {
          "internalType": "address",
          "name": "nftAddr",
          "type": "address"
        },
        {
          "internalType": "uint256",
          "name": "tokenId",
          "type": "uint256"
        },
        {
          "internalType": "uint256",
          "name": "price",
          "type": "uint256"
        },
        {
          "internalType": "uint256",
          "name": "timestamp",
          "type": "uint256"
        }
      ],
      "stateMutability": "view",
      "type": "function"
    },
    {
      "inputs": [
        {
          "internalType": "uint256",
          "name": "",
          "type": "uint256"
        }
      ],
      "name": "nftSaleInfoList",
      "outputs": [
        {
          "internalType": "address",
          "name": "nftAddr",
          "type": "address"
        },
        {
          "internalType": "uint256",
          "name": "tokenId",
          "type": "uint256"
        },
        {
          "internalType": "uint256",
          "name": "price",
          "type": "uint256"
        },
        {
          "internalType": "uint256",
          "name": "timestamp",
          "type": "uint256"
        }
      ],
      "stateMutability": "view",
      "type": "function"
    },
    {
      "inputs": [
        {
          "internalType": "address",
          "name": "operator",
          "type": "address"
        },
        {
          "internalType": "address",
          "name": "from",
          "type": "address"
        },
        {
          "internalType": "uint256",
          "name": "tokenId",
          "type": "uint256"
        },
        {
          "internalType": "bytes",
          "name": "data",
          "type": "bytes"
        }
      ],
      "name": "onERC721Received",
      "outputs": [
        {
          "internalType": "bytes4",
          "name": "",
          "type": "bytes4"
        }
      ],
      "stateMutability": "pure",
      "type": "function"
    },
    {
      "inputs": [
        {
          "internalType": "address",
          "name": "nftAddr",
          "type": "address"
        },
        {
          "internalType": "uint256",
          "name": "tokenId",
          "type": "uint256"
        },
        {
          "internalType": "uint256",
          "name": "marketPrice",
          "type": "uint256"
        }
      ],
      "name": "redeem",
      "outputs": [],
      "stateMutability": "nonpayable",
      "type": "function"
    }
  ],
  "bytecode": "0x60806040523480156200001157600080fd5b5060405162001aca38038062001aca83398181016040528101906200003791906200012a565b81600160006101000a81548173ffffffffffffffffffffffffffffffffffffffff021916908373ffffffffffffffffffffffffffffffffffffffff160217905550806000806101000a81548173ffffffffffffffffffffffffffffffffffffffff021916908373ffffffffffffffffffffffffffffffffffffffff160217905550505062000171565b600080fd5b600073ffffffffffffffffffffffffffffffffffffffff82169050919050565b6000620000f282620000c5565b9050919050565b6200010481620000e5565b81146200011057600080fd5b50565b6000815190506200012481620000f9565b92915050565b60008060408385031215620001445762000143620000c0565b5b6000620001548582860162000113565b9250506020620001678582860162000113565b9150509250929050565b61194980620001816000396000f3fe608060405234801561001057600080fd5b50600436106100935760003560e01c80634309d594116100665780634309d59414610135578063467efe5a146101685780636b915d4314610186578063cce7ec13146101a4578063e29e8a19146101c057610093565b806309fd3f6e14610098578063150b7a02146100b657806322887bd6146100e65780632b83cccd14610119575b600080fd5b6100a06101dc565b6040516100ad9190611053565b60405180910390f35b6100d060048036038101906100cb9190611151565b610200565b6040516100dd9190611214565b60405180910390f35b61010060048036038101906100fb919061122f565b610215565b604051610110949392919061127a565b60405180910390f35b610133600480360381019061012e91906112bf565b610275565b005b61014f600480360381019061014a9190611312565b610475565b60405161015f949392919061127a565b60405180910390f35b6101706104d2565b60405161017d9190611474565b60405180910390f35b61018e6105a5565b60405161019b91906114b7565b60405180910390f35b6101be60048036038101906101b99190611312565b6105cb565b005b6101da60048036038101906101d591906112bf565b6109e6565b005b60008054906101000a900473ffffffffffffffffffffffffffffffffffffffff1681565b600063150b7a0260e01b905095945050505050565b6002818154811061022557600080fd5b90600052602060002090600402016000915090508060000160009054906101000a900473ffffffffffffffffffffffffffffffffffffffff16908060010154908060020154908060030154905084565b600083905060008173ffffffffffffffffffffffffffffffffffffffff1663ea598712856040518263ffffffff1660e01b81526004016102b591906114d2565b602060405180830381865afa1580156102d2573d6000803e3d6000fd5b505050506040513d601f19601f820116820180604052508101906102f69190611502565b905042600582610306919061155e565b111561035957848460058361031b919061155e565b6040517f1a735a9400000000000000000000000000000000000000000000000000000000815260040161035093929190611592565b60405180910390fd5b6103648585856109e6565b600160009054906101000a900473ffffffffffffffffffffffffffffffffffffffff1673ffffffffffffffffffffffffffffffffffffffff1663a9059cbb3360646062876103b291906115c9565b6103bc919061163a565b6040518363ffffffff1660e01b81526004016103d992919061166b565b6020604051808303816000875af11580156103f8573d6000803e3d6000fd5b505050506040513d601f19601f8201168201806040525081019061041c91906116cc565b50838573ffffffffffffffffffffffffffffffffffffffff167f3f693fff038bb8a046aa76d9516190ac7444f7d69cf952c4cbdc086fdef2d6fc338660405161046692919061166b565b60405180910390a35050505050565b6003602052816000526040600020602052806000526040600020600091509150508060000160009054906101000a900473ffffffffffffffffffffffffffffffffffffffff16908060010154908060020154908060030154905084565b60606002805480602002602001604051908101604052809291908181526020016000905b8282101561059c57838290600052602060002090600402016040518060800160405290816000820160009054906101000a900473ffffffffffffffffffffffffffffffffffffffff1673ffffffffffffffffffffffffffffffffffffffff1673ffffffffffffffffffffffffffffffffffffffff1681526020016001820154815260200160028201548152602001600382015481525050815260200190600101906104f6565b50505050905090565b600160009054906101000a900473ffffffffffffffffffffffffffffffffffffffff1681565b81816000600360008473ffffffffffffffffffffffffffffffffffffffff1673ffffffffffffffffffffffffffffffffffffffff16815260200190815260200160002060008381526020019081526020016000206040518060800160405290816000820160009054906101000a900473ffffffffffffffffffffffffffffffffffffffff1673ffffffffffffffffffffffffffffffffffffffff1673ffffffffffffffffffffffffffffffffffffffff1681526020016001820154815260200160028201548152602001600382015481525050905060008160400151116106e7576040517f08c379a00000000000000000000000000000000000000000000000000000000081526004016106de90611756565b60405180910390fd5b60008590506000600360008873ffffffffffffffffffffffffffffffffffffffff1673ffffffffffffffffffffffffffffffffffffffff16815260200190815260200160002060008781526020019081526020016000206040518060800160405290816000820160009054906101000a900473ffffffffffffffffffffffffffffffffffffffff1673ffffffffffffffffffffffffffffffffffffffff1673ffffffffffffffffffffffffffffffffffffffff16815260200160018201548152602001600282015481526020016003820154815250509050600360008873ffffffffffffffffffffffffffffffffffffffff1673ffffffffffffffffffffffffffffffffffffffff1681526020019081526020016000206000878152602001908152602001600020600080820160006101000a81549073ffffffffffffffffffffffffffffffffffffffff0219169055600182016000905560028201600090556003820160009055505061085d60028888610dc3565b600160009054906101000a900473ffffffffffffffffffffffffffffffffffffffff1673ffffffffffffffffffffffffffffffffffffffff166323b872dd333084604001516040518463ffffffff1660e01b81526004016108c093929190611776565b6020604051808303816000875af11580156108df573d6000803e3d6000fd5b505050506040513d601f19601f8201168201806040525081019061090391906116cc565b508173ffffffffffffffffffffffffffffffffffffffff166342842e0e3033896040518463ffffffff1660e01b815260040161094193929190611776565b600060405180830381600087803b15801561095b57600080fd5b505af115801561096f573d6000803e3d6000fd5b50505050858773ffffffffffffffffffffffffffffffffffffffff163373ffffffffffffffffffffffffffffffffffffffff167fe35677743c6b7abf01cca38cf0f4b986386e50105ec5fd3f42daeea57acf57a984604001516040516109d591906114d2565b60405180910390a450505050505050565b828260008290503373ffffffffffffffffffffffffffffffffffffffff168173ffffffffffffffffffffffffffffffffffffffff16636352211e846040518263ffffffff1660e01b8152600401610a3d91906114d2565b602060405180830381865afa158015610a5a573d6000803e3d6000fd5b505050506040513d601f19601f82011682018060405250810190610a7e91906117c2565b73ffffffffffffffffffffffffffffffffffffffff1614610ad4576040517f08c379a0000000000000000000000000000000000000000000000000000000008152600401610acb90611861565b60405180910390fd5b60008690506000600360008973ffffffffffffffffffffffffffffffffffffffff1673ffffffffffffffffffffffffffffffffffffffff1681526020019081526020016000206000888152602001908152602001600020600201541115610b745786866040517ff6854128000000000000000000000000000000000000000000000000000000008152600401610b6b92919061166b565b60405180910390fd5b8073ffffffffffffffffffffffffffffffffffffffff166342842e0e3330896040518463ffffffff1660e01b8152600401610bb193929190611776565b600060405180830381600087803b158015610bcb57600080fd5b505af1158015610bdf573d6000803e3d6000fd5b50505050600060405180608001604052808973ffffffffffffffffffffffffffffffffffffffff16815260200188815260200187815260200142815250905080600360008a73ffffffffffffffffffffffffffffffffffffffff1673ffffffffffffffffffffffffffffffffffffffff168152602001908152602001600020600089815260200190815260200160002060008201518160000160006101000a81548173ffffffffffffffffffffffffffffffffffffffff021916908373ffffffffffffffffffffffffffffffffffffffff160217905550602082015181600101556040820151816002015560608201518160030155905050600281908060018154018082558091505060019003906000526020600020906004020160009091909190915060008201518160000160006101000a81548173ffffffffffffffffffffffffffffffffffffffff021916908373ffffffffffffffffffffffffffffffffffffffff1602179055506020820151816001015560408201518160020155606082015181600301555050868873ffffffffffffffffffffffffffffffffffffffff167f40405dffa400b60b90a33259490fd4b4ca34a6ca7ec47e3d5f9b3bfbc0e7fda888604051610db191906114d2565b60405180910390a35050505050505050565b60005b8380549050811015610fce578273ffffffffffffffffffffffffffffffffffffffff16848281548110610dfc57610dfb611881565b5b906000526020600020906004020160000160009054906101000a900473ffffffffffffffffffffffffffffffffffffffff1673ffffffffffffffffffffffffffffffffffffffff16148015610e74575081848281548110610e6057610e5f611881565b5b906000526020600020906004020160010154145b15610fc1578360018580549050610e8b91906118b0565b81548110610e9c57610e9b611881565b5b9060005260206000209060040201848281548110610ebd57610ebc611881565b5b90600052602060002090600402016000820160009054906101000a900473ffffffffffffffffffffffffffffffffffffffff168160000160006101000a81548173ffffffffffffffffffffffffffffffffffffffff021916908373ffffffffffffffffffffffffffffffffffffffff16021790555060018201548160010155600282015481600201556003820154816003015590505083805480610f6457610f636118e4565b5b6001900381819060005260206000209060040201600080820160006101000a81549073ffffffffffffffffffffffffffffffffffffffff021916905560018201600090556002820160009055600382016000905550509055610fce565b8080600101915050610dc6565b50505050565b600073ffffffffffffffffffffffffffffffffffffffff82169050919050565b6000819050919050565b600061101961101461100f84610fd4565b610ff4565b610fd4565b9050919050565b600061102b82610ffe565b9050919050565b600061103d82611020565b9050919050565b61104d81611032565b82525050565b60006020820190506110686000830184611044565b92915050565b600080fd5b600080fd5b600061108382610fd4565b9050919050565b61109381611078565b811461109e57600080fd5b50565b6000813590506110b08161108a565b92915050565b6000819050919050565b6110c9816110b6565b81146110d457600080fd5b50565b6000813590506110e6816110c0565b92915050565b600080fd5b600080fd5b600080fd5b60008083601f840112611111576111106110ec565b5b8235905067ffffffffffffffff81111561112e5761112d6110f1565b5b60208301915083600182028301111561114a576111496110f6565b5b9250929050565b60008060008060006080868803121561116d5761116c61106e565b5b600061117b888289016110a1565b955050602061118c888289016110a1565b945050604061119d888289016110d7565b935050606086013567ffffffffffffffff8111156111be576111bd611073565b5b6111ca888289016110fb565b92509250509295509295909350565b60007fffffffff0000000000000000000000000000000000000000000000000000000082169050919050565b61120e816111d9565b82525050565b60006020820190506112296000830184611205565b92915050565b6000602082840312156112455761124461106e565b5b6000611253848285016110d7565b91505092915050565b61126581611078565b82525050565b611274816110b6565b82525050565b600060808201905061128f600083018761125c565b61129c602083018661126b565b6112a9604083018561126b565b6112b6606083018461126b565b95945050505050565b6000806000606084860312156112d8576112d761106e565b5b60006112e6868287016110a1565b93505060206112f7868287016110d7565b9250506040611308868287016110d7565b9150509250925092565b600080604083850312156113295761132861106e565b5b6000611337858286016110a1565b9250506020611348858286016110d7565b9150509250929050565b600081519050919050565b600082825260208201905092915050565b6000819050602082019050919050565b61138781611078565b82525050565b611396816110b6565b82525050565b6080820160008201516113b2600085018261137e565b5060208201516113c5602085018261138d565b5060408201516113d8604085018261138d565b5060608201516113eb606085018261138d565b50505050565b60006113fd838361139c565b60808301905092915050565b6000602082019050919050565b600061142182611352565b61142b818561135d565b93506114368361136e565b8060005b8381101561146757815161144e88826113f1565b975061145983611409565b92505060018101905061143a565b5085935050505092915050565b6000602082019050818103600083015261148e8184611416565b905092915050565b60006114a182611020565b9050919050565b6114b181611496565b82525050565b60006020820190506114cc60008301846114a8565b92915050565b60006020820190506114e7600083018461126b565b92915050565b6000815190506114fc816110c0565b92915050565b6000602082840312156115185761151761106e565b5b6000611526848285016114ed565b91505092915050565b7f4e487b7100000000000000000000000000000000000000000000000000000000600052601160045260246000fd5b6000611569826110b6565b9150611574836110b6565b925082820190508082111561158c5761158b61152f565b5b92915050565b60006060820190506115a7600083018661125c565b6115b4602083018561126b565b6115c1604083018461126b565b949350505050565b60006115d4826110b6565b91506115df836110b6565b92508282026115ed816110b6565b915082820484148315176116045761160361152f565b5b5092915050565b7f4e487b7100000000000000000000000000000000000000000000000000000000600052601260045260246000fd5b6000611645826110b6565b9150611650836110b6565b9250826116605761165f61160b565b5b828204905092915050565b6000604082019050611680600083018561125c565b61168d602083018461126b565b9392505050565b60008115159050919050565b6116a981611694565b81146116b457600080fd5b50565b6000815190506116c6816116a0565b92915050565b6000602082840312156116e2576116e161106e565b5b60006116f0848285016116b7565b91505092915050565b600082825260208201905092915050565b7f43757272656e74204e465420686173206e6f206c697374656421000000000000600082015250565b6000611740601a836116f9565b915061174b8261170a565b602082019050919050565b6000602082019050818103600083015261176f81611733565b9050919050565b600060608201905061178b600083018661125c565b611798602083018561125c565b6117a5604083018461126b565b949350505050565b6000815190506117bc8161108a565b92915050565b6000602082840312156117d8576117d761106e565b5b60006117e6848285016117ad565b91505092915050565b7f54686973204e4654206973206e6f742062656c6f6e6720746f2063757272656e60008201527f7420616464726573732100000000000000000000000000000000000000000000602082015250565b600061184b602a836116f9565b9150611856826117ef565b604082019050919050565b6000602082019050818103600083015261187a8161183e565b9050919050565b7f4e487b7100000000000000000000000000000000000000000000000000000000600052603260045260246000fd5b60006118bb826110b6565b91506118c6836110b6565b92508282039050818111156118de576118dd61152f565b5b92915050565b7f4e487b7100000000000000000000000000000000000000000000000000000000600052603160045260246000fdfea26469706673582212202d620ac8a68c165fa11a0673ea1221c546eb5de70bd52ebfc1f7896168689b2764736f6c63430008180033",
  "linkReferences": {},
  "deployedLinkReferences": {}
}