{
  "_format": "hh-sol-artifact-1",
  "contractName": "JuryNFTSwap",
  "sourceName": "contracts/JuryNFTSwap.sol",
  "abi": [
    {
      "inputs": [
        {
          "internalType": "address",
          "name": "token",
          "type": "address"
        },
        {
          "internalType": "address",
          "name": "_assessor",
          "type": "address"
        }
      ],
      "stateMutability": "nonpayable",
      "type": "constructor"
    },
    {
      "inputs": [
        {
          "internalType": "address",
          "name": "nftAddress",
          "type": "address"
        },
        {
          "internalType": "uint256",
          "name": "tokenId",
          "type": "uint256"
        }
      ],
      "name": "HasListed",
      "type": "error"
    },
    {
      "inputs": [
        {
          "internalType": "address",
          "name": "nftAddress",
          "type": "address"
        },
        {
          "internalType": "uint256",
          "name": "tokenId",
          "type": "uint256"
        },
        {
          "internalType": "uint256",
          "name": "redemptionTime",
          "type": "uint256"
        }
      ],
      "name": "RedemptionTimeNotReached",
      "type": "error"
    },
    {
      "anonymous": false,
      "inputs": [
        {
          "indexed": true,
          "internalType": "address",
          "name": "buyer",
          "type": "address"
        },
        {
          "indexed": true,
          "internalType": "address",
          "name": "nftAddress",
          "type": "address"
        },
        {
          "indexed": true,
          "internalType": "uint256",
          "name": "tokenId",
          "type": "uint256"
        },
        {
          "indexed": false,
          "internalType": "uint256",
          "name": "price",
          "type": "uint256"
        }
      ],
      "name": "BuyNFT",
      "type": "event"
    },
    {
      "anonymous": false,
      "inputs": [
        {
          "indexed": true,
          "internalType": "address",
          "name": "nftAddress",
          "type": "address"
        },
        {
          "indexed": true,
          "internalType": "uint256",
          "name": "tokenId",
          "type": "uint256"
        },
        {
          "indexed": false,
          "internalType": "uint256",
          "name": "price",
          "type": "uint256"
        }
      ],
      "name": "HangOut",
      "type": "event"
    },
    {
      "anonymous": false,
      "inputs": [
        {
          "indexed": false,
          "internalType": "address",
          "name": "redeemer",
          "type": "address"
        },
        {
          "indexed": true,
          "internalType": "address",
          "name": "nftAddress",
          "type": "address"
        },
        {
          "indexed": true,
          "internalType": "uint256",
          "name": "tokenId",
          "type": "uint256"
        },
        {
          "indexed": false,
          "internalType": "uint256",
          "name": "redeemPrice",
          "type": "uint256"
        }
      ],
      "name": "Redeem",
      "type": "event"
    },
    {
      "inputs": [],
      "name": "assessor",
      "outputs": [
        {
          "internalType": "contract Assessor",
          "name": "",
          "type": "address"
        }
      ],
      "stateMutability": "view",
      "type": "function"
    },
    {
      "inputs": [
        {
          "internalType": "address",
          "name": "nftAddr",
          "type": "address"
        },
        {
          "internalType": "uint256",
          "name": "tokenId",
          "type": "uint256"
        }
      ],
      "name": "buy",
      "outputs": [],
      "stateMutability": "nonpayable",
      "type": "function"
    },
    {
      "inputs": [],
      "name": "getAllListing",
      "outputs": [
        {
          "components": [
            {
              "internalType": "address",
              "name": "nftAddr",
              "type": "address"
            },
            {
              "internalType": "uint256",
              "name": "tokenId",
              "type": "uint256"
            },
            {
              "internalType": "uint256",
              "name": "price",
              "type": "uint256"
            },
            {
              "internalType": "uint256",
              "name": "timestamp",
              "type": "uint256"
            }
          ],
          "internalType": "struct JuryNFTSwap.NFTSalesInformation[]",
          "name": "",
          "type": "tuple[]"
        }
      ],
      "stateMutability": "view",
      "type": "function"
    },
    {
      "inputs": [
        {
          "internalType": "address",
          "name": "nftAddr",
          "type": "address"
        },
        {
          "internalType": "uint256",
          "name": "tokenId",
          "type": "uint256"
        },
        {
          "internalType": "uint256",
          "name": "price",
          "type": "uint256"
        }
      ],
      "name": "hangOut",
      "outputs": [],
      "stateMutability": "nonpayable",
      "type": "function"
    },
    {
      "inputs": [],
      "name": "melonToken",
      "outputs": [
        {
          "internalType": "contract MelonToken",
          "name": "",
          "type": "address"
        }
      ],
      "stateMutability": "view",
      "type": "function"
    },
    {
      "inputs": [
        {
          "internalType": "address",
          "name": "",
          "type": "address"
        },
        {
          "internalType": "uint256",
          "name": "",
          "type": "uint256"
        }
      ],
      "name": "nftListings",
      "outputs": [
        {
          "internalType": "address",
          "name": "nftAddr",
          "type": "address"
        },
        {
          "internalType": "uint256",
          "name": "tokenId",
          "type": "uint256"
        },
        {
          "internalType": "uint256",
          "name": "price",
          "type": "uint256"
        },
        {
          "internalType": "uint256",
          "name": "timestamp",
          "type": "uint256"
        }
      ],
      "stateMutability": "view",
      "type": "function"
    },
    {
      "inputs": [
        {
          "internalType": "uint256",
          "name": "",
          "type": "uint256"
        }
      ],
      "name": "nftSaleInfoList",
      "outputs": [
        {
          "internalType": "address",
          "name": "nftAddr",
          "type": "address"
        },
        {
          "internalType": "uint256",
          "name": "tokenId",
          "type": "uint256"
        },
        {
          "internalType": "uint256",
          "name": "price",
          "type": "uint256"
        },
        {
          "internalType": "uint256",
          "name": "timestamp",
          "type": "uint256"
        }
      ],
      "stateMutability": "view",
      "type": "function"
    },
    {
      "inputs": [
        {
          "internalType": "address",
          "name": "operator",
          "type": "address"
        },
        {
          "internalType": "address",
          "name": "from",
          "type": "address"
        },
        {
          "internalType": "uint256",
          "name": "tokenId",
          "type": "uint256"
        },
        {
          "internalType": "bytes",
          "name": "data",
          "type": "bytes"
        }
      ],
      "name": "onERC721Received",
      "outputs": [
        {
          "internalType": "bytes4",
          "name": "",
          "type": "bytes4"
        }
      ],
      "stateMutability": "pure",
      "type": "function"
    },
    {
      "inputs": [
        {
          "internalType": "address",
          "name": "nftAddr",
          "type": "address"
        },
        {
          "internalType": "uint256",
          "name": "tokenId",
          "type": "uint256"
        },
        {
          "internalType": "uint256",
          "name": "marketPrice",
          "type": "uint256"
        }
      ],
      "name": "redeem",
      "outputs": [],
      "stateMutability": "nonpayable",
      "type": "function"
    }
  ],
  "bytecode": "0x60806040523480156200001157600080fd5b5060405162001b8038038062001b8083398181016040528101906200003791906200012a565b81600160006101000a81548173ffffffffffffffffffffffffffffffffffffffff021916908373ffffffffffffffffffffffffffffffffffffffff160217905550806000806101000a81548173ffffffffffffffffffffffffffffffffffffffff021916908373ffffffffffffffffffffffffffffffffffffffff160217905550505062000171565b600080fd5b600073ffffffffffffffffffffffffffffffffffffffff82169050919050565b6000620000f282620000c5565b9050919050565b6200010481620000e5565b81146200011057600080fd5b50565b6000815190506200012481620000f9565b92915050565b60008060408385031215620001445762000143620000c0565b5b6000620001548582860162000113565b9250506020620001678582860162000113565b9150509250929050565b6119ff80620001816000396000f3fe608060405234801561001057600080fd5b50600436106100935760003560e01c80634309d594116100665780634309d59414610135578063467efe5a146101685780636b915d4314610186578063cce7ec13146101a4578063e29e8a19146101c057610093565b8063150b7a02146100985780631821d696146100c857806322887bd6146100e65780632b83cccd14610119575b600080fd5b6100b260048036038101906100ad9190611163565b6101dc565b6040516100bf9190611226565b60405180910390f35b6100d06101f1565b6040516100dd91906112a0565b60405180910390f35b61010060048036038101906100fb91906112bb565b610215565b6040516101109493929190611306565b60405180910390f35b610133600480360381019061012e919061134b565b610275565b005b61014f600480360381019061014a919061139e565b610475565b60405161015f9493929190611306565b60405180910390f35b6101706104d2565b60405161017d9190611500565b60405180910390f35b61018e6105a5565b60405161019b9190611543565b60405180910390f35b6101be60048036038101906101b9919061139e565b6105cb565b005b6101da60048036038101906101d5919061134b565b610a72565b005b600063150b7a0260e01b905095945050505050565b60008054906101000a900473ffffffffffffffffffffffffffffffffffffffff1681565b6002818154811061022557600080fd5b90600052602060002090600402016000915090508060000160009054906101000a900473ffffffffffffffffffffffffffffffffffffffff16908060010154908060020154908060030154905084565b600083905060008173ffffffffffffffffffffffffffffffffffffffff1663ea598712856040518263ffffffff1660e01b81526004016102b5919061155e565b602060405180830381865afa1580156102d2573d6000803e3d6000fd5b505050506040513d601f19601f820116820180604052508101906102f6919061158e565b90504260058261030691906115ea565b111561035957848460058361031b91906115ea565b6040517f1a735a940000000000000000000000000000000000000000000000000000000081526004016103509392919061161e565b60405180910390fd5b610364858585610a72565b600160009054906101000a900473ffffffffffffffffffffffffffffffffffffffff1673ffffffffffffffffffffffffffffffffffffffff1663a9059cbb3360646062876103b29190611655565b6103bc91906116c6565b6040518363ffffffff1660e01b81526004016103d99291906116f7565b6020604051808303816000875af11580156103f8573d6000803e3d6000fd5b505050506040513d601f19601f8201168201806040525081019061041c9190611758565b50838573ffffffffffffffffffffffffffffffffffffffff167f3f693fff038bb8a046aa76d9516190ac7444f7d69cf952c4cbdc086fdef2d6fc33866040516104669291906116f7565b60405180910390a35050505050565b6003602052816000526040600020602052806000526040600020600091509150508060000160009054906101000a900473ffffffffffffffffffffffffffffffffffffffff16908060010154908060020154908060030154905084565b60606002805480602002602001604051908101604052809291908181526020016000905b8282101561059c57838290600052602060002090600402016040518060800160405290816000820160009054906101000a900473ffffffffffffffffffffffffffffffffffffffff1673ffffffffffffffffffffffffffffffffffffffff1673ffffffffffffffffffffffffffffffffffffffff1681526020016001820154815260200160028201548152602001600382015481525050815260200190600101906104f6565b50505050905090565b600160009054906101000a900473ffffffffffffffffffffffffffffffffffffffff1681565b81816000600360008473ffffffffffffffffffffffffffffffffffffffff1673ffffffffffffffffffffffffffffffffffffffff16815260200190815260200160002060008381526020019081526020016000206040518060800160405290816000820160009054906101000a900473ffffffffffffffffffffffffffffffffffffffff1673ffffffffffffffffffffffffffffffffffffffff1673ffffffffffffffffffffffffffffffffffffffff1681526020016001820154815260200160028201548152602001600382015481525050905060008160400151116106e7576040517f08c379a00000000000000000000000000000000000000000000000000000000081526004016106de906117e2565b60405180910390fd5b60008590506000600360008873ffffffffffffffffffffffffffffffffffffffff1673ffffffffffffffffffffffffffffffffffffffff16815260200190815260200160002060008781526020019081526020016000206040518060800160405290816000820160009054906101000a900473ffffffffffffffffffffffffffffffffffffffff1673ffffffffffffffffffffffffffffffffffffffff1673ffffffffffffffffffffffffffffffffffffffff16815260200160018201548152602001600282015481526020016003820154815250509050600360008873ffffffffffffffffffffffffffffffffffffffff1673ffffffffffffffffffffffffffffffffffffffff1681526020019081526020016000206000878152602001908152602001600020600080820160006101000a81549073ffffffffffffffffffffffffffffffffffffffff0219169055600182016000905560028201600090556003820160009055505061085d60028888610e4f565b600160009054906101000a900473ffffffffffffffffffffffffffffffffffffffff1673ffffffffffffffffffffffffffffffffffffffff166323b872dd333084604001516040518463ffffffff1660e01b81526004016108c093929190611802565b6020604051808303816000875af11580156108df573d6000803e3d6000fd5b505050506040513d601f19601f820116820180604052508101906109039190611758565b508173ffffffffffffffffffffffffffffffffffffffff166342842e0e3033896040518463ffffffff1660e01b815260040161094193929190611802565b600060405180830381600087803b15801561095b57600080fd5b505af115801561096f573d6000803e3d6000fd5b5050505060008054906101000a900473ffffffffffffffffffffffffffffffffffffffff1673ffffffffffffffffffffffffffffffffffffffff1663114f52fa60016040518263ffffffff1660e01b81526004016109cd9190611848565b600060405180830381600087803b1580156109e757600080fd5b505af11580156109fb573d6000803e3d6000fd5b50505050858773ffffffffffffffffffffffffffffffffffffffff163373ffffffffffffffffffffffffffffffffffffffff167fe35677743c6b7abf01cca38cf0f4b986386e50105ec5fd3f42daeea57acf57a98460400151604051610a61919061155e565b60405180910390a450505050505050565b828260008290503373ffffffffffffffffffffffffffffffffffffffff168173ffffffffffffffffffffffffffffffffffffffff16636352211e846040518263ffffffff1660e01b8152600401610ac9919061155e565b602060405180830381865afa158015610ae6573d6000803e3d6000fd5b505050506040513d601f19601f82011682018060405250810190610b0a9190611878565b73ffffffffffffffffffffffffffffffffffffffff1614610b60576040517f08c379a0000000000000000000000000000000000000000000000000000000008152600401610b5790611917565b60405180910390fd5b60008690506000600360008973ffffffffffffffffffffffffffffffffffffffff1673ffffffffffffffffffffffffffffffffffffffff1681526020019081526020016000206000888152602001908152602001600020600201541115610c005786866040517ff6854128000000000000000000000000000000000000000000000000000000008152600401610bf79291906116f7565b60405180910390fd5b8073ffffffffffffffffffffffffffffffffffffffff166342842e0e3330896040518463ffffffff1660e01b8152600401610c3d93929190611802565b600060405180830381600087803b158015610c5757600080fd5b505af1158015610c6b573d6000803e3d6000fd5b50505050600060405180608001604052808973ffffffffffffffffffffffffffffffffffffffff16815260200188815260200187815260200142815250905080600360008a73ffffffffffffffffffffffffffffffffffffffff1673ffffffffffffffffffffffffffffffffffffffff168152602001908152602001600020600089815260200190815260200160002060008201518160000160006101000a81548173ffffffffffffffffffffffffffffffffffffffff021916908373ffffffffffffffffffffffffffffffffffffffff160217905550602082015181600101556040820151816002015560608201518160030155905050600281908060018154018082558091505060019003906000526020600020906004020160009091909190915060008201518160000160006101000a81548173ffffffffffffffffffffffffffffffffffffffff021916908373ffffffffffffffffffffffffffffffffffffffff1602179055506020820151816001015560408201518160020155606082015181600301555050868873ffffffffffffffffffffffffffffffffffffffff167f40405dffa400b60b90a33259490fd4b4ca34a6ca7ec47e3d5f9b3bfbc0e7fda888604051610e3d919061155e565b60405180910390a35050505050505050565b60005b838054905081101561105a578273ffffffffffffffffffffffffffffffffffffffff16848281548110610e8857610e87611937565b5b906000526020600020906004020160000160009054906101000a900473ffffffffffffffffffffffffffffffffffffffff1673ffffffffffffffffffffffffffffffffffffffff16148015610f00575081848281548110610eec57610eeb611937565b5b906000526020600020906004020160010154145b1561104d578360018580549050610f179190611966565b81548110610f2857610f27611937565b5b9060005260206000209060040201848281548110610f4957610f48611937565b5b90600052602060002090600402016000820160009054906101000a900473ffffffffffffffffffffffffffffffffffffffff168160000160006101000a81548173ffffffffffffffffffffffffffffffffffffffff021916908373ffffffffffffffffffffffffffffffffffffffff16021790555060018201548160010155600282015481600201556003820154816003015590505083805480610ff057610fef61199a565b5b6001900381819060005260206000209060040201600080820160006101000a81549073ffffffffffffffffffffffffffffffffffffffff02191690556001820160009055600282016000905560038201600090555050905561105a565b8080600101915050610e52565b50505050565b600080fd5b600080fd5b600073ffffffffffffffffffffffffffffffffffffffff82169050919050565b60006110958261106a565b9050919050565b6110a58161108a565b81146110b057600080fd5b50565b6000813590506110c28161109c565b92915050565b6000819050919050565b6110db816110c8565b81146110e657600080fd5b50565b6000813590506110f8816110d2565b92915050565b600080fd5b600080fd5b600080fd5b60008083601f840112611123576111226110fe565b5b8235905067ffffffffffffffff8111156111405761113f611103565b5b60208301915083600182028301111561115c5761115b611108565b5b9250929050565b60008060008060006080868803121561117f5761117e611060565b5b600061118d888289016110b3565b955050602061119e888289016110b3565b94505060406111af888289016110e9565b935050606086013567ffffffffffffffff8111156111d0576111cf611065565b5b6111dc8882890161110d565b92509250509295509295909350565b60007fffffffff0000000000000000000000000000000000000000000000000000000082169050919050565b611220816111eb565b82525050565b600060208201905061123b6000830184611217565b92915050565b6000819050919050565b600061126661126161125c8461106a565b611241565b61106a565b9050919050565b60006112788261124b565b9050919050565b600061128a8261126d565b9050919050565b61129a8161127f565b82525050565b60006020820190506112b56000830184611291565b92915050565b6000602082840312156112d1576112d0611060565b5b60006112df848285016110e9565b91505092915050565b6112f18161108a565b82525050565b611300816110c8565b82525050565b600060808201905061131b60008301876112e8565b61132860208301866112f7565b61133560408301856112f7565b61134260608301846112f7565b95945050505050565b60008060006060848603121561136457611363611060565b5b6000611372868287016110b3565b9350506020611383868287016110e9565b9250506040611394868287016110e9565b9150509250925092565b600080604083850312156113b5576113b4611060565b5b60006113c3858286016110b3565b92505060206113d4858286016110e9565b9150509250929050565b600081519050919050565b600082825260208201905092915050565b6000819050602082019050919050565b6114138161108a565b82525050565b611422816110c8565b82525050565b60808201600082015161143e600085018261140a565b5060208201516114516020850182611419565b5060408201516114646040850182611419565b5060608201516114776060850182611419565b50505050565b60006114898383611428565b60808301905092915050565b6000602082019050919050565b60006114ad826113de565b6114b781856113e9565b93506114c2836113fa565b8060005b838110156114f35781516114da888261147d565b97506114e583611495565b9250506001810190506114c6565b5085935050505092915050565b6000602082019050818103600083015261151a81846114a2565b905092915050565b600061152d8261126d565b9050919050565b61153d81611522565b82525050565b60006020820190506115586000830184611534565b92915050565b600060208201905061157360008301846112f7565b92915050565b600081519050611588816110d2565b92915050565b6000602082840312156115a4576115a3611060565b5b60006115b284828501611579565b91505092915050565b7f4e487b7100000000000000000000000000000000000000000000000000000000600052601160045260246000fd5b60006115f5826110c8565b9150611600836110c8565b9250828201905080821115611618576116176115bb565b5b92915050565b600060608201905061163360008301866112e8565b61164060208301856112f7565b61164d60408301846112f7565b949350505050565b6000611660826110c8565b915061166b836110c8565b9250828202611679816110c8565b915082820484148315176116905761168f6115bb565b5b5092915050565b7f4e487b7100000000000000000000000000000000000000000000000000000000600052601260045260246000fd5b60006116d1826110c8565b91506116dc836110c8565b9250826116ec576116eb611697565b5b828204905092915050565b600060408201905061170c60008301856112e8565b61171960208301846112f7565b9392505050565b60008115159050919050565b61173581611720565b811461174057600080fd5b50565b6000815190506117528161172c565b92915050565b60006020828403121561176e5761176d611060565b5b600061177c84828501611743565b91505092915050565b600082825260208201905092915050565b7f43757272656e74204e465420686173206e6f206c697374656421000000000000600082015250565b60006117cc601a83611785565b91506117d782611796565b602082019050919050565b600060208201905081810360008301526117fb816117bf565b9050919050565b600060608201905061181760008301866112e8565b61182460208301856112e8565b61183160408301846112f7565b949350505050565b61184281611720565b82525050565b600060208201905061185d6000830184611839565b92915050565b6000815190506118728161109c565b92915050565b60006020828403121561188e5761188d611060565b5b600061189c84828501611863565b91505092915050565b7f54686973204e4654206973206e6f742062656c6f6e6720746f2063757272656e60008201527f7420616464726573732100000000000000000000000000000000000000000000602082015250565b6000611901602a83611785565b915061190c826118a5565b604082019050919050565b60006020820190508181036000830152611930816118f4565b9050919050565b7f4e487b7100000000000000000000000000000000000000000000000000000000600052603260045260246000fd5b6000611971826110c8565b915061197c836110c8565b9250828203905081811115611994576119936115bb565b5b92915050565b7f4e487b7100000000000000000000000000000000000000000000000000000000600052603160045260246000fdfea2646970667358221220b98cfb9fb4ed3c397f48560091be7bf281ab6bf36911efdc531da89d9fa5670f64736f6c63430008180033",
  "linkReferences": {},
  "deployedLinkReferences": {}
}