{
  "_format": "hh-sol-artifact-1",
  "contractName": "JuryNFTSwap",
  "sourceName": "contracts/JuryNFTSwap.sol",
  "abi": [
    {
      "inputs": [
        {
          "internalType": "address",
          "name": "_tokenAddr",
          "type": "address"
        },
        {
          "internalType": "address",
          "name": "_melonNFTAddr",
          "type": "address"
        },
        {
          "internalType": "address",
          "name": "_proposalAddr",
          "type": "address"
        }
      ],
      "stateMutability": "nonpayable",
      "type": "constructor"
    },
    {
      "inputs": [
        {
          "internalType": "uint256",
          "name": "tokenId",
          "type": "uint256"
        }
      ],
      "name": "AlreadyListed",
      "type": "error"
    },
    {
      "inputs": [
        {
          "internalType": "address",
          "name": "user",
          "type": "address"
        },
        {
          "internalType": "uint256",
          "name": "holdAmount",
          "type": "uint256"
        }
      ],
      "name": "MaximumNumberOfHoldings",
      "type": "error"
    },
    {
      "inputs": [
        {
          "internalType": "uint256",
          "name": "tokenId",
          "type": "uint256"
        }
      ],
      "name": "NotListed",
      "type": "error"
    },
    {
      "inputs": [
        {
          "internalType": "address",
          "name": "user",
          "type": "address"
        },
        {
          "internalType": "uint256",
          "name": "tokenId",
          "type": "uint256"
        }
      ],
      "name": "NotNFTOwner",
      "type": "error"
    },
    {
      "inputs": [
        {
          "internalType": "address",
          "name": "pledger",
          "type": "address"
        }
      ],
      "name": "NotPledger",
      "type": "error"
    },
    {
      "inputs": [
        {
          "internalType": "address",
          "name": "NFTAddr",
          "type": "address"
        },
        {
          "internalType": "uint256",
          "name": "tokenId",
          "type": "uint256"
        },
        {
          "internalType": "uint256",
          "name": "redemptionTime",
          "type": "uint256"
        }
      ],
      "name": "RedemptionTimeNotReached",
      "type": "error"
    },
    {
      "anonymous": false,
      "inputs": [
        {
          "indexed": true,
          "internalType": "address",
          "name": "buyer",
          "type": "address"
        },
        {
          "indexed": false,
          "internalType": "uint256",
          "name": "tokenId",
          "type": "uint256"
        },
        {
          "indexed": false,
          "internalType": "uint256",
          "name": "price",
          "type": "uint256"
        }
      ],
      "name": "BuyNFT",
      "type": "event"
    },
    {
      "anonymous": false,
      "inputs": [
        {
          "indexed": true,
          "internalType": "uint256",
          "name": "tokenId",
          "type": "uint256"
        },
        {
          "indexed": false,
          "internalType": "uint256",
          "name": "price",
          "type": "uint256"
        }
      ],
      "name": "HangOut",
      "type": "event"
    },
    {
      "anonymous": false,
      "inputs": [
        {
          "indexed": true,
          "internalType": "address",
          "name": "previousOwner",
          "type": "address"
        },
        {
          "indexed": true,
          "internalType": "address",
          "name": "newOwner",
          "type": "address"
        }
      ],
      "name": "OwnershipTransferred",
      "type": "event"
    },
    {
      "anonymous": false,
      "inputs": [
        {
          "indexed": true,
          "internalType": "address",
          "name": "redeemer",
          "type": "address"
        },
        {
          "indexed": false,
          "internalType": "uint256",
          "name": "tokenId",
          "type": "uint256"
        },
        {
          "indexed": false,
          "internalType": "uint256",
          "name": "redeemPrice",
          "type": "uint256"
        }
      ],
      "name": "Redeem",
      "type": "event"
    },
    {
      "anonymous": false,
      "inputs": [
        {
          "indexed": true,
          "internalType": "address",
          "name": "buyer",
          "type": "address"
        },
        {
          "indexed": false,
          "internalType": "uint256",
          "name": "tokenId",
          "type": "uint256"
        },
        {
          "indexed": false,
          "internalType": "uint256",
          "name": "price",
          "type": "uint256"
        }
      ],
      "name": "StartUpNFTSending",
      "type": "event"
    },
    {
      "inputs": [],
      "name": "getAllListing",
      "outputs": [
        {
          "components": [
            {
              "internalType": "uint256",
              "name": "tokenId",
              "type": "uint256"
            },
            {
              "internalType": "uint256",
              "name": "price",
              "type": "uint256"
            },
            {
              "internalType": "string",
              "name": "uri",
              "type": "string"
            },
            {
              "internalType": "uint256",
              "name": "acquisitionTime",
              "type": "uint256"
            }
          ],
          "internalType": "struct JuryNFTSwap.Info[]",
          "name": "",
          "type": "tuple[]"
        },
        {
          "internalType": "uint256",
          "name": "",
          "type": "uint256"
        }
      ],
      "stateMutability": "view",
      "type": "function"
    },
    {
      "inputs": [
        {
          "internalType": "address",
          "name": "user",
          "type": "address"
        }
      ],
      "name": "getUserPurchasedNFTDetails",
      "outputs": [
        {
          "components": [
            {
              "internalType": "uint256",
              "name": "tokenId",
              "type": "uint256"
            },
            {
              "internalType": "uint256",
              "name": "price",
              "type": "uint256"
            },
            {
              "internalType": "string",
              "name": "uri",
              "type": "string"
            },
            {
              "internalType": "uint256",
              "name": "acquisitionTime",
              "type": "uint256"
            }
          ],
          "internalType": "struct JuryNFTSwap.Info[]",
          "name": "",
          "type": "tuple[]"
        }
      ],
      "stateMutability": "view",
      "type": "function"
    },
    {
      "inputs": [
        {
          "internalType": "uint256",
          "name": "",
          "type": "uint256"
        }
      ],
      "name": "infoByTokenId",
      "outputs": [
        {
          "internalType": "uint256",
          "name": "tokenId",
          "type": "uint256"
        },
        {
          "internalType": "uint256",
          "name": "price",
          "type": "uint256"
        },
        {
          "internalType": "string",
          "name": "uri",
          "type": "string"
        },
        {
          "internalType": "uint256",
          "name": "acquisitionTime",
          "type": "uint256"
        }
      ],
      "stateMutability": "view",
      "type": "function"
    },
    {
      "inputs": [
        {
          "internalType": "uint256",
          "name": "",
          "type": "uint256"
        }
      ],
      "name": "infos",
      "outputs": [
        {
          "internalType": "uint256",
          "name": "tokenId",
          "type": "uint256"
        },
        {
          "internalType": "uint256",
          "name": "price",
          "type": "uint256"
        },
        {
          "internalType": "string",
          "name": "uri",
          "type": "string"
        },
        {
          "internalType": "uint256",
          "name": "acquisitionTime",
          "type": "uint256"
        }
      ],
      "stateMutability": "view",
      "type": "function"
    },
    {
      "inputs": [
        {
          "internalType": "uint256",
          "name": "tokenId",
          "type": "uint256"
        },
        {
          "internalType": "uint256",
          "name": "price",
          "type": "uint256"
        }
      ],
      "name": "initialNFTHangOut",
      "outputs": [],
      "stateMutability": "nonpayable",
      "type": "function"
    },
    {
      "inputs": [
        {
          "internalType": "uint256",
          "name": "tokenId",
          "type": "uint256"
        },
        {
          "internalType": "address",
          "name": "pledger",
          "type": "address"
        }
      ],
      "name": "issuanceStartUpNFT",
      "outputs": [],
      "stateMutability": "nonpayable",
      "type": "function"
    },
    {
      "inputs": [],
      "name": "melonNFT",
      "outputs": [
        {
          "internalType": "contract MelonNFT",
          "name": "",
          "type": "address"
        }
      ],
      "stateMutability": "view",
      "type": "function"
    },
    {
      "inputs": [],
      "name": "melonToken",
      "outputs": [
        {
          "internalType": "contract MelonToken",
          "name": "",
          "type": "address"
        }
      ],
      "stateMutability": "view",
      "type": "function"
    },
    {
      "inputs": [
        {
          "internalType": "address",
          "name": "operator",
          "type": "address"
        },
        {
          "internalType": "address",
          "name": "from",
          "type": "address"
        },
        {
          "internalType": "uint256",
          "name": "tokenId",
          "type": "uint256"
        },
        {
          "internalType": "bytes",
          "name": "data",
          "type": "bytes"
        }
      ],
      "name": "onERC721Received",
      "outputs": [
        {
          "internalType": "bytes4",
          "name": "",
          "type": "bytes4"
        }
      ],
      "stateMutability": "pure",
      "type": "function"
    },
    {
      "inputs": [],
      "name": "owner",
      "outputs": [
        {
          "internalType": "address",
          "name": "",
          "type": "address"
        }
      ],
      "stateMutability": "view",
      "type": "function"
    },
    {
      "inputs": [],
      "name": "proposal",
      "outputs": [
        {
          "internalType": "contract Proposal",
          "name": "",
          "type": "address"
        }
      ],
      "stateMutability": "view",
      "type": "function"
    },
    {
      "inputs": [
        {
          "internalType": "uint256",
          "name": "tokenId",
          "type": "uint256"
        }
      ],
      "name": "purchaseCommonNFT",
      "outputs": [],
      "stateMutability": "nonpayable",
      "type": "function"
    },
    {
      "inputs": [
        {
          "internalType": "uint256",
          "name": "tokenId",
          "type": "uint256"
        },
        {
          "internalType": "uint256",
          "name": "price",
          "type": "uint256"
        }
      ],
      "name": "redeem",
      "outputs": [],
      "stateMutability": "nonpayable",
      "type": "function"
    },
    {
      "inputs": [],
      "name": "renounceOwnership",
      "outputs": [],
      "stateMutability": "nonpayable",
      "type": "function"
    },
    {
      "inputs": [
        {
          "internalType": "address",
          "name": "newOwner",
          "type": "address"
        }
      ],
      "name": "transferOwnership",
      "outputs": [],
      "stateMutability": "nonpayable",
      "type": "function"
    },
    {
      "inputs": [
        {
          "internalType": "address",
          "name": "",
          "type": "address"
        },
        {
          "internalType": "uint256",
          "name": "",
          "type": "uint256"
        }
      ],
      "name": "userPurchasedNFTs",
      "outputs": [
        {
          "internalType": "uint256",
          "name": "tokenId",
          "type": "uint256"
        },
        {
          "internalType": "uint256",
          "name": "price",
          "type": "uint256"
        },
        {
          "internalType": "string",
          "name": "uri",
          "type": "string"
        },
        {
          "internalType": "uint256",
          "name": "acquisitionTime",
          "type": "uint256"
        }
      ],
      "stateMutability": "view",
      "type": "function"
    }
  ],
  "bytecode": "0x60806040523480156200001157600080fd5b5060405162002f5a38038062002f5a833981810160405281019062000037919062000259565b620000576200004b6200012360201b60201c565b6200012b60201b60201c565b82600160006101000a81548173ffffffffffffffffffffffffffffffffffffffff021916908373ffffffffffffffffffffffffffffffffffffffff16021790555081600260006101000a81548173ffffffffffffffffffffffffffffffffffffffff021916908373ffffffffffffffffffffffffffffffffffffffff16021790555080600360006101000a81548173ffffffffffffffffffffffffffffffffffffffff021916908373ffffffffffffffffffffffffffffffffffffffff160217905550505050620002b5565b600033905090565b60008060009054906101000a900473ffffffffffffffffffffffffffffffffffffffff169050816000806101000a81548173ffffffffffffffffffffffffffffffffffffffff021916908373ffffffffffffffffffffffffffffffffffffffff1602179055508173ffffffffffffffffffffffffffffffffffffffff168173ffffffffffffffffffffffffffffffffffffffff167f8be0079c531659141344cd1fd0a4f28419497f9722a3daafe3b4186f6b6457e060405160405180910390a35050565b600080fd5b600073ffffffffffffffffffffffffffffffffffffffff82169050919050565b60006200022182620001f4565b9050919050565b620002338162000214565b81146200023f57600080fd5b50565b600081519050620002538162000228565b92915050565b600080600060608486031215620002755762000274620001ef565b5b6000620002858682870162000242565b9350506020620002988682870162000242565b9250506040620002ab8682870162000242565b9150509250925092565b612c9580620002c56000396000f3fe608060405234801561001057600080fd5b50600436106101005760003560e01c8063753ec10311610097578063cb5b7d3411610066578063cb5b7d341461028d578063f2fde38b146102c0578063f6569565146102dc578063f73eaa91146102f857610100565b8063753ec103146102195780637cbc2373146102375780638da5cb5b14610253578063b7a7d14f1461027157610100565b8063467efe5a116100d3578063467efe5a146101b65780634f7fc7dd146101d55780636b915d43146101f1578063715018a61461020f57610100565b8063150b7a02146101055780631b02e2d61461013557806328de3c9b1461015357806331c0e04b14610186575b600080fd5b61011f600480360381019061011a9190611d66565b61032b565b60405161012c9190611e29565b60405180910390f35b61013d610340565b60405161014a9190611ea3565b60405180910390f35b61016d60048036038101906101689190611ebe565b610366565b60405161017d9493929190611f8a565b60405180910390f35b6101a0600480360381019061019b9190611fd6565b61042e565b6040516101ad9190612181565b60405180910390f35b6101be61057c565b6040516101cc9291906121a3565b60405180910390f35b6101ef60048036038101906101ea91906121d3565b610698565b005b6101f9610a61565b6040516102069190612234565b60405180910390f35b610217610a87565b005b610221610a9b565b60405161022e9190612270565b60405180910390f35b610251600480360381019061024c91906121d3565b610ac1565b005b61025b610f53565b604051610268919061229a565b60405180910390f35b61028b60048036038101906102869190611ebe565b610f7c565b005b6102a760048036038101906102a29190611ebe565b611421565b6040516102b79493929190611f8a565b60405180910390f35b6102da60048036038101906102d59190611fd6565b6114d9565b005b6102f660048036038101906102f191906122b5565b61155c565b005b610312600480360381019061030d91906122f5565b6118b2565b6040516103229493929190611f8a565b60405180910390f35b600063150b7a0260e01b905095945050505050565b600260009054906101000a900473ffffffffffffffffffffffffffffffffffffffff1681565b6004818154811061037657600080fd5b90600052602060002090600402016000915090508060000154908060010154908060020180546103a590612364565b80601f01602080910402602001604051908101604052809291908181526020018280546103d190612364565b801561041e5780601f106103f35761010080835404028352916020019161041e565b820191906000526020600020905b81548152906001019060200180831161040157829003601f168201915b5050505050908060030154905084565b6060600660008373ffffffffffffffffffffffffffffffffffffffff1673ffffffffffffffffffffffffffffffffffffffff168152602001908152602001600020805480602002602001604051908101604052809291908181526020016000905b82821015610571578382906000526020600020906004020160405180608001604052908160008201548152602001600182015481526020016002820180546104d690612364565b80601f016020809104026020016040519081016040528092919081815260200182805461050290612364565b801561054f5780601f106105245761010080835404028352916020019161054f565b820191906000526020600020905b81548152906001019060200180831161053257829003601f168201915b505050505081526020016003820154815250508152602001906001019061048f565b505050509050919050565b606060006004808054905081805480602002602001604051908101604052809291908181526020016000905b8282101561068a578382906000526020600020906004020160405180608001604052908160008201548152602001600182015481526020016002820180546105ef90612364565b80601f016020809104026020016040519081016040528092919081815260200182805461061b90612364565b80156106685780601f1061063d57610100808354040283529160200191610668565b820191906000526020600020905b81548152906001019060200180831161064b57829003601f168201915b50505050508152602001600382015481525050815260200190600101906105a8565b505050509150915091509091565b33828173ffffffffffffffffffffffffffffffffffffffff16600260009054906101000a900473ffffffffffffffffffffffffffffffffffffffff1673ffffffffffffffffffffffffffffffffffffffff16636352211e836040518263ffffffff1660e01b815260040161070c9190612395565b602060405180830381865afa158015610729573d6000803e3d6000fd5b505050506040513d601f19601f8201168201806040525081019061074d91906123c5565b73ffffffffffffffffffffffffffffffffffffffff16146107a75781816040517f21e303dc00000000000000000000000000000000000000000000000000000000815260040161079e9291906123f2565b60405180910390fd5b8360006005600083815260200190815260200160002060020180546107cb90612364565b9050111561081057806040517f7fbcdff90000000000000000000000000000000000000000000000000000000081526004016108079190612395565b60405180910390fd5b610818611987565b600260009054906101000a900473ffffffffffffffffffffffffffffffffffffffff1673ffffffffffffffffffffffffffffffffffffffff166342842e0e3330886040518463ffffffff1660e01b81526004016108779392919061241b565b600060405180830381600087803b15801561089157600080fd5b505af11580156108a5573d6000803e3d6000fd5b505050506000600260009054906101000a900473ffffffffffffffffffffffffffffffffffffffff1673ffffffffffffffffffffffffffffffffffffffff1663c87b56dd876040518263ffffffff1660e01b81526004016109069190612395565b600060405180830381865afa158015610923573d6000803e3d6000fd5b505050506040513d6000823e3d601f19601f8201168201806040525081019061094c9190612573565b9050600060405180608001604052808881526020018781526020018381526020014281525090506004819080600181540180825580915050600190039060005260206000209060040201600090919091909150600082015181600001556020820151816001015560408201518160020190816109c8919061275e565b50606082015181600301555050806005600089815260200190815260200160002060008201518160000155602082015181600101556040820151816002019081610a12919061275e565b5060608201518160030155905050867fac040a3669b42aba8178c26fbd2fd6a5148e4e5434c9ce01dcb0144e45fc73dc87604051610a509190612395565b60405180910390a250505050505050565b600160009054906101000a900473ffffffffffffffffffffffffffffffffffffffff1681565b610a8f611987565b610a996000611a05565b565b600360009054906101000a900473ffffffffffffffffffffffffffffffffffffffff1681565b33828173ffffffffffffffffffffffffffffffffffffffff16600260009054906101000a900473ffffffffffffffffffffffffffffffffffffffff1673ffffffffffffffffffffffffffffffffffffffff16636352211e836040518263ffffffff1660e01b8152600401610b359190612395565b602060405180830381865afa158015610b52573d6000803e3d6000fd5b505050506040513d601f19601f82011682018060405250810190610b7691906123c5565b73ffffffffffffffffffffffffffffffffffffffff1614610bd05781816040517f21e303dc000000000000000000000000000000000000000000000000000000008152600401610bc79291906123f2565b60405180910390fd5b836000600560008381526020019081526020016000206002018054610bf490612364565b90501115610c3957806040517f7fbcdff9000000000000000000000000000000000000000000000000000000008152600401610c309190612395565b60405180910390fd5b600260009054906101000a900473ffffffffffffffffffffffffffffffffffffffff1673ffffffffffffffffffffffffffffffffffffffff166342842e0e3330886040518463ffffffff1660e01b8152600401610c989392919061241b565b600060405180830381600087803b158015610cb257600080fd5b505af1158015610cc6573d6000803e3d6000fd5b505050506000600260009054906101000a900473ffffffffffffffffffffffffffffffffffffffff1673ffffffffffffffffffffffffffffffffffffffff1663c87b56dd876040518263ffffffff1660e01b8152600401610d279190612395565b600060405180830381865afa158015610d44573d6000803e3d6000fd5b505050506040513d6000823e3d601f19601f82011682018060405250810190610d6d9190612573565b905060006040518060800160405280888152602001878152602001838152602001428152509050600481908060018154018082558091505060019003906000526020600020906004020160009091909190915060008201518160000155602082015181600101556040820151816002019081610de9919061275e565b50606082015181600301555050806005600089815260200190815260200160002060008201518160000155602082015181600101556040820151816002019081610e33919061275e565b5060608201518160030155905050600160009054906101000a900473ffffffffffffffffffffffffffffffffffffffff1673ffffffffffffffffffffffffffffffffffffffff1663a9059cbb33606460628a610e8f919061285f565b610e9991906128d0565b6040518363ffffffff1660e01b8152600401610eb69291906123f2565b6020604051808303816000875af1158015610ed5573d6000803e3d6000fd5b505050506040513d601f19601f82011682018060405250810190610ef99190612939565b503373ffffffffffffffffffffffffffffffffffffffff167fe5b754fb1abb7f01b499791d0b820ae3b6af3424ac1c59768edb53f4ec31a9298888604051610f42929190612966565b60405180910390a250505050505050565b60008060009054906101000a900473ffffffffffffffffffffffffffffffffffffffff16905090565b806000600560008381526020019081526020016000206002018054610fa090612364565b905003610fe457806040517fd176cea0000000000000000000000000000000000000000000000000000000008152600401610fdb9190612395565b60405180910390fd5b6000600260009054906101000a900473ffffffffffffffffffffffffffffffffffffffff1673ffffffffffffffffffffffffffffffffffffffff166370a08231336040518263ffffffff1660e01b8152600401611041919061229a565b602060405180830381865afa15801561105e573d6000803e3d6000fd5b505050506040513d601f19601f8201168201806040525081019061108291906129a4565b9050600381106110cb5733816040517f8c13eb060000000000000000000000000000000000000000000000000000000081526004016110c29291906123f2565b60405180910390fd5b600060056000858152602001908152602001600020604051806080016040529081600082015481526020016001820154815260200160028201805461110f90612364565b80601f016020809104026020016040519081016040528092919081815260200182805461113b90612364565b80156111885780601f1061115d57610100808354040283529160200191611188565b820191906000526020600020905b81548152906001019060200180831161116b57829003601f168201915b505050505081526020016003820154815250509050600160009054906101000a900473ffffffffffffffffffffffffffffffffffffffff1673ffffffffffffffffffffffffffffffffffffffff166323b872dd333084602001516040518463ffffffff1660e01b81526004016112009392919061241b565b6020604051808303816000875af115801561121f573d6000803e3d6000fd5b505050506040513d601f19601f820116820180604052508101906112439190612939565b50600260009054906101000a900473ffffffffffffffffffffffffffffffffffffffff1673ffffffffffffffffffffffffffffffffffffffff166342842e0e3033876040518463ffffffff1660e01b81526004016112a39392919061241b565b600060405180830381600087803b1580156112bd57600080fd5b505af11580156112d1573d6000803e3d6000fd5b5050505042816060018181525050600660003373ffffffffffffffffffffffffffffffffffffffff1673ffffffffffffffffffffffffffffffffffffffff16815260200190815260200160002081908060018154018082558091505060019003906000526020600020906004020160009091909190915060008201518160000155602082015181600101556040820151816002019081611371919061275e565b50606082015181600301555050611389600485611ac9565b6005600085815260200190815260200160002060008082016000905560018201600090556002820160006113bd9190611bfc565b600382016000905550503373ffffffffffffffffffffffffffffffffffffffff167f5d963241241cfe9e161d13500d628058954b3febfde03e4b1f4071370e72fe2b858360200151604051611413929190612966565b60405180910390a250505050565b600560205280600052604060002060009150905080600001549080600101549080600201805461145090612364565b80601f016020809104026020016040519081016040528092919081815260200182805461147c90612364565b80156114c95780601f1061149e576101008083540402835291602001916114c9565b820191906000526020600020905b8154815290600101906020018083116114ac57829003601f168201915b5050505050908060030154905084565b6114e1611987565b600073ffffffffffffffffffffffffffffffffffffffff168173ffffffffffffffffffffffffffffffffffffffff1603611550576040517f08c379a000000000000000000000000000000000000000000000000000000000815260040161154790612a43565b60405180910390fd5b61155981611a05565b50565b806000600360009054906101000a900473ffffffffffffffffffffffffffffffffffffffff1673ffffffffffffffffffffffffffffffffffffffff16638c5fe473836040518263ffffffff1660e01b81526004016115ba919061229a565b602060405180830381865afa1580156115d7573d6000803e3d6000fd5b505050506040513d601f19601f820116820180604052508101906115fb91906129a4565b90506000810361164257816040517f7a33e99c000000000000000000000000000000000000000000000000000000008152600401611639919061229a565b60405180910390fd5b83600060056000838152602001908152602001600020600201805461166690612364565b9050036116aa57806040517fd176cea00000000000000000000000000000000000000000000000000000000081526004016116a19190612395565b60405180910390fd5b60006005600087815260200190815260200160002060405180608001604052908160008201548152602001600182015481526020016002820180546116ee90612364565b80601f016020809104026020016040519081016040528092919081815260200182805461171a90612364565b80156117675780601f1061173c57610100808354040283529160200191611767565b820191906000526020600020905b81548152906001019060200180831161174a57829003601f168201915b505050505081526020016003820154815250509050600260009054906101000a900473ffffffffffffffffffffffffffffffffffffffff1673ffffffffffffffffffffffffffffffffffffffff166342842e0e3087896040518463ffffffff1660e01b81526004016117db9392919061241b565b600060405180830381600087803b1580156117f557600080fd5b505af1158015611809573d6000803e3d6000fd5b50505050611818600487611ac9565b60056000878152602001908152602001600020600080820160009055600182016000905560028201600061184c9190611bfc565b600382016000905550508473ffffffffffffffffffffffffffffffffffffffff167fde4f139185ace785cbf7e66c8f61847efcaa12e5e37cf3372124403285b25d878783602001516040516118a2929190612966565b60405180910390a2505050505050565b600660205281600052604060002081815481106118ce57600080fd5b9060005260206000209060040201600091509150508060000154908060010154908060020180546118fe90612364565b80601f016020809104026020016040519081016040528092919081815260200182805461192a90612364565b80156119775780601f1061194c57610100808354040283529160200191611977565b820191906000526020600020905b81548152906001019060200180831161195a57829003601f168201915b5050505050908060030154905084565b61198f611bf4565b73ffffffffffffffffffffffffffffffffffffffff166119ad610f53565b73ffffffffffffffffffffffffffffffffffffffff1614611a03576040517f08c379a00000000000000000000000000000000000000000000000000000000081526004016119fa90612aaf565b60405180910390fd5b565b60008060009054906101000a900473ffffffffffffffffffffffffffffffffffffffff169050816000806101000a81548173ffffffffffffffffffffffffffffffffffffffff021916908373ffffffffffffffffffffffffffffffffffffffff1602179055508173ffffffffffffffffffffffffffffffffffffffff168173ffffffffffffffffffffffffffffffffffffffff167f8be0079c531659141344cd1fd0a4f28419497f9722a3daafe3b4186f6b6457e060405160405180910390a35050565b60005b8280549050811015611bef5781838281548110611aec57611aeb612acf565b5b90600052602060002090600402016000015403611be2578260018480549050611b159190612afe565b81548110611b2657611b25612acf565b5b9060005260206000209060040201838281548110611b4757611b46612acf565b5b9060005260206000209060040201600082015481600001556001820154816001015560028201816002019081611b7d9190612b48565b506003820154816003015590505082805480611b9c57611b9b612c30565b5b60019003818190600052602060002090600402016000808201600090556001820160009055600282016000611bd19190611bfc565b600382016000905550509055611bef565b8080600101915050611acc565b505050565b600033905090565b508054611c0890612364565b6000825580601f10611c1a5750611c39565b601f016020900490600052602060002090810190611c389190611c3c565b5b50565b5b80821115611c55576000816000905550600101611c3d565b5090565b6000604051905090565b600080fd5b600080fd5b600073ffffffffffffffffffffffffffffffffffffffff82169050919050565b6000611c9882611c6d565b9050919050565b611ca881611c8d565b8114611cb357600080fd5b50565b600081359050611cc581611c9f565b92915050565b6000819050919050565b611cde81611ccb565b8114611ce957600080fd5b50565b600081359050611cfb81611cd5565b92915050565b600080fd5b600080fd5b600080fd5b60008083601f840112611d2657611d25611d01565b5b8235905067ffffffffffffffff811115611d4357611d42611d06565b5b602083019150836001820283011115611d5f57611d5e611d0b565b5b9250929050565b600080600080600060808688031215611d8257611d81611c63565b5b6000611d9088828901611cb6565b9550506020611da188828901611cb6565b9450506040611db288828901611cec565b935050606086013567ffffffffffffffff811115611dd357611dd2611c68565b5b611ddf88828901611d10565b92509250509295509295909350565b60007fffffffff0000000000000000000000000000000000000000000000000000000082169050919050565b611e2381611dee565b82525050565b6000602082019050611e3e6000830184611e1a565b92915050565b6000819050919050565b6000611e69611e64611e5f84611c6d565b611e44565b611c6d565b9050919050565b6000611e7b82611e4e565b9050919050565b6000611e8d82611e70565b9050919050565b611e9d81611e82565b82525050565b6000602082019050611eb86000830184611e94565b92915050565b600060208284031215611ed457611ed3611c63565b5b6000611ee284828501611cec565b91505092915050565b611ef481611ccb565b82525050565b600081519050919050565b600082825260208201905092915050565b60005b83811015611f34578082015181840152602081019050611f19565b60008484015250505050565b6000601f19601f8301169050919050565b6000611f5c82611efa565b611f668185611f05565b9350611f76818560208601611f16565b611f7f81611f40565b840191505092915050565b6000608082019050611f9f6000830187611eeb565b611fac6020830186611eeb565b8181036040830152611fbe8185611f51565b9050611fcd6060830184611eeb565b95945050505050565b600060208284031215611fec57611feb611c63565b5b6000611ffa84828501611cb6565b91505092915050565b600081519050919050565b600082825260208201905092915050565b6000819050602082019050919050565b61203881611ccb565b82525050565b600082825260208201905092915050565b600061205a82611efa565b612064818561203e565b9350612074818560208601611f16565b61207d81611f40565b840191505092915050565b60006080830160008301516120a0600086018261202f565b5060208301516120b3602086018261202f565b50604083015184820360408601526120cb828261204f565b91505060608301516120e0606086018261202f565b508091505092915050565b60006120f78383612088565b905092915050565b6000602082019050919050565b600061211782612003565b612121818561200e565b9350836020820285016121338561201f565b8060005b8581101561216f578484038952815161215085826120eb565b945061215b836120ff565b925060208a01995050600181019050612137565b50829750879550505050505092915050565b6000602082019050818103600083015261219b818461210c565b905092915050565b600060408201905081810360008301526121bd818561210c565b90506121cc6020830184611eeb565b9392505050565b600080604083850312156121ea576121e9611c63565b5b60006121f885828601611cec565b925050602061220985828601611cec565b9150509250929050565b600061221e82611e70565b9050919050565b61222e81612213565b82525050565b60006020820190506122496000830184612225565b92915050565b600061225a82611e70565b9050919050565b61226a8161224f565b82525050565b60006020820190506122856000830184612261565b92915050565b61229481611c8d565b82525050565b60006020820190506122af600083018461228b565b92915050565b600080604083850312156122cc576122cb611c63565b5b60006122da85828601611cec565b92505060206122eb85828601611cb6565b9150509250929050565b6000806040838503121561230c5761230b611c63565b5b600061231a85828601611cb6565b925050602061232b85828601611cec565b9150509250929050565b7f4e487b7100000000000000000000000000000000000000000000000000000000600052602260045260246000fd5b6000600282049050600182168061237c57607f821691505b60208210810361238f5761238e612335565b5b50919050565b60006020820190506123aa6000830184611eeb565b92915050565b6000815190506123bf81611c9f565b92915050565b6000602082840312156123db576123da611c63565b5b60006123e9848285016123b0565b91505092915050565b6000604082019050612407600083018561228b565b6124146020830184611eeb565b9392505050565b6000606082019050612430600083018661228b565b61243d602083018561228b565b61244a6040830184611eeb565b949350505050565b600080fd5b7f4e487b7100000000000000000000000000000000000000000000000000000000600052604160045260246000fd5b61248f82611f40565b810181811067ffffffffffffffff821117156124ae576124ad612457565b5b80604052505050565b60006124c1611c59565b90506124cd8282612486565b919050565b600067ffffffffffffffff8211156124ed576124ec612457565b5b6124f682611f40565b9050602081019050919050565b6000612516612511846124d2565b6124b7565b90508281526020810184848401111561253257612531612452565b5b61253d848285611f16565b509392505050565b600082601f83011261255a57612559611d01565b5b815161256a848260208601612503565b91505092915050565b60006020828403121561258957612588611c63565b5b600082015167ffffffffffffffff8111156125a7576125a6611c68565b5b6125b384828501612545565b91505092915050565b60008190508160005260206000209050919050565b60006020601f8301049050919050565b600082821b905092915050565b60006008830261261e7fffffffffffffffffffffffffffffffffffffffffffffffffffffffffffffffff826125e1565b61262886836125e1565b95508019841693508086168417925050509392505050565b600061265b61265661265184611ccb565b611e44565b611ccb565b9050919050565b6000819050919050565b61267583612640565b61268961268182612662565b8484546125ee565b825550505050565b600090565b61269e612691565b6126a981848461266c565b505050565b5b818110156126cd576126c2600082612696565b6001810190506126af565b5050565b601f821115612712576126e3816125bc565b6126ec846125d1565b810160208510156126fb578190505b61270f612707856125d1565b8301826126ae565b50505b505050565b600082821c905092915050565b600061273560001984600802612717565b1980831691505092915050565b600061274e8383612724565b9150826002028217905092915050565b61276782611efa565b67ffffffffffffffff8111156127805761277f612457565b5b61278a8254612364565b6127958282856126d1565b600060209050601f8311600181146127c857600084156127b6578287015190505b6127c08582612742565b865550612828565b601f1984166127d6866125bc565b60005b828110156127fe578489015182556001820191506020850194506020810190506127d9565b8683101561281b5784890151612817601f891682612724565b8355505b6001600288020188555050505b505050505050565b7f4e487b7100000000000000000000000000000000000000000000000000000000600052601160045260246000fd5b600061286a82611ccb565b915061287583611ccb565b925082820261288381611ccb565b9150828204841483151761289a57612899612830565b5b5092915050565b7f4e487b7100000000000000000000000000000000000000000000000000000000600052601260045260246000fd5b60006128db82611ccb565b91506128e683611ccb565b9250826128f6576128f56128a1565b5b828204905092915050565b60008115159050919050565b61291681612901565b811461292157600080fd5b50565b6000815190506129338161290d565b92915050565b60006020828403121561294f5761294e611c63565b5b600061295d84828501612924565b91505092915050565b600060408201905061297b6000830185611eeb565b6129886020830184611eeb565b9392505050565b60008151905061299e81611cd5565b92915050565b6000602082840312156129ba576129b9611c63565b5b60006129c88482850161298f565b91505092915050565b7f4f776e61626c653a206e6577206f776e657220697320746865207a65726f206160008201527f6464726573730000000000000000000000000000000000000000000000000000602082015250565b6000612a2d602683611f05565b9150612a38826129d1565b604082019050919050565b60006020820190508181036000830152612a5c81612a20565b9050919050565b7f4f776e61626c653a2063616c6c6572206973206e6f7420746865206f776e6572600082015250565b6000612a99602083611f05565b9150612aa482612a63565b602082019050919050565b60006020820190508181036000830152612ac881612a8c565b9050919050565b7f4e487b7100000000000000000000000000000000000000000000000000000000600052603260045260246000fd5b6000612b0982611ccb565b9150612b1483611ccb565b9250828203905081811115612b2c57612b2b612830565b5b92915050565b600081549050612b4181612364565b9050919050565b818103612b56575050612c2e565b612b5f82612b32565b67ffffffffffffffff811115612b7857612b77612457565b5b612b828254612364565b612b8d8282856126d1565b6000601f831160018114612bbc5760008415612baa578287015490505b612bb48582612742565b865550612c27565b601f198416612bca876125bc565b9650612bd5866125bc565b60005b82811015612bfd57848901548255600182019150600185019450602081019050612bd8565b86831015612c1a5784890154612c16601f891682612724565b8355505b6001600288020188555050505b5050505050505b565b7f4e487b7100000000000000000000000000000000000000000000000000000000600052603160045260246000fdfea26469706673582212202002ad9202ca362ebd2164797ce97d2cabc2e504b0837f4e5bdc7dc29d4e7bb164736f6c63430008180033",
  "linkReferences": {},
  "deployedLinkReferences": {}
}