{
  "_format": "hh-sol-artifact-1",
  "contractName": "JuryNFTSwap",
  "sourceName": "contracts/JuryNFTSwap.sol",
  "abi": [
    {
      "inputs": [
        {
          "internalType": "address",
          "name": "token",
          "type": "address"
        },
        {
          "internalType": "address",
          "name": "_jury",
          "type": "address"
        }
      ],
      "stateMutability": "nonpayable",
      "type": "constructor"
    },
    {
      "inputs": [
        {
          "internalType": "address",
          "name": "nftAddress",
          "type": "address"
        },
        {
          "internalType": "uint256",
          "name": "tokenId",
          "type": "uint256"
        }
      ],
      "name": "HasListed",
      "type": "error"
    },
    {
      "inputs": [
        {
          "internalType": "address",
          "name": "nftAddress",
          "type": "address"
        },
        {
          "internalType": "uint256",
          "name": "tokenId",
          "type": "uint256"
        },
        {
          "internalType": "uint256",
          "name": "redemptionTime",
          "type": "uint256"
        }
      ],
      "name": "RedemptionTimeNotReached",
      "type": "error"
    },
    {
      "anonymous": false,
      "inputs": [
        {
          "indexed": true,
          "internalType": "address",
          "name": "buyer",
          "type": "address"
        },
        {
          "indexed": false,
          "internalType": "address",
          "name": "nftAddress",
          "type": "address"
        },
        {
          "indexed": false,
          "internalType": "uint256",
          "name": "tokenId",
          "type": "uint256"
        },
        {
          "indexed": false,
          "internalType": "uint256",
          "name": "price",
          "type": "uint256"
        }
      ],
      "name": "BuyNFT",
      "type": "event"
    },
    {
      "anonymous": false,
      "inputs": [
        {
          "indexed": true,
          "internalType": "address",
          "name": "nftAddress",
          "type": "address"
        },
        {
          "indexed": true,
          "internalType": "uint256",
          "name": "tokenId",
          "type": "uint256"
        },
        {
          "indexed": false,
          "internalType": "uint256",
          "name": "price",
          "type": "uint256"
        }
      ],
      "name": "HangOut",
      "type": "event"
    },
    {
      "anonymous": false,
      "inputs": [
        {
          "indexed": true,
          "internalType": "address",
          "name": "redeemer",
          "type": "address"
        },
        {
          "indexed": false,
          "internalType": "address",
          "name": "nftAddress",
          "type": "address"
        },
        {
          "indexed": false,
          "internalType": "uint256",
          "name": "tokenId",
          "type": "uint256"
        },
        {
          "indexed": false,
          "internalType": "uint256",
          "name": "redeemPrice",
          "type": "uint256"
        }
      ],
      "name": "Redeem",
      "type": "event"
    },
    {
      "inputs": [
        {
          "internalType": "address",
          "name": "nftAddr",
          "type": "address"
        },
        {
          "internalType": "uint256",
          "name": "tokenId",
          "type": "uint256"
        }
      ],
      "name": "buy",
      "outputs": [],
      "stateMutability": "nonpayable",
      "type": "function"
    },
    {
      "inputs": [],
      "name": "getAllListing",
      "outputs": [
        {
          "components": [
            {
              "internalType": "address",
              "name": "nftAddr",
              "type": "address"
            },
            {
              "internalType": "uint256",
              "name": "tokenId",
              "type": "uint256"
            },
            {
              "internalType": "uint256",
              "name": "price",
              "type": "uint256"
            }
          ],
          "internalType": "struct JuryNFTSwap.Info[]",
          "name": "",
          "type": "tuple[]"
        },
        {
          "internalType": "uint256",
          "name": "totalInfo",
          "type": "uint256"
        }
      ],
      "stateMutability": "view",
      "type": "function"
    },
    {
      "inputs": [
        {
          "internalType": "address",
          "name": "nftAddr",
          "type": "address"
        },
        {
          "internalType": "uint256",
          "name": "tokenId",
          "type": "uint256"
        },
        {
          "internalType": "uint256",
          "name": "price",
          "type": "uint256"
        }
      ],
      "name": "hangOut",
      "outputs": [],
      "stateMutability": "nonpayable",
      "type": "function"
    },
    {
      "inputs": [
        {
          "internalType": "uint256",
          "name": "",
          "type": "uint256"
        }
      ],
      "name": "infos",
      "outputs": [
        {
          "internalType": "address",
          "name": "nftAddr",
          "type": "address"
        },
        {
          "internalType": "uint256",
          "name": "tokenId",
          "type": "uint256"
        },
        {
          "internalType": "uint256",
          "name": "price",
          "type": "uint256"
        }
      ],
      "stateMutability": "view",
      "type": "function"
    },
    {
      "inputs": [],
      "name": "jury",
      "outputs": [
        {
          "internalType": "contract Jury",
          "name": "",
          "type": "address"
        }
      ],
      "stateMutability": "view",
      "type": "function"
    },
    {
      "inputs": [],
      "name": "melonToken",
      "outputs": [
        {
          "internalType": "contract MelonToken",
          "name": "",
          "type": "address"
        }
      ],
      "stateMutability": "view",
      "type": "function"
    },
    {
      "inputs": [
        {
          "internalType": "address",
          "name": "",
          "type": "address"
        },
        {
          "internalType": "uint256",
          "name": "",
          "type": "uint256"
        }
      ],
      "name": "nftListings",
      "outputs": [
        {
          "internalType": "address",
          "name": "nftAddr",
          "type": "address"
        },
        {
          "internalType": "uint256",
          "name": "tokenId",
          "type": "uint256"
        },
        {
          "internalType": "uint256",
          "name": "price",
          "type": "uint256"
        }
      ],
      "stateMutability": "view",
      "type": "function"
    },
    {
      "inputs": [
        {
          "internalType": "address",
          "name": "operator",
          "type": "address"
        },
        {
          "internalType": "address",
          "name": "from",
          "type": "address"
        },
        {
          "internalType": "uint256",
          "name": "tokenId",
          "type": "uint256"
        },
        {
          "internalType": "bytes",
          "name": "data",
          "type": "bytes"
        }
      ],
      "name": "onERC721Received",
      "outputs": [
        {
          "internalType": "bytes4",
          "name": "",
          "type": "bytes4"
        }
      ],
      "stateMutability": "pure",
      "type": "function"
    },
    {
      "inputs": [
        {
          "internalType": "address",
          "name": "nftAddr",
          "type": "address"
        },
        {
          "internalType": "uint256",
          "name": "tokenId",
          "type": "uint256"
        },
        {
          "internalType": "uint256",
          "name": "price",
          "type": "uint256"
        }
      ],
      "name": "redeem",
      "outputs": [],
      "stateMutability": "nonpayable",
      "type": "function"
    }
  ],
  "bytecode": "0x60806040523480156200001157600080fd5b50604051620018bf380380620018bf83398181016040528101906200003791906200012a565b81600160006101000a81548173ffffffffffffffffffffffffffffffffffffffff021916908373ffffffffffffffffffffffffffffffffffffffff160217905550806000806101000a81548173ffffffffffffffffffffffffffffffffffffffff021916908373ffffffffffffffffffffffffffffffffffffffff160217905550505062000171565b600080fd5b600073ffffffffffffffffffffffffffffffffffffffff82169050919050565b6000620000f282620000c5565b9050919050565b6200010481620000e5565b81146200011057600080fd5b50565b6000815190506200012481620000f9565b92915050565b60008060408385031215620001445762000143620000c0565b5b6000620001548582860162000113565b9250506020620001678582860162000113565b9150509250929050565b61173e80620001816000396000f3fe608060405234801561001057600080fd5b50600436106100935760003560e01c80634309d594116100665780634309d59414610134578063467efe5a146101665780636b915d4314610185578063cce7ec13146101a3578063e29e8a19146101bf57610093565b806309fd3f6e14610098578063150b7a02146100b657806328de3c9b146100e65780632b83cccd14610118575b600080fd5b6100a06101db565b6040516100ad9190610f08565b60405180910390f35b6100d060048036038101906100cb9190611006565b6101ff565b6040516100dd91906110c9565b60405180910390f35b61010060048036038101906100fb91906110e4565b610214565b60405161010f9392919061112f565b60405180910390f35b610132600480360381019061012d9190611166565b61026e565b005b61014e600480360381019061014991906111b9565b610389565b60405161015d9392919061112f565b60405180910390f35b61016e6103e0565b60405161017c929190611308565b60405180910390f35b61018d6104b6565b60405161019a9190611359565b60405180910390f35b6101bd60048036038101906101b891906111b9565b6104dc565b005b6101d960048036038101906101d49190611166565b6108c7565b005b60008054906101000a900473ffffffffffffffffffffffffffffffffffffffff1681565b600063150b7a0260e01b905095945050505050565b6002818154811061022457600080fd5b90600052602060002090600302016000915090508060000160009054906101000a900473ffffffffffffffffffffffffffffffffffffffff16908060010154908060020154905083565b6102798383836108c7565b600160009054906101000a900473ffffffffffffffffffffffffffffffffffffffff1673ffffffffffffffffffffffffffffffffffffffff1663a9059cbb3360646062856102c791906113a3565b6102d19190611414565b6040518363ffffffff1660e01b81526004016102ee929190611445565b6020604051808303816000875af115801561030d573d6000803e3d6000fd5b505050506040513d601f19601f8201168201806040525081019061033191906114a6565b503373ffffffffffffffffffffffffffffffffffffffff167f3f693fff038bb8a046aa76d9516190ac7444f7d69cf952c4cbdc086fdef2d6fc84848460405161037c9392919061112f565b60405180910390a2505050565b6003602052816000526040600020602052806000526040600020600091509150508060000160009054906101000a900473ffffffffffffffffffffffffffffffffffffffff16908060010154908060020154905083565b606060006002808054905081805480602002602001604051908101604052809291908181526020016000905b828210156104a857838290600052602060002090600302016040518060600160405290816000820160009054906101000a900473ffffffffffffffffffffffffffffffffffffffff1673ffffffffffffffffffffffffffffffffffffffff1673ffffffffffffffffffffffffffffffffffffffff168152602001600182015481526020016002820154815250508152602001906001019061040c565b505050509150915091509091565b600160009054906101000a900473ffffffffffffffffffffffffffffffffffffffff1681565b81816000600360008473ffffffffffffffffffffffffffffffffffffffff1673ffffffffffffffffffffffffffffffffffffffff16815260200190815260200160002060008381526020019081526020016000206040518060600160405290816000820160009054906101000a900473ffffffffffffffffffffffffffffffffffffffff1673ffffffffffffffffffffffffffffffffffffffff1673ffffffffffffffffffffffffffffffffffffffff16815260200160018201548152602001600282015481525050905060008160400151116105ee576040517f08c379a00000000000000000000000000000000000000000000000000000000081526004016105e590611530565b60405180910390fd5b60008590506000600360008873ffffffffffffffffffffffffffffffffffffffff1673ffffffffffffffffffffffffffffffffffffffff16815260200190815260200160002060008781526020019081526020016000206040518060600160405290816000820160009054906101000a900473ffffffffffffffffffffffffffffffffffffffff1673ffffffffffffffffffffffffffffffffffffffff1673ffffffffffffffffffffffffffffffffffffffff1681526020016001820154815260200160028201548152505090506106c860028888610c8a565b600160009054906101000a900473ffffffffffffffffffffffffffffffffffffffff1673ffffffffffffffffffffffffffffffffffffffff166323b872dd333084604001516040518463ffffffff1660e01b815260040161072b93929190611550565b6020604051808303816000875af115801561074a573d6000803e3d6000fd5b505050506040513d601f19601f8201168201806040525081019061076e91906114a6565b508173ffffffffffffffffffffffffffffffffffffffff166342842e0e3033896040518463ffffffff1660e01b81526004016107ac93929190611550565b600060405180830381600087803b1580156107c657600080fd5b505af11580156107da573d6000803e3d6000fd5b50505050600360008873ffffffffffffffffffffffffffffffffffffffff1673ffffffffffffffffffffffffffffffffffffffff1681526020019081526020016000206000878152602001908152602001600020600080820160006101000a81549073ffffffffffffffffffffffffffffffffffffffff02191690556001820160009055600282016000905550503373ffffffffffffffffffffffffffffffffffffffff167fe35677743c6b7abf01cca38cf0f4b986386e50105ec5fd3f42daeea57acf57a9888884604001516040516108b69392919061112f565b60405180910390a250505050505050565b828260008290503373ffffffffffffffffffffffffffffffffffffffff168173ffffffffffffffffffffffffffffffffffffffff16636352211e846040518263ffffffff1660e01b815260040161091e9190611587565b602060405180830381865afa15801561093b573d6000803e3d6000fd5b505050506040513d601f19601f8201168201806040525081019061095f91906115b7565b73ffffffffffffffffffffffffffffffffffffffff16146109b5576040517f08c379a00000000000000000000000000000000000000000000000000000000081526004016109ac90611656565b60405180910390fd5b60008690506000600360008973ffffffffffffffffffffffffffffffffffffffff1673ffffffffffffffffffffffffffffffffffffffff1681526020019081526020016000206000888152602001908152602001600020600201541115610a555786866040517ff6854128000000000000000000000000000000000000000000000000000000008152600401610a4c929190611445565b60405180910390fd5b8073ffffffffffffffffffffffffffffffffffffffff166342842e0e3330896040518463ffffffff1660e01b8152600401610a9293929190611550565b600060405180830381600087803b158015610aac57600080fd5b505af1158015610ac0573d6000803e3d6000fd5b50505050600060405180606001604052808973ffffffffffffffffffffffffffffffffffffffff16815260200188815260200187815250905080600360008a73ffffffffffffffffffffffffffffffffffffffff1673ffffffffffffffffffffffffffffffffffffffff168152602001908152602001600020600089815260200190815260200160002060008201518160000160006101000a81548173ffffffffffffffffffffffffffffffffffffffff021916908373ffffffffffffffffffffffffffffffffffffffff1602179055506020820151816001015560408201518160020155905050600281908060018154018082558091505060019003906000526020600020906003020160009091909190915060008201518160000160006101000a81548173ffffffffffffffffffffffffffffffffffffffff021916908373ffffffffffffffffffffffffffffffffffffffff16021790555060208201518160010155604082015181600201555050868873ffffffffffffffffffffffffffffffffffffffff167f40405dffa400b60b90a33259490fd4b4ca34a6ca7ec47e3d5f9b3bfbc0e7fda888604051610c789190611587565b60405180910390a35050505050505050565b60005b8380549050811015610e83578273ffffffffffffffffffffffffffffffffffffffff16848281548110610cc357610cc2611676565b5b906000526020600020906003020160000160009054906101000a900473ffffffffffffffffffffffffffffffffffffffff1673ffffffffffffffffffffffffffffffffffffffff16148015610d3b575081848281548110610d2757610d26611676565b5b906000526020600020906003020160010154145b15610e76578360018580549050610d5291906116a5565b81548110610d6357610d62611676565b5b9060005260206000209060030201848281548110610d8457610d83611676565b5b90600052602060002090600302016000820160009054906101000a900473ffffffffffffffffffffffffffffffffffffffff168160000160006101000a81548173ffffffffffffffffffffffffffffffffffffffff021916908373ffffffffffffffffffffffffffffffffffffffff160217905550600182015481600101556002820154816002015590505083805480610e2157610e206116d9565b5b6001900381819060005260206000209060030201600080820160006101000a81549073ffffffffffffffffffffffffffffffffffffffff02191690556001820160009055600282016000905550509055610e83565b8080600101915050610c8d565b50505050565b600073ffffffffffffffffffffffffffffffffffffffff82169050919050565b6000819050919050565b6000610ece610ec9610ec484610e89565b610ea9565b610e89565b9050919050565b6000610ee082610eb3565b9050919050565b6000610ef282610ed5565b9050919050565b610f0281610ee7565b82525050565b6000602082019050610f1d6000830184610ef9565b92915050565b600080fd5b600080fd5b6000610f3882610e89565b9050919050565b610f4881610f2d565b8114610f5357600080fd5b50565b600081359050610f6581610f3f565b92915050565b6000819050919050565b610f7e81610f6b565b8114610f8957600080fd5b50565b600081359050610f9b81610f75565b92915050565b600080fd5b600080fd5b600080fd5b60008083601f840112610fc657610fc5610fa1565b5b8235905067ffffffffffffffff811115610fe357610fe2610fa6565b5b602083019150836001820283011115610fff57610ffe610fab565b5b9250929050565b60008060008060006080868803121561102257611021610f23565b5b600061103088828901610f56565b955050602061104188828901610f56565b945050604061105288828901610f8c565b935050606086013567ffffffffffffffff81111561107357611072610f28565b5b61107f88828901610fb0565b92509250509295509295909350565b60007fffffffff0000000000000000000000000000000000000000000000000000000082169050919050565b6110c38161108e565b82525050565b60006020820190506110de60008301846110ba565b92915050565b6000602082840312156110fa576110f9610f23565b5b600061110884828501610f8c565b91505092915050565b61111a81610f2d565b82525050565b61112981610f6b565b82525050565b60006060820190506111446000830186611111565b6111516020830185611120565b61115e6040830184611120565b949350505050565b60008060006060848603121561117f5761117e610f23565b5b600061118d86828701610f56565b935050602061119e86828701610f8c565b92505060406111af86828701610f8c565b9150509250925092565b600080604083850312156111d0576111cf610f23565b5b60006111de85828601610f56565b92505060206111ef85828601610f8c565b9150509250929050565b600081519050919050565b600082825260208201905092915050565b6000819050602082019050919050565b61122e81610f2d565b82525050565b61123d81610f6b565b82525050565b6060820160008201516112596000850182611225565b50602082015161126c6020850182611234565b50604082015161127f6040850182611234565b50505050565b60006112918383611243565b60608301905092915050565b6000602082019050919050565b60006112b5826111f9565b6112bf8185611204565b93506112ca83611215565b8060005b838110156112fb5781516112e28882611285565b97506112ed8361129d565b9250506001810190506112ce565b5085935050505092915050565b6000604082019050818103600083015261132281856112aa565b90506113316020830184611120565b9392505050565b600061134382610ed5565b9050919050565b61135381611338565b82525050565b600060208201905061136e600083018461134a565b92915050565b7f4e487b7100000000000000000000000000000000000000000000000000000000600052601160045260246000fd5b60006113ae82610f6b565b91506113b983610f6b565b92508282026113c781610f6b565b915082820484148315176113de576113dd611374565b5b5092915050565b7f4e487b7100000000000000000000000000000000000000000000000000000000600052601260045260246000fd5b600061141f82610f6b565b915061142a83610f6b565b92508261143a576114396113e5565b5b828204905092915050565b600060408201905061145a6000830185611111565b6114676020830184611120565b9392505050565b60008115159050919050565b6114838161146e565b811461148e57600080fd5b50565b6000815190506114a08161147a565b92915050565b6000602082840312156114bc576114bb610f23565b5b60006114ca84828501611491565b91505092915050565b600082825260208201905092915050565b7f43757272656e74204e465420686173206e6f206c697374656421000000000000600082015250565b600061151a601a836114d3565b9150611525826114e4565b602082019050919050565b600060208201905081810360008301526115498161150d565b9050919050565b60006060820190506115656000830186611111565b6115726020830185611111565b61157f6040830184611120565b949350505050565b600060208201905061159c6000830184611120565b92915050565b6000815190506115b181610f3f565b92915050565b6000602082840312156115cd576115cc610f23565b5b60006115db848285016115a2565b91505092915050565b7f54686973204e4654206973206e6f742062656c6f6e6720746f2063757272656e60008201527f7420616464726573732100000000000000000000000000000000000000000000602082015250565b6000611640602a836114d3565b915061164b826115e4565b604082019050919050565b6000602082019050818103600083015261166f81611633565b9050919050565b7f4e487b7100000000000000000000000000000000000000000000000000000000600052603260045260246000fd5b60006116b082610f6b565b91506116bb83610f6b565b92508282039050818111156116d3576116d2611374565b5b92915050565b7f4e487b7100000000000000000000000000000000000000000000000000000000600052603160045260246000fdfea2646970667358221220528d651a17977eaa9c152939ec7a07991c27e6b0624b337b753a6c0c8fab0c5264736f6c63430008180033",
  "linkReferences": {},
  "deployedLinkReferences": {}
}