{
  "_format": "hh-sol-artifact-1",
  "contractName": "JuryNFTSwap",
  "sourceName": "contracts/JuryNFTSwap.sol",
  "abi": [
    {
      "inputs": [
        {
          "internalType": "address",
          "name": "_melonNFTAddr",
          "type": "address"
        }
      ],
      "stateMutability": "nonpayable",
      "type": "constructor"
    },
    {
      "inputs": [
        {
          "internalType": "uint256",
          "name": "tokenId",
          "type": "uint256"
        }
      ],
      "name": "AlreadyListed",
      "type": "error"
    },
    {
      "inputs": [
        {
          "internalType": "address",
          "name": "user",
          "type": "address"
        },
        {
          "internalType": "uint256",
          "name": "holdAmount",
          "type": "uint256"
        }
      ],
      "name": "MaximumNumberOfHoldings",
      "type": "error"
    },
    {
      "inputs": [
        {
          "internalType": "uint256",
          "name": "tokenId",
          "type": "uint256"
        }
      ],
      "name": "NotListed",
      "type": "error"
    },
    {
      "inputs": [
        {
          "internalType": "address",
          "name": "user",
          "type": "address"
        },
        {
          "internalType": "uint256",
          "name": "tokenId",
          "type": "uint256"
        }
      ],
      "name": "NotNFTOwner",
      "type": "error"
    },
    {
      "inputs": [
        {
          "internalType": "address",
          "name": "NFTAddr",
          "type": "address"
        },
        {
          "internalType": "uint256",
          "name": "tokenId",
          "type": "uint256"
        },
        {
          "internalType": "uint256",
          "name": "redemptionTime",
          "type": "uint256"
        }
      ],
      "name": "RedemptionTimeNotReached",
      "type": "error"
    },
    {
      "anonymous": false,
      "inputs": [
        {
          "indexed": true,
          "internalType": "address",
          "name": "user",
          "type": "address"
        },
        {
          "indexed": false,
          "internalType": "uint256",
          "name": "pledgeAmount",
          "type": "uint256"
        }
      ],
      "name": "ApplyStartUpNFT",
      "type": "event"
    },
    {
      "anonymous": false,
      "inputs": [
        {
          "indexed": true,
          "internalType": "address",
          "name": "buyer",
          "type": "address"
        },
        {
          "indexed": false,
          "internalType": "uint256",
          "name": "tokenId",
          "type": "uint256"
        },
        {
          "indexed": false,
          "internalType": "uint256",
          "name": "price",
          "type": "uint256"
        }
      ],
      "name": "BuyNFT",
      "type": "event"
    },
    {
      "anonymous": false,
      "inputs": [
        {
          "indexed": true,
          "internalType": "uint256",
          "name": "tokenId",
          "type": "uint256"
        },
        {
          "indexed": false,
          "internalType": "uint256",
          "name": "price",
          "type": "uint256"
        }
      ],
      "name": "HangOut",
      "type": "event"
    },
    {
      "anonymous": false,
      "inputs": [
        {
          "indexed": true,
          "internalType": "address",
          "name": "previousOwner",
          "type": "address"
        },
        {
          "indexed": true,
          "internalType": "address",
          "name": "newOwner",
          "type": "address"
        }
      ],
      "name": "OwnershipTransferred",
      "type": "event"
    },
    {
      "anonymous": false,
      "inputs": [
        {
          "indexed": true,
          "internalType": "address",
          "name": "redeemer",
          "type": "address"
        },
        {
          "indexed": false,
          "internalType": "uint256",
          "name": "tokenId",
          "type": "uint256"
        },
        {
          "indexed": false,
          "internalType": "uint256",
          "name": "redeemPrice",
          "type": "uint256"
        }
      ],
      "name": "Redeem",
      "type": "event"
    },
    {
      "anonymous": false,
      "inputs": [
        {
          "indexed": true,
          "internalType": "address",
          "name": "buyer",
          "type": "address"
        },
        {
          "indexed": false,
          "internalType": "uint256",
          "name": "tokenId",
          "type": "uint256"
        },
        {
          "indexed": false,
          "internalType": "uint256",
          "name": "price",
          "type": "uint256"
        }
      ],
      "name": "StartUpNFTSending",
      "type": "event"
    },
    {
      "inputs": [
        {
          "internalType": "uint256",
          "name": "pledgeAmount",
          "type": "uint256"
        }
      ],
      "name": "applyStartUpNFT",
      "outputs": [],
      "stateMutability": "nonpayable",
      "type": "function"
    },
    {
      "inputs": [
        {
          "internalType": "uint256",
          "name": "",
          "type": "uint256"
        }
      ],
      "name": "applyStartUpNFTInfos",
      "outputs": [
        {
          "internalType": "uint256",
          "name": "pledgeAmount",
          "type": "uint256"
        },
        {
          "internalType": "address",
          "name": "user",
          "type": "address"
        }
      ],
      "stateMutability": "view",
      "type": "function"
    },
    {
      "inputs": [
        {
          "internalType": "address[]",
          "name": "users",
          "type": "address[]"
        },
        {
          "internalType": "uint256[]",
          "name": "tokenIds",
          "type": "uint256[]"
        }
      ],
      "name": "distributeStartUpNFT",
      "outputs": [],
      "stateMutability": "nonpayable",
      "type": "function"
    },
    {
      "inputs": [],
      "name": "getAllListing",
      "outputs": [
        {
          "components": [
            {
              "internalType": "uint256",
              "name": "tokenId",
              "type": "uint256"
            },
            {
              "internalType": "uint256",
              "name": "price",
              "type": "uint256"
            },
            {
              "internalType": "string",
              "name": "uri",
              "type": "string"
            },
            {
              "internalType": "uint256",
              "name": "acquisitionTime",
              "type": "uint256"
            }
          ],
          "internalType": "struct JuryNFTSwap.Info[]",
          "name": "",
          "type": "tuple[]"
        },
        {
          "internalType": "uint256",
          "name": "",
          "type": "uint256"
        }
      ],
      "stateMutability": "view",
      "type": "function"
    },
    {
      "inputs": [],
      "name": "getApplyStartUpNFTInfos",
      "outputs": [
        {
          "components": [
            {
              "internalType": "uint256",
              "name": "pledgeAmount",
              "type": "uint256"
            },
            {
              "internalType": "address",
              "name": "user",
              "type": "address"
            }
          ],
          "internalType": "struct JuryNFTSwap.ApplyStartUpNFTInfo[]",
          "name": "",
          "type": "tuple[]"
        }
      ],
      "stateMutability": "view",
      "type": "function"
    },
    {
      "inputs": [
        {
          "internalType": "address",
          "name": "user",
          "type": "address"
        }
      ],
      "name": "getUserPurchasedNFTDetails",
      "outputs": [
        {
          "components": [
            {
              "internalType": "uint256",
              "name": "tokenId",
              "type": "uint256"
            },
            {
              "internalType": "uint256",
              "name": "price",
              "type": "uint256"
            },
            {
              "internalType": "string",
              "name": "uri",
              "type": "string"
            },
            {
              "internalType": "uint256",
              "name": "acquisitionTime",
              "type": "uint256"
            }
          ],
          "internalType": "struct JuryNFTSwap.Info[]",
          "name": "",
          "type": "tuple[]"
        }
      ],
      "stateMutability": "view",
      "type": "function"
    },
    {
      "inputs": [
        {
          "internalType": "uint256",
          "name": "",
          "type": "uint256"
        }
      ],
      "name": "infoByTokenId",
      "outputs": [
        {
          "internalType": "uint256",
          "name": "tokenId",
          "type": "uint256"
        },
        {
          "internalType": "uint256",
          "name": "price",
          "type": "uint256"
        },
        {
          "internalType": "string",
          "name": "uri",
          "type": "string"
        },
        {
          "internalType": "uint256",
          "name": "acquisitionTime",
          "type": "uint256"
        }
      ],
      "stateMutability": "view",
      "type": "function"
    },
    {
      "inputs": [
        {
          "internalType": "uint256",
          "name": "",
          "type": "uint256"
        }
      ],
      "name": "infos",
      "outputs": [
        {
          "internalType": "uint256",
          "name": "tokenId",
          "type": "uint256"
        },
        {
          "internalType": "uint256",
          "name": "price",
          "type": "uint256"
        },
        {
          "internalType": "string",
          "name": "uri",
          "type": "string"
        },
        {
          "internalType": "uint256",
          "name": "acquisitionTime",
          "type": "uint256"
        }
      ],
      "stateMutability": "view",
      "type": "function"
    },
    {
      "inputs": [
        {
          "internalType": "uint256",
          "name": "tokenId",
          "type": "uint256"
        },
        {
          "internalType": "uint256",
          "name": "price",
          "type": "uint256"
        }
      ],
      "name": "initialNFTHangOut",
      "outputs": [],
      "stateMutability": "nonpayable",
      "type": "function"
    },
    {
      "inputs": [],
      "name": "melonNFT",
      "outputs": [
        {
          "internalType": "contract MelonNFT",
          "name": "",
          "type": "address"
        }
      ],
      "stateMutability": "view",
      "type": "function"
    },
    {
      "inputs": [
        {
          "internalType": "address",
          "name": "",
          "type": "address"
        }
      ],
      "name": "nftLock",
      "outputs": [
        {
          "internalType": "uint256",
          "name": "",
          "type": "uint256"
        }
      ],
      "stateMutability": "view",
      "type": "function"
    },
    {
      "inputs": [
        {
          "internalType": "address",
          "name": "operator",
          "type": "address"
        },
        {
          "internalType": "address",
          "name": "from",
          "type": "address"
        },
        {
          "internalType": "uint256",
          "name": "tokenId",
          "type": "uint256"
        },
        {
          "internalType": "bytes",
          "name": "data",
          "type": "bytes"
        }
      ],
      "name": "onERC721Received",
      "outputs": [
        {
          "internalType": "bytes4",
          "name": "",
          "type": "bytes4"
        }
      ],
      "stateMutability": "pure",
      "type": "function"
    },
    {
      "inputs": [],
      "name": "owner",
      "outputs": [
        {
          "internalType": "address",
          "name": "",
          "type": "address"
        }
      ],
      "stateMutability": "view",
      "type": "function"
    },
    {
      "inputs": [
        {
          "internalType": "uint256",
          "name": "tokenId",
          "type": "uint256"
        },
        {
          "internalType": "contract Proposal",
          "name": "proposal",
          "type": "address"
        }
      ],
      "name": "purchaseCommonNFT",
      "outputs": [],
      "stateMutability": "nonpayable",
      "type": "function"
    },
    {
      "inputs": [
        {
          "internalType": "uint256",
          "name": "tokenId",
          "type": "uint256"
        },
        {
          "internalType": "uint256",
          "name": "price",
          "type": "uint256"
        }
      ],
      "name": "redeem",
      "outputs": [],
      "stateMutability": "nonpayable",
      "type": "function"
    },
    {
      "inputs": [],
      "name": "renounceOwnership",
      "outputs": [],
      "stateMutability": "nonpayable",
      "type": "function"
    },
    {
      "inputs": [
        {
          "internalType": "address",
          "name": "newOwner",
          "type": "address"
        }
      ],
      "name": "transferOwnership",
      "outputs": [],
      "stateMutability": "nonpayable",
      "type": "function"
    },
    {
      "inputs": [
        {
          "internalType": "address",
          "name": "",
          "type": "address"
        },
        {
          "internalType": "uint256",
          "name": "",
          "type": "uint256"
        }
      ],
      "name": "userPurchasedNFTs",
      "outputs": [
        {
          "internalType": "uint256",
          "name": "tokenId",
          "type": "uint256"
        },
        {
          "internalType": "uint256",
          "name": "price",
          "type": "uint256"
        },
        {
          "internalType": "string",
          "name": "uri",
          "type": "string"
        },
        {
          "internalType": "uint256",
          "name": "acquisitionTime",
          "type": "uint256"
        }
      ],
      "stateMutability": "view",
      "type": "function"
    }
  ],
  "bytecode": "0x60806040523480156200001157600080fd5b5060405162003590380380620035908339818101604052810190620000379190620001d5565b620000576200004b6200009f60201b60201c565b620000a760201b60201c565b80600160006101000a81548173ffffffffffffffffffffffffffffffffffffffff021916908373ffffffffffffffffffffffffffffffffffffffff1602179055505062000207565b600033905090565b60008060009054906101000a900473ffffffffffffffffffffffffffffffffffffffff169050816000806101000a81548173ffffffffffffffffffffffffffffffffffffffff021916908373ffffffffffffffffffffffffffffffffffffffff1602179055508173ffffffffffffffffffffffffffffffffffffffff168173ffffffffffffffffffffffffffffffffffffffff167f8be0079c531659141344cd1fd0a4f28419497f9722a3daafe3b4186f6b6457e060405160405180910390a35050565b600080fd5b600073ffffffffffffffffffffffffffffffffffffffff82169050919050565b60006200019d8262000170565b9050919050565b620001af8162000190565b8114620001bb57600080fd5b50565b600081519050620001cf81620001a4565b92915050565b600060208284031215620001ee57620001ed6200016b565b5b6000620001fe84828501620001be565b91505092915050565b61337980620002176000396000f3fe608060405234801561001057600080fd5b50600436106101165760003560e01c80637cbc2373116100a2578063cb5b7d3411610071578063cb5b7d34146102e6578063d86a507514610319578063dd9e3e4f14610335578063f2fde38b14610351578063f73eaa911461036d57610116565b80637cbc2373146102605780638da5cb5b1461027c5780639f4556d41461029a578063bc93d0e0146102ca57610116565b806331c0e04b116100e957806331c0e04b146101cd578063467efe5a146101fd5780634a1f22c81461021c5780634f7fc7dd1461023a578063715018a61461025657610116565b80630a2d5c9f1461011b578063150b7a021461014c5780631b02e2d61461017c57806328de3c9b1461019a575b600080fd5b61013560048036038101906101309190611fbe565b6103a0565b60405161014392919061203b565b60405180910390f35b610166600480360381019061016191906120f5565b6103f4565b60405161017391906121b8565b60405180910390f35b610184610409565b6040516101919190612232565b60405180910390f35b6101b460048036038101906101af9190611fbe565b61042f565b6040516101c494939291906122dd565b60405180910390f35b6101e760048036038101906101e29190612329565b6104f7565b6040516101f491906124d4565b60405180910390f35b610205610645565b6040516102139291906124f6565b60405180910390f35b610224610761565b6040516102319190612613565b60405180910390f35b610254600480360381019061024f9190612635565b610820565b005b61025e610be9565b005b61027a60048036038101906102759190612635565b610bfd565b005b610284611044565b6040516102919190612675565b60405180910390f35b6102b460048036038101906102af9190612329565b61106d565b6040516102c19190612690565b60405180910390f35b6102e460048036038101906102df91906126e9565b611085565b005b61030060048036038101906102fb9190611fbe565b61159e565b60405161031094939291906122dd565b60405180910390f35b610333600480360381019061032e919061292a565b611656565b005b61034f600480360381019061034a9190611fbe565b611941565b005b61036b60048036038101906103669190612329565b611a7f565b005b610387600480360381019061038291906129a2565b611b02565b60405161039794939291906122dd565b60405180910390f35b600381815481106103b057600080fd5b90600052602060002090600202016000915090508060000154908060010160009054906101000a900473ffffffffffffffffffffffffffffffffffffffff16905082565b600063150b7a0260e01b905095945050505050565b600160009054906101000a900473ffffffffffffffffffffffffffffffffffffffff1681565b6002818154811061043f57600080fd5b906000526020600020906004020160009150905080600001549080600101549080600201805461046e90612a11565b80601f016020809104026020016040519081016040528092919081815260200182805461049a90612a11565b80156104e75780601f106104bc576101008083540402835291602001916104e7565b820191906000526020600020905b8154815290600101906020018083116104ca57829003601f168201915b5050505050908060030154905084565b6060600660008373ffffffffffffffffffffffffffffffffffffffff1673ffffffffffffffffffffffffffffffffffffffff168152602001908152602001600020805480602002602001604051908101604052809291908181526020016000905b8282101561063a5783829060005260206000209060040201604051806080016040529081600082015481526020016001820154815260200160028201805461059f90612a11565b80601f01602080910402602001604051908101604052809291908181526020018280546105cb90612a11565b80156106185780601f106105ed57610100808354040283529160200191610618565b820191906000526020600020905b8154815290600101906020018083116105fb57829003601f168201915b5050505050815260200160038201548152505081526020019060010190610558565b505050509050919050565b606060006002808054905081805480602002602001604051908101604052809291908181526020016000905b82821015610753578382906000526020600020906004020160405180608001604052908160008201548152602001600182015481526020016002820180546106b890612a11565b80601f01602080910402602001604051908101604052809291908181526020018280546106e490612a11565b80156107315780601f1061070657610100808354040283529160200191610731565b820191906000526020600020905b81548152906001019060200180831161071457829003601f168201915b5050505050815260200160038201548152505081526020019060010190610671565b505050509150915091509091565b60606003805480602002602001604051908101604052809291908181526020016000905b828210156108175783829060005260206000209060020201604051806040016040529081600082015481526020016001820160009054906101000a900473ffffffffffffffffffffffffffffffffffffffff1673ffffffffffffffffffffffffffffffffffffffff1673ffffffffffffffffffffffffffffffffffffffff168152505081526020019060010190610785565b50505050905090565b33828173ffffffffffffffffffffffffffffffffffffffff16600160009054906101000a900473ffffffffffffffffffffffffffffffffffffffff1673ffffffffffffffffffffffffffffffffffffffff16636352211e836040518263ffffffff1660e01b81526004016108949190612690565b602060405180830381865afa1580156108b1573d6000803e3d6000fd5b505050506040513d601f19601f820116820180604052508101906108d59190612a57565b73ffffffffffffffffffffffffffffffffffffffff161461092f5781816040517f21e303dc000000000000000000000000000000000000000000000000000000008152600401610926929190612a84565b60405180910390fd5b83600060056000838152602001908152602001600020600201805461095390612a11565b9050111561099857806040517f7fbcdff900000000000000000000000000000000000000000000000000000000815260040161098f9190612690565b60405180910390fd5b6109a0611bd7565b600160009054906101000a900473ffffffffffffffffffffffffffffffffffffffff1673ffffffffffffffffffffffffffffffffffffffff166342842e0e3330886040518463ffffffff1660e01b81526004016109ff93929190612aad565b600060405180830381600087803b158015610a1957600080fd5b505af1158015610a2d573d6000803e3d6000fd5b505050506000600160009054906101000a900473ffffffffffffffffffffffffffffffffffffffff1673ffffffffffffffffffffffffffffffffffffffff1663c87b56dd876040518263ffffffff1660e01b8152600401610a8e9190612690565b600060405180830381865afa158015610aab573d6000803e3d6000fd5b505050506040513d6000823e3d601f19601f82011682018060405250810190610ad49190612b8a565b905060006040518060800160405280888152602001878152602001838152602001428152509050600281908060018154018082558091505060019003906000526020600020906004020160009091909190915060008201518160000155602082015181600101556040820151816002019081610b509190612d75565b50606082015181600301555050806005600089815260200190815260200160002060008201518160000155602082015181600101556040820151816002019081610b9a9190612d75565b5060608201518160030155905050867fac040a3669b42aba8178c26fbd2fd6a5148e4e5434c9ce01dcb0144e45fc73dc87604051610bd89190612690565b60405180910390a250505050505050565b610bf1611bd7565b610bfb6000611c55565b565b33828173ffffffffffffffffffffffffffffffffffffffff16600160009054906101000a900473ffffffffffffffffffffffffffffffffffffffff1673ffffffffffffffffffffffffffffffffffffffff16636352211e836040518263ffffffff1660e01b8152600401610c719190612690565b602060405180830381865afa158015610c8e573d6000803e3d6000fd5b505050506040513d601f19601f82011682018060405250810190610cb29190612a57565b73ffffffffffffffffffffffffffffffffffffffff1614610d0c5781816040517f21e303dc000000000000000000000000000000000000000000000000000000008152600401610d03929190612a84565b60405180910390fd5b836000600560008381526020019081526020016000206002018054610d3090612a11565b90501115610d7557806040517f7fbcdff9000000000000000000000000000000000000000000000000000000008152600401610d6c9190612690565b60405180910390fd5b600160009054906101000a900473ffffffffffffffffffffffffffffffffffffffff1673ffffffffffffffffffffffffffffffffffffffff166342842e0e3330886040518463ffffffff1660e01b8152600401610dd493929190612aad565b600060405180830381600087803b158015610dee57600080fd5b505af1158015610e02573d6000803e3d6000fd5b505050506000600160009054906101000a900473ffffffffffffffffffffffffffffffffffffffff1673ffffffffffffffffffffffffffffffffffffffff1663c87b56dd876040518263ffffffff1660e01b8152600401610e639190612690565b600060405180830381865afa158015610e80573d6000803e3d6000fd5b505050506040513d6000823e3d601f19601f82011682018060405250810190610ea99190612b8a565b905060006040518060800160405280888152602001878152602001838152602001428152509050600281908060018154018082558091505060019003906000526020600020906004020160009091909190915060008201518160000155602082015181600101556040820151816002019081610f259190612d75565b50606082015181600301555050806005600089815260200190815260200160002060008201518160000155602082015181600101556040820151816002019081610f6f9190612d75565b50606082015181600301559050506064606287610f8c9190612e76565b610f969190612ee7565b600460003373ffffffffffffffffffffffffffffffffffffffff1673ffffffffffffffffffffffffffffffffffffffff1681526020019081526020016000206000828254610fe49190612f18565b925050819055503373ffffffffffffffffffffffffffffffffffffffff167fe5b754fb1abb7f01b499791d0b820ae3b6af3424ac1c59768edb53f4ec31a9298888604051611033929190612f4c565b60405180910390a250505050505050565b60008060009054906101000a900473ffffffffffffffffffffffffffffffffffffffff16905090565b60046020528060005260406000206000915090505481565b8160006005600083815260200190815260200160002060020180546110a990612a11565b9050036110ed57806040517fd176cea00000000000000000000000000000000000000000000000000000000081526004016110e49190612690565b60405180910390fd5b6000600160009054906101000a900473ffffffffffffffffffffffffffffffffffffffff1673ffffffffffffffffffffffffffffffffffffffff166370a08231336040518263ffffffff1660e01b815260040161114a9190612675565b602060405180830381865afa158015611167573d6000803e3d6000fd5b505050506040513d601f19601f8201168201806040525081019061118b9190612f8a565b9050600381106111d45733816040517f8c13eb060000000000000000000000000000000000000000000000000000000081526004016111cb929190612a84565b60405180910390fd5b600060056000868152602001908152602001600020604051806080016040529081600082015481526020016001820154815260200160028201805461121890612a11565b80601f016020809104026020016040519081016040528092919081815260200182805461124490612a11565b80156112915780601f1061126657610100808354040283529160200191611291565b820191906000526020600020905b81548152906001019060200180831161127457829003601f168201915b50505050508152602001600382015481525050905080602001518473ffffffffffffffffffffffffffffffffffffffff16636c24a76f336040518263ffffffff1660e01b81526004016112e49190612675565b602060405180830381865afa158015611301573d6000803e3d6000fd5b505050506040513d601f19601f820116820180604052508101906113259190612f8a565b1015611366576040517f08c379a000000000000000000000000000000000000000000000000000000000815260040161135d90613003565b60405180910390fd5b8060200151600460003373ffffffffffffffffffffffffffffffffffffffff1673ffffffffffffffffffffffffffffffffffffffff16815260200190815260200160002060008282546113b99190613023565b92505081905550600160009054906101000a900473ffffffffffffffffffffffffffffffffffffffff1673ffffffffffffffffffffffffffffffffffffffff166342842e0e3033886040518463ffffffff1660e01b815260040161141f93929190612aad565b600060405180830381600087803b15801561143957600080fd5b505af115801561144d573d6000803e3d6000fd5b5050505042816060018181525050600660003373ffffffffffffffffffffffffffffffffffffffff1673ffffffffffffffffffffffffffffffffffffffff168152602001908152602001600020819080600181540180825580915050600190039060005260206000209060040201600090919091909150600082015181600001556020820151816001015560408201518160020190816114ed9190612d75565b50606082015181600301555050611505600286611d19565b6005600086815260200190815260200160002060008082016000905560018201600090556002820160006115399190611f17565b600382016000905550503373ffffffffffffffffffffffffffffffffffffffff167f5d963241241cfe9e161d13500d628058954b3febfde03e4b1f4071370e72fe2b86836020015160405161158f929190612f4c565b60405180910390a25050505050565b60056020528060005260406000206000915090508060000154908060010154908060020180546115cd90612a11565b80601f01602080910402602001604051908101604052809291908181526020018280546115f990612a11565b80156116465780601f1061161b57610100808354040283529160200191611646565b820191906000526020600020905b81548152906001019060200180831161162957829003601f168201915b5050505050908060030154905084565b61165e611bd7565b80518251146116a2576040517f08c379a0000000000000000000000000000000000000000000000000000000008152600401611699906130c9565b60405180910390fd5b6116aa611e44565b60005b825181101561193c5760008382815181106116cb576116ca6130e9565b5b6020026020010151905060008383815181106116ea576116e96130e9565b5b602002602001015190506000600560008381526020019081526020016000209050600081600201805461171c90612a11565b90500361176057816040517fd176cea00000000000000000000000000000000000000000000000000000000081526004016117579190612690565b60405180910390fd5b600160009054906101000a900473ffffffffffffffffffffffffffffffffffffffff1673ffffffffffffffffffffffffffffffffffffffff166342842e0e3085856040518463ffffffff1660e01b81526004016117bf93929190612aad565b600060405180830381600087803b1580156117d957600080fd5b505af11580156117ed573d6000803e3d6000fd5b505050506005600083815260200190815260200160002060008082016000905560018201600090556002820160006118259190611f17565b60038201600090555050600660008473ffffffffffffffffffffffffffffffffffffffff1673ffffffffffffffffffffffffffffffffffffffff1681526020019081526020016000208190806001815401808255809150506001900390600052602060002090600402016000909190919091506000820154816000015560018201548160010155600282018160020190816118c0919061312e565b506003820154816003015550506118d8600283611d19565b8273ffffffffffffffffffffffffffffffffffffffff167fde4f139185ace785cbf7e66c8f61847efcaa12e5e37cf3372124403285b25d87838360010154604051611924929190612f4c565b60405180910390a250505080806001019150506116ad565b505050565b600360405180604001604052808381526020013373ffffffffffffffffffffffffffffffffffffffff1681525090806001815401808255809150506001900390600052602060002090600202016000909190919091506000820151816000015560208201518160010160006101000a81548173ffffffffffffffffffffffffffffffffffffffff021916908373ffffffffffffffffffffffffffffffffffffffff160217905550505080600460003373ffffffffffffffffffffffffffffffffffffffff1673ffffffffffffffffffffffffffffffffffffffff168152602001908152602001600020819055503373ffffffffffffffffffffffffffffffffffffffff167faaccb5079b09d65c6aa24582254eac44247c4e6602012d625bb3c944075d5c6c82604051611a749190612690565b60405180910390a250565b611a87611bd7565b600073ffffffffffffffffffffffffffffffffffffffff168173ffffffffffffffffffffffffffffffffffffffff1603611af6576040517f08c379a0000000000000000000000000000000000000000000000000000000008152600401611aed90613288565b60405180910390fd5b611aff81611c55565b50565b60066020528160005260406000208181548110611b1e57600080fd5b906000526020600020906004020160009150915050806000015490806001015490806002018054611b4e90612a11565b80601f0160208091040260200160405190810160405280929190818152602001828054611b7a90612a11565b8015611bc75780601f10611b9c57610100808354040283529160200191611bc7565b820191906000526020600020905b815481529060010190602001808311611baa57829003601f168201915b5050505050908060030154905084565b611bdf611f0f565b73ffffffffffffffffffffffffffffffffffffffff16611bfd611044565b73ffffffffffffffffffffffffffffffffffffffff1614611c53576040517f08c379a0000000000000000000000000000000000000000000000000000000008152600401611c4a906132f4565b60405180910390fd5b565b60008060009054906101000a900473ffffffffffffffffffffffffffffffffffffffff169050816000806101000a81548173ffffffffffffffffffffffffffffffffffffffff021916908373ffffffffffffffffffffffffffffffffffffffff1602179055508173ffffffffffffffffffffffffffffffffffffffff168173ffffffffffffffffffffffffffffffffffffffff167f8be0079c531659141344cd1fd0a4f28419497f9722a3daafe3b4186f6b6457e060405160405180910390a35050565b60005b8280549050811015611e3f5781838281548110611d3c57611d3b6130e9565b5b90600052602060002090600402016000015403611e32578260018480549050611d659190612f18565b81548110611d7657611d756130e9565b5b9060005260206000209060040201838281548110611d9757611d966130e9565b5b9060005260206000209060040201600082015481600001556001820154816001015560028201816002019081611dcd919061312e565b506003820154816003015590505082805480611dec57611deb613314565b5b60019003818190600052602060002090600402016000808201600090556001820160009055600282016000611e219190611f17565b600382016000905550509055611e3f565b8080600101915050611d1c565b505050565b6000600380549050905060005b81811015611f0b57600060038281548110611e6f57611e6e6130e9565b5b906000526020600020906002020190508060000154600460008360010160009054906101000a900473ffffffffffffffffffffffffffffffffffffffff1673ffffffffffffffffffffffffffffffffffffffff1673ffffffffffffffffffffffffffffffffffffffff1681526020019081526020016000206000828254611ef69190612f18565b92505081905550508080600101915050611e51565b5050565b600033905090565b508054611f2390612a11565b6000825580601f10611f355750611f54565b601f016020900490600052602060002090810190611f539190611f57565b5b50565b5b80821115611f70576000816000905550600101611f58565b5090565b6000604051905090565b600080fd5b600080fd5b6000819050919050565b611f9b81611f88565b8114611fa657600080fd5b50565b600081359050611fb881611f92565b92915050565b600060208284031215611fd457611fd3611f7e565b5b6000611fe284828501611fa9565b91505092915050565b611ff481611f88565b82525050565b600073ffffffffffffffffffffffffffffffffffffffff82169050919050565b600061202582611ffa565b9050919050565b6120358161201a565b82525050565b60006040820190506120506000830185611feb565b61205d602083018461202c565b9392505050565b61206d8161201a565b811461207857600080fd5b50565b60008135905061208a81612064565b92915050565b600080fd5b600080fd5b600080fd5b60008083601f8401126120b5576120b4612090565b5b8235905067ffffffffffffffff8111156120d2576120d1612095565b5b6020830191508360018202830111156120ee576120ed61209a565b5b9250929050565b60008060008060006080868803121561211157612110611f7e565b5b600061211f8882890161207b565b95505060206121308882890161207b565b945050604061214188828901611fa9565b935050606086013567ffffffffffffffff81111561216257612161611f83565b5b61216e8882890161209f565b92509250509295509295909350565b60007fffffffff0000000000000000000000000000000000000000000000000000000082169050919050565b6121b28161217d565b82525050565b60006020820190506121cd60008301846121a9565b92915050565b6000819050919050565b60006121f86121f36121ee84611ffa565b6121d3565b611ffa565b9050919050565b600061220a826121dd565b9050919050565b600061221c826121ff565b9050919050565b61222c81612211565b82525050565b60006020820190506122476000830184612223565b92915050565b600081519050919050565b600082825260208201905092915050565b60005b8381101561228757808201518184015260208101905061226c565b60008484015250505050565b6000601f19601f8301169050919050565b60006122af8261224d565b6122b98185612258565b93506122c9818560208601612269565b6122d281612293565b840191505092915050565b60006080820190506122f26000830187611feb565b6122ff6020830186611feb565b818103604083015261231181856122a4565b90506123206060830184611feb565b95945050505050565b60006020828403121561233f5761233e611f7e565b5b600061234d8482850161207b565b91505092915050565b600081519050919050565b600082825260208201905092915050565b6000819050602082019050919050565b61238b81611f88565b82525050565b600082825260208201905092915050565b60006123ad8261224d565b6123b78185612391565b93506123c7818560208601612269565b6123d081612293565b840191505092915050565b60006080830160008301516123f36000860182612382565b5060208301516124066020860182612382565b506040830151848203604086015261241e82826123a2565b91505060608301516124336060860182612382565b508091505092915050565b600061244a83836123db565b905092915050565b6000602082019050919050565b600061246a82612356565b6124748185612361565b93508360208202850161248685612372565b8060005b858110156124c257848403895281516124a3858261243e565b94506124ae83612452565b925060208a0199505060018101905061248a565b50829750879550505050505092915050565b600060208201905081810360008301526124ee818461245f565b905092915050565b60006040820190508181036000830152612510818561245f565b905061251f6020830184611feb565b9392505050565b600081519050919050565b600082825260208201905092915050565b6000819050602082019050919050565b61255b8161201a565b82525050565b6040820160008201516125776000850182612382565b50602082015161258a6020850182612552565b50505050565b600061259c8383612561565b60408301905092915050565b6000602082019050919050565b60006125c082612526565b6125ca8185612531565b93506125d583612542565b8060005b838110156126065781516125ed8882612590565b97506125f8836125a8565b9250506001810190506125d9565b5085935050505092915050565b6000602082019050818103600083015261262d81846125b5565b905092915050565b6000806040838503121561264c5761264b611f7e565b5b600061265a85828601611fa9565b925050602061266b85828601611fa9565b9150509250929050565b600060208201905061268a600083018461202c565b92915050565b60006020820190506126a56000830184611feb565b92915050565b60006126b68261201a565b9050919050565b6126c6816126ab565b81146126d157600080fd5b50565b6000813590506126e3816126bd565b92915050565b60008060408385031215612700576126ff611f7e565b5b600061270e85828601611fa9565b925050602061271f858286016126d4565b9150509250929050565b7f4e487b7100000000000000000000000000000000000000000000000000000000600052604160045260246000fd5b61276182612293565b810181811067ffffffffffffffff821117156127805761277f612729565b5b80604052505050565b6000612793611f74565b905061279f8282612758565b919050565b600067ffffffffffffffff8211156127bf576127be612729565b5b602082029050602081019050919050565b60006127e36127de846127a4565b612789565b905080838252602082019050602084028301858111156128065761280561209a565b5b835b8181101561282f578061281b888261207b565b845260208401935050602081019050612808565b5050509392505050565b600082601f83011261284e5761284d612090565b5b813561285e8482602086016127d0565b91505092915050565b600067ffffffffffffffff82111561288257612881612729565b5b602082029050602081019050919050565b60006128a66128a184612867565b612789565b905080838252602082019050602084028301858111156128c9576128c861209a565b5b835b818110156128f257806128de8882611fa9565b8452602084019350506020810190506128cb565b5050509392505050565b600082601f83011261291157612910612090565b5b8135612921848260208601612893565b91505092915050565b6000806040838503121561294157612940611f7e565b5b600083013567ffffffffffffffff81111561295f5761295e611f83565b5b61296b85828601612839565b925050602083013567ffffffffffffffff81111561298c5761298b611f83565b5b612998858286016128fc565b9150509250929050565b600080604083850312156129b9576129b8611f7e565b5b60006129c78582860161207b565b92505060206129d885828601611fa9565b9150509250929050565b7f4e487b7100000000000000000000000000000000000000000000000000000000600052602260045260246000fd5b60006002820490506001821680612a2957607f821691505b602082108103612a3c57612a3b6129e2565b5b50919050565b600081519050612a5181612064565b92915050565b600060208284031215612a6d57612a6c611f7e565b5b6000612a7b84828501612a42565b91505092915050565b6000604082019050612a99600083018561202c565b612aa66020830184611feb565b9392505050565b6000606082019050612ac2600083018661202c565b612acf602083018561202c565b612adc6040830184611feb565b949350505050565b600080fd5b600067ffffffffffffffff821115612b0457612b03612729565b5b612b0d82612293565b9050602081019050919050565b6000612b2d612b2884612ae9565b612789565b905082815260208101848484011115612b4957612b48612ae4565b5b612b54848285612269565b509392505050565b600082601f830112612b7157612b70612090565b5b8151612b81848260208601612b1a565b91505092915050565b600060208284031215612ba057612b9f611f7e565b5b600082015167ffffffffffffffff811115612bbe57612bbd611f83565b5b612bca84828501612b5c565b91505092915050565b60008190508160005260206000209050919050565b60006020601f8301049050919050565b600082821b905092915050565b600060088302612c357fffffffffffffffffffffffffffffffffffffffffffffffffffffffffffffffff82612bf8565b612c3f8683612bf8565b95508019841693508086168417925050509392505050565b6000612c72612c6d612c6884611f88565b6121d3565b611f88565b9050919050565b6000819050919050565b612c8c83612c57565b612ca0612c9882612c79565b848454612c05565b825550505050565b600090565b612cb5612ca8565b612cc0818484612c83565b505050565b5b81811015612ce457612cd9600082612cad565b600181019050612cc6565b5050565b601f821115612d2957612cfa81612bd3565b612d0384612be8565b81016020851015612d12578190505b612d26612d1e85612be8565b830182612cc5565b50505b505050565b600082821c905092915050565b6000612d4c60001984600802612d2e565b1980831691505092915050565b6000612d658383612d3b565b9150826002028217905092915050565b612d7e8261224d565b67ffffffffffffffff811115612d9757612d96612729565b5b612da18254612a11565b612dac828285612ce8565b600060209050601f831160018114612ddf5760008415612dcd578287015190505b612dd78582612d59565b865550612e3f565b601f198416612ded86612bd3565b60005b82811015612e1557848901518255600182019150602085019450602081019050612df0565b86831015612e325784890151612e2e601f891682612d3b565b8355505b6001600288020188555050505b505050505050565b7f4e487b7100000000000000000000000000000000000000000000000000000000600052601160045260246000fd5b6000612e8182611f88565b9150612e8c83611f88565b9250828202612e9a81611f88565b91508282048414831517612eb157612eb0612e47565b5b5092915050565b7f4e487b7100000000000000000000000000000000000000000000000000000000600052601260045260246000fd5b6000612ef282611f88565b9150612efd83611f88565b925082612f0d57612f0c612eb8565b5b828204905092915050565b6000612f2382611f88565b9150612f2e83611f88565b9250828203905081811115612f4657612f45612e47565b5b92915050565b6000604082019050612f616000830185611feb565b612f6e6020830184611feb565b9392505050565b600081519050612f8481611f92565b92915050565b600060208284031215612fa057612f9f611f7e565b5b6000612fae84828501612f75565b91505092915050565b7f496e73756666696369656e742062616c616e6365000000000000000000000000600082015250565b6000612fed601483612258565b9150612ff882612fb7565b602082019050919050565b6000602082019050818103600083015261301c81612fe0565b9050919050565b600061302e82611f88565b915061303983611f88565b925082820190508082111561305157613050612e47565b5b92915050565b7f557365727320616e6420746f6b656e496473206172726179206c656e6774687360008201527f206d757374206d61746368000000000000000000000000000000000000000000602082015250565b60006130b3602b83612258565b91506130be82613057565b604082019050919050565b600060208201905081810360008301526130e2816130a6565b9050919050565b7f4e487b7100000000000000000000000000000000000000000000000000000000600052603260045260246000fd5b60008154905061312781612a11565b9050919050565b81810361313c575050613214565b61314582613118565b67ffffffffffffffff81111561315e5761315d612729565b5b6131688254612a11565b613173828285612ce8565b6000601f8311600181146131a25760008415613190578287015490505b61319a8582612d59565b86555061320d565b601f1984166131b087612bd3565b96506131bb86612bd3565b60005b828110156131e3578489015482556001820191506001850194506020810190506131be565b8683101561320057848901546131fc601f891682612d3b565b8355505b6001600288020188555050505b5050505050505b565b7f4f776e61626c653a206e6577206f776e657220697320746865207a65726f206160008201527f6464726573730000000000000000000000000000000000000000000000000000602082015250565b6000613272602683612258565b915061327d82613216565b604082019050919050565b600060208201905081810360008301526132a181613265565b9050919050565b7f4f776e61626c653a2063616c6c6572206973206e6f7420746865206f776e6572600082015250565b60006132de602083612258565b91506132e9826132a8565b602082019050919050565b6000602082019050818103600083015261330d816132d1565b9050919050565b7f4e487b7100000000000000000000000000000000000000000000000000000000600052603160045260246000fdfea2646970667358221220623f1191d3ec223a83b053f619966cdb408f28b06d28d426c8ea0c34e4ebfa7d64736f6c63430008180033",
  "linkReferences": {},
  "deployedLinkReferences": {}
}