{
  "_format": "hh-sol-artifact-1",
  "contractName": "JuryNFTSwap",
  "sourceName": "contracts/JuryNFTSwap.sol",
  "abi": [
    {
      "inputs": [
        {
          "internalType": "address",
          "name": "_melonNFTAddr",
          "type": "address"
        }
      ],
      "stateMutability": "nonpayable",
      "type": "constructor"
    },
    {
      "inputs": [
        {
          "internalType": "uint256",
          "name": "tokenId",
          "type": "uint256"
        }
      ],
      "name": "AlreadyListed",
      "type": "error"
    },
    {
      "inputs": [
        {
          "internalType": "address",
          "name": "user",
          "type": "address"
        },
        {
          "internalType": "uint256",
          "name": "holdAmount",
          "type": "uint256"
        }
      ],
      "name": "MaximumNumberOfHoldings",
      "type": "error"
    },
    {
      "inputs": [
        {
          "internalType": "uint256",
          "name": "tokenId",
          "type": "uint256"
        }
      ],
      "name": "NotListed",
      "type": "error"
    },
    {
      "inputs": [
        {
          "internalType": "address",
          "name": "user",
          "type": "address"
        },
        {
          "internalType": "uint256",
          "name": "tokenId",
          "type": "uint256"
        }
      ],
      "name": "NotNFTOwner",
      "type": "error"
    },
    {
      "inputs": [
        {
          "internalType": "address",
          "name": "NFTAddr",
          "type": "address"
        },
        {
          "internalType": "uint256",
          "name": "tokenId",
          "type": "uint256"
        },
        {
          "internalType": "uint256",
          "name": "redemptionTime",
          "type": "uint256"
        }
      ],
      "name": "RedemptionTimeNotReached",
      "type": "error"
    },
    {
      "anonymous": false,
      "inputs": [
        {
          "indexed": true,
          "internalType": "address",
          "name": "user",
          "type": "address"
        },
        {
          "indexed": false,
          "internalType": "uint256",
          "name": "pledgeAmount",
          "type": "uint256"
        }
      ],
      "name": "ApplyStartUpNFT",
      "type": "event"
    },
    {
      "anonymous": false,
      "inputs": [
        {
          "indexed": true,
          "internalType": "address",
          "name": "buyer",
          "type": "address"
        },
        {
          "indexed": false,
          "internalType": "uint256",
          "name": "tokenId",
          "type": "uint256"
        },
        {
          "indexed": false,
          "internalType": "uint256",
          "name": "price",
          "type": "uint256"
        }
      ],
      "name": "BuyNFT",
      "type": "event"
    },
    {
      "anonymous": false,
      "inputs": [
        {
          "indexed": true,
          "internalType": "uint256",
          "name": "tokenId",
          "type": "uint256"
        },
        {
          "indexed": false,
          "internalType": "uint256",
          "name": "price",
          "type": "uint256"
        }
      ],
      "name": "HangOut",
      "type": "event"
    },
    {
      "anonymous": false,
      "inputs": [
        {
          "indexed": true,
          "internalType": "address",
          "name": "previousOwner",
          "type": "address"
        },
        {
          "indexed": true,
          "internalType": "address",
          "name": "newOwner",
          "type": "address"
        }
      ],
      "name": "OwnershipTransferred",
      "type": "event"
    },
    {
      "anonymous": false,
      "inputs": [
        {
          "indexed": true,
          "internalType": "address",
          "name": "redeemer",
          "type": "address"
        },
        {
          "indexed": false,
          "internalType": "uint256",
          "name": "tokenId",
          "type": "uint256"
        },
        {
          "indexed": false,
          "internalType": "uint256",
          "name": "redeemPrice",
          "type": "uint256"
        }
      ],
      "name": "Redeem",
      "type": "event"
    },
    {
      "anonymous": false,
      "inputs": [
        {
          "indexed": true,
          "internalType": "address",
          "name": "buyer",
          "type": "address"
        },
        {
          "indexed": false,
          "internalType": "uint256",
          "name": "tokenId",
          "type": "uint256"
        },
        {
          "indexed": false,
          "internalType": "uint256",
          "name": "price",
          "type": "uint256"
        }
      ],
      "name": "StartUpNFTSending",
      "type": "event"
    },
    {
      "inputs": [
        {
          "internalType": "uint256",
          "name": "pledgeAmount",
          "type": "uint256"
        }
      ],
      "name": "applyStartUpNFT",
      "outputs": [],
      "stateMutability": "nonpayable",
      "type": "function"
    },
    {
      "inputs": [
        {
          "internalType": "uint256",
          "name": "",
          "type": "uint256"
        }
      ],
      "name": "applyStartUpNFTInfos",
      "outputs": [
        {
          "internalType": "uint256",
          "name": "pledgeAmount",
          "type": "uint256"
        },
        {
          "internalType": "address",
          "name": "user",
          "type": "address"
        }
      ],
      "stateMutability": "view",
      "type": "function"
    },
    {
      "inputs": [
        {
          "internalType": "address[]",
          "name": "users",
          "type": "address[]"
        },
        {
          "internalType": "uint256[]",
          "name": "tokenIds",
          "type": "uint256[]"
        }
      ],
      "name": "distributeStartUpNFT",
      "outputs": [],
      "stateMutability": "nonpayable",
      "type": "function"
    },
    {
      "inputs": [],
      "name": "getAllListing",
      "outputs": [
        {
          "components": [
            {
              "internalType": "uint256",
              "name": "tokenId",
              "type": "uint256"
            },
            {
              "internalType": "uint256",
              "name": "price",
              "type": "uint256"
            },
            {
              "internalType": "string",
              "name": "uri",
              "type": "string"
            },
            {
              "internalType": "uint256",
              "name": "acquisitionTime",
              "type": "uint256"
            }
          ],
          "internalType": "struct JuryNFTSwap.Info[]",
          "name": "",
          "type": "tuple[]"
        },
        {
          "internalType": "uint256",
          "name": "",
          "type": "uint256"
        }
      ],
      "stateMutability": "view",
      "type": "function"
    },
    {
      "inputs": [
        {
          "internalType": "address",
          "name": "user",
          "type": "address"
        }
      ],
      "name": "getUserPurchasedNFTDetails",
      "outputs": [
        {
          "components": [
            {
              "internalType": "uint256",
              "name": "tokenId",
              "type": "uint256"
            },
            {
              "internalType": "uint256",
              "name": "price",
              "type": "uint256"
            },
            {
              "internalType": "string",
              "name": "uri",
              "type": "string"
            },
            {
              "internalType": "uint256",
              "name": "acquisitionTime",
              "type": "uint256"
            }
          ],
          "internalType": "struct JuryNFTSwap.Info[]",
          "name": "",
          "type": "tuple[]"
        }
      ],
      "stateMutability": "view",
      "type": "function"
    },
    {
      "inputs": [
        {
          "internalType": "uint256",
          "name": "",
          "type": "uint256"
        }
      ],
      "name": "infoByTokenId",
      "outputs": [
        {
          "internalType": "uint256",
          "name": "tokenId",
          "type": "uint256"
        },
        {
          "internalType": "uint256",
          "name": "price",
          "type": "uint256"
        },
        {
          "internalType": "string",
          "name": "uri",
          "type": "string"
        },
        {
          "internalType": "uint256",
          "name": "acquisitionTime",
          "type": "uint256"
        }
      ],
      "stateMutability": "view",
      "type": "function"
    },
    {
      "inputs": [
        {
          "internalType": "uint256",
          "name": "",
          "type": "uint256"
        }
      ],
      "name": "infos",
      "outputs": [
        {
          "internalType": "uint256",
          "name": "tokenId",
          "type": "uint256"
        },
        {
          "internalType": "uint256",
          "name": "price",
          "type": "uint256"
        },
        {
          "internalType": "string",
          "name": "uri",
          "type": "string"
        },
        {
          "internalType": "uint256",
          "name": "acquisitionTime",
          "type": "uint256"
        }
      ],
      "stateMutability": "view",
      "type": "function"
    },
    {
      "inputs": [
        {
          "internalType": "uint256",
          "name": "tokenId",
          "type": "uint256"
        },
        {
          "internalType": "uint256",
          "name": "price",
          "type": "uint256"
        }
      ],
      "name": "initialNFTHangOut",
      "outputs": [],
      "stateMutability": "nonpayable",
      "type": "function"
    },
    {
      "inputs": [],
      "name": "melonNFT",
      "outputs": [
        {
          "internalType": "contract MelonNFT",
          "name": "",
          "type": "address"
        }
      ],
      "stateMutability": "view",
      "type": "function"
    },
    {
      "inputs": [
        {
          "internalType": "address",
          "name": "",
          "type": "address"
        }
      ],
      "name": "nftLock",
      "outputs": [
        {
          "internalType": "uint256",
          "name": "",
          "type": "uint256"
        }
      ],
      "stateMutability": "view",
      "type": "function"
    },
    {
      "inputs": [
        {
          "internalType": "address",
          "name": "operator",
          "type": "address"
        },
        {
          "internalType": "address",
          "name": "from",
          "type": "address"
        },
        {
          "internalType": "uint256",
          "name": "tokenId",
          "type": "uint256"
        },
        {
          "internalType": "bytes",
          "name": "data",
          "type": "bytes"
        }
      ],
      "name": "onERC721Received",
      "outputs": [
        {
          "internalType": "bytes4",
          "name": "",
          "type": "bytes4"
        }
      ],
      "stateMutability": "pure",
      "type": "function"
    },
    {
      "inputs": [],
      "name": "owner",
      "outputs": [
        {
          "internalType": "address",
          "name": "",
          "type": "address"
        }
      ],
      "stateMutability": "view",
      "type": "function"
    },
    {
      "inputs": [
        {
          "internalType": "uint256",
          "name": "tokenId",
          "type": "uint256"
        },
        {
          "internalType": "contract Proposal",
          "name": "proposal",
          "type": "address"
        }
      ],
      "name": "purchaseCommonNFT",
      "outputs": [],
      "stateMutability": "nonpayable",
      "type": "function"
    },
    {
      "inputs": [
        {
          "internalType": "uint256",
          "name": "tokenId",
          "type": "uint256"
        },
        {
          "internalType": "uint256",
          "name": "price",
          "type": "uint256"
        }
      ],
      "name": "redeem",
      "outputs": [],
      "stateMutability": "nonpayable",
      "type": "function"
    },
    {
      "inputs": [],
      "name": "renounceOwnership",
      "outputs": [],
      "stateMutability": "nonpayable",
      "type": "function"
    },
    {
      "inputs": [
        {
          "internalType": "address",
          "name": "newOwner",
          "type": "address"
        }
      ],
      "name": "transferOwnership",
      "outputs": [],
      "stateMutability": "nonpayable",
      "type": "function"
    },
    {
      "inputs": [
        {
          "internalType": "address",
          "name": "",
          "type": "address"
        },
        {
          "internalType": "uint256",
          "name": "",
          "type": "uint256"
        }
      ],
      "name": "userPurchasedNFTs",
      "outputs": [
        {
          "internalType": "uint256",
          "name": "tokenId",
          "type": "uint256"
        },
        {
          "internalType": "uint256",
          "name": "price",
          "type": "uint256"
        },
        {
          "internalType": "string",
          "name": "uri",
          "type": "string"
        },
        {
          "internalType": "uint256",
          "name": "acquisitionTime",
          "type": "uint256"
        }
      ],
      "stateMutability": "view",
      "type": "function"
    }
  ],
  "bytecode": "0x60806040523480156200001157600080fd5b5060405162003399380380620033998339818101604052810190620000379190620001d5565b620000576200004b6200009f60201b60201c565b620000a760201b60201c565b80600160006101000a81548173ffffffffffffffffffffffffffffffffffffffff021916908373ffffffffffffffffffffffffffffffffffffffff1602179055505062000207565b600033905090565b60008060009054906101000a900473ffffffffffffffffffffffffffffffffffffffff169050816000806101000a81548173ffffffffffffffffffffffffffffffffffffffff021916908373ffffffffffffffffffffffffffffffffffffffff1602179055508173ffffffffffffffffffffffffffffffffffffffff168173ffffffffffffffffffffffffffffffffffffffff167f8be0079c531659141344cd1fd0a4f28419497f9722a3daafe3b4186f6b6457e060405160405180910390a35050565b600080fd5b600073ffffffffffffffffffffffffffffffffffffffff82169050919050565b60006200019d8262000170565b9050919050565b620001af8162000190565b8114620001bb57600080fd5b50565b600081519050620001cf81620001a4565b92915050565b600060208284031215620001ee57620001ed6200016b565b5b6000620001fe84828501620001be565b91505092915050565b61318280620002176000396000f3fe608060405234801561001057600080fd5b506004361061010b5760003560e01c80637cbc2373116100a2578063cb5b7d3411610071578063cb5b7d34146102bd578063d86a5075146102f0578063dd9e3e4f1461030c578063f2fde38b14610328578063f73eaa91146103445761010b565b80637cbc2373146102375780638da5cb5b146102535780639f4556d414610271578063bc93d0e0146102a15761010b565b806331c0e04b116100de57806331c0e04b146101c2578063467efe5a146101f25780634f7fc7dd14610211578063715018a61461022d5761010b565b80630a2d5c9f14610110578063150b7a02146101415780631b02e2d61461017157806328de3c9b1461018f575b600080fd5b61012a60048036038101906101259190611ed6565b610377565b604051610138929190611f53565b60405180910390f35b61015b6004803603810190610156919061200d565b6103cb565b60405161016891906120d0565b60405180910390f35b6101796103e0565b604051610186919061214a565b60405180910390f35b6101a960048036038101906101a49190611ed6565b610406565b6040516101b994939291906121f5565b60405180910390f35b6101dc60048036038101906101d79190612241565b6104ce565b6040516101e991906123ec565b60405180910390f35b6101fa61061c565b60405161020892919061240e565b60405180910390f35b61022b6004803603810190610226919061243e565b610738565b005b610235610b01565b005b610251600480360381019061024c919061243e565b610b15565b005b61025b610f5c565b604051610268919061247e565b60405180910390f35b61028b60048036038101906102869190612241565b610f85565b6040516102989190612499565b60405180910390f35b6102bb60048036038101906102b691906124f2565b610f9d565b005b6102d760048036038101906102d29190611ed6565b6114b6565b6040516102e794939291906121f5565b60405180910390f35b61030a60048036038101906103059190612733565b61156e565b005b61032660048036038101906103219190611ed6565b611859565b005b610342600480360381019061033d9190612241565b611997565b005b61035e600480360381019061035991906127ab565b611a1a565b60405161036e94939291906121f5565b60405180910390f35b6003818154811061038757600080fd5b90600052602060002090600202016000915090508060000154908060010160009054906101000a900473ffffffffffffffffffffffffffffffffffffffff16905082565b600063150b7a0260e01b905095945050505050565b600160009054906101000a900473ffffffffffffffffffffffffffffffffffffffff1681565b6002818154811061041657600080fd5b90600052602060002090600402016000915090508060000154908060010154908060020180546104459061281a565b80601f01602080910402602001604051908101604052809291908181526020018280546104719061281a565b80156104be5780601f10610493576101008083540402835291602001916104be565b820191906000526020600020905b8154815290600101906020018083116104a157829003601f168201915b5050505050908060030154905084565b6060600660008373ffffffffffffffffffffffffffffffffffffffff1673ffffffffffffffffffffffffffffffffffffffff168152602001908152602001600020805480602002602001604051908101604052809291908181526020016000905b82821015610611578382906000526020600020906004020160405180608001604052908160008201548152602001600182015481526020016002820180546105769061281a565b80601f01602080910402602001604051908101604052809291908181526020018280546105a29061281a565b80156105ef5780601f106105c4576101008083540402835291602001916105ef565b820191906000526020600020905b8154815290600101906020018083116105d257829003601f168201915b505050505081526020016003820154815250508152602001906001019061052f565b505050509050919050565b606060006002808054905081805480602002602001604051908101604052809291908181526020016000905b8282101561072a5783829060005260206000209060040201604051806080016040529081600082015481526020016001820154815260200160028201805461068f9061281a565b80601f01602080910402602001604051908101604052809291908181526020018280546106bb9061281a565b80156107085780601f106106dd57610100808354040283529160200191610708565b820191906000526020600020905b8154815290600101906020018083116106eb57829003601f168201915b5050505050815260200160038201548152505081526020019060010190610648565b505050509150915091509091565b33828173ffffffffffffffffffffffffffffffffffffffff16600160009054906101000a900473ffffffffffffffffffffffffffffffffffffffff1673ffffffffffffffffffffffffffffffffffffffff16636352211e836040518263ffffffff1660e01b81526004016107ac9190612499565b602060405180830381865afa1580156107c9573d6000803e3d6000fd5b505050506040513d601f19601f820116820180604052508101906107ed9190612860565b73ffffffffffffffffffffffffffffffffffffffff16146108475781816040517f21e303dc00000000000000000000000000000000000000000000000000000000815260040161083e92919061288d565b60405180910390fd5b83600060056000838152602001908152602001600020600201805461086b9061281a565b905011156108b057806040517f7fbcdff90000000000000000000000000000000000000000000000000000000081526004016108a79190612499565b60405180910390fd5b6108b8611aef565b600160009054906101000a900473ffffffffffffffffffffffffffffffffffffffff1673ffffffffffffffffffffffffffffffffffffffff166342842e0e3330886040518463ffffffff1660e01b8152600401610917939291906128b6565b600060405180830381600087803b15801561093157600080fd5b505af1158015610945573d6000803e3d6000fd5b505050506000600160009054906101000a900473ffffffffffffffffffffffffffffffffffffffff1673ffffffffffffffffffffffffffffffffffffffff1663c87b56dd876040518263ffffffff1660e01b81526004016109a69190612499565b600060405180830381865afa1580156109c3573d6000803e3d6000fd5b505050506040513d6000823e3d601f19601f820116820180604052508101906109ec9190612993565b905060006040518060800160405280888152602001878152602001838152602001428152509050600281908060018154018082558091505060019003906000526020600020906004020160009091909190915060008201518160000155602082015181600101556040820151816002019081610a689190612b7e565b50606082015181600301555050806005600089815260200190815260200160002060008201518160000155602082015181600101556040820151816002019081610ab29190612b7e565b5060608201518160030155905050867fac040a3669b42aba8178c26fbd2fd6a5148e4e5434c9ce01dcb0144e45fc73dc87604051610af09190612499565b60405180910390a250505050505050565b610b09611aef565b610b136000611b6d565b565b33828173ffffffffffffffffffffffffffffffffffffffff16600160009054906101000a900473ffffffffffffffffffffffffffffffffffffffff1673ffffffffffffffffffffffffffffffffffffffff16636352211e836040518263ffffffff1660e01b8152600401610b899190612499565b602060405180830381865afa158015610ba6573d6000803e3d6000fd5b505050506040513d601f19601f82011682018060405250810190610bca9190612860565b73ffffffffffffffffffffffffffffffffffffffff1614610c245781816040517f21e303dc000000000000000000000000000000000000000000000000000000008152600401610c1b92919061288d565b60405180910390fd5b836000600560008381526020019081526020016000206002018054610c489061281a565b90501115610c8d57806040517f7fbcdff9000000000000000000000000000000000000000000000000000000008152600401610c849190612499565b60405180910390fd5b600160009054906101000a900473ffffffffffffffffffffffffffffffffffffffff1673ffffffffffffffffffffffffffffffffffffffff166342842e0e3330886040518463ffffffff1660e01b8152600401610cec939291906128b6565b600060405180830381600087803b158015610d0657600080fd5b505af1158015610d1a573d6000803e3d6000fd5b505050506000600160009054906101000a900473ffffffffffffffffffffffffffffffffffffffff1673ffffffffffffffffffffffffffffffffffffffff1663c87b56dd876040518263ffffffff1660e01b8152600401610d7b9190612499565b600060405180830381865afa158015610d98573d6000803e3d6000fd5b505050506040513d6000823e3d601f19601f82011682018060405250810190610dc19190612993565b905060006040518060800160405280888152602001878152602001838152602001428152509050600281908060018154018082558091505060019003906000526020600020906004020160009091909190915060008201518160000155602082015181600101556040820151816002019081610e3d9190612b7e565b50606082015181600301555050806005600089815260200190815260200160002060008201518160000155602082015181600101556040820151816002019081610e879190612b7e565b50606082015181600301559050506064606287610ea49190612c7f565b610eae9190612cf0565b600460003373ffffffffffffffffffffffffffffffffffffffff1673ffffffffffffffffffffffffffffffffffffffff1681526020019081526020016000206000828254610efc9190612d21565b925050819055503373ffffffffffffffffffffffffffffffffffffffff167fe5b754fb1abb7f01b499791d0b820ae3b6af3424ac1c59768edb53f4ec31a9298888604051610f4b929190612d55565b60405180910390a250505050505050565b60008060009054906101000a900473ffffffffffffffffffffffffffffffffffffffff16905090565b60046020528060005260406000206000915090505481565b816000600560008381526020019081526020016000206002018054610fc19061281a565b90500361100557806040517fd176cea0000000000000000000000000000000000000000000000000000000008152600401610ffc9190612499565b60405180910390fd5b6000600160009054906101000a900473ffffffffffffffffffffffffffffffffffffffff1673ffffffffffffffffffffffffffffffffffffffff166370a08231336040518263ffffffff1660e01b8152600401611062919061247e565b602060405180830381865afa15801561107f573d6000803e3d6000fd5b505050506040513d601f19601f820116820180604052508101906110a39190612d93565b9050600381106110ec5733816040517f8c13eb060000000000000000000000000000000000000000000000000000000081526004016110e392919061288d565b60405180910390fd5b60006005600086815260200190815260200160002060405180608001604052908160008201548152602001600182015481526020016002820180546111309061281a565b80601f016020809104026020016040519081016040528092919081815260200182805461115c9061281a565b80156111a95780601f1061117e576101008083540402835291602001916111a9565b820191906000526020600020905b81548152906001019060200180831161118c57829003601f168201915b50505050508152602001600382015481525050905080602001518473ffffffffffffffffffffffffffffffffffffffff16636c24a76f336040518263ffffffff1660e01b81526004016111fc919061247e565b602060405180830381865afa158015611219573d6000803e3d6000fd5b505050506040513d601f19601f8201168201806040525081019061123d9190612d93565b101561127e576040517f08c379a000000000000000000000000000000000000000000000000000000000815260040161127590612e0c565b60405180910390fd5b8060200151600460003373ffffffffffffffffffffffffffffffffffffffff1673ffffffffffffffffffffffffffffffffffffffff16815260200190815260200160002060008282546112d19190612e2c565b92505081905550600160009054906101000a900473ffffffffffffffffffffffffffffffffffffffff1673ffffffffffffffffffffffffffffffffffffffff166342842e0e3033886040518463ffffffff1660e01b8152600401611337939291906128b6565b600060405180830381600087803b15801561135157600080fd5b505af1158015611365573d6000803e3d6000fd5b5050505042816060018181525050600660003373ffffffffffffffffffffffffffffffffffffffff1673ffffffffffffffffffffffffffffffffffffffff168152602001908152602001600020819080600181540180825580915050600190039060005260206000209060040201600090919091909150600082015181600001556020820151816001015560408201518160020190816114059190612b7e565b5060608201518160030155505061141d600286611c31565b6005600086815260200190815260200160002060008082016000905560018201600090556002820160006114519190611e2f565b600382016000905550503373ffffffffffffffffffffffffffffffffffffffff167f5d963241241cfe9e161d13500d628058954b3febfde03e4b1f4071370e72fe2b8683602001516040516114a7929190612d55565b60405180910390a25050505050565b60056020528060005260406000206000915090508060000154908060010154908060020180546114e59061281a565b80601f01602080910402602001604051908101604052809291908181526020018280546115119061281a565b801561155e5780601f106115335761010080835404028352916020019161155e565b820191906000526020600020905b81548152906001019060200180831161154157829003601f168201915b5050505050908060030154905084565b611576611aef565b80518251146115ba576040517f08c379a00000000000000000000000000000000000000000000000000000000081526004016115b190612ed2565b60405180910390fd5b6115c2611d5c565b60005b82518110156118545760008382815181106115e3576115e2612ef2565b5b60200260200101519050600083838151811061160257611601612ef2565b5b60200260200101519050600060056000838152602001908152602001600020905060008160020180546116349061281a565b90500361167857816040517fd176cea000000000000000000000000000000000000000000000000000000000815260040161166f9190612499565b60405180910390fd5b600160009054906101000a900473ffffffffffffffffffffffffffffffffffffffff1673ffffffffffffffffffffffffffffffffffffffff166342842e0e3085856040518463ffffffff1660e01b81526004016116d7939291906128b6565b600060405180830381600087803b1580156116f157600080fd5b505af1158015611705573d6000803e3d6000fd5b5050505060056000838152602001908152602001600020600080820160009055600182016000905560028201600061173d9190611e2f565b60038201600090555050600660008473ffffffffffffffffffffffffffffffffffffffff1673ffffffffffffffffffffffffffffffffffffffff1681526020019081526020016000208190806001815401808255809150506001900390600052602060002090600402016000909190919091506000820154816000015560018201548160010155600282018160020190816117d89190612f37565b506003820154816003015550506117f0600283611c31565b8273ffffffffffffffffffffffffffffffffffffffff167fde4f139185ace785cbf7e66c8f61847efcaa12e5e37cf3372124403285b25d8783836001015460405161183c929190612d55565b60405180910390a250505080806001019150506115c5565b505050565b600360405180604001604052808381526020013373ffffffffffffffffffffffffffffffffffffffff1681525090806001815401808255809150506001900390600052602060002090600202016000909190919091506000820151816000015560208201518160010160006101000a81548173ffffffffffffffffffffffffffffffffffffffff021916908373ffffffffffffffffffffffffffffffffffffffff160217905550505080600460003373ffffffffffffffffffffffffffffffffffffffff1673ffffffffffffffffffffffffffffffffffffffff168152602001908152602001600020819055503373ffffffffffffffffffffffffffffffffffffffff167faaccb5079b09d65c6aa24582254eac44247c4e6602012d625bb3c944075d5c6c8260405161198c9190612499565b60405180910390a250565b61199f611aef565b600073ffffffffffffffffffffffffffffffffffffffff168173ffffffffffffffffffffffffffffffffffffffff1603611a0e576040517f08c379a0000000000000000000000000000000000000000000000000000000008152600401611a0590613091565b60405180910390fd5b611a1781611b6d565b50565b60066020528160005260406000208181548110611a3657600080fd5b906000526020600020906004020160009150915050806000015490806001015490806002018054611a669061281a565b80601f0160208091040260200160405190810160405280929190818152602001828054611a929061281a565b8015611adf5780601f10611ab457610100808354040283529160200191611adf565b820191906000526020600020905b815481529060010190602001808311611ac257829003601f168201915b5050505050908060030154905084565b611af7611e27565b73ffffffffffffffffffffffffffffffffffffffff16611b15610f5c565b73ffffffffffffffffffffffffffffffffffffffff1614611b6b576040517f08c379a0000000000000000000000000000000000000000000000000000000008152600401611b62906130fd565b60405180910390fd5b565b60008060009054906101000a900473ffffffffffffffffffffffffffffffffffffffff169050816000806101000a81548173ffffffffffffffffffffffffffffffffffffffff021916908373ffffffffffffffffffffffffffffffffffffffff1602179055508173ffffffffffffffffffffffffffffffffffffffff168173ffffffffffffffffffffffffffffffffffffffff167f8be0079c531659141344cd1fd0a4f28419497f9722a3daafe3b4186f6b6457e060405160405180910390a35050565b60005b8280549050811015611d575781838281548110611c5457611c53612ef2565b5b90600052602060002090600402016000015403611d4a578260018480549050611c7d9190612d21565b81548110611c8e57611c8d612ef2565b5b9060005260206000209060040201838281548110611caf57611cae612ef2565b5b9060005260206000209060040201600082015481600001556001820154816001015560028201816002019081611ce59190612f37565b506003820154816003015590505082805480611d0457611d0361311d565b5b60019003818190600052602060002090600402016000808201600090556001820160009055600282016000611d399190611e2f565b600382016000905550509055611d57565b8080600101915050611c34565b505050565b6000600380549050905060005b81811015611e2357600060038281548110611d8757611d86612ef2565b5b906000526020600020906002020190508060000154600460008360010160009054906101000a900473ffffffffffffffffffffffffffffffffffffffff1673ffffffffffffffffffffffffffffffffffffffff1673ffffffffffffffffffffffffffffffffffffffff1681526020019081526020016000206000828254611e0e9190612d21565b92505081905550508080600101915050611d69565b5050565b600033905090565b508054611e3b9061281a565b6000825580601f10611e4d5750611e6c565b601f016020900490600052602060002090810190611e6b9190611e6f565b5b50565b5b80821115611e88576000816000905550600101611e70565b5090565b6000604051905090565b600080fd5b600080fd5b6000819050919050565b611eb381611ea0565b8114611ebe57600080fd5b50565b600081359050611ed081611eaa565b92915050565b600060208284031215611eec57611eeb611e96565b5b6000611efa84828501611ec1565b91505092915050565b611f0c81611ea0565b82525050565b600073ffffffffffffffffffffffffffffffffffffffff82169050919050565b6000611f3d82611f12565b9050919050565b611f4d81611f32565b82525050565b6000604082019050611f686000830185611f03565b611f756020830184611f44565b9392505050565b611f8581611f32565b8114611f9057600080fd5b50565b600081359050611fa281611f7c565b92915050565b600080fd5b600080fd5b600080fd5b60008083601f840112611fcd57611fcc611fa8565b5b8235905067ffffffffffffffff811115611fea57611fe9611fad565b5b60208301915083600182028301111561200657612005611fb2565b5b9250929050565b60008060008060006080868803121561202957612028611e96565b5b600061203788828901611f93565b955050602061204888828901611f93565b945050604061205988828901611ec1565b935050606086013567ffffffffffffffff81111561207a57612079611e9b565b5b61208688828901611fb7565b92509250509295509295909350565b60007fffffffff0000000000000000000000000000000000000000000000000000000082169050919050565b6120ca81612095565b82525050565b60006020820190506120e560008301846120c1565b92915050565b6000819050919050565b600061211061210b61210684611f12565b6120eb565b611f12565b9050919050565b6000612122826120f5565b9050919050565b600061213482612117565b9050919050565b61214481612129565b82525050565b600060208201905061215f600083018461213b565b92915050565b600081519050919050565b600082825260208201905092915050565b60005b8381101561219f578082015181840152602081019050612184565b60008484015250505050565b6000601f19601f8301169050919050565b60006121c782612165565b6121d18185612170565b93506121e1818560208601612181565b6121ea816121ab565b840191505092915050565b600060808201905061220a6000830187611f03565b6122176020830186611f03565b818103604083015261222981856121bc565b90506122386060830184611f03565b95945050505050565b60006020828403121561225757612256611e96565b5b600061226584828501611f93565b91505092915050565b600081519050919050565b600082825260208201905092915050565b6000819050602082019050919050565b6122a381611ea0565b82525050565b600082825260208201905092915050565b60006122c582612165565b6122cf81856122a9565b93506122df818560208601612181565b6122e8816121ab565b840191505092915050565b600060808301600083015161230b600086018261229a565b50602083015161231e602086018261229a565b506040830151848203604086015261233682826122ba565b915050606083015161234b606086018261229a565b508091505092915050565b600061236283836122f3565b905092915050565b6000602082019050919050565b60006123828261226e565b61238c8185612279565b93508360208202850161239e8561228a565b8060005b858110156123da57848403895281516123bb8582612356565b94506123c68361236a565b925060208a019950506001810190506123a2565b50829750879550505050505092915050565b600060208201905081810360008301526124068184612377565b905092915050565b600060408201905081810360008301526124288185612377565b90506124376020830184611f03565b9392505050565b6000806040838503121561245557612454611e96565b5b600061246385828601611ec1565b925050602061247485828601611ec1565b9150509250929050565b60006020820190506124936000830184611f44565b92915050565b60006020820190506124ae6000830184611f03565b92915050565b60006124bf82611f32565b9050919050565b6124cf816124b4565b81146124da57600080fd5b50565b6000813590506124ec816124c6565b92915050565b6000806040838503121561250957612508611e96565b5b600061251785828601611ec1565b9250506020612528858286016124dd565b9150509250929050565b7f4e487b7100000000000000000000000000000000000000000000000000000000600052604160045260246000fd5b61256a826121ab565b810181811067ffffffffffffffff8211171561258957612588612532565b5b80604052505050565b600061259c611e8c565b90506125a88282612561565b919050565b600067ffffffffffffffff8211156125c8576125c7612532565b5b602082029050602081019050919050565b60006125ec6125e7846125ad565b612592565b9050808382526020820190506020840283018581111561260f5761260e611fb2565b5b835b8181101561263857806126248882611f93565b845260208401935050602081019050612611565b5050509392505050565b600082601f83011261265757612656611fa8565b5b81356126678482602086016125d9565b91505092915050565b600067ffffffffffffffff82111561268b5761268a612532565b5b602082029050602081019050919050565b60006126af6126aa84612670565b612592565b905080838252602082019050602084028301858111156126d2576126d1611fb2565b5b835b818110156126fb57806126e78882611ec1565b8452602084019350506020810190506126d4565b5050509392505050565b600082601f83011261271a57612719611fa8565b5b813561272a84826020860161269c565b91505092915050565b6000806040838503121561274a57612749611e96565b5b600083013567ffffffffffffffff81111561276857612767611e9b565b5b61277485828601612642565b925050602083013567ffffffffffffffff81111561279557612794611e9b565b5b6127a185828601612705565b9150509250929050565b600080604083850312156127c2576127c1611e96565b5b60006127d085828601611f93565b92505060206127e185828601611ec1565b9150509250929050565b7f4e487b7100000000000000000000000000000000000000000000000000000000600052602260045260246000fd5b6000600282049050600182168061283257607f821691505b602082108103612845576128446127eb565b5b50919050565b60008151905061285a81611f7c565b92915050565b60006020828403121561287657612875611e96565b5b60006128848482850161284b565b91505092915050565b60006040820190506128a26000830185611f44565b6128af6020830184611f03565b9392505050565b60006060820190506128cb6000830186611f44565b6128d86020830185611f44565b6128e56040830184611f03565b949350505050565b600080fd5b600067ffffffffffffffff82111561290d5761290c612532565b5b612916826121ab565b9050602081019050919050565b6000612936612931846128f2565b612592565b905082815260208101848484011115612952576129516128ed565b5b61295d848285612181565b509392505050565b600082601f83011261297a57612979611fa8565b5b815161298a848260208601612923565b91505092915050565b6000602082840312156129a9576129a8611e96565b5b600082015167ffffffffffffffff8111156129c7576129c6611e9b565b5b6129d384828501612965565b91505092915050565b60008190508160005260206000209050919050565b60006020601f8301049050919050565b600082821b905092915050565b600060088302612a3e7fffffffffffffffffffffffffffffffffffffffffffffffffffffffffffffffff82612a01565b612a488683612a01565b95508019841693508086168417925050509392505050565b6000612a7b612a76612a7184611ea0565b6120eb565b611ea0565b9050919050565b6000819050919050565b612a9583612a60565b612aa9612aa182612a82565b848454612a0e565b825550505050565b600090565b612abe612ab1565b612ac9818484612a8c565b505050565b5b81811015612aed57612ae2600082612ab6565b600181019050612acf565b5050565b601f821115612b3257612b03816129dc565b612b0c846129f1565b81016020851015612b1b578190505b612b2f612b27856129f1565b830182612ace565b50505b505050565b600082821c905092915050565b6000612b5560001984600802612b37565b1980831691505092915050565b6000612b6e8383612b44565b9150826002028217905092915050565b612b8782612165565b67ffffffffffffffff811115612ba057612b9f612532565b5b612baa825461281a565b612bb5828285612af1565b600060209050601f831160018114612be85760008415612bd6578287015190505b612be08582612b62565b865550612c48565b601f198416612bf6866129dc565b60005b82811015612c1e57848901518255600182019150602085019450602081019050612bf9565b86831015612c3b5784890151612c37601f891682612b44565b8355505b6001600288020188555050505b505050505050565b7f4e487b7100000000000000000000000000000000000000000000000000000000600052601160045260246000fd5b6000612c8a82611ea0565b9150612c9583611ea0565b9250828202612ca381611ea0565b91508282048414831517612cba57612cb9612c50565b5b5092915050565b7f4e487b7100000000000000000000000000000000000000000000000000000000600052601260045260246000fd5b6000612cfb82611ea0565b9150612d0683611ea0565b925082612d1657612d15612cc1565b5b828204905092915050565b6000612d2c82611ea0565b9150612d3783611ea0565b9250828203905081811115612d4f57612d4e612c50565b5b92915050565b6000604082019050612d6a6000830185611f03565b612d776020830184611f03565b9392505050565b600081519050612d8d81611eaa565b92915050565b600060208284031215612da957612da8611e96565b5b6000612db784828501612d7e565b91505092915050565b7f496e73756666696369656e742062616c616e6365000000000000000000000000600082015250565b6000612df6601483612170565b9150612e0182612dc0565b602082019050919050565b60006020820190508181036000830152612e2581612de9565b9050919050565b6000612e3782611ea0565b9150612e4283611ea0565b9250828201905080821115612e5a57612e59612c50565b5b92915050565b7f557365727320616e6420746f6b656e496473206172726179206c656e6774687360008201527f206d757374206d61746368000000000000000000000000000000000000000000602082015250565b6000612ebc602b83612170565b9150612ec782612e60565b604082019050919050565b60006020820190508181036000830152612eeb81612eaf565b9050919050565b7f4e487b7100000000000000000000000000000000000000000000000000000000600052603260045260246000fd5b600081549050612f308161281a565b9050919050565b818103612f4557505061301d565b612f4e82612f21565b67ffffffffffffffff811115612f6757612f66612532565b5b612f71825461281a565b612f7c828285612af1565b6000601f831160018114612fab5760008415612f99578287015490505b612fa38582612b62565b865550613016565b601f198416612fb9876129dc565b9650612fc4866129dc565b60005b82811015612fec57848901548255600182019150600185019450602081019050612fc7565b868310156130095784890154613005601f891682612b44565b8355505b6001600288020188555050505b5050505050505b565b7f4f776e61626c653a206e6577206f776e657220697320746865207a65726f206160008201527f6464726573730000000000000000000000000000000000000000000000000000602082015250565b600061307b602683612170565b91506130868261301f565b604082019050919050565b600060208201905081810360008301526130aa8161306e565b9050919050565b7f4f776e61626c653a2063616c6c6572206973206e6f7420746865206f776e6572600082015250565b60006130e7602083612170565b91506130f2826130b1565b602082019050919050565b60006020820190508181036000830152613116816130da565b9050919050565b7f4e487b7100000000000000000000000000000000000000000000000000000000600052603160045260246000fdfea26469706673582212209f41014061e96a2775c1a701c529246a0c0cbf79435d81eff1d2ac411fecbe8e64736f6c63430008180033",
  "linkReferences": {},
  "deployedLinkReferences": {}
}