{
  "_format": "hh-sol-artifact-1",
  "contractName": "Pledge",
  "sourceName": "contracts/Pledge.sol",
  "abi": [
    {
      "anonymous": false,
      "inputs": [
        {
          "indexed": true,
          "internalType": "address",
          "name": "user",
          "type": "address"
        },
        {
          "indexed": false,
          "internalType": "uint256",
          "name": "deadline",
          "type": "uint256"
        },
        {
          "indexed": false,
          "internalType": "uint256",
          "name": "margins",
          "type": "uint256"
        },
        {
          "indexed": false,
          "internalType": "uint256",
          "name": "amount",
          "type": "uint256"
        }
      ],
      "name": "NewPledge",
      "type": "event"
    },
    {
      "anonymous": false,
      "inputs": [
        {
          "indexed": true,
          "internalType": "address",
          "name": "user",
          "type": "address"
        },
        {
          "indexed": false,
          "internalType": "uint256",
          "name": "principal",
          "type": "uint256"
        },
        {
          "indexed": false,
          "internalType": "uint256",
          "name": "interest",
          "type": "uint256"
        },
        {
          "indexed": false,
          "internalType": "uint256",
          "name": "totalAmount",
          "type": "uint256"
        }
      ],
      "name": "PledgeCleared",
      "type": "event"
    },
    {
      "inputs": [
        {
          "internalType": "address",
          "name": "user",
          "type": "address"
        },
        {
          "internalType": "contract Proposal",
          "name": "proposal",
          "type": "address"
        }
      ],
      "name": "clearPledge",
      "outputs": [],
      "stateMutability": "nonpayable",
      "type": "function"
    },
    {
      "inputs": [
        {
          "internalType": "uint256",
          "name": "deadline",
          "type": "uint256"
        },
        {
          "internalType": "uint256",
          "name": "margins",
          "type": "uint256"
        },
        {
          "internalType": "uint256",
          "name": "amount",
          "type": "uint256"
        }
      ],
      "name": "createPledge",
      "outputs": [],
      "stateMutability": "nonpayable",
      "type": "function"
    },
    {
      "inputs": [],
      "name": "getPledgeStats",
      "outputs": [
        {
          "internalType": "uint256",
          "name": "",
          "type": "uint256"
        },
        {
          "internalType": "uint256",
          "name": "",
          "type": "uint256"
        }
      ],
      "stateMutability": "view",
      "type": "function"
    },
    {
      "inputs": [],
      "name": "getPledges",
      "outputs": [
        {
          "components": [
            {
              "internalType": "uint256",
              "name": "deadline",
              "type": "uint256"
            },
            {
              "internalType": "uint256",
              "name": "margins",
              "type": "uint256"
            },
            {
              "internalType": "uint256",
              "name": "amount",
              "type": "uint256"
            }
          ],
          "internalType": "struct Pledge.PledgeInfo[]",
          "name": "",
          "type": "tuple[]"
        }
      ],
      "stateMutability": "view",
      "type": "function"
    },
    {
      "inputs": [
        {
          "internalType": "address",
          "name": "",
          "type": "address"
        },
        {
          "internalType": "uint256",
          "name": "",
          "type": "uint256"
        }
      ],
      "name": "pledgeInfos",
      "outputs": [
        {
          "internalType": "uint256",
          "name": "deadline",
          "type": "uint256"
        },
        {
          "internalType": "uint256",
          "name": "margins",
          "type": "uint256"
        },
        {
          "internalType": "uint256",
          "name": "amount",
          "type": "uint256"
        }
      ],
      "stateMutability": "view",
      "type": "function"
    },
    {
      "inputs": [
        {
          "internalType": "address",
          "name": "",
          "type": "address"
        }
      ],
      "name": "pledgeLock",
      "outputs": [
        {
          "internalType": "uint256",
          "name": "",
          "type": "uint256"
        }
      ],
      "stateMutability": "view",
      "type": "function"
    },
    {
      "inputs": [],
      "name": "totalPledgedAmount",
      "outputs": [
        {
          "internalType": "uint256",
          "name": "",
          "type": "uint256"
        }
      ],
      "stateMutability": "view",
      "type": "function"
    },
    {
      "inputs": [],
      "name": "totalPledgers",
      "outputs": [
        {
          "internalType": "uint256",
          "name": "",
          "type": "uint256"
        }
      ],
      "stateMutability": "view",
      "type": "function"
    }
  ],
  "bytecode": "0x608060405234801561001057600080fd5b50611094806100206000396000f3fe608060405234801561001057600080fd5b50600436106100885760003560e01c80639c42df661161005b5780639c42df661461012a578063a184163714610148578063dfc3a3ff14610166578063dfef24f51461018257610088565b80630499884d1461008d5780634185e236146100a957806386dba054146100db5780638c5fe473146100fa575b600080fd5b6100a760048036038101906100a29190610a56565b6101a0565b005b6100c360048036038101906100be9190610acc565b61042f565b6040516100d293929190610b1b565b60405180910390f35b6100e3610476565b6040516100f1929190610b52565b60405180910390f35b610114600480360381019061010f9190610b7b565b610487565b6040516101219190610ba8565b60405180910390f35b61013261049f565b60405161013f9190610ba8565b60405180910390f35b6101506104a5565b60405161015d9190610ba8565b60405180910390f35b610180600480360381019061017b9190610bc3565b6104ab565b005b61018a6106ba565b6040516101979190610d16565b60405180910390f35b6000806000805b600160008773ffffffffffffffffffffffffffffffffffffffff1673ffffffffffffffffffffffffffffffffffffffff16815260200190815260200160002080549050811015610368576000600160008873ffffffffffffffffffffffffffffffffffffffff1673ffffffffffffffffffffffffffffffffffffffff168152602001908152602001600020828154811061024457610243610d38565b5b906000526020600020906003020160405180606001604052908160008201548152602001600182015481526020016002820154815250509050428160000151101561035a57600060648260200151606461029e9190610d96565b83604001516102ad9190610dca565b6102b79190610e3b565b90508160400151856102c99190610d96565b94508160400151816102db9190610e6c565b846102e69190610d96565b935080866102f49190610d96565b95506102ff83610774565b81604001516000808a73ffffffffffffffffffffffffffffffffffffffff1673ffffffffffffffffffffffffffffffffffffffff16815260200190815260200160002060008282546103519190610e6c565b92505081905550505b5080806001019150506101a7565b508373ffffffffffffffffffffffffffffffffffffffff1663213b2ff386836040518363ffffffff1660e01b81526004016103a4929190610eaf565b600060405180830381600087803b1580156103be57600080fd5b505af11580156103d2573d6000803e3d6000fd5b505050508473ffffffffffffffffffffffffffffffffffffffff167fa0afcc62883adc46e3210ec3af69c0d44d5bc91010a2475f068a0860cff1e9f283838660405161042093929190610b1b565b60405180910390a25050505050565b6001602052816000526040600020818154811061044b57600080fd5b9060005260206000209060030201600091509150508060000154908060010154908060020154905083565b600080600354600254915091509091565b60006020528060005260406000206000915090505481565b60025481565b60035481565b4283116104ed576040517f08c379a00000000000000000000000000000000000000000000000000000000081526004016104e490610f5b565b60405180910390fd5b6000604051806060016040528085815260200184815260200183815250905060008060003373ffffffffffffffffffffffffffffffffffffffff1673ffffffffffffffffffffffffffffffffffffffff168152602001908152602001600020540361056b576003600081548092919061056590610f7b565b91905055505b600160003373ffffffffffffffffffffffffffffffffffffffff1673ffffffffffffffffffffffffffffffffffffffff1681526020019081526020016000208190806001815401808255809150506001900390600052602060002090600302016000909190919091506000820151816000015560208201518160010155604082015181600201555050816000803373ffffffffffffffffffffffffffffffffffffffff1673ffffffffffffffffffffffffffffffffffffffff16815260200190815260200160002060008282546106429190610d96565b92505081905550816002600082825461065b9190610d96565b925050819055503373ffffffffffffffffffffffffffffffffffffffff167f485d5bcd7e243593ba58d30097c3ba28f0103e1f8a670262df62d9c4dac8ce198585856040516106ac93929190610b1b565b60405180910390a250505050565b6060600160003373ffffffffffffffffffffffffffffffffffffffff1673ffffffffffffffffffffffffffffffffffffffff168152602001908152602001600020805480602002602001604051908101604052809291908181526020016000905b8282101561076b578382906000526020600020906003020160405180606001604052908160008201548152602001600182015481526020016002820154815250508152602001906001019061071b565b50505050905090565b600160003373ffffffffffffffffffffffffffffffffffffffff1673ffffffffffffffffffffffffffffffffffffffff1681526020019081526020016000208054905081106107f8576040517f08c379a00000000000000000000000000000000000000000000000000000000081526004016107ef9061100f565b60405180910390fd5b600060018060003373ffffffffffffffffffffffffffffffffffffffff1673ffffffffffffffffffffffffffffffffffffffff168152602001908152602001600020805490506108489190610e6c565b905080821461093157600160003373ffffffffffffffffffffffffffffffffffffffff1673ffffffffffffffffffffffffffffffffffffffff16815260200190815260200160002081815481106108a2576108a1610d38565b5b9060005260206000209060030201600160003373ffffffffffffffffffffffffffffffffffffffff1673ffffffffffffffffffffffffffffffffffffffff168152602001908152602001600020838154811061090157610900610d38565b5b90600052602060002090600302016000820154816000015560018201548160010155600282015481600201559050505b600160003373ffffffffffffffffffffffffffffffffffffffff1673ffffffffffffffffffffffffffffffffffffffff1681526020019081526020016000208054806109805761097f61102f565b5b600190038181906000526020600020906003020160008082016000905560018201600090556002820160009055505090555050565b600080fd5b600073ffffffffffffffffffffffffffffffffffffffff82169050919050565b60006109e5826109ba565b9050919050565b6109f5816109da565b8114610a0057600080fd5b50565b600081359050610a12816109ec565b92915050565b6000610a23826109da565b9050919050565b610a3381610a18565b8114610a3e57600080fd5b50565b600081359050610a5081610a2a565b92915050565b60008060408385031215610a6d57610a6c6109b5565b5b6000610a7b85828601610a03565b9250506020610a8c85828601610a41565b9150509250929050565b6000819050919050565b610aa981610a96565b8114610ab457600080fd5b50565b600081359050610ac681610aa0565b92915050565b60008060408385031215610ae357610ae26109b5565b5b6000610af185828601610a03565b9250506020610b0285828601610ab7565b9150509250929050565b610b1581610a96565b82525050565b6000606082019050610b306000830186610b0c565b610b3d6020830185610b0c565b610b4a6040830184610b0c565b949350505050565b6000604082019050610b676000830185610b0c565b610b746020830184610b0c565b9392505050565b600060208284031215610b9157610b906109b5565b5b6000610b9f84828501610a03565b91505092915050565b6000602082019050610bbd6000830184610b0c565b92915050565b600080600060608486031215610bdc57610bdb6109b5565b5b6000610bea86828701610ab7565b9350506020610bfb86828701610ab7565b9250506040610c0c86828701610ab7565b9150509250925092565b600081519050919050565b600082825260208201905092915050565b6000819050602082019050919050565b610c4b81610a96565b82525050565b606082016000820151610c676000850182610c42565b506020820151610c7a6020850182610c42565b506040820151610c8d6040850182610c42565b50505050565b6000610c9f8383610c51565b60608301905092915050565b6000602082019050919050565b6000610cc382610c16565b610ccd8185610c21565b9350610cd883610c32565b8060005b83811015610d09578151610cf08882610c93565b9750610cfb83610cab565b925050600181019050610cdc565b5085935050505092915050565b60006020820190508181036000830152610d308184610cb8565b905092915050565b7f4e487b7100000000000000000000000000000000000000000000000000000000600052603260045260246000fd5b7f4e487b7100000000000000000000000000000000000000000000000000000000600052601160045260246000fd5b6000610da182610a96565b9150610dac83610a96565b9250828201905080821115610dc457610dc3610d67565b5b92915050565b6000610dd582610a96565b9150610de083610a96565b9250828202610dee81610a96565b91508282048414831517610e0557610e04610d67565b5b5092915050565b7f4e487b7100000000000000000000000000000000000000000000000000000000600052601260045260246000fd5b6000610e4682610a96565b9150610e5183610a96565b925082610e6157610e60610e0c565b5b828204905092915050565b6000610e7782610a96565b9150610e8283610a96565b9250828203905081811115610e9a57610e99610d67565b5b92915050565b610ea9816109da565b82525050565b6000604082019050610ec46000830185610ea0565b610ed16020830184610b0c565b9392505050565b600082825260208201905092915050565b7f446561646c696e65206d7573742062652067726561746572207468616e20637560008201527f7272656e742074696d6500000000000000000000000000000000000000000000602082015250565b6000610f45602a83610ed8565b9150610f5082610ee9565b604082019050919050565b60006020820190508181036000830152610f7481610f38565b9050919050565b6000610f8682610a96565b91507fffffffffffffffffffffffffffffffffffffffffffffffffffffffffffffffff8203610fb857610fb7610d67565b5b600182019050919050565b7f496e646578206f7574206f6620626f756e647300000000000000000000000000600082015250565b6000610ff9601383610ed8565b915061100482610fc3565b602082019050919050565b6000602082019050818103600083015261102881610fec565b9050919050565b7f4e487b7100000000000000000000000000000000000000000000000000000000600052603160045260246000fdfea2646970667358221220aa54d7ab8afb9e509b4e042b6440ee7690baf03a41b2a4c08022140d1ff1700664736f6c63430008180033",
  "linkReferences": {},
  "deployedLinkReferences": {}
}