{
  "_format": "hh-sol-artifact-1",
  "contractName": "Assessor",
  "sourceName": "contracts/Assessor.sol",
  "abi": [
    {
      "inputs": [
        {
          "internalType": "address",
          "name": "_proposalAddr",
          "type": "address"
        }
      ],
      "stateMutability": "nonpayable",
      "type": "constructor"
    },
    {
      "inputs": [
        {
          "internalType": "uint256",
          "name": "proposalId",
          "type": "uint256"
        },
        {
          "internalType": "address",
          "name": "voter",
          "type": "address"
        }
      ],
      "name": "AlreadyVoted",
      "type": "error"
    },
    {
      "inputs": [
        {
          "internalType": "address",
          "name": "juryMember",
          "type": "address"
        }
      ],
      "name": "InvalidJuryMember",
      "type": "error"
    },
    {
      "inputs": [
        {
          "internalType": "uint256",
          "name": "proposalId",
          "type": "uint256"
        }
      ],
      "name": "JuryHasBeenCreated",
      "type": "error"
    },
    {
      "inputs": [
        {
          "internalType": "uint256",
          "name": "proposalId",
          "type": "uint256"
        },
        {
          "internalType": "address",
          "name": "voter",
          "type": "address"
        }
      ],
      "name": "NoVotingRights",
      "type": "error"
    },
    {
      "anonymous": false,
      "inputs": [
        {
          "indexed": false,
          "internalType": "uint256",
          "name": "proposalId",
          "type": "uint256"
        },
        {
          "indexed": false,
          "internalType": "uint256",
          "name": "minimumRequiredNumberOfVotes",
          "type": "uint256"
        },
        {
          "indexed": false,
          "internalType": "uint256",
          "name": "winOption",
          "type": "uint256"
        },
        {
          "indexed": false,
          "internalType": "address[]",
          "name": "initialVoters",
          "type": "address[]"
        }
      ],
      "name": "CreateProposalJury",
      "type": "event"
    },
    {
      "anonymous": false,
      "inputs": [
        {
          "indexed": false,
          "internalType": "uint256",
          "name": "proposalId",
          "type": "uint256"
        }
      ],
      "name": "JuryFail",
      "type": "event"
    },
    {
      "anonymous": false,
      "inputs": [
        {
          "indexed": false,
          "internalType": "uint256",
          "name": "proposalId",
          "type": "uint256"
        }
      ],
      "name": "JurySuccess",
      "type": "event"
    },
    {
      "inputs": [
        {
          "internalType": "uint256",
          "name": "proposalId",
          "type": "uint256"
        },
        {
          "internalType": "uint256",
          "name": "minimumRequiredNumberOfVotes",
          "type": "uint256"
        },
        {
          "internalType": "uint256",
          "name": "winOption",
          "type": "uint256"
        },
        {
          "internalType": "address[]",
          "name": "initialVoters",
          "type": "address[]"
        }
      ],
      "name": "createProposalJury",
      "outputs": [],
      "stateMutability": "nonpayable",
      "type": "function"
    },
    {
      "inputs": [
        {
          "internalType": "uint256",
          "name": "proposalId",
          "type": "uint256"
        }
      ],
      "name": "getVoters",
      "outputs": [
        {
          "internalType": "address[]",
          "name": "",
          "type": "address[]"
        }
      ],
      "stateMutability": "view",
      "type": "function"
    },
    {
      "inputs": [
        {
          "internalType": "address",
          "name": "_user",
          "type": "address"
        }
      ],
      "name": "isJury",
      "outputs": [
        {
          "internalType": "bool",
          "name": "",
          "type": "bool"
        }
      ],
      "stateMutability": "view",
      "type": "function"
    },
    {
      "inputs": [
        {
          "internalType": "uint256",
          "name": "proposalId",
          "type": "uint256"
        },
        {
          "internalType": "address",
          "name": "voter",
          "type": "address"
        }
      ],
      "name": "isVoted",
      "outputs": [
        {
          "internalType": "bool",
          "name": "",
          "type": "bool"
        }
      ],
      "stateMutability": "view",
      "type": "function"
    },
    {
      "inputs": [
        {
          "internalType": "address",
          "name": "",
          "type": "address"
        }
      ],
      "name": "juryMembers",
      "outputs": [
        {
          "internalType": "bool",
          "name": "",
          "type": "bool"
        }
      ],
      "stateMutability": "view",
      "type": "function"
    },
    {
      "inputs": [],
      "name": "numberOfJuries",
      "outputs": [
        {
          "internalType": "uint256",
          "name": "",
          "type": "uint256"
        }
      ],
      "stateMutability": "view",
      "type": "function"
    },
    {
      "inputs": [],
      "name": "proposalAddr",
      "outputs": [
        {
          "internalType": "address",
          "name": "",
          "type": "address"
        }
      ],
      "stateMutability": "view",
      "type": "function"
    },
    {
      "inputs": [
        {
          "internalType": "uint256",
          "name": "",
          "type": "uint256"
        }
      ],
      "name": "proposalJuries",
      "outputs": [
        {
          "internalType": "uint256",
          "name": "minimumRequiredNumberOfVotes",
          "type": "uint256"
        },
        {
          "internalType": "uint256",
          "name": "winOption",
          "type": "uint256"
        },
        {
          "internalType": "uint256",
          "name": "numberOfVotesCast",
          "type": "uint256"
        }
      ],
      "stateMutability": "view",
      "type": "function"
    },
    {
      "inputs": [
        {
          "internalType": "bool",
          "name": "status",
          "type": "bool"
        }
      ],
      "name": "updateJurorStatus",
      "outputs": [],
      "stateMutability": "nonpayable",
      "type": "function"
    },
    {
      "inputs": [
        {
          "internalType": "uint256",
          "name": "proposalId",
          "type": "uint256"
        },
        {
          "internalType": "uint256",
          "name": "option",
          "type": "uint256"
        }
      ],
      "name": "vote",
      "outputs": [],
      "stateMutability": "nonpayable",
      "type": "function"
    }
  ],
  "bytecode": "0x60a06040523480156200001157600080fd5b50604051620012d3380380620012d38339818101604052810190620000379190620000dc565b8073ffffffffffffffffffffffffffffffffffffffff1660808173ffffffffffffffffffffffffffffffffffffffff1681525050506200010e565b600080fd5b600073ffffffffffffffffffffffffffffffffffffffff82169050919050565b6000620000a48262000077565b9050919050565b620000b68162000097565b8114620000c257600080fd5b50565b600081519050620000d681620000ab565b92915050565b600060208284031215620000f557620000f462000072565b5b60006200010584828501620000c5565b91505092915050565b6080516111a2620001316000396000818161077f0152610a4701526111a26000f3fe608060405234801561001057600080fd5b506004361061009e5760003560e01c806374b739971161006657806374b739971461016f57806386b646f21461019f578063b384abef146101cf578063c566d031146101eb578063db9e7185146102075761009e565b8063114f52fa146100a3578063209173c9146100bf5780632898d8ec146100ef57806349c1a5811461010d578063634039711461013d575b600080fd5b6100bd60048036038101906100b89190610af3565b610225565b005b6100d960048036038101906100d49190610b7e565b6102bb565b6040516100e69190610bba565b60405180910390f35b6100f76102db565b6040516101049190610bee565b60405180910390f35b61012760048036038101906101229190610c35565b6102e1565b6040516101349190610bba565b60405180910390f35b61015760048036038101906101529190610c75565b61034b565b60405161016693929190610ca2565b60405180910390f35b61018960048036038101906101849190610b7e565b610375565b6040516101969190610bba565b60405180910390f35b6101b960048036038101906101b49190610c75565b6103cb565b6040516101c69190610d97565b60405180910390f35b6101e960048036038101906101e49190610db9565b61046e565b005b61020560048036038101906102009190610f52565b61084e565b005b61020f610a45565b60405161021c9190610fe4565b60405180910390f35b80600160003373ffffffffffffffffffffffffffffffffffffffff1673ffffffffffffffffffffffffffffffffffffffff16815260200190815260200160002060006101000a81548160ff021916908315150217905550801561029f57600260008154809291906102959061102e565b91905055506102b8565b600260008154809291906102b290611076565b91905055505b50565b60016020528060005260406000206000915054906101000a900460ff1681565b60025481565b600080600084815260200190815260200160002060040160008373ffffffffffffffffffffffffffffffffffffffff1673ffffffffffffffffffffffffffffffffffffffff16815260200190815260200160002060009054906101000a900460ff16905092915050565b60006020528060005260406000206000915090508060000154908060010154908060030154905083565b6000600160008373ffffffffffffffffffffffffffffffffffffffff1673ffffffffffffffffffffffffffffffffffffffff16815260200190815260200160002060009054906101000a900460ff169050919050565b606060008083815260200190815260200160002060020180548060200260200160405190810160405280929190818152602001828054801561046257602002820191906000526020600020905b8160009054906101000a900473ffffffffffffffffffffffffffffffffffffffff1673ffffffffffffffffffffffffffffffffffffffff1681526020019060010190808311610418575b50505050509050919050565b81336000806000848152602001908152602001600020905060008160020180548060200260200160405190810160405280929190818152602001828054801561050c57602002820191906000526020600020905b8160009054906101000a900473ffffffffffffffffffffffffffffffffffffffff1673ffffffffffffffffffffffffffffffffffffffff16815260200190600101908083116104c2575b505050505090506000808360040160008673ffffffffffffffffffffffffffffffffffffffff1673ffffffffffffffffffffffffffffffffffffffff16815260200190815260200160002060009054906101000a900460ff16905060005b83518110156105d6578573ffffffffffffffffffffffffffffffffffffffff1684828151811061059d5761059c61109f565b5b602002602001015173ffffffffffffffffffffffffffffffffffffffff16036105c957600192506105d6565b808060010191505061056a565b508161061b5785856040517ff6601a0f0000000000000000000000000000000000000000000000000000000081526004016106129291906110ce565b60405180910390fd5b80156106605785856040517f04f9da630000000000000000000000000000000000000000000000000000000081526004016106579291906110ce565b60405180910390fd5b60008060008a81526020019081526020016000209050878160010154146106fa577fc8fdc9062bbcb9432f4d996215e1a77b20fb06aafcb7205b0a92b116b471a045896040516106b09190610bee565b60405180910390a16000808a815260200190815260200160002060008082016000905560018201600090556002820160006106eb9190610a69565b60038201600090555050610843565b80600301600081548092919061070f9061102e565b919050555060018160040160003373ffffffffffffffffffffffffffffffffffffffff1673ffffffffffffffffffffffffffffffffffffffff16815260200190815260200160002060006101000a81548160ff0219169083151502179055508060000154816003015403610842577f000000000000000000000000000000000000000000000000000000000000000073ffffffffffffffffffffffffffffffffffffffff1663f647344b8a8a6040518363ffffffff1660e01b81526004016107d89291906110f7565b600060405180830381600087803b1580156107f257600080fd5b505af1158015610806573d6000803e3d6000fd5b505050507fc04c1683e04fb8de57a6828e3b5371627ff250bdb47784a9075190f98696bb4a896040516108399190610bee565b60405180910390a15b5b505050505050505050565b600080600086815260200190815260200160002060000154146108a857836040517f6c9a458400000000000000000000000000000000000000000000000000000000815260040161089f9190610bee565b60405180910390fd5b60005b815181101561093f576108d78282815181106108ca576108c961109f565b5b6020026020010151610375565b610932578181815181106108ee576108ed61109f565b5b60200260200101516040517f49fb92280000000000000000000000000000000000000000000000000000000081526004016109299190610fe4565b60405180910390fd5b80806001019150506108ab565b506000806000868152602001908152602001600020905083816000018190555082816001018190555060005b8251811015610a00578160020183828151811061098b5761098a61109f565b5b60200260200101519080600181540180825580915050600190039060005260206000200160009091909190916101000a81548173ffffffffffffffffffffffffffffffffffffffff021916908373ffffffffffffffffffffffffffffffffffffffff160217905550808060010191505061096b565b507f332115258e6178ac527fbff366fb5cccc3a6ce1da92b80b5da0f81803e405b5c85858585604051610a369493929190611120565b60405180910390a15050505050565b7f000000000000000000000000000000000000000000000000000000000000000081565b5080546000825590600052602060002090810190610a879190610a8a565b50565b5b80821115610aa3576000816000905550600101610a8b565b5090565b6000604051905090565b600080fd5b600080fd5b60008115159050919050565b610ad081610abb565b8114610adb57600080fd5b50565b600081359050610aed81610ac7565b92915050565b600060208284031215610b0957610b08610ab1565b5b6000610b1784828501610ade565b91505092915050565b600073ffffffffffffffffffffffffffffffffffffffff82169050919050565b6000610b4b82610b20565b9050919050565b610b5b81610b40565b8114610b6657600080fd5b50565b600081359050610b7881610b52565b92915050565b600060208284031215610b9457610b93610ab1565b5b6000610ba284828501610b69565b91505092915050565b610bb481610abb565b82525050565b6000602082019050610bcf6000830184610bab565b92915050565b6000819050919050565b610be881610bd5565b82525050565b6000602082019050610c036000830184610bdf565b92915050565b610c1281610bd5565b8114610c1d57600080fd5b50565b600081359050610c2f81610c09565b92915050565b60008060408385031215610c4c57610c4b610ab1565b5b6000610c5a85828601610c20565b9250506020610c6b85828601610b69565b9150509250929050565b600060208284031215610c8b57610c8a610ab1565b5b6000610c9984828501610c20565b91505092915050565b6000606082019050610cb76000830186610bdf565b610cc46020830185610bdf565b610cd16040830184610bdf565b949350505050565b600081519050919050565b600082825260208201905092915050565b6000819050602082019050919050565b610d0e81610b40565b82525050565b6000610d208383610d05565b60208301905092915050565b6000602082019050919050565b6000610d4482610cd9565b610d4e8185610ce4565b9350610d5983610cf5565b8060005b83811015610d8a578151610d718882610d14565b9750610d7c83610d2c565b925050600181019050610d5d565b5085935050505092915050565b60006020820190508181036000830152610db18184610d39565b905092915050565b60008060408385031215610dd057610dcf610ab1565b5b6000610dde85828601610c20565b9250506020610def85828601610c20565b9150509250929050565b600080fd5b6000601f19601f8301169050919050565b7f4e487b7100000000000000000000000000000000000000000000000000000000600052604160045260246000fd5b610e4782610dfe565b810181811067ffffffffffffffff82111715610e6657610e65610e0f565b5b80604052505050565b6000610e79610aa7565b9050610e858282610e3e565b919050565b600067ffffffffffffffff821115610ea557610ea4610e0f565b5b602082029050602081019050919050565b600080fd5b6000610ece610ec984610e8a565b610e6f565b90508083825260208201905060208402830185811115610ef157610ef0610eb6565b5b835b81811015610f1a5780610f068882610b69565b845260208401935050602081019050610ef3565b5050509392505050565b600082601f830112610f3957610f38610df9565b5b8135610f49848260208601610ebb565b91505092915050565b60008060008060808587031215610f6c57610f6b610ab1565b5b6000610f7a87828801610c20565b9450506020610f8b87828801610c20565b9350506040610f9c87828801610c20565b925050606085013567ffffffffffffffff811115610fbd57610fbc610ab6565b5b610fc987828801610f24565b91505092959194509250565b610fde81610b40565b82525050565b6000602082019050610ff96000830184610fd5565b92915050565b7f4e487b7100000000000000000000000000000000000000000000000000000000600052601160045260246000fd5b600061103982610bd5565b91507fffffffffffffffffffffffffffffffffffffffffffffffffffffffffffffffff820361106b5761106a610fff565b5b600182019050919050565b600061108182610bd5565b91506000820361109457611093610fff565b5b600182039050919050565b7f4e487b7100000000000000000000000000000000000000000000000000000000600052603260045260246000fd5b60006040820190506110e36000830185610bdf565b6110f06020830184610fd5565b9392505050565b600060408201905061110c6000830185610bdf565b6111196020830184610bdf565b9392505050565b60006080820190506111356000830187610bdf565b6111426020830186610bdf565b61114f6040830185610bdf565b81810360608301526111618184610d39565b90509594505050505056fea26469706673582212204c915593c93ce808f921cdb47b2535e867a922fd2d736491b5441408c775c90c64736f6c63430008180033",
  "linkReferences": {},
  "deployedLinkReferences": {}
}