{
  "_format": "hh-sol-artifact-1",
  "contractName": "MelonNft",
  "sourceName": "contracts/MelonNft.sol",
  "abi": [
    {
      "inputs": [],
      "stateMutability": "nonpayable",
      "type": "constructor"
    },
    {
      "anonymous": false,
      "inputs": [
        {
          "indexed": true,
          "internalType": "address",
          "name": "owner",
          "type": "address"
        },
        {
          "indexed": true,
          "internalType": "address",
          "name": "approved",
          "type": "address"
        },
        {
          "indexed": true,
          "internalType": "uint256",
          "name": "tokenId",
          "type": "uint256"
        }
      ],
      "name": "Approval",
      "type": "event"
    },
    {
      "anonymous": false,
      "inputs": [
        {
          "indexed": true,
          "internalType": "address",
          "name": "owner",
          "type": "address"
        },
        {
          "indexed": true,
          "internalType": "address",
          "name": "operator",
          "type": "address"
        },
        {
          "indexed": false,
          "internalType": "bool",
          "name": "approved",
          "type": "bool"
        }
      ],
      "name": "ApprovalForAll",
      "type": "event"
    },
    {
      "anonymous": false,
      "inputs": [
        {
          "indexed": false,
          "internalType": "uint256",
          "name": "_fromTokenId",
          "type": "uint256"
        },
        {
          "indexed": false,
          "internalType": "uint256",
          "name": "_toTokenId",
          "type": "uint256"
        }
      ],
      "name": "BatchMetadataUpdate",
      "type": "event"
    },
    {
      "anonymous": false,
      "inputs": [
        {
          "indexed": false,
          "internalType": "uint256",
          "name": "_tokenId",
          "type": "uint256"
        }
      ],
      "name": "MetadataUpdate",
      "type": "event"
    },
    {
      "anonymous": false,
      "inputs": [
        {
          "indexed": true,
          "internalType": "address",
          "name": "sender",
          "type": "address"
        },
        {
          "indexed": true,
          "internalType": "uint256",
          "name": "tokenId",
          "type": "uint256"
        },
        {
          "indexed": false,
          "internalType": "string",
          "name": "tokenURI",
          "type": "string"
        }
      ],
      "name": "NFTMinted",
      "type": "event"
    },
    {
      "anonymous": false,
      "inputs": [
        {
          "indexed": true,
          "internalType": "address",
          "name": "from",
          "type": "address"
        },
        {
          "indexed": true,
          "internalType": "address",
          "name": "to",
          "type": "address"
        },
        {
          "indexed": true,
          "internalType": "uint256",
          "name": "tokenId",
          "type": "uint256"
        }
      ],
      "name": "Transfer",
      "type": "event"
    },
    {
      "inputs": [
        {
          "internalType": "address",
          "name": "to",
          "type": "address"
        },
        {
          "internalType": "uint256",
          "name": "tokenId",
          "type": "uint256"
        }
      ],
      "name": "approve",
      "outputs": [],
      "stateMutability": "nonpayable",
      "type": "function"
    },
    {
      "inputs": [
        {
          "internalType": "address",
          "name": "owner",
          "type": "address"
        }
      ],
      "name": "balanceOf",
      "outputs": [
        {
          "internalType": "uint256",
          "name": "",
          "type": "uint256"
        }
      ],
      "stateMutability": "view",
      "type": "function"
    },
    {
      "inputs": [
        {
          "internalType": "uint256",
          "name": "tokenId",
          "type": "uint256"
        }
      ],
      "name": "getApproved",
      "outputs": [
        {
          "internalType": "address",
          "name": "",
          "type": "address"
        }
      ],
      "stateMutability": "view",
      "type": "function"
    },
    {
      "inputs": [
        {
          "internalType": "uint256",
          "name": "",
          "type": "uint256"
        }
      ],
      "name": "holdingTimes",
      "outputs": [
        {
          "internalType": "uint256",
          "name": "",
          "type": "uint256"
        }
      ],
      "stateMutability": "view",
      "type": "function"
    },
    {
      "inputs": [
        {
          "internalType": "address",
          "name": "owner",
          "type": "address"
        },
        {
          "internalType": "address",
          "name": "operator",
          "type": "address"
        }
      ],
      "name": "isApprovedForAll",
      "outputs": [
        {
          "internalType": "bool",
          "name": "",
          "type": "bool"
        }
      ],
      "stateMutability": "view",
      "type": "function"
    },
    {
      "inputs": [
        {
          "internalType": "string",
          "name": "tokenURI",
          "type": "string"
        }
      ],
      "name": "mint",
      "outputs": [
        {
          "internalType": "uint256",
          "name": "",
          "type": "uint256"
        }
      ],
      "stateMutability": "nonpayable",
      "type": "function"
    },
    {
      "inputs": [],
      "name": "name",
      "outputs": [
        {
          "internalType": "string",
          "name": "",
          "type": "string"
        }
      ],
      "stateMutability": "view",
      "type": "function"
    },
    {
      "inputs": [
        {
          "internalType": "uint256",
          "name": "tokenId",
          "type": "uint256"
        }
      ],
      "name": "ownerOf",
      "outputs": [
        {
          "internalType": "address",
          "name": "",
          "type": "address"
        }
      ],
      "stateMutability": "view",
      "type": "function"
    },
    {
      "inputs": [
        {
          "internalType": "address",
          "name": "from",
          "type": "address"
        },
        {
          "internalType": "address",
          "name": "to",
          "type": "address"
        },
        {
          "internalType": "uint256",
          "name": "tokenId",
          "type": "uint256"
        }
      ],
      "name": "safeTransferFrom",
      "outputs": [],
      "stateMutability": "nonpayable",
      "type": "function"
    },
    {
      "inputs": [
        {
          "internalType": "address",
          "name": "from",
          "type": "address"
        },
        {
          "internalType": "address",
          "name": "to",
          "type": "address"
        },
        {
          "internalType": "uint256",
          "name": "tokenId",
          "type": "uint256"
        },
        {
          "internalType": "bytes",
          "name": "data",
          "type": "bytes"
        }
      ],
      "name": "safeTransferFrom",
      "outputs": [],
      "stateMutability": "nonpayable",
      "type": "function"
    },
    {
      "inputs": [
        {
          "internalType": "address",
          "name": "operator",
          "type": "address"
        },
        {
          "internalType": "bool",
          "name": "approved",
          "type": "bool"
        }
      ],
      "name": "setApprovalForAll",
      "outputs": [],
      "stateMutability": "nonpayable",
      "type": "function"
    },
    {
      "inputs": [
        {
          "internalType": "bytes4",
          "name": "interfaceId",
          "type": "bytes4"
        }
      ],
      "name": "supportsInterface",
      "outputs": [
        {
          "internalType": "bool",
          "name": "",
          "type": "bool"
        }
      ],
      "stateMutability": "view",
      "type": "function"
    },
    {
      "inputs": [],
      "name": "symbol",
      "outputs": [
        {
          "internalType": "string",
          "name": "",
          "type": "string"
        }
      ],
      "stateMutability": "view",
      "type": "function"
    },
    {
      "inputs": [
        {
          "internalType": "uint256",
          "name": "tokenId",
          "type": "uint256"
        }
      ],
      "name": "tokenURI",
      "outputs": [
        {
          "internalType": "string",
          "name": "",
          "type": "string"
        }
      ],
      "stateMutability": "view",
      "type": "function"
    },
    {
      "inputs": [
        {
          "internalType": "address",
          "name": "from",
          "type": "address"
        },
        {
          "internalType": "address",
          "name": "to",
          "type": "address"
        },
        {
          "internalType": "uint256",
          "name": "tokenId",
          "type": "uint256"
        }
      ],
      "name": "transferFrom",
      "outputs": [],
      "stateMutability": "nonpayable",
      "type": "function"
    }
  ],
  "bytecode": "0x60806040523480156200001157600080fd5b506040518060400160405280600981526020017f4d656c6f6e5f4e465400000000000000000000000000000000000000000000008152506040518060400160405280600781526020017f4d4c4e5f4e46540000000000000000000000000000000000000000000000000081525081600090816200008f919062000324565b508060019081620000a1919062000324565b5050506200040b565b600081519050919050565b7f4e487b7100000000000000000000000000000000000000000000000000000000600052604160045260246000fd5b7f4e487b7100000000000000000000000000000000000000000000000000000000600052602260045260246000fd5b600060028204905060018216806200012c57607f821691505b602082108103620001425762000141620000e4565b5b50919050565b60008190508160005260206000209050919050565b60006020601f8301049050919050565b600082821b905092915050565b600060088302620001ac7fffffffffffffffffffffffffffffffffffffffffffffffffffffffffffffffff826200016d565b620001b886836200016d565b95508019841693508086168417925050509392505050565b6000819050919050565b6000819050919050565b600062000205620001ff620001f984620001d0565b620001da565b620001d0565b9050919050565b6000819050919050565b6200022183620001e4565b6200023962000230826200020c565b8484546200017a565b825550505050565b600090565b6200025062000241565b6200025d81848462000216565b505050565b5b8181101562000285576200027960008262000246565b60018101905062000263565b5050565b601f821115620002d4576200029e8162000148565b620002a9846200015d565b81016020851015620002b9578190505b620002d1620002c8856200015d565b83018262000262565b50505b505050565b600082821c905092915050565b6000620002f960001984600802620002d9565b1980831691505092915050565b6000620003148383620002e6565b9150826002028217905092915050565b6200032f82620000aa565b67ffffffffffffffff8111156200034b576200034a620000b5565b5b62000357825462000113565b6200036482828562000289565b600060209050601f8311600181146200039c576000841562000387578287015190505b62000393858262000306565b86555062000403565b601f198416620003ac8662000148565b60005b82811015620003d657848901518255600182019150602085019450602081019050620003af565b86831015620003f65784890151620003f2601f891682620002e6565b8355505b6001600288020188555050505b505050505050565b612bbd806200041b6000396000f3fe608060405234801561001057600080fd5b50600436106100f55760003560e01c806370a0823111610097578063c87b56dd11610066578063c87b56dd14610282578063d85d3d27146102b2578063e985e9c5146102e2578063ea59871214610312576100f5565b806370a08231146101fc57806395d89b411461022c578063a22cb4651461024a578063b88d4fde14610266576100f5565b8063095ea7b3116100d3578063095ea7b31461017857806323b872dd1461019457806342842e0e146101b05780636352211e146101cc576100f5565b806301ffc9a7146100fa57806306fdde031461012a578063081812fc14610148575b600080fd5b610114600480360381019061010f9190611abf565b610342565b6040516101219190611b07565b60405180910390f35b6101326103a3565b60405161013f9190611bb2565b60405180910390f35b610162600480360381019061015d9190611c0a565b610435565b60405161016f9190611c78565b60405180910390f35b610192600480360381019061018d9190611cbf565b61047b565b005b6101ae60048036038101906101a99190611cff565b610592565b005b6101ca60048036038101906101c59190611cff565b6105ba565b005b6101e660048036038101906101e19190611c0a565b6105e2565b6040516101f39190611c78565b60405180910390f35b61021660048036038101906102119190611d52565b610668565b6040516102239190611d8e565b60405180910390f35b61023461071f565b6040516102419190611bb2565b60405180910390f35b610264600480360381019061025f9190611dd5565b6107b1565b005b610280600480360381019061027b9190611f4a565b6107c7565b005b61029c60048036038101906102979190611c0a565b610829565b6040516102a99190611bb2565b60405180910390f35b6102cc60048036038101906102c7919061206e565b61093b565b6040516102d99190611d8e565b60405180910390f35b6102fc60048036038101906102f791906120b7565b6109c0565b6040516103099190611b07565b60405180910390f35b61032c60048036038101906103279190611c0a565b610a54565b6040516103399190611d8e565b60405180910390f35b6000634906490660e01b7bffffffffffffffffffffffffffffffffffffffffffffffffffffffff1916827bffffffffffffffffffffffffffffffffffffffffffffffffffffffff1916148061039c575061039b82610a6c565b5b9050919050565b6060600080546103b290612126565b80601f01602080910402602001604051908101604052809291908181526020018280546103de90612126565b801561042b5780601f106104005761010080835404028352916020019161042b565b820191906000526020600020905b81548152906001019060200180831161040e57829003601f168201915b5050505050905090565b600061044082610b4e565b6004600083815260200190815260200160002060009054906101000a900473ffffffffffffffffffffffffffffffffffffffff169050919050565b6000610486826105e2565b90508073ffffffffffffffffffffffffffffffffffffffff168373ffffffffffffffffffffffffffffffffffffffff16036104f6576040517f08c379a00000000000000000000000000000000000000000000000000000000081526004016104ed906121c9565b60405180910390fd5b8073ffffffffffffffffffffffffffffffffffffffff16610515610b99565b73ffffffffffffffffffffffffffffffffffffffff16148061054457506105438161053e610b99565b6109c0565b5b610583576040517f08c379a000000000000000000000000000000000000000000000000000000000815260040161057a9061225b565b60405180910390fd5b61058d8383610ba1565b505050565b61059d838383610c5a565b426008600083815260200190815260200160002081905550505050565b6105c5838383610cba565b426008600083815260200190815260200160002081905550505050565b6000806105ee83610cda565b9050600073ffffffffffffffffffffffffffffffffffffffff168173ffffffffffffffffffffffffffffffffffffffff160361065f576040517f08c379a0000000000000000000000000000000000000000000000000000000008152600401610656906122c7565b60405180910390fd5b80915050919050565b60008073ffffffffffffffffffffffffffffffffffffffff168273ffffffffffffffffffffffffffffffffffffffff16036106d8576040517f08c379a00000000000000000000000000000000000000000000000000000000081526004016106cf90612359565b60405180910390fd5b600360008373ffffffffffffffffffffffffffffffffffffffff1673ffffffffffffffffffffffffffffffffffffffff168152602001908152602001600020549050919050565b60606001805461072e90612126565b80601f016020809104026020016040519081016040528092919081815260200182805461075a90612126565b80156107a75780601f1061077c576101008083540402835291602001916107a7565b820191906000526020600020905b81548152906001019060200180831161078a57829003601f168201915b5050505050905090565b6107c36107bc610b99565b8383610d17565b5050565b6107d86107d2610b99565b83610e83565b610817576040517f08c379a000000000000000000000000000000000000000000000000000000000815260040161080e906123eb565b60405180910390fd5b61082384848484610f18565b50505050565b606061083482610b4e565b600060066000848152602001908152602001600020805461085490612126565b80601f016020809104026020016040519081016040528092919081815260200182805461088090612126565b80156108cd5780601f106108a2576101008083540402835291602001916108cd565b820191906000526020600020905b8154815290600101906020018083116108b057829003601f168201915b5050505050905060006108de610f74565b905060008151036108f3578192505050610936565b600082511115610928578082604051602001610910929190612447565b60405160208183030381529060405292505050610936565b61093184610f8b565b925050505b919050565b6000806109486007610ff3565b90506109546007611001565b61095e3382611017565b6109688184611234565b803373ffffffffffffffffffffffffffffffffffffffff167fd35bb95e09c04b219e35047ce7b7b300e3384264ef84a40456943dbc0fc17c14856040516109af9190611bb2565b60405180910390a380915050919050565b6000600560008473ffffffffffffffffffffffffffffffffffffffff1673ffffffffffffffffffffffffffffffffffffffff16815260200190815260200160002060008373ffffffffffffffffffffffffffffffffffffffff1673ffffffffffffffffffffffffffffffffffffffff16815260200190815260200160002060009054906101000a900460ff16905092915050565b60086020528060005260406000206000915090505481565b60007f80ac58cd000000000000000000000000000000000000000000000000000000007bffffffffffffffffffffffffffffffffffffffffffffffffffffffff1916827bffffffffffffffffffffffffffffffffffffffffffffffffffffffff19161480610b3757507f5b5e139f000000000000000000000000000000000000000000000000000000007bffffffffffffffffffffffffffffffffffffffffffffffffffffffff1916827bffffffffffffffffffffffffffffffffffffffffffffffffffffffff1916145b80610b475750610b46826112d8565b5b9050919050565b610b5781611342565b610b96576040517f08c379a0000000000000000000000000000000000000000000000000000000008152600401610b8d906122c7565b60405180910390fd5b50565b600033905090565b816004600083815260200190815260200160002060006101000a81548173ffffffffffffffffffffffffffffffffffffffff021916908373ffffffffffffffffffffffffffffffffffffffff160217905550808273ffffffffffffffffffffffffffffffffffffffff16610c14836105e2565b73ffffffffffffffffffffffffffffffffffffffff167f8c5be1e5ebec7d5bd14f71427d1e84f3dd0314c0f7b2291e5b200ac8c7c3b92560405160405180910390a45050565b610c6b610c65610b99565b82610e83565b610caa576040517f08c379a0000000000000000000000000000000000000000000000000000000008152600401610ca1906123eb565b60405180910390fd5b610cb5838383611383565b505050565b610cd5838383604051806020016040528060008152506107c7565b505050565b60006002600083815260200190815260200160002060009054906101000a900473ffffffffffffffffffffffffffffffffffffffff169050919050565b8173ffffffffffffffffffffffffffffffffffffffff168373ffffffffffffffffffffffffffffffffffffffff1603610d85576040517f08c379a0000000000000000000000000000000000000000000000000000000008152600401610d7c906124b7565b60405180910390fd5b80600560008573ffffffffffffffffffffffffffffffffffffffff1673ffffffffffffffffffffffffffffffffffffffff16815260200190815260200160002060008473ffffffffffffffffffffffffffffffffffffffff1673ffffffffffffffffffffffffffffffffffffffff16815260200190815260200160002060006101000a81548160ff0219169083151502179055508173ffffffffffffffffffffffffffffffffffffffff168373ffffffffffffffffffffffffffffffffffffffff167f17307eab39ab6107e8899845ad3d59bd9653f200f220920489ca2b5937696c3183604051610e769190611b07565b60405180910390a3505050565b600080610e8f836105e2565b90508073ffffffffffffffffffffffffffffffffffffffff168473ffffffffffffffffffffffffffffffffffffffff161480610ed15750610ed081856109c0565b5b80610f0f57508373ffffffffffffffffffffffffffffffffffffffff16610ef784610435565b73ffffffffffffffffffffffffffffffffffffffff16145b91505092915050565b610f23848484611383565b610f2f8484848461167c565b610f6e576040517f08c379a0000000000000000000000000000000000000000000000000000000008152600401610f6590612549565b60405180910390fd5b50505050565b606060405180602001604052806000815250905090565b6060610f9682610b4e565b6000610fa0610f74565b90506000815111610fc05760405180602001604052806000815250610feb565b80610fca84611803565b604051602001610fdb929190612447565b6040516020818303038152906040525b915050919050565b600081600001549050919050565b6001816000016000828254019250508190555050565b600073ffffffffffffffffffffffffffffffffffffffff168273ffffffffffffffffffffffffffffffffffffffff1603611086576040517f08c379a000000000000000000000000000000000000000000000000000000000815260040161107d906125b5565b60405180910390fd5b61108f81611342565b156110cf576040517f08c379a00000000000000000000000000000000000000000000000000000000081526004016110c690612621565b60405180910390fd5b6110dd6000838360016118d1565b6110e681611342565b15611126576040517f08c379a000000000000000000000000000000000000000000000000000000000815260040161111d90612621565b60405180910390fd5b6001600360008473ffffffffffffffffffffffffffffffffffffffff1673ffffffffffffffffffffffffffffffffffffffff16815260200190815260200160002060008282540192505081905550816002600083815260200190815260200160002060006101000a81548173ffffffffffffffffffffffffffffffffffffffff021916908373ffffffffffffffffffffffffffffffffffffffff160217905550808273ffffffffffffffffffffffffffffffffffffffff16600073ffffffffffffffffffffffffffffffffffffffff167fddf252ad1be2c89b69c2b068fc378daa952ba7f163c4a11628f55a4df523b3ef60405160405180910390a46112306000838360016118d7565b5050565b61123d82611342565b61127c576040517f08c379a0000000000000000000000000000000000000000000000000000000008152600401611273906126b3565b60405180910390fd5b8060066000848152602001908152602001600020908161129c919061287f565b507ff8e1a15aba9398e019f0b49df1a4fde98ee17ae345cb5f6b5e2c27f5033e8ce7826040516112cc9190611d8e565b60405180910390a15050565b60007f01ffc9a7000000000000000000000000000000000000000000000000000000007bffffffffffffffffffffffffffffffffffffffffffffffffffffffff1916827bffffffffffffffffffffffffffffffffffffffffffffffffffffffff1916149050919050565b60008073ffffffffffffffffffffffffffffffffffffffff1661136483610cda565b73ffffffffffffffffffffffffffffffffffffffff1614159050919050565b8273ffffffffffffffffffffffffffffffffffffffff166113a3826105e2565b73ffffffffffffffffffffffffffffffffffffffff16146113f9576040517f08c379a00000000000000000000000000000000000000000000000000000000081526004016113f0906129c3565b60405180910390fd5b600073ffffffffffffffffffffffffffffffffffffffff168273ffffffffffffffffffffffffffffffffffffffff1603611468576040517f08c379a000000000000000000000000000000000000000000000000000000000815260040161145f90612a55565b60405180910390fd5b61147583838360016118d1565b8273ffffffffffffffffffffffffffffffffffffffff16611495826105e2565b73ffffffffffffffffffffffffffffffffffffffff16146114eb576040517f08c379a00000000000000000000000000000000000000000000000000000000081526004016114e2906129c3565b60405180910390fd5b6004600082815260200190815260200160002060006101000a81549073ffffffffffffffffffffffffffffffffffffffff02191690556001600360008573ffffffffffffffffffffffffffffffffffffffff1673ffffffffffffffffffffffffffffffffffffffff168152602001908152602001600020600082825403925050819055506001600360008473ffffffffffffffffffffffffffffffffffffffff1673ffffffffffffffffffffffffffffffffffffffff16815260200190815260200160002060008282540192505081905550816002600083815260200190815260200160002060006101000a81548173ffffffffffffffffffffffffffffffffffffffff021916908373ffffffffffffffffffffffffffffffffffffffff160217905550808273ffffffffffffffffffffffffffffffffffffffff168473ffffffffffffffffffffffffffffffffffffffff167fddf252ad1be2c89b69c2b068fc378daa952ba7f163c4a11628f55a4df523b3ef60405160405180910390a461167783838360016118d7565b505050565b600061169d8473ffffffffffffffffffffffffffffffffffffffff166118dd565b156117f6578373ffffffffffffffffffffffffffffffffffffffff1663150b7a026116c6610b99565b8786866040518563ffffffff1660e01b81526004016116e89493929190612aca565b6020604051808303816000875af192505050801561172457506040513d601f19601f820116820180604052508101906117219190612b2b565b60015b6117a6573d8060008114611754576040519150601f19603f3d011682016040523d82523d6000602084013e611759565b606091505b50600081510361179e576040517f08c379a000000000000000000000000000000000000000000000000000000000815260040161179590612549565b60405180910390fd5b805181602001fd5b63150b7a0260e01b7bffffffffffffffffffffffffffffffffffffffffffffffffffffffff1916817bffffffffffffffffffffffffffffffffffffffffffffffffffffffff1916149150506117fb565b600190505b949350505050565b60606000600161181284611900565b01905060008167ffffffffffffffff81111561183157611830611e1f565b5b6040519080825280601f01601f1916602001820160405280156118635781602001600182028036833780820191505090505b509050600082602001820190505b6001156118c6578080600190039150507f3031323334353637383961626364656600000000000000000000000000000000600a86061a8153600a85816118ba576118b9612b58565b5b04945060008503611871575b819350505050919050565b50505050565b50505050565b6000808273ffffffffffffffffffffffffffffffffffffffff163b119050919050565b600080600090507a184f03e93ff9f4daa797ed6e38ed64bf6a1f010000000000000000831061195e577a184f03e93ff9f4daa797ed6e38ed64bf6a1f010000000000000000838161195457611953612b58565b5b0492506040810190505b6d04ee2d6d415b85acef8100000000831061199b576d04ee2d6d415b85acef8100000000838161199157611990612b58565b5b0492506020810190505b662386f26fc1000083106119ca57662386f26fc1000083816119c0576119bf612b58565b5b0492506010810190505b6305f5e10083106119f3576305f5e10083816119e9576119e8612b58565b5b0492506008810190505b6127108310611a18576127108381611a0e57611a0d612b58565b5b0492506004810190505b60648310611a3b5760648381611a3157611a30612b58565b5b0492506002810190505b600a8310611a4a576001810190505b80915050919050565b6000604051905090565b600080fd5b600080fd5b60007fffffffff0000000000000000000000000000000000000000000000000000000082169050919050565b611a9c81611a67565b8114611aa757600080fd5b50565b600081359050611ab981611a93565b92915050565b600060208284031215611ad557611ad4611a5d565b5b6000611ae384828501611aaa565b91505092915050565b60008115159050919050565b611b0181611aec565b82525050565b6000602082019050611b1c6000830184611af8565b92915050565b600081519050919050565b600082825260208201905092915050565b60005b83811015611b5c578082015181840152602081019050611b41565b60008484015250505050565b6000601f19601f8301169050919050565b6000611b8482611b22565b611b8e8185611b2d565b9350611b9e818560208601611b3e565b611ba781611b68565b840191505092915050565b60006020820190508181036000830152611bcc8184611b79565b905092915050565b6000819050919050565b611be781611bd4565b8114611bf257600080fd5b50565b600081359050611c0481611bde565b92915050565b600060208284031215611c2057611c1f611a5d565b5b6000611c2e84828501611bf5565b91505092915050565b600073ffffffffffffffffffffffffffffffffffffffff82169050919050565b6000611c6282611c37565b9050919050565b611c7281611c57565b82525050565b6000602082019050611c8d6000830184611c69565b92915050565b611c9c81611c57565b8114611ca757600080fd5b50565b600081359050611cb981611c93565b92915050565b60008060408385031215611cd657611cd5611a5d565b5b6000611ce485828601611caa565b9250506020611cf585828601611bf5565b9150509250929050565b600080600060608486031215611d1857611d17611a5d565b5b6000611d2686828701611caa565b9350506020611d3786828701611caa565b9250506040611d4886828701611bf5565b9150509250925092565b600060208284031215611d6857611d67611a5d565b5b6000611d7684828501611caa565b91505092915050565b611d8881611bd4565b82525050565b6000602082019050611da36000830184611d7f565b92915050565b611db281611aec565b8114611dbd57600080fd5b50565b600081359050611dcf81611da9565b92915050565b60008060408385031215611dec57611deb611a5d565b5b6000611dfa85828601611caa565b9250506020611e0b85828601611dc0565b9150509250929050565b600080fd5b600080fd5b7f4e487b7100000000000000000000000000000000000000000000000000000000600052604160045260246000fd5b611e5782611b68565b810181811067ffffffffffffffff82111715611e7657611e75611e1f565b5b80604052505050565b6000611e89611a53565b9050611e958282611e4e565b919050565b600067ffffffffffffffff821115611eb557611eb4611e1f565b5b611ebe82611b68565b9050602081019050919050565b82818337600083830152505050565b6000611eed611ee884611e9a565b611e7f565b905082815260208101848484011115611f0957611f08611e1a565b5b611f14848285611ecb565b509392505050565b600082601f830112611f3157611f30611e15565b5b8135611f41848260208601611eda565b91505092915050565b60008060008060808587031215611f6457611f63611a5d565b5b6000611f7287828801611caa565b9450506020611f8387828801611caa565b9350506040611f9487828801611bf5565b925050606085013567ffffffffffffffff811115611fb557611fb4611a62565b5b611fc187828801611f1c565b91505092959194509250565b600067ffffffffffffffff821115611fe857611fe7611e1f565b5b611ff182611b68565b9050602081019050919050565b600061201161200c84611fcd565b611e7f565b90508281526020810184848401111561202d5761202c611e1a565b5b612038848285611ecb565b509392505050565b600082601f83011261205557612054611e15565b5b8135612065848260208601611ffe565b91505092915050565b60006020828403121561208457612083611a5d565b5b600082013567ffffffffffffffff8111156120a2576120a1611a62565b5b6120ae84828501612040565b91505092915050565b600080604083850312156120ce576120cd611a5d565b5b60006120dc85828601611caa565b92505060206120ed85828601611caa565b9150509250929050565b7f4e487b7100000000000000000000000000000000000000000000000000000000600052602260045260246000fd5b6000600282049050600182168061213e57607f821691505b602082108103612151576121506120f7565b5b50919050565b7f4552433732313a20617070726f76616c20746f2063757272656e74206f776e6560008201527f7200000000000000000000000000000000000000000000000000000000000000602082015250565b60006121b3602183611b2d565b91506121be82612157565b604082019050919050565b600060208201905081810360008301526121e2816121a6565b9050919050565b7f4552433732313a20617070726f76652063616c6c6572206973206e6f7420746f60008201527f6b656e206f776e6572206f7220617070726f76656420666f7220616c6c000000602082015250565b6000612245603d83611b2d565b9150612250826121e9565b604082019050919050565b6000602082019050818103600083015261227481612238565b9050919050565b7f4552433732313a20696e76616c696420746f6b656e2049440000000000000000600082015250565b60006122b1601883611b2d565b91506122bc8261227b565b602082019050919050565b600060208201905081810360008301526122e0816122a4565b9050919050565b7f4552433732313a2061646472657373207a65726f206973206e6f74206120766160008201527f6c6964206f776e65720000000000000000000000000000000000000000000000602082015250565b6000612343602983611b2d565b915061234e826122e7565b604082019050919050565b6000602082019050818103600083015261237281612336565b9050919050565b7f4552433732313a2063616c6c6572206973206e6f7420746f6b656e206f776e6560008201527f72206f7220617070726f76656400000000000000000000000000000000000000602082015250565b60006123d5602d83611b2d565b91506123e082612379565b604082019050919050565b60006020820190508181036000830152612404816123c8565b9050919050565b600081905092915050565b600061242182611b22565b61242b818561240b565b935061243b818560208601611b3e565b80840191505092915050565b60006124538285612416565b915061245f8284612416565b91508190509392505050565b7f4552433732313a20617070726f766520746f2063616c6c657200000000000000600082015250565b60006124a1601983611b2d565b91506124ac8261246b565b602082019050919050565b600060208201905081810360008301526124d081612494565b9050919050565b7f4552433732313a207472616e7366657220746f206e6f6e20455243373231526560008201527f63656976657220696d706c656d656e7465720000000000000000000000000000602082015250565b6000612533603283611b2d565b915061253e826124d7565b604082019050919050565b6000602082019050818103600083015261256281612526565b9050919050565b7f4552433732313a206d696e7420746f20746865207a65726f2061646472657373600082015250565b600061259f602083611b2d565b91506125aa82612569565b602082019050919050565b600060208201905081810360008301526125ce81612592565b9050919050565b7f4552433732313a20746f6b656e20616c7265616479206d696e74656400000000600082015250565b600061260b601c83611b2d565b9150612616826125d5565b602082019050919050565b6000602082019050818103600083015261263a816125fe565b9050919050565b7f45524337323155524953746f726167653a2055524920736574206f66206e6f6e60008201527f6578697374656e7420746f6b656e000000000000000000000000000000000000602082015250565b600061269d602e83611b2d565b91506126a882612641565b604082019050919050565b600060208201905081810360008301526126cc81612690565b9050919050565b60008190508160005260206000209050919050565b60006020601f8301049050919050565b600082821b905092915050565b6000600883026127357fffffffffffffffffffffffffffffffffffffffffffffffffffffffffffffffff826126f8565b61273f86836126f8565b95508019841693508086168417925050509392505050565b6000819050919050565b600061277c61277761277284611bd4565b612757565b611bd4565b9050919050565b6000819050919050565b61279683612761565b6127aa6127a282612783565b848454612705565b825550505050565b600090565b6127bf6127b2565b6127ca81848461278d565b505050565b5b818110156127ee576127e36000826127b7565b6001810190506127d0565b5050565b601f82111561283357612804816126d3565b61280d846126e8565b8101602085101561281c578190505b612830612828856126e8565b8301826127cf565b50505b505050565b600082821c905092915050565b600061285660001984600802612838565b1980831691505092915050565b600061286f8383612845565b9150826002028217905092915050565b61288882611b22565b67ffffffffffffffff8111156128a1576128a0611e1f565b5b6128ab8254612126565b6128b68282856127f2565b600060209050601f8311600181146128e957600084156128d7578287015190505b6128e18582612863565b865550612949565b601f1984166128f7866126d3565b60005b8281101561291f578489015182556001820191506020850194506020810190506128fa565b8683101561293c5784890151612938601f891682612845565b8355505b6001600288020188555050505b505050505050565b7f4552433732313a207472616e736665722066726f6d20696e636f72726563742060008201527f6f776e6572000000000000000000000000000000000000000000000000000000602082015250565b60006129ad602583611b2d565b91506129b882612951565b604082019050919050565b600060208201905081810360008301526129dc816129a0565b9050919050565b7f4552433732313a207472616e7366657220746f20746865207a65726f2061646460008201527f7265737300000000000000000000000000000000000000000000000000000000602082015250565b6000612a3f602483611b2d565b9150612a4a826129e3565b604082019050919050565b60006020820190508181036000830152612a6e81612a32565b9050919050565b600081519050919050565b600082825260208201905092915050565b6000612a9c82612a75565b612aa68185612a80565b9350612ab6818560208601611b3e565b612abf81611b68565b840191505092915050565b6000608082019050612adf6000830187611c69565b612aec6020830186611c69565b612af96040830185611d7f565b8181036060830152612b0b8184612a91565b905095945050505050565b600081519050612b2581611a93565b92915050565b600060208284031215612b4157612b40611a5d565b5b6000612b4f84828501612b16565b91505092915050565b7f4e487b7100000000000000000000000000000000000000000000000000000000600052601260045260246000fdfea2646970667358221220b50206eb1f636c71323d13ed0ab4fdb40656aeb640e6cdd143ec07431e0c131164736f6c63430008180033",
  "linkReferences": {},
  "deployedLinkReferences": {}
}