{
  "_format": "hh-sol-artifact-1",
  "contractName": "MelonNFT",
  "sourceName": "contracts/MelonNFT.sol",
  "abi": [
    {
      "inputs": [],
      "stateMutability": "nonpayable",
      "type": "constructor"
    },
    {
      "anonymous": false,
      "inputs": [
        {
          "indexed": true,
          "internalType": "address",
          "name": "owner",
          "type": "address"
        },
        {
          "indexed": true,
          "internalType": "address",
          "name": "approved",
          "type": "address"
        },
        {
          "indexed": true,
          "internalType": "uint256",
          "name": "tokenId",
          "type": "uint256"
        }
      ],
      "name": "Approval",
      "type": "event"
    },
    {
      "anonymous": false,
      "inputs": [
        {
          "indexed": true,
          "internalType": "address",
          "name": "owner",
          "type": "address"
        },
        {
          "indexed": true,
          "internalType": "address",
          "name": "operator",
          "type": "address"
        },
        {
          "indexed": false,
          "internalType": "bool",
          "name": "approved",
          "type": "bool"
        }
      ],
      "name": "ApprovalForAll",
      "type": "event"
    },
    {
      "anonymous": false,
      "inputs": [
        {
          "indexed": false,
          "internalType": "uint256",
          "name": "_fromTokenId",
          "type": "uint256"
        },
        {
          "indexed": false,
          "internalType": "uint256",
          "name": "_toTokenId",
          "type": "uint256"
        }
      ],
      "name": "BatchMetadataUpdate",
      "type": "event"
    },
    {
      "anonymous": false,
      "inputs": [
        {
          "indexed": false,
          "internalType": "uint256",
          "name": "_tokenId",
          "type": "uint256"
        }
      ],
      "name": "MetadataUpdate",
      "type": "event"
    },
    {
      "anonymous": false,
      "inputs": [
        {
          "indexed": true,
          "internalType": "address",
          "name": "to",
          "type": "address"
        },
        {
          "indexed": false,
          "internalType": "uint256",
          "name": "tokenId",
          "type": "uint256"
        }
      ],
      "name": "MintNFT",
      "type": "event"
    },
    {
      "anonymous": false,
      "inputs": [
        {
          "indexed": true,
          "internalType": "address",
          "name": "previousOwner",
          "type": "address"
        },
        {
          "indexed": true,
          "internalType": "address",
          "name": "newOwner",
          "type": "address"
        }
      ],
      "name": "OwnershipTransferred",
      "type": "event"
    },
    {
      "anonymous": false,
      "inputs": [
        {
          "indexed": true,
          "internalType": "address",
          "name": "from",
          "type": "address"
        },
        {
          "indexed": true,
          "internalType": "address",
          "name": "to",
          "type": "address"
        },
        {
          "indexed": true,
          "internalType": "uint256",
          "name": "tokenId",
          "type": "uint256"
        }
      ],
      "name": "Transfer",
      "type": "event"
    },
    {
      "inputs": [
        {
          "internalType": "address",
          "name": "to",
          "type": "address"
        },
        {
          "internalType": "uint256",
          "name": "tokenId",
          "type": "uint256"
        }
      ],
      "name": "approve",
      "outputs": [],
      "stateMutability": "nonpayable",
      "type": "function"
    },
    {
      "inputs": [
        {
          "internalType": "address",
          "name": "owner",
          "type": "address"
        }
      ],
      "name": "balanceOf",
      "outputs": [
        {
          "internalType": "uint256",
          "name": "",
          "type": "uint256"
        }
      ],
      "stateMutability": "view",
      "type": "function"
    },
    {
      "inputs": [
        {
          "internalType": "uint256",
          "name": "tokenId",
          "type": "uint256"
        }
      ],
      "name": "burn",
      "outputs": [],
      "stateMutability": "nonpayable",
      "type": "function"
    },
    {
      "inputs": [
        {
          "internalType": "uint256",
          "name": "tokenId",
          "type": "uint256"
        }
      ],
      "name": "getApproved",
      "outputs": [
        {
          "internalType": "address",
          "name": "",
          "type": "address"
        }
      ],
      "stateMutability": "view",
      "type": "function"
    },
    {
      "inputs": [
        {
          "internalType": "address",
          "name": "owner",
          "type": "address"
        },
        {
          "internalType": "address",
          "name": "operator",
          "type": "address"
        }
      ],
      "name": "isApprovedForAll",
      "outputs": [
        {
          "internalType": "bool",
          "name": "",
          "type": "bool"
        }
      ],
      "stateMutability": "view",
      "type": "function"
    },
    {
      "inputs": [
        {
          "internalType": "address",
          "name": "to",
          "type": "address"
        },
        {
          "internalType": "string",
          "name": "uri",
          "type": "string"
        }
      ],
      "name": "mint",
      "outputs": [],
      "stateMutability": "nonpayable",
      "type": "function"
    },
    {
      "inputs": [],
      "name": "name",
      "outputs": [
        {
          "internalType": "string",
          "name": "",
          "type": "string"
        }
      ],
      "stateMutability": "view",
      "type": "function"
    },
    {
      "inputs": [],
      "name": "owner",
      "outputs": [
        {
          "internalType": "address",
          "name": "",
          "type": "address"
        }
      ],
      "stateMutability": "view",
      "type": "function"
    },
    {
      "inputs": [
        {
          "internalType": "uint256",
          "name": "tokenId",
          "type": "uint256"
        }
      ],
      "name": "ownerOf",
      "outputs": [
        {
          "internalType": "address",
          "name": "",
          "type": "address"
        }
      ],
      "stateMutability": "view",
      "type": "function"
    },
    {
      "inputs": [],
      "name": "renounceOwnership",
      "outputs": [],
      "stateMutability": "nonpayable",
      "type": "function"
    },
    {
      "inputs": [
        {
          "internalType": "address",
          "name": "from",
          "type": "address"
        },
        {
          "internalType": "address",
          "name": "to",
          "type": "address"
        },
        {
          "internalType": "uint256",
          "name": "tokenId",
          "type": "uint256"
        }
      ],
      "name": "safeTransferFrom",
      "outputs": [],
      "stateMutability": "nonpayable",
      "type": "function"
    },
    {
      "inputs": [
        {
          "internalType": "address",
          "name": "from",
          "type": "address"
        },
        {
          "internalType": "address",
          "name": "to",
          "type": "address"
        },
        {
          "internalType": "uint256",
          "name": "tokenId",
          "type": "uint256"
        },
        {
          "internalType": "bytes",
          "name": "data",
          "type": "bytes"
        }
      ],
      "name": "safeTransferFrom",
      "outputs": [],
      "stateMutability": "nonpayable",
      "type": "function"
    },
    {
      "inputs": [
        {
          "internalType": "address",
          "name": "operator",
          "type": "address"
        },
        {
          "internalType": "bool",
          "name": "approved",
          "type": "bool"
        }
      ],
      "name": "setApprovalForAll",
      "outputs": [],
      "stateMutability": "nonpayable",
      "type": "function"
    },
    {
      "inputs": [
        {
          "internalType": "bytes4",
          "name": "interfaceId",
          "type": "bytes4"
        }
      ],
      "name": "supportsInterface",
      "outputs": [
        {
          "internalType": "bool",
          "name": "",
          "type": "bool"
        }
      ],
      "stateMutability": "view",
      "type": "function"
    },
    {
      "inputs": [],
      "name": "symbol",
      "outputs": [
        {
          "internalType": "string",
          "name": "",
          "type": "string"
        }
      ],
      "stateMutability": "view",
      "type": "function"
    },
    {
      "inputs": [
        {
          "internalType": "uint256",
          "name": "tokenId",
          "type": "uint256"
        }
      ],
      "name": "tokenURI",
      "outputs": [
        {
          "internalType": "string",
          "name": "",
          "type": "string"
        }
      ],
      "stateMutability": "view",
      "type": "function"
    },
    {
      "inputs": [
        {
          "internalType": "address",
          "name": "from",
          "type": "address"
        },
        {
          "internalType": "address",
          "name": "to",
          "type": "address"
        },
        {
          "internalType": "uint256",
          "name": "tokenId",
          "type": "uint256"
        }
      ],
      "name": "transferFrom",
      "outputs": [],
      "stateMutability": "nonpayable",
      "type": "function"
    },
    {
      "inputs": [
        {
          "internalType": "address",
          "name": "newOwner",
          "type": "address"
        }
      ],
      "name": "transferOwnership",
      "outputs": [],
      "stateMutability": "nonpayable",
      "type": "function"
    }
  ],
  "bytecode": "0x60806040523480156200001157600080fd5b506040518060400160405280600981526020017f4d656c6f6e5f4e465400000000000000000000000000000000000000000000008152506040518060400160405280600781526020017f4d4c4e5f4e46540000000000000000000000000000000000000000000000000081525081600090816200008f919062000412565b508060019081620000a1919062000412565b505050620000c4620000b8620000ca60201b60201c565b620000d260201b60201c565b620004f9565b600033905090565b6000600760009054906101000a900473ffffffffffffffffffffffffffffffffffffffff16905081600760006101000a81548173ffffffffffffffffffffffffffffffffffffffff021916908373ffffffffffffffffffffffffffffffffffffffff1602179055508173ffffffffffffffffffffffffffffffffffffffff168173ffffffffffffffffffffffffffffffffffffffff167f8be0079c531659141344cd1fd0a4f28419497f9722a3daafe3b4186f6b6457e060405160405180910390a35050565b600081519050919050565b7f4e487b7100000000000000000000000000000000000000000000000000000000600052604160045260246000fd5b7f4e487b7100000000000000000000000000000000000000000000000000000000600052602260045260246000fd5b600060028204905060018216806200021a57607f821691505b60208210810362000230576200022f620001d2565b5b50919050565b60008190508160005260206000209050919050565b60006020601f8301049050919050565b600082821b905092915050565b6000600883026200029a7fffffffffffffffffffffffffffffffffffffffffffffffffffffffffffffffff826200025b565b620002a686836200025b565b95508019841693508086168417925050509392505050565b6000819050919050565b6000819050919050565b6000620002f3620002ed620002e784620002be565b620002c8565b620002be565b9050919050565b6000819050919050565b6200030f83620002d2565b620003276200031e82620002fa565b84845462000268565b825550505050565b600090565b6200033e6200032f565b6200034b81848462000304565b505050565b5b8181101562000373576200036760008262000334565b60018101905062000351565b5050565b601f821115620003c2576200038c8162000236565b62000397846200024b565b81016020851015620003a7578190505b620003bf620003b6856200024b565b83018262000350565b50505b505050565b600082821c905092915050565b6000620003e760001984600802620003c7565b1980831691505092915050565b6000620004028383620003d4565b9150826002028217905092915050565b6200041d8262000198565b67ffffffffffffffff811115620004395762000438620001a3565b5b62000445825462000201565b6200045282828562000377565b600060209050601f8311600181146200048a576000841562000475578287015190505b620004818582620003f4565b865550620004f1565b601f1984166200049a8662000236565b60005b82811015620004c4578489015182556001820191506020850194506020810190506200049d565b86831015620004e45784890151620004e0601f891682620003d4565b8355505b6001600288020188555050505b505050505050565b61328b80620005096000396000f3fe608060405234801561001057600080fd5b50600436106101165760003560e01c8063715018a6116100a2578063b88d4fde11610071578063b88d4fde146102cb578063c87b56dd146102e7578063d0def52114610317578063e985e9c514610333578063f2fde38b1461036357610116565b8063715018a6146102695780638da5cb5b1461027357806395d89b4114610291578063a22cb465146102af57610116565b806323b872dd116100e957806323b872dd146101b557806342842e0e146101d157806342966c68146101ed5780636352211e1461020957806370a082311461023957610116565b806301ffc9a71461011b57806306fdde031461014b578063081812fc14610169578063095ea7b314610199575b600080fd5b61013560048036038101906101309190611f73565b61037f565b6040516101429190611fbb565b60405180910390f35b6101536103e0565b6040516101609190612066565b60405180910390f35b610183600480360381019061017e91906120be565b610472565b604051610190919061212c565b60405180910390f35b6101b360048036038101906101ae9190612173565b6104b8565b005b6101cf60048036038101906101ca91906121b3565b6105cf565b005b6101eb60048036038101906101e691906121b3565b61062f565b005b610207600480360381019061020291906120be565b61064f565b005b610223600480360381019061021e91906120be565b6106d1565b604051610230919061212c565b60405180910390f35b610253600480360381019061024e9190612206565b610757565b6040516102609190612242565b60405180910390f35b61027161080e565b005b61027b610822565b604051610288919061212c565b60405180910390f35b61029961084c565b6040516102a69190612066565b60405180910390f35b6102c960048036038101906102c49190612289565b6108de565b005b6102e560048036038101906102e091906123fe565b6108f4565b005b61030160048036038101906102fc91906120be565b610956565b60405161030e9190612066565b60405180910390f35b610331600480360381019061032c9190612522565b610a68565b005b61034d6004803603810190610348919061257e565b610af2565b60405161035a9190611fbb565b60405180910390f35b61037d60048036038101906103789190612206565b610b86565b005b6000634906490660e01b7bffffffffffffffffffffffffffffffffffffffffffffffffffffffff1916827bffffffffffffffffffffffffffffffffffffffffffffffffffffffff191614806103d957506103d882610c09565b5b9050919050565b6060600080546103ef906125ed565b80601f016020809104026020016040519081016040528092919081815260200182805461041b906125ed565b80156104685780601f1061043d57610100808354040283529160200191610468565b820191906000526020600020905b81548152906001019060200180831161044b57829003601f168201915b5050505050905090565b600061047d82610ceb565b6004600083815260200190815260200160002060009054906101000a900473ffffffffffffffffffffffffffffffffffffffff169050919050565b60006104c3826106d1565b90508073ffffffffffffffffffffffffffffffffffffffff168373ffffffffffffffffffffffffffffffffffffffff1603610533576040517f08c379a000000000000000000000000000000000000000000000000000000000815260040161052a90612690565b60405180910390fd5b8073ffffffffffffffffffffffffffffffffffffffff16610552610d36565b73ffffffffffffffffffffffffffffffffffffffff16148061058157506105808161057b610d36565b610af2565b5b6105c0576040517f08c379a00000000000000000000000000000000000000000000000000000000081526004016105b790612722565b60405180910390fd5b6105ca8383610d3e565b505050565b6105e06105da610d36565b82610df7565b61061f576040517f08c379a0000000000000000000000000000000000000000000000000000000008152600401610616906127b4565b60405180910390fd5b61062a838383610e8c565b505050565b61064a838383604051806020016040528060008152506108f4565b505050565b3373ffffffffffffffffffffffffffffffffffffffff1661066f826106d1565b73ffffffffffffffffffffffffffffffffffffffff16146106c5576040517f08c379a00000000000000000000000000000000000000000000000000000000081526004016106bc90612846565b60405180910390fd5b6106ce81611185565b50565b6000806106dd836111d8565b9050600073ffffffffffffffffffffffffffffffffffffffff168173ffffffffffffffffffffffffffffffffffffffff160361074e576040517f08c379a0000000000000000000000000000000000000000000000000000000008152600401610745906128b2565b60405180910390fd5b80915050919050565b60008073ffffffffffffffffffffffffffffffffffffffff168273ffffffffffffffffffffffffffffffffffffffff16036107c7576040517f08c379a00000000000000000000000000000000000000000000000000000000081526004016107be90612944565b60405180910390fd5b600360008373ffffffffffffffffffffffffffffffffffffffff1673ffffffffffffffffffffffffffffffffffffffff168152602001908152602001600020549050919050565b610816611215565b6108206000611293565b565b6000600760009054906101000a900473ffffffffffffffffffffffffffffffffffffffff16905090565b60606001805461085b906125ed565b80601f0160208091040260200160405190810160405280929190818152602001828054610887906125ed565b80156108d45780601f106108a9576101008083540402835291602001916108d4565b820191906000526020600020905b8154815290600101906020018083116108b757829003601f168201915b5050505050905090565b6108f06108e9610d36565b8383611359565b5050565b6109056108ff610d36565b83610df7565b610944576040517f08c379a000000000000000000000000000000000000000000000000000000000815260040161093b906127b4565b60405180910390fd5b610950848484846114c5565b50505050565b606061096182610ceb565b6000600660008481526020019081526020016000208054610981906125ed565b80601f01602080910402602001604051908101604052809291908181526020018280546109ad906125ed565b80156109fa5780601f106109cf576101008083540402835291602001916109fa565b820191906000526020600020905b8154815290600101906020018083116109dd57829003601f168201915b505050505090506000610a0b611521565b90506000815103610a20578192505050610a63565b600082511115610a55578082604051602001610a3d9291906129a0565b60405160208183030381529060405292505050610a63565b610a5e84611538565b925050505b919050565b610a70611215565b600060086000815480929190610a85906129f3565b919050559050610a9583826115a0565b610a9f81836115be565b8273ffffffffffffffffffffffffffffffffffffffff167f1f89f147a58d1673945cf416187db98efc8208408c011b91887acd59fd8523c382604051610ae59190612242565b60405180910390a2505050565b6000600560008473ffffffffffffffffffffffffffffffffffffffff1673ffffffffffffffffffffffffffffffffffffffff16815260200190815260200160002060008373ffffffffffffffffffffffffffffffffffffffff1673ffffffffffffffffffffffffffffffffffffffff16815260200190815260200160002060009054906101000a900460ff16905092915050565b610b8e611215565b600073ffffffffffffffffffffffffffffffffffffffff168173ffffffffffffffffffffffffffffffffffffffff1603610bfd576040517f08c379a0000000000000000000000000000000000000000000000000000000008152600401610bf490612aad565b60405180910390fd5b610c0681611293565b50565b60007f80ac58cd000000000000000000000000000000000000000000000000000000007bffffffffffffffffffffffffffffffffffffffffffffffffffffffff1916827bffffffffffffffffffffffffffffffffffffffffffffffffffffffff19161480610cd457507f5b5e139f000000000000000000000000000000000000000000000000000000007bffffffffffffffffffffffffffffffffffffffffffffffffffffffff1916827bffffffffffffffffffffffffffffffffffffffffffffffffffffffff1916145b80610ce45750610ce382611662565b5b9050919050565b610cf4816116cc565b610d33576040517f08c379a0000000000000000000000000000000000000000000000000000000008152600401610d2a906128b2565b60405180910390fd5b50565b600033905090565b816004600083815260200190815260200160002060006101000a81548173ffffffffffffffffffffffffffffffffffffffff021916908373ffffffffffffffffffffffffffffffffffffffff160217905550808273ffffffffffffffffffffffffffffffffffffffff16610db1836106d1565b73ffffffffffffffffffffffffffffffffffffffff167f8c5be1e5ebec7d5bd14f71427d1e84f3dd0314c0f7b2291e5b200ac8c7c3b92560405160405180910390a45050565b600080610e03836106d1565b90508073ffffffffffffffffffffffffffffffffffffffff168473ffffffffffffffffffffffffffffffffffffffff161480610e455750610e448185610af2565b5b80610e8357508373ffffffffffffffffffffffffffffffffffffffff16610e6b84610472565b73ffffffffffffffffffffffffffffffffffffffff16145b91505092915050565b8273ffffffffffffffffffffffffffffffffffffffff16610eac826106d1565b73ffffffffffffffffffffffffffffffffffffffff1614610f02576040517f08c379a0000000000000000000000000000000000000000000000000000000008152600401610ef990612b3f565b60405180910390fd5b600073ffffffffffffffffffffffffffffffffffffffff168273ffffffffffffffffffffffffffffffffffffffff1603610f71576040517f08c379a0000000000000000000000000000000000000000000000000000000008152600401610f6890612bd1565b60405180910390fd5b610f7e838383600161170d565b8273ffffffffffffffffffffffffffffffffffffffff16610f9e826106d1565b73ffffffffffffffffffffffffffffffffffffffff1614610ff4576040517f08c379a0000000000000000000000000000000000000000000000000000000008152600401610feb90612b3f565b60405180910390fd5b6004600082815260200190815260200160002060006101000a81549073ffffffffffffffffffffffffffffffffffffffff02191690556001600360008573ffffffffffffffffffffffffffffffffffffffff1673ffffffffffffffffffffffffffffffffffffffff168152602001908152602001600020600082825403925050819055506001600360008473ffffffffffffffffffffffffffffffffffffffff1673ffffffffffffffffffffffffffffffffffffffff16815260200190815260200160002060008282540192505081905550816002600083815260200190815260200160002060006101000a81548173ffffffffffffffffffffffffffffffffffffffff021916908373ffffffffffffffffffffffffffffffffffffffff160217905550808273ffffffffffffffffffffffffffffffffffffffff168473ffffffffffffffffffffffffffffffffffffffff167fddf252ad1be2c89b69c2b068fc378daa952ba7f163c4a11628f55a4df523b3ef60405160405180910390a46111808383836001611713565b505050565b61118e81611719565b60006006600083815260200190815260200160002080546111ae906125ed565b9050146111d5576006600082815260200190815260200160002060006111d49190611eaa565b5b50565b60006002600083815260200190815260200160002060009054906101000a900473ffffffffffffffffffffffffffffffffffffffff169050919050565b61121d610d36565b73ffffffffffffffffffffffffffffffffffffffff1661123b610822565b73ffffffffffffffffffffffffffffffffffffffff1614611291576040517f08c379a000000000000000000000000000000000000000000000000000000000815260040161128890612c3d565b60405180910390fd5b565b6000600760009054906101000a900473ffffffffffffffffffffffffffffffffffffffff16905081600760006101000a81548173ffffffffffffffffffffffffffffffffffffffff021916908373ffffffffffffffffffffffffffffffffffffffff1602179055508173ffffffffffffffffffffffffffffffffffffffff168173ffffffffffffffffffffffffffffffffffffffff167f8be0079c531659141344cd1fd0a4f28419497f9722a3daafe3b4186f6b6457e060405160405180910390a35050565b8173ffffffffffffffffffffffffffffffffffffffff168373ffffffffffffffffffffffffffffffffffffffff16036113c7576040517f08c379a00000000000000000000000000000000000000000000000000000000081526004016113be90612ca9565b60405180910390fd5b80600560008573ffffffffffffffffffffffffffffffffffffffff1673ffffffffffffffffffffffffffffffffffffffff16815260200190815260200160002060008473ffffffffffffffffffffffffffffffffffffffff1673ffffffffffffffffffffffffffffffffffffffff16815260200190815260200160002060006101000a81548160ff0219169083151502179055508173ffffffffffffffffffffffffffffffffffffffff168373ffffffffffffffffffffffffffffffffffffffff167f17307eab39ab6107e8899845ad3d59bd9653f200f220920489ca2b5937696c31836040516114b89190611fbb565b60405180910390a3505050565b6114d0848484610e8c565b6114dc84848484611867565b61151b576040517f08c379a000000000000000000000000000000000000000000000000000000000815260040161151290612d3b565b60405180910390fd5b50505050565b606060405180602001604052806000815250905090565b606061154382610ceb565b600061154d611521565b9050600081511161156d5760405180602001604052806000815250611598565b80611577846119ee565b6040516020016115889291906129a0565b6040516020818303038152906040525b915050919050565b6115ba828260405180602001604052806000815250611abc565b5050565b6115c7826116cc565b611606576040517f08c379a00000000000000000000000000000000000000000000000000000000081526004016115fd90612dcd565b60405180910390fd5b806006600084815260200190815260200160002090816116269190612f99565b507ff8e1a15aba9398e019f0b49df1a4fde98ee17ae345cb5f6b5e2c27f5033e8ce7826040516116569190612242565b60405180910390a15050565b60007f01ffc9a7000000000000000000000000000000000000000000000000000000007bffffffffffffffffffffffffffffffffffffffffffffffffffffffff1916827bffffffffffffffffffffffffffffffffffffffffffffffffffffffff1916149050919050565b60008073ffffffffffffffffffffffffffffffffffffffff166116ee836111d8565b73ffffffffffffffffffffffffffffffffffffffff1614159050919050565b50505050565b50505050565b6000611724826106d1565b905061173481600084600161170d565b61173d826106d1565b90506004600083815260200190815260200160002060006101000a81549073ffffffffffffffffffffffffffffffffffffffff02191690556001600360008373ffffffffffffffffffffffffffffffffffffffff1673ffffffffffffffffffffffffffffffffffffffff168152602001908152602001600020600082825403925050819055506002600083815260200190815260200160002060006101000a81549073ffffffffffffffffffffffffffffffffffffffff021916905581600073ffffffffffffffffffffffffffffffffffffffff168273ffffffffffffffffffffffffffffffffffffffff167fddf252ad1be2c89b69c2b068fc378daa952ba7f163c4a11628f55a4df523b3ef60405160405180910390a4611863816000846001611713565b5050565b60006118888473ffffffffffffffffffffffffffffffffffffffff16611b17565b156119e1578373ffffffffffffffffffffffffffffffffffffffff1663150b7a026118b1610d36565b8786866040518563ffffffff1660e01b81526004016118d394939291906130c0565b6020604051808303816000875af192505050801561190f57506040513d601f19601f8201168201806040525081019061190c9190613121565b60015b611991573d806000811461193f576040519150601f19603f3d011682016040523d82523d6000602084013e611944565b606091505b506000815103611989576040517f08c379a000000000000000000000000000000000000000000000000000000000815260040161198090612d3b565b60405180910390fd5b805181602001fd5b63150b7a0260e01b7bffffffffffffffffffffffffffffffffffffffffffffffffffffffff1916817bffffffffffffffffffffffffffffffffffffffffffffffffffffffff1916149150506119e6565b600190505b949350505050565b6060600060016119fd84611b3a565b01905060008167ffffffffffffffff811115611a1c57611a1b6122d3565b5b6040519080825280601f01601f191660200182016040528015611a4e5781602001600182028036833780820191505090505b509050600082602001820190505b600115611ab1578080600190039150507f3031323334353637383961626364656600000000000000000000000000000000600a86061a8153600a8581611aa557611aa461314e565b5b04945060008503611a5c575b819350505050919050565b611ac68383611c8d565b611ad36000848484611867565b611b12576040517f08c379a0000000000000000000000000000000000000000000000000000000008152600401611b0990612d3b565b60405180910390fd5b505050565b6000808273ffffffffffffffffffffffffffffffffffffffff163b119050919050565b600080600090507a184f03e93ff9f4daa797ed6e38ed64bf6a1f0100000000000000008310611b98577a184f03e93ff9f4daa797ed6e38ed64bf6a1f0100000000000000008381611b8e57611b8d61314e565b5b0492506040810190505b6d04ee2d6d415b85acef81000000008310611bd5576d04ee2d6d415b85acef81000000008381611bcb57611bca61314e565b5b0492506020810190505b662386f26fc100008310611c0457662386f26fc100008381611bfa57611bf961314e565b5b0492506010810190505b6305f5e1008310611c2d576305f5e1008381611c2357611c2261314e565b5b0492506008810190505b6127108310611c52576127108381611c4857611c4761314e565b5b0492506004810190505b60648310611c755760648381611c6b57611c6a61314e565b5b0492506002810190505b600a8310611c84576001810190505b80915050919050565b600073ffffffffffffffffffffffffffffffffffffffff168273ffffffffffffffffffffffffffffffffffffffff1603611cfc576040517f08c379a0000000000000000000000000000000000000000000000000000000008152600401611cf3906131c9565b60405180910390fd5b611d05816116cc565b15611d45576040517f08c379a0000000000000000000000000000000000000000000000000000000008152600401611d3c90613235565b60405180910390fd5b611d5360008383600161170d565b611d5c816116cc565b15611d9c576040517f08c379a0000000000000000000000000000000000000000000000000000000008152600401611d9390613235565b60405180910390fd5b6001600360008473ffffffffffffffffffffffffffffffffffffffff1673ffffffffffffffffffffffffffffffffffffffff16815260200190815260200160002060008282540192505081905550816002600083815260200190815260200160002060006101000a81548173ffffffffffffffffffffffffffffffffffffffff021916908373ffffffffffffffffffffffffffffffffffffffff160217905550808273ffffffffffffffffffffffffffffffffffffffff16600073ffffffffffffffffffffffffffffffffffffffff167fddf252ad1be2c89b69c2b068fc378daa952ba7f163c4a11628f55a4df523b3ef60405160405180910390a4611ea6600083836001611713565b5050565b508054611eb6906125ed565b6000825580601f10611ec85750611ee7565b601f016020900490600052602060002090810190611ee69190611eea565b5b50565b5b80821115611f03576000816000905550600101611eeb565b5090565b6000604051905090565b600080fd5b600080fd5b60007fffffffff0000000000000000000000000000000000000000000000000000000082169050919050565b611f5081611f1b565b8114611f5b57600080fd5b50565b600081359050611f6d81611f47565b92915050565b600060208284031215611f8957611f88611f11565b5b6000611f9784828501611f5e565b91505092915050565b60008115159050919050565b611fb581611fa0565b82525050565b6000602082019050611fd06000830184611fac565b92915050565b600081519050919050565b600082825260208201905092915050565b60005b83811015612010578082015181840152602081019050611ff5565b60008484015250505050565b6000601f19601f8301169050919050565b600061203882611fd6565b6120428185611fe1565b9350612052818560208601611ff2565b61205b8161201c565b840191505092915050565b60006020820190508181036000830152612080818461202d565b905092915050565b6000819050919050565b61209b81612088565b81146120a657600080fd5b50565b6000813590506120b881612092565b92915050565b6000602082840312156120d4576120d3611f11565b5b60006120e2848285016120a9565b91505092915050565b600073ffffffffffffffffffffffffffffffffffffffff82169050919050565b6000612116826120eb565b9050919050565b6121268161210b565b82525050565b6000602082019050612141600083018461211d565b92915050565b6121508161210b565b811461215b57600080fd5b50565b60008135905061216d81612147565b92915050565b6000806040838503121561218a57612189611f11565b5b60006121988582860161215e565b92505060206121a9858286016120a9565b9150509250929050565b6000806000606084860312156121cc576121cb611f11565b5b60006121da8682870161215e565b93505060206121eb8682870161215e565b92505060406121fc868287016120a9565b9150509250925092565b60006020828403121561221c5761221b611f11565b5b600061222a8482850161215e565b91505092915050565b61223c81612088565b82525050565b60006020820190506122576000830184612233565b92915050565b61226681611fa0565b811461227157600080fd5b50565b6000813590506122838161225d565b92915050565b600080604083850312156122a05761229f611f11565b5b60006122ae8582860161215e565b92505060206122bf85828601612274565b9150509250929050565b600080fd5b600080fd5b7f4e487b7100000000000000000000000000000000000000000000000000000000600052604160045260246000fd5b61230b8261201c565b810181811067ffffffffffffffff8211171561232a576123296122d3565b5b80604052505050565b600061233d611f07565b90506123498282612302565b919050565b600067ffffffffffffffff821115612369576123686122d3565b5b6123728261201c565b9050602081019050919050565b82818337600083830152505050565b60006123a161239c8461234e565b612333565b9050828152602081018484840111156123bd576123bc6122ce565b5b6123c884828561237f565b509392505050565b600082601f8301126123e5576123e46122c9565b5b81356123f584826020860161238e565b91505092915050565b6000806000806080858703121561241857612417611f11565b5b60006124268782880161215e565b94505060206124378782880161215e565b9350506040612448878288016120a9565b925050606085013567ffffffffffffffff81111561246957612468611f16565b5b612475878288016123d0565b91505092959194509250565b600067ffffffffffffffff82111561249c5761249b6122d3565b5b6124a58261201c565b9050602081019050919050565b60006124c56124c084612481565b612333565b9050828152602081018484840111156124e1576124e06122ce565b5b6124ec84828561237f565b509392505050565b600082601f830112612509576125086122c9565b5b81356125198482602086016124b2565b91505092915050565b6000806040838503121561253957612538611f11565b5b60006125478582860161215e565b925050602083013567ffffffffffffffff81111561256857612567611f16565b5b612574858286016124f4565b9150509250929050565b6000806040838503121561259557612594611f11565b5b60006125a38582860161215e565b92505060206125b48582860161215e565b9150509250929050565b7f4e487b7100000000000000000000000000000000000000000000000000000000600052602260045260246000fd5b6000600282049050600182168061260557607f821691505b602082108103612618576126176125be565b5b50919050565b7f4552433732313a20617070726f76616c20746f2063757272656e74206f776e6560008201527f7200000000000000000000000000000000000000000000000000000000000000602082015250565b600061267a602183611fe1565b91506126858261261e565b604082019050919050565b600060208201905081810360008301526126a98161266d565b9050919050565b7f4552433732313a20617070726f76652063616c6c6572206973206e6f7420746f60008201527f6b656e206f776e6572206f7220617070726f76656420666f7220616c6c000000602082015250565b600061270c603d83611fe1565b9150612717826126b0565b604082019050919050565b6000602082019050818103600083015261273b816126ff565b9050919050565b7f4552433732313a2063616c6c6572206973206e6f7420746f6b656e206f776e6560008201527f72206f7220617070726f76656400000000000000000000000000000000000000602082015250565b600061279e602d83611fe1565b91506127a982612742565b604082019050919050565b600060208201905081810360008301526127cd81612791565b9050919050565b7f596f7520617265206e6f7420746865206f776e6572206f66207468697320746f60008201527f6b656e0000000000000000000000000000000000000000000000000000000000602082015250565b6000612830602383611fe1565b915061283b826127d4565b604082019050919050565b6000602082019050818103600083015261285f81612823565b9050919050565b7f4552433732313a20696e76616c696420746f6b656e2049440000000000000000600082015250565b600061289c601883611fe1565b91506128a782612866565b602082019050919050565b600060208201905081810360008301526128cb8161288f565b9050919050565b7f4552433732313a2061646472657373207a65726f206973206e6f74206120766160008201527f6c6964206f776e65720000000000000000000000000000000000000000000000602082015250565b600061292e602983611fe1565b9150612939826128d2565b604082019050919050565b6000602082019050818103600083015261295d81612921565b9050919050565b600081905092915050565b600061297a82611fd6565b6129848185612964565b9350612994818560208601611ff2565b80840191505092915050565b60006129ac828561296f565b91506129b8828461296f565b91508190509392505050565b7f4e487b7100000000000000000000000000000000000000000000000000000000600052601160045260246000fd5b60006129fe82612088565b91507fffffffffffffffffffffffffffffffffffffffffffffffffffffffffffffffff8203612a3057612a2f6129c4565b5b600182019050919050565b7f4f776e61626c653a206e6577206f776e657220697320746865207a65726f206160008201527f6464726573730000000000000000000000000000000000000000000000000000602082015250565b6000612a97602683611fe1565b9150612aa282612a3b565b604082019050919050565b60006020820190508181036000830152612ac681612a8a565b9050919050565b7f4552433732313a207472616e736665722066726f6d20696e636f72726563742060008201527f6f776e6572000000000000000000000000000000000000000000000000000000602082015250565b6000612b29602583611fe1565b9150612b3482612acd565b604082019050919050565b60006020820190508181036000830152612b5881612b1c565b9050919050565b7f4552433732313a207472616e7366657220746f20746865207a65726f2061646460008201527f7265737300000000000000000000000000000000000000000000000000000000602082015250565b6000612bbb602483611fe1565b9150612bc682612b5f565b604082019050919050565b60006020820190508181036000830152612bea81612bae565b9050919050565b7f4f776e61626c653a2063616c6c6572206973206e6f7420746865206f776e6572600082015250565b6000612c27602083611fe1565b9150612c3282612bf1565b602082019050919050565b60006020820190508181036000830152612c5681612c1a565b9050919050565b7f4552433732313a20617070726f766520746f2063616c6c657200000000000000600082015250565b6000612c93601983611fe1565b9150612c9e82612c5d565b602082019050919050565b60006020820190508181036000830152612cc281612c86565b9050919050565b7f4552433732313a207472616e7366657220746f206e6f6e20455243373231526560008201527f63656976657220696d706c656d656e7465720000000000000000000000000000602082015250565b6000612d25603283611fe1565b9150612d3082612cc9565b604082019050919050565b60006020820190508181036000830152612d5481612d18565b9050919050565b7f45524337323155524953746f726167653a2055524920736574206f66206e6f6e60008201527f6578697374656e7420746f6b656e000000000000000000000000000000000000602082015250565b6000612db7602e83611fe1565b9150612dc282612d5b565b604082019050919050565b60006020820190508181036000830152612de681612daa565b9050919050565b60008190508160005260206000209050919050565b60006020601f8301049050919050565b600082821b905092915050565b600060088302612e4f7fffffffffffffffffffffffffffffffffffffffffffffffffffffffffffffffff82612e12565b612e598683612e12565b95508019841693508086168417925050509392505050565b6000819050919050565b6000612e96612e91612e8c84612088565b612e71565b612088565b9050919050565b6000819050919050565b612eb083612e7b565b612ec4612ebc82612e9d565b848454612e1f565b825550505050565b600090565b612ed9612ecc565b612ee4818484612ea7565b505050565b5b81811015612f0857612efd600082612ed1565b600181019050612eea565b5050565b601f821115612f4d57612f1e81612ded565b612f2784612e02565b81016020851015612f36578190505b612f4a612f4285612e02565b830182612ee9565b50505b505050565b600082821c905092915050565b6000612f7060001984600802612f52565b1980831691505092915050565b6000612f898383612f5f565b9150826002028217905092915050565b612fa282611fd6565b67ffffffffffffffff811115612fbb57612fba6122d3565b5b612fc582546125ed565b612fd0828285612f0c565b600060209050601f8311600181146130035760008415612ff1578287015190505b612ffb8582612f7d565b865550613063565b601f19841661301186612ded565b60005b8281101561303957848901518255600182019150602085019450602081019050613014565b868310156130565784890151613052601f891682612f5f565b8355505b6001600288020188555050505b505050505050565b600081519050919050565b600082825260208201905092915050565b60006130928261306b565b61309c8185613076565b93506130ac818560208601611ff2565b6130b58161201c565b840191505092915050565b60006080820190506130d5600083018761211d565b6130e2602083018661211d565b6130ef6040830185612233565b81810360608301526131018184613087565b905095945050505050565b60008151905061311b81611f47565b92915050565b60006020828403121561313757613136611f11565b5b60006131458482850161310c565b91505092915050565b7f4e487b7100000000000000000000000000000000000000000000000000000000600052601260045260246000fd5b7f4552433732313a206d696e7420746f20746865207a65726f2061646472657373600082015250565b60006131b3602083611fe1565b91506131be8261317d565b602082019050919050565b600060208201905081810360008301526131e2816131a6565b9050919050565b7f4552433732313a20746f6b656e20616c7265616479206d696e74656400000000600082015250565b600061321f601c83611fe1565b915061322a826131e9565b602082019050919050565b6000602082019050818103600083015261324e81613212565b905091905056fea26469706673582212206e1f43c93168735740317aae08479cad40ef370523c98f19fbb31d0bb055c16e64736f6c63430008180033",
  "linkReferences": {},
  "deployedLinkReferences": {}
}