{
	"contracts/Proposal.sol": {
		"Proposal": {
			"abi": [
				{
					"inputs": [
						{
							"internalType": "address",
							"name": "user",
							"type": "address"
						},
						{
							"internalType": "uint256",
							"name": "availableBalance",
							"type": "uint256"
						}
					],
					"name": "InsufficientBalance",
					"type": "error"
				},
				{
					"inputs": [
						{
							"internalType": "address",
							"name": "account",
							"type": "address"
						}
					],
					"name": "OwnableUnauthorizedAccount",
					"type": "error"
				},
				{
					"anonymous": false,
					"inputs": [
						{
							"indexed": false,
							"internalType": "address",
							"name": "previousAdmin",
							"type": "address"
						},
						{
							"indexed": false,
							"internalType": "address",
							"name": "newAdmin",
							"type": "address"
						}
					],
					"name": "AdminChanged",
					"type": "event"
				},
				{
					"anonymous": false,
					"inputs": [
						{
							"indexed": true,
							"internalType": "address",
							"name": "beacon",
							"type": "address"
						}
					],
					"name": "BeaconUpgraded",
					"type": "event"
				},
				{
					"anonymous": false,
					"inputs": [
						{
							"indexed": true,
							"internalType": "address",
							"name": "founder",
							"type": "address"
						},
						{
							"indexed": true,
							"internalType": "uint256",
							"name": "id",
							"type": "uint256"
						},
						{
							"indexed": false,
							"internalType": "string[]",
							"name": "options",
							"type": "string[]"
						}
					],
					"name": "CreateProposal",
					"type": "event"
				},
				{
					"anonymous": false,
					"inputs": [
						{
							"indexed": true,
							"internalType": "address",
							"name": "user",
							"type": "address"
						},
						{
							"indexed": false,
							"internalType": "uint256",
							"name": "amount",
							"type": "uint256"
						}
					],
					"name": "Deposited",
					"type": "event"
				},
				{
					"anonymous": false,
					"inputs": [
						{
							"indexed": true,
							"internalType": "address",
							"name": "user",
							"type": "address"
						},
						{
							"indexed": false,
							"internalType": "uint256",
							"name": "points",
							"type": "uint256"
						}
					],
					"name": "ExchangePoints",
					"type": "event"
				},
				{
					"anonymous": false,
					"inputs": [
						{
							"indexed": false,
							"internalType": "uint8",
							"name": "version",
							"type": "uint8"
						}
					],
					"name": "Initialized",
					"type": "event"
				},
				{
					"anonymous": false,
					"inputs": [
						{
							"indexed": true,
							"internalType": "uint256",
							"name": "proposalId",
							"type": "uint256"
						},
						{
							"indexed": false,
							"internalType": "address[]",
							"name": "jurors",
							"type": "address[]"
						},
						{
							"indexed": false,
							"internalType": "uint256",
							"name": "reward",
							"type": "uint256"
						},
						{
							"indexed": false,
							"internalType": "uint256",
							"name": "rewardPerJuror",
							"type": "uint256"
						}
					],
					"name": "JurorsDistributeRewards",
					"type": "event"
				},
				{
					"anonymous": false,
					"inputs": [
						{
							"indexed": true,
							"internalType": "uint256",
							"name": "proposalId",
							"type": "uint256"
						},
						{
							"indexed": false,
							"internalType": "uint256",
							"name": "winOptionId",
							"type": "uint256"
						}
					],
					"name": "ProposalRefunded",
					"type": "event"
				},
				{
					"anonymous": false,
					"inputs": [
						{
							"indexed": true,
							"internalType": "address",
							"name": "voter",
							"type": "address"
						},
						{
							"indexed": false,
							"internalType": "uint256",
							"name": "proposalId",
							"type": "uint256"
						},
						{
							"indexed": false,
							"internalType": "int256",
							"name": "amount",
							"type": "int256"
						}
					],
					"name": "ProposalSettle",
					"type": "event"
				},
				{
					"anonymous": false,
					"inputs": [
						{
							"indexed": true,
							"internalType": "address",
							"name": "implementation",
							"type": "address"
						}
					],
					"name": "Upgraded",
					"type": "event"
				},
				{
					"anonymous": false,
					"inputs": [
						{
							"indexed": true,
							"internalType": "address",
							"name": "_address",
							"type": "address"
						},
						{
							"indexed": true,
							"internalType": "uint256",
							"name": "_proposalId",
							"type": "uint256"
						},
						{
							"indexed": true,
							"internalType": "uint256",
							"name": "_optionId",
							"type": "uint256"
						},
						{
							"indexed": false,
							"internalType": "uint256",
							"name": "_amount",
							"type": "uint256"
						}
					],
					"name": "Voted",
					"type": "event"
				},
				{
					"anonymous": false,
					"inputs": [
						{
							"indexed": true,
							"internalType": "address",
							"name": "user",
							"type": "address"
						},
						{
							"indexed": false,
							"internalType": "uint256",
							"name": "amount",
							"type": "uint256"
						},
						{
							"indexed": false,
							"internalType": "uint256",
							"name": "balance",
							"type": "uint256"
						}
					],
					"name": "Withdraw",
					"type": "event"
				},
				{
					"inputs": [
						{
							"internalType": "address",
							"name": "",
							"type": "address"
						}
					],
					"name": "balances",
					"outputs": [
						{
							"internalType": "uint256",
							"name": "",
							"type": "uint256"
						}
					],
					"stateMutability": "view",
					"type": "function"
				},
				{
					"inputs": [
						{
							"internalType": "string[]",
							"name": "optionDescs",
							"type": "string[]"
						}
					],
					"name": "create",
					"outputs": [],
					"stateMutability": "nonpayable",
					"type": "function"
				},
				{
					"inputs": [
						{
							"internalType": "uint256",
							"name": "amount",
							"type": "uint256"
						}
					],
					"name": "deposit",
					"outputs": [
						{
							"internalType": "uint256",
							"name": "",
							"type": "uint256"
						}
					],
					"stateMutability": "nonpayable",
					"type": "function"
				},
				{
					"inputs": [
						{
							"internalType": "uint256",
							"name": "points",
							"type": "uint256"
						}
					],
					"name": "exchangePoints",
					"outputs": [],
					"stateMutability": "nonpayable",
					"type": "function"
				},
				{
					"inputs": [
						{
							"internalType": "address",
							"name": "user",
							"type": "address"
						}
					],
					"name": "getAvailableBalance",
					"outputs": [
						{
							"internalType": "uint256",
							"name": "",
							"type": "uint256"
						}
					],
					"stateMutability": "view",
					"type": "function"
				},
				{
					"inputs": [
						{
							"internalType": "uint256",
							"name": "proposalId",
							"type": "uint256"
						}
					],
					"name": "getDetails",
					"outputs": [
						{
							"internalType": "address",
							"name": "founder",
							"type": "address"
						},
						{
							"internalType": "string[]",
							"name": "optionDescription",
							"type": "string[]"
						},
						{
							"internalType": "uint256[]",
							"name": "counts",
							"type": "uint256[]"
						},
						{
							"internalType": "uint256[]",
							"name": "voters",
							"type": "uint256[]"
						},
						{
							"internalType": "uint256",
							"name": "allVotesCast",
							"type": "uint256"
						},
						{
							"internalType": "uint256",
							"name": "allVoters",
							"type": "uint256"
						}
					],
					"stateMutability": "view",
					"type": "function"
				},
				{
					"inputs": [
						{
							"internalType": "address",
							"name": "tokenAddr",
							"type": "address"
						}
					],
					"name": "initialize",
					"outputs": [],
					"stateMutability": "nonpayable",
					"type": "function"
				},
				{
					"inputs": [],
					"name": "logicAddress",
					"outputs": [
						{
							"internalType": "address",
							"name": "",
							"type": "address"
						}
					],
					"stateMutability": "view",
					"type": "function"
				},
				{
					"inputs": [],
					"name": "mlnTokenAddr",
					"outputs": [
						{
							"internalType": "address",
							"name": "",
							"type": "address"
						}
					],
					"stateMutability": "view",
					"type": "function"
				},
				{
					"inputs": [],
					"name": "owner",
					"outputs": [
						{
							"internalType": "address",
							"name": "",
							"type": "address"
						}
					],
					"stateMutability": "view",
					"type": "function"
				},
				{
					"inputs": [
						{
							"internalType": "uint256",
							"name": "",
							"type": "uint256"
						}
					],
					"name": "proposalInfos",
					"outputs": [
						{
							"internalType": "address",
							"name": "founder",
							"type": "address"
						}
					],
					"stateMutability": "view",
					"type": "function"
				},
				{
					"inputs": [
						{
							"internalType": "uint256",
							"name": "",
							"type": "uint256"
						},
						{
							"internalType": "uint256",
							"name": "",
							"type": "uint256"
						},
						{
							"internalType": "uint256",
							"name": "",
							"type": "uint256"
						}
					],
					"name": "proposalVotingSituation",
					"outputs": [
						{
							"internalType": "address",
							"name": "user",
							"type": "address"
						},
						{
							"internalType": "uint256",
							"name": "amount",
							"type": "uint256"
						}
					],
					"stateMutability": "view",
					"type": "function"
				},
				{
					"inputs": [],
					"name": "proxiableUUID",
					"outputs": [
						{
							"internalType": "bytes32",
							"name": "",
							"type": "bytes32"
						}
					],
					"stateMutability": "view",
					"type": "function"
				},
				{
					"inputs": [
						{
							"internalType": "uint256",
							"name": "proposalId",
							"type": "uint256"
						},
						{
							"internalType": "uint256",
							"name": "winOptionId",
							"type": "uint256"
						},
						{
							"internalType": "address[]",
							"name": "jurors",
							"type": "address[]"
						}
					],
					"name": "settle",
					"outputs": [],
					"stateMutability": "nonpayable",
					"type": "function"
				},
				{
					"inputs": [
						{
							"internalType": "address",
							"name": "newImplementation",
							"type": "address"
						}
					],
					"name": "upgradeTo",
					"outputs": [],
					"stateMutability": "nonpayable",
					"type": "function"
				},
				{
					"inputs": [
						{
							"internalType": "address",
							"name": "newImplementation",
							"type": "address"
						},
						{
							"internalType": "bytes",
							"name": "data",
							"type": "bytes"
						}
					],
					"name": "upgradeToAndCall",
					"outputs": [],
					"stateMutability": "payable",
					"type": "function"
				},
				{
					"inputs": [
						{
							"internalType": "uint256",
							"name": "",
							"type": "uint256"
						},
						{
							"internalType": "address",
							"name": "",
							"type": "address"
						}
					],
					"name": "userProposalResults",
					"outputs": [
						{
							"internalType": "int256",
							"name": "",
							"type": "int256"
						}
					],
					"stateMutability": "view",
					"type": "function"
				},
				{
					"inputs": [
						{
							"internalType": "uint256",
							"name": "proposalId",
							"type": "uint256"
						},
						{
							"internalType": "uint256",
							"name": "optionId",
							"type": "uint256"
						},
						{
							"internalType": "uint256",
							"name": "amount",
							"type": "uint256"
						}
					],
					"name": "vote",
					"outputs": [],
					"stateMutability": "nonpayable",
					"type": "function"
				},
				{
					"inputs": [
						{
							"internalType": "address",
							"name": "",
							"type": "address"
						}
					],
					"name": "votingLock",
					"outputs": [
						{
							"internalType": "uint256",
							"name": "",
							"type": "uint256"
						}
					],
					"stateMutability": "view",
					"type": "function"
				},
				{
					"inputs": [
						{
							"internalType": "uint256",
							"name": "",
							"type": "uint256"
						}
					],
					"name": "winningOption",
					"outputs": [
						{
							"internalType": "uint256",
							"name": "",
							"type": "uint256"
						}
					],
					"stateMutability": "view",
					"type": "function"
				},
				{
					"inputs": [
						{
							"internalType": "uint256",
							"name": "amount",
							"type": "uint256"
						}
					],
					"name": "withdraw",
					"outputs": [],
					"stateMutability": "nonpayable",
					"type": "function"
				}
			],
			"devdoc": {
				"events": {
					"AdminChanged(address,address)": {
						"details": "Emitted when the admin account has changed."
					},
					"BeaconUpgraded(address)": {
						"details": "Emitted when the beacon is changed."
					},
					"Initialized(uint8)": {
						"details": "Triggered when the contract has been initialized or reinitialized."
					},
					"Upgraded(address)": {
						"details": "Emitted when the implementation is upgraded."
					}
				},
				"kind": "dev",
				"methods": {
					"proxiableUUID()": {
						"details": "Implementation of the ERC1822 {proxiableUUID} function. This returns the storage slot used by the implementation. It is used to validate the implementation's compatibility when performing an upgrade. IMPORTANT: A proxy pointing at a proxiable contract should not be considered proxiable itself, because this risks bricking a proxy that upgrades to it, by delegating to itself until out of gas. Thus it is critical that this function revert if invoked through a proxy. This is guaranteed by the `notDelegated` modifier."
					},
					"upgradeTo(address)": {
						"custom:oz-upgrades-unsafe-allow-reachable": "delegatecall",
						"details": "Upgrade the implementation of the proxy to `newImplementation`. Calls {_authorizeUpgrade}. Emits an {Upgraded} event."
					},
					"upgradeToAndCall(address,bytes)": {
						"custom:oz-upgrades-unsafe-allow-reachable": "delegatecall",
						"details": "Upgrade the implementation of the proxy to `newImplementation`, and subsequently execute the function call encoded in `data`. Calls {_authorizeUpgrade}. Emits an {Upgraded} event."
					}
				},
				"version": 1
			},
			"evm": {
				"assembly": "    /* \"contracts/Proposal.sol\":245:10705  contract Proposal is Initializable, UUPSUpgradeable {... */\n  mstore(0x40, 0xa0)\n    /* \"@openzeppelin/contracts/proxy/utils/UUPSUpgradeable.sol\":1088:1092  this */\n  address\n    /* \"@openzeppelin/contracts/proxy/utils/UUPSUpgradeable.sol\":1045:1093  address private immutable __self = address(this) */\n  0xffffffffffffffffffffffffffffffffffffffff\n  and\n  0x80\n  swap1\n  0xffffffffffffffffffffffffffffffffffffffff\n  and\n  dup2\n  mstore\n  pop\n    /* \"contracts/Proposal.sol\":245:10705  contract Proposal is Initializable, UUPSUpgradeable {... */\n  callvalue\n  dup1\n  iszero\n  tag_1\n  jumpi\n  0x00\n  dup1\n  revert\ntag_1:\n  pop\n  mload(0x80)\n  codecopy(0x00, dataOffset(sub_0), dataSize(sub_0))\n  0x00\n  assignImmutable(\"0x26253e4b9754d7b70fa53c504adf7cef3bf444a45077af864d39a1233fe15035\")\n  return(0x00, dataSize(sub_0))\nstop\n\nsub_0: assembly {\n        /* \"contracts/Proposal.sol\":245:10705  contract Proposal is Initializable, UUPSUpgradeable {... */\n      mstore(0x40, 0x80)\n      jumpi(tag_1, lt(calldatasize, 0x04))\n      shr(0xe0, calldataload(0x00))\n      dup1\n      0x8a6655d6\n      gt\n      tag_23\n      jumpi\n      dup1\n      0xb511328d\n      gt\n      tag_24\n      jumpi\n      dup1\n      0xb511328d\n      eq\n      tag_17\n      jumpi\n      dup1\n      0xb6b55f25\n      eq\n      tag_18\n      jumpi\n      dup1\n      0xb93a89f7\n      eq\n      tag_19\n      jumpi\n      dup1\n      0xbdd69096\n      eq\n      tag_20\n      jumpi\n      dup1\n      0xc3a0aba8\n      eq\n      tag_21\n      jumpi\n      dup1\n      0xc4d66de8\n      eq\n      tag_22\n      jumpi\n      jump(tag_1)\n    tag_24:\n      dup1\n      0x8a6655d6\n      eq\n      tag_12\n      jumpi\n      dup1\n      0x8da5cb5b\n      eq\n      tag_13\n      jumpi\n      dup1\n      0x9b6f67be\n      eq\n      tag_14\n      jumpi\n      dup1\n      0x9c1fcc4c\n      eq\n      tag_15\n      jumpi\n      dup1\n      0xb00673bc\n      eq\n      tag_16\n      jumpi\n      jump(tag_1)\n    tag_23:\n      dup1\n      0x45071c71\n      gt\n      tag_25\n      jumpi\n      dup1\n      0x45071c71\n      eq\n      tag_7\n      jumpi\n      dup1\n      0x4f1ef286\n      eq\n      tag_8\n      jumpi\n      dup1\n      0x52d1902d\n      eq\n      tag_9\n      jumpi\n      dup1\n      0x6c24a76f\n      eq\n      tag_10\n      jumpi\n      dup1\n      0x7c7b66f7\n      eq\n      tag_11\n      jumpi\n      jump(tag_1)\n    tag_25:\n      dup1\n      0x0c7353e0\n      eq\n      tag_2\n      jumpi\n      dup1\n      0x0dca7ed8\n      eq\n      tag_3\n      jumpi\n      dup1\n      0x27e235e3\n      eq\n      tag_4\n      jumpi\n      dup1\n      0x2e1a7d4d\n      eq\n      tag_5\n      jumpi\n      dup1\n      0x3659cfe6\n      eq\n      tag_6\n      jumpi\n    tag_1:\n      0x00\n      dup1\n      revert\n        /* \"contracts/Proposal.sol\":2045:2118  mapping(uint256 => mapping(address => int256)) public userProposalResults */\n    tag_2:\n      callvalue\n      dup1\n      iszero\n      tag_26\n      jumpi\n      0x00\n      dup1\n      revert\n    tag_26:\n      pop\n      tag_27\n      0x04\n      dup1\n      calldatasize\n      sub\n      dup2\n      add\n      swap1\n      tag_28\n      swap2\n      swap1\n      tag_29\n      jump\t// in\n    tag_28:\n      tag_30\n      jump\t// in\n    tag_27:\n      mload(0x40)\n      tag_31\n      swap2\n      swap1\n      tag_32\n      jump\t// in\n    tag_31:\n      mload(0x40)\n      dup1\n      swap2\n      sub\n      swap1\n      return\n        /* \"contracts/Proposal.sol\":1938:1986  mapping(uint256 => uint256) public winningOption */\n    tag_3:\n      callvalue\n      dup1\n      iszero\n      tag_33\n      jumpi\n      0x00\n      dup1\n      revert\n    tag_33:\n      pop\n      tag_34\n      0x04\n      dup1\n      calldatasize\n      sub\n      dup2\n      add\n      swap1\n      tag_35\n      swap2\n      swap1\n      tag_36\n      jump\t// in\n    tag_35:\n      tag_37\n      jump\t// in\n    tag_34:\n      mload(0x40)\n      tag_38\n      swap2\n      swap1\n      tag_39\n      jump\t// in\n    tag_38:\n      mload(0x40)\n      dup1\n      swap2\n      sub\n      swap1\n      return\n        /* \"contracts/Proposal.sol\":1708:1751  mapping(address => uint256) public balances */\n    tag_4:\n      callvalue\n      dup1\n      iszero\n      tag_40\n      jumpi\n      0x00\n      dup1\n      revert\n    tag_40:\n      pop\n      tag_41\n      0x04\n      dup1\n      calldatasize\n      sub\n      dup2\n      add\n      swap1\n      tag_42\n      swap2\n      swap1\n      tag_43\n      jump\t// in\n    tag_42:\n      tag_44\n      jump\t// in\n    tag_41:\n      mload(0x40)\n      tag_45\n      swap2\n      swap1\n      tag_39\n      jump\t// in\n    tag_45:\n      mload(0x40)\n      dup1\n      swap2\n      sub\n      swap1\n      return\n        /* \"contracts/Proposal.sol\":4671:5138  function withdraw(uint256 amount) external {... */\n    tag_5:\n      callvalue\n      dup1\n      iszero\n      tag_46\n      jumpi\n      0x00\n      dup1\n      revert\n    tag_46:\n      pop\n      tag_47\n      0x04\n      dup1\n      calldatasize\n      sub\n      dup2\n      add\n      swap1\n      tag_48\n      swap2\n      swap1\n      tag_36\n      jump\t// in\n    tag_48:\n      tag_49\n      jump\t// in\n    tag_47:\n      stop\n        /* \"@openzeppelin/contracts/proxy/utils/UUPSUpgradeable.sol\":3143:3338  function upgradeTo(address newImplementation) public virtual onlyProxy {... */\n    tag_6:\n      callvalue\n      dup1\n      iszero\n      tag_50\n      jumpi\n      0x00\n      dup1\n      revert\n    tag_50:\n      pop\n      tag_51\n      0x04\n      dup1\n      calldatasize\n      sub\n      dup2\n      add\n      swap1\n      tag_52\n      swap2\n      swap1\n      tag_43\n      jump\t// in\n    tag_52:\n      tag_53\n      jump\t// in\n    tag_51:\n      stop\n        /* \"contracts/Proposal.sol\":1842:1931  mapping(uint256 => mapping(uint256 => VoteInfo[]))... */\n    tag_7:\n      callvalue\n      dup1\n      iszero\n      tag_54\n      jumpi\n      0x00\n      dup1\n      revert\n    tag_54:\n      pop\n      tag_55\n      0x04\n      dup1\n      calldatasize\n      sub\n      dup2\n      add\n      swap1\n      tag_56\n      swap2\n      swap1\n      tag_57\n      jump\t// in\n    tag_56:\n      tag_58\n      jump\t// in\n    tag_55:\n      mload(0x40)\n      tag_59\n      swap3\n      swap2\n      swap1\n      tag_60\n      jump\t// in\n    tag_59:\n      mload(0x40)\n      dup1\n      swap2\n      sub\n      swap1\n      return\n        /* \"@openzeppelin/contracts/proxy/utils/UUPSUpgradeable.sol\":3657:3877  function upgradeToAndCall(address newImplementation, bytes memory data) public payable virtual onlyProxy {... */\n    tag_8:\n      tag_61\n      0x04\n      dup1\n      calldatasize\n      sub\n      dup2\n      add\n      swap1\n      tag_62\n      swap2\n      swap1\n      tag_63\n      jump\t// in\n    tag_62:\n      tag_64\n      jump\t// in\n    tag_61:\n      stop\n        /* \"@openzeppelin/contracts/proxy/utils/UUPSUpgradeable.sol\":2762:2893  function proxiableUUID() external view virtual override notDelegated returns (bytes32) {... */\n    tag_9:\n      callvalue\n      dup1\n      iszero\n      tag_65\n      jumpi\n      0x00\n      dup1\n      revert\n    tag_65:\n      pop\n      tag_66\n      tag_67\n      jump\t// in\n    tag_66:\n      mload(0x40)\n      tag_68\n      swap2\n      swap1\n      tag_69\n      jump\t// in\n    tag_68:\n      mload(0x40)\n      dup1\n      swap2\n      sub\n      swap1\n      return\n        /* \"contracts/Proposal.sol\":9830:10099  function getAvailableBalance(address user) public view returns (uint256) {... */\n    tag_10:\n      callvalue\n      dup1\n      iszero\n      tag_70\n      jumpi\n      0x00\n      dup1\n      revert\n    tag_70:\n      pop\n      tag_71\n      0x04\n      dup1\n      calldatasize\n      sub\n      dup2\n      add\n      swap1\n      tag_72\n      swap2\n      swap1\n      tag_43\n      jump\t// in\n    tag_72:\n      tag_73\n      jump\t// in\n    tag_71:\n      mload(0x40)\n      tag_74\n      swap2\n      swap1\n      tag_39\n      jump\t// in\n    tag_74:\n      mload(0x40)\n      dup1\n      swap2\n      sub\n      swap1\n      return\n        /* \"contracts/Proposal.sol\":4455:4665  function exchangePoints(uint256 points) external {... */\n    tag_11:\n      callvalue\n      dup1\n      iszero\n      tag_75\n      jumpi\n      0x00\n      dup1\n      revert\n    tag_75:\n      pop\n      tag_76\n      0x04\n      dup1\n      calldatasize\n      sub\n      dup2\n      add\n      swap1\n      tag_77\n      swap2\n      swap1\n      tag_36\n      jump\t// in\n    tag_77:\n      tag_78\n      jump\t// in\n    tag_76:\n      stop\n        /* \"contracts/Proposal.sol\":5144:5768  function vote(... */\n    tag_12:\n      callvalue\n      dup1\n      iszero\n      tag_79\n      jumpi\n      0x00\n      dup1\n      revert\n    tag_79:\n      pop\n      tag_80\n      0x04\n      dup1\n      calldatasize\n      sub\n      dup2\n      add\n      swap1\n      tag_81\n      swap2\n      swap1\n      tag_57\n      jump\t// in\n    tag_81:\n      tag_82\n      jump\t// in\n    tag_80:\n      stop\n        /* \"contracts/Proposal.sol\":1536:1556  address public owner */\n    tag_13:\n      callvalue\n      dup1\n      iszero\n      tag_83\n      jumpi\n      0x00\n      dup1\n      revert\n    tag_83:\n      pop\n      tag_84\n      tag_85\n      jump\t// in\n    tag_84:\n      mload(0x40)\n      tag_86\n      swap2\n      swap1\n      tag_87\n      jump\t// in\n    tag_86:\n      mload(0x40)\n      dup1\n      swap2\n      sub\n      swap1\n      return\n        /* \"contracts/Proposal.sol\":5774:6326  function settle(... */\n    tag_14:\n      callvalue\n      dup1\n      iszero\n      tag_88\n      jumpi\n      0x00\n      dup1\n      revert\n    tag_88:\n      pop\n      tag_89\n      0x04\n      dup1\n      calldatasize\n      sub\n      dup2\n      add\n      swap1\n      tag_90\n      swap2\n      swap1\n      tag_91\n      jump\t// in\n    tag_90:\n      tag_92\n      jump\t// in\n    tag_89:\n      stop\n        /* \"contracts/Proposal.sol\":1563:1590  address public logicAddress */\n    tag_15:\n      callvalue\n      dup1\n      iszero\n      tag_93\n      jumpi\n      0x00\n      dup1\n      revert\n    tag_93:\n      pop\n      tag_94\n      tag_95\n      jump\t// in\n    tag_94:\n      mload(0x40)\n      tag_96\n      swap2\n      swap1\n      tag_87\n      jump\t// in\n    tag_96:\n      mload(0x40)\n      dup1\n      swap2\n      sub\n      swap1\n      return\n        /* \"contracts/Proposal.sol\":1758:1803  mapping(address => uint256) public votingLock */\n    tag_16:\n      callvalue\n      dup1\n      iszero\n      tag_97\n      jumpi\n      0x00\n      dup1\n      revert\n    tag_97:\n      pop\n      tag_98\n      0x04\n      dup1\n      calldatasize\n      sub\n      dup2\n      add\n      swap1\n      tag_99\n      swap2\n      swap1\n      tag_43\n      jump\t// in\n    tag_99:\n      tag_100\n      jump\t// in\n    tag_98:\n      mload(0x40)\n      tag_101\n      swap2\n      swap1\n      tag_39\n      jump\t// in\n    tag_101:\n      mload(0x40)\n      dup1\n      swap2\n      sub\n      swap1\n      return\n        /* \"contracts/Proposal.sol\":1648:1683  ProposalInfo[] public proposalInfos */\n    tag_17:\n      callvalue\n      dup1\n      iszero\n      tag_102\n      jumpi\n      0x00\n      dup1\n      revert\n    tag_102:\n      pop\n      tag_103\n      0x04\n      dup1\n      calldatasize\n      sub\n      dup2\n      add\n      swap1\n      tag_104\n      swap2\n      swap1\n      tag_36\n      jump\t// in\n    tag_104:\n      tag_105\n      jump\t// in\n    tag_103:\n      mload(0x40)\n      tag_106\n      swap2\n      swap1\n      tag_87\n      jump\t// in\n    tag_106:\n      mload(0x40)\n      dup1\n      swap2\n      sub\n      swap1\n      return\n        /* \"contracts/Proposal.sol\":2504:2894  function deposit(uint256 amount) external returns (uint256) {... */\n    tag_18:\n      callvalue\n      dup1\n      iszero\n      tag_107\n      jumpi\n      0x00\n      dup1\n      revert\n    tag_107:\n      pop\n      tag_108\n      0x04\n      dup1\n      calldatasize\n      sub\n      dup2\n      add\n      swap1\n      tag_109\n      swap2\n      swap1\n      tag_36\n      jump\t// in\n    tag_109:\n      tag_110\n      jump\t// in\n    tag_108:\n      mload(0x40)\n      tag_111\n      swap2\n      swap1\n      tag_39\n      jump\t// in\n    tag_111:\n      mload(0x40)\n      dup1\n      swap2\n      sub\n      swap1\n      return\n        /* \"contracts/Proposal.sol\":2900:3879  function getDetails(... */\n    tag_19:\n      callvalue\n      dup1\n      iszero\n      tag_112\n      jumpi\n      0x00\n      dup1\n      revert\n    tag_112:\n      pop\n      tag_113\n      0x04\n      dup1\n      calldatasize\n      sub\n      dup2\n      add\n      swap1\n      tag_114\n      swap2\n      swap1\n      tag_36\n      jump\t// in\n    tag_114:\n      tag_115\n      jump\t// in\n    tag_113:\n      mload(0x40)\n      tag_116\n      swap7\n      swap6\n      swap5\n      swap4\n      swap3\n      swap2\n      swap1\n      tag_117\n      jump\t// in\n    tag_116:\n      mload(0x40)\n      dup1\n      swap2\n      sub\n      swap1\n      return\n        /* \"contracts/Proposal.sol\":3885:4449  function create(string[] memory optionDescs) external {... */\n    tag_20:\n      callvalue\n      dup1\n      iszero\n      tag_118\n      jumpi\n      0x00\n      dup1\n      revert\n    tag_118:\n      pop\n      tag_119\n      0x04\n      dup1\n      calldatasize\n      sub\n      dup2\n      add\n      swap1\n      tag_120\n      swap2\n      swap1\n      tag_121\n      jump\t// in\n    tag_120:\n      tag_122\n      jump\t// in\n    tag_119:\n      stop\n        /* \"contracts/Proposal.sol\":1597:1624  address public mlnTokenAddr */\n    tag_21:\n      callvalue\n      dup1\n      iszero\n      tag_123\n      jumpi\n      0x00\n      dup1\n      revert\n    tag_123:\n      pop\n      tag_124\n      tag_125\n      jump\t// in\n    tag_124:\n      mload(0x40)\n      tag_126\n      swap2\n      swap1\n      tag_87\n      jump\t// in\n    tag_126:\n      mload(0x40)\n      dup1\n      swap2\n      sub\n      swap1\n      return\n        /* \"contracts/Proposal.sol\":2369:2498  function initialize(address tokenAddr) external initializer {... */\n    tag_22:\n      callvalue\n      dup1\n      iszero\n      tag_127\n      jumpi\n      0x00\n      dup1\n      revert\n    tag_127:\n      pop\n      tag_128\n      0x04\n      dup1\n      calldatasize\n      sub\n      dup2\n      add\n      swap1\n      tag_129\n      swap2\n      swap1\n      tag_43\n      jump\t// in\n    tag_129:\n      tag_130\n      jump\t// in\n    tag_128:\n      stop\n        /* \"contracts/Proposal.sol\":2045:2118  mapping(uint256 => mapping(address => int256)) public userProposalResults */\n    tag_30:\n      mstore(0x20, 0x08)\n      dup2\n      0x00\n      mstore\n      mstore(0x20, keccak256(0x00, 0x40))\n      dup1\n      0x00\n      mstore\n      keccak256(0x00, 0x40)\n      0x00\n      swap2\n      pop\n      swap2\n      pop\n      pop\n      sload\n      dup2\n      jump\t// out\n        /* \"contracts/Proposal.sol\":1938:1986  mapping(uint256 => uint256) public winningOption */\n    tag_37:\n      mstore(0x20, 0x07)\n      dup1\n      0x00\n      mstore\n      keccak256(0x00, 0x40)\n      0x00\n      swap2\n      pop\n      swap1\n      pop\n      sload\n      dup2\n      jump\t// out\n        /* \"contracts/Proposal.sol\":1708:1751  mapping(address => uint256) public balances */\n    tag_44:\n      mstore(0x20, 0x04)\n      dup1\n      0x00\n      mstore\n      keccak256(0x00, 0x40)\n      0x00\n      swap2\n      pop\n      swap1\n      pop\n      sload\n      dup2\n      jump\t// out\n        /* \"contracts/Proposal.sol\":4671:5138  function withdraw(uint256 amount) external {... */\n    tag_49:\n        /* \"contracts/Proposal.sol\":4724:4748  uint256 availableBalance */\n      0x00\n        /* \"contracts/Proposal.sol\":4751:4782  getAvailableBalance(msg.sender) */\n      tag_132\n        /* \"contracts/Proposal.sol\":4771:4781  msg.sender */\n      caller\n        /* \"contracts/Proposal.sol\":4751:4770  getAvailableBalance */\n      tag_73\n        /* \"contracts/Proposal.sol\":4751:4782  getAvailableBalance(msg.sender) */\n      jump\t// in\n    tag_132:\n        /* \"contracts/Proposal.sol\":4724:4782  uint256 availableBalance = getAvailableBalance(msg.sender) */\n      swap1\n      pop\n        /* \"contracts/Proposal.sol\":4817:4823  amount */\n      dup2\n        /* \"contracts/Proposal.sol\":4797:4813  availableBalance */\n      dup2\n        /* \"contracts/Proposal.sol\":4797:4823  availableBalance >= amount */\n      lt\n        /* \"contracts/Proposal.sol\":4793:4906  if (availableBalance >= amount) {... */\n      tag_133\n      jumpi\n        /* \"contracts/Proposal.sol\":4866:4876  msg.sender */\n      caller\n        /* \"contracts/Proposal.sol\":4878:4894  availableBalance */\n      dup2\n        /* \"contracts/Proposal.sol\":4846:4895  InsufficientBalance(msg.sender, availableBalance) */\n      mload(0x40)\n      0xf6deaa0400000000000000000000000000000000000000000000000000000000\n      dup2\n      mstore\n      0x04\n      add\n      tag_134\n      swap3\n      swap2\n      swap1\n      tag_60\n      jump\t// in\n    tag_134:\n      mload(0x40)\n      dup1\n      swap2\n      sub\n      swap1\n      revert\n        /* \"contracts/Proposal.sol\":4793:4906  if (availableBalance >= amount) {... */\n    tag_133:\n        /* \"contracts/Proposal.sol\":4943:4955  mlnTokenAddr */\n      0x02\n      0x00\n      swap1\n      sload\n      swap1\n      0x0100\n      exp\n      swap1\n      div\n      0xffffffffffffffffffffffffffffffffffffffff\n      and\n        /* \"contracts/Proposal.sol\":4936:4965  IERC20(mlnTokenAddr).transfer */\n      0xffffffffffffffffffffffffffffffffffffffff\n      and\n      0xa9059cbb\n        /* \"contracts/Proposal.sol\":4966:4976  msg.sender */\n      caller\n        /* \"contracts/Proposal.sol\":4978:4984  amount */\n      dup5\n        /* \"contracts/Proposal.sol\":4936:4985  IERC20(mlnTokenAddr).transfer(msg.sender, amount) */\n      mload(0x40)\n      dup4\n      0xffffffff\n      and\n      0xe0\n      shl\n      dup2\n      mstore\n      0x04\n      add\n      tag_135\n      swap3\n      swap2\n      swap1\n      tag_60\n      jump\t// in\n    tag_135:\n      0x20\n      mload(0x40)\n      dup1\n      dup4\n      sub\n      dup2\n      0x00\n      dup8\n      gas\n      call\n      iszero\n      dup1\n      iszero\n      tag_137\n      jumpi\n      returndatasize\n      0x00\n      dup1\n      returndatacopy\n      revert(0x00, returndatasize)\n    tag_137:\n      pop\n      pop\n      pop\n      pop\n      mload(0x40)\n      returndatasize\n      not(0x1f)\n      0x1f\n      dup3\n      add\n      and\n      dup3\n      add\n      dup1\n      0x40\n      mstore\n      pop\n      dup2\n      add\n      swap1\n      tag_138\n      swap2\n      swap1\n      tag_139\n      jump\t// in\n    tag_138:\n        /* \"contracts/Proposal.sol\":4915:5026  require(... */\n      tag_140\n      jumpi\n      mload(0x40)\n      0x08c379a000000000000000000000000000000000000000000000000000000000\n      dup2\n      mstore\n      0x04\n      add\n      tag_141\n      swap1\n      tag_142\n      jump\t// in\n    tag_141:\n      mload(0x40)\n      dup1\n      swap2\n      sub\n      swap1\n      revert\n    tag_140:\n        /* \"contracts/Proposal.sol\":5060:5066  amount */\n      dup2\n        /* \"contracts/Proposal.sol\":5036:5044  balances */\n      0x04\n        /* \"contracts/Proposal.sol\":5036:5056  balances[msg.sender] */\n      0x00\n        /* \"contracts/Proposal.sol\":5045:5055  msg.sender */\n      caller\n        /* \"contracts/Proposal.sol\":5036:5056  balances[msg.sender] */\n      0xffffffffffffffffffffffffffffffffffffffff\n      and\n      0xffffffffffffffffffffffffffffffffffffffff\n      and\n      dup2\n      mstore\n      0x20\n      add\n      swap1\n      dup2\n      mstore\n      0x20\n      add\n      0x00\n      keccak256\n      0x00\n        /* \"contracts/Proposal.sol\":5036:5066  balances[msg.sender] -= amount */\n      dup3\n      dup3\n      sload\n      tag_143\n      swap2\n      swap1\n      tag_144\n      jump\t// in\n    tag_143:\n      swap3\n      pop\n      pop\n      dup2\n      swap1\n      sstore\n      pop\n        /* \"contracts/Proposal.sol\":5090:5100  msg.sender */\n      caller\n        /* \"contracts/Proposal.sol\":5081:5131  Withdraw(msg.sender, amount, balances[msg.sender]) */\n      0xffffffffffffffffffffffffffffffffffffffff\n      and\n      0xf279e6a1f5e320cca91135676d9cb6e44ca8a08c0b88342bcdb1144f6511b568\n        /* \"contracts/Proposal.sol\":5102:5108  amount */\n      dup4\n        /* \"contracts/Proposal.sol\":5110:5118  balances */\n      0x04\n        /* \"contracts/Proposal.sol\":5110:5130  balances[msg.sender] */\n      0x00\n        /* \"contracts/Proposal.sol\":5119:5129  msg.sender */\n      caller\n        /* \"contracts/Proposal.sol\":5110:5130  balances[msg.sender] */\n      0xffffffffffffffffffffffffffffffffffffffff\n      and\n      0xffffffffffffffffffffffffffffffffffffffff\n      and\n      dup2\n      mstore\n      0x20\n      add\n      swap1\n      dup2\n      mstore\n      0x20\n      add\n      0x00\n      keccak256\n      sload\n        /* \"contracts/Proposal.sol\":5081:5131  Withdraw(msg.sender, amount, balances[msg.sender]) */\n      mload(0x40)\n      tag_145\n      swap3\n      swap2\n      swap1\n      tag_146\n      jump\t// in\n    tag_145:\n      mload(0x40)\n      dup1\n      swap2\n      sub\n      swap1\n      log2\n        /* \"contracts/Proposal.sol\":4714:5138  {... */\n      pop\n        /* \"contracts/Proposal.sol\":4671:5138  function withdraw(uint256 amount) external {... */\n      pop\n      jump\t// out\n        /* \"@openzeppelin/contracts/proxy/utils/UUPSUpgradeable.sol\":3143:3338  function upgradeTo(address newImplementation) public virtual onlyProxy {... */\n    tag_53:\n        /* \"@openzeppelin/contracts/proxy/utils/UUPSUpgradeable.sol\":1654:1660  __self */\n      immutable(\"0x26253e4b9754d7b70fa53c504adf7cef3bf444a45077af864d39a1233fe15035\")\n        /* \"@openzeppelin/contracts/proxy/utils/UUPSUpgradeable.sol\":1637:1660  address(this) != __self */\n      0xffffffffffffffffffffffffffffffffffffffff\n      and\n        /* \"@openzeppelin/contracts/proxy/utils/UUPSUpgradeable.sol\":1645:1649  this */\n      address\n        /* \"@openzeppelin/contracts/proxy/utils/UUPSUpgradeable.sol\":1637:1660  address(this) != __self */\n      0xffffffffffffffffffffffffffffffffffffffff\n      and\n      sub\n        /* \"@openzeppelin/contracts/proxy/utils/UUPSUpgradeable.sol\":1629:1709  require(address(this) != __self, \"Function must be called through delegatecall\") */\n      tag_148\n      jumpi\n      mload(0x40)\n      0x08c379a000000000000000000000000000000000000000000000000000000000\n      dup2\n      mstore\n      0x04\n      add\n      tag_149\n      swap1\n      tag_150\n      jump\t// in\n    tag_149:\n      mload(0x40)\n      dup1\n      swap2\n      sub\n      swap1\n      revert\n    tag_148:\n        /* \"@openzeppelin/contracts/proxy/utils/UUPSUpgradeable.sol\":1751:1757  __self */\n      immutable(\"0x26253e4b9754d7b70fa53c504adf7cef3bf444a45077af864d39a1233fe15035\")\n        /* \"@openzeppelin/contracts/proxy/utils/UUPSUpgradeable.sol\":1727:1757  _getImplementation() == __self */\n      0xffffffffffffffffffffffffffffffffffffffff\n      and\n        /* \"@openzeppelin/contracts/proxy/utils/UUPSUpgradeable.sol\":1727:1747  _getImplementation() */\n      tag_151\n        /* \"@openzeppelin/contracts/proxy/utils/UUPSUpgradeable.sol\":1727:1745  _getImplementation */\n      tag_152\n        /* \"@openzeppelin/contracts/proxy/utils/UUPSUpgradeable.sol\":1727:1747  _getImplementation() */\n      jump\t// in\n    tag_151:\n        /* \"@openzeppelin/contracts/proxy/utils/UUPSUpgradeable.sol\":1727:1757  _getImplementation() == __self */\n      0xffffffffffffffffffffffffffffffffffffffff\n      and\n      eq\n        /* \"@openzeppelin/contracts/proxy/utils/UUPSUpgradeable.sol\":1719:1806  require(_getImplementation() == __self, \"Function must be called through active proxy\") */\n      tag_153\n      jumpi\n      mload(0x40)\n      0x08c379a000000000000000000000000000000000000000000000000000000000\n      dup2\n      mstore\n      0x04\n      add\n      tag_154\n      swap1\n      tag_155\n      jump\t// in\n    tag_154:\n      mload(0x40)\n      dup1\n      swap2\n      sub\n      swap1\n      revert\n    tag_153:\n        /* \"@openzeppelin/contracts/proxy/utils/UUPSUpgradeable.sol\":3224:3260  _authorizeUpgrade(newImplementation) */\n      tag_157\n        /* \"@openzeppelin/contracts/proxy/utils/UUPSUpgradeable.sol\":3242:3259  newImplementation */\n      dup2\n        /* \"@openzeppelin/contracts/proxy/utils/UUPSUpgradeable.sol\":3224:3241  _authorizeUpgrade */\n      tag_158\n        /* \"@openzeppelin/contracts/proxy/utils/UUPSUpgradeable.sol\":3224:3260  _authorizeUpgrade(newImplementation) */\n      jump\t// in\n    tag_157:\n        /* \"@openzeppelin/contracts/proxy/utils/UUPSUpgradeable.sol\":3270:3331  _upgradeToAndCallUUPS(newImplementation, new bytes(0), false) */\n      tag_159\n        /* \"@openzeppelin/contracts/proxy/utils/UUPSUpgradeable.sol\":3292:3309  newImplementation */\n      dup2\n        /* \"@openzeppelin/contracts/proxy/utils/UUPSUpgradeable.sol\":3321:3322  0 */\n      0x00\n        /* \"@openzeppelin/contracts/proxy/utils/UUPSUpgradeable.sol\":3311:3323  new bytes(0) */\n      0xffffffffffffffff\n      dup2\n      gt\n      iszero\n      tag_160\n      jumpi\n      tag_161\n      tag_162\n      jump\t// in\n    tag_161:\n    tag_160:\n      mload(0x40)\n      swap1\n      dup1\n      dup3\n      mstore\n      dup1\n      0x1f\n      add\n      not(0x1f)\n      and\n      0x20\n      add\n      dup3\n      add\n      0x40\n      mstore\n      dup1\n      iszero\n      tag_163\n      jumpi\n      dup2\n      0x20\n      add\n      0x01\n      dup3\n      mul\n      dup1\n      calldatasize\n      dup4\n      calldatacopy\n      dup1\n      dup3\n      add\n      swap2\n      pop\n      pop\n      swap1\n      pop\n    tag_163:\n      pop\n        /* \"@openzeppelin/contracts/proxy/utils/UUPSUpgradeable.sol\":3325:3330  false */\n      0x00\n        /* \"@openzeppelin/contracts/proxy/utils/UUPSUpgradeable.sol\":3270:3291  _upgradeToAndCallUUPS */\n      tag_164\n        /* \"@openzeppelin/contracts/proxy/utils/UUPSUpgradeable.sol\":3270:3331  _upgradeToAndCallUUPS(newImplementation, new bytes(0), false) */\n      jump\t// in\n    tag_159:\n        /* \"@openzeppelin/contracts/proxy/utils/UUPSUpgradeable.sol\":3143:3338  function upgradeTo(address newImplementation) public virtual onlyProxy {... */\n      pop\n      jump\t// out\n        /* \"contracts/Proposal.sol\":1842:1931  mapping(uint256 => mapping(uint256 => VoteInfo[]))... */\n    tag_58:\n      mstore(0x20, 0x06)\n      dup3\n      0x00\n      mstore\n      mstore(0x20, keccak256(0x00, 0x40))\n      dup2\n      0x00\n      mstore\n      keccak256(0x00, 0x40)\n      dup2\n      dup2\n      sload\n      dup2\n      lt\n      tag_165\n      jumpi\n      0x00\n      dup1\n      revert\n    tag_165:\n      swap1\n      0x00\n      mstore\n      keccak256(0x00, 0x20)\n      swap1\n      0x02\n      mul\n      add\n      0x00\n      swap3\n      pop\n      swap3\n      pop\n      pop\n      pop\n      dup1\n      0x00\n      add\n      0x00\n      swap1\n      sload\n      swap1\n      0x0100\n      exp\n      swap1\n      div\n      0xffffffffffffffffffffffffffffffffffffffff\n      and\n      swap1\n      dup1\n      0x01\n      add\n      sload\n      swap1\n      pop\n      dup3\n      jump\t// out\n        /* \"@openzeppelin/contracts/proxy/utils/UUPSUpgradeable.sol\":3657:3877  function upgradeToAndCall(address newImplementation, bytes memory data) public payable virtual onlyProxy {... */\n    tag_64:\n        /* \"@openzeppelin/contracts/proxy/utils/UUPSUpgradeable.sol\":1654:1660  __self */\n      immutable(\"0x26253e4b9754d7b70fa53c504adf7cef3bf444a45077af864d39a1233fe15035\")\n        /* \"@openzeppelin/contracts/proxy/utils/UUPSUpgradeable.sol\":1637:1660  address(this) != __self */\n      0xffffffffffffffffffffffffffffffffffffffff\n      and\n        /* \"@openzeppelin/contracts/proxy/utils/UUPSUpgradeable.sol\":1645:1649  this */\n      address\n        /* \"@openzeppelin/contracts/proxy/utils/UUPSUpgradeable.sol\":1637:1660  address(this) != __self */\n      0xffffffffffffffffffffffffffffffffffffffff\n      and\n      sub\n        /* \"@openzeppelin/contracts/proxy/utils/UUPSUpgradeable.sol\":1629:1709  require(address(this) != __self, \"Function must be called through delegatecall\") */\n      tag_168\n      jumpi\n      mload(0x40)\n      0x08c379a000000000000000000000000000000000000000000000000000000000\n      dup2\n      mstore\n      0x04\n      add\n      tag_169\n      swap1\n      tag_150\n      jump\t// in\n    tag_169:\n      mload(0x40)\n      dup1\n      swap2\n      sub\n      swap1\n      revert\n    tag_168:\n        /* \"@openzeppelin/contracts/proxy/utils/UUPSUpgradeable.sol\":1751:1757  __self */\n      immutable(\"0x26253e4b9754d7b70fa53c504adf7cef3bf444a45077af864d39a1233fe15035\")\n        /* \"@openzeppelin/contracts/proxy/utils/UUPSUpgradeable.sol\":1727:1757  _getImplementation() == __self */\n      0xffffffffffffffffffffffffffffffffffffffff\n      and\n        /* \"@openzeppelin/contracts/proxy/utils/UUPSUpgradeable.sol\":1727:1747  _getImplementation() */\n      tag_170\n        /* \"@openzeppelin/contracts/proxy/utils/UUPSUpgradeable.sol\":1727:1745  _getImplementation */\n      tag_152\n        /* \"@openzeppelin/contracts/proxy/utils/UUPSUpgradeable.sol\":1727:1747  _getImplementation() */\n      jump\t// in\n    tag_170:\n        /* \"@openzeppelin/contracts/proxy/utils/UUPSUpgradeable.sol\":1727:1757  _getImplementation() == __self */\n      0xffffffffffffffffffffffffffffffffffffffff\n      and\n      eq\n        /* \"@openzeppelin/contracts/proxy/utils/UUPSUpgradeable.sol\":1719:1806  require(_getImplementation() == __self, \"Function must be called through active proxy\") */\n      tag_171\n      jumpi\n      mload(0x40)\n      0x08c379a000000000000000000000000000000000000000000000000000000000\n      dup2\n      mstore\n      0x04\n      add\n      tag_172\n      swap1\n      tag_155\n      jump\t// in\n    tag_172:\n      mload(0x40)\n      dup1\n      swap2\n      sub\n      swap1\n      revert\n    tag_171:\n        /* \"@openzeppelin/contracts/proxy/utils/UUPSUpgradeable.sol\":3772:3808  _authorizeUpgrade(newImplementation) */\n      tag_174\n        /* \"@openzeppelin/contracts/proxy/utils/UUPSUpgradeable.sol\":3790:3807  newImplementation */\n      dup3\n        /* \"@openzeppelin/contracts/proxy/utils/UUPSUpgradeable.sol\":3772:3789  _authorizeUpgrade */\n      tag_158\n        /* \"@openzeppelin/contracts/proxy/utils/UUPSUpgradeable.sol\":3772:3808  _authorizeUpgrade(newImplementation) */\n      jump\t// in\n    tag_174:\n        /* \"@openzeppelin/contracts/proxy/utils/UUPSUpgradeable.sol\":3818:3870  _upgradeToAndCallUUPS(newImplementation, data, true) */\n      tag_175\n        /* \"@openzeppelin/contracts/proxy/utils/UUPSUpgradeable.sol\":3840:3857  newImplementation */\n      dup3\n        /* \"@openzeppelin/contracts/proxy/utils/UUPSUpgradeable.sol\":3859:3863  data */\n      dup3\n        /* \"@openzeppelin/contracts/proxy/utils/UUPSUpgradeable.sol\":3865:3869  true */\n      0x01\n        /* \"@openzeppelin/contracts/proxy/utils/UUPSUpgradeable.sol\":3818:3839  _upgradeToAndCallUUPS */\n      tag_164\n        /* \"@openzeppelin/contracts/proxy/utils/UUPSUpgradeable.sol\":3818:3870  _upgradeToAndCallUUPS(newImplementation, data, true) */\n      jump\t// in\n    tag_175:\n        /* \"@openzeppelin/contracts/proxy/utils/UUPSUpgradeable.sol\":3657:3877  function upgradeToAndCall(address newImplementation, bytes memory data) public payable virtual onlyProxy {... */\n      pop\n      pop\n      jump\t// out\n        /* \"@openzeppelin/contracts/proxy/utils/UUPSUpgradeable.sol\":2762:2893  function proxiableUUID() external view virtual override notDelegated returns (bytes32) {... */\n    tag_67:\n        /* \"@openzeppelin/contracts/proxy/utils/UUPSUpgradeable.sol\":2840:2847  bytes32 */\n      0x00\n        /* \"@openzeppelin/contracts/proxy/utils/UUPSUpgradeable.sol\":2089:2095  __self */\n      immutable(\"0x26253e4b9754d7b70fa53c504adf7cef3bf444a45077af864d39a1233fe15035\")\n        /* \"@openzeppelin/contracts/proxy/utils/UUPSUpgradeable.sol\":2072:2095  address(this) == __self */\n      0xffffffffffffffffffffffffffffffffffffffff\n      and\n        /* \"@openzeppelin/contracts/proxy/utils/UUPSUpgradeable.sol\":2080:2084  this */\n      address\n        /* \"@openzeppelin/contracts/proxy/utils/UUPSUpgradeable.sol\":2072:2095  address(this) == __self */\n      0xffffffffffffffffffffffffffffffffffffffff\n      and\n      eq\n        /* \"@openzeppelin/contracts/proxy/utils/UUPSUpgradeable.sol\":2064:2156  require(address(this) == __self, \"UUPSUpgradeable: must not be called through delegatecall\") */\n      tag_177\n      jumpi\n      mload(0x40)\n      0x08c379a000000000000000000000000000000000000000000000000000000000\n      dup2\n      mstore\n      0x04\n      add\n      tag_178\n      swap1\n      tag_179\n      jump\t// in\n    tag_178:\n      mload(0x40)\n      dup1\n      swap2\n      sub\n      swap1\n      revert\n    tag_177:\n        /* \"@openzeppelin/contracts/proxy/ERC1967/ERC1967Upgrade.sol\":1030:1096  0x360894a13ba1a3210667c828492db98dca3e2076cc3735a920a3ca505d382bbc */\n      0x360894a13ba1a3210667c828492db98dca3e2076cc3735a920a3ca505d382bbc\n        /* \"@openzeppelin/contracts/proxy/utils/UUPSUpgradeable.sol\":2866:2886  _IMPLEMENTATION_SLOT */\n      0x00\n      shl\n        /* \"@openzeppelin/contracts/proxy/utils/UUPSUpgradeable.sol\":2859:2886  return _IMPLEMENTATION_SLOT */\n      swap1\n      pop\n        /* \"@openzeppelin/contracts/proxy/utils/UUPSUpgradeable.sol\":2762:2893  function proxiableUUID() external view virtual override notDelegated returns (bytes32) {... */\n      swap1\n      jump\t// out\n        /* \"contracts/Proposal.sol\":9830:10099  function getAvailableBalance(address user) public view returns (uint256) {... */\n    tag_73:\n        /* \"contracts/Proposal.sol\":9894:9901  uint256 */\n      0x00\n        /* \"contracts/Proposal.sol\":9913:9933  uint256 totalBalance */\n      dup1\n        /* \"contracts/Proposal.sol\":9936:9944  balances */\n      0x04\n        /* \"contracts/Proposal.sol\":9936:9950  balances[user] */\n      0x00\n        /* \"contracts/Proposal.sol\":9945:9949  user */\n      dup5\n        /* \"contracts/Proposal.sol\":9936:9950  balances[user] */\n      0xffffffffffffffffffffffffffffffffffffffff\n      and\n      0xffffffffffffffffffffffffffffffffffffffff\n      and\n      dup2\n      mstore\n      0x20\n      add\n      swap1\n      dup2\n      mstore\n      0x20\n      add\n      0x00\n      keccak256\n      sload\n        /* \"contracts/Proposal.sol\":9913:9950  uint256 totalBalance = balances[user] */\n      swap1\n      pop\n        /* \"contracts/Proposal.sol\":9960:9983  uint256 lockedForVoting */\n      0x00\n        /* \"contracts/Proposal.sol\":9986:9996  votingLock */\n      0x05\n        /* \"contracts/Proposal.sol\":9986:10002  votingLock[user] */\n      0x00\n        /* \"contracts/Proposal.sol\":9997:10001  user */\n      dup6\n        /* \"contracts/Proposal.sol\":9986:10002  votingLock[user] */\n      0xffffffffffffffffffffffffffffffffffffffff\n      and\n      0xffffffffffffffffffffffffffffffffffffffff\n      and\n      dup2\n      mstore\n      0x20\n      add\n      swap1\n      dup2\n      mstore\n      0x20\n      add\n      0x00\n      keccak256\n      sload\n        /* \"contracts/Proposal.sol\":9960:10002  uint256 lockedForVoting = votingLock[user] */\n      swap1\n      pop\n        /* \"contracts/Proposal.sol\":10012:10031  uint256 totalLocked */\n      0x00\n        /* \"contracts/Proposal.sol\":10034:10049  lockedForVoting */\n      dup2\n        /* \"contracts/Proposal.sol\":10012:10049  uint256 totalLocked = lockedForVoting */\n      swap1\n      pop\n        /* \"contracts/Proposal.sol\":10081:10092  totalLocked */\n      dup1\n        /* \"contracts/Proposal.sol\":10066:10078  totalBalance */\n      dup4\n        /* \"contracts/Proposal.sol\":10066:10092  totalBalance - totalLocked */\n      tag_182\n      swap2\n      swap1\n      tag_144\n      jump\t// in\n    tag_182:\n        /* \"contracts/Proposal.sol\":10059:10092  return totalBalance - totalLocked */\n      swap4\n      pop\n      pop\n      pop\n      pop\n        /* \"contracts/Proposal.sol\":9830:10099  function getAvailableBalance(address user) public view returns (uint256) {... */\n      swap2\n      swap1\n      pop\n      jump\t// out\n        /* \"contracts/Proposal.sol\":4455:4665  function exchangePoints(uint256 points) external {... */\n    tag_78:\n        /* \"contracts/Proposal.sol\":4531:4532  0 */\n      0x00\n        /* \"contracts/Proposal.sol\":4522:4528  points */\n      dup2\n        /* \"contracts/Proposal.sol\":4522:4532  points > 0 */\n      gt\n        /* \"contracts/Proposal.sol\":4514:4569  require(points > 0, \"Points must be greater than zero\") */\n      tag_184\n      jumpi\n      mload(0x40)\n      0x08c379a000000000000000000000000000000000000000000000000000000000\n      dup2\n      mstore\n      0x04\n      add\n      tag_185\n      swap1\n      tag_186\n      jump\t// in\n    tag_185:\n      mload(0x40)\n      dup1\n      swap2\n      sub\n      swap1\n      revert\n    tag_184:\n        /* \"contracts/Proposal.sol\":4603:4609  points */\n      dup1\n        /* \"contracts/Proposal.sol\":4579:4587  balances */\n      0x04\n        /* \"contracts/Proposal.sol\":4579:4599  balances[msg.sender] */\n      0x00\n        /* \"contracts/Proposal.sol\":4588:4598  msg.sender */\n      caller\n        /* \"contracts/Proposal.sol\":4579:4599  balances[msg.sender] */\n      0xffffffffffffffffffffffffffffffffffffffff\n      and\n      0xffffffffffffffffffffffffffffffffffffffff\n      and\n      dup2\n      mstore\n      0x20\n      add\n      swap1\n      dup2\n      mstore\n      0x20\n      add\n      0x00\n      keccak256\n      0x00\n        /* \"contracts/Proposal.sol\":4579:4609  balances[msg.sender] += points */\n      dup3\n      dup3\n      sload\n      tag_187\n      swap2\n      swap1\n      tag_188\n      jump\t// in\n    tag_187:\n      swap3\n      pop\n      pop\n      dup2\n      swap1\n      sstore\n      pop\n        /* \"contracts/Proposal.sol\":4639:4649  msg.sender */\n      caller\n        /* \"contracts/Proposal.sol\":4624:4658  ExchangePoints(msg.sender, points) */\n      0xffffffffffffffffffffffffffffffffffffffff\n      and\n      0xa0c8eda28ab82fe28c2bcaa48a1ce2b5eac8dbed005a6e8eb62398577e908d5c\n        /* \"contracts/Proposal.sol\":4651:4657  points */\n      dup3\n        /* \"contracts/Proposal.sol\":4624:4658  ExchangePoints(msg.sender, points) */\n      mload(0x40)\n      tag_189\n      swap2\n      swap1\n      tag_39\n      jump\t// in\n    tag_189:\n      mload(0x40)\n      dup1\n      swap2\n      sub\n      swap1\n      log2\n        /* \"contracts/Proposal.sol\":4455:4665  function exchangePoints(uint256 points) external {... */\n      pop\n      jump\t// out\n        /* \"contracts/Proposal.sol\":5144:5768  function vote(... */\n    tag_82:\n        /* \"contracts/Proposal.sol\":5317:5323  amount */\n      dup1\n        /* \"contracts/Proposal.sol\":5282:5313  getAvailableBalance(msg.sender) */\n      tag_191\n        /* \"contracts/Proposal.sol\":5302:5312  msg.sender */\n      caller\n        /* \"contracts/Proposal.sol\":5282:5301  getAvailableBalance */\n      tag_73\n        /* \"contracts/Proposal.sol\":5282:5313  getAvailableBalance(msg.sender) */\n      jump\t// in\n    tag_191:\n        /* \"contracts/Proposal.sol\":5282:5323  getAvailableBalance(msg.sender) >= amount */\n      lt\n      iszero\n        /* \"contracts/Proposal.sol\":5261:5375  require(... */\n      tag_192\n      jumpi\n      mload(0x40)\n      0x08c379a000000000000000000000000000000000000000000000000000000000\n      dup2\n      mstore\n      0x04\n      add\n      tag_193\n      swap1\n      tag_194\n      jump\t// in\n    tag_193:\n      mload(0x40)\n      dup1\n      swap2\n      sub\n      swap1\n      revert\n    tag_192:\n        /* \"contracts/Proposal.sol\":5411:5417  amount */\n      dup1\n        /* \"contracts/Proposal.sol\":5385:5395  votingLock */\n      0x05\n        /* \"contracts/Proposal.sol\":5385:5407  votingLock[msg.sender] */\n      0x00\n        /* \"contracts/Proposal.sol\":5396:5406  msg.sender */\n      caller\n        /* \"contracts/Proposal.sol\":5385:5407  votingLock[msg.sender] */\n      0xffffffffffffffffffffffffffffffffffffffff\n      and\n      0xffffffffffffffffffffffffffffffffffffffff\n      and\n      dup2\n      mstore\n      0x20\n      add\n      swap1\n      dup2\n      mstore\n      0x20\n      add\n      0x00\n      keccak256\n      0x00\n        /* \"contracts/Proposal.sol\":5385:5417  votingLock[msg.sender] += amount */\n      dup3\n      dup3\n      sload\n      tag_195\n      swap2\n      swap1\n      tag_188\n      jump\t// in\n    tag_195:\n      swap3\n      pop\n      pop\n      dup2\n      swap1\n      sstore\n      pop\n        /* \"contracts/Proposal.sol\":5428:5457  ProposalInfo storage proposal */\n      0x00\n        /* \"contracts/Proposal.sol\":5460:5473  proposalInfos */\n      0x03\n        /* \"contracts/Proposal.sol\":5474:5484  proposalId */\n      dup5\n        /* \"contracts/Proposal.sol\":5460:5485  proposalInfos[proposalId] */\n      dup2\n      sload\n      dup2\n      lt\n      tag_196\n      jumpi\n      tag_197\n      tag_198\n      jump\t// in\n    tag_197:\n    tag_196:\n      swap1\n      0x00\n      mstore\n      keccak256(0x00, 0x20)\n      swap1\n      0x02\n      mul\n      add\n        /* \"contracts/Proposal.sol\":5428:5485  ProposalInfo storage proposal = proposalInfos[proposalId] */\n      swap1\n      pop\n        /* \"contracts/Proposal.sol\":5531:5537  amount */\n      dup2\n        /* \"contracts/Proposal.sol\":5495:5503  proposal */\n      dup2\n        /* \"contracts/Proposal.sol\":5495:5511  proposal.options */\n      0x01\n      add\n        /* \"contracts/Proposal.sol\":5512:5520  optionId */\n      dup5\n        /* \"contracts/Proposal.sol\":5495:5521  proposal.options[optionId] */\n      dup2\n      sload\n      dup2\n      lt\n      tag_200\n      jumpi\n      tag_201\n      tag_198\n      jump\t// in\n    tag_201:\n    tag_200:\n      swap1\n      0x00\n      mstore\n      keccak256(0x00, 0x20)\n      swap1\n      0x03\n      mul\n      add\n        /* \"contracts/Proposal.sol\":5495:5527  proposal.options[optionId].count */\n      0x01\n      add\n      0x00\n        /* \"contracts/Proposal.sol\":5495:5537  proposal.options[optionId].count += amount */\n      dup3\n      dup3\n      sload\n      tag_203\n      swap2\n      swap1\n      tag_188\n      jump\t// in\n    tag_203:\n      swap3\n      pop\n      pop\n      dup2\n      swap1\n      sstore\n      pop\n        /* \"contracts/Proposal.sol\":5584:5585  1 */\n      0x01\n        /* \"contracts/Proposal.sol\":5547:5555  proposal */\n      dup2\n        /* \"contracts/Proposal.sol\":5547:5563  proposal.options */\n      0x01\n      add\n        /* \"contracts/Proposal.sol\":5564:5572  optionId */\n      dup5\n        /* \"contracts/Proposal.sol\":5547:5573  proposal.options[optionId] */\n      dup2\n      sload\n      dup2\n      lt\n      tag_204\n      jumpi\n      tag_205\n      tag_198\n      jump\t// in\n    tag_205:\n    tag_204:\n      swap1\n      0x00\n      mstore\n      keccak256(0x00, 0x20)\n      swap1\n      0x03\n      mul\n      add\n        /* \"contracts/Proposal.sol\":5547:5580  proposal.options[optionId].voters */\n      0x02\n      add\n      0x00\n        /* \"contracts/Proposal.sol\":5547:5585  proposal.options[optionId].voters += 1 */\n      dup3\n      dup3\n      sload\n      tag_207\n      swap2\n      swap1\n      tag_188\n      jump\t// in\n    tag_207:\n      swap3\n      pop\n      pop\n      dup2\n      swap1\n      sstore\n      pop\n        /* \"contracts/Proposal.sol\":5596:5619  proposalVotingSituation */\n      0x06\n        /* \"contracts/Proposal.sol\":5596:5631  proposalVotingSituation[proposalId] */\n      0x00\n        /* \"contracts/Proposal.sol\":5620:5630  proposalId */\n      dup6\n        /* \"contracts/Proposal.sol\":5596:5631  proposalVotingSituation[proposalId] */\n      dup2\n      mstore\n      0x20\n      add\n      swap1\n      dup2\n      mstore\n      0x20\n      add\n      0x00\n      keccak256\n        /* \"contracts/Proposal.sol\":5596:5641  proposalVotingSituation[proposalId][optionId] */\n      0x00\n        /* \"contracts/Proposal.sol\":5632:5640  optionId */\n      dup5\n        /* \"contracts/Proposal.sol\":5596:5641  proposalVotingSituation[proposalId][optionId] */\n      dup2\n      mstore\n      0x20\n      add\n      swap1\n      dup2\n      mstore\n      0x20\n      add\n      0x00\n      keccak256\n        /* \"contracts/Proposal.sol\":5660:5688  VoteInfo(msg.sender, amount) */\n      mload(0x40)\n      dup1\n      0x40\n      add\n      0x40\n      mstore\n      dup1\n        /* \"contracts/Proposal.sol\":5669:5679  msg.sender */\n      caller\n        /* \"contracts/Proposal.sol\":5660:5688  VoteInfo(msg.sender, amount) */\n      0xffffffffffffffffffffffffffffffffffffffff\n      and\n      dup2\n      mstore\n      0x20\n      add\n        /* \"contracts/Proposal.sol\":5681:5687  amount */\n      dup5\n        /* \"contracts/Proposal.sol\":5660:5688  VoteInfo(msg.sender, amount) */\n      dup2\n      mstore\n      pop\n        /* \"contracts/Proposal.sol\":5596:5698  proposalVotingSituation[proposalId][optionId].push(... */\n      swap1\n      dup1\n      0x01\n      dup2\n      sload\n      add\n      dup1\n      dup3\n      sstore\n      dup1\n      swap2\n      pop\n      pop\n      0x01\n      swap1\n      sub\n      swap1\n      0x00\n      mstore\n      keccak256(0x00, 0x20)\n      swap1\n      0x02\n      mul\n      add\n      0x00\n      swap1\n      swap2\n      swap1\n      swap2\n      swap1\n      swap2\n      pop\n      0x00\n      dup3\n      add\n      mload\n      dup2\n      0x00\n      add\n      exp(0x0100, 0x00)\n      dup2\n      sload\n      dup2\n      0xffffffffffffffffffffffffffffffffffffffff\n      mul\n      not\n      and\n      swap1\n      dup4\n      0xffffffffffffffffffffffffffffffffffffffff\n      and\n      mul\n      or\n      swap1\n      sstore\n      pop\n      0x20\n      dup3\n      add\n      mload\n      dup2\n      0x01\n      add\n      sstore\n      pop\n      pop\n        /* \"contracts/Proposal.sol\":5744:5752  optionId */\n      dup3\n        /* \"contracts/Proposal.sol\":5732:5742  proposalId */\n      dup5\n        /* \"contracts/Proposal.sol\":5720:5730  msg.sender */\n      caller\n        /* \"contracts/Proposal.sol\":5714:5761  Voted(msg.sender, proposalId, optionId, amount) */\n      0xffffffffffffffffffffffffffffffffffffffff\n      and\n      0xc32b42768a47a585121e9b8d7a2ab9d3f34c326a192dee11ee1732e3d18313f3\n        /* \"contracts/Proposal.sol\":5754:5760  amount */\n      dup6\n        /* \"contracts/Proposal.sol\":5714:5761  Voted(msg.sender, proposalId, optionId, amount) */\n      mload(0x40)\n      tag_209\n      swap2\n      swap1\n      tag_39\n      jump\t// in\n    tag_209:\n      mload(0x40)\n      dup1\n      swap2\n      sub\n      swap1\n      log4\n        /* \"contracts/Proposal.sol\":5251:5768  {... */\n      pop\n        /* \"contracts/Proposal.sol\":5144:5768  function vote(... */\n      pop\n      pop\n      pop\n      jump\t// out\n        /* \"contracts/Proposal.sol\":1536:1556  address public owner */\n    tag_85:\n      0x00\n      0x02\n      swap1\n      sload\n      swap1\n      0x0100\n      exp\n      swap1\n      div\n      0xffffffffffffffffffffffffffffffffffffffff\n      and\n      dup2\n      jump\t// out\n        /* \"contracts/Proposal.sol\":5774:6326  function settle(... */\n    tag_92:\n        /* \"contracts/Proposal.sol\":5905:5930  bool isSingleOptionStatus */\n      0x00\n        /* \"contracts/Proposal.sol\":5933:6014  isSingleOptionProposal(... */\n      tag_211\n        /* \"contracts/Proposal.sol\":5969:5979  proposalId */\n      dup5\n        /* \"contracts/Proposal.sol\":5993:6004  winOptionId */\n      dup5\n        /* \"contracts/Proposal.sol\":5933:5955  isSingleOptionProposal */\n      tag_212\n        /* \"contracts/Proposal.sol\":5933:6014  isSingleOptionProposal(... */\n      jump\t// in\n    tag_211:\n        /* \"contracts/Proposal.sol\":5905:6014  bool isSingleOptionStatus = isSingleOptionProposal(... */\n      swap1\n      pop\n        /* \"contracts/Proposal.sol\":6029:6049  isSingleOptionStatus */\n      dup1\n        /* \"contracts/Proposal.sol\":6025:6271  if (isSingleOptionStatus) {... */\n      iszero\n      tag_213\n      jumpi\n        /* \"contracts/Proposal.sol\":6065:6116  handleSingleOptionProposal(proposalId, winOptionId) */\n      tag_214\n        /* \"contracts/Proposal.sol\":6092:6102  proposalId */\n      dup5\n        /* \"contracts/Proposal.sol\":6104:6115  winOptionId */\n      dup5\n        /* \"contracts/Proposal.sol\":6065:6091  handleSingleOptionProposal */\n      tag_215\n        /* \"contracts/Proposal.sol\":6065:6116  handleSingleOptionProposal(proposalId, winOptionId) */\n      jump\t// in\n    tag_214:\n        /* \"contracts/Proposal.sol\":6025:6271  if (isSingleOptionStatus) {... */\n      jump(tag_216)\n    tag_213:\n        /* \"contracts/Proposal.sol\":6147:6196  handleJurorsDistributeRewards(proposalId, jurors) */\n      tag_217\n        /* \"contracts/Proposal.sol\":6177:6187  proposalId */\n      dup5\n        /* \"contracts/Proposal.sol\":6189:6195  jurors */\n      dup4\n        /* \"contracts/Proposal.sol\":6147:6176  handleJurorsDistributeRewards */\n      tag_218\n        /* \"contracts/Proposal.sol\":6147:6196  handleJurorsDistributeRewards(proposalId, jurors) */\n      jump\t// in\n    tag_217:\n        /* \"contracts/Proposal.sol\":6210:6260  handleMultiOptionProposal(proposalId, winOptionId) */\n      tag_219\n        /* \"contracts/Proposal.sol\":6236:6246  proposalId */\n      dup5\n        /* \"contracts/Proposal.sol\":6248:6259  winOptionId */\n      dup5\n        /* \"contracts/Proposal.sol\":6210:6235  handleMultiOptionProposal */\n      tag_220\n        /* \"contracts/Proposal.sol\":6210:6260  handleMultiOptionProposal(proposalId, winOptionId) */\n      jump\t// in\n    tag_219:\n        /* \"contracts/Proposal.sol\":6025:6271  if (isSingleOptionStatus) {... */\n    tag_216:\n        /* \"contracts/Proposal.sol\":6308:6319  winOptionId */\n      dup3\n        /* \"contracts/Proposal.sol\":6280:6293  winningOption */\n      0x07\n        /* \"contracts/Proposal.sol\":6280:6305  winningOption[proposalId] */\n      0x00\n        /* \"contracts/Proposal.sol\":6294:6304  proposalId */\n      dup7\n        /* \"contracts/Proposal.sol\":6280:6305  winningOption[proposalId] */\n      dup2\n      mstore\n      0x20\n      add\n      swap1\n      dup2\n      mstore\n      0x20\n      add\n      0x00\n      keccak256\n        /* \"contracts/Proposal.sol\":6280:6319  winningOption[proposalId] = winOptionId */\n      dup2\n      swap1\n      sstore\n      pop\n        /* \"contracts/Proposal.sol\":5895:6326  {... */\n      pop\n        /* \"contracts/Proposal.sol\":5774:6326  function settle(... */\n      pop\n      pop\n      pop\n      jump\t// out\n        /* \"contracts/Proposal.sol\":1563:1590  address public logicAddress */\n    tag_95:\n      0x01\n      0x00\n      swap1\n      sload\n      swap1\n      0x0100\n      exp\n      swap1\n      div\n      0xffffffffffffffffffffffffffffffffffffffff\n      and\n      dup2\n      jump\t// out\n        /* \"contracts/Proposal.sol\":1758:1803  mapping(address => uint256) public votingLock */\n    tag_100:\n      mstore(0x20, 0x05)\n      dup1\n      0x00\n      mstore\n      keccak256(0x00, 0x40)\n      0x00\n      swap2\n      pop\n      swap1\n      pop\n      sload\n      dup2\n      jump\t// out\n        /* \"contracts/Proposal.sol\":1648:1683  ProposalInfo[] public proposalInfos */\n    tag_105:\n      0x03\n      dup2\n      dup2\n      sload\n      dup2\n      lt\n      tag_221\n      jumpi\n      0x00\n      dup1\n      revert\n    tag_221:\n      swap1\n      0x00\n      mstore\n      keccak256(0x00, 0x20)\n      swap1\n      0x02\n      mul\n      add\n      0x00\n      swap2\n      pop\n      swap1\n      pop\n      dup1\n      0x00\n      add\n      0x00\n      swap1\n      sload\n      swap1\n      0x0100\n      exp\n      swap1\n      div\n      0xffffffffffffffffffffffffffffffffffffffff\n      and\n      swap1\n      pop\n      dup2\n      jump\t// out\n        /* \"contracts/Proposal.sol\":2504:2894  function deposit(uint256 amount) external returns (uint256) {... */\n    tag_110:\n        /* \"contracts/Proposal.sol\":2555:2562  uint256 */\n      0x00\n        /* \"contracts/Proposal.sol\":2602:2614  mlnTokenAddr */\n      0x02\n      0x00\n      swap1\n      sload\n      swap1\n      0x0100\n      exp\n      swap1\n      div\n      0xffffffffffffffffffffffffffffffffffffffff\n      and\n        /* \"contracts/Proposal.sol\":2595:2628  IERC20(mlnTokenAddr).transferFrom */\n      0xffffffffffffffffffffffffffffffffffffffff\n      and\n      0x23b872dd\n        /* \"contracts/Proposal.sol\":2646:2656  msg.sender */\n      caller\n        /* \"contracts/Proposal.sol\":2682:2686  this */\n      address\n        /* \"contracts/Proposal.sol\":2705:2711  amount */\n      dup6\n        /* \"contracts/Proposal.sol\":2595:2725  IERC20(mlnTokenAddr).transferFrom(... */\n      mload(0x40)\n      dup5\n      0xffffffff\n      and\n      0xe0\n      shl\n      dup2\n      mstore\n      0x04\n      add\n      tag_224\n      swap4\n      swap3\n      swap2\n      swap1\n      tag_225\n      jump\t// in\n    tag_224:\n      0x20\n      mload(0x40)\n      dup1\n      dup4\n      sub\n      dup2\n      0x00\n      dup8\n      gas\n      call\n      iszero\n      dup1\n      iszero\n      tag_227\n      jumpi\n      returndatasize\n      0x00\n      dup1\n      returndatacopy\n      revert(0x00, returndatasize)\n    tag_227:\n      pop\n      pop\n      pop\n      pop\n      mload(0x40)\n      returndatasize\n      not(0x1f)\n      0x1f\n      dup3\n      add\n      and\n      dup3\n      add\n      dup1\n      0x40\n      mstore\n      pop\n      dup2\n      add\n      swap1\n      tag_228\n      swap2\n      swap1\n      tag_139\n      jump\t// in\n    tag_228:\n        /* \"contracts/Proposal.sol\":2574:2766  require(... */\n      tag_229\n      jumpi\n      mload(0x40)\n      0x08c379a000000000000000000000000000000000000000000000000000000000\n      dup2\n      mstore\n      0x04\n      add\n      tag_230\n      swap1\n      tag_142\n      jump\t// in\n    tag_230:\n      mload(0x40)\n      dup1\n      swap2\n      sub\n      swap1\n      revert\n    tag_229:\n        /* \"contracts/Proposal.sol\":2800:2806  amount */\n      dup2\n        /* \"contracts/Proposal.sol\":2776:2784  balances */\n      0x04\n        /* \"contracts/Proposal.sol\":2776:2796  balances[msg.sender] */\n      0x00\n        /* \"contracts/Proposal.sol\":2785:2795  msg.sender */\n      caller\n        /* \"contracts/Proposal.sol\":2776:2796  balances[msg.sender] */\n      0xffffffffffffffffffffffffffffffffffffffff\n      and\n      0xffffffffffffffffffffffffffffffffffffffff\n      and\n      dup2\n      mstore\n      0x20\n      add\n      swap1\n      dup2\n      mstore\n      0x20\n      add\n      0x00\n      keccak256\n      0x00\n        /* \"contracts/Proposal.sol\":2776:2806  balances[msg.sender] += amount */\n      dup3\n      dup3\n      sload\n      tag_231\n      swap2\n      swap1\n      tag_188\n      jump\t// in\n    tag_231:\n      swap3\n      pop\n      pop\n      dup2\n      swap1\n      sstore\n      pop\n        /* \"contracts/Proposal.sol\":2831:2841  msg.sender */\n      caller\n        /* \"contracts/Proposal.sol\":2821:2850  Deposited(msg.sender, amount) */\n      0xffffffffffffffffffffffffffffffffffffffff\n      and\n      0x2da466a7b24304f47e87fa2e1e5a81b9831ce54fec19055ce277ca2f39ba42c4\n        /* \"contracts/Proposal.sol\":2843:2849  amount */\n      dup4\n        /* \"contracts/Proposal.sol\":2821:2850  Deposited(msg.sender, amount) */\n      mload(0x40)\n      tag_232\n      swap2\n      swap1\n      tag_39\n      jump\t// in\n    tag_232:\n      mload(0x40)\n      dup1\n      swap2\n      sub\n      swap1\n      log2\n        /* \"contracts/Proposal.sol\":2867:2875  balances */\n      0x04\n        /* \"contracts/Proposal.sol\":2867:2887  balances[msg.sender] */\n      0x00\n        /* \"contracts/Proposal.sol\":2876:2886  msg.sender */\n      caller\n        /* \"contracts/Proposal.sol\":2867:2887  balances[msg.sender] */\n      0xffffffffffffffffffffffffffffffffffffffff\n      and\n      0xffffffffffffffffffffffffffffffffffffffff\n      and\n      dup2\n      mstore\n      0x20\n      add\n      swap1\n      dup2\n      mstore\n      0x20\n      add\n      0x00\n      keccak256\n      sload\n        /* \"contracts/Proposal.sol\":2860:2887  return balances[msg.sender] */\n      swap1\n      pop\n        /* \"contracts/Proposal.sol\":2504:2894  function deposit(uint256 amount) external returns (uint256) {... */\n      swap2\n      swap1\n      pop\n      jump\t// out\n        /* \"contracts/Proposal.sol\":2900:3879  function getDetails(... */\n    tag_115:\n        /* \"contracts/Proposal.sol\":3012:3027  address founder */\n      0x00\n        /* \"contracts/Proposal.sol\":3041:3074  string[] memory optionDescription */\n      0x60\n        /* \"contracts/Proposal.sol\":3088:3111  uint256[] memory counts */\n      dup1\n        /* \"contracts/Proposal.sol\":3125:3148  uint256[] memory voters */\n      0x60\n        /* \"contracts/Proposal.sol\":3162:3182  uint256 allVotesCast */\n      0x00\n        /* \"contracts/Proposal.sol\":3196:3213  uint256 allVoters */\n      dup1\n        /* \"contracts/Proposal.sol\":3238:3267  ProposalInfo storage proposal */\n      0x00\n        /* \"contracts/Proposal.sol\":3270:3283  proposalInfos */\n      0x03\n        /* \"contracts/Proposal.sol\":3284:3294  proposalId */\n      dup9\n        /* \"contracts/Proposal.sol\":3270:3295  proposalInfos[proposalId] */\n      dup2\n      sload\n      dup2\n      lt\n      tag_234\n      jumpi\n      tag_235\n      tag_198\n      jump\t// in\n    tag_235:\n    tag_234:\n      swap1\n      0x00\n      mstore\n      keccak256(0x00, 0x20)\n      swap1\n      0x02\n      mul\n      add\n        /* \"contracts/Proposal.sol\":3238:3295  ProposalInfo storage proposal = proposalInfos[proposalId] */\n      swap1\n      pop\n        /* \"contracts/Proposal.sol\":3305:3325  uint256 optionLength */\n      0x00\n        /* \"contracts/Proposal.sol\":3328:3336  proposal */\n      dup2\n        /* \"contracts/Proposal.sol\":3328:3344  proposal.options */\n      0x01\n      add\n        /* \"contracts/Proposal.sol\":3328:3351  proposal.options.length */\n      dup1\n      sload\n      swap1\n      pop\n        /* \"contracts/Proposal.sol\":3305:3351  uint256 optionLength = proposal.options.length */\n      swap1\n      pop\n        /* \"contracts/Proposal.sol\":3395:3407  optionLength */\n      dup1\n        /* \"contracts/Proposal.sol\":3382:3408  new string[](optionLength) */\n      0xffffffffffffffff\n      dup2\n      gt\n      iszero\n      tag_237\n      jumpi\n      tag_238\n      tag_162\n      jump\t// in\n    tag_238:\n    tag_237:\n      mload(0x40)\n      swap1\n      dup1\n      dup3\n      mstore\n      dup1\n      0x20\n      mul\n      0x20\n      add\n      dup3\n      add\n      0x40\n      mstore\n      dup1\n      iszero\n      tag_239\n      jumpi\n      dup2\n      0x20\n      add\n    tag_240:\n      0x60\n      dup2\n      mstore\n      0x20\n      add\n      swap1\n      0x01\n      swap1\n      sub\n      swap1\n      dup2\n      tag_240\n      jumpi\n      swap1\n      pop\n    tag_239:\n      pop\n        /* \"contracts/Proposal.sol\":3362:3408  optionDescription = new string[](optionLength) */\n      swap7\n      pop\n        /* \"contracts/Proposal.sol\":3441:3453  optionLength */\n      dup1\n        /* \"contracts/Proposal.sol\":3427:3454  new uint256[](optionLength) */\n      0xffffffffffffffff\n      dup2\n      gt\n      iszero\n      tag_241\n      jumpi\n      tag_242\n      tag_162\n      jump\t// in\n    tag_242:\n    tag_241:\n      mload(0x40)\n      swap1\n      dup1\n      dup3\n      mstore\n      dup1\n      0x20\n      mul\n      0x20\n      add\n      dup3\n      add\n      0x40\n      mstore\n      dup1\n      iszero\n      tag_243\n      jumpi\n      dup2\n      0x20\n      add\n      0x20\n      dup3\n      mul\n      dup1\n      calldatasize\n      dup4\n      calldatacopy\n      dup1\n      dup3\n      add\n      swap2\n      pop\n      pop\n      swap1\n      pop\n    tag_243:\n      pop\n        /* \"contracts/Proposal.sol\":3418:3454  counts = new uint256[](optionLength) */\n      swap6\n      pop\n        /* \"contracts/Proposal.sol\":3487:3499  optionLength */\n      dup1\n        /* \"contracts/Proposal.sol\":3473:3500  new uint256[](optionLength) */\n      0xffffffffffffffff\n      dup2\n      gt\n      iszero\n      tag_244\n      jumpi\n      tag_245\n      tag_162\n      jump\t// in\n    tag_245:\n    tag_244:\n      mload(0x40)\n      swap1\n      dup1\n      dup3\n      mstore\n      dup1\n      0x20\n      mul\n      0x20\n      add\n      dup3\n      add\n      0x40\n      mstore\n      dup1\n      iszero\n      tag_246\n      jumpi\n      dup2\n      0x20\n      add\n      0x20\n      dup3\n      mul\n      dup1\n      calldatasize\n      dup4\n      calldatacopy\n      dup1\n      dup3\n      add\n      swap2\n      pop\n      pop\n      swap1\n      pop\n    tag_246:\n      pop\n        /* \"contracts/Proposal.sol\":3464:3500  voters = new uint256[](optionLength) */\n      swap5\n      pop\n        /* \"contracts/Proposal.sol\":3520:3528  proposal */\n      dup2\n        /* \"contracts/Proposal.sol\":3520:3536  proposal.founder */\n      0x00\n      add\n      0x00\n      swap1\n      sload\n      swap1\n      0x0100\n      exp\n      swap1\n      div\n      0xffffffffffffffffffffffffffffffffffffffff\n      and\n        /* \"contracts/Proposal.sol\":3510:3536  founder = proposal.founder */\n      swap8\n      pop\n        /* \"contracts/Proposal.sol\":3552:3561  uint256 i */\n      0x00\n        /* \"contracts/Proposal.sol\":3547:3873  for (uint256 i = 0; i < optionLength; i++) {... */\n    tag_247:\n        /* \"contracts/Proposal.sol\":3571:3583  optionLength */\n      dup2\n        /* \"contracts/Proposal.sol\":3567:3568  i */\n      dup2\n        /* \"contracts/Proposal.sol\":3567:3583  i < optionLength */\n      lt\n        /* \"contracts/Proposal.sol\":3547:3873  for (uint256 i = 0; i < optionLength; i++) {... */\n      iszero\n      tag_248\n      jumpi\n        /* \"contracts/Proposal.sol\":3627:3635  proposal */\n      dup3\n        /* \"contracts/Proposal.sol\":3627:3643  proposal.options */\n      0x01\n      add\n        /* \"contracts/Proposal.sol\":3644:3645  i */\n      dup2\n        /* \"contracts/Proposal.sol\":3627:3646  proposal.options[i] */\n      dup2\n      sload\n      dup2\n      lt\n      tag_250\n      jumpi\n      tag_251\n      tag_198\n      jump\t// in\n    tag_251:\n    tag_250:\n      swap1\n      0x00\n      mstore\n      keccak256(0x00, 0x20)\n      swap1\n      0x03\n      mul\n      add\n        /* \"contracts/Proposal.sol\":3627:3651  proposal.options[i].desc */\n      0x00\n      add\n        /* \"contracts/Proposal.sol\":3604:3651  optionDescription[i] = proposal.options[i].desc */\n      dup1\n      sload\n      tag_253\n      swap1\n      tag_254\n      jump\t// in\n    tag_253:\n      dup1\n      0x1f\n      add\n      0x20\n      dup1\n      swap2\n      div\n      mul\n      0x20\n      add\n      mload(0x40)\n      swap1\n      dup2\n      add\n      0x40\n      mstore\n      dup1\n      swap3\n      swap2\n      swap1\n      dup2\n      dup2\n      mstore\n      0x20\n      add\n      dup3\n      dup1\n      sload\n      tag_255\n      swap1\n      tag_254\n      jump\t// in\n    tag_255:\n      dup1\n      iszero\n      tag_256\n      jumpi\n      dup1\n      0x1f\n      lt\n      tag_257\n      jumpi\n      0x0100\n      dup1\n      dup4\n      sload\n      div\n      mul\n      dup4\n      mstore\n      swap2\n      0x20\n      add\n      swap2\n      jump(tag_256)\n    tag_257:\n      dup3\n      add\n      swap2\n      swap1\n      0x00\n      mstore\n      keccak256(0x00, 0x20)\n      swap1\n    tag_258:\n      dup2\n      sload\n      dup2\n      mstore\n      swap1\n      0x01\n      add\n      swap1\n      0x20\n      add\n      dup1\n      dup4\n      gt\n      tag_258\n      jumpi\n      dup3\n      swap1\n      sub\n      0x1f\n      and\n      dup3\n      add\n      swap2\n    tag_256:\n      pop\n      pop\n      pop\n      pop\n      pop\n        /* \"contracts/Proposal.sol\":3604:3621  optionDescription */\n      dup9\n        /* \"contracts/Proposal.sol\":3622:3623  i */\n      dup3\n        /* \"contracts/Proposal.sol\":3604:3624  optionDescription[i] */\n      dup2\n      mload\n      dup2\n      lt\n      tag_259\n      jumpi\n      tag_260\n      tag_198\n      jump\t// in\n    tag_260:\n    tag_259:\n      0x20\n      mul\n      0x20\n      add\n      add\n        /* \"contracts/Proposal.sol\":3604:3651  optionDescription[i] = proposal.options[i].desc */\n      dup2\n      swap1\n      mstore\n      pop\n        /* \"contracts/Proposal.sol\":3677:3685  proposal */\n      dup3\n        /* \"contracts/Proposal.sol\":3677:3693  proposal.options */\n      0x01\n      add\n        /* \"contracts/Proposal.sol\":3694:3695  i */\n      dup2\n        /* \"contracts/Proposal.sol\":3677:3696  proposal.options[i] */\n      dup2\n      sload\n      dup2\n      lt\n      tag_261\n      jumpi\n      tag_262\n      tag_198\n      jump\t// in\n    tag_262:\n    tag_261:\n      swap1\n      0x00\n      mstore\n      keccak256(0x00, 0x20)\n      swap1\n      0x03\n      mul\n      add\n        /* \"contracts/Proposal.sol\":3677:3702  proposal.options[i].count */\n      0x01\n      add\n      sload\n        /* \"contracts/Proposal.sol\":3665:3671  counts */\n      dup8\n        /* \"contracts/Proposal.sol\":3672:3673  i */\n      dup3\n        /* \"contracts/Proposal.sol\":3665:3674  counts[i] */\n      dup2\n      mload\n      dup2\n      lt\n      tag_264\n      jumpi\n      tag_265\n      tag_198\n      jump\t// in\n    tag_265:\n    tag_264:\n      0x20\n      mul\n      0x20\n      add\n      add\n        /* \"contracts/Proposal.sol\":3665:3702  counts[i] = proposal.options[i].count */\n      dup2\n      dup2\n      mstore\n      pop\n      pop\n        /* \"contracts/Proposal.sol\":3728:3736  proposal */\n      dup3\n        /* \"contracts/Proposal.sol\":3728:3744  proposal.options */\n      0x01\n      add\n        /* \"contracts/Proposal.sol\":3745:3746  i */\n      dup2\n        /* \"contracts/Proposal.sol\":3728:3747  proposal.options[i] */\n      dup2\n      sload\n      dup2\n      lt\n      tag_266\n      jumpi\n      tag_267\n      tag_198\n      jump\t// in\n    tag_267:\n    tag_266:\n      swap1\n      0x00\n      mstore\n      keccak256(0x00, 0x20)\n      swap1\n      0x03\n      mul\n      add\n        /* \"contracts/Proposal.sol\":3728:3754  proposal.options[i].voters */\n      0x02\n      add\n      sload\n        /* \"contracts/Proposal.sol\":3716:3722  voters */\n      dup7\n        /* \"contracts/Proposal.sol\":3723:3724  i */\n      dup3\n        /* \"contracts/Proposal.sol\":3716:3725  voters[i] */\n      dup2\n      mload\n      dup2\n      lt\n      tag_269\n      jumpi\n      tag_270\n      tag_198\n      jump\t// in\n    tag_270:\n    tag_269:\n      0x20\n      mul\n      0x20\n      add\n      add\n        /* \"contracts/Proposal.sol\":3716:3754  voters[i] = proposal.options[i].voters */\n      dup2\n      dup2\n      mstore\n      pop\n      pop\n        /* \"contracts/Proposal.sol\":3781:3789  proposal */\n      dup3\n        /* \"contracts/Proposal.sol\":3781:3797  proposal.options */\n      0x01\n      add\n        /* \"contracts/Proposal.sol\":3798:3799  i */\n      dup2\n        /* \"contracts/Proposal.sol\":3781:3800  proposal.options[i] */\n      dup2\n      sload\n      dup2\n      lt\n      tag_271\n      jumpi\n      tag_272\n      tag_198\n      jump\t// in\n    tag_272:\n    tag_271:\n      swap1\n      0x00\n      mstore\n      keccak256(0x00, 0x20)\n      swap1\n      0x03\n      mul\n      add\n        /* \"contracts/Proposal.sol\":3781:3807  proposal.options[i].voters */\n      0x02\n      add\n      sload\n        /* \"contracts/Proposal.sol\":3768:3807  allVoters += proposal.options[i].voters */\n      dup5\n      tag_274\n      swap2\n      swap1\n      tag_188\n      jump\t// in\n    tag_274:\n      swap4\n      pop\n        /* \"contracts/Proposal.sol\":3837:3845  proposal */\n      dup3\n        /* \"contracts/Proposal.sol\":3837:3853  proposal.options */\n      0x01\n      add\n        /* \"contracts/Proposal.sol\":3854:3855  i */\n      dup2\n        /* \"contracts/Proposal.sol\":3837:3856  proposal.options[i] */\n      dup2\n      sload\n      dup2\n      lt\n      tag_275\n      jumpi\n      tag_276\n      tag_198\n      jump\t// in\n    tag_276:\n    tag_275:\n      swap1\n      0x00\n      mstore\n      keccak256(0x00, 0x20)\n      swap1\n      0x03\n      mul\n      add\n        /* \"contracts/Proposal.sol\":3837:3862  proposal.options[i].count */\n      0x01\n      add\n      sload\n        /* \"contracts/Proposal.sol\":3821:3862  allVotesCast += proposal.options[i].count */\n      dup6\n      tag_278\n      swap2\n      swap1\n      tag_188\n      jump\t// in\n    tag_278:\n      swap5\n      pop\n        /* \"contracts/Proposal.sol\":3585:3588  i++ */\n      dup1\n      dup1\n      0x01\n      add\n      swap2\n      pop\n      pop\n        /* \"contracts/Proposal.sol\":3547:3873  for (uint256 i = 0; i < optionLength; i++) {... */\n      jump(tag_247)\n    tag_248:\n      pop\n        /* \"contracts/Proposal.sol\":3228:3879  {... */\n      pop\n      pop\n        /* \"contracts/Proposal.sol\":2900:3879  function getDetails(... */\n      swap2\n      swap4\n      swap6\n      pop\n      swap2\n      swap4\n      swap6\n      jump\t// out\n        /* \"contracts/Proposal.sol\":3885:4449  function create(string[] memory optionDescs) external {... */\n    tag_122:\n        /* \"contracts/Proposal.sol\":3978:3979  0 */\n      0x00\n        /* \"contracts/Proposal.sol\":3957:3968  optionDescs */\n      dup2\n        /* \"contracts/Proposal.sol\":3957:3975  optionDescs.length */\n      mload\n        /* \"contracts/Proposal.sol\":3957:3979  optionDescs.length > 0 */\n      gt\n        /* \"contracts/Proposal.sol\":3949:3993  require(optionDescs.length > 0, \"len error\") */\n      tag_280\n      jumpi\n      mload(0x40)\n      0x08c379a000000000000000000000000000000000000000000000000000000000\n      dup2\n      mstore\n      0x04\n      add\n      tag_281\n      swap1\n      tag_282\n      jump\t// in\n    tag_281:\n      mload(0x40)\n      dup1\n      swap2\n      sub\n      swap1\n      revert\n    tag_280:\n        /* \"contracts/Proposal.sol\":4047:4079  ProposalInfo storage newProposal */\n      0x00\n        /* \"contracts/Proposal.sol\":4082:4095  proposalInfos */\n      0x03\n        /* \"contracts/Proposal.sol\":4082:4102  proposalInfos.push() */\n      0x01\n      dup2\n      0x01\n      dup2\n      sload\n      add\n      dup1\n      dup3\n      sstore\n      dup1\n      swap2\n      pop\n      pop\n      sub\n      swap1\n      0x00\n      mstore\n      keccak256(0x00, 0x20)\n      swap1\n      0x02\n      mul\n      add\n        /* \"contracts/Proposal.sol\":4047:4102  ProposalInfo storage newProposal = proposalInfos.push() */\n      swap1\n      pop\n        /* \"contracts/Proposal.sol\":4135:4145  msg.sender */\n      caller\n        /* \"contracts/Proposal.sol\":4113:4124  newProposal */\n      dup2\n        /* \"contracts/Proposal.sol\":4113:4132  newProposal.founder */\n      0x00\n      add\n      0x00\n        /* \"contracts/Proposal.sol\":4113:4145  newProposal.founder = msg.sender */\n      0x0100\n      exp\n      dup2\n      sload\n      dup2\n      0xffffffffffffffffffffffffffffffffffffffff\n      mul\n      not\n      and\n      swap1\n      dup4\n      0xffffffffffffffffffffffffffffffffffffffff\n      and\n      mul\n      or\n      swap1\n      sstore\n      pop\n        /* \"contracts/Proposal.sol\":4161:4170  uint256 i */\n      0x00\n        /* \"contracts/Proposal.sol\":4156:4284  for (uint256 i = 0; i < optionDescs.length; i++) {... */\n    tag_284:\n        /* \"contracts/Proposal.sol\":4180:4191  optionDescs */\n      dup3\n        /* \"contracts/Proposal.sol\":4180:4198  optionDescs.length */\n      mload\n        /* \"contracts/Proposal.sol\":4176:4177  i */\n      dup2\n        /* \"contracts/Proposal.sol\":4176:4198  i < optionDescs.length */\n      lt\n        /* \"contracts/Proposal.sol\":4156:4284  for (uint256 i = 0; i < optionDescs.length; i++) {... */\n      iszero\n      tag_285\n      jumpi\n        /* \"contracts/Proposal.sol\":4219:4230  newProposal */\n      dup2\n        /* \"contracts/Proposal.sol\":4219:4238  newProposal.options */\n      0x01\n      add\n        /* \"contracts/Proposal.sol\":4244:4272  Option(optionDescs[i], 0, 0) */\n      mload(0x40)\n      dup1\n      0x60\n      add\n      0x40\n      mstore\n      dup1\n        /* \"contracts/Proposal.sol\":4251:4262  optionDescs */\n      dup6\n        /* \"contracts/Proposal.sol\":4263:4264  i */\n      dup5\n        /* \"contracts/Proposal.sol\":4251:4265  optionDescs[i] */\n      dup2\n      mload\n      dup2\n      lt\n      tag_287\n      jumpi\n      tag_288\n      tag_198\n      jump\t// in\n    tag_288:\n    tag_287:\n      0x20\n      mul\n      0x20\n      add\n      add\n      mload\n        /* \"contracts/Proposal.sol\":4244:4272  Option(optionDescs[i], 0, 0) */\n      dup2\n      mstore\n      0x20\n      add\n        /* \"contracts/Proposal.sol\":4267:4268  0 */\n      0x00\n        /* \"contracts/Proposal.sol\":4244:4272  Option(optionDescs[i], 0, 0) */\n      dup2\n      mstore\n      0x20\n      add\n        /* \"contracts/Proposal.sol\":4270:4271  0 */\n      0x00\n        /* \"contracts/Proposal.sol\":4244:4272  Option(optionDescs[i], 0, 0) */\n      dup2\n      mstore\n      pop\n        /* \"contracts/Proposal.sol\":4219:4273  newProposal.options.push(Option(optionDescs[i], 0, 0)) */\n      swap1\n      dup1\n      0x01\n      dup2\n      sload\n      add\n      dup1\n      dup3\n      sstore\n      dup1\n      swap2\n      pop\n      pop\n      0x01\n      swap1\n      sub\n      swap1\n      0x00\n      mstore\n      keccak256(0x00, 0x20)\n      swap1\n      0x03\n      mul\n      add\n      0x00\n      swap1\n      swap2\n      swap1\n      swap2\n      swap1\n      swap2\n      pop\n      0x00\n      dup3\n      add\n      mload\n      dup2\n      0x00\n      add\n      swap1\n      dup2\n      tag_290\n      swap2\n      swap1\n      tag_291\n      jump\t// in\n    tag_290:\n      pop\n      0x20\n      dup3\n      add\n      mload\n      dup2\n      0x01\n      add\n      sstore\n      0x40\n      dup3\n      add\n      mload\n      dup2\n      0x02\n      add\n      sstore\n      pop\n      pop\n        /* \"contracts/Proposal.sol\":4200:4203  i++ */\n      dup1\n      dup1\n      0x01\n      add\n      swap2\n      pop\n      pop\n        /* \"contracts/Proposal.sol\":4156:4284  for (uint256 i = 0; i < optionDescs.length; i++) {... */\n      jump(tag_284)\n    tag_285:\n      pop\n        /* \"contracts/Proposal.sol\":4344:4355  uint256 len */\n      0x00\n        /* \"contracts/Proposal.sol\":4381:4382  1 */\n      0x01\n        /* \"contracts/Proposal.sol\":4358:4371  proposalInfos */\n      0x03\n        /* \"contracts/Proposal.sol\":4358:4378  proposalInfos.length */\n      dup1\n      sload\n      swap1\n      pop\n        /* \"contracts/Proposal.sol\":4358:4382  proposalInfos.length - 1 */\n      tag_292\n      swap2\n      swap1\n      tag_144\n      jump\t// in\n    tag_292:\n        /* \"contracts/Proposal.sol\":4344:4382  uint256 len = proposalInfos.length - 1 */\n      swap1\n      pop\n        /* \"contracts/Proposal.sol\":4425:4428  len */\n      dup1\n        /* \"contracts/Proposal.sol\":4413:4423  msg.sender */\n      caller\n        /* \"contracts/Proposal.sol\":4398:4442  CreateProposal(msg.sender, len, optionDescs) */\n      0xffffffffffffffffffffffffffffffffffffffff\n      and\n      0x9a6f89a0fdf2b617e645524a789bbeab5b66bf3517973ca92daf26f077603f85\n        /* \"contracts/Proposal.sol\":4430:4441  optionDescs */\n      dup6\n        /* \"contracts/Proposal.sol\":4398:4442  CreateProposal(msg.sender, len, optionDescs) */\n      mload(0x40)\n      tag_293\n      swap2\n      swap1\n      tag_294\n      jump\t// in\n    tag_293:\n      mload(0x40)\n      dup1\n      swap2\n      sub\n      swap1\n      log3\n        /* \"contracts/Proposal.sol\":3939:4449  {... */\n      pop\n      pop\n        /* \"contracts/Proposal.sol\":3885:4449  function create(string[] memory optionDescs) external {... */\n      pop\n      jump\t// out\n        /* \"contracts/Proposal.sol\":1597:1624  address public mlnTokenAddr */\n    tag_125:\n      0x02\n      0x00\n      swap1\n      sload\n      swap1\n      0x0100\n      exp\n      swap1\n      div\n      0xffffffffffffffffffffffffffffffffffffffff\n      and\n      dup2\n      jump\t// out\n        /* \"contracts/Proposal.sol\":2369:2498  function initialize(address tokenAddr) external initializer {... */\n    tag_130:\n        /* \"@openzeppelin/contracts/proxy/utils/Initializable.sol\":3268:3287  bool isTopLevelCall */\n      0x00\n        /* \"@openzeppelin/contracts/proxy/utils/Initializable.sol\":3291:3304  _initializing */\n      dup1\n      0x01\n      swap1\n      sload\n      swap1\n      0x0100\n      exp\n      swap1\n      div\n      0xff\n      and\n        /* \"@openzeppelin/contracts/proxy/utils/Initializable.sol\":3290:3304  !_initializing */\n      iszero\n        /* \"@openzeppelin/contracts/proxy/utils/Initializable.sol\":3268:3304  bool isTopLevelCall = !_initializing */\n      swap1\n      pop\n        /* \"@openzeppelin/contracts/proxy/utils/Initializable.sol\":3336:3350  isTopLevelCall */\n      dup1\n        /* \"@openzeppelin/contracts/proxy/utils/Initializable.sol\":3336:3370  isTopLevelCall && _initialized < 1 */\n      dup1\n      iszero\n      tag_296\n      jumpi\n      pop\n        /* \"@openzeppelin/contracts/proxy/utils/Initializable.sol\":3369:3370  1 */\n      0x01\n        /* \"@openzeppelin/contracts/proxy/utils/Initializable.sol\":3354:3366  _initialized */\n      0x00\n      dup1\n      sload\n      swap1\n      0x0100\n      exp\n      swap1\n      div\n      0xff\n      and\n        /* \"@openzeppelin/contracts/proxy/utils/Initializable.sol\":3354:3370  _initialized < 1 */\n      0xff\n      and\n      lt\n        /* \"@openzeppelin/contracts/proxy/utils/Initializable.sol\":3336:3370  isTopLevelCall && _initialized < 1 */\n    tag_296:\n        /* \"@openzeppelin/contracts/proxy/utils/Initializable.sol\":3335:3432  (isTopLevelCall && _initialized < 1) || (!Address.isContract(address(this)) && _initialized == 1) */\n      dup1\n      tag_297\n      jumpi\n      pop\n        /* \"@openzeppelin/contracts/proxy/utils/Initializable.sol\":3377:3410  Address.isContract(address(this)) */\n      tag_298\n        /* \"@openzeppelin/contracts/proxy/utils/Initializable.sol\":3404:3408  this */\n      address\n        /* \"@openzeppelin/contracts/proxy/utils/Initializable.sol\":3377:3395  Address.isContract */\n      tag_299\n        /* \"@openzeppelin/contracts/proxy/utils/Initializable.sol\":3377:3410  Address.isContract(address(this)) */\n      jump\t// in\n    tag_298:\n        /* \"@openzeppelin/contracts/proxy/utils/Initializable.sol\":3376:3410  !Address.isContract(address(this)) */\n      iszero\n        /* \"@openzeppelin/contracts/proxy/utils/Initializable.sol\":3376:3431  !Address.isContract(address(this)) && _initialized == 1 */\n      dup1\n      iszero\n      tag_300\n      jumpi\n      pop\n        /* \"@openzeppelin/contracts/proxy/utils/Initializable.sol\":3430:3431  1 */\n      0x01\n        /* \"@openzeppelin/contracts/proxy/utils/Initializable.sol\":3414:3426  _initialized */\n      0x00\n      dup1\n      sload\n      swap1\n      0x0100\n      exp\n      swap1\n      div\n      0xff\n      and\n        /* \"@openzeppelin/contracts/proxy/utils/Initializable.sol\":3414:3431  _initialized == 1 */\n      0xff\n      and\n      eq\n        /* \"@openzeppelin/contracts/proxy/utils/Initializable.sol\":3376:3431  !Address.isContract(address(this)) && _initialized == 1 */\n    tag_300:\n        /* \"@openzeppelin/contracts/proxy/utils/Initializable.sol\":3335:3432  (isTopLevelCall && _initialized < 1) || (!Address.isContract(address(this)) && _initialized == 1) */\n    tag_297:\n        /* \"@openzeppelin/contracts/proxy/utils/Initializable.sol\":3314:3504  require(... */\n      tag_301\n      jumpi\n      mload(0x40)\n      0x08c379a000000000000000000000000000000000000000000000000000000000\n      dup2\n      mstore\n      0x04\n      add\n      tag_302\n      swap1\n      tag_303\n      jump\t// in\n    tag_302:\n      mload(0x40)\n      dup1\n      swap2\n      sub\n      swap1\n      revert\n    tag_301:\n        /* \"@openzeppelin/contracts/proxy/utils/Initializable.sol\":3529:3530  1 */\n      0x01\n        /* \"@openzeppelin/contracts/proxy/utils/Initializable.sol\":3514:3526  _initialized */\n      0x00\n      dup1\n        /* \"@openzeppelin/contracts/proxy/utils/Initializable.sol\":3514:3530  _initialized = 1 */\n      0x0100\n      exp\n      dup2\n      sload\n      dup2\n      0xff\n      mul\n      not\n      and\n      swap1\n      dup4\n      0xff\n      and\n      mul\n      or\n      swap1\n      sstore\n      pop\n        /* \"@openzeppelin/contracts/proxy/utils/Initializable.sol\":3544:3558  isTopLevelCall */\n      dup1\n        /* \"@openzeppelin/contracts/proxy/utils/Initializable.sol\":3540:3605  if (isTopLevelCall) {... */\n      iszero\n      tag_304\n      jumpi\n        /* \"@openzeppelin/contracts/proxy/utils/Initializable.sol\":3590:3594  true */\n      0x01\n        /* \"@openzeppelin/contracts/proxy/utils/Initializable.sol\":3574:3587  _initializing */\n      0x00\n      0x01\n        /* \"@openzeppelin/contracts/proxy/utils/Initializable.sol\":3574:3594  _initializing = true */\n      0x0100\n      exp\n      dup2\n      sload\n      dup2\n      0xff\n      mul\n      not\n      and\n      swap1\n      dup4\n      iszero\n      iszero\n      mul\n      or\n      swap1\n      sstore\n      pop\n        /* \"@openzeppelin/contracts/proxy/utils/Initializable.sol\":3540:3605  if (isTopLevelCall) {... */\n    tag_304:\n        /* \"contracts/Proposal.sol\":2454:2463  tokenAddr */\n      dup2\n        /* \"contracts/Proposal.sol\":2439:2451  mlnTokenAddr */\n      0x02\n      0x00\n        /* \"contracts/Proposal.sol\":2439:2463  mlnTokenAddr = tokenAddr */\n      0x0100\n      exp\n      dup2\n      sload\n      dup2\n      0xffffffffffffffffffffffffffffffffffffffff\n      mul\n      not\n      and\n      swap1\n      dup4\n      0xffffffffffffffffffffffffffffffffffffffff\n      and\n      mul\n      or\n      swap1\n      sstore\n      pop\n        /* \"contracts/Proposal.sol\":2481:2491  msg.sender */\n      caller\n        /* \"contracts/Proposal.sol\":2473:2478  owner */\n      0x00\n      0x02\n        /* \"contracts/Proposal.sol\":2473:2491  owner = msg.sender */\n      0x0100\n      exp\n      dup2\n      sload\n      dup2\n      0xffffffffffffffffffffffffffffffffffffffff\n      mul\n      not\n      and\n      swap1\n      dup4\n      0xffffffffffffffffffffffffffffffffffffffff\n      and\n      mul\n      or\n      swap1\n      sstore\n      pop\n        /* \"@openzeppelin/contracts/proxy/utils/Initializable.sol\":3629:3643  isTopLevelCall */\n      dup1\n        /* \"@openzeppelin/contracts/proxy/utils/Initializable.sol\":3625:3724  if (isTopLevelCall) {... */\n      iszero\n      tag_306\n      jumpi\n        /* \"@openzeppelin/contracts/proxy/utils/Initializable.sol\":3675:3680  false */\n      0x00\n        /* \"@openzeppelin/contracts/proxy/utils/Initializable.sol\":3659:3672  _initializing */\n      dup1\n      0x01\n        /* \"@openzeppelin/contracts/proxy/utils/Initializable.sol\":3659:3680  _initializing = false */\n      0x0100\n      exp\n      dup2\n      sload\n      dup2\n      0xff\n      mul\n      not\n      and\n      swap1\n      dup4\n      iszero\n      iszero\n      mul\n      or\n      swap1\n      sstore\n      pop\n        /* \"@openzeppelin/contracts/proxy/utils/Initializable.sol\":3699:3713  Initialized(1) */\n      0x7f26b83ff96e1f2b6a682f133852f6798a09c465da95921460cefb3847402498\n        /* \"@openzeppelin/contracts/proxy/utils/Initializable.sol\":3711:3712  1 */\n      0x01\n        /* \"@openzeppelin/contracts/proxy/utils/Initializable.sol\":3699:3713  Initialized(1) */\n      mload(0x40)\n      tag_307\n      swap2\n      swap1\n      tag_308\n      jump\t// in\n    tag_307:\n      mload(0x40)\n      dup1\n      swap2\n      sub\n      swap1\n      log1\n        /* \"@openzeppelin/contracts/proxy/utils/Initializable.sol\":3625:3724  if (isTopLevelCall) {... */\n    tag_306:\n        /* \"@openzeppelin/contracts/proxy/utils/Initializable.sol\":3258:3730  {... */\n      pop\n        /* \"contracts/Proposal.sol\":2369:2498  function initialize(address tokenAddr) external initializer {... */\n      pop\n      jump\t// out\n        /* \"@openzeppelin/contracts/proxy/ERC1967/ERC1967Upgrade.sol\":1175:1315  function _getImplementation() internal view returns (address) {... */\n    tag_152:\n        /* \"@openzeppelin/contracts/proxy/ERC1967/ERC1967Upgrade.sol\":1228:1235  address */\n      0x00\n        /* \"@openzeppelin/contracts/proxy/ERC1967/ERC1967Upgrade.sol\":1254:1302  StorageSlot.getAddressSlot(_IMPLEMENTATION_SLOT) */\n      tag_310\n        /* \"@openzeppelin/contracts/proxy/ERC1967/ERC1967Upgrade.sol\":1030:1096  0x360894a13ba1a3210667c828492db98dca3e2076cc3735a920a3ca505d382bbc */\n      0x360894a13ba1a3210667c828492db98dca3e2076cc3735a920a3ca505d382bbc\n        /* \"@openzeppelin/contracts/proxy/ERC1967/ERC1967Upgrade.sol\":1281:1301  _IMPLEMENTATION_SLOT */\n      0x00\n      shl\n        /* \"@openzeppelin/contracts/proxy/ERC1967/ERC1967Upgrade.sol\":1254:1280  StorageSlot.getAddressSlot */\n      tag_311\n        /* \"@openzeppelin/contracts/proxy/ERC1967/ERC1967Upgrade.sol\":1254:1302  StorageSlot.getAddressSlot(_IMPLEMENTATION_SLOT) */\n      jump\t// in\n    tag_310:\n        /* \"@openzeppelin/contracts/proxy/ERC1967/ERC1967Upgrade.sol\":1254:1308  StorageSlot.getAddressSlot(_IMPLEMENTATION_SLOT).value */\n      0x00\n      add\n      0x00\n      swap1\n      sload\n      swap1\n      0x0100\n      exp\n      swap1\n      div\n      0xffffffffffffffffffffffffffffffffffffffff\n      and\n        /* \"@openzeppelin/contracts/proxy/ERC1967/ERC1967Upgrade.sol\":1247:1308  return StorageSlot.getAddressSlot(_IMPLEMENTATION_SLOT).value */\n      swap1\n      pop\n        /* \"@openzeppelin/contracts/proxy/ERC1967/ERC1967Upgrade.sol\":1175:1315  function _getImplementation() internal view returns (address) {... */\n      swap1\n      jump\t// out\n        /* \"contracts/Proposal.sol\":10558:10703  function _authorizeUpgrade(... */\n    tag_158:\n        /* \"contracts/Proposal.sol\":2248:2258  msg.sender */\n      caller\n        /* \"contracts/Proposal.sol\":2239:2258  owner != msg.sender */\n      0xffffffffffffffffffffffffffffffffffffffff\n      and\n        /* \"contracts/Proposal.sol\":2239:2244  owner */\n      0x00\n      0x02\n      swap1\n      sload\n      swap1\n      0x0100\n      exp\n      swap1\n      div\n      0xffffffffffffffffffffffffffffffffffffffff\n      and\n        /* \"contracts/Proposal.sol\":2239:2258  owner != msg.sender */\n      0xffffffffffffffffffffffffffffffffffffffff\n      and\n      eq\n        /* \"contracts/Proposal.sol\":2235:2330  if (owner != msg.sender) {... */\n      tag_313\n      jumpi\n        /* \"contracts/Proposal.sol\":2308:2318  msg.sender */\n      caller\n        /* \"contracts/Proposal.sol\":2281:2319  OwnableUnauthorizedAccount(msg.sender) */\n      mload(0x40)\n      0x118cdaa700000000000000000000000000000000000000000000000000000000\n      dup2\n      mstore\n      0x04\n      add\n      tag_314\n      swap2\n      swap1\n      tag_87\n      jump\t// in\n    tag_314:\n      mload(0x40)\n      dup1\n      swap2\n      sub\n      swap1\n      revert\n        /* \"contracts/Proposal.sol\":2235:2330  if (owner != msg.sender) {... */\n    tag_313:\n        /* \"contracts/Proposal.sol\":10679:10696  newImplementation */\n      dup1\n        /* \"contracts/Proposal.sol\":10664:10676  logicAddress */\n      0x01\n      0x00\n        /* \"contracts/Proposal.sol\":10664:10696  logicAddress = newImplementation */\n      0x0100\n      exp\n      dup2\n      sload\n      dup2\n      0xffffffffffffffffffffffffffffffffffffffff\n      mul\n      not\n      and\n      swap1\n      dup4\n      0xffffffffffffffffffffffffffffffffffffffff\n      and\n      mul\n      or\n      swap1\n      sstore\n      pop\n        /* \"contracts/Proposal.sol\":10558:10703  function _authorizeUpgrade(... */\n      pop\n      jump\t// out\n        /* \"@openzeppelin/contracts/proxy/ERC1967/ERC1967Upgrade.sol\":2494:3416  function _upgradeToAndCallUUPS(address newImplementation, bytes memory data, bool forceCall) internal {... */\n    tag_164:\n        /* \"@openzeppelin/contracts/proxy/ERC1967/ERC1967Upgrade.sol\":2910:2952  StorageSlot.getBooleanSlot(_ROLLBACK_SLOT) */\n      tag_317\n        /* \"@openzeppelin/contracts/proxy/ERC1967/ERC1967Upgrade.sol\":689:755  0x4910fdfa16fed3260ed0e7147f7cc6da11a60208b5b9406d12a635614ffd9143 */\n      0x4910fdfa16fed3260ed0e7147f7cc6da11a60208b5b9406d12a635614ffd9143\n        /* \"@openzeppelin/contracts/proxy/ERC1967/ERC1967Upgrade.sol\":2937:2951  _ROLLBACK_SLOT */\n      0x00\n      shl\n        /* \"@openzeppelin/contracts/proxy/ERC1967/ERC1967Upgrade.sol\":2910:2936  StorageSlot.getBooleanSlot */\n      tag_318\n        /* \"@openzeppelin/contracts/proxy/ERC1967/ERC1967Upgrade.sol\":2910:2952  StorageSlot.getBooleanSlot(_ROLLBACK_SLOT) */\n      jump\t// in\n    tag_317:\n        /* \"@openzeppelin/contracts/proxy/ERC1967/ERC1967Upgrade.sol\":2910:2958  StorageSlot.getBooleanSlot(_ROLLBACK_SLOT).value */\n      0x00\n      add\n      0x00\n      swap1\n      sload\n      swap1\n      0x0100\n      exp\n      swap1\n      div\n      0xff\n      and\n        /* \"@openzeppelin/contracts/proxy/ERC1967/ERC1967Upgrade.sol\":2906:3410  if (StorageSlot.getBooleanSlot(_ROLLBACK_SLOT).value) {... */\n      iszero\n      tag_319\n      jumpi\n        /* \"@openzeppelin/contracts/proxy/ERC1967/ERC1967Upgrade.sol\":2974:3011  _setImplementation(newImplementation) */\n      tag_320\n        /* \"@openzeppelin/contracts/proxy/ERC1967/ERC1967Upgrade.sol\":2993:3010  newImplementation */\n      dup4\n        /* \"@openzeppelin/contracts/proxy/ERC1967/ERC1967Upgrade.sol\":2974:2992  _setImplementation */\n      tag_321\n        /* \"@openzeppelin/contracts/proxy/ERC1967/ERC1967Upgrade.sol\":2974:3011  _setImplementation(newImplementation) */\n      jump\t// in\n    tag_320:\n        /* \"@openzeppelin/contracts/proxy/ERC1967/ERC1967Upgrade.sol\":2906:3410  if (StorageSlot.getBooleanSlot(_ROLLBACK_SLOT).value) {... */\n      jump(tag_322)\n    tag_319:\n        /* \"@openzeppelin/contracts/proxy/ERC1967/ERC1967Upgrade.sol\":3064:3081  newImplementation */\n      dup3\n        /* \"@openzeppelin/contracts/proxy/ERC1967/ERC1967Upgrade.sol\":3046:3096  IERC1822Proxiable(newImplementation).proxiableUUID */\n      0xffffffffffffffffffffffffffffffffffffffff\n      and\n      0x52d1902d\n        /* \"@openzeppelin/contracts/proxy/ERC1967/ERC1967Upgrade.sol\":3046:3098  IERC1822Proxiable(newImplementation).proxiableUUID() */\n      mload(0x40)\n      dup2\n      0xffffffff\n      and\n      0xe0\n      shl\n      dup2\n      mstore\n      0x04\n      add\n      0x20\n      mload(0x40)\n      dup1\n      dup4\n      sub\n      dup2\n      dup7\n      gas\n      staticcall\n      swap3\n      pop\n      pop\n      pop\n      dup1\n      iszero\n      tag_323\n      jumpi\n      pop\n      mload(0x40)\n      returndatasize\n      not(0x1f)\n      0x1f\n      dup3\n      add\n      and\n      dup3\n      add\n      dup1\n      0x40\n      mstore\n      pop\n      dup2\n      add\n      swap1\n      tag_324\n      swap2\n      swap1\n      tag_325\n      jump\t// in\n    tag_324:\n      0x01\n    tag_323:\n        /* \"@openzeppelin/contracts/proxy/ERC1967/ERC1967Upgrade.sol\":3042:3333  try IERC1822Proxiable(newImplementation).proxiableUUID() returns (bytes32 slot) {... */\n      tag_326\n      jumpi\n        /* \"@openzeppelin/contracts/proxy/ERC1967/ERC1967Upgrade.sol\":3262:3318  revert(\"ERC1967Upgrade: new implementation is not UUPS\") */\n      mload(0x40)\n      0x08c379a000000000000000000000000000000000000000000000000000000000\n      dup2\n      mstore\n      0x04\n      add\n      tag_330\n      swap1\n      tag_331\n      jump\t// in\n    tag_330:\n      mload(0x40)\n      dup1\n      swap2\n      sub\n      swap1\n      revert\n        /* \"@openzeppelin/contracts/proxy/ERC1967/ERC1967Upgrade.sol\":3042:3333  try IERC1822Proxiable(newImplementation).proxiableUUID() returns (bytes32 slot) {... */\n    tag_326:\n        /* \"@openzeppelin/contracts/proxy/ERC1967/ERC1967Upgrade.sol\":1030:1096  0x360894a13ba1a3210667c828492db98dca3e2076cc3735a920a3ca505d382bbc */\n      0x360894a13ba1a3210667c828492db98dca3e2076cc3735a920a3ca505d382bbc\n        /* \"@openzeppelin/contracts/proxy/ERC1967/ERC1967Upgrade.sol\":3156:3176  _IMPLEMENTATION_SLOT */\n      0x00\n      shl\n        /* \"@openzeppelin/contracts/proxy/ERC1967/ERC1967Upgrade.sol\":3148:3152  slot */\n      dup2\n        /* \"@openzeppelin/contracts/proxy/ERC1967/ERC1967Upgrade.sol\":3148:3176  slot == _IMPLEMENTATION_SLOT */\n      eq\n        /* \"@openzeppelin/contracts/proxy/ERC1967/ERC1967Upgrade.sol\":3140:3222  require(slot == _IMPLEMENTATION_SLOT, \"ERC1967Upgrade: unsupported proxiableUUID\") */\n      tag_333\n      jumpi\n      mload(0x40)\n      0x08c379a000000000000000000000000000000000000000000000000000000000\n      dup2\n      mstore\n      0x04\n      add\n      tag_334\n      swap1\n      tag_335\n      jump\t// in\n    tag_334:\n      mload(0x40)\n      dup1\n      swap2\n      sub\n      swap1\n      revert\n    tag_333:\n        /* \"@openzeppelin/contracts/proxy/ERC1967/ERC1967Upgrade.sol\":3099:3237  returns (bytes32 slot) {... */\n      pop\n        /* \"@openzeppelin/contracts/proxy/ERC1967/ERC1967Upgrade.sol\":3346:3399  _upgradeToAndCall(newImplementation, data, forceCall) */\n      tag_336\n        /* \"@openzeppelin/contracts/proxy/ERC1967/ERC1967Upgrade.sol\":3364:3381  newImplementation */\n      dup4\n        /* \"@openzeppelin/contracts/proxy/ERC1967/ERC1967Upgrade.sol\":3383:3387  data */\n      dup4\n        /* \"@openzeppelin/contracts/proxy/ERC1967/ERC1967Upgrade.sol\":3389:3398  forceCall */\n      dup4\n        /* \"@openzeppelin/contracts/proxy/ERC1967/ERC1967Upgrade.sol\":3346:3363  _upgradeToAndCall */\n      tag_337\n        /* \"@openzeppelin/contracts/proxy/ERC1967/ERC1967Upgrade.sol\":3346:3399  _upgradeToAndCall(newImplementation, data, forceCall) */\n      jump\t// in\n    tag_336:\n        /* \"@openzeppelin/contracts/proxy/ERC1967/ERC1967Upgrade.sol\":2906:3410  if (StorageSlot.getBooleanSlot(_ROLLBACK_SLOT).value) {... */\n    tag_322:\n        /* \"@openzeppelin/contracts/proxy/ERC1967/ERC1967Upgrade.sol\":2494:3416  function _upgradeToAndCallUUPS(address newImplementation, bytes memory data, bool forceCall) internal {... */\n      pop\n      pop\n      pop\n      jump\t// out\n        /* \"contracts/Proposal.sol\":10105:10552  function isSingleOptionProposal(... */\n    tag_212:\n        /* \"contracts/Proposal.sol\":10223:10227  bool */\n      0x00\n        /* \"contracts/Proposal.sol\":10239:10271  ProposalInfo memory proposalInfo */\n      dup1\n        /* \"contracts/Proposal.sol\":10274:10287  proposalInfos */\n      0x03\n        /* \"contracts/Proposal.sol\":10288:10298  proposalId */\n      dup5\n        /* \"contracts/Proposal.sol\":10274:10299  proposalInfos[proposalId] */\n      dup2\n      sload\n      dup2\n      lt\n      tag_339\n      jumpi\n      tag_340\n      tag_198\n      jump\t// in\n    tag_340:\n    tag_339:\n      swap1\n      0x00\n      mstore\n      keccak256(0x00, 0x20)\n      swap1\n      0x02\n      mul\n      add\n        /* \"contracts/Proposal.sol\":10239:10299  ProposalInfo memory proposalInfo = proposalInfos[proposalId] */\n      mload(0x40)\n      dup1\n      0x40\n      add\n      0x40\n      mstore\n      swap1\n      dup2\n      0x00\n      dup3\n      add\n      0x00\n      swap1\n      sload\n      swap1\n      0x0100\n      exp\n      swap1\n      div\n      0xffffffffffffffffffffffffffffffffffffffff\n      and\n      0xffffffffffffffffffffffffffffffffffffffff\n      and\n      0xffffffffffffffffffffffffffffffffffffffff\n      and\n      dup2\n      mstore\n      0x20\n      add\n      0x01\n      dup3\n      add\n      dup1\n      sload\n      dup1\n      0x20\n      mul\n      0x20\n      add\n      mload(0x40)\n      swap1\n      dup2\n      add\n      0x40\n      mstore\n      dup1\n      swap3\n      swap2\n      swap1\n      dup2\n      dup2\n      mstore\n      0x20\n      add\n      0x00\n      swap1\n    tag_342:\n      dup3\n      dup3\n      lt\n      iszero\n      tag_343\n      jumpi\n      dup4\n      dup3\n      swap1\n      0x00\n      mstore\n      keccak256(0x00, 0x20)\n      swap1\n      0x03\n      mul\n      add\n      mload(0x40)\n      dup1\n      0x60\n      add\n      0x40\n      mstore\n      swap1\n      dup2\n      0x00\n      dup3\n      add\n      dup1\n      sload\n      tag_345\n      swap1\n      tag_254\n      jump\t// in\n    tag_345:\n      dup1\n      0x1f\n      add\n      0x20\n      dup1\n      swap2\n      div\n      mul\n      0x20\n      add\n      mload(0x40)\n      swap1\n      dup2\n      add\n      0x40\n      mstore\n      dup1\n      swap3\n      swap2\n      swap1\n      dup2\n      dup2\n      mstore\n      0x20\n      add\n      dup3\n      dup1\n      sload\n      tag_346\n      swap1\n      tag_254\n      jump\t// in\n    tag_346:\n      dup1\n      iszero\n      tag_347\n      jumpi\n      dup1\n      0x1f\n      lt\n      tag_348\n      jumpi\n      0x0100\n      dup1\n      dup4\n      sload\n      div\n      mul\n      dup4\n      mstore\n      swap2\n      0x20\n      add\n      swap2\n      jump(tag_347)\n    tag_348:\n      dup3\n      add\n      swap2\n      swap1\n      0x00\n      mstore\n      keccak256(0x00, 0x20)\n      swap1\n    tag_349:\n      dup2\n      sload\n      dup2\n      mstore\n      swap1\n      0x01\n      add\n      swap1\n      0x20\n      add\n      dup1\n      dup4\n      gt\n      tag_349\n      jumpi\n      dup3\n      swap1\n      sub\n      0x1f\n      and\n      dup3\n      add\n      swap2\n    tag_347:\n      pop\n      pop\n      pop\n      pop\n      pop\n      dup2\n      mstore\n      0x20\n      add\n      0x01\n      dup3\n      add\n      sload\n      dup2\n      mstore\n      0x20\n      add\n      0x02\n      dup3\n      add\n      sload\n      dup2\n      mstore\n      pop\n      pop\n      dup2\n      mstore\n      0x20\n      add\n      swap1\n      0x01\n      add\n      swap1\n      jump(tag_342)\n    tag_343:\n      pop\n      pop\n      pop\n      pop\n      dup2\n      mstore\n      pop\n      pop\n      swap1\n      pop\n        /* \"contracts/Proposal.sol\":10309:10332  Option[] memory options */\n      0x00\n        /* \"contracts/Proposal.sol\":10335:10347  proposalInfo */\n      dup2\n        /* \"contracts/Proposal.sol\":10335:10355  proposalInfo.options */\n      0x20\n      add\n      mload\n        /* \"contracts/Proposal.sol\":10309:10355  Option[] memory options = proposalInfo.options */\n      swap1\n      pop\n        /* \"contracts/Proposal.sol\":10370:10379  uint256 i */\n      0x00\n        /* \"contracts/Proposal.sol\":10365:10525  for (uint256 i = 0; i < options.length; i++) {... */\n    tag_350:\n        /* \"contracts/Proposal.sol\":10389:10396  options */\n      dup2\n        /* \"contracts/Proposal.sol\":10389:10403  options.length */\n      mload\n        /* \"contracts/Proposal.sol\":10385:10386  i */\n      dup2\n        /* \"contracts/Proposal.sol\":10385:10403  i < options.length */\n      lt\n        /* \"contracts/Proposal.sol\":10365:10525  for (uint256 i = 0; i < options.length; i++) {... */\n      iszero\n      tag_351\n      jumpi\n        /* \"contracts/Proposal.sol\":10433:10444  winOptionId */\n      dup5\n        /* \"contracts/Proposal.sol\":10428:10429  i */\n      dup2\n        /* \"contracts/Proposal.sol\":10428:10444  i != winOptionId */\n      eq\n      iszero\n        /* \"contracts/Proposal.sol\":10428:10468  i != winOptionId && options[i].count > 0 */\n      dup1\n      iszero\n      tag_353\n      jumpi\n      pop\n        /* \"contracts/Proposal.sol\":10467:10468  0 */\n      0x00\n        /* \"contracts/Proposal.sol\":10448:10455  options */\n      dup3\n        /* \"contracts/Proposal.sol\":10456:10457  i */\n      dup3\n        /* \"contracts/Proposal.sol\":10448:10458  options[i] */\n      dup2\n      mload\n      dup2\n      lt\n      tag_354\n      jumpi\n      tag_355\n      tag_198\n      jump\t// in\n    tag_355:\n    tag_354:\n      0x20\n      mul\n      0x20\n      add\n      add\n      mload\n        /* \"contracts/Proposal.sol\":10448:10464  options[i].count */\n      0x20\n      add\n      mload\n        /* \"contracts/Proposal.sol\":10448:10468  options[i].count > 0 */\n      gt\n        /* \"contracts/Proposal.sol\":10428:10468  i != winOptionId && options[i].count > 0 */\n    tag_353:\n        /* \"contracts/Proposal.sol\":10424:10515  if (i != winOptionId && options[i].count > 0) {... */\n      iszero\n      tag_356\n      jumpi\n        /* \"contracts/Proposal.sol\":10495:10500  false */\n      0x00\n        /* \"contracts/Proposal.sol\":10488:10500  return false */\n      swap4\n      pop\n      pop\n      pop\n      pop\n      jump(tag_338)\n        /* \"contracts/Proposal.sol\":10424:10515  if (i != winOptionId && options[i].count > 0) {... */\n    tag_356:\n        /* \"contracts/Proposal.sol\":10405:10408  i++ */\n      dup1\n      dup1\n      0x01\n      add\n      swap2\n      pop\n      pop\n        /* \"contracts/Proposal.sol\":10365:10525  for (uint256 i = 0; i < options.length; i++) {... */\n      jump(tag_350)\n    tag_351:\n      pop\n        /* \"contracts/Proposal.sol\":10541:10545  true */\n      0x01\n        /* \"contracts/Proposal.sol\":10534:10545  return true */\n      swap3\n      pop\n      pop\n      pop\n        /* \"contracts/Proposal.sol\":10105:10552  function isSingleOptionProposal(... */\n    tag_338:\n      swap3\n      swap2\n      pop\n      pop\n      jump\t// out\n        /* \"contracts/Proposal.sol\":6974:7465  function handleSingleOptionProposal(... */\n    tag_215:\n        /* \"contracts/Proposal.sol\":7092:7154  mapping(uint256 => VoteInfo[])... */\n      0x00\n        /* \"contracts/Proposal.sol\":7157:7180  proposalVotingSituation */\n      0x06\n        /* \"contracts/Proposal.sol\":7157:7193  proposalVotingSituation[winOptionId] */\n      0x00\n        /* \"contracts/Proposal.sol\":7181:7192  winOptionId */\n      dup4\n        /* \"contracts/Proposal.sol\":7157:7193  proposalVotingSituation[winOptionId] */\n      dup2\n      mstore\n      0x20\n      add\n      swap1\n      dup2\n      mstore\n      0x20\n      add\n      0x00\n      keccak256\n        /* \"contracts/Proposal.sol\":7092:7193  mapping(uint256 => VoteInfo[])... */\n      swap1\n      pop\n        /* \"contracts/Proposal.sol\":7209:7218  uint256 i */\n      0x00\n        /* \"contracts/Proposal.sol\":7204:7403  for (uint256 i = 0; i < voteRecords[winOptionId].length; i++) {... */\n    tag_358:\n        /* \"contracts/Proposal.sol\":7228:7239  voteRecords */\n      dup2\n        /* \"contracts/Proposal.sol\":7228:7252  voteRecords[winOptionId] */\n      0x00\n        /* \"contracts/Proposal.sol\":7240:7251  winOptionId */\n      dup5\n        /* \"contracts/Proposal.sol\":7228:7252  voteRecords[winOptionId] */\n      dup2\n      mstore\n      0x20\n      add\n      swap1\n      dup2\n      mstore\n      0x20\n      add\n      0x00\n      keccak256\n        /* \"contracts/Proposal.sol\":7228:7259  voteRecords[winOptionId].length */\n      dup1\n      sload\n      swap1\n      pop\n        /* \"contracts/Proposal.sol\":7224:7225  i */\n      dup2\n        /* \"contracts/Proposal.sol\":7224:7259  i < voteRecords[winOptionId].length */\n      lt\n        /* \"contracts/Proposal.sol\":7204:7403  for (uint256 i = 0; i < voteRecords[winOptionId].length; i++) {... */\n      iszero\n      tag_359\n      jumpi\n        /* \"contracts/Proposal.sol\":7280:7304  VoteInfo memory voteInfo */\n      0x00\n        /* \"contracts/Proposal.sol\":7307:7318  voteRecords */\n      dup3\n        /* \"contracts/Proposal.sol\":7307:7331  voteRecords[winOptionId] */\n      0x00\n        /* \"contracts/Proposal.sol\":7319:7330  winOptionId */\n      dup6\n        /* \"contracts/Proposal.sol\":7307:7331  voteRecords[winOptionId] */\n      dup2\n      mstore\n      0x20\n      add\n      swap1\n      dup2\n      mstore\n      0x20\n      add\n      0x00\n      keccak256\n        /* \"contracts/Proposal.sol\":7332:7333  i */\n      dup3\n        /* \"contracts/Proposal.sol\":7307:7334  voteRecords[winOptionId][i] */\n      dup2\n      sload\n      dup2\n      lt\n      tag_361\n      jumpi\n      tag_362\n      tag_198\n      jump\t// in\n    tag_362:\n    tag_361:\n      swap1\n      0x00\n      mstore\n      keccak256(0x00, 0x20)\n      swap1\n      0x02\n      mul\n      add\n        /* \"contracts/Proposal.sol\":7280:7334  VoteInfo memory voteInfo = voteRecords[winOptionId][i] */\n      mload(0x40)\n      dup1\n      0x40\n      add\n      0x40\n      mstore\n      swap1\n      dup2\n      0x00\n      dup3\n      add\n      0x00\n      swap1\n      sload\n      swap1\n      0x0100\n      exp\n      swap1\n      div\n      0xffffffffffffffffffffffffffffffffffffffff\n      and\n      0xffffffffffffffffffffffffffffffffffffffff\n      and\n      0xffffffffffffffffffffffffffffffffffffffff\n      and\n      dup2\n      mstore\n      0x20\n      add\n      0x01\n      dup3\n      add\n      sload\n      dup2\n      mstore\n      pop\n      pop\n      swap1\n      pop\n        /* \"contracts/Proposal.sol\":7377:7385  voteInfo */\n      dup1\n        /* \"contracts/Proposal.sol\":7377:7392  voteInfo.amount */\n      0x20\n      add\n      mload\n        /* \"contracts/Proposal.sol\":7348:7358  votingLock */\n      0x05\n        /* \"contracts/Proposal.sol\":7348:7373  votingLock[voteInfo.user] */\n      0x00\n        /* \"contracts/Proposal.sol\":7359:7367  voteInfo */\n      dup4\n        /* \"contracts/Proposal.sol\":7359:7372  voteInfo.user */\n      0x00\n      add\n      mload\n        /* \"contracts/Proposal.sol\":7348:7373  votingLock[voteInfo.user] */\n      0xffffffffffffffffffffffffffffffffffffffff\n      and\n      0xffffffffffffffffffffffffffffffffffffffff\n      and\n      dup2\n      mstore\n      0x20\n      add\n      swap1\n      dup2\n      mstore\n      0x20\n      add\n      0x00\n      keccak256\n      0x00\n        /* \"contracts/Proposal.sol\":7348:7392  votingLock[voteInfo.user] -= voteInfo.amount */\n      dup3\n      dup3\n      sload\n      tag_364\n      swap2\n      swap1\n      tag_144\n      jump\t// in\n    tag_364:\n      swap3\n      pop\n      pop\n      dup2\n      swap1\n      sstore\n      pop\n        /* \"contracts/Proposal.sol\":7266:7403  {... */\n      pop\n        /* \"contracts/Proposal.sol\":7261:7264  i++ */\n      dup1\n      dup1\n      0x01\n      add\n      swap2\n      pop\n      pop\n        /* \"contracts/Proposal.sol\":7204:7403  for (uint256 i = 0; i < voteRecords[winOptionId].length; i++) {... */\n      jump(tag_358)\n    tag_359:\n      pop\n        /* \"contracts/Proposal.sol\":7434:7444  proposalId */\n      dup3\n        /* \"contracts/Proposal.sol\":7417:7458  ProposalRefunded(proposalId, winOptionId) */\n      0xc445a10c3fa19d3805aeea8b151160c7252c62f5bb08325a6acd73f79e5531ee\n        /* \"contracts/Proposal.sol\":7446:7457  winOptionId */\n      dup4\n        /* \"contracts/Proposal.sol\":7417:7458  ProposalRefunded(proposalId, winOptionId) */\n      mload(0x40)\n      tag_365\n      swap2\n      swap1\n      tag_39\n      jump\t// in\n    tag_365:\n      mload(0x40)\n      dup1\n      swap2\n      sub\n      swap1\n      log2\n        /* \"contracts/Proposal.sol\":7082:7465  {... */\n      pop\n        /* \"contracts/Proposal.sol\":6974:7465  function handleSingleOptionProposal(... */\n      pop\n      pop\n      jump\t// out\n        /* \"contracts/Proposal.sol\":6332:6968  function handleJurorsDistributeRewards(... */\n    tag_218:\n        /* \"contracts/Proposal.sol\":6466:6486  uint256 allVotesCast */\n      0x00\n        /* \"contracts/Proposal.sol\":6492:6514  getDetails(proposalId) */\n      tag_367\n        /* \"contracts/Proposal.sol\":6503:6513  proposalId */\n      dup4\n        /* \"contracts/Proposal.sol\":6492:6502  getDetails */\n      tag_115\n        /* \"contracts/Proposal.sol\":6492:6514  getDetails(proposalId) */\n      jump\t// in\n    tag_367:\n        /* \"contracts/Proposal.sol\":6457:6514  (, , , , uint256 allVotesCast, ) = getDetails(proposalId) */\n      pop\n      swap5\n      pop\n      pop\n      pop\n      pop\n      pop\n        /* \"contracts/Proposal.sol\":6525:6539  uint256 reward */\n      0x00\n        /* \"contracts/Proposal.sol\":6563:6566  100 */\n      0x64\n        /* \"contracts/Proposal.sol\":6558:6559  2 */\n      0x02\n        /* \"contracts/Proposal.sol\":6543:6555  allVotesCast */\n      dup4\n        /* \"contracts/Proposal.sol\":6543:6559  allVotesCast * 2 */\n      tag_368\n      swap2\n      swap1\n      tag_369\n      jump\t// in\n    tag_368:\n        /* \"contracts/Proposal.sol\":6542:6566  (allVotesCast * 2) / 100 */\n      tag_370\n      swap2\n      swap1\n      tag_371\n      jump\t// in\n    tag_370:\n        /* \"contracts/Proposal.sol\":6525:6566  uint256 reward = (allVotesCast * 2) / 100 */\n      swap1\n      pop\n        /* \"contracts/Proposal.sol\":6576:6598  uint256 rewardPerJuror */\n      0x00\n        /* \"contracts/Proposal.sol\":6610:6616  jurors */\n      dup4\n        /* \"contracts/Proposal.sol\":6610:6623  jurors.length */\n      mload\n        /* \"contracts/Proposal.sol\":6601:6607  reward */\n      dup3\n        /* \"contracts/Proposal.sol\":6601:6623  reward / jurors.length */\n      tag_372\n      swap2\n      swap1\n      tag_371\n      jump\t// in\n    tag_372:\n        /* \"contracts/Proposal.sol\":6576:6623  uint256 rewardPerJuror = reward / jurors.length */\n      swap1\n      pop\n        /* \"contracts/Proposal.sol\":6639:6648  uint256 i */\n      0x00\n        /* \"contracts/Proposal.sol\":6634:6821  for (uint256 i = 0; i < jurors.length; i++) {... */\n    tag_373:\n        /* \"contracts/Proposal.sol\":6658:6664  jurors */\n      dup5\n        /* \"contracts/Proposal.sol\":6658:6671  jurors.length */\n      mload\n        /* \"contracts/Proposal.sol\":6654:6655  i */\n      dup2\n        /* \"contracts/Proposal.sol\":6654:6671  i < jurors.length */\n      lt\n        /* \"contracts/Proposal.sol\":6634:6821  for (uint256 i = 0; i < jurors.length; i++) {... */\n      iszero\n      tag_374\n      jumpi\n        /* \"contracts/Proposal.sol\":6715:6729  rewardPerJuror */\n      dup2\n        /* \"contracts/Proposal.sol\":6692:6700  balances */\n      0x04\n        /* \"contracts/Proposal.sol\":6692:6711  balances[jurors[i]] */\n      0x00\n        /* \"contracts/Proposal.sol\":6701:6707  jurors */\n      dup8\n        /* \"contracts/Proposal.sol\":6708:6709  i */\n      dup5\n        /* \"contracts/Proposal.sol\":6701:6710  jurors[i] */\n      dup2\n      mload\n      dup2\n      lt\n      tag_376\n      jumpi\n      tag_377\n      tag_198\n      jump\t// in\n    tag_377:\n    tag_376:\n      0x20\n      mul\n      0x20\n      add\n      add\n      mload\n        /* \"contracts/Proposal.sol\":6692:6711  balances[jurors[i]] */\n      0xffffffffffffffffffffffffffffffffffffffff\n      and\n      0xffffffffffffffffffffffffffffffffffffffff\n      and\n      dup2\n      mstore\n      0x20\n      add\n      swap1\n      dup2\n      mstore\n      0x20\n      add\n      0x00\n      keccak256\n      0x00\n        /* \"contracts/Proposal.sol\":6692:6729  balances[jurors[i]] += rewardPerJuror */\n      dup3\n      dup3\n      sload\n      tag_378\n      swap2\n      swap1\n      tag_188\n      jump\t// in\n    tag_378:\n      swap3\n      pop\n      pop\n      dup2\n      swap1\n      sstore\n      pop\n        /* \"contracts/Proposal.sol\":6795:6809  rewardPerJuror */\n      dup2\n        /* \"contracts/Proposal.sol\":6743:6762  userProposalResults */\n      0x08\n        /* \"contracts/Proposal.sol\":6743:6774  userProposalResults[proposalId] */\n      0x00\n        /* \"contracts/Proposal.sol\":6763:6773  proposalId */\n      dup9\n        /* \"contracts/Proposal.sol\":6743:6774  userProposalResults[proposalId] */\n      dup2\n      mstore\n      0x20\n      add\n      swap1\n      dup2\n      mstore\n      0x20\n      add\n      0x00\n      keccak256\n        /* \"contracts/Proposal.sol\":6743:6785  userProposalResults[proposalId][jurors[i]] */\n      0x00\n        /* \"contracts/Proposal.sol\":6775:6781  jurors */\n      dup8\n        /* \"contracts/Proposal.sol\":6782:6783  i */\n      dup5\n        /* \"contracts/Proposal.sol\":6775:6784  jurors[i] */\n      dup2\n      mload\n      dup2\n      lt\n      tag_379\n      jumpi\n      tag_380\n      tag_198\n      jump\t// in\n    tag_380:\n    tag_379:\n      0x20\n      mul\n      0x20\n      add\n      add\n      mload\n        /* \"contracts/Proposal.sol\":6743:6785  userProposalResults[proposalId][jurors[i]] */\n      0xffffffffffffffffffffffffffffffffffffffff\n      and\n      0xffffffffffffffffffffffffffffffffffffffff\n      and\n      dup2\n      mstore\n      0x20\n      add\n      swap1\n      dup2\n      mstore\n      0x20\n      add\n      0x00\n      keccak256\n        /* \"contracts/Proposal.sol\":6743:6810  userProposalResults[proposalId][jurors[i]] = int256(rewardPerJuror) */\n      dup2\n      swap1\n      sstore\n      pop\n        /* \"contracts/Proposal.sol\":6673:6676  i++ */\n      dup1\n      dup1\n      0x01\n      add\n      swap2\n      pop\n      pop\n        /* \"contracts/Proposal.sol\":6634:6821  for (uint256 i = 0; i < jurors.length; i++) {... */\n      jump(tag_373)\n    tag_374:\n      pop\n        /* \"contracts/Proposal.sol\":6873:6883  proposalId */\n      dup5\n        /* \"contracts/Proposal.sol\":6836:6961  JurorsDistributeRewards(... */\n      0x1034bcc6d30aa91c93d14ce14f959d5d304d6b8a76f50f026934b85d4e4122ed\n        /* \"contracts/Proposal.sol\":6897:6903  jurors */\n      dup6\n        /* \"contracts/Proposal.sol\":6917:6923  reward */\n      dup5\n        /* \"contracts/Proposal.sol\":6937:6951  rewardPerJuror */\n      dup5\n        /* \"contracts/Proposal.sol\":6836:6961  JurorsDistributeRewards(... */\n      mload(0x40)\n      tag_381\n      swap4\n      swap3\n      swap2\n      swap1\n      tag_382\n      jump\t// in\n    tag_381:\n      mload(0x40)\n      dup1\n      swap2\n      sub\n      swap1\n      log2\n        /* \"contracts/Proposal.sol\":6447:6968  {... */\n      pop\n      pop\n      pop\n        /* \"contracts/Proposal.sol\":6332:6968  function handleJurorsDistributeRewards(... */\n      pop\n      pop\n      jump\t// out\n        /* \"contracts/Proposal.sol\":7471:8376  function handleMultiOptionProposal(... */\n    tag_220:\n        /* \"contracts/Proposal.sol\":7588:7621  ProposalInfo storage proposalInfo */\n      0x00\n        /* \"contracts/Proposal.sol\":7624:7637  proposalInfos */\n      0x03\n        /* \"contracts/Proposal.sol\":7638:7648  proposalId */\n      dup4\n        /* \"contracts/Proposal.sol\":7624:7649  proposalInfos[proposalId] */\n      dup2\n      sload\n      dup2\n      lt\n      tag_384\n      jumpi\n      tag_385\n      tag_198\n      jump\t// in\n    tag_385:\n    tag_384:\n      swap1\n      0x00\n      mstore\n      keccak256(0x00, 0x20)\n      swap1\n      0x02\n      mul\n      add\n        /* \"contracts/Proposal.sol\":7588:7649  ProposalInfo storage proposalInfo = proposalInfos[proposalId] */\n      swap1\n      pop\n        /* \"contracts/Proposal.sol\":7659:7678  uint256 optionCount */\n      0x00\n        /* \"contracts/Proposal.sol\":7681:7693  proposalInfo */\n      dup2\n        /* \"contracts/Proposal.sol\":7681:7701  proposalInfo.options */\n      0x01\n      add\n        /* \"contracts/Proposal.sol\":7681:7708  proposalInfo.options.length */\n      dup1\n      sload\n      swap1\n      pop\n        /* \"contracts/Proposal.sol\":7659:7708  uint256 optionCount = proposalInfo.options.length */\n      swap1\n      pop\n        /* \"contracts/Proposal.sol\":7718:7780  mapping(uint256 => VoteInfo[])... */\n      0x00\n        /* \"contracts/Proposal.sol\":7783:7806  proposalVotingSituation */\n      0x06\n        /* \"contracts/Proposal.sol\":7783:7819  proposalVotingSituation[winOptionId] */\n      0x00\n        /* \"contracts/Proposal.sol\":7807:7818  winOptionId */\n      dup6\n        /* \"contracts/Proposal.sol\":7783:7819  proposalVotingSituation[winOptionId] */\n      dup2\n      mstore\n      0x20\n      add\n      swap1\n      dup2\n      mstore\n      0x20\n      add\n      0x00\n      keccak256\n        /* \"contracts/Proposal.sol\":7718:7819  mapping(uint256 => VoteInfo[])... */\n      swap1\n      pop\n        /* \"contracts/Proposal.sol\":7835:7858  uint256[] memory counts */\n      0x00\n        /* \"contracts/Proposal.sol\":7862:7882  uint256 allVotesCast */\n      dup1\n        /* \"contracts/Proposal.sol\":7888:7932  getDetails(... */\n      tag_387\n        /* \"contracts/Proposal.sol\":7912:7922  proposalId */\n      dup8\n        /* \"contracts/Proposal.sol\":7888:7898  getDetails */\n      tag_115\n        /* \"contracts/Proposal.sol\":7888:7932  getDetails(... */\n      jump\t// in\n    tag_387:\n        /* \"contracts/Proposal.sol\":7830:7932  (, , uint256[] memory counts, , uint256 allVotesCast, ) = getDetails(... */\n      pop\n      swap5\n      pop\n      pop\n      swap4\n      pop\n      pop\n      pop\n        /* \"contracts/Proposal.sol\":7997:8000  100 */\n      0x64\n        /* \"contracts/Proposal.sol\":7992:7993  5 */\n      0x05\n        /* \"contracts/Proposal.sol\":7977:7989  allVotesCast */\n      dup3\n        /* \"contracts/Proposal.sol\":7977:7993  allVotesCast * 5 */\n      tag_388\n      swap2\n      swap1\n      tag_369\n      jump\t// in\n    tag_388:\n        /* \"contracts/Proposal.sol\":7976:8000  (allVotesCast * 5) / 100 */\n      tag_389\n      swap2\n      swap1\n      tag_371\n      jump\t// in\n    tag_389:\n        /* \"contracts/Proposal.sol\":7942:7950  balances */\n      0x04\n        /* \"contracts/Proposal.sol\":7942:7972  balances[proposalInfo.founder] */\n      0x00\n        /* \"contracts/Proposal.sol\":7951:7963  proposalInfo */\n      dup8\n        /* \"contracts/Proposal.sol\":7951:7971  proposalInfo.founder */\n      0x00\n      add\n      0x00\n      swap1\n      sload\n      swap1\n      0x0100\n      exp\n      swap1\n      div\n      0xffffffffffffffffffffffffffffffffffffffff\n      and\n        /* \"contracts/Proposal.sol\":7942:7972  balances[proposalInfo.founder] */\n      0xffffffffffffffffffffffffffffffffffffffff\n      and\n      0xffffffffffffffffffffffffffffffffffffffff\n      and\n      dup2\n      mstore\n      0x20\n      add\n      swap1\n      dup2\n      mstore\n      0x20\n      add\n      0x00\n      keccak256\n      0x00\n        /* \"contracts/Proposal.sol\":7942:8000  balances[proposalInfo.founder] += (allVotesCast * 5) / 100 */\n      dup3\n      dup3\n      sload\n      tag_390\n      swap2\n      swap1\n      tag_188\n      jump\t// in\n    tag_390:\n      swap3\n      pop\n      pop\n      dup2\n      swap1\n      sstore\n      pop\n        /* \"contracts/Proposal.sol\":8010:8038  uint256 totalStakeExtractFee */\n      0x00\n        /* \"contracts/Proposal.sol\":8063:8066  100 */\n      0x64\n        /* \"contracts/Proposal.sol\":8057:8059  88 */\n      0x58\n        /* \"contracts/Proposal.sol\":8042:8054  allVotesCast */\n      dup4\n        /* \"contracts/Proposal.sol\":8042:8059  allVotesCast * 88 */\n      tag_391\n      swap2\n      swap1\n      tag_369\n      jump\t// in\n    tag_391:\n        /* \"contracts/Proposal.sol\":8041:8066  (allVotesCast * 88) / 100 */\n      tag_392\n      swap2\n      swap1\n      tag_371\n      jump\t// in\n    tag_392:\n        /* \"contracts/Proposal.sol\":8010:8066  uint256 totalStakeExtractFee = (allVotesCast * 88) / 100 */\n      swap1\n      pop\n        /* \"contracts/Proposal.sol\":8082:8091  uint256 i */\n      0x00\n        /* \"contracts/Proposal.sol\":8077:8370  for (uint256 i = 0; i < optionCount; i++) {... */\n    tag_393:\n        /* \"contracts/Proposal.sol\":8101:8112  optionCount */\n      dup6\n        /* \"contracts/Proposal.sol\":8097:8098  i */\n      dup2\n        /* \"contracts/Proposal.sol\":8097:8112  i < optionCount */\n      lt\n        /* \"contracts/Proposal.sol\":8077:8370  for (uint256 i = 0; i < optionCount; i++) {... */\n      iszero\n      tag_394\n      jumpi\n        /* \"contracts/Proposal.sol\":8133:8359  distributeRewardsAndPenalties(... */\n      tag_396\n        /* \"contracts/Proposal.sol\":8180:8190  proposalId */\n      dup10\n        /* \"contracts/Proposal.sol\":8208:8219  winOptionId */\n      dup10\n        /* \"contracts/Proposal.sol\":8237:8257  totalStakeExtractFee */\n      dup5\n        /* \"contracts/Proposal.sol\":8275:8281  counts */\n      dup8\n        /* \"contracts/Proposal.sol\":8282:8293  winOptionId */\n      dup13\n        /* \"contracts/Proposal.sol\":8275:8294  counts[winOptionId] */\n      dup2\n      mload\n      dup2\n      lt\n      tag_397\n      jumpi\n      tag_398\n      tag_198\n      jump\t// in\n    tag_398:\n    tag_397:\n      0x20\n      mul\n      0x20\n      add\n      add\n      mload\n        /* \"contracts/Proposal.sol\":8312:8323  voteRecords */\n      dup10\n        /* \"contracts/Proposal.sol\":8312:8326  voteRecords[i] */\n      0x00\n        /* \"contracts/Proposal.sol\":8324:8325  i */\n      dup8\n        /* \"contracts/Proposal.sol\":8312:8326  voteRecords[i] */\n      dup2\n      mstore\n      0x20\n      add\n      swap1\n      dup2\n      mstore\n      0x20\n      add\n      0x00\n      keccak256\n        /* \"contracts/Proposal.sol\":8133:8359  distributeRewardsAndPenalties(... */\n      dup1\n      sload\n      dup1\n      0x20\n      mul\n      0x20\n      add\n      mload(0x40)\n      swap1\n      dup2\n      add\n      0x40\n      mstore\n      dup1\n      swap3\n      swap2\n      swap1\n      dup2\n      dup2\n      mstore\n      0x20\n      add\n      0x00\n      swap1\n    tag_399:\n      dup3\n      dup3\n      lt\n      iszero\n      tag_400\n      jumpi\n      dup4\n      dup3\n      swap1\n      0x00\n      mstore\n      keccak256(0x00, 0x20)\n      swap1\n      0x02\n      mul\n      add\n      mload(0x40)\n      dup1\n      0x40\n      add\n      0x40\n      mstore\n      swap1\n      dup2\n      0x00\n      dup3\n      add\n      0x00\n      swap1\n      sload\n      swap1\n      0x0100\n      exp\n      swap1\n      div\n      0xffffffffffffffffffffffffffffffffffffffff\n      and\n      0xffffffffffffffffffffffffffffffffffffffff\n      and\n      0xffffffffffffffffffffffffffffffffffffffff\n      and\n      dup2\n      mstore\n      0x20\n      add\n      0x01\n      dup3\n      add\n      sload\n      dup2\n      mstore\n      pop\n      pop\n      dup2\n      mstore\n      0x20\n      add\n      swap1\n      0x01\n      add\n      swap1\n      jump(tag_399)\n    tag_400:\n      pop\n      pop\n      pop\n      pop\n        /* \"contracts/Proposal.sol\":8344:8345  i */\n      dup7\n        /* \"contracts/Proposal.sol\":8133:8162  distributeRewardsAndPenalties */\n      tag_402\n        /* \"contracts/Proposal.sol\":8133:8359  distributeRewardsAndPenalties(... */\n      jump\t// in\n    tag_396:\n        /* \"contracts/Proposal.sol\":8114:8117  i++ */\n      dup1\n      dup1\n      0x01\n      add\n      swap2\n      pop\n      pop\n        /* \"contracts/Proposal.sol\":8077:8370  for (uint256 i = 0; i < optionCount; i++) {... */\n      jump(tag_393)\n    tag_394:\n      pop\n        /* \"contracts/Proposal.sol\":7578:8376  {... */\n      pop\n      pop\n      pop\n      pop\n      pop\n      pop\n        /* \"contracts/Proposal.sol\":7471:8376  function handleMultiOptionProposal(... */\n      pop\n      pop\n      jump\t// out\n        /* \"@openzeppelin/contracts/utils/Address.sol\":1412:1732  function isContract(address account) internal view returns (bool) {... */\n    tag_299:\n        /* \"@openzeppelin/contracts/utils/Address.sol\":1472:1476  bool */\n      0x00\n        /* \"@openzeppelin/contracts/utils/Address.sol\":1724:1725  0 */\n      dup1\n        /* \"@openzeppelin/contracts/utils/Address.sol\":1702:1709  account */\n      dup3\n        /* \"@openzeppelin/contracts/utils/Address.sol\":1702:1721  account.code.length */\n      0xffffffffffffffffffffffffffffffffffffffff\n      and\n      extcodesize\n        /* \"@openzeppelin/contracts/utils/Address.sol\":1702:1725  account.code.length > 0 */\n      gt\n        /* \"@openzeppelin/contracts/utils/Address.sol\":1695:1725  return account.code.length > 0 */\n      swap1\n      pop\n        /* \"@openzeppelin/contracts/utils/Address.sol\":1412:1732  function isContract(address account) internal view returns (bool) {... */\n      swap2\n      swap1\n      pop\n      jump\t// out\n        /* \"@openzeppelin/contracts/utils/StorageSlot.sol\":1859:2049  function getAddressSlot(bytes32 slot) internal pure returns (AddressSlot storage r) {... */\n    tag_311:\n        /* \"@openzeppelin/contracts/utils/StorageSlot.sol\":1920:1941  AddressSlot storage r */\n      0x00\n        /* \"@openzeppelin/contracts/utils/StorageSlot.sol\":2029:2033  slot */\n      dup2\n        /* \"@openzeppelin/contracts/utils/StorageSlot.sol\":2019:2033  r.slot := slot */\n      swap1\n      pop\n        /* \"@openzeppelin/contracts/utils/StorageSlot.sol\":1859:2049  function getAddressSlot(bytes32 slot) internal pure returns (AddressSlot storage r) {... */\n      swap2\n      swap1\n      pop\n      jump\t// out\n        /* \"@openzeppelin/contracts/utils/StorageSlot.sol\":2147:2337  function getBooleanSlot(bytes32 slot) internal pure returns (BooleanSlot storage r) {... */\n    tag_318:\n        /* \"@openzeppelin/contracts/utils/StorageSlot.sol\":2208:2229  BooleanSlot storage r */\n      0x00\n        /* \"@openzeppelin/contracts/utils/StorageSlot.sol\":2317:2321  slot */\n      dup2\n        /* \"@openzeppelin/contracts/utils/StorageSlot.sol\":2307:2321  r.slot := slot */\n      swap1\n      pop\n        /* \"@openzeppelin/contracts/utils/StorageSlot.sol\":2147:2337  function getBooleanSlot(bytes32 slot) internal pure returns (BooleanSlot storage r) {... */\n      swap2\n      swap1\n      pop\n      jump\t// out\n        /* \"@openzeppelin/contracts/proxy/ERC1967/ERC1967Upgrade.sol\":1406:1665  function _setImplementation(address newImplementation) private {... */\n    tag_321:\n        /* \"@openzeppelin/contracts/proxy/ERC1967/ERC1967Upgrade.sol\":1487:1524  Address.isContract(newImplementation) */\n      tag_407\n        /* \"@openzeppelin/contracts/proxy/ERC1967/ERC1967Upgrade.sol\":1506:1523  newImplementation */\n      dup2\n        /* \"@openzeppelin/contracts/proxy/ERC1967/ERC1967Upgrade.sol\":1487:1505  Address.isContract */\n      tag_299\n        /* \"@openzeppelin/contracts/proxy/ERC1967/ERC1967Upgrade.sol\":1487:1524  Address.isContract(newImplementation) */\n      jump\t// in\n    tag_407:\n        /* \"@openzeppelin/contracts/proxy/ERC1967/ERC1967Upgrade.sol\":1479:1574  require(Address.isContract(newImplementation), \"ERC1967: new implementation is not a contract\") */\n      tag_408\n      jumpi\n      mload(0x40)\n      0x08c379a000000000000000000000000000000000000000000000000000000000\n      dup2\n      mstore\n      0x04\n      add\n      tag_409\n      swap1\n      tag_410\n      jump\t// in\n    tag_409:\n      mload(0x40)\n      dup1\n      swap2\n      sub\n      swap1\n      revert\n    tag_408:\n        /* \"@openzeppelin/contracts/proxy/ERC1967/ERC1967Upgrade.sol\":1641:1658  newImplementation */\n      dup1\n        /* \"@openzeppelin/contracts/proxy/ERC1967/ERC1967Upgrade.sol\":1584:1632  StorageSlot.getAddressSlot(_IMPLEMENTATION_SLOT) */\n      tag_411\n        /* \"@openzeppelin/contracts/proxy/ERC1967/ERC1967Upgrade.sol\":1030:1096  0x360894a13ba1a3210667c828492db98dca3e2076cc3735a920a3ca505d382bbc */\n      0x360894a13ba1a3210667c828492db98dca3e2076cc3735a920a3ca505d382bbc\n        /* \"@openzeppelin/contracts/proxy/ERC1967/ERC1967Upgrade.sol\":1611:1631  _IMPLEMENTATION_SLOT */\n      0x00\n      shl\n        /* \"@openzeppelin/contracts/proxy/ERC1967/ERC1967Upgrade.sol\":1584:1610  StorageSlot.getAddressSlot */\n      tag_311\n        /* \"@openzeppelin/contracts/proxy/ERC1967/ERC1967Upgrade.sol\":1584:1632  StorageSlot.getAddressSlot(_IMPLEMENTATION_SLOT) */\n      jump\t// in\n    tag_411:\n        /* \"@openzeppelin/contracts/proxy/ERC1967/ERC1967Upgrade.sol\":1584:1638  StorageSlot.getAddressSlot(_IMPLEMENTATION_SLOT).value */\n      0x00\n      add\n      0x00\n        /* \"@openzeppelin/contracts/proxy/ERC1967/ERC1967Upgrade.sol\":1584:1658  StorageSlot.getAddressSlot(_IMPLEMENTATION_SLOT).value = newImplementation */\n      0x0100\n      exp\n      dup2\n      sload\n      dup2\n      0xffffffffffffffffffffffffffffffffffffffff\n      mul\n      not\n      and\n      swap1\n      dup4\n      0xffffffffffffffffffffffffffffffffffffffff\n      and\n      mul\n      or\n      swap1\n      sstore\n      pop\n        /* \"@openzeppelin/contracts/proxy/ERC1967/ERC1967Upgrade.sol\":1406:1665  function _setImplementation(address newImplementation) private {... */\n      pop\n      jump\t// out\n        /* \"@openzeppelin/contracts/proxy/ERC1967/ERC1967Upgrade.sol\":2057:2322  function _upgradeToAndCall(address newImplementation, bytes memory data, bool forceCall) internal {... */\n    tag_337:\n        /* \"@openzeppelin/contracts/proxy/ERC1967/ERC1967Upgrade.sol\":2165:2194  _upgradeTo(newImplementation) */\n      tag_413\n        /* \"@openzeppelin/contracts/proxy/ERC1967/ERC1967Upgrade.sol\":2176:2193  newImplementation */\n      dup4\n        /* \"@openzeppelin/contracts/proxy/ERC1967/ERC1967Upgrade.sol\":2165:2175  _upgradeTo */\n      tag_414\n        /* \"@openzeppelin/contracts/proxy/ERC1967/ERC1967Upgrade.sol\":2165:2194  _upgradeTo(newImplementation) */\n      jump\t// in\n    tag_413:\n        /* \"@openzeppelin/contracts/proxy/ERC1967/ERC1967Upgrade.sol\":2222:2223  0 */\n      0x00\n        /* \"@openzeppelin/contracts/proxy/ERC1967/ERC1967Upgrade.sol\":2208:2212  data */\n      dup3\n        /* \"@openzeppelin/contracts/proxy/ERC1967/ERC1967Upgrade.sol\":2208:2219  data.length */\n      mload\n        /* \"@openzeppelin/contracts/proxy/ERC1967/ERC1967Upgrade.sol\":2208:2223  data.length > 0 */\n      gt\n        /* \"@openzeppelin/contracts/proxy/ERC1967/ERC1967Upgrade.sol\":2208:2236  data.length > 0 || forceCall */\n      dup1\n      tag_415\n      jumpi\n      pop\n        /* \"@openzeppelin/contracts/proxy/ERC1967/ERC1967Upgrade.sol\":2227:2236  forceCall */\n      dup1\n        /* \"@openzeppelin/contracts/proxy/ERC1967/ERC1967Upgrade.sol\":2208:2236  data.length > 0 || forceCall */\n    tag_415:\n        /* \"@openzeppelin/contracts/proxy/ERC1967/ERC1967Upgrade.sol\":2204:2316  if (data.length > 0 || forceCall) {... */\n      iszero\n      tag_416\n      jumpi\n        /* \"@openzeppelin/contracts/proxy/ERC1967/ERC1967Upgrade.sol\":2252:2305  Address.functionDelegateCall(newImplementation, data) */\n      tag_417\n        /* \"@openzeppelin/contracts/proxy/ERC1967/ERC1967Upgrade.sol\":2281:2298  newImplementation */\n      dup4\n        /* \"@openzeppelin/contracts/proxy/ERC1967/ERC1967Upgrade.sol\":2300:2304  data */\n      dup4\n        /* \"@openzeppelin/contracts/proxy/ERC1967/ERC1967Upgrade.sol\":2252:2280  Address.functionDelegateCall */\n      tag_418\n        /* \"@openzeppelin/contracts/proxy/ERC1967/ERC1967Upgrade.sol\":2252:2305  Address.functionDelegateCall(newImplementation, data) */\n      jump\t// in\n    tag_417:\n      pop\n        /* \"@openzeppelin/contracts/proxy/ERC1967/ERC1967Upgrade.sol\":2204:2316  if (data.length > 0 || forceCall) {... */\n    tag_416:\n        /* \"@openzeppelin/contracts/proxy/ERC1967/ERC1967Upgrade.sol\":2057:2322  function _upgradeToAndCall(address newImplementation, bytes memory data, bool forceCall) internal {... */\n      pop\n      pop\n      pop\n      jump\t// out\n        /* \"contracts/Proposal.sol\":8382:9824  function distributeRewardsAndPenalties(... */\n    tag_402:\n        /* \"contracts/Proposal.sol\":8639:8648  uint256 j */\n      0x00\n        /* \"contracts/Proposal.sol\":8634:9818  for (uint256 j = 0; j < voteInfos.length; j++) {... */\n    tag_420:\n        /* \"contracts/Proposal.sol\":8658:8667  voteInfos */\n      dup3\n        /* \"contracts/Proposal.sol\":8658:8674  voteInfos.length */\n      mload\n        /* \"contracts/Proposal.sol\":8654:8655  j */\n      dup2\n        /* \"contracts/Proposal.sol\":8654:8674  j < voteInfos.length */\n      lt\n        /* \"contracts/Proposal.sol\":8634:9818  for (uint256 j = 0; j < voteInfos.length; j++) {... */\n      iszero\n      tag_421\n      jumpi\n        /* \"contracts/Proposal.sol\":8695:8719  VoteInfo memory voteInfo */\n      0x00\n        /* \"contracts/Proposal.sol\":8722:8731  voteInfos */\n      dup4\n        /* \"contracts/Proposal.sol\":8732:8733  j */\n      dup3\n        /* \"contracts/Proposal.sol\":8722:8734  voteInfos[j] */\n      dup2\n      mload\n      dup2\n      lt\n      tag_423\n      jumpi\n      tag_424\n      tag_198\n      jump\t// in\n    tag_424:\n    tag_423:\n      0x20\n      mul\n      0x20\n      add\n      add\n      mload\n        /* \"contracts/Proposal.sol\":8695:8734  VoteInfo memory voteInfo = voteInfos[j] */\n      swap1\n      pop\n        /* \"contracts/Proposal.sol\":8777:8785  voteInfo */\n      dup1\n        /* \"contracts/Proposal.sol\":8777:8792  voteInfo.amount */\n      0x20\n      add\n      mload\n        /* \"contracts/Proposal.sol\":8748:8758  votingLock */\n      0x05\n        /* \"contracts/Proposal.sol\":8748:8773  votingLock[voteInfo.user] */\n      0x00\n        /* \"contracts/Proposal.sol\":8759:8767  voteInfo */\n      dup4\n        /* \"contracts/Proposal.sol\":8759:8772  voteInfo.user */\n      0x00\n      add\n      mload\n        /* \"contracts/Proposal.sol\":8748:8773  votingLock[voteInfo.user] */\n      0xffffffffffffffffffffffffffffffffffffffff\n      and\n      0xffffffffffffffffffffffffffffffffffffffff\n      and\n      dup2\n      mstore\n      0x20\n      add\n      swap1\n      dup2\n      mstore\n      0x20\n      add\n      0x00\n      keccak256\n      0x00\n        /* \"contracts/Proposal.sol\":8748:8792  votingLock[voteInfo.user] -= voteInfo.amount */\n      dup3\n      dup3\n      sload\n      tag_425\n      swap2\n      swap1\n      tag_144\n      jump\t// in\n    tag_425:\n      swap3\n      pop\n      pop\n      dup2\n      swap1\n      sstore\n      pop\n        /* \"contracts/Proposal.sol\":8823:8834  winOptionId */\n      dup7\n        /* \"contracts/Proposal.sol\":8811:8819  optionId */\n      dup4\n        /* \"contracts/Proposal.sol\":8811:8834  optionId == winOptionId */\n      sub\n        /* \"contracts/Proposal.sol\":8807:9808  if (optionId == winOptionId) {... */\n      tag_426\n      jumpi\n        /* \"contracts/Proposal.sol\":8854:8868  uint256 reward */\n      0x00\n        /* \"contracts/Proposal.sol\":8934:8946  winVoteCount */\n      dup6\n        /* \"contracts/Proposal.sol\":8890:8910  totalStakeExtractFee */\n      dup8\n        /* \"contracts/Proposal.sol\":8872:8880  voteInfo */\n      dup4\n        /* \"contracts/Proposal.sol\":8872:8887  voteInfo.amount */\n      0x20\n      add\n      mload\n        /* \"contracts/Proposal.sol\":8872:8910  voteInfo.amount * totalStakeExtractFee */\n      tag_427\n      swap2\n      swap1\n      tag_369\n      jump\t// in\n    tag_427:\n        /* \"contracts/Proposal.sol\":8871:8946  (voteInfo.amount * totalStakeExtractFee) /... */\n      tag_428\n      swap2\n      swap1\n      tag_371\n      jump\t// in\n    tag_428:\n        /* \"contracts/Proposal.sol\":8854:8946  uint256 reward = (voteInfo.amount * totalStakeExtractFee) /... */\n      swap1\n      pop\n        /* \"contracts/Proposal.sol\":8964:8996  uint256 rewardExcludingPrincipal */\n      0x00\n        /* \"contracts/Proposal.sol\":9008:9016  voteInfo */\n      dup3\n        /* \"contracts/Proposal.sol\":9008:9023  voteInfo.amount */\n      0x20\n      add\n      mload\n        /* \"contracts/Proposal.sol\":8999:9005  reward */\n      dup3\n        /* \"contracts/Proposal.sol\":8999:9023  reward - voteInfo.amount */\n      tag_429\n      swap2\n      swap1\n      tag_144\n      jump\t// in\n    tag_429:\n        /* \"contracts/Proposal.sol\":8964:9023  uint256 rewardExcludingPrincipal = reward - voteInfo.amount */\n      swap1\n      pop\n        /* \"contracts/Proposal.sol\":9068:9092  rewardExcludingPrincipal */\n      dup1\n        /* \"contracts/Proposal.sol\":9041:9049  balances */\n      0x04\n        /* \"contracts/Proposal.sol\":9041:9064  balances[voteInfo.user] */\n      0x00\n        /* \"contracts/Proposal.sol\":9050:9058  voteInfo */\n      dup6\n        /* \"contracts/Proposal.sol\":9050:9063  voteInfo.user */\n      0x00\n      add\n      mload\n        /* \"contracts/Proposal.sol\":9041:9064  balances[voteInfo.user] */\n      0xffffffffffffffffffffffffffffffffffffffff\n      and\n      0xffffffffffffffffffffffffffffffffffffffff\n      and\n      dup2\n      mstore\n      0x20\n      add\n      swap1\n      dup2\n      mstore\n      0x20\n      add\n      0x00\n      keccak256\n      0x00\n        /* \"contracts/Proposal.sol\":9041:9092  balances[voteInfo.user] += rewardExcludingPrincipal */\n      dup3\n      dup3\n      sload\n      tag_430\n      swap2\n      swap1\n      tag_188\n      jump\t// in\n    tag_430:\n      swap3\n      pop\n      pop\n      dup2\n      swap1\n      sstore\n      pop\n        /* \"contracts/Proposal.sol\":9187:9211  rewardExcludingPrincipal */\n      dup1\n        /* \"contracts/Proposal.sol\":9110:9129  userProposalResults */\n      0x08\n        /* \"contracts/Proposal.sol\":9110:9141  userProposalResults[proposalId] */\n      0x00\n        /* \"contracts/Proposal.sol\":9130:9140  proposalId */\n      dup13\n        /* \"contracts/Proposal.sol\":9110:9141  userProposalResults[proposalId] */\n      dup2\n      mstore\n      0x20\n      add\n      swap1\n      dup2\n      mstore\n      0x20\n      add\n      0x00\n      keccak256\n        /* \"contracts/Proposal.sol\":9110:9156  userProposalResults[proposalId][voteInfo.user] */\n      0x00\n        /* \"contracts/Proposal.sol\":9142:9150  voteInfo */\n      dup6\n        /* \"contracts/Proposal.sol\":9142:9155  voteInfo.user */\n      0x00\n      add\n      mload\n        /* \"contracts/Proposal.sol\":9110:9156  userProposalResults[proposalId][voteInfo.user] */\n      0xffffffffffffffffffffffffffffffffffffffff\n      and\n      0xffffffffffffffffffffffffffffffffffffffff\n      and\n      dup2\n      mstore\n      0x20\n      add\n      swap1\n      dup2\n      mstore\n      0x20\n      add\n      0x00\n      keccak256\n        /* \"contracts/Proposal.sol\":9110:9229  userProposalResults[proposalId][voteInfo.user] = int256(... */\n      dup2\n      swap1\n      sstore\n      pop\n        /* \"contracts/Proposal.sol\":9288:9296  voteInfo */\n      dup3\n        /* \"contracts/Proposal.sol\":9288:9301  voteInfo.user */\n      0x00\n      add\n      mload\n        /* \"contracts/Proposal.sol\":9252:9405  ProposalSettle(... */\n      0xffffffffffffffffffffffffffffffffffffffff\n      and\n      0xa20aa2f236defed03e109fccf805faeb8f6957ecd766ee7cf40dc6f99bef9eab\n        /* \"contracts/Proposal.sol\":9323:9333  proposalId */\n      dup12\n        /* \"contracts/Proposal.sol\":9362:9386  rewardExcludingPrincipal */\n      dup4\n        /* \"contracts/Proposal.sol\":9252:9405  ProposalSettle(... */\n      mload(0x40)\n      tag_431\n      swap3\n      swap2\n      swap1\n      tag_432\n      jump\t// in\n    tag_431:\n      mload(0x40)\n      dup1\n      swap2\n      sub\n      swap1\n      log2\n        /* \"contracts/Proposal.sol\":8836:9420  {... */\n      pop\n      pop\n        /* \"contracts/Proposal.sol\":8807:9808  if (optionId == winOptionId) {... */\n      jump(tag_433)\n    tag_426:\n        /* \"contracts/Proposal.sol\":9471:9479  voteInfo */\n      dup1\n        /* \"contracts/Proposal.sol\":9471:9486  voteInfo.amount */\n      0x20\n      add\n      mload\n        /* \"contracts/Proposal.sol\":9444:9452  balances */\n      0x04\n        /* \"contracts/Proposal.sol\":9444:9467  balances[voteInfo.user] */\n      0x00\n        /* \"contracts/Proposal.sol\":9453:9461  voteInfo */\n      dup4\n        /* \"contracts/Proposal.sol\":9453:9466  voteInfo.user */\n      0x00\n      add\n      mload\n        /* \"contracts/Proposal.sol\":9444:9467  balances[voteInfo.user] */\n      0xffffffffffffffffffffffffffffffffffffffff\n      and\n      0xffffffffffffffffffffffffffffffffffffffff\n      and\n      dup2\n      mstore\n      0x20\n      add\n      swap1\n      dup2\n      mstore\n      0x20\n      add\n      0x00\n      keccak256\n      0x00\n        /* \"contracts/Proposal.sol\":9444:9486  balances[voteInfo.user] -= voteInfo.amount */\n      dup3\n      dup3\n      sload\n      tag_434\n      swap2\n      swap1\n      tag_144\n      jump\t// in\n    tag_434:\n      swap3\n      pop\n      pop\n      dup2\n      swap1\n      sstore\n      pop\n        /* \"contracts/Proposal.sol\":9619:9621  -1 */\n      0xffffffffffffffffffffffffffffffffffffffffffffffffffffffffffffffff\n        /* \"contracts/Proposal.sol\":9580:9588  voteInfo */\n      dup2\n        /* \"contracts/Proposal.sol\":9580:9595  voteInfo.amount */\n      0x20\n      add\n      mload\n        /* \"contracts/Proposal.sol\":9573:9621  int256(voteInfo.amount) *... */\n      tag_435\n      swap2\n      swap1\n      tag_436\n      jump\t// in\n    tag_435:\n        /* \"contracts/Proposal.sol\":9504:9523  userProposalResults */\n      0x08\n        /* \"contracts/Proposal.sol\":9504:9535  userProposalResults[proposalId] */\n      0x00\n        /* \"contracts/Proposal.sol\":9524:9534  proposalId */\n      dup11\n        /* \"contracts/Proposal.sol\":9504:9535  userProposalResults[proposalId] */\n      dup2\n      mstore\n      0x20\n      add\n      swap1\n      dup2\n      mstore\n      0x20\n      add\n      0x00\n      keccak256\n        /* \"contracts/Proposal.sol\":9504:9550  userProposalResults[proposalId][voteInfo.user] */\n      0x00\n        /* \"contracts/Proposal.sol\":9536:9544  voteInfo */\n      dup4\n        /* \"contracts/Proposal.sol\":9536:9549  voteInfo.user */\n      0x00\n      add\n      mload\n        /* \"contracts/Proposal.sol\":9504:9550  userProposalResults[proposalId][voteInfo.user] */\n      0xffffffffffffffffffffffffffffffffffffffff\n      and\n      0xffffffffffffffffffffffffffffffffffffffff\n      and\n      dup2\n      mstore\n      0x20\n      add\n      swap1\n      dup2\n      mstore\n      0x20\n      add\n      0x00\n      keccak256\n        /* \"contracts/Proposal.sol\":9504:9621  userProposalResults[proposalId][voteInfo.user] =... */\n      dup2\n      swap1\n      sstore\n      pop\n        /* \"contracts/Proposal.sol\":9680:9688  voteInfo */\n      dup1\n        /* \"contracts/Proposal.sol\":9680:9693  voteInfo.user */\n      0x00\n      add\n      mload\n        /* \"contracts/Proposal.sol\":9644:9793  ProposalSettle(... */\n      0xffffffffffffffffffffffffffffffffffffffff\n      and\n      0xa20aa2f236defed03e109fccf805faeb8f6957ecd766ee7cf40dc6f99bef9eab\n        /* \"contracts/Proposal.sol\":9715:9725  proposalId */\n      dup10\n        /* \"contracts/Proposal.sol\":9773:9775  -1 */\n      0xffffffffffffffffffffffffffffffffffffffffffffffffffffffffffffffff\n        /* \"contracts/Proposal.sol\":9754:9762  voteInfo */\n      dup5\n        /* \"contracts/Proposal.sol\":9754:9769  voteInfo.amount */\n      0x20\n      add\n      mload\n        /* \"contracts/Proposal.sol\":9747:9775  int256(voteInfo.amount) * -1 */\n      tag_437\n      swap2\n      swap1\n      tag_436\n      jump\t// in\n    tag_437:\n        /* \"contracts/Proposal.sol\":9644:9793  ProposalSettle(... */\n      mload(0x40)\n      tag_438\n      swap3\n      swap2\n      swap1\n      tag_432\n      jump\t// in\n    tag_438:\n      mload(0x40)\n      dup1\n      swap2\n      sub\n      swap1\n      log2\n        /* \"contracts/Proposal.sol\":8807:9808  if (optionId == winOptionId) {... */\n    tag_433:\n        /* \"contracts/Proposal.sol\":8681:9818  {... */\n      pop\n        /* \"contracts/Proposal.sol\":8676:8679  j++ */\n      dup1\n      dup1\n      0x01\n      add\n      swap2\n      pop\n      pop\n        /* \"contracts/Proposal.sol\":8634:9818  for (uint256 j = 0; j < voteInfos.length; j++) {... */\n      jump(tag_420)\n    tag_421:\n      pop\n        /* \"contracts/Proposal.sol\":8382:9824  function distributeRewardsAndPenalties(... */\n      pop\n      pop\n      pop\n      pop\n      pop\n      pop\n      jump\t// out\n        /* \"@openzeppelin/contracts/proxy/ERC1967/ERC1967Upgrade.sol\":1771:1923  function _upgradeTo(address newImplementation) internal {... */\n    tag_414:\n        /* \"@openzeppelin/contracts/proxy/ERC1967/ERC1967Upgrade.sol\":1837:1874  _setImplementation(newImplementation) */\n      tag_440\n        /* \"@openzeppelin/contracts/proxy/ERC1967/ERC1967Upgrade.sol\":1856:1873  newImplementation */\n      dup2\n        /* \"@openzeppelin/contracts/proxy/ERC1967/ERC1967Upgrade.sol\":1837:1855  _setImplementation */\n      tag_321\n        /* \"@openzeppelin/contracts/proxy/ERC1967/ERC1967Upgrade.sol\":1837:1874  _setImplementation(newImplementation) */\n      jump\t// in\n    tag_440:\n        /* \"@openzeppelin/contracts/proxy/ERC1967/ERC1967Upgrade.sol\":1898:1915  newImplementation */\n      dup1\n        /* \"@openzeppelin/contracts/proxy/ERC1967/ERC1967Upgrade.sol\":1889:1916  Upgraded(newImplementation) */\n      0xffffffffffffffffffffffffffffffffffffffff\n      and\n      0xbc7cd75a20ee27fd9adebab32041f755214dbc6bffa90cc0225b39da2e5c2d3b\n      mload(0x40)\n      mload(0x40)\n      dup1\n      swap2\n      sub\n      swap1\n      log2\n        /* \"@openzeppelin/contracts/proxy/ERC1967/ERC1967Upgrade.sol\":1771:1923  function _upgradeTo(address newImplementation) internal {... */\n      pop\n      jump\t// out\n        /* \"@openzeppelin/contracts/utils/Address.sol\":6674:6872  function functionDelegateCall(address target, bytes memory data) internal returns (bytes memory) {... */\n    tag_418:\n        /* \"@openzeppelin/contracts/utils/Address.sol\":6757:6769  bytes memory */\n      0x60\n        /* \"@openzeppelin/contracts/utils/Address.sol\":6788:6865  functionDelegateCall(target, data, \"Address: low-level delegate call failed\") */\n      tag_442\n        /* \"@openzeppelin/contracts/utils/Address.sol\":6809:6815  target */\n      dup4\n        /* \"@openzeppelin/contracts/utils/Address.sol\":6817:6821  data */\n      dup4\n        /* \"@openzeppelin/contracts/utils/Address.sol\":6788:6865  functionDelegateCall(target, data, \"Address: low-level delegate call failed\") */\n      mload(0x40)\n      dup1\n      0x60\n      add\n      0x40\n      mstore\n      dup1\n      0x27\n      dup2\n      mstore\n      0x20\n      add\n      data_9fdcd12e4b726339b32a442b0a448365d5d85c96b2d2cff917b4f66c63110398\n      0x27\n      swap2\n      codecopy\n        /* \"@openzeppelin/contracts/utils/Address.sol\":6788:6808  functionDelegateCall */\n      tag_443\n        /* \"@openzeppelin/contracts/utils/Address.sol\":6788:6865  functionDelegateCall(target, data, \"Address: low-level delegate call failed\") */\n      jump\t// in\n    tag_442:\n        /* \"@openzeppelin/contracts/utils/Address.sol\":6781:6865  return functionDelegateCall(target, data, \"Address: low-level delegate call failed\") */\n      swap1\n      pop\n        /* \"@openzeppelin/contracts/utils/Address.sol\":6674:6872  function functionDelegateCall(address target, bytes memory data) internal returns (bytes memory) {... */\n      swap3\n      swap2\n      pop\n      pop\n      jump\t// out\n        /* \"@openzeppelin/contracts/utils/Address.sol\":7058:7383  function functionDelegateCall(... */\n    tag_443:\n        /* \"@openzeppelin/contracts/utils/Address.sol\":7199:7211  bytes memory */\n      0x60\n        /* \"@openzeppelin/contracts/utils/Address.sol\":7224:7236  bool success */\n      0x00\n        /* \"@openzeppelin/contracts/utils/Address.sol\":7238:7261  bytes memory returndata */\n      dup1\n        /* \"@openzeppelin/contracts/utils/Address.sol\":7265:7271  target */\n      dup6\n        /* \"@openzeppelin/contracts/utils/Address.sol\":7265:7284  target.delegatecall */\n      0xffffffffffffffffffffffffffffffffffffffff\n      and\n        /* \"@openzeppelin/contracts/utils/Address.sol\":7285:7289  data */\n      dup6\n        /* \"@openzeppelin/contracts/utils/Address.sol\":7265:7290  target.delegatecall(data) */\n      mload(0x40)\n      tag_445\n      swap2\n      swap1\n      tag_446\n      jump\t// in\n    tag_445:\n      0x00\n      mload(0x40)\n      dup1\n      dup4\n      sub\n      dup2\n      dup6\n      gas\n      delegatecall\n      swap2\n      pop\n      pop\n      returndatasize\n      dup1\n      0x00\n      dup2\n      eq\n      tag_449\n      jumpi\n      mload(0x40)\n      swap2\n      pop\n      and(add(returndatasize, 0x3f), not(0x1f))\n      dup3\n      add\n      0x40\n      mstore\n      returndatasize\n      dup3\n      mstore\n      returndatasize\n      0x00\n      0x20\n      dup5\n      add\n      returndatacopy\n      jump(tag_448)\n    tag_449:\n      0x60\n      swap2\n      pop\n    tag_448:\n      pop\n        /* \"@openzeppelin/contracts/utils/Address.sol\":7223:7290  (bool success, bytes memory returndata) = target.delegatecall(data) */\n      swap2\n      pop\n      swap2\n      pop\n        /* \"@openzeppelin/contracts/utils/Address.sol\":7307:7376  verifyCallResultFromTarget(target, success, returndata, errorMessage) */\n      tag_450\n        /* \"@openzeppelin/contracts/utils/Address.sol\":7334:7340  target */\n      dup7\n        /* \"@openzeppelin/contracts/utils/Address.sol\":7342:7349  success */\n      dup4\n        /* \"@openzeppelin/contracts/utils/Address.sol\":7351:7361  returndata */\n      dup4\n        /* \"@openzeppelin/contracts/utils/Address.sol\":7363:7375  errorMessage */\n      dup8\n        /* \"@openzeppelin/contracts/utils/Address.sol\":7307:7333  verifyCallResultFromTarget */\n      tag_451\n        /* \"@openzeppelin/contracts/utils/Address.sol\":7307:7376  verifyCallResultFromTarget(target, success, returndata, errorMessage) */\n      jump\t// in\n    tag_450:\n        /* \"@openzeppelin/contracts/utils/Address.sol\":7300:7376  return verifyCallResultFromTarget(target, success, returndata, errorMessage) */\n      swap3\n      pop\n      pop\n      pop\n        /* \"@openzeppelin/contracts/utils/Address.sol\":7058:7383  function functionDelegateCall(... */\n      swap4\n      swap3\n      pop\n      pop\n      pop\n      jump\t// out\n        /* \"@openzeppelin/contracts/utils/Address.sol\":7671:8299  function verifyCallResultFromTarget(... */\n    tag_451:\n        /* \"@openzeppelin/contracts/utils/Address.sol\":7851:7863  bytes memory */\n      0x60\n        /* \"@openzeppelin/contracts/utils/Address.sol\":7879:7886  success */\n      dup4\n        /* \"@openzeppelin/contracts/utils/Address.sol\":7875:8293  if (success) {... */\n      iszero\n      tag_453\n      jumpi\n        /* \"@openzeppelin/contracts/utils/Address.sol\":7927:7928  0 */\n      0x00\n        /* \"@openzeppelin/contracts/utils/Address.sol\":7906:7916  returndata */\n      dup4\n        /* \"@openzeppelin/contracts/utils/Address.sol\":7906:7923  returndata.length */\n      mload\n        /* \"@openzeppelin/contracts/utils/Address.sol\":7906:7928  returndata.length == 0 */\n      sub\n        /* \"@openzeppelin/contracts/utils/Address.sol\":7902:8188  if (returndata.length == 0) {... */\n      tag_454\n      jumpi\n        /* \"@openzeppelin/contracts/utils/Address.sol\":8121:8139  isContract(target) */\n      tag_455\n        /* \"@openzeppelin/contracts/utils/Address.sol\":8132:8138  target */\n      dup6\n        /* \"@openzeppelin/contracts/utils/Address.sol\":8121:8131  isContract */\n      tag_299\n        /* \"@openzeppelin/contracts/utils/Address.sol\":8121:8139  isContract(target) */\n      jump\t// in\n    tag_455:\n        /* \"@openzeppelin/contracts/utils/Address.sol\":8113:8173  require(isContract(target), \"Address: call to non-contract\") */\n      tag_456\n      jumpi\n      mload(0x40)\n      0x08c379a000000000000000000000000000000000000000000000000000000000\n      dup2\n      mstore\n      0x04\n      add\n      tag_457\n      swap1\n      tag_458\n      jump\t// in\n    tag_457:\n      mload(0x40)\n      dup1\n      swap2\n      sub\n      swap1\n      revert\n    tag_456:\n        /* \"@openzeppelin/contracts/utils/Address.sol\":7902:8188  if (returndata.length == 0) {... */\n    tag_454:\n        /* \"@openzeppelin/contracts/utils/Address.sol\":8208:8218  returndata */\n      dup3\n        /* \"@openzeppelin/contracts/utils/Address.sol\":8201:8218  return returndata */\n      swap1\n      pop\n      jump(tag_452)\n        /* \"@openzeppelin/contracts/utils/Address.sol\":7875:8293  if (success) {... */\n    tag_453:\n        /* \"@openzeppelin/contracts/utils/Address.sol\":8249:8282  _revert(returndata, errorMessage) */\n      tag_460\n        /* \"@openzeppelin/contracts/utils/Address.sol\":8257:8267  returndata */\n      dup4\n        /* \"@openzeppelin/contracts/utils/Address.sol\":8269:8281  errorMessage */\n      dup4\n        /* \"@openzeppelin/contracts/utils/Address.sol\":8249:8256  _revert */\n      tag_461\n        /* \"@openzeppelin/contracts/utils/Address.sol\":8249:8282  _revert(returndata, errorMessage) */\n      jump\t// in\n    tag_460:\n        /* \"@openzeppelin/contracts/utils/Address.sol\":7671:8299  function verifyCallResultFromTarget(... */\n    tag_452:\n      swap5\n      swap4\n      pop\n      pop\n      pop\n      pop\n      jump\t// out\n        /* \"@openzeppelin/contracts/utils/Address.sol\":8821:9361  function _revert(bytes memory returndata, string memory errorMessage) private pure {... */\n    tag_461:\n        /* \"@openzeppelin/contracts/utils/Address.sol\":9000:9001  0 */\n      0x00\n        /* \"@openzeppelin/contracts/utils/Address.sol\":8980:8990  returndata */\n      dup3\n        /* \"@openzeppelin/contracts/utils/Address.sol\":8980:8997  returndata.length */\n      mload\n        /* \"@openzeppelin/contracts/utils/Address.sol\":8980:9001  returndata.length > 0 */\n      gt\n        /* \"@openzeppelin/contracts/utils/Address.sol\":8976:9355  if (returndata.length > 0) {... */\n      iszero\n      tag_463\n      jumpi\n        /* \"@openzeppelin/contracts/utils/Address.sol\":9208:9218  returndata */\n      dup2\n        /* \"@openzeppelin/contracts/utils/Address.sol\":9202:9219  mload(returndata) */\n      mload\n        /* \"@openzeppelin/contracts/utils/Address.sol\":9264:9279  returndata_size */\n      dup1\n        /* \"@openzeppelin/contracts/utils/Address.sol\":9251:9261  returndata */\n      dup4\n        /* \"@openzeppelin/contracts/utils/Address.sol\":9247:9249  32 */\n      0x20\n        /* \"@openzeppelin/contracts/utils/Address.sol\":9243:9262  add(32, returndata) */\n      add\n        /* \"@openzeppelin/contracts/utils/Address.sol\":9236:9280  revert(add(32, returndata), returndata_size) */\n      revert\n        /* \"@openzeppelin/contracts/utils/Address.sol\":8976:9355  if (returndata.length > 0) {... */\n    tag_463:\n        /* \"@openzeppelin/contracts/utils/Address.sol\":9331:9343  errorMessage */\n      dup1\n        /* \"@openzeppelin/contracts/utils/Address.sol\":9324:9344  revert(errorMessage) */\n      mload(0x40)\n      0x08c379a000000000000000000000000000000000000000000000000000000000\n      dup2\n      mstore\n      0x04\n      add\n      tag_465\n      swap2\n      swap1\n      tag_466\n      jump\t// in\n    tag_465:\n      mload(0x40)\n      dup1\n      swap2\n      sub\n      swap1\n      revert\n        /* \"#utility.yul\":7:82   */\n    tag_467:\n        /* \"#utility.yul\":40:46   */\n      0x00\n        /* \"#utility.yul\":73:75   */\n      0x40\n        /* \"#utility.yul\":67:76   */\n      mload\n        /* \"#utility.yul\":57:76   */\n      swap1\n      pop\n        /* \"#utility.yul\":7:82   */\n      swap1\n      jump\t// out\n        /* \"#utility.yul\":88:205   */\n    tag_468:\n        /* \"#utility.yul\":197:198   */\n      0x00\n        /* \"#utility.yul\":194:195   */\n      dup1\n        /* \"#utility.yul\":187:199   */\n      revert\n        /* \"#utility.yul\":211:328   */\n    tag_469:\n        /* \"#utility.yul\":320:321   */\n      0x00\n        /* \"#utility.yul\":317:318   */\n      dup1\n        /* \"#utility.yul\":310:322   */\n      revert\n        /* \"#utility.yul\":334:411   */\n    tag_470:\n        /* \"#utility.yul\":371:378   */\n      0x00\n        /* \"#utility.yul\":400:405   */\n      dup2\n        /* \"#utility.yul\":389:405   */\n      swap1\n      pop\n        /* \"#utility.yul\":334:411   */\n      swap2\n      swap1\n      pop\n      jump\t// out\n        /* \"#utility.yul\":417:539   */\n    tag_471:\n        /* \"#utility.yul\":490:514   */\n      tag_588\n        /* \"#utility.yul\":508:513   */\n      dup2\n        /* \"#utility.yul\":490:514   */\n      tag_470\n      jump\t// in\n    tag_588:\n        /* \"#utility.yul\":483:488   */\n      dup2\n        /* \"#utility.yul\":480:515   */\n      eq\n        /* \"#utility.yul\":470:533   */\n      tag_589\n      jumpi\n        /* \"#utility.yul\":529:530   */\n      0x00\n        /* \"#utility.yul\":526:527   */\n      dup1\n        /* \"#utility.yul\":519:531   */\n      revert\n        /* \"#utility.yul\":470:533   */\n    tag_589:\n        /* \"#utility.yul\":417:539   */\n      pop\n      jump\t// out\n        /* \"#utility.yul\":545:684   */\n    tag_472:\n        /* \"#utility.yul\":591:596   */\n      0x00\n        /* \"#utility.yul\":629:635   */\n      dup2\n        /* \"#utility.yul\":616:636   */\n      calldataload\n        /* \"#utility.yul\":607:636   */\n      swap1\n      pop\n        /* \"#utility.yul\":645:678   */\n      tag_591\n        /* \"#utility.yul\":672:677   */\n      dup2\n        /* \"#utility.yul\":645:678   */\n      tag_471\n      jump\t// in\n    tag_591:\n        /* \"#utility.yul\":545:684   */\n      swap3\n      swap2\n      pop\n      pop\n      jump\t// out\n        /* \"#utility.yul\":690:816   */\n    tag_473:\n        /* \"#utility.yul\":727:734   */\n      0x00\n        /* \"#utility.yul\":767:809   */\n      0xffffffffffffffffffffffffffffffffffffffff\n        /* \"#utility.yul\":760:765   */\n      dup3\n        /* \"#utility.yul\":756:810   */\n      and\n        /* \"#utility.yul\":745:810   */\n      swap1\n      pop\n        /* \"#utility.yul\":690:816   */\n      swap2\n      swap1\n      pop\n      jump\t// out\n        /* \"#utility.yul\":822:918   */\n    tag_474:\n        /* \"#utility.yul\":859:866   */\n      0x00\n        /* \"#utility.yul\":888:912   */\n      tag_594\n        /* \"#utility.yul\":906:911   */\n      dup3\n        /* \"#utility.yul\":888:912   */\n      tag_473\n      jump\t// in\n    tag_594:\n        /* \"#utility.yul\":877:912   */\n      swap1\n      pop\n        /* \"#utility.yul\":822:918   */\n      swap2\n      swap1\n      pop\n      jump\t// out\n        /* \"#utility.yul\":924:1046   */\n    tag_475:\n        /* \"#utility.yul\":997:1021   */\n      tag_596\n        /* \"#utility.yul\":1015:1020   */\n      dup2\n        /* \"#utility.yul\":997:1021   */\n      tag_474\n      jump\t// in\n    tag_596:\n        /* \"#utility.yul\":990:995   */\n      dup2\n        /* \"#utility.yul\":987:1022   */\n      eq\n        /* \"#utility.yul\":977:1040   */\n      tag_597\n      jumpi\n        /* \"#utility.yul\":1036:1037   */\n      0x00\n        /* \"#utility.yul\":1033:1034   */\n      dup1\n        /* \"#utility.yul\":1026:1038   */\n      revert\n        /* \"#utility.yul\":977:1040   */\n    tag_597:\n        /* \"#utility.yul\":924:1046   */\n      pop\n      jump\t// out\n        /* \"#utility.yul\":1052:1191   */\n    tag_476:\n        /* \"#utility.yul\":1098:1103   */\n      0x00\n        /* \"#utility.yul\":1136:1142   */\n      dup2\n        /* \"#utility.yul\":1123:1143   */\n      calldataload\n        /* \"#utility.yul\":1114:1143   */\n      swap1\n      pop\n        /* \"#utility.yul\":1152:1185   */\n      tag_599\n        /* \"#utility.yul\":1179:1184   */\n      dup2\n        /* \"#utility.yul\":1152:1185   */\n      tag_475\n      jump\t// in\n    tag_599:\n        /* \"#utility.yul\":1052:1191   */\n      swap3\n      swap2\n      pop\n      pop\n      jump\t// out\n        /* \"#utility.yul\":1197:1671   */\n    tag_29:\n        /* \"#utility.yul\":1265:1271   */\n      0x00\n        /* \"#utility.yul\":1273:1279   */\n      dup1\n        /* \"#utility.yul\":1322:1324   */\n      0x40\n        /* \"#utility.yul\":1310:1319   */\n      dup4\n        /* \"#utility.yul\":1301:1308   */\n      dup6\n        /* \"#utility.yul\":1297:1320   */\n      sub\n        /* \"#utility.yul\":1293:1325   */\n      slt\n        /* \"#utility.yul\":1290:1409   */\n      iszero\n      tag_601\n      jumpi\n        /* \"#utility.yul\":1328:1407   */\n      tag_602\n      tag_468\n      jump\t// in\n    tag_602:\n        /* \"#utility.yul\":1290:1409   */\n    tag_601:\n        /* \"#utility.yul\":1448:1449   */\n      0x00\n        /* \"#utility.yul\":1473:1526   */\n      tag_603\n        /* \"#utility.yul\":1518:1525   */\n      dup6\n        /* \"#utility.yul\":1509:1515   */\n      dup3\n        /* \"#utility.yul\":1498:1507   */\n      dup7\n        /* \"#utility.yul\":1494:1516   */\n      add\n        /* \"#utility.yul\":1473:1526   */\n      tag_472\n      jump\t// in\n    tag_603:\n        /* \"#utility.yul\":1463:1526   */\n      swap3\n      pop\n        /* \"#utility.yul\":1419:1536   */\n      pop\n        /* \"#utility.yul\":1575:1577   */\n      0x20\n        /* \"#utility.yul\":1601:1654   */\n      tag_604\n        /* \"#utility.yul\":1646:1653   */\n      dup6\n        /* \"#utility.yul\":1637:1643   */\n      dup3\n        /* \"#utility.yul\":1626:1635   */\n      dup7\n        /* \"#utility.yul\":1622:1644   */\n      add\n        /* \"#utility.yul\":1601:1654   */\n      tag_476\n      jump\t// in\n    tag_604:\n        /* \"#utility.yul\":1591:1654   */\n      swap2\n      pop\n        /* \"#utility.yul\":1546:1664   */\n      pop\n        /* \"#utility.yul\":1197:1671   */\n      swap3\n      pop\n      swap3\n      swap1\n      pop\n      jump\t// out\n        /* \"#utility.yul\":1677:1753   */\n    tag_477:\n        /* \"#utility.yul\":1713:1720   */\n      0x00\n        /* \"#utility.yul\":1742:1747   */\n      dup2\n        /* \"#utility.yul\":1731:1747   */\n      swap1\n      pop\n        /* \"#utility.yul\":1677:1753   */\n      swap2\n      swap1\n      pop\n      jump\t// out\n        /* \"#utility.yul\":1759:1874   */\n    tag_478:\n        /* \"#utility.yul\":1844:1867   */\n      tag_607\n        /* \"#utility.yul\":1861:1866   */\n      dup2\n        /* \"#utility.yul\":1844:1867   */\n      tag_477\n      jump\t// in\n    tag_607:\n        /* \"#utility.yul\":1839:1842   */\n      dup3\n        /* \"#utility.yul\":1832:1868   */\n      mstore\n        /* \"#utility.yul\":1759:1874   */\n      pop\n      pop\n      jump\t// out\n        /* \"#utility.yul\":1880:2098   */\n    tag_32:\n        /* \"#utility.yul\":1971:1975   */\n      0x00\n        /* \"#utility.yul\":2009:2011   */\n      0x20\n        /* \"#utility.yul\":1998:2007   */\n      dup3\n        /* \"#utility.yul\":1994:2012   */\n      add\n        /* \"#utility.yul\":1986:2012   */\n      swap1\n      pop\n        /* \"#utility.yul\":2022:2091   */\n      tag_609\n        /* \"#utility.yul\":2088:2089   */\n      0x00\n        /* \"#utility.yul\":2077:2086   */\n      dup4\n        /* \"#utility.yul\":2073:2090   */\n      add\n        /* \"#utility.yul\":2064:2070   */\n      dup5\n        /* \"#utility.yul\":2022:2091   */\n      tag_478\n      jump\t// in\n    tag_609:\n        /* \"#utility.yul\":1880:2098   */\n      swap3\n      swap2\n      pop\n      pop\n      jump\t// out\n        /* \"#utility.yul\":2104:2433   */\n    tag_36:\n        /* \"#utility.yul\":2163:2169   */\n      0x00\n        /* \"#utility.yul\":2212:2214   */\n      0x20\n        /* \"#utility.yul\":2200:2209   */\n      dup3\n        /* \"#utility.yul\":2191:2198   */\n      dup5\n        /* \"#utility.yul\":2187:2210   */\n      sub\n        /* \"#utility.yul\":2183:2215   */\n      slt\n        /* \"#utility.yul\":2180:2299   */\n      iszero\n      tag_611\n      jumpi\n        /* \"#utility.yul\":2218:2297   */\n      tag_612\n      tag_468\n      jump\t// in\n    tag_612:\n        /* \"#utility.yul\":2180:2299   */\n    tag_611:\n        /* \"#utility.yul\":2338:2339   */\n      0x00\n        /* \"#utility.yul\":2363:2416   */\n      tag_613\n        /* \"#utility.yul\":2408:2415   */\n      dup5\n        /* \"#utility.yul\":2399:2405   */\n      dup3\n        /* \"#utility.yul\":2388:2397   */\n      dup6\n        /* \"#utility.yul\":2384:2406   */\n      add\n        /* \"#utility.yul\":2363:2416   */\n      tag_472\n      jump\t// in\n    tag_613:\n        /* \"#utility.yul\":2353:2416   */\n      swap2\n      pop\n        /* \"#utility.yul\":2309:2426   */\n      pop\n        /* \"#utility.yul\":2104:2433   */\n      swap3\n      swap2\n      pop\n      pop\n      jump\t// out\n        /* \"#utility.yul\":2439:2557   */\n    tag_479:\n        /* \"#utility.yul\":2526:2550   */\n      tag_615\n        /* \"#utility.yul\":2544:2549   */\n      dup2\n        /* \"#utility.yul\":2526:2550   */\n      tag_470\n      jump\t// in\n    tag_615:\n        /* \"#utility.yul\":2521:2524   */\n      dup3\n        /* \"#utility.yul\":2514:2551   */\n      mstore\n        /* \"#utility.yul\":2439:2557   */\n      pop\n      pop\n      jump\t// out\n        /* \"#utility.yul\":2563:2785   */\n    tag_39:\n        /* \"#utility.yul\":2656:2660   */\n      0x00\n        /* \"#utility.yul\":2694:2696   */\n      0x20\n        /* \"#utility.yul\":2683:2692   */\n      dup3\n        /* \"#utility.yul\":2679:2697   */\n      add\n        /* \"#utility.yul\":2671:2697   */\n      swap1\n      pop\n        /* \"#utility.yul\":2707:2778   */\n      tag_617\n        /* \"#utility.yul\":2775:2776   */\n      0x00\n        /* \"#utility.yul\":2764:2773   */\n      dup4\n        /* \"#utility.yul\":2760:2777   */\n      add\n        /* \"#utility.yul\":2751:2757   */\n      dup5\n        /* \"#utility.yul\":2707:2778   */\n      tag_479\n      jump\t// in\n    tag_617:\n        /* \"#utility.yul\":2563:2785   */\n      swap3\n      swap2\n      pop\n      pop\n      jump\t// out\n        /* \"#utility.yul\":2791:3120   */\n    tag_43:\n        /* \"#utility.yul\":2850:2856   */\n      0x00\n        /* \"#utility.yul\":2899:2901   */\n      0x20\n        /* \"#utility.yul\":2887:2896   */\n      dup3\n        /* \"#utility.yul\":2878:2885   */\n      dup5\n        /* \"#utility.yul\":2874:2897   */\n      sub\n        /* \"#utility.yul\":2870:2902   */\n      slt\n        /* \"#utility.yul\":2867:2986   */\n      iszero\n      tag_619\n      jumpi\n        /* \"#utility.yul\":2905:2984   */\n      tag_620\n      tag_468\n      jump\t// in\n    tag_620:\n        /* \"#utility.yul\":2867:2986   */\n    tag_619:\n        /* \"#utility.yul\":3025:3026   */\n      0x00\n        /* \"#utility.yul\":3050:3103   */\n      tag_621\n        /* \"#utility.yul\":3095:3102   */\n      dup5\n        /* \"#utility.yul\":3086:3092   */\n      dup3\n        /* \"#utility.yul\":3075:3084   */\n      dup6\n        /* \"#utility.yul\":3071:3093   */\n      add\n        /* \"#utility.yul\":3050:3103   */\n      tag_476\n      jump\t// in\n    tag_621:\n        /* \"#utility.yul\":3040:3103   */\n      swap2\n      pop\n        /* \"#utility.yul\":2996:3113   */\n      pop\n        /* \"#utility.yul\":2791:3120   */\n      swap3\n      swap2\n      pop\n      pop\n      jump\t// out\n        /* \"#utility.yul\":3126:3745   */\n    tag_57:\n        /* \"#utility.yul\":3203:3209   */\n      0x00\n        /* \"#utility.yul\":3211:3217   */\n      dup1\n        /* \"#utility.yul\":3219:3225   */\n      0x00\n        /* \"#utility.yul\":3268:3270   */\n      0x60\n        /* \"#utility.yul\":3256:3265   */\n      dup5\n        /* \"#utility.yul\":3247:3254   */\n      dup7\n        /* \"#utility.yul\":3243:3266   */\n      sub\n        /* \"#utility.yul\":3239:3271   */\n      slt\n        /* \"#utility.yul\":3236:3355   */\n      iszero\n      tag_623\n      jumpi\n        /* \"#utility.yul\":3274:3353   */\n      tag_624\n      tag_468\n      jump\t// in\n    tag_624:\n        /* \"#utility.yul\":3236:3355   */\n    tag_623:\n        /* \"#utility.yul\":3394:3395   */\n      0x00\n        /* \"#utility.yul\":3419:3472   */\n      tag_625\n        /* \"#utility.yul\":3464:3471   */\n      dup7\n        /* \"#utility.yul\":3455:3461   */\n      dup3\n        /* \"#utility.yul\":3444:3453   */\n      dup8\n        /* \"#utility.yul\":3440:3462   */\n      add\n        /* \"#utility.yul\":3419:3472   */\n      tag_472\n      jump\t// in\n    tag_625:\n        /* \"#utility.yul\":3409:3472   */\n      swap4\n      pop\n        /* \"#utility.yul\":3365:3482   */\n      pop\n        /* \"#utility.yul\":3521:3523   */\n      0x20\n        /* \"#utility.yul\":3547:3600   */\n      tag_626\n        /* \"#utility.yul\":3592:3599   */\n      dup7\n        /* \"#utility.yul\":3583:3589   */\n      dup3\n        /* \"#utility.yul\":3572:3581   */\n      dup8\n        /* \"#utility.yul\":3568:3590   */\n      add\n        /* \"#utility.yul\":3547:3600   */\n      tag_472\n      jump\t// in\n    tag_626:\n        /* \"#utility.yul\":3537:3600   */\n      swap3\n      pop\n        /* \"#utility.yul\":3492:3610   */\n      pop\n        /* \"#utility.yul\":3649:3651   */\n      0x40\n        /* \"#utility.yul\":3675:3728   */\n      tag_627\n        /* \"#utility.yul\":3720:3727   */\n      dup7\n        /* \"#utility.yul\":3711:3717   */\n      dup3\n        /* \"#utility.yul\":3700:3709   */\n      dup8\n        /* \"#utility.yul\":3696:3718   */\n      add\n        /* \"#utility.yul\":3675:3728   */\n      tag_472\n      jump\t// in\n    tag_627:\n        /* \"#utility.yul\":3665:3728   */\n      swap2\n      pop\n        /* \"#utility.yul\":3620:3738   */\n      pop\n        /* \"#utility.yul\":3126:3745   */\n      swap3\n      pop\n      swap3\n      pop\n      swap3\n      jump\t// out\n        /* \"#utility.yul\":3751:3869   */\n    tag_480:\n        /* \"#utility.yul\":3838:3862   */\n      tag_629\n        /* \"#utility.yul\":3856:3861   */\n      dup2\n        /* \"#utility.yul\":3838:3862   */\n      tag_474\n      jump\t// in\n    tag_629:\n        /* \"#utility.yul\":3833:3836   */\n      dup3\n        /* \"#utility.yul\":3826:3863   */\n      mstore\n        /* \"#utility.yul\":3751:3869   */\n      pop\n      pop\n      jump\t// out\n        /* \"#utility.yul\":3875:4207   */\n    tag_60:\n        /* \"#utility.yul\":3996:4000   */\n      0x00\n        /* \"#utility.yul\":4034:4036   */\n      0x40\n        /* \"#utility.yul\":4023:4032   */\n      dup3\n        /* \"#utility.yul\":4019:4037   */\n      add\n        /* \"#utility.yul\":4011:4037   */\n      swap1\n      pop\n        /* \"#utility.yul\":4047:4118   */\n      tag_631\n        /* \"#utility.yul\":4115:4116   */\n      0x00\n        /* \"#utility.yul\":4104:4113   */\n      dup4\n        /* \"#utility.yul\":4100:4117   */\n      add\n        /* \"#utility.yul\":4091:4097   */\n      dup6\n        /* \"#utility.yul\":4047:4118   */\n      tag_480\n      jump\t// in\n    tag_631:\n        /* \"#utility.yul\":4128:4200   */\n      tag_632\n        /* \"#utility.yul\":4196:4198   */\n      0x20\n        /* \"#utility.yul\":4185:4194   */\n      dup4\n        /* \"#utility.yul\":4181:4199   */\n      add\n        /* \"#utility.yul\":4172:4178   */\n      dup5\n        /* \"#utility.yul\":4128:4200   */\n      tag_479\n      jump\t// in\n    tag_632:\n        /* \"#utility.yul\":3875:4207   */\n      swap4\n      swap3\n      pop\n      pop\n      pop\n      jump\t// out\n        /* \"#utility.yul\":4213:4330   */\n    tag_481:\n        /* \"#utility.yul\":4322:4323   */\n      0x00\n        /* \"#utility.yul\":4319:4320   */\n      dup1\n        /* \"#utility.yul\":4312:4324   */\n      revert\n        /* \"#utility.yul\":4336:4453   */\n    tag_482:\n        /* \"#utility.yul\":4445:4446   */\n      0x00\n        /* \"#utility.yul\":4442:4443   */\n      dup1\n        /* \"#utility.yul\":4435:4447   */\n      revert\n        /* \"#utility.yul\":4459:4561   */\n    tag_483:\n        /* \"#utility.yul\":4500:4506   */\n      0x00\n        /* \"#utility.yul\":4551:4553   */\n      0x1f\n        /* \"#utility.yul\":4547:4554   */\n      not\n        /* \"#utility.yul\":4542:4544   */\n      0x1f\n        /* \"#utility.yul\":4535:4540   */\n      dup4\n        /* \"#utility.yul\":4531:4545   */\n      add\n        /* \"#utility.yul\":4527:4555   */\n      and\n        /* \"#utility.yul\":4517:4555   */\n      swap1\n      pop\n        /* \"#utility.yul\":4459:4561   */\n      swap2\n      swap1\n      pop\n      jump\t// out\n        /* \"#utility.yul\":4567:4747   */\n    tag_162:\n        /* \"#utility.yul\":4615:4692   */\n      0x4e487b7100000000000000000000000000000000000000000000000000000000\n        /* \"#utility.yul\":4612:4613   */\n      0x00\n        /* \"#utility.yul\":4605:4693   */\n      mstore\n        /* \"#utility.yul\":4712:4716   */\n      0x41\n        /* \"#utility.yul\":4709:4710   */\n      0x04\n        /* \"#utility.yul\":4702:4717   */\n      mstore\n        /* \"#utility.yul\":4736:4740   */\n      0x24\n        /* \"#utility.yul\":4733:4734   */\n      0x00\n        /* \"#utility.yul\":4726:4741   */\n      revert\n        /* \"#utility.yul\":4753:5034   */\n    tag_484:\n        /* \"#utility.yul\":4836:4863   */\n      tag_638\n        /* \"#utility.yul\":4858:4862   */\n      dup3\n        /* \"#utility.yul\":4836:4863   */\n      tag_483\n      jump\t// in\n    tag_638:\n        /* \"#utility.yul\":4828:4834   */\n      dup2\n        /* \"#utility.yul\":4824:4864   */\n      add\n        /* \"#utility.yul\":4966:4972   */\n      dup2\n        /* \"#utility.yul\":4954:4964   */\n      dup2\n        /* \"#utility.yul\":4951:4973   */\n      lt\n        /* \"#utility.yul\":4930:4948   */\n      0xffffffffffffffff\n        /* \"#utility.yul\":4918:4928   */\n      dup3\n        /* \"#utility.yul\":4915:4949   */\n      gt\n        /* \"#utility.yul\":4912:4974   */\n      or\n        /* \"#utility.yul\":4909:4997   */\n      iszero\n      tag_639\n      jumpi\n        /* \"#utility.yul\":4977:4995   */\n      tag_640\n      tag_162\n      jump\t// in\n    tag_640:\n        /* \"#utility.yul\":4909:4997   */\n    tag_639:\n        /* \"#utility.yul\":5017:5027   */\n      dup1\n        /* \"#utility.yul\":5013:5015   */\n      0x40\n        /* \"#utility.yul\":5006:5028   */\n      mstore\n        /* \"#utility.yul\":4796:5034   */\n      pop\n        /* \"#utility.yul\":4753:5034   */\n      pop\n      pop\n      jump\t// out\n        /* \"#utility.yul\":5040:5169   */\n    tag_485:\n        /* \"#utility.yul\":5074:5080   */\n      0x00\n        /* \"#utility.yul\":5101:5121   */\n      tag_642\n      tag_467\n      jump\t// in\n    tag_642:\n        /* \"#utility.yul\":5091:5121   */\n      swap1\n      pop\n        /* \"#utility.yul\":5130:5163   */\n      tag_643\n        /* \"#utility.yul\":5158:5162   */\n      dup3\n        /* \"#utility.yul\":5150:5156   */\n      dup3\n        /* \"#utility.yul\":5130:5163   */\n      tag_484\n      jump\t// in\n    tag_643:\n        /* \"#utility.yul\":5040:5169   */\n      swap2\n      swap1\n      pop\n      jump\t// out\n        /* \"#utility.yul\":5175:5482   */\n    tag_486:\n        /* \"#utility.yul\":5236:5240   */\n      0x00\n        /* \"#utility.yul\":5326:5344   */\n      0xffffffffffffffff\n        /* \"#utility.yul\":5318:5324   */\n      dup3\n        /* \"#utility.yul\":5315:5345   */\n      gt\n        /* \"#utility.yul\":5312:5368   */\n      iszero\n      tag_645\n      jumpi\n        /* \"#utility.yul\":5348:5366   */\n      tag_646\n      tag_162\n      jump\t// in\n    tag_646:\n        /* \"#utility.yul\":5312:5368   */\n    tag_645:\n        /* \"#utility.yul\":5386:5415   */\n      tag_647\n        /* \"#utility.yul\":5408:5414   */\n      dup3\n        /* \"#utility.yul\":5386:5415   */\n      tag_483\n      jump\t// in\n    tag_647:\n        /* \"#utility.yul\":5378:5415   */\n      swap1\n      pop\n        /* \"#utility.yul\":5470:5474   */\n      0x20\n        /* \"#utility.yul\":5464:5468   */\n      dup2\n        /* \"#utility.yul\":5460:5475   */\n      add\n        /* \"#utility.yul\":5452:5475   */\n      swap1\n      pop\n        /* \"#utility.yul\":5175:5482   */\n      swap2\n      swap1\n      pop\n      jump\t// out\n        /* \"#utility.yul\":5488:5636   */\n    tag_487:\n        /* \"#utility.yul\":5586:5592   */\n      dup3\n        /* \"#utility.yul\":5581:5584   */\n      dup2\n        /* \"#utility.yul\":5576:5579   */\n      dup4\n        /* \"#utility.yul\":5563:5593   */\n      calldatacopy\n        /* \"#utility.yul\":5627:5628   */\n      0x00\n        /* \"#utility.yul\":5618:5624   */\n      dup4\n        /* \"#utility.yul\":5613:5616   */\n      dup4\n        /* \"#utility.yul\":5609:5625   */\n      add\n        /* \"#utility.yul\":5602:5629   */\n      mstore\n        /* \"#utility.yul\":5488:5636   */\n      pop\n      pop\n      pop\n      jump\t// out\n        /* \"#utility.yul\":5642:6065   */\n    tag_488:\n        /* \"#utility.yul\":5719:5724   */\n      0x00\n        /* \"#utility.yul\":5744:5809   */\n      tag_650\n        /* \"#utility.yul\":5760:5808   */\n      tag_651\n        /* \"#utility.yul\":5801:5807   */\n      dup5\n        /* \"#utility.yul\":5760:5808   */\n      tag_486\n      jump\t// in\n    tag_651:\n        /* \"#utility.yul\":5744:5809   */\n      tag_485\n      jump\t// in\n    tag_650:\n        /* \"#utility.yul\":5735:5809   */\n      swap1\n      pop\n        /* \"#utility.yul\":5832:5838   */\n      dup3\n        /* \"#utility.yul\":5825:5830   */\n      dup2\n        /* \"#utility.yul\":5818:5839   */\n      mstore\n        /* \"#utility.yul\":5870:5874   */\n      0x20\n        /* \"#utility.yul\":5863:5868   */\n      dup2\n        /* \"#utility.yul\":5859:5875   */\n      add\n        /* \"#utility.yul\":5908:5911   */\n      dup5\n        /* \"#utility.yul\":5899:5905   */\n      dup5\n        /* \"#utility.yul\":5894:5897   */\n      dup5\n        /* \"#utility.yul\":5890:5906   */\n      add\n        /* \"#utility.yul\":5887:5912   */\n      gt\n        /* \"#utility.yul\":5884:5996   */\n      iszero\n      tag_652\n      jumpi\n        /* \"#utility.yul\":5915:5994   */\n      tag_653\n      tag_482\n      jump\t// in\n    tag_653:\n        /* \"#utility.yul\":5884:5996   */\n    tag_652:\n        /* \"#utility.yul\":6005:6059   */\n      tag_654\n        /* \"#utility.yul\":6052:6058   */\n      dup5\n        /* \"#utility.yul\":6047:6050   */\n      dup3\n        /* \"#utility.yul\":6042:6045   */\n      dup6\n        /* \"#utility.yul\":6005:6059   */\n      tag_487\n      jump\t// in\n    tag_654:\n        /* \"#utility.yul\":5725:6065   */\n      pop\n        /* \"#utility.yul\":5642:6065   */\n      swap4\n      swap3\n      pop\n      pop\n      pop\n      jump\t// out\n        /* \"#utility.yul\":6084:6422   */\n    tag_489:\n        /* \"#utility.yul\":6139:6144   */\n      0x00\n        /* \"#utility.yul\":6188:6191   */\n      dup3\n        /* \"#utility.yul\":6181:6185   */\n      0x1f\n        /* \"#utility.yul\":6173:6179   */\n      dup4\n        /* \"#utility.yul\":6169:6186   */\n      add\n        /* \"#utility.yul\":6165:6192   */\n      slt\n        /* \"#utility.yul\":6155:6277   */\n      tag_656\n      jumpi\n        /* \"#utility.yul\":6196:6275   */\n      tag_657\n      tag_481\n      jump\t// in\n    tag_657:\n        /* \"#utility.yul\":6155:6277   */\n    tag_656:\n        /* \"#utility.yul\":6313:6319   */\n      dup2\n        /* \"#utility.yul\":6300:6320   */\n      calldataload\n        /* \"#utility.yul\":6338:6416   */\n      tag_658\n        /* \"#utility.yul\":6412:6415   */\n      dup5\n        /* \"#utility.yul\":6404:6410   */\n      dup3\n        /* \"#utility.yul\":6397:6401   */\n      0x20\n        /* \"#utility.yul\":6389:6395   */\n      dup7\n        /* \"#utility.yul\":6385:6402   */\n      add\n        /* \"#utility.yul\":6338:6416   */\n      tag_488\n      jump\t// in\n    tag_658:\n        /* \"#utility.yul\":6329:6416   */\n      swap2\n      pop\n        /* \"#utility.yul\":6145:6422   */\n      pop\n        /* \"#utility.yul\":6084:6422   */\n      swap3\n      swap2\n      pop\n      pop\n      jump\t// out\n        /* \"#utility.yul\":6428:7080   */\n    tag_63:\n        /* \"#utility.yul\":6505:6511   */\n      0x00\n        /* \"#utility.yul\":6513:6519   */\n      dup1\n        /* \"#utility.yul\":6562:6564   */\n      0x40\n        /* \"#utility.yul\":6550:6559   */\n      dup4\n        /* \"#utility.yul\":6541:6548   */\n      dup6\n        /* \"#utility.yul\":6537:6560   */\n      sub\n        /* \"#utility.yul\":6533:6565   */\n      slt\n        /* \"#utility.yul\":6530:6649   */\n      iszero\n      tag_660\n      jumpi\n        /* \"#utility.yul\":6568:6647   */\n      tag_661\n      tag_468\n      jump\t// in\n    tag_661:\n        /* \"#utility.yul\":6530:6649   */\n    tag_660:\n        /* \"#utility.yul\":6688:6689   */\n      0x00\n        /* \"#utility.yul\":6713:6766   */\n      tag_662\n        /* \"#utility.yul\":6758:6765   */\n      dup6\n        /* \"#utility.yul\":6749:6755   */\n      dup3\n        /* \"#utility.yul\":6738:6747   */\n      dup7\n        /* \"#utility.yul\":6734:6756   */\n      add\n        /* \"#utility.yul\":6713:6766   */\n      tag_476\n      jump\t// in\n    tag_662:\n        /* \"#utility.yul\":6703:6766   */\n      swap3\n      pop\n        /* \"#utility.yul\":6659:6776   */\n      pop\n        /* \"#utility.yul\":6843:6845   */\n      0x20\n        /* \"#utility.yul\":6832:6841   */\n      dup4\n        /* \"#utility.yul\":6828:6846   */\n      add\n        /* \"#utility.yul\":6815:6847   */\n      calldataload\n        /* \"#utility.yul\":6874:6892   */\n      0xffffffffffffffff\n        /* \"#utility.yul\":6866:6872   */\n      dup2\n        /* \"#utility.yul\":6863:6893   */\n      gt\n        /* \"#utility.yul\":6860:6977   */\n      iszero\n      tag_663\n      jumpi\n        /* \"#utility.yul\":6896:6975   */\n      tag_664\n      tag_469\n      jump\t// in\n    tag_664:\n        /* \"#utility.yul\":6860:6977   */\n    tag_663:\n        /* \"#utility.yul\":7001:7063   */\n      tag_665\n        /* \"#utility.yul\":7055:7062   */\n      dup6\n        /* \"#utility.yul\":7046:7052   */\n      dup3\n        /* \"#utility.yul\":7035:7044   */\n      dup7\n        /* \"#utility.yul\":7031:7053   */\n      add\n        /* \"#utility.yul\":7001:7063   */\n      tag_489\n      jump\t// in\n    tag_665:\n        /* \"#utility.yul\":6991:7063   */\n      swap2\n      pop\n        /* \"#utility.yul\":6786:7073   */\n      pop\n        /* \"#utility.yul\":6428:7080   */\n      swap3\n      pop\n      swap3\n      swap1\n      pop\n      jump\t// out\n        /* \"#utility.yul\":7086:7163   */\n    tag_490:\n        /* \"#utility.yul\":7123:7130   */\n      0x00\n        /* \"#utility.yul\":7152:7157   */\n      dup2\n        /* \"#utility.yul\":7141:7157   */\n      swap1\n      pop\n        /* \"#utility.yul\":7086:7163   */\n      swap2\n      swap1\n      pop\n      jump\t// out\n        /* \"#utility.yul\":7169:7287   */\n    tag_491:\n        /* \"#utility.yul\":7256:7280   */\n      tag_668\n        /* \"#utility.yul\":7274:7279   */\n      dup2\n        /* \"#utility.yul\":7256:7280   */\n      tag_490\n      jump\t// in\n    tag_668:\n        /* \"#utility.yul\":7251:7254   */\n      dup3\n        /* \"#utility.yul\":7244:7281   */\n      mstore\n        /* \"#utility.yul\":7169:7287   */\n      pop\n      pop\n      jump\t// out\n        /* \"#utility.yul\":7293:7515   */\n    tag_69:\n        /* \"#utility.yul\":7386:7390   */\n      0x00\n        /* \"#utility.yul\":7424:7426   */\n      0x20\n        /* \"#utility.yul\":7413:7422   */\n      dup3\n        /* \"#utility.yul\":7409:7427   */\n      add\n        /* \"#utility.yul\":7401:7427   */\n      swap1\n      pop\n        /* \"#utility.yul\":7437:7508   */\n      tag_670\n        /* \"#utility.yul\":7505:7506   */\n      0x00\n        /* \"#utility.yul\":7494:7503   */\n      dup4\n        /* \"#utility.yul\":7490:7507   */\n      add\n        /* \"#utility.yul\":7481:7487   */\n      dup5\n        /* \"#utility.yul\":7437:7508   */\n      tag_491\n      jump\t// in\n    tag_670:\n        /* \"#utility.yul\":7293:7515   */\n      swap3\n      swap2\n      pop\n      pop\n      jump\t// out\n        /* \"#utility.yul\":7521:7743   */\n    tag_87:\n        /* \"#utility.yul\":7614:7618   */\n      0x00\n        /* \"#utility.yul\":7652:7654   */\n      0x20\n        /* \"#utility.yul\":7641:7650   */\n      dup3\n        /* \"#utility.yul\":7637:7655   */\n      add\n        /* \"#utility.yul\":7629:7655   */\n      swap1\n      pop\n        /* \"#utility.yul\":7665:7736   */\n      tag_672\n        /* \"#utility.yul\":7733:7734   */\n      0x00\n        /* \"#utility.yul\":7722:7731   */\n      dup4\n        /* \"#utility.yul\":7718:7735   */\n      add\n        /* \"#utility.yul\":7709:7715   */\n      dup5\n        /* \"#utility.yul\":7665:7736   */\n      tag_480\n      jump\t// in\n    tag_672:\n        /* \"#utility.yul\":7521:7743   */\n      swap3\n      swap2\n      pop\n      pop\n      jump\t// out\n        /* \"#utility.yul\":7749:8060   */\n    tag_492:\n        /* \"#utility.yul\":7826:7830   */\n      0x00\n        /* \"#utility.yul\":7916:7934   */\n      0xffffffffffffffff\n        /* \"#utility.yul\":7908:7914   */\n      dup3\n        /* \"#utility.yul\":7905:7935   */\n      gt\n        /* \"#utility.yul\":7902:7958   */\n      iszero\n      tag_674\n      jumpi\n        /* \"#utility.yul\":7938:7956   */\n      tag_675\n      tag_162\n      jump\t// in\n    tag_675:\n        /* \"#utility.yul\":7902:7958   */\n    tag_674:\n        /* \"#utility.yul\":7988:7992   */\n      0x20\n        /* \"#utility.yul\":7980:7986   */\n      dup3\n        /* \"#utility.yul\":7976:7993   */\n      mul\n        /* \"#utility.yul\":7968:7993   */\n      swap1\n      pop\n        /* \"#utility.yul\":8048:8052   */\n      0x20\n        /* \"#utility.yul\":8042:8046   */\n      dup2\n        /* \"#utility.yul\":8038:8053   */\n      add\n        /* \"#utility.yul\":8030:8053   */\n      swap1\n      pop\n        /* \"#utility.yul\":7749:8060   */\n      swap2\n      swap1\n      pop\n      jump\t// out\n        /* \"#utility.yul\":8066:8183   */\n    tag_493:\n        /* \"#utility.yul\":8175:8176   */\n      0x00\n        /* \"#utility.yul\":8172:8173   */\n      dup1\n        /* \"#utility.yul\":8165:8177   */\n      revert\n        /* \"#utility.yul\":8206:8916   */\n    tag_494:\n        /* \"#utility.yul\":8302:8307   */\n      0x00\n        /* \"#utility.yul\":8327:8408   */\n      tag_678\n        /* \"#utility.yul\":8343:8407   */\n      tag_679\n        /* \"#utility.yul\":8400:8406   */\n      dup5\n        /* \"#utility.yul\":8343:8407   */\n      tag_492\n      jump\t// in\n    tag_679:\n        /* \"#utility.yul\":8327:8408   */\n      tag_485\n      jump\t// in\n    tag_678:\n        /* \"#utility.yul\":8318:8408   */\n      swap1\n      pop\n        /* \"#utility.yul\":8428:8433   */\n      dup1\n        /* \"#utility.yul\":8457:8463   */\n      dup4\n        /* \"#utility.yul\":8450:8455   */\n      dup3\n        /* \"#utility.yul\":8443:8464   */\n      mstore\n        /* \"#utility.yul\":8491:8495   */\n      0x20\n        /* \"#utility.yul\":8484:8489   */\n      dup3\n        /* \"#utility.yul\":8480:8496   */\n      add\n        /* \"#utility.yul\":8473:8496   */\n      swap1\n      pop\n        /* \"#utility.yul\":8544:8548   */\n      0x20\n        /* \"#utility.yul\":8536:8542   */\n      dup5\n        /* \"#utility.yul\":8532:8549   */\n      mul\n        /* \"#utility.yul\":8524:8530   */\n      dup4\n        /* \"#utility.yul\":8520:8550   */\n      add\n        /* \"#utility.yul\":8573:8576   */\n      dup6\n        /* \"#utility.yul\":8565:8571   */\n      dup2\n        /* \"#utility.yul\":8562:8577   */\n      gt\n        /* \"#utility.yul\":8559:8681   */\n      iszero\n      tag_680\n      jumpi\n        /* \"#utility.yul\":8592:8671   */\n      tag_681\n      tag_493\n      jump\t// in\n    tag_681:\n        /* \"#utility.yul\":8559:8681   */\n    tag_680:\n        /* \"#utility.yul\":8707:8713   */\n      dup4\n        /* \"#utility.yul\":8690:8910   */\n    tag_682:\n        /* \"#utility.yul\":8724:8730   */\n      dup2\n        /* \"#utility.yul\":8719:8722   */\n      dup2\n        /* \"#utility.yul\":8716:8731   */\n      lt\n        /* \"#utility.yul\":8690:8910   */\n      iszero\n      tag_684\n      jumpi\n        /* \"#utility.yul\":8799:8802   */\n      dup1\n        /* \"#utility.yul\":8828:8865   */\n      tag_685\n        /* \"#utility.yul\":8861:8864   */\n      dup9\n        /* \"#utility.yul\":8849:8859   */\n      dup3\n        /* \"#utility.yul\":8828:8865   */\n      tag_476\n      jump\t// in\n    tag_685:\n        /* \"#utility.yul\":8823:8826   */\n      dup5\n        /* \"#utility.yul\":8816:8866   */\n      mstore\n        /* \"#utility.yul\":8895:8899   */\n      0x20\n        /* \"#utility.yul\":8890:8893   */\n      dup5\n        /* \"#utility.yul\":8886:8900   */\n      add\n        /* \"#utility.yul\":8879:8900   */\n      swap4\n      pop\n        /* \"#utility.yul\":8766:8910   */\n      pop\n        /* \"#utility.yul\":8750:8754   */\n      0x20\n        /* \"#utility.yul\":8745:8748   */\n      dup2\n        /* \"#utility.yul\":8741:8755   */\n      add\n        /* \"#utility.yul\":8734:8755   */\n      swap1\n      pop\n        /* \"#utility.yul\":8690:8910   */\n      jump(tag_682)\n    tag_684:\n        /* \"#utility.yul\":8694:8715   */\n      pop\n        /* \"#utility.yul\":8308:8916   */\n      pop\n      pop\n        /* \"#utility.yul\":8206:8916   */\n      swap4\n      swap3\n      pop\n      pop\n      pop\n      jump\t// out\n        /* \"#utility.yul\":8939:9309   */\n    tag_495:\n        /* \"#utility.yul\":9010:9015   */\n      0x00\n        /* \"#utility.yul\":9059:9062   */\n      dup3\n        /* \"#utility.yul\":9052:9056   */\n      0x1f\n        /* \"#utility.yul\":9044:9050   */\n      dup4\n        /* \"#utility.yul\":9040:9057   */\n      add\n        /* \"#utility.yul\":9036:9063   */\n      slt\n        /* \"#utility.yul\":9026:9148   */\n      tag_687\n      jumpi\n        /* \"#utility.yul\":9067:9146   */\n      tag_688\n      tag_481\n      jump\t// in\n    tag_688:\n        /* \"#utility.yul\":9026:9148   */\n    tag_687:\n        /* \"#utility.yul\":9184:9190   */\n      dup2\n        /* \"#utility.yul\":9171:9191   */\n      calldataload\n        /* \"#utility.yul\":9209:9303   */\n      tag_689\n        /* \"#utility.yul\":9299:9302   */\n      dup5\n        /* \"#utility.yul\":9291:9297   */\n      dup3\n        /* \"#utility.yul\":9284:9288   */\n      0x20\n        /* \"#utility.yul\":9276:9282   */\n      dup7\n        /* \"#utility.yul\":9272:9289   */\n      add\n        /* \"#utility.yul\":9209:9303   */\n      tag_494\n      jump\t// in\n    tag_689:\n        /* \"#utility.yul\":9200:9303   */\n      swap2\n      pop\n        /* \"#utility.yul\":9016:9309   */\n      pop\n        /* \"#utility.yul\":8939:9309   */\n      swap3\n      swap2\n      pop\n      pop\n      jump\t// out\n        /* \"#utility.yul\":9315:10144   */\n    tag_91:\n        /* \"#utility.yul\":9417:9423   */\n      0x00\n        /* \"#utility.yul\":9425:9431   */\n      dup1\n        /* \"#utility.yul\":9433:9439   */\n      0x00\n        /* \"#utility.yul\":9482:9484   */\n      0x60\n        /* \"#utility.yul\":9470:9479   */\n      dup5\n        /* \"#utility.yul\":9461:9468   */\n      dup7\n        /* \"#utility.yul\":9457:9480   */\n      sub\n        /* \"#utility.yul\":9453:9485   */\n      slt\n        /* \"#utility.yul\":9450:9569   */\n      iszero\n      tag_691\n      jumpi\n        /* \"#utility.yul\":9488:9567   */\n      tag_692\n      tag_468\n      jump\t// in\n    tag_692:\n        /* \"#utility.yul\":9450:9569   */\n    tag_691:\n        /* \"#utility.yul\":9608:9609   */\n      0x00\n        /* \"#utility.yul\":9633:9686   */\n      tag_693\n        /* \"#utility.yul\":9678:9685   */\n      dup7\n        /* \"#utility.yul\":9669:9675   */\n      dup3\n        /* \"#utility.yul\":9658:9667   */\n      dup8\n        /* \"#utility.yul\":9654:9676   */\n      add\n        /* \"#utility.yul\":9633:9686   */\n      tag_472\n      jump\t// in\n    tag_693:\n        /* \"#utility.yul\":9623:9686   */\n      swap4\n      pop\n        /* \"#utility.yul\":9579:9696   */\n      pop\n        /* \"#utility.yul\":9735:9737   */\n      0x20\n        /* \"#utility.yul\":9761:9814   */\n      tag_694\n        /* \"#utility.yul\":9806:9813   */\n      dup7\n        /* \"#utility.yul\":9797:9803   */\n      dup3\n        /* \"#utility.yul\":9786:9795   */\n      dup8\n        /* \"#utility.yul\":9782:9804   */\n      add\n        /* \"#utility.yul\":9761:9814   */\n      tag_472\n      jump\t// in\n    tag_694:\n        /* \"#utility.yul\":9751:9814   */\n      swap3\n      pop\n        /* \"#utility.yul\":9706:9824   */\n      pop\n        /* \"#utility.yul\":9891:9893   */\n      0x40\n        /* \"#utility.yul\":9880:9889   */\n      dup5\n        /* \"#utility.yul\":9876:9894   */\n      add\n        /* \"#utility.yul\":9863:9895   */\n      calldataload\n        /* \"#utility.yul\":9922:9940   */\n      0xffffffffffffffff\n        /* \"#utility.yul\":9914:9920   */\n      dup2\n        /* \"#utility.yul\":9911:9941   */\n      gt\n        /* \"#utility.yul\":9908:10025   */\n      iszero\n      tag_695\n      jumpi\n        /* \"#utility.yul\":9944:10023   */\n      tag_696\n      tag_469\n      jump\t// in\n    tag_696:\n        /* \"#utility.yul\":9908:10025   */\n    tag_695:\n        /* \"#utility.yul\":10049:10127   */\n      tag_697\n        /* \"#utility.yul\":10119:10126   */\n      dup7\n        /* \"#utility.yul\":10110:10116   */\n      dup3\n        /* \"#utility.yul\":10099:10108   */\n      dup8\n        /* \"#utility.yul\":10095:10117   */\n      add\n        /* \"#utility.yul\":10049:10127   */\n      tag_495\n      jump\t// in\n    tag_697:\n        /* \"#utility.yul\":10039:10127   */\n      swap2\n      pop\n        /* \"#utility.yul\":9834:10137   */\n      pop\n        /* \"#utility.yul\":9315:10144   */\n      swap3\n      pop\n      swap3\n      pop\n      swap3\n      jump\t// out\n        /* \"#utility.yul\":10150:10274   */\n    tag_496:\n        /* \"#utility.yul\":10227:10233   */\n      0x00\n        /* \"#utility.yul\":10261:10266   */\n      dup2\n        /* \"#utility.yul\":10255:10267   */\n      mload\n        /* \"#utility.yul\":10245:10267   */\n      swap1\n      pop\n        /* \"#utility.yul\":10150:10274   */\n      swap2\n      swap1\n      pop\n      jump\t// out\n        /* \"#utility.yul\":10280:10474   */\n    tag_497:\n        /* \"#utility.yul\":10389:10400   */\n      0x00\n        /* \"#utility.yul\":10423:10429   */\n      dup3\n        /* \"#utility.yul\":10418:10421   */\n      dup3\n        /* \"#utility.yul\":10411:10430   */\n      mstore\n        /* \"#utility.yul\":10463:10467   */\n      0x20\n        /* \"#utility.yul\":10458:10461   */\n      dup3\n        /* \"#utility.yul\":10454:10468   */\n      add\n        /* \"#utility.yul\":10439:10468   */\n      swap1\n      pop\n        /* \"#utility.yul\":10280:10474   */\n      swap3\n      swap2\n      pop\n      pop\n      jump\t// out\n        /* \"#utility.yul\":10480:10622   */\n    tag_498:\n        /* \"#utility.yul\":10557:10561   */\n      0x00\n        /* \"#utility.yul\":10580:10583   */\n      dup2\n        /* \"#utility.yul\":10572:10583   */\n      swap1\n      pop\n        /* \"#utility.yul\":10610:10614   */\n      0x20\n        /* \"#utility.yul\":10605:10608   */\n      dup3\n        /* \"#utility.yul\":10601:10615   */\n      add\n        /* \"#utility.yul\":10593:10615   */\n      swap1\n      pop\n        /* \"#utility.yul\":10480:10622   */\n      swap2\n      swap1\n      pop\n      jump\t// out\n        /* \"#utility.yul\":10628:10727   */\n    tag_499:\n        /* \"#utility.yul\":10680:10686   */\n      0x00\n        /* \"#utility.yul\":10714:10719   */\n      dup2\n        /* \"#utility.yul\":10708:10720   */\n      mload\n        /* \"#utility.yul\":10698:10720   */\n      swap1\n      pop\n        /* \"#utility.yul\":10628:10727   */\n      swap2\n      swap1\n      pop\n      jump\t// out\n        /* \"#utility.yul\":10733:10892   */\n    tag_500:\n        /* \"#utility.yul\":10807:10818   */\n      0x00\n        /* \"#utility.yul\":10841:10847   */\n      dup3\n        /* \"#utility.yul\":10836:10839   */\n      dup3\n        /* \"#utility.yul\":10829:10848   */\n      mstore\n        /* \"#utility.yul\":10881:10885   */\n      0x20\n        /* \"#utility.yul\":10876:10879   */\n      dup3\n        /* \"#utility.yul\":10872:10886   */\n      add\n        /* \"#utility.yul\":10857:10886   */\n      swap1\n      pop\n        /* \"#utility.yul\":10733:10892   */\n      swap3\n      swap2\n      pop\n      pop\n      jump\t// out\n        /* \"#utility.yul\":10898:11037   */\n    tag_501:\n        /* \"#utility.yul\":10987:10993   */\n      dup3\n        /* \"#utility.yul\":10982:10985   */\n      dup2\n        /* \"#utility.yul\":10977:10980   */\n      dup4\n        /* \"#utility.yul\":10971:10994   */\n      mcopy\n        /* \"#utility.yul\":11028:11029   */\n      0x00\n        /* \"#utility.yul\":11019:11025   */\n      dup4\n        /* \"#utility.yul\":11014:11017   */\n      dup4\n        /* \"#utility.yul\":11010:11026   */\n      add\n        /* \"#utility.yul\":11003:11030   */\n      mstore\n        /* \"#utility.yul\":10898:11037   */\n      pop\n      pop\n      pop\n      jump\t// out\n        /* \"#utility.yul\":11043:11400   */\n    tag_502:\n        /* \"#utility.yul\":11121:11124   */\n      0x00\n        /* \"#utility.yul\":11149:11188   */\n      tag_705\n        /* \"#utility.yul\":11182:11187   */\n      dup3\n        /* \"#utility.yul\":11149:11188   */\n      tag_499\n      jump\t// in\n    tag_705:\n        /* \"#utility.yul\":11204:11265   */\n      tag_706\n        /* \"#utility.yul\":11258:11264   */\n      dup2\n        /* \"#utility.yul\":11253:11256   */\n      dup6\n        /* \"#utility.yul\":11204:11265   */\n      tag_500\n      jump\t// in\n    tag_706:\n        /* \"#utility.yul\":11197:11265   */\n      swap4\n      pop\n        /* \"#utility.yul\":11274:11339   */\n      tag_707\n        /* \"#utility.yul\":11332:11338   */\n      dup2\n        /* \"#utility.yul\":11327:11330   */\n      dup6\n        /* \"#utility.yul\":11320:11324   */\n      0x20\n        /* \"#utility.yul\":11313:11318   */\n      dup7\n        /* \"#utility.yul\":11309:11325   */\n      add\n        /* \"#utility.yul\":11274:11339   */\n      tag_501\n      jump\t// in\n    tag_707:\n        /* \"#utility.yul\":11364:11393   */\n      tag_708\n        /* \"#utility.yul\":11386:11392   */\n      dup2\n        /* \"#utility.yul\":11364:11393   */\n      tag_483\n      jump\t// in\n    tag_708:\n        /* \"#utility.yul\":11359:11362   */\n      dup5\n        /* \"#utility.yul\":11355:11394   */\n      add\n        /* \"#utility.yul\":11348:11394   */\n      swap2\n      pop\n        /* \"#utility.yul\":11125:11400   */\n      pop\n        /* \"#utility.yul\":11043:11400   */\n      swap3\n      swap2\n      pop\n      pop\n      jump\t// out\n        /* \"#utility.yul\":11406:11602   */\n    tag_503:\n        /* \"#utility.yul\":11495:11505   */\n      0x00\n        /* \"#utility.yul\":11530:11596   */\n      tag_710\n        /* \"#utility.yul\":11592:11595   */\n      dup4\n        /* \"#utility.yul\":11584:11590   */\n      dup4\n        /* \"#utility.yul\":11530:11596   */\n      tag_502\n      jump\t// in\n    tag_710:\n        /* \"#utility.yul\":11516:11596   */\n      swap1\n      pop\n        /* \"#utility.yul\":11406:11602   */\n      swap3\n      swap2\n      pop\n      pop\n      jump\t// out\n        /* \"#utility.yul\":11608:11731   */\n    tag_504:\n        /* \"#utility.yul\":11688:11692   */\n      0x00\n        /* \"#utility.yul\":11720:11724   */\n      0x20\n        /* \"#utility.yul\":11715:11718   */\n      dup3\n        /* \"#utility.yul\":11711:11725   */\n      add\n        /* \"#utility.yul\":11703:11725   */\n      swap1\n      pop\n        /* \"#utility.yul\":11608:11731   */\n      swap2\n      swap1\n      pop\n      jump\t// out\n        /* \"#utility.yul\":11765:12756   */\n    tag_505:\n        /* \"#utility.yul\":11904:11907   */\n      0x00\n        /* \"#utility.yul\":11933:11997   */\n      tag_713\n        /* \"#utility.yul\":11991:11996   */\n      dup3\n        /* \"#utility.yul\":11933:11997   */\n      tag_496\n      jump\t// in\n    tag_713:\n        /* \"#utility.yul\":12013:12109   */\n      tag_714\n        /* \"#utility.yul\":12102:12108   */\n      dup2\n        /* \"#utility.yul\":12097:12100   */\n      dup6\n        /* \"#utility.yul\":12013:12109   */\n      tag_497\n      jump\t// in\n    tag_714:\n        /* \"#utility.yul\":12006:12109   */\n      swap4\n      pop\n        /* \"#utility.yul\":12135:12138   */\n      dup4\n        /* \"#utility.yul\":12180:12184   */\n      0x20\n        /* \"#utility.yul\":12172:12178   */\n      dup3\n        /* \"#utility.yul\":12168:12185   */\n      mul\n        /* \"#utility.yul\":12163:12166   */\n      dup6\n        /* \"#utility.yul\":12159:12186   */\n      add\n        /* \"#utility.yul\":12210:12276   */\n      tag_715\n        /* \"#utility.yul\":12270:12275   */\n      dup6\n        /* \"#utility.yul\":12210:12276   */\n      tag_498\n      jump\t// in\n    tag_715:\n        /* \"#utility.yul\":12299:12306   */\n      dup1\n        /* \"#utility.yul\":12330:12331   */\n      0x00\n        /* \"#utility.yul\":12315:12711   */\n    tag_716:\n        /* \"#utility.yul\":12340:12346   */\n      dup6\n        /* \"#utility.yul\":12337:12338   */\n      dup2\n        /* \"#utility.yul\":12334:12347   */\n      lt\n        /* \"#utility.yul\":12315:12711   */\n      iszero\n      tag_718\n      jumpi\n        /* \"#utility.yul\":12411:12420   */\n      dup5\n        /* \"#utility.yul\":12405:12409   */\n      dup5\n        /* \"#utility.yul\":12401:12421   */\n      sub\n        /* \"#utility.yul\":12396:12399   */\n      dup10\n        /* \"#utility.yul\":12389:12422   */\n      mstore\n        /* \"#utility.yul\":12462:12468   */\n      dup2\n        /* \"#utility.yul\":12456:12469   */\n      mload\n        /* \"#utility.yul\":12490:12574   */\n      tag_719\n        /* \"#utility.yul\":12569:12573   */\n      dup6\n        /* \"#utility.yul\":12554:12567   */\n      dup3\n        /* \"#utility.yul\":12490:12574   */\n      tag_503\n      jump\t// in\n    tag_719:\n        /* \"#utility.yul\":12482:12574   */\n      swap5\n      pop\n        /* \"#utility.yul\":12597:12667   */\n      tag_720\n        /* \"#utility.yul\":12660:12666   */\n      dup4\n        /* \"#utility.yul\":12597:12667   */\n      tag_504\n      jump\t// in\n    tag_720:\n        /* \"#utility.yul\":12587:12667   */\n      swap3\n      pop\n        /* \"#utility.yul\":12696:12700   */\n      0x20\n        /* \"#utility.yul\":12691:12694   */\n      dup11\n        /* \"#utility.yul\":12687:12701   */\n      add\n        /* \"#utility.yul\":12680:12701   */\n      swap10\n      pop\n        /* \"#utility.yul\":12375:12711   */\n      pop\n        /* \"#utility.yul\":12362:12363   */\n      0x01\n        /* \"#utility.yul\":12359:12360   */\n      dup2\n        /* \"#utility.yul\":12355:12364   */\n      add\n        /* \"#utility.yul\":12350:12364   */\n      swap1\n      pop\n        /* \"#utility.yul\":12315:12711   */\n      jump(tag_716)\n    tag_718:\n        /* \"#utility.yul\":12319:12333   */\n      pop\n        /* \"#utility.yul\":12727:12731   */\n      dup3\n        /* \"#utility.yul\":12720:12731   */\n      swap8\n      pop\n        /* \"#utility.yul\":12747:12750   */\n      dup8\n        /* \"#utility.yul\":12740:12750   */\n      swap6\n      pop\n        /* \"#utility.yul\":11909:12756   */\n      pop\n      pop\n      pop\n      pop\n      pop\n        /* \"#utility.yul\":11765:12756   */\n      swap3\n      swap2\n      pop\n      pop\n      jump\t// out\n        /* \"#utility.yul\":12762:12876   */\n    tag_506:\n        /* \"#utility.yul\":12829:12835   */\n      0x00\n        /* \"#utility.yul\":12863:12868   */\n      dup2\n        /* \"#utility.yul\":12857:12869   */\n      mload\n        /* \"#utility.yul\":12847:12869   */\n      swap1\n      pop\n        /* \"#utility.yul\":12762:12876   */\n      swap2\n      swap1\n      pop\n      jump\t// out\n        /* \"#utility.yul\":12882:13066   */\n    tag_507:\n        /* \"#utility.yul\":12981:12992   */\n      0x00\n        /* \"#utility.yul\":13015:13021   */\n      dup3\n        /* \"#utility.yul\":13010:13013   */\n      dup3\n        /* \"#utility.yul\":13003:13022   */\n      mstore\n        /* \"#utility.yul\":13055:13059   */\n      0x20\n        /* \"#utility.yul\":13050:13053   */\n      dup3\n        /* \"#utility.yul\":13046:13060   */\n      add\n        /* \"#utility.yul\":13031:13060   */\n      swap1\n      pop\n        /* \"#utility.yul\":12882:13066   */\n      swap3\n      swap2\n      pop\n      pop\n      jump\t// out\n        /* \"#utility.yul\":13072:13204   */\n    tag_508:\n        /* \"#utility.yul\":13139:13143   */\n      0x00\n        /* \"#utility.yul\":13162:13165   */\n      dup2\n        /* \"#utility.yul\":13154:13165   */\n      swap1\n      pop\n        /* \"#utility.yul\":13192:13196   */\n      0x20\n        /* \"#utility.yul\":13187:13190   */\n      dup3\n        /* \"#utility.yul\":13183:13197   */\n      add\n        /* \"#utility.yul\":13175:13197   */\n      swap1\n      pop\n        /* \"#utility.yul\":13072:13204   */\n      swap2\n      swap1\n      pop\n      jump\t// out\n        /* \"#utility.yul\":13210:13318   */\n    tag_509:\n        /* \"#utility.yul\":13287:13311   */\n      tag_725\n        /* \"#utility.yul\":13305:13310   */\n      dup2\n        /* \"#utility.yul\":13287:13311   */\n      tag_470\n      jump\t// in\n    tag_725:\n        /* \"#utility.yul\":13282:13285   */\n      dup3\n        /* \"#utility.yul\":13275:13312   */\n      mstore\n        /* \"#utility.yul\":13210:13318   */\n      pop\n      pop\n      jump\t// out\n        /* \"#utility.yul\":13324:13503   */\n    tag_510:\n        /* \"#utility.yul\":13393:13403   */\n      0x00\n        /* \"#utility.yul\":13414:13460   */\n      tag_727\n        /* \"#utility.yul\":13456:13459   */\n      dup4\n        /* \"#utility.yul\":13448:13454   */\n      dup4\n        /* \"#utility.yul\":13414:13460   */\n      tag_509\n      jump\t// in\n    tag_727:\n        /* \"#utility.yul\":13492:13496   */\n      0x20\n        /* \"#utility.yul\":13487:13490   */\n      dup4\n        /* \"#utility.yul\":13483:13497   */\n      add\n        /* \"#utility.yul\":13469:13497   */\n      swap1\n      pop\n        /* \"#utility.yul\":13324:13503   */\n      swap3\n      swap2\n      pop\n      pop\n      jump\t// out\n        /* \"#utility.yul\":13509:13622   */\n    tag_511:\n        /* \"#utility.yul\":13579:13583   */\n      0x00\n        /* \"#utility.yul\":13611:13615   */\n      0x20\n        /* \"#utility.yul\":13606:13609   */\n      dup3\n        /* \"#utility.yul\":13602:13616   */\n      add\n        /* \"#utility.yul\":13594:13616   */\n      swap1\n      pop\n        /* \"#utility.yul\":13509:13622   */\n      swap2\n      swap1\n      pop\n      jump\t// out\n        /* \"#utility.yul\":13658:14390   */\n    tag_512:\n        /* \"#utility.yul\":13777:13780   */\n      0x00\n        /* \"#utility.yul\":13806:13860   */\n      tag_730\n        /* \"#utility.yul\":13854:13859   */\n      dup3\n        /* \"#utility.yul\":13806:13860   */\n      tag_506\n      jump\t// in\n    tag_730:\n        /* \"#utility.yul\":13876:13962   */\n      tag_731\n        /* \"#utility.yul\":13955:13961   */\n      dup2\n        /* \"#utility.yul\":13950:13953   */\n      dup6\n        /* \"#utility.yul\":13876:13962   */\n      tag_507\n      jump\t// in\n    tag_731:\n        /* \"#utility.yul\":13869:13962   */\n      swap4\n      pop\n        /* \"#utility.yul\":13986:14042   */\n      tag_732\n        /* \"#utility.yul\":14036:14041   */\n      dup4\n        /* \"#utility.yul\":13986:14042   */\n      tag_508\n      jump\t// in\n    tag_732:\n        /* \"#utility.yul\":14065:14072   */\n      dup1\n        /* \"#utility.yul\":14096:14097   */\n      0x00\n        /* \"#utility.yul\":14081:14365   */\n    tag_733:\n        /* \"#utility.yul\":14106:14112   */\n      dup4\n        /* \"#utility.yul\":14103:14104   */\n      dup2\n        /* \"#utility.yul\":14100:14113   */\n      lt\n        /* \"#utility.yul\":14081:14365   */\n      iszero\n      tag_735\n      jumpi\n        /* \"#utility.yul\":14182:14188   */\n      dup2\n        /* \"#utility.yul\":14176:14189   */\n      mload\n        /* \"#utility.yul\":14209:14272   */\n      tag_736\n        /* \"#utility.yul\":14268:14271   */\n      dup9\n        /* \"#utility.yul\":14253:14266   */\n      dup3\n        /* \"#utility.yul\":14209:14272   */\n      tag_510\n      jump\t// in\n    tag_736:\n        /* \"#utility.yul\":14202:14272   */\n      swap8\n      pop\n        /* \"#utility.yul\":14295:14355   */\n      tag_737\n        /* \"#utility.yul\":14348:14354   */\n      dup4\n        /* \"#utility.yul\":14295:14355   */\n      tag_511\n      jump\t// in\n    tag_737:\n        /* \"#utility.yul\":14285:14355   */\n      swap3\n      pop\n        /* \"#utility.yul\":14141:14365   */\n      pop\n        /* \"#utility.yul\":14128:14129   */\n      0x01\n        /* \"#utility.yul\":14125:14126   */\n      dup2\n        /* \"#utility.yul\":14121:14130   */\n      add\n        /* \"#utility.yul\":14116:14130   */\n      swap1\n      pop\n        /* \"#utility.yul\":14081:14365   */\n      jump(tag_733)\n    tag_735:\n        /* \"#utility.yul\":14085:14099   */\n      pop\n        /* \"#utility.yul\":14381:14384   */\n      dup6\n        /* \"#utility.yul\":14374:14384   */\n      swap4\n      pop\n        /* \"#utility.yul\":13782:14390   */\n      pop\n      pop\n      pop\n        /* \"#utility.yul\":13658:14390   */\n      swap3\n      swap2\n      pop\n      pop\n      jump\t// out\n        /* \"#utility.yul\":14396:15664   */\n    tag_117:\n        /* \"#utility.yul\":14799:14803   */\n      0x00\n        /* \"#utility.yul\":14837:14840   */\n      0xc0\n        /* \"#utility.yul\":14826:14835   */\n      dup3\n        /* \"#utility.yul\":14822:14841   */\n      add\n        /* \"#utility.yul\":14814:14841   */\n      swap1\n      pop\n        /* \"#utility.yul\":14851:14922   */\n      tag_739\n        /* \"#utility.yul\":14919:14920   */\n      0x00\n        /* \"#utility.yul\":14908:14917   */\n      dup4\n        /* \"#utility.yul\":14904:14921   */\n      add\n        /* \"#utility.yul\":14895:14901   */\n      dup10\n        /* \"#utility.yul\":14851:14922   */\n      tag_480\n      jump\t// in\n    tag_739:\n        /* \"#utility.yul\":14969:14978   */\n      dup2\n        /* \"#utility.yul\":14963:14967   */\n      dup2\n        /* \"#utility.yul\":14959:14979   */\n      sub\n        /* \"#utility.yul\":14954:14956   */\n      0x20\n        /* \"#utility.yul\":14943:14952   */\n      dup4\n        /* \"#utility.yul\":14939:14957   */\n      add\n        /* \"#utility.yul\":14932:14980   */\n      mstore\n        /* \"#utility.yul\":14997:15125   */\n      tag_740\n        /* \"#utility.yul\":15120:15124   */\n      dup2\n        /* \"#utility.yul\":15111:15117   */\n      dup9\n        /* \"#utility.yul\":14997:15125   */\n      tag_505\n      jump\t// in\n    tag_740:\n        /* \"#utility.yul\":14989:15125   */\n      swap1\n      pop\n        /* \"#utility.yul\":15172:15181   */\n      dup2\n        /* \"#utility.yul\":15166:15170   */\n      dup2\n        /* \"#utility.yul\":15162:15182   */\n      sub\n        /* \"#utility.yul\":15157:15159   */\n      0x40\n        /* \"#utility.yul\":15146:15155   */\n      dup4\n        /* \"#utility.yul\":15142:15160   */\n      add\n        /* \"#utility.yul\":15135:15183   */\n      mstore\n        /* \"#utility.yul\":15200:15308   */\n      tag_741\n        /* \"#utility.yul\":15303:15307   */\n      dup2\n        /* \"#utility.yul\":15294:15300   */\n      dup8\n        /* \"#utility.yul\":15200:15308   */\n      tag_512\n      jump\t// in\n    tag_741:\n        /* \"#utility.yul\":15192:15308   */\n      swap1\n      pop\n        /* \"#utility.yul\":15355:15364   */\n      dup2\n        /* \"#utility.yul\":15349:15353   */\n      dup2\n        /* \"#utility.yul\":15345:15365   */\n      sub\n        /* \"#utility.yul\":15340:15342   */\n      0x60\n        /* \"#utility.yul\":15329:15338   */\n      dup4\n        /* \"#utility.yul\":15325:15343   */\n      add\n        /* \"#utility.yul\":15318:15366   */\n      mstore\n        /* \"#utility.yul\":15383:15491   */\n      tag_742\n        /* \"#utility.yul\":15486:15490   */\n      dup2\n        /* \"#utility.yul\":15477:15483   */\n      dup7\n        /* \"#utility.yul\":15383:15491   */\n      tag_512\n      jump\t// in\n    tag_742:\n        /* \"#utility.yul\":15375:15491   */\n      swap1\n      pop\n        /* \"#utility.yul\":15501:15574   */\n      tag_743\n        /* \"#utility.yul\":15569:15572   */\n      0x80\n        /* \"#utility.yul\":15558:15567   */\n      dup4\n        /* \"#utility.yul\":15554:15573   */\n      add\n        /* \"#utility.yul\":15545:15551   */\n      dup6\n        /* \"#utility.yul\":15501:15574   */\n      tag_479\n      jump\t// in\n    tag_743:\n        /* \"#utility.yul\":15584:15657   */\n      tag_744\n        /* \"#utility.yul\":15652:15655   */\n      0xa0\n        /* \"#utility.yul\":15641:15650   */\n      dup4\n        /* \"#utility.yul\":15637:15656   */\n      add\n        /* \"#utility.yul\":15628:15634   */\n      dup5\n        /* \"#utility.yul\":15584:15657   */\n      tag_479\n      jump\t// in\n    tag_744:\n        /* \"#utility.yul\":14396:15664   */\n      swap8\n      swap7\n      pop\n      pop\n      pop\n      pop\n      pop\n      pop\n      pop\n      jump\t// out\n        /* \"#utility.yul\":15670:15991   */\n    tag_513:\n        /* \"#utility.yul\":15757:15761   */\n      0x00\n        /* \"#utility.yul\":15847:15865   */\n      0xffffffffffffffff\n        /* \"#utility.yul\":15839:15845   */\n      dup3\n        /* \"#utility.yul\":15836:15866   */\n      gt\n        /* \"#utility.yul\":15833:15889   */\n      iszero\n      tag_746\n      jumpi\n        /* \"#utility.yul\":15869:15887   */\n      tag_747\n      tag_162\n      jump\t// in\n    tag_747:\n        /* \"#utility.yul\":15833:15889   */\n    tag_746:\n        /* \"#utility.yul\":15919:15923   */\n      0x20\n        /* \"#utility.yul\":15911:15917   */\n      dup3\n        /* \"#utility.yul\":15907:15924   */\n      mul\n        /* \"#utility.yul\":15899:15924   */\n      swap1\n      pop\n        /* \"#utility.yul\":15979:15983   */\n      0x20\n        /* \"#utility.yul\":15973:15977   */\n      dup2\n        /* \"#utility.yul\":15969:15984   */\n      add\n        /* \"#utility.yul\":15961:15984   */\n      swap1\n      pop\n        /* \"#utility.yul\":15670:15991   */\n      swap2\n      swap1\n      pop\n      jump\t// out\n        /* \"#utility.yul\":15997:16305   */\n    tag_514:\n        /* \"#utility.yul\":16059:16063   */\n      0x00\n        /* \"#utility.yul\":16149:16167   */\n      0xffffffffffffffff\n        /* \"#utility.yul\":16141:16147   */\n      dup3\n        /* \"#utility.yul\":16138:16168   */\n      gt\n        /* \"#utility.yul\":16135:16191   */\n      iszero\n      tag_749\n      jumpi\n        /* \"#utility.yul\":16171:16189   */\n      tag_750\n      tag_162\n      jump\t// in\n    tag_750:\n        /* \"#utility.yul\":16135:16191   */\n    tag_749:\n        /* \"#utility.yul\":16209:16238   */\n      tag_751\n        /* \"#utility.yul\":16231:16237   */\n      dup3\n        /* \"#utility.yul\":16209:16238   */\n      tag_483\n      jump\t// in\n    tag_751:\n        /* \"#utility.yul\":16201:16238   */\n      swap1\n      pop\n        /* \"#utility.yul\":16293:16297   */\n      0x20\n        /* \"#utility.yul\":16287:16291   */\n      dup2\n        /* \"#utility.yul\":16283:16298   */\n      add\n        /* \"#utility.yul\":16275:16298   */\n      swap1\n      pop\n        /* \"#utility.yul\":15997:16305   */\n      swap2\n      swap1\n      pop\n      jump\t// out\n        /* \"#utility.yul\":16311:16736   */\n    tag_515:\n        /* \"#utility.yul\":16389:16394   */\n      0x00\n        /* \"#utility.yul\":16414:16480   */\n      tag_753\n        /* \"#utility.yul\":16430:16479   */\n      tag_754\n        /* \"#utility.yul\":16472:16478   */\n      dup5\n        /* \"#utility.yul\":16430:16479   */\n      tag_514\n      jump\t// in\n    tag_754:\n        /* \"#utility.yul\":16414:16480   */\n      tag_485\n      jump\t// in\n    tag_753:\n        /* \"#utility.yul\":16405:16480   */\n      swap1\n      pop\n        /* \"#utility.yul\":16503:16509   */\n      dup3\n        /* \"#utility.yul\":16496:16501   */\n      dup2\n        /* \"#utility.yul\":16489:16510   */\n      mstore\n        /* \"#utility.yul\":16541:16545   */\n      0x20\n        /* \"#utility.yul\":16534:16539   */\n      dup2\n        /* \"#utility.yul\":16530:16546   */\n      add\n        /* \"#utility.yul\":16579:16582   */\n      dup5\n        /* \"#utility.yul\":16570:16576   */\n      dup5\n        /* \"#utility.yul\":16565:16568   */\n      dup5\n        /* \"#utility.yul\":16561:16577   */\n      add\n        /* \"#utility.yul\":16558:16583   */\n      gt\n        /* \"#utility.yul\":16555:16667   */\n      iszero\n      tag_755\n      jumpi\n        /* \"#utility.yul\":16586:16665   */\n      tag_756\n      tag_482\n      jump\t// in\n    tag_756:\n        /* \"#utility.yul\":16555:16667   */\n    tag_755:\n        /* \"#utility.yul\":16676:16730   */\n      tag_757\n        /* \"#utility.yul\":16723:16729   */\n      dup5\n        /* \"#utility.yul\":16718:16721   */\n      dup3\n        /* \"#utility.yul\":16713:16716   */\n      dup6\n        /* \"#utility.yul\":16676:16730   */\n      tag_487\n      jump\t// in\n    tag_757:\n        /* \"#utility.yul\":16395:16736   */\n      pop\n        /* \"#utility.yul\":16311:16736   */\n      swap4\n      swap3\n      pop\n      pop\n      pop\n      jump\t// out\n        /* \"#utility.yul\":16756:17096   */\n    tag_516:\n        /* \"#utility.yul\":16812:16817   */\n      0x00\n        /* \"#utility.yul\":16861:16864   */\n      dup3\n        /* \"#utility.yul\":16854:16858   */\n      0x1f\n        /* \"#utility.yul\":16846:16852   */\n      dup4\n        /* \"#utility.yul\":16842:16859   */\n      add\n        /* \"#utility.yul\":16838:16865   */\n      slt\n        /* \"#utility.yul\":16828:16950   */\n      tag_759\n      jumpi\n        /* \"#utility.yul\":16869:16948   */\n      tag_760\n      tag_481\n      jump\t// in\n    tag_760:\n        /* \"#utility.yul\":16828:16950   */\n    tag_759:\n        /* \"#utility.yul\":16986:16992   */\n      dup2\n        /* \"#utility.yul\":16973:16993   */\n      calldataload\n        /* \"#utility.yul\":17011:17090   */\n      tag_761\n        /* \"#utility.yul\":17086:17089   */\n      dup5\n        /* \"#utility.yul\":17078:17084   */\n      dup3\n        /* \"#utility.yul\":17071:17075   */\n      0x20\n        /* \"#utility.yul\":17063:17069   */\n      dup7\n        /* \"#utility.yul\":17059:17076   */\n      add\n        /* \"#utility.yul\":17011:17090   */\n      tag_515\n      jump\t// in\n    tag_761:\n        /* \"#utility.yul\":17002:17090   */\n      swap2\n      pop\n        /* \"#utility.yul\":16818:17096   */\n      pop\n        /* \"#utility.yul\":16756:17096   */\n      swap3\n      swap2\n      pop\n      pop\n      jump\t// out\n        /* \"#utility.yul\":17118:18063   */\n    tag_517:\n        /* \"#utility.yul\":17224:17229   */\n      0x00\n        /* \"#utility.yul\":17249:17340   */\n      tag_763\n        /* \"#utility.yul\":17265:17339   */\n      tag_764\n        /* \"#utility.yul\":17332:17338   */\n      dup5\n        /* \"#utility.yul\":17265:17339   */\n      tag_513\n      jump\t// in\n    tag_764:\n        /* \"#utility.yul\":17249:17340   */\n      tag_485\n      jump\t// in\n    tag_763:\n        /* \"#utility.yul\":17240:17340   */\n      swap1\n      pop\n        /* \"#utility.yul\":17360:17365   */\n      dup1\n        /* \"#utility.yul\":17389:17395   */\n      dup4\n        /* \"#utility.yul\":17382:17387   */\n      dup3\n        /* \"#utility.yul\":17375:17396   */\n      mstore\n        /* \"#utility.yul\":17423:17427   */\n      0x20\n        /* \"#utility.yul\":17416:17421   */\n      dup3\n        /* \"#utility.yul\":17412:17428   */\n      add\n        /* \"#utility.yul\":17405:17428   */\n      swap1\n      pop\n        /* \"#utility.yul\":17476:17480   */\n      0x20\n        /* \"#utility.yul\":17468:17474   */\n      dup5\n        /* \"#utility.yul\":17464:17481   */\n      mul\n        /* \"#utility.yul\":17456:17462   */\n      dup4\n        /* \"#utility.yul\":17452:17482   */\n      add\n        /* \"#utility.yul\":17505:17508   */\n      dup6\n        /* \"#utility.yul\":17497:17503   */\n      dup2\n        /* \"#utility.yul\":17494:17509   */\n      gt\n        /* \"#utility.yul\":17491:17613   */\n      iszero\n      tag_765\n      jumpi\n        /* \"#utility.yul\":17524:17603   */\n      tag_766\n      tag_493\n      jump\t// in\n    tag_766:\n        /* \"#utility.yul\":17491:17613   */\n    tag_765:\n        /* \"#utility.yul\":17639:17645   */\n      dup4\n        /* \"#utility.yul\":17622:18057   */\n    tag_767:\n        /* \"#utility.yul\":17656:17662   */\n      dup2\n        /* \"#utility.yul\":17651:17654   */\n      dup2\n        /* \"#utility.yul\":17648:17663   */\n      lt\n        /* \"#utility.yul\":17622:18057   */\n      iszero\n      tag_769\n      jumpi\n        /* \"#utility.yul\":17745:17748   */\n      dup1\n        /* \"#utility.yul\":17732:17749   */\n      calldataload\n        /* \"#utility.yul\":17781:17799   */\n      0xffffffffffffffff\n        /* \"#utility.yul\":17768:17779   */\n      dup2\n        /* \"#utility.yul\":17765:17800   */\n      gt\n        /* \"#utility.yul\":17762:17884   */\n      iszero\n      tag_770\n      jumpi\n        /* \"#utility.yul\":17803:17882   */\n      tag_771\n      tag_481\n      jump\t// in\n    tag_771:\n        /* \"#utility.yul\":17762:17884   */\n    tag_770:\n        /* \"#utility.yul\":17927:17938   */\n      dup1\n        /* \"#utility.yul\":17919:17925   */\n      dup7\n        /* \"#utility.yul\":17915:17939   */\n      add\n        /* \"#utility.yul\":17965:18012   */\n      tag_772\n        /* \"#utility.yul\":18008:18011   */\n      dup10\n        /* \"#utility.yul\":17996:18006   */\n      dup3\n        /* \"#utility.yul\":17965:18012   */\n      tag_516\n      jump\t// in\n    tag_772:\n        /* \"#utility.yul\":17960:17963   */\n      dup6\n        /* \"#utility.yul\":17953:18013   */\n      mstore\n        /* \"#utility.yul\":18042:18046   */\n      0x20\n        /* \"#utility.yul\":18037:18040   */\n      dup6\n        /* \"#utility.yul\":18033:18047   */\n      add\n        /* \"#utility.yul\":18026:18047   */\n      swap5\n      pop\n        /* \"#utility.yul\":17698:18057   */\n      pop\n      pop\n        /* \"#utility.yul\":17682:17686   */\n      0x20\n        /* \"#utility.yul\":17677:17680   */\n      dup2\n        /* \"#utility.yul\":17673:17687   */\n      add\n        /* \"#utility.yul\":17666:17687   */\n      swap1\n      pop\n        /* \"#utility.yul\":17622:18057   */\n      jump(tag_767)\n    tag_769:\n        /* \"#utility.yul\":17626:17647   */\n      pop\n        /* \"#utility.yul\":17230:18063   */\n      pop\n      pop\n        /* \"#utility.yul\":17118:18063   */\n      swap4\n      swap3\n      pop\n      pop\n      pop\n      jump\t// out\n        /* \"#utility.yul\":18085:18475   */\n    tag_518:\n        /* \"#utility.yul\":18166:18171   */\n      0x00\n        /* \"#utility.yul\":18215:18218   */\n      dup3\n        /* \"#utility.yul\":18208:18212   */\n      0x1f\n        /* \"#utility.yul\":18200:18206   */\n      dup4\n        /* \"#utility.yul\":18196:18213   */\n      add\n        /* \"#utility.yul\":18192:18219   */\n      slt\n        /* \"#utility.yul\":18182:18304   */\n      tag_774\n      jumpi\n        /* \"#utility.yul\":18223:18302   */\n      tag_775\n      tag_481\n      jump\t// in\n    tag_775:\n        /* \"#utility.yul\":18182:18304   */\n    tag_774:\n        /* \"#utility.yul\":18340:18346   */\n      dup2\n        /* \"#utility.yul\":18327:18347   */\n      calldataload\n        /* \"#utility.yul\":18365:18469   */\n      tag_776\n        /* \"#utility.yul\":18465:18468   */\n      dup5\n        /* \"#utility.yul\":18457:18463   */\n      dup3\n        /* \"#utility.yul\":18450:18454   */\n      0x20\n        /* \"#utility.yul\":18442:18448   */\n      dup7\n        /* \"#utility.yul\":18438:18455   */\n      add\n        /* \"#utility.yul\":18365:18469   */\n      tag_517\n      jump\t// in\n    tag_776:\n        /* \"#utility.yul\":18356:18469   */\n      swap2\n      pop\n        /* \"#utility.yul\":18172:18475   */\n      pop\n        /* \"#utility.yul\":18085:18475   */\n      swap3\n      swap2\n      pop\n      pop\n      jump\t// out\n        /* \"#utility.yul\":18481:19040   */\n    tag_121:\n        /* \"#utility.yul\":18575:18581   */\n      0x00\n        /* \"#utility.yul\":18624:18626   */\n      0x20\n        /* \"#utility.yul\":18612:18621   */\n      dup3\n        /* \"#utility.yul\":18603:18610   */\n      dup5\n        /* \"#utility.yul\":18599:18622   */\n      sub\n        /* \"#utility.yul\":18595:18627   */\n      slt\n        /* \"#utility.yul\":18592:18711   */\n      iszero\n      tag_778\n      jumpi\n        /* \"#utility.yul\":18630:18709   */\n      tag_779\n      tag_468\n      jump\t// in\n    tag_779:\n        /* \"#utility.yul\":18592:18711   */\n    tag_778:\n        /* \"#utility.yul\":18778:18779   */\n      0x00\n        /* \"#utility.yul\":18767:18776   */\n      dup3\n        /* \"#utility.yul\":18763:18780   */\n      add\n        /* \"#utility.yul\":18750:18781   */\n      calldataload\n        /* \"#utility.yul\":18808:18826   */\n      0xffffffffffffffff\n        /* \"#utility.yul\":18800:18806   */\n      dup2\n        /* \"#utility.yul\":18797:18827   */\n      gt\n        /* \"#utility.yul\":18794:18911   */\n      iszero\n      tag_780\n      jumpi\n        /* \"#utility.yul\":18830:18909   */\n      tag_781\n      tag_469\n      jump\t// in\n    tag_781:\n        /* \"#utility.yul\":18794:18911   */\n    tag_780:\n        /* \"#utility.yul\":18935:19023   */\n      tag_782\n        /* \"#utility.yul\":19015:19022   */\n      dup5\n        /* \"#utility.yul\":19006:19012   */\n      dup3\n        /* \"#utility.yul\":18995:19004   */\n      dup6\n        /* \"#utility.yul\":18991:19013   */\n      add\n        /* \"#utility.yul\":18935:19023   */\n      tag_518\n      jump\t// in\n    tag_782:\n        /* \"#utility.yul\":18925:19023   */\n      swap2\n      pop\n        /* \"#utility.yul\":18721:19033   */\n      pop\n        /* \"#utility.yul\":18481:19040   */\n      swap3\n      swap2\n      pop\n      pop\n      jump\t// out\n        /* \"#utility.yul\":19046:19136   */\n    tag_519:\n        /* \"#utility.yul\":19080:19087   */\n      0x00\n        /* \"#utility.yul\":19123:19128   */\n      dup2\n        /* \"#utility.yul\":19116:19129   */\n      iszero\n        /* \"#utility.yul\":19109:19130   */\n      iszero\n        /* \"#utility.yul\":19098:19130   */\n      swap1\n      pop\n        /* \"#utility.yul\":19046:19136   */\n      swap2\n      swap1\n      pop\n      jump\t// out\n        /* \"#utility.yul\":19142:19258   */\n    tag_520:\n        /* \"#utility.yul\":19212:19233   */\n      tag_785\n        /* \"#utility.yul\":19227:19232   */\n      dup2\n        /* \"#utility.yul\":19212:19233   */\n      tag_519\n      jump\t// in\n    tag_785:\n        /* \"#utility.yul\":19205:19210   */\n      dup2\n        /* \"#utility.yul\":19202:19234   */\n      eq\n        /* \"#utility.yul\":19192:19252   */\n      tag_786\n      jumpi\n        /* \"#utility.yul\":19248:19249   */\n      0x00\n        /* \"#utility.yul\":19245:19246   */\n      dup1\n        /* \"#utility.yul\":19238:19250   */\n      revert\n        /* \"#utility.yul\":19192:19252   */\n    tag_786:\n        /* \"#utility.yul\":19142:19258   */\n      pop\n      jump\t// out\n        /* \"#utility.yul\":19264:19401   */\n    tag_521:\n        /* \"#utility.yul\":19318:19323   */\n      0x00\n        /* \"#utility.yul\":19349:19355   */\n      dup2\n        /* \"#utility.yul\":19343:19356   */\n      mload\n        /* \"#utility.yul\":19334:19356   */\n      swap1\n      pop\n        /* \"#utility.yul\":19365:19395   */\n      tag_788\n        /* \"#utility.yul\":19389:19394   */\n      dup2\n        /* \"#utility.yul\":19365:19395   */\n      tag_520\n      jump\t// in\n    tag_788:\n        /* \"#utility.yul\":19264:19401   */\n      swap3\n      swap2\n      pop\n      pop\n      jump\t// out\n        /* \"#utility.yul\":19407:19752   */\n    tag_139:\n        /* \"#utility.yul\":19474:19480   */\n      0x00\n        /* \"#utility.yul\":19523:19525   */\n      0x20\n        /* \"#utility.yul\":19511:19520   */\n      dup3\n        /* \"#utility.yul\":19502:19509   */\n      dup5\n        /* \"#utility.yul\":19498:19521   */\n      sub\n        /* \"#utility.yul\":19494:19526   */\n      slt\n        /* \"#utility.yul\":19491:19610   */\n      iszero\n      tag_790\n      jumpi\n        /* \"#utility.yul\":19529:19608   */\n      tag_791\n      tag_468\n      jump\t// in\n    tag_791:\n        /* \"#utility.yul\":19491:19610   */\n    tag_790:\n        /* \"#utility.yul\":19649:19650   */\n      0x00\n        /* \"#utility.yul\":19674:19735   */\n      tag_792\n        /* \"#utility.yul\":19727:19734   */\n      dup5\n        /* \"#utility.yul\":19718:19724   */\n      dup3\n        /* \"#utility.yul\":19707:19716   */\n      dup6\n        /* \"#utility.yul\":19703:19725   */\n      add\n        /* \"#utility.yul\":19674:19735   */\n      tag_521\n      jump\t// in\n    tag_792:\n        /* \"#utility.yul\":19664:19735   */\n      swap2\n      pop\n        /* \"#utility.yul\":19620:19745   */\n      pop\n        /* \"#utility.yul\":19407:19752   */\n      swap3\n      swap2\n      pop\n      pop\n      jump\t// out\n        /* \"#utility.yul\":19758:19927   */\n    tag_522:\n        /* \"#utility.yul\":19842:19853   */\n      0x00\n        /* \"#utility.yul\":19876:19882   */\n      dup3\n        /* \"#utility.yul\":19871:19874   */\n      dup3\n        /* \"#utility.yul\":19864:19883   */\n      mstore\n        /* \"#utility.yul\":19916:19920   */\n      0x20\n        /* \"#utility.yul\":19911:19914   */\n      dup3\n        /* \"#utility.yul\":19907:19921   */\n      add\n        /* \"#utility.yul\":19892:19921   */\n      swap1\n      pop\n        /* \"#utility.yul\":19758:19927   */\n      swap3\n      swap2\n      pop\n      pop\n      jump\t// out\n        /* \"#utility.yul\":19933:20098   */\n    tag_523:\n        /* \"#utility.yul\":20073:20090   */\n      0x5472616e73666572206661696c65640000000000000000000000000000000000\n        /* \"#utility.yul\":20069:20070   */\n      0x00\n        /* \"#utility.yul\":20061:20067   */\n      dup3\n        /* \"#utility.yul\":20057:20071   */\n      add\n        /* \"#utility.yul\":20050:20091   */\n      mstore\n        /* \"#utility.yul\":19933:20098   */\n      pop\n      jump\t// out\n        /* \"#utility.yul\":20104:20470   */\n    tag_524:\n        /* \"#utility.yul\":20246:20249   */\n      0x00\n        /* \"#utility.yul\":20267:20334   */\n      tag_796\n        /* \"#utility.yul\":20331:20333   */\n      0x0f\n        /* \"#utility.yul\":20326:20329   */\n      dup4\n        /* \"#utility.yul\":20267:20334   */\n      tag_522\n      jump\t// in\n    tag_796:\n        /* \"#utility.yul\":20260:20334   */\n      swap2\n      pop\n        /* \"#utility.yul\":20343:20436   */\n      tag_797\n        /* \"#utility.yul\":20432:20435   */\n      dup3\n        /* \"#utility.yul\":20343:20436   */\n      tag_523\n      jump\t// in\n    tag_797:\n        /* \"#utility.yul\":20461:20463   */\n      0x20\n        /* \"#utility.yul\":20456:20459   */\n      dup3\n        /* \"#utility.yul\":20452:20464   */\n      add\n        /* \"#utility.yul\":20445:20464   */\n      swap1\n      pop\n        /* \"#utility.yul\":20104:20470   */\n      swap2\n      swap1\n      pop\n      jump\t// out\n        /* \"#utility.yul\":20476:20895   */\n    tag_142:\n        /* \"#utility.yul\":20642:20646   */\n      0x00\n        /* \"#utility.yul\":20680:20682   */\n      0x20\n        /* \"#utility.yul\":20669:20678   */\n      dup3\n        /* \"#utility.yul\":20665:20683   */\n      add\n        /* \"#utility.yul\":20657:20683   */\n      swap1\n      pop\n        /* \"#utility.yul\":20729:20738   */\n      dup2\n        /* \"#utility.yul\":20723:20727   */\n      dup2\n        /* \"#utility.yul\":20719:20739   */\n      sub\n        /* \"#utility.yul\":20715:20716   */\n      0x00\n        /* \"#utility.yul\":20704:20713   */\n      dup4\n        /* \"#utility.yul\":20700:20717   */\n      add\n        /* \"#utility.yul\":20693:20740   */\n      mstore\n        /* \"#utility.yul\":20757:20888   */\n      tag_799\n        /* \"#utility.yul\":20883:20887   */\n      dup2\n        /* \"#utility.yul\":20757:20888   */\n      tag_524\n      jump\t// in\n    tag_799:\n        /* \"#utility.yul\":20749:20888   */\n      swap1\n      pop\n        /* \"#utility.yul\":20476:20895   */\n      swap2\n      swap1\n      pop\n      jump\t// out\n        /* \"#utility.yul\":20901:21081   */\n    tag_525:\n        /* \"#utility.yul\":20949:21026   */\n      0x4e487b7100000000000000000000000000000000000000000000000000000000\n        /* \"#utility.yul\":20946:20947   */\n      0x00\n        /* \"#utility.yul\":20939:21027   */\n      mstore\n        /* \"#utility.yul\":21046:21050   */\n      0x11\n        /* \"#utility.yul\":21043:21044   */\n      0x04\n        /* \"#utility.yul\":21036:21051   */\n      mstore\n        /* \"#utility.yul\":21070:21074   */\n      0x24\n        /* \"#utility.yul\":21067:21068   */\n      0x00\n        /* \"#utility.yul\":21060:21075   */\n      revert\n        /* \"#utility.yul\":21087:21281   */\n    tag_144:\n        /* \"#utility.yul\":21127:21131   */\n      0x00\n        /* \"#utility.yul\":21147:21167   */\n      tag_802\n        /* \"#utility.yul\":21165:21166   */\n      dup3\n        /* \"#utility.yul\":21147:21167   */\n      tag_470\n      jump\t// in\n    tag_802:\n        /* \"#utility.yul\":21142:21167   */\n      swap2\n      pop\n        /* \"#utility.yul\":21181:21201   */\n      tag_803\n        /* \"#utility.yul\":21199:21200   */\n      dup4\n        /* \"#utility.yul\":21181:21201   */\n      tag_470\n      jump\t// in\n    tag_803:\n        /* \"#utility.yul\":21176:21201   */\n      swap3\n      pop\n        /* \"#utility.yul\":21225:21226   */\n      dup3\n        /* \"#utility.yul\":21222:21223   */\n      dup3\n        /* \"#utility.yul\":21218:21227   */\n      sub\n        /* \"#utility.yul\":21210:21227   */\n      swap1\n      pop\n        /* \"#utility.yul\":21249:21250   */\n      dup2\n        /* \"#utility.yul\":21243:21247   */\n      dup2\n        /* \"#utility.yul\":21240:21251   */\n      gt\n        /* \"#utility.yul\":21237:21274   */\n      iszero\n      tag_804\n      jumpi\n        /* \"#utility.yul\":21254:21272   */\n      tag_805\n      tag_525\n      jump\t// in\n    tag_805:\n        /* \"#utility.yul\":21237:21274   */\n    tag_804:\n        /* \"#utility.yul\":21087:21281   */\n      swap3\n      swap2\n      pop\n      pop\n      jump\t// out\n        /* \"#utility.yul\":21287:21619   */\n    tag_146:\n        /* \"#utility.yul\":21408:21412   */\n      0x00\n        /* \"#utility.yul\":21446:21448   */\n      0x40\n        /* \"#utility.yul\":21435:21444   */\n      dup3\n        /* \"#utility.yul\":21431:21449   */\n      add\n        /* \"#utility.yul\":21423:21449   */\n      swap1\n      pop\n        /* \"#utility.yul\":21459:21530   */\n      tag_807\n        /* \"#utility.yul\":21527:21528   */\n      0x00\n        /* \"#utility.yul\":21516:21525   */\n      dup4\n        /* \"#utility.yul\":21512:21529   */\n      add\n        /* \"#utility.yul\":21503:21509   */\n      dup6\n        /* \"#utility.yul\":21459:21530   */\n      tag_479\n      jump\t// in\n    tag_807:\n        /* \"#utility.yul\":21540:21612   */\n      tag_808\n        /* \"#utility.yul\":21608:21610   */\n      0x20\n        /* \"#utility.yul\":21597:21606   */\n      dup4\n        /* \"#utility.yul\":21593:21611   */\n      add\n        /* \"#utility.yul\":21584:21590   */\n      dup5\n        /* \"#utility.yul\":21540:21612   */\n      tag_479\n      jump\t// in\n    tag_808:\n        /* \"#utility.yul\":21287:21619   */\n      swap4\n      swap3\n      pop\n      pop\n      pop\n      jump\t// out\n        /* \"#utility.yul\":21625:21856   */\n    tag_526:\n        /* \"#utility.yul\":21765:21799   */\n      0x46756e6374696f6e206d7573742062652063616c6c6564207468726f75676820\n        /* \"#utility.yul\":21761:21762   */\n      0x00\n        /* \"#utility.yul\":21753:21759   */\n      dup3\n        /* \"#utility.yul\":21749:21763   */\n      add\n        /* \"#utility.yul\":21742:21800   */\n      mstore\n        /* \"#utility.yul\":21834:21848   */\n      0x64656c656761746563616c6c0000000000000000000000000000000000000000\n        /* \"#utility.yul\":21829:21831   */\n      0x20\n        /* \"#utility.yul\":21821:21827   */\n      dup3\n        /* \"#utility.yul\":21817:21832   */\n      add\n        /* \"#utility.yul\":21810:21849   */\n      mstore\n        /* \"#utility.yul\":21625:21856   */\n      pop\n      jump\t// out\n        /* \"#utility.yul\":21862:22228   */\n    tag_527:\n        /* \"#utility.yul\":22004:22007   */\n      0x00\n        /* \"#utility.yul\":22025:22092   */\n      tag_811\n        /* \"#utility.yul\":22089:22091   */\n      0x2c\n        /* \"#utility.yul\":22084:22087   */\n      dup4\n        /* \"#utility.yul\":22025:22092   */\n      tag_522\n      jump\t// in\n    tag_811:\n        /* \"#utility.yul\":22018:22092   */\n      swap2\n      pop\n        /* \"#utility.yul\":22101:22194   */\n      tag_812\n        /* \"#utility.yul\":22190:22193   */\n      dup3\n        /* \"#utility.yul\":22101:22194   */\n      tag_526\n      jump\t// in\n    tag_812:\n        /* \"#utility.yul\":22219:22221   */\n      0x40\n        /* \"#utility.yul\":22214:22217   */\n      dup3\n        /* \"#utility.yul\":22210:22222   */\n      add\n        /* \"#utility.yul\":22203:22222   */\n      swap1\n      pop\n        /* \"#utility.yul\":21862:22228   */\n      swap2\n      swap1\n      pop\n      jump\t// out\n        /* \"#utility.yul\":22234:22653   */\n    tag_150:\n        /* \"#utility.yul\":22400:22404   */\n      0x00\n        /* \"#utility.yul\":22438:22440   */\n      0x20\n        /* \"#utility.yul\":22427:22436   */\n      dup3\n        /* \"#utility.yul\":22423:22441   */\n      add\n        /* \"#utility.yul\":22415:22441   */\n      swap1\n      pop\n        /* \"#utility.yul\":22487:22496   */\n      dup2\n        /* \"#utility.yul\":22481:22485   */\n      dup2\n        /* \"#utility.yul\":22477:22497   */\n      sub\n        /* \"#utility.yul\":22473:22474   */\n      0x00\n        /* \"#utility.yul\":22462:22471   */\n      dup4\n        /* \"#utility.yul\":22458:22475   */\n      add\n        /* \"#utility.yul\":22451:22498   */\n      mstore\n        /* \"#utility.yul\":22515:22646   */\n      tag_814\n        /* \"#utility.yul\":22641:22645   */\n      dup2\n        /* \"#utility.yul\":22515:22646   */\n      tag_527\n      jump\t// in\n    tag_814:\n        /* \"#utility.yul\":22507:22646   */\n      swap1\n      pop\n        /* \"#utility.yul\":22234:22653   */\n      swap2\n      swap1\n      pop\n      jump\t// out\n        /* \"#utility.yul\":22659:22890   */\n    tag_528:\n        /* \"#utility.yul\":22799:22833   */\n      0x46756e6374696f6e206d7573742062652063616c6c6564207468726f75676820\n        /* \"#utility.yul\":22795:22796   */\n      0x00\n        /* \"#utility.yul\":22787:22793   */\n      dup3\n        /* \"#utility.yul\":22783:22797   */\n      add\n        /* \"#utility.yul\":22776:22834   */\n      mstore\n        /* \"#utility.yul\":22868:22882   */\n      0x6163746976652070726f78790000000000000000000000000000000000000000\n        /* \"#utility.yul\":22863:22865   */\n      0x20\n        /* \"#utility.yul\":22855:22861   */\n      dup3\n        /* \"#utility.yul\":22851:22866   */\n      add\n        /* \"#utility.yul\":22844:22883   */\n      mstore\n        /* \"#utility.yul\":22659:22890   */\n      pop\n      jump\t// out\n        /* \"#utility.yul\":22896:23262   */\n    tag_529:\n        /* \"#utility.yul\":23038:23041   */\n      0x00\n        /* \"#utility.yul\":23059:23126   */\n      tag_817\n        /* \"#utility.yul\":23123:23125   */\n      0x2c\n        /* \"#utility.yul\":23118:23121   */\n      dup4\n        /* \"#utility.yul\":23059:23126   */\n      tag_522\n      jump\t// in\n    tag_817:\n        /* \"#utility.yul\":23052:23126   */\n      swap2\n      pop\n        /* \"#utility.yul\":23135:23228   */\n      tag_818\n        /* \"#utility.yul\":23224:23227   */\n      dup3\n        /* \"#utility.yul\":23135:23228   */\n      tag_528\n      jump\t// in\n    tag_818:\n        /* \"#utility.yul\":23253:23255   */\n      0x40\n        /* \"#utility.yul\":23248:23251   */\n      dup3\n        /* \"#utility.yul\":23244:23256   */\n      add\n        /* \"#utility.yul\":23237:23256   */\n      swap1\n      pop\n        /* \"#utility.yul\":22896:23262   */\n      swap2\n      swap1\n      pop\n      jump\t// out\n        /* \"#utility.yul\":23268:23687   */\n    tag_155:\n        /* \"#utility.yul\":23434:23438   */\n      0x00\n        /* \"#utility.yul\":23472:23474   */\n      0x20\n        /* \"#utility.yul\":23461:23470   */\n      dup3\n        /* \"#utility.yul\":23457:23475   */\n      add\n        /* \"#utility.yul\":23449:23475   */\n      swap1\n      pop\n        /* \"#utility.yul\":23521:23530   */\n      dup2\n        /* \"#utility.yul\":23515:23519   */\n      dup2\n        /* \"#utility.yul\":23511:23531   */\n      sub\n        /* \"#utility.yul\":23507:23508   */\n      0x00\n        /* \"#utility.yul\":23496:23505   */\n      dup4\n        /* \"#utility.yul\":23492:23509   */\n      add\n        /* \"#utility.yul\":23485:23532   */\n      mstore\n        /* \"#utility.yul\":23549:23680   */\n      tag_820\n        /* \"#utility.yul\":23675:23679   */\n      dup2\n        /* \"#utility.yul\":23549:23680   */\n      tag_529\n      jump\t// in\n    tag_820:\n        /* \"#utility.yul\":23541:23680   */\n      swap1\n      pop\n        /* \"#utility.yul\":23268:23687   */\n      swap2\n      swap1\n      pop\n      jump\t// out\n        /* \"#utility.yul\":23693:23936   */\n    tag_530:\n        /* \"#utility.yul\":23833:23867   */\n      0x555550535570677261646561626c653a206d757374206e6f742062652063616c\n        /* \"#utility.yul\":23829:23830   */\n      0x00\n        /* \"#utility.yul\":23821:23827   */\n      dup3\n        /* \"#utility.yul\":23817:23831   */\n      add\n        /* \"#utility.yul\":23810:23868   */\n      mstore\n        /* \"#utility.yul\":23902:23928   */\n      0x6c6564207468726f7567682064656c656761746563616c6c0000000000000000\n        /* \"#utility.yul\":23897:23899   */\n      0x20\n        /* \"#utility.yul\":23889:23895   */\n      dup3\n        /* \"#utility.yul\":23885:23900   */\n      add\n        /* \"#utility.yul\":23878:23929   */\n      mstore\n        /* \"#utility.yul\":23693:23936   */\n      pop\n      jump\t// out\n        /* \"#utility.yul\":23942:24308   */\n    tag_531:\n        /* \"#utility.yul\":24084:24087   */\n      0x00\n        /* \"#utility.yul\":24105:24172   */\n      tag_823\n        /* \"#utility.yul\":24169:24171   */\n      0x38\n        /* \"#utility.yul\":24164:24167   */\n      dup4\n        /* \"#utility.yul\":24105:24172   */\n      tag_522\n      jump\t// in\n    tag_823:\n        /* \"#utility.yul\":24098:24172   */\n      swap2\n      pop\n        /* \"#utility.yul\":24181:24274   */\n      tag_824\n        /* \"#utility.yul\":24270:24273   */\n      dup3\n        /* \"#utility.yul\":24181:24274   */\n      tag_530\n      jump\t// in\n    tag_824:\n        /* \"#utility.yul\":24299:24301   */\n      0x40\n        /* \"#utility.yul\":24294:24297   */\n      dup3\n        /* \"#utility.yul\":24290:24302   */\n      add\n        /* \"#utility.yul\":24283:24302   */\n      swap1\n      pop\n        /* \"#utility.yul\":23942:24308   */\n      swap2\n      swap1\n      pop\n      jump\t// out\n        /* \"#utility.yul\":24314:24733   */\n    tag_179:\n        /* \"#utility.yul\":24480:24484   */\n      0x00\n        /* \"#utility.yul\":24518:24520   */\n      0x20\n        /* \"#utility.yul\":24507:24516   */\n      dup3\n        /* \"#utility.yul\":24503:24521   */\n      add\n        /* \"#utility.yul\":24495:24521   */\n      swap1\n      pop\n        /* \"#utility.yul\":24567:24576   */\n      dup2\n        /* \"#utility.yul\":24561:24565   */\n      dup2\n        /* \"#utility.yul\":24557:24577   */\n      sub\n        /* \"#utility.yul\":24553:24554   */\n      0x00\n        /* \"#utility.yul\":24542:24551   */\n      dup4\n        /* \"#utility.yul\":24538:24555   */\n      add\n        /* \"#utility.yul\":24531:24578   */\n      mstore\n        /* \"#utility.yul\":24595:24726   */\n      tag_826\n        /* \"#utility.yul\":24721:24725   */\n      dup2\n        /* \"#utility.yul\":24595:24726   */\n      tag_531\n      jump\t// in\n    tag_826:\n        /* \"#utility.yul\":24587:24726   */\n      swap1\n      pop\n        /* \"#utility.yul\":24314:24733   */\n      swap2\n      swap1\n      pop\n      jump\t// out\n        /* \"#utility.yul\":24739:24921   */\n    tag_532:\n        /* \"#utility.yul\":24879:24913   */\n      0x506f696e7473206d7573742062652067726561746572207468616e207a65726f\n        /* \"#utility.yul\":24875:24876   */\n      0x00\n        /* \"#utility.yul\":24867:24873   */\n      dup3\n        /* \"#utility.yul\":24863:24877   */\n      add\n        /* \"#utility.yul\":24856:24914   */\n      mstore\n        /* \"#utility.yul\":24739:24921   */\n      pop\n      jump\t// out\n        /* \"#utility.yul\":24927:25293   */\n    tag_533:\n        /* \"#utility.yul\":25069:25072   */\n      0x00\n        /* \"#utility.yul\":25090:25157   */\n      tag_829\n        /* \"#utility.yul\":25154:25156   */\n      0x20\n        /* \"#utility.yul\":25149:25152   */\n      dup4\n        /* \"#utility.yul\":25090:25157   */\n      tag_522\n      jump\t// in\n    tag_829:\n        /* \"#utility.yul\":25083:25157   */\n      swap2\n      pop\n        /* \"#utility.yul\":25166:25259   */\n      tag_830\n        /* \"#utility.yul\":25255:25258   */\n      dup3\n        /* \"#utility.yul\":25166:25259   */\n      tag_532\n      jump\t// in\n    tag_830:\n        /* \"#utility.yul\":25284:25286   */\n      0x20\n        /* \"#utility.yul\":25279:25282   */\n      dup3\n        /* \"#utility.yul\":25275:25287   */\n      add\n        /* \"#utility.yul\":25268:25287   */\n      swap1\n      pop\n        /* \"#utility.yul\":24927:25293   */\n      swap2\n      swap1\n      pop\n      jump\t// out\n        /* \"#utility.yul\":25299:25718   */\n    tag_186:\n        /* \"#utility.yul\":25465:25469   */\n      0x00\n        /* \"#utility.yul\":25503:25505   */\n      0x20\n        /* \"#utility.yul\":25492:25501   */\n      dup3\n        /* \"#utility.yul\":25488:25506   */\n      add\n        /* \"#utility.yul\":25480:25506   */\n      swap1\n      pop\n        /* \"#utility.yul\":25552:25561   */\n      dup2\n        /* \"#utility.yul\":25546:25550   */\n      dup2\n        /* \"#utility.yul\":25542:25562   */\n      sub\n        /* \"#utility.yul\":25538:25539   */\n      0x00\n        /* \"#utility.yul\":25527:25536   */\n      dup4\n        /* \"#utility.yul\":25523:25540   */\n      add\n        /* \"#utility.yul\":25516:25563   */\n      mstore\n        /* \"#utility.yul\":25580:25711   */\n      tag_832\n        /* \"#utility.yul\":25706:25710   */\n      dup2\n        /* \"#utility.yul\":25580:25711   */\n      tag_533\n      jump\t// in\n    tag_832:\n        /* \"#utility.yul\":25572:25711   */\n      swap1\n      pop\n        /* \"#utility.yul\":25299:25718   */\n      swap2\n      swap1\n      pop\n      jump\t// out\n        /* \"#utility.yul\":25724:25915   */\n    tag_188:\n        /* \"#utility.yul\":25764:25767   */\n      0x00\n        /* \"#utility.yul\":25783:25803   */\n      tag_834\n        /* \"#utility.yul\":25801:25802   */\n      dup3\n        /* \"#utility.yul\":25783:25803   */\n      tag_470\n      jump\t// in\n    tag_834:\n        /* \"#utility.yul\":25778:25803   */\n      swap2\n      pop\n        /* \"#utility.yul\":25817:25837   */\n      tag_835\n        /* \"#utility.yul\":25835:25836   */\n      dup4\n        /* \"#utility.yul\":25817:25837   */\n      tag_470\n      jump\t// in\n    tag_835:\n        /* \"#utility.yul\":25812:25837   */\n      swap3\n      pop\n        /* \"#utility.yul\":25860:25861   */\n      dup3\n        /* \"#utility.yul\":25857:25858   */\n      dup3\n        /* \"#utility.yul\":25853:25862   */\n      add\n        /* \"#utility.yul\":25846:25862   */\n      swap1\n      pop\n        /* \"#utility.yul\":25881:25884   */\n      dup1\n        /* \"#utility.yul\":25878:25879   */\n      dup3\n        /* \"#utility.yul\":25875:25885   */\n      gt\n        /* \"#utility.yul\":25872:25908   */\n      iszero\n      tag_836\n      jumpi\n        /* \"#utility.yul\":25888:25906   */\n      tag_837\n      tag_525\n      jump\t// in\n    tag_837:\n        /* \"#utility.yul\":25872:25908   */\n    tag_836:\n        /* \"#utility.yul\":25724:25915   */\n      swap3\n      swap2\n      pop\n      pop\n      jump\t// out\n        /* \"#utility.yul\":25921:26097   */\n    tag_534:\n        /* \"#utility.yul\":26061:26089   */\n      0x496e73756666696369656e7420766f74696e6720726967687473000000000000\n        /* \"#utility.yul\":26057:26058   */\n      0x00\n        /* \"#utility.yul\":26049:26055   */\n      dup3\n        /* \"#utility.yul\":26045:26059   */\n      add\n        /* \"#utility.yul\":26038:26090   */\n      mstore\n        /* \"#utility.yul\":25921:26097   */\n      pop\n      jump\t// out\n        /* \"#utility.yul\":26103:26469   */\n    tag_535:\n        /* \"#utility.yul\":26245:26248   */\n      0x00\n        /* \"#utility.yul\":26266:26333   */\n      tag_840\n        /* \"#utility.yul\":26330:26332   */\n      0x1a\n        /* \"#utility.yul\":26325:26328   */\n      dup4\n        /* \"#utility.yul\":26266:26333   */\n      tag_522\n      jump\t// in\n    tag_840:\n        /* \"#utility.yul\":26259:26333   */\n      swap2\n      pop\n        /* \"#utility.yul\":26342:26435   */\n      tag_841\n        /* \"#utility.yul\":26431:26434   */\n      dup3\n        /* \"#utility.yul\":26342:26435   */\n      tag_534\n      jump\t// in\n    tag_841:\n        /* \"#utility.yul\":26460:26462   */\n      0x20\n        /* \"#utility.yul\":26455:26458   */\n      dup3\n        /* \"#utility.yul\":26451:26463   */\n      add\n        /* \"#utility.yul\":26444:26463   */\n      swap1\n      pop\n        /* \"#utility.yul\":26103:26469   */\n      swap2\n      swap1\n      pop\n      jump\t// out\n        /* \"#utility.yul\":26475:26894   */\n    tag_194:\n        /* \"#utility.yul\":26641:26645   */\n      0x00\n        /* \"#utility.yul\":26679:26681   */\n      0x20\n        /* \"#utility.yul\":26668:26677   */\n      dup3\n        /* \"#utility.yul\":26664:26682   */\n      add\n        /* \"#utility.yul\":26656:26682   */\n      swap1\n      pop\n        /* \"#utility.yul\":26728:26737   */\n      dup2\n        /* \"#utility.yul\":26722:26726   */\n      dup2\n        /* \"#utility.yul\":26718:26738   */\n      sub\n        /* \"#utility.yul\":26714:26715   */\n      0x00\n        /* \"#utility.yul\":26703:26712   */\n      dup4\n        /* \"#utility.yul\":26699:26716   */\n      add\n        /* \"#utility.yul\":26692:26739   */\n      mstore\n        /* \"#utility.yul\":26756:26887   */\n      tag_843\n        /* \"#utility.yul\":26882:26886   */\n      dup2\n        /* \"#utility.yul\":26756:26887   */\n      tag_535\n      jump\t// in\n    tag_843:\n        /* \"#utility.yul\":26748:26887   */\n      swap1\n      pop\n        /* \"#utility.yul\":26475:26894   */\n      swap2\n      swap1\n      pop\n      jump\t// out\n        /* \"#utility.yul\":26900:27080   */\n    tag_198:\n        /* \"#utility.yul\":26948:27025   */\n      0x4e487b7100000000000000000000000000000000000000000000000000000000\n        /* \"#utility.yul\":26945:26946   */\n      0x00\n        /* \"#utility.yul\":26938:27026   */\n      mstore\n        /* \"#utility.yul\":27045:27049   */\n      0x32\n        /* \"#utility.yul\":27042:27043   */\n      0x04\n        /* \"#utility.yul\":27035:27050   */\n      mstore\n        /* \"#utility.yul\":27069:27073   */\n      0x24\n        /* \"#utility.yul\":27066:27067   */\n      0x00\n        /* \"#utility.yul\":27059:27074   */\n      revert\n        /* \"#utility.yul\":27086:27528   */\n    tag_225:\n        /* \"#utility.yul\":27235:27239   */\n      0x00\n        /* \"#utility.yul\":27273:27275   */\n      0x60\n        /* \"#utility.yul\":27262:27271   */\n      dup3\n        /* \"#utility.yul\":27258:27276   */\n      add\n        /* \"#utility.yul\":27250:27276   */\n      swap1\n      pop\n        /* \"#utility.yul\":27286:27357   */\n      tag_846\n        /* \"#utility.yul\":27354:27355   */\n      0x00\n        /* \"#utility.yul\":27343:27352   */\n      dup4\n        /* \"#utility.yul\":27339:27356   */\n      add\n        /* \"#utility.yul\":27330:27336   */\n      dup7\n        /* \"#utility.yul\":27286:27357   */\n      tag_480\n      jump\t// in\n    tag_846:\n        /* \"#utility.yul\":27367:27439   */\n      tag_847\n        /* \"#utility.yul\":27435:27437   */\n      0x20\n        /* \"#utility.yul\":27424:27433   */\n      dup4\n        /* \"#utility.yul\":27420:27438   */\n      add\n        /* \"#utility.yul\":27411:27417   */\n      dup6\n        /* \"#utility.yul\":27367:27439   */\n      tag_480\n      jump\t// in\n    tag_847:\n        /* \"#utility.yul\":27449:27521   */\n      tag_848\n        /* \"#utility.yul\":27517:27519   */\n      0x40\n        /* \"#utility.yul\":27506:27515   */\n      dup4\n        /* \"#utility.yul\":27502:27520   */\n      add\n        /* \"#utility.yul\":27493:27499   */\n      dup5\n        /* \"#utility.yul\":27449:27521   */\n      tag_479\n      jump\t// in\n    tag_848:\n        /* \"#utility.yul\":27086:27528   */\n      swap5\n      swap4\n      pop\n      pop\n      pop\n      pop\n      jump\t// out\n        /* \"#utility.yul\":27534:27714   */\n    tag_536:\n        /* \"#utility.yul\":27582:27659   */\n      0x4e487b7100000000000000000000000000000000000000000000000000000000\n        /* \"#utility.yul\":27579:27580   */\n      0x00\n        /* \"#utility.yul\":27572:27660   */\n      mstore\n        /* \"#utility.yul\":27679:27683   */\n      0x22\n        /* \"#utility.yul\":27676:27677   */\n      0x04\n        /* \"#utility.yul\":27669:27684   */\n      mstore\n        /* \"#utility.yul\":27703:27707   */\n      0x24\n        /* \"#utility.yul\":27700:27701   */\n      0x00\n        /* \"#utility.yul\":27693:27708   */\n      revert\n        /* \"#utility.yul\":27720:28040   */\n    tag_254:\n        /* \"#utility.yul\":27764:27770   */\n      0x00\n        /* \"#utility.yul\":27801:27802   */\n      0x02\n        /* \"#utility.yul\":27795:27799   */\n      dup3\n        /* \"#utility.yul\":27791:27803   */\n      div\n        /* \"#utility.yul\":27781:27803   */\n      swap1\n      pop\n        /* \"#utility.yul\":27848:27849   */\n      0x01\n        /* \"#utility.yul\":27842:27846   */\n      dup3\n        /* \"#utility.yul\":27838:27850   */\n      and\n        /* \"#utility.yul\":27869:27887   */\n      dup1\n        /* \"#utility.yul\":27859:27940   */\n      tag_851\n      jumpi\n        /* \"#utility.yul\":27925:27929   */\n      0x7f\n        /* \"#utility.yul\":27917:27923   */\n      dup3\n        /* \"#utility.yul\":27913:27930   */\n      and\n        /* \"#utility.yul\":27903:27930   */\n      swap2\n      pop\n        /* \"#utility.yul\":27859:27940   */\n    tag_851:\n        /* \"#utility.yul\":27987:27989   */\n      0x20\n        /* \"#utility.yul\":27979:27985   */\n      dup3\n        /* \"#utility.yul\":27976:27990   */\n      lt\n        /* \"#utility.yul\":27956:27974   */\n      dup2\n        /* \"#utility.yul\":27953:27991   */\n      sub\n        /* \"#utility.yul\":27950:28034   */\n      tag_852\n      jumpi\n        /* \"#utility.yul\":28006:28024   */\n      tag_853\n      tag_536\n      jump\t// in\n    tag_853:\n        /* \"#utility.yul\":27950:28034   */\n    tag_852:\n        /* \"#utility.yul\":27771:28040   */\n      pop\n        /* \"#utility.yul\":27720:28040   */\n      swap2\n      swap1\n      pop\n      jump\t// out\n        /* \"#utility.yul\":28046:28205   */\n    tag_537:\n        /* \"#utility.yul\":28186:28197   */\n      0x6c656e206572726f720000000000000000000000000000000000000000000000\n        /* \"#utility.yul\":28182:28183   */\n      0x00\n        /* \"#utility.yul\":28174:28180   */\n      dup3\n        /* \"#utility.yul\":28170:28184   */\n      add\n        /* \"#utility.yul\":28163:28198   */\n      mstore\n        /* \"#utility.yul\":28046:28205   */\n      pop\n      jump\t// out\n        /* \"#utility.yul\":28211:28576   */\n    tag_538:\n        /* \"#utility.yul\":28353:28356   */\n      0x00\n        /* \"#utility.yul\":28374:28440   */\n      tag_856\n        /* \"#utility.yul\":28438:28439   */\n      0x09\n        /* \"#utility.yul\":28433:28436   */\n      dup4\n        /* \"#utility.yul\":28374:28440   */\n      tag_522\n      jump\t// in\n    tag_856:\n        /* \"#utility.yul\":28367:28440   */\n      swap2\n      pop\n        /* \"#utility.yul\":28449:28542   */\n      tag_857\n        /* \"#utility.yul\":28538:28541   */\n      dup3\n        /* \"#utility.yul\":28449:28542   */\n      tag_537\n      jump\t// in\n    tag_857:\n        /* \"#utility.yul\":28567:28569   */\n      0x20\n        /* \"#utility.yul\":28562:28565   */\n      dup3\n        /* \"#utility.yul\":28558:28570   */\n      add\n        /* \"#utility.yul\":28551:28570   */\n      swap1\n      pop\n        /* \"#utility.yul\":28211:28576   */\n      swap2\n      swap1\n      pop\n      jump\t// out\n        /* \"#utility.yul\":28582:29001   */\n    tag_282:\n        /* \"#utility.yul\":28748:28752   */\n      0x00\n        /* \"#utility.yul\":28786:28788   */\n      0x20\n        /* \"#utility.yul\":28775:28784   */\n      dup3\n        /* \"#utility.yul\":28771:28789   */\n      add\n        /* \"#utility.yul\":28763:28789   */\n      swap1\n      pop\n        /* \"#utility.yul\":28835:28844   */\n      dup2\n        /* \"#utility.yul\":28829:28833   */\n      dup2\n        /* \"#utility.yul\":28825:28845   */\n      sub\n        /* \"#utility.yul\":28821:28822   */\n      0x00\n        /* \"#utility.yul\":28810:28819   */\n      dup4\n        /* \"#utility.yul\":28806:28823   */\n      add\n        /* \"#utility.yul\":28799:28846   */\n      mstore\n        /* \"#utility.yul\":28863:28994   */\n      tag_859\n        /* \"#utility.yul\":28989:28993   */\n      dup2\n        /* \"#utility.yul\":28863:28994   */\n      tag_538\n      jump\t// in\n    tag_859:\n        /* \"#utility.yul\":28855:28994   */\n      swap1\n      pop\n        /* \"#utility.yul\":28582:29001   */\n      swap2\n      swap1\n      pop\n      jump\t// out\n        /* \"#utility.yul\":29007:29148   */\n    tag_539:\n        /* \"#utility.yul\":29056:29060   */\n      0x00\n        /* \"#utility.yul\":29079:29082   */\n      dup2\n        /* \"#utility.yul\":29071:29082   */\n      swap1\n      pop\n        /* \"#utility.yul\":29102:29105   */\n      dup2\n        /* \"#utility.yul\":29099:29100   */\n      0x00\n        /* \"#utility.yul\":29092:29106   */\n      mstore\n        /* \"#utility.yul\":29136:29140   */\n      0x20\n        /* \"#utility.yul\":29133:29134   */\n      0x00\n        /* \"#utility.yul\":29123:29141   */\n      keccak256\n        /* \"#utility.yul\":29115:29141   */\n      swap1\n      pop\n        /* \"#utility.yul\":29007:29148   */\n      swap2\n      swap1\n      pop\n      jump\t// out\n        /* \"#utility.yul\":29154:29247   */\n    tag_540:\n        /* \"#utility.yul\":29191:29197   */\n      0x00\n        /* \"#utility.yul\":29238:29240   */\n      0x20\n        /* \"#utility.yul\":29233:29235   */\n      0x1f\n        /* \"#utility.yul\":29226:29231   */\n      dup4\n        /* \"#utility.yul\":29222:29236   */\n      add\n        /* \"#utility.yul\":29218:29241   */\n      div\n        /* \"#utility.yul\":29208:29241   */\n      swap1\n      pop\n        /* \"#utility.yul\":29154:29247   */\n      swap2\n      swap1\n      pop\n      jump\t// out\n        /* \"#utility.yul\":29253:29360   */\n    tag_541:\n        /* \"#utility.yul\":29297:29305   */\n      0x00\n        /* \"#utility.yul\":29347:29352   */\n      dup3\n        /* \"#utility.yul\":29341:29345   */\n      dup3\n        /* \"#utility.yul\":29337:29353   */\n      shl\n        /* \"#utility.yul\":29316:29353   */\n      swap1\n      pop\n        /* \"#utility.yul\":29253:29360   */\n      swap3\n      swap2\n      pop\n      pop\n      jump\t// out\n        /* \"#utility.yul\":29366:29759   */\n    tag_542:\n        /* \"#utility.yul\":29435:29441   */\n      0x00\n        /* \"#utility.yul\":29485:29486   */\n      0x08\n        /* \"#utility.yul\":29473:29483   */\n      dup4\n        /* \"#utility.yul\":29469:29487   */\n      mul\n        /* \"#utility.yul\":29508:29605   */\n      tag_864\n        /* \"#utility.yul\":29538:29604   */\n      0xffffffffffffffffffffffffffffffffffffffffffffffffffffffffffffffff\n        /* \"#utility.yul\":29527:29536   */\n      dup3\n        /* \"#utility.yul\":29508:29605   */\n      tag_541\n      jump\t// in\n    tag_864:\n        /* \"#utility.yul\":29626:29665   */\n      tag_865\n        /* \"#utility.yul\":29656:29664   */\n      dup7\n        /* \"#utility.yul\":29645:29654   */\n      dup4\n        /* \"#utility.yul\":29626:29665   */\n      tag_541\n      jump\t// in\n    tag_865:\n        /* \"#utility.yul\":29614:29665   */\n      swap6\n      pop\n        /* \"#utility.yul\":29698:29702   */\n      dup1\n        /* \"#utility.yul\":29694:29703   */\n      not\n        /* \"#utility.yul\":29687:29692   */\n      dup5\n        /* \"#utility.yul\":29683:29704   */\n      and\n        /* \"#utility.yul\":29674:29704   */\n      swap4\n      pop\n        /* \"#utility.yul\":29747:29751   */\n      dup1\n        /* \"#utility.yul\":29737:29745   */\n      dup7\n        /* \"#utility.yul\":29733:29752   */\n      and\n        /* \"#utility.yul\":29726:29731   */\n      dup5\n        /* \"#utility.yul\":29723:29753   */\n      or\n        /* \"#utility.yul\":29713:29753   */\n      swap3\n      pop\n        /* \"#utility.yul\":29442:29759   */\n      pop\n      pop\n        /* \"#utility.yul\":29366:29759   */\n      swap4\n      swap3\n      pop\n      pop\n      pop\n      jump\t// out\n        /* \"#utility.yul\":29765:29825   */\n    tag_543:\n        /* \"#utility.yul\":29793:29796   */\n      0x00\n        /* \"#utility.yul\":29814:29819   */\n      dup2\n        /* \"#utility.yul\":29807:29819   */\n      swap1\n      pop\n        /* \"#utility.yul\":29765:29825   */\n      swap2\n      swap1\n      pop\n      jump\t// out\n        /* \"#utility.yul\":29831:29973   */\n    tag_544:\n        /* \"#utility.yul\":29881:29890   */\n      0x00\n        /* \"#utility.yul\":29914:29967   */\n      tag_868\n        /* \"#utility.yul\":29932:29966   */\n      tag_869\n        /* \"#utility.yul\":29941:29965   */\n      tag_870\n        /* \"#utility.yul\":29959:29964   */\n      dup5\n        /* \"#utility.yul\":29941:29965   */\n      tag_470\n      jump\t// in\n    tag_870:\n        /* \"#utility.yul\":29932:29966   */\n      tag_543\n      jump\t// in\n    tag_869:\n        /* \"#utility.yul\":29914:29967   */\n      tag_470\n      jump\t// in\n    tag_868:\n        /* \"#utility.yul\":29901:29967   */\n      swap1\n      pop\n        /* \"#utility.yul\":29831:29973   */\n      swap2\n      swap1\n      pop\n      jump\t// out\n        /* \"#utility.yul\":29979:30054   */\n    tag_545:\n        /* \"#utility.yul\":30022:30025   */\n      0x00\n        /* \"#utility.yul\":30043:30048   */\n      dup2\n        /* \"#utility.yul\":30036:30048   */\n      swap1\n      pop\n        /* \"#utility.yul\":29979:30054   */\n      swap2\n      swap1\n      pop\n      jump\t// out\n        /* \"#utility.yul\":30060:30329   */\n    tag_546:\n        /* \"#utility.yul\":30170:30209   */\n      tag_873\n        /* \"#utility.yul\":30201:30208   */\n      dup4\n        /* \"#utility.yul\":30170:30209   */\n      tag_544\n      jump\t// in\n    tag_873:\n        /* \"#utility.yul\":30231:30322   */\n      tag_874\n        /* \"#utility.yul\":30280:30321   */\n      tag_875\n        /* \"#utility.yul\":30304:30320   */\n      dup3\n        /* \"#utility.yul\":30280:30321   */\n      tag_545\n      jump\t// in\n    tag_875:\n        /* \"#utility.yul\":30272:30278   */\n      dup5\n        /* \"#utility.yul\":30265:30269   */\n      dup5\n        /* \"#utility.yul\":30259:30270   */\n      sload\n        /* \"#utility.yul\":30231:30322   */\n      tag_542\n      jump\t// in\n    tag_874:\n        /* \"#utility.yul\":30225:30229   */\n      dup3\n        /* \"#utility.yul\":30218:30323   */\n      sstore\n        /* \"#utility.yul\":30136:30329   */\n      pop\n        /* \"#utility.yul\":30060:30329   */\n      pop\n      pop\n      pop\n      jump\t// out\n        /* \"#utility.yul\":30335:30408   */\n    tag_547:\n        /* \"#utility.yul\":30380:30383   */\n      0x00\n        /* \"#utility.yul\":30335:30408   */\n      swap1\n      jump\t// out\n        /* \"#utility.yul\":30414:30603   */\n    tag_548:\n        /* \"#utility.yul\":30491:30523   */\n      tag_878\n      tag_547\n      jump\t// in\n    tag_878:\n        /* \"#utility.yul\":30532:30597   */\n      tag_879\n        /* \"#utility.yul\":30590:30596   */\n      dup2\n        /* \"#utility.yul\":30582:30588   */\n      dup5\n        /* \"#utility.yul\":30576:30580   */\n      dup5\n        /* \"#utility.yul\":30532:30597   */\n      tag_546\n      jump\t// in\n    tag_879:\n        /* \"#utility.yul\":30467:30603   */\n      pop\n        /* \"#utility.yul\":30414:30603   */\n      pop\n      pop\n      jump\t// out\n        /* \"#utility.yul\":30609:30795   */\n    tag_549:\n        /* \"#utility.yul\":30669:30789   */\n    tag_881:\n        /* \"#utility.yul\":30686:30689   */\n      dup2\n        /* \"#utility.yul\":30679:30684   */\n      dup2\n        /* \"#utility.yul\":30676:30690   */\n      lt\n        /* \"#utility.yul\":30669:30789   */\n      iszero\n      tag_883\n      jumpi\n        /* \"#utility.yul\":30740:30779   */\n      tag_884\n        /* \"#utility.yul\":30777:30778   */\n      0x00\n        /* \"#utility.yul\":30770:30775   */\n      dup3\n        /* \"#utility.yul\":30740:30779   */\n      tag_548\n      jump\t// in\n    tag_884:\n        /* \"#utility.yul\":30713:30714   */\n      0x01\n        /* \"#utility.yul\":30706:30711   */\n      dup2\n        /* \"#utility.yul\":30702:30715   */\n      add\n        /* \"#utility.yul\":30693:30715   */\n      swap1\n      pop\n        /* \"#utility.yul\":30669:30789   */\n      jump(tag_881)\n    tag_883:\n        /* \"#utility.yul\":30609:30795   */\n      pop\n      pop\n      jump\t// out\n        /* \"#utility.yul\":30801:31344   */\n    tag_550:\n        /* \"#utility.yul\":30902:30904   */\n      0x1f\n        /* \"#utility.yul\":30897:30900   */\n      dup3\n        /* \"#utility.yul\":30894:30905   */\n      gt\n        /* \"#utility.yul\":30891:31337   */\n      iszero\n      tag_886\n      jumpi\n        /* \"#utility.yul\":30936:30974   */\n      tag_887\n        /* \"#utility.yul\":30968:30973   */\n      dup2\n        /* \"#utility.yul\":30936:30974   */\n      tag_539\n      jump\t// in\n    tag_887:\n        /* \"#utility.yul\":31020:31049   */\n      tag_888\n        /* \"#utility.yul\":31038:31048   */\n      dup5\n        /* \"#utility.yul\":31020:31049   */\n      tag_540\n      jump\t// in\n    tag_888:\n        /* \"#utility.yul\":31010:31018   */\n      dup2\n        /* \"#utility.yul\":31006:31050   */\n      add\n        /* \"#utility.yul\":31203:31205   */\n      0x20\n        /* \"#utility.yul\":31191:31201   */\n      dup6\n        /* \"#utility.yul\":31188:31206   */\n      lt\n        /* \"#utility.yul\":31185:31234   */\n      iszero\n      tag_889\n      jumpi\n        /* \"#utility.yul\":31224:31232   */\n      dup2\n        /* \"#utility.yul\":31209:31232   */\n      swap1\n      pop\n        /* \"#utility.yul\":31185:31234   */\n    tag_889:\n        /* \"#utility.yul\":31247:31327   */\n      tag_890\n        /* \"#utility.yul\":31303:31325   */\n      tag_891\n        /* \"#utility.yul\":31321:31324   */\n      dup6\n        /* \"#utility.yul\":31303:31325   */\n      tag_540\n      jump\t// in\n    tag_891:\n        /* \"#utility.yul\":31293:31301   */\n      dup4\n        /* \"#utility.yul\":31289:31326   */\n      add\n        /* \"#utility.yul\":31276:31287   */\n      dup3\n        /* \"#utility.yul\":31247:31327   */\n      tag_549\n      jump\t// in\n    tag_890:\n        /* \"#utility.yul\":30906:31337   */\n      pop\n      pop\n        /* \"#utility.yul\":30891:31337   */\n    tag_886:\n        /* \"#utility.yul\":30801:31344   */\n      pop\n      pop\n      pop\n      jump\t// out\n        /* \"#utility.yul\":31350:31467   */\n    tag_551:\n        /* \"#utility.yul\":31404:31412   */\n      0x00\n        /* \"#utility.yul\":31454:31459   */\n      dup3\n        /* \"#utility.yul\":31448:31452   */\n      dup3\n        /* \"#utility.yul\":31444:31460   */\n      shr\n        /* \"#utility.yul\":31423:31460   */\n      swap1\n      pop\n        /* \"#utility.yul\":31350:31467   */\n      swap3\n      swap2\n      pop\n      pop\n      jump\t// out\n        /* \"#utility.yul\":31473:31642   */\n    tag_552:\n        /* \"#utility.yul\":31517:31523   */\n      0x00\n        /* \"#utility.yul\":31550:31601   */\n      tag_894\n        /* \"#utility.yul\":31598:31599   */\n      0x00\n        /* \"#utility.yul\":31594:31600   */\n      not\n        /* \"#utility.yul\":31586:31591   */\n      dup5\n        /* \"#utility.yul\":31583:31584   */\n      0x08\n        /* \"#utility.yul\":31579:31592   */\n      mul\n        /* \"#utility.yul\":31550:31601   */\n      tag_551\n      jump\t// in\n    tag_894:\n        /* \"#utility.yul\":31546:31602   */\n      not\n        /* \"#utility.yul\":31631:31635   */\n      dup1\n        /* \"#utility.yul\":31625:31629   */\n      dup4\n        /* \"#utility.yul\":31621:31636   */\n      and\n        /* \"#utility.yul\":31611:31636   */\n      swap2\n      pop\n        /* \"#utility.yul\":31524:31642   */\n      pop\n        /* \"#utility.yul\":31473:31642   */\n      swap3\n      swap2\n      pop\n      pop\n      jump\t// out\n        /* \"#utility.yul\":31647:31942   */\n    tag_553:\n        /* \"#utility.yul\":31723:31727   */\n      0x00\n        /* \"#utility.yul\":31869:31898   */\n      tag_896\n        /* \"#utility.yul\":31894:31897   */\n      dup4\n        /* \"#utility.yul\":31888:31892   */\n      dup4\n        /* \"#utility.yul\":31869:31898   */\n      tag_552\n      jump\t// in\n    tag_896:\n        /* \"#utility.yul\":31861:31898   */\n      swap2\n      pop\n        /* \"#utility.yul\":31931:31934   */\n      dup3\n        /* \"#utility.yul\":31928:31929   */\n      0x02\n        /* \"#utility.yul\":31924:31935   */\n      mul\n        /* \"#utility.yul\":31918:31922   */\n      dup3\n        /* \"#utility.yul\":31915:31936   */\n      or\n        /* \"#utility.yul\":31907:31936   */\n      swap1\n      pop\n        /* \"#utility.yul\":31647:31942   */\n      swap3\n      swap2\n      pop\n      pop\n      jump\t// out\n        /* \"#utility.yul\":31947:33342   */\n    tag_291:\n        /* \"#utility.yul\":32064:32101   */\n      tag_898\n        /* \"#utility.yul\":32097:32100   */\n      dup3\n        /* \"#utility.yul\":32064:32101   */\n      tag_499\n      jump\t// in\n    tag_898:\n        /* \"#utility.yul\":32166:32184   */\n      0xffffffffffffffff\n        /* \"#utility.yul\":32158:32164   */\n      dup2\n        /* \"#utility.yul\":32155:32185   */\n      gt\n        /* \"#utility.yul\":32152:32208   */\n      iszero\n      tag_899\n      jumpi\n        /* \"#utility.yul\":32188:32206   */\n      tag_900\n      tag_162\n      jump\t// in\n    tag_900:\n        /* \"#utility.yul\":32152:32208   */\n    tag_899:\n        /* \"#utility.yul\":32232:32270   */\n      tag_901\n        /* \"#utility.yul\":32264:32268   */\n      dup3\n        /* \"#utility.yul\":32258:32269   */\n      sload\n        /* \"#utility.yul\":32232:32270   */\n      tag_254\n      jump\t// in\n    tag_901:\n        /* \"#utility.yul\":32317:32384   */\n      tag_902\n        /* \"#utility.yul\":32377:32383   */\n      dup3\n        /* \"#utility.yul\":32369:32375   */\n      dup3\n        /* \"#utility.yul\":32363:32367   */\n      dup6\n        /* \"#utility.yul\":32317:32384   */\n      tag_550\n      jump\t// in\n    tag_902:\n        /* \"#utility.yul\":32411:32412   */\n      0x00\n        /* \"#utility.yul\":32435:32439   */\n      0x20\n        /* \"#utility.yul\":32422:32439   */\n      swap1\n      pop\n        /* \"#utility.yul\":32467:32469   */\n      0x1f\n        /* \"#utility.yul\":32459:32465   */\n      dup4\n        /* \"#utility.yul\":32456:32470   */\n      gt\n        /* \"#utility.yul\":32484:32485   */\n      0x01\n        /* \"#utility.yul\":32479:33097   */\n      dup2\n      eq\n      tag_904\n      jumpi\n        /* \"#utility.yul\":33141:33142   */\n      0x00\n        /* \"#utility.yul\":33158:33164   */\n      dup5\n        /* \"#utility.yul\":33155:33232   */\n      iszero\n      tag_905\n      jumpi\n        /* \"#utility.yul\":33207:33216   */\n      dup3\n        /* \"#utility.yul\":33202:33205   */\n      dup8\n        /* \"#utility.yul\":33198:33217   */\n      add\n        /* \"#utility.yul\":33192:33218   */\n      mload\n        /* \"#utility.yul\":33183:33218   */\n      swap1\n      pop\n        /* \"#utility.yul\":33155:33232   */\n    tag_905:\n        /* \"#utility.yul\":33258:33325   */\n      tag_906\n        /* \"#utility.yul\":33318:33324   */\n      dup6\n        /* \"#utility.yul\":33311:33316   */\n      dup3\n        /* \"#utility.yul\":33258:33325   */\n      tag_553\n      jump\t// in\n    tag_906:\n        /* \"#utility.yul\":33252:33256   */\n      dup7\n        /* \"#utility.yul\":33245:33326   */\n      sstore\n        /* \"#utility.yul\":33114:33336   */\n      pop\n        /* \"#utility.yul\":32449:33336   */\n      jump(tag_903)\n        /* \"#utility.yul\":32479:33097   */\n    tag_904:\n        /* \"#utility.yul\":32531:32535   */\n      0x1f\n        /* \"#utility.yul\":32527:32536   */\n      not\n        /* \"#utility.yul\":32519:32525   */\n      dup5\n        /* \"#utility.yul\":32515:32537   */\n      and\n        /* \"#utility.yul\":32565:32602   */\n      tag_907\n        /* \"#utility.yul\":32597:32601   */\n      dup7\n        /* \"#utility.yul\":32565:32602   */\n      tag_539\n      jump\t// in\n    tag_907:\n        /* \"#utility.yul\":32624:32625   */\n      0x00\n        /* \"#utility.yul\":32638:32846   */\n    tag_908:\n        /* \"#utility.yul\":32652:32659   */\n      dup3\n        /* \"#utility.yul\":32649:32650   */\n      dup2\n        /* \"#utility.yul\":32646:32660   */\n      lt\n        /* \"#utility.yul\":32638:32846   */\n      iszero\n      tag_910\n      jumpi\n        /* \"#utility.yul\":32731:32740   */\n      dup5\n        /* \"#utility.yul\":32726:32729   */\n      dup10\n        /* \"#utility.yul\":32722:32741   */\n      add\n        /* \"#utility.yul\":32716:32742   */\n      mload\n        /* \"#utility.yul\":32708:32714   */\n      dup3\n        /* \"#utility.yul\":32701:32743   */\n      sstore\n        /* \"#utility.yul\":32782:32783   */\n      0x01\n        /* \"#utility.yul\":32774:32780   */\n      dup3\n        /* \"#utility.yul\":32770:32784   */\n      add\n        /* \"#utility.yul\":32760:32784   */\n      swap2\n      pop\n        /* \"#utility.yul\":32829:32831   */\n      0x20\n        /* \"#utility.yul\":32818:32827   */\n      dup6\n        /* \"#utility.yul\":32814:32832   */\n      add\n        /* \"#utility.yul\":32801:32832   */\n      swap5\n      pop\n        /* \"#utility.yul\":32675:32679   */\n      0x20\n        /* \"#utility.yul\":32672:32673   */\n      dup2\n        /* \"#utility.yul\":32668:32680   */\n      add\n        /* \"#utility.yul\":32663:32680   */\n      swap1\n      pop\n        /* \"#utility.yul\":32638:32846   */\n      jump(tag_908)\n    tag_910:\n        /* \"#utility.yul\":32874:32880   */\n      dup7\n        /* \"#utility.yul\":32865:32872   */\n      dup4\n        /* \"#utility.yul\":32862:32881   */\n      lt\n        /* \"#utility.yul\":32859:33038   */\n      iszero\n      tag_911\n      jumpi\n        /* \"#utility.yul\":32932:32941   */\n      dup5\n        /* \"#utility.yul\":32927:32930   */\n      dup10\n        /* \"#utility.yul\":32923:32942   */\n      add\n        /* \"#utility.yul\":32917:32943   */\n      mload\n        /* \"#utility.yul\":32975:33023   */\n      tag_912\n        /* \"#utility.yul\":33017:33021   */\n      0x1f\n        /* \"#utility.yul\":33009:33015   */\n      dup10\n        /* \"#utility.yul\":33005:33022   */\n      and\n        /* \"#utility.yul\":32994:33003   */\n      dup3\n        /* \"#utility.yul\":32975:33023   */\n      tag_552\n      jump\t// in\n    tag_912:\n        /* \"#utility.yul\":32967:32973   */\n      dup4\n        /* \"#utility.yul\":32960:33024   */\n      sstore\n        /* \"#utility.yul\":32882:33038   */\n      pop\n        /* \"#utility.yul\":32859:33038   */\n    tag_911:\n        /* \"#utility.yul\":33084:33085   */\n      0x01\n        /* \"#utility.yul\":33080:33081   */\n      0x02\n        /* \"#utility.yul\":33072:33078   */\n      dup9\n        /* \"#utility.yul\":33068:33082   */\n      mul\n        /* \"#utility.yul\":33064:33086   */\n      add\n        /* \"#utility.yul\":33058:33062   */\n      dup9\n        /* \"#utility.yul\":33051:33087   */\n      sstore\n        /* \"#utility.yul\":32486:33097   */\n      pop\n      pop\n      pop\n        /* \"#utility.yul\":32449:33336   */\n    tag_903:\n      pop\n        /* \"#utility.yul\":32039:33342   */\n      pop\n      pop\n      pop\n        /* \"#utility.yul\":31947:33342   */\n      pop\n      pop\n      jump\t// out\n        /* \"#utility.yul\":33348:33761   */\n    tag_294:\n        /* \"#utility.yul\":33511:33515   */\n      0x00\n        /* \"#utility.yul\":33549:33551   */\n      0x20\n        /* \"#utility.yul\":33538:33547   */\n      dup3\n        /* \"#utility.yul\":33534:33552   */\n      add\n        /* \"#utility.yul\":33526:33552   */\n      swap1\n      pop\n        /* \"#utility.yul\":33598:33607   */\n      dup2\n        /* \"#utility.yul\":33592:33596   */\n      dup2\n        /* \"#utility.yul\":33588:33608   */\n      sub\n        /* \"#utility.yul\":33584:33585   */\n      0x00\n        /* \"#utility.yul\":33573:33582   */\n      dup4\n        /* \"#utility.yul\":33569:33586   */\n      add\n        /* \"#utility.yul\":33562:33609   */\n      mstore\n        /* \"#utility.yul\":33626:33754   */\n      tag_914\n        /* \"#utility.yul\":33749:33753   */\n      dup2\n        /* \"#utility.yul\":33740:33746   */\n      dup5\n        /* \"#utility.yul\":33626:33754   */\n      tag_505\n      jump\t// in\n    tag_914:\n        /* \"#utility.yul\":33618:33754   */\n      swap1\n      pop\n        /* \"#utility.yul\":33348:33761   */\n      swap3\n      swap2\n      pop\n      pop\n      jump\t// out\n        /* \"#utility.yul\":33767:34000   */\n    tag_554:\n        /* \"#utility.yul\":33907:33941   */\n      0x496e697469616c697a61626c653a20636f6e747261637420697320616c726561\n        /* \"#utility.yul\":33903:33904   */\n      0x00\n        /* \"#utility.yul\":33895:33901   */\n      dup3\n        /* \"#utility.yul\":33891:33905   */\n      add\n        /* \"#utility.yul\":33884:33942   */\n      mstore\n        /* \"#utility.yul\":33976:33992   */\n      0x647920696e697469616c697a6564000000000000000000000000000000000000\n        /* \"#utility.yul\":33971:33973   */\n      0x20\n        /* \"#utility.yul\":33963:33969   */\n      dup3\n        /* \"#utility.yul\":33959:33974   */\n      add\n        /* \"#utility.yul\":33952:33993   */\n      mstore\n        /* \"#utility.yul\":33767:34000   */\n      pop\n      jump\t// out\n        /* \"#utility.yul\":34006:34372   */\n    tag_555:\n        /* \"#utility.yul\":34148:34151   */\n      0x00\n        /* \"#utility.yul\":34169:34236   */\n      tag_917\n        /* \"#utility.yul\":34233:34235   */\n      0x2e\n        /* \"#utility.yul\":34228:34231   */\n      dup4\n        /* \"#utility.yul\":34169:34236   */\n      tag_522\n      jump\t// in\n    tag_917:\n        /* \"#utility.yul\":34162:34236   */\n      swap2\n      pop\n        /* \"#utility.yul\":34245:34338   */\n      tag_918\n        /* \"#utility.yul\":34334:34337   */\n      dup3\n        /* \"#utility.yul\":34245:34338   */\n      tag_554\n      jump\t// in\n    tag_918:\n        /* \"#utility.yul\":34363:34365   */\n      0x40\n        /* \"#utility.yul\":34358:34361   */\n      dup3\n        /* \"#utility.yul\":34354:34366   */\n      add\n        /* \"#utility.yul\":34347:34366   */\n      swap1\n      pop\n        /* \"#utility.yul\":34006:34372   */\n      swap2\n      swap1\n      pop\n      jump\t// out\n        /* \"#utility.yul\":34378:34797   */\n    tag_303:\n        /* \"#utility.yul\":34544:34548   */\n      0x00\n        /* \"#utility.yul\":34582:34584   */\n      0x20\n        /* \"#utility.yul\":34571:34580   */\n      dup3\n        /* \"#utility.yul\":34567:34585   */\n      add\n        /* \"#utility.yul\":34559:34585   */\n      swap1\n      pop\n        /* \"#utility.yul\":34631:34640   */\n      dup2\n        /* \"#utility.yul\":34625:34629   */\n      dup2\n        /* \"#utility.yul\":34621:34641   */\n      sub\n        /* \"#utility.yul\":34617:34618   */\n      0x00\n        /* \"#utility.yul\":34606:34615   */\n      dup4\n        /* \"#utility.yul\":34602:34619   */\n      add\n        /* \"#utility.yul\":34595:34642   */\n      mstore\n        /* \"#utility.yul\":34659:34790   */\n      tag_920\n        /* \"#utility.yul\":34785:34789   */\n      dup2\n        /* \"#utility.yul\":34659:34790   */\n      tag_555\n      jump\t// in\n    tag_920:\n        /* \"#utility.yul\":34651:34790   */\n      swap1\n      pop\n        /* \"#utility.yul\":34378:34797   */\n      swap2\n      swap1\n      pop\n      jump\t// out\n        /* \"#utility.yul\":34803:34888   */\n    tag_556:\n        /* \"#utility.yul\":34848:34855   */\n      0x00\n        /* \"#utility.yul\":34877:34882   */\n      dup2\n        /* \"#utility.yul\":34866:34882   */\n      swap1\n      pop\n        /* \"#utility.yul\":34803:34888   */\n      swap2\n      swap1\n      pop\n      jump\t// out\n        /* \"#utility.yul\":34894:34980   */\n    tag_557:\n        /* \"#utility.yul\":34929:34936   */\n      0x00\n        /* \"#utility.yul\":34969:34973   */\n      0xff\n        /* \"#utility.yul\":34962:34967   */\n      dup3\n        /* \"#utility.yul\":34958:34974   */\n      and\n        /* \"#utility.yul\":34947:34974   */\n      swap1\n      pop\n        /* \"#utility.yul\":34894:34980   */\n      swap2\n      swap1\n      pop\n      jump\t// out\n        /* \"#utility.yul\":34986:35140   */\n    tag_558:\n        /* \"#utility.yul\":35042:35051   */\n      0x00\n        /* \"#utility.yul\":35075:35134   */\n      tag_924\n        /* \"#utility.yul\":35091:35133   */\n      tag_925\n        /* \"#utility.yul\":35100:35132   */\n      tag_926\n        /* \"#utility.yul\":35126:35131   */\n      dup5\n        /* \"#utility.yul\":35100:35132   */\n      tag_556\n      jump\t// in\n    tag_926:\n        /* \"#utility.yul\":35091:35133   */\n      tag_543\n      jump\t// in\n    tag_925:\n        /* \"#utility.yul\":35075:35134   */\n      tag_557\n      jump\t// in\n    tag_924:\n        /* \"#utility.yul\":35062:35134   */\n      swap1\n      pop\n        /* \"#utility.yul\":34986:35140   */\n      swap2\n      swap1\n      pop\n      jump\t// out\n        /* \"#utility.yul\":35146:35289   */\n    tag_559:\n        /* \"#utility.yul\":35239:35282   */\n      tag_928\n        /* \"#utility.yul\":35276:35281   */\n      dup2\n        /* \"#utility.yul\":35239:35282   */\n      tag_558\n      jump\t// in\n    tag_928:\n        /* \"#utility.yul\":35234:35237   */\n      dup3\n        /* \"#utility.yul\":35227:35283   */\n      mstore\n        /* \"#utility.yul\":35146:35289   */\n      pop\n      pop\n      jump\t// out\n        /* \"#utility.yul\":35295:35529   */\n    tag_308:\n        /* \"#utility.yul\":35394:35398   */\n      0x00\n        /* \"#utility.yul\":35432:35434   */\n      0x20\n        /* \"#utility.yul\":35421:35430   */\n      dup3\n        /* \"#utility.yul\":35417:35435   */\n      add\n        /* \"#utility.yul\":35409:35435   */\n      swap1\n      pop\n        /* \"#utility.yul\":35445:35522   */\n      tag_930\n        /* \"#utility.yul\":35519:35520   */\n      0x00\n        /* \"#utility.yul\":35508:35517   */\n      dup4\n        /* \"#utility.yul\":35504:35521   */\n      add\n        /* \"#utility.yul\":35495:35501   */\n      dup5\n        /* \"#utility.yul\":35445:35522   */\n      tag_559\n      jump\t// in\n    tag_930:\n        /* \"#utility.yul\":35295:35529   */\n      swap3\n      swap2\n      pop\n      pop\n      jump\t// out\n        /* \"#utility.yul\":35535:35657   */\n    tag_560:\n        /* \"#utility.yul\":35608:35632   */\n      tag_932\n        /* \"#utility.yul\":35626:35631   */\n      dup2\n        /* \"#utility.yul\":35608:35632   */\n      tag_490\n      jump\t// in\n    tag_932:\n        /* \"#utility.yul\":35601:35606   */\n      dup2\n        /* \"#utility.yul\":35598:35633   */\n      eq\n        /* \"#utility.yul\":35588:35651   */\n      tag_933\n      jumpi\n        /* \"#utility.yul\":35647:35648   */\n      0x00\n        /* \"#utility.yul\":35644:35645   */\n      dup1\n        /* \"#utility.yul\":35637:35649   */\n      revert\n        /* \"#utility.yul\":35588:35651   */\n    tag_933:\n        /* \"#utility.yul\":35535:35657   */\n      pop\n      jump\t// out\n        /* \"#utility.yul\":35663:35806   */\n    tag_561:\n        /* \"#utility.yul\":35720:35725   */\n      0x00\n        /* \"#utility.yul\":35751:35757   */\n      dup2\n        /* \"#utility.yul\":35745:35758   */\n      mload\n        /* \"#utility.yul\":35736:35758   */\n      swap1\n      pop\n        /* \"#utility.yul\":35767:35800   */\n      tag_935\n        /* \"#utility.yul\":35794:35799   */\n      dup2\n        /* \"#utility.yul\":35767:35800   */\n      tag_560\n      jump\t// in\n    tag_935:\n        /* \"#utility.yul\":35663:35806   */\n      swap3\n      swap2\n      pop\n      pop\n      jump\t// out\n        /* \"#utility.yul\":35812:36163   */\n    tag_325:\n        /* \"#utility.yul\":35882:35888   */\n      0x00\n        /* \"#utility.yul\":35931:35933   */\n      0x20\n        /* \"#utility.yul\":35919:35928   */\n      dup3\n        /* \"#utility.yul\":35910:35917   */\n      dup5\n        /* \"#utility.yul\":35906:35929   */\n      sub\n        /* \"#utility.yul\":35902:35934   */\n      slt\n        /* \"#utility.yul\":35899:36018   */\n      iszero\n      tag_937\n      jumpi\n        /* \"#utility.yul\":35937:36016   */\n      tag_938\n      tag_468\n      jump\t// in\n    tag_938:\n        /* \"#utility.yul\":35899:36018   */\n    tag_937:\n        /* \"#utility.yul\":36057:36058   */\n      0x00\n        /* \"#utility.yul\":36082:36146   */\n      tag_939\n        /* \"#utility.yul\":36138:36145   */\n      dup5\n        /* \"#utility.yul\":36129:36135   */\n      dup3\n        /* \"#utility.yul\":36118:36127   */\n      dup6\n        /* \"#utility.yul\":36114:36136   */\n      add\n        /* \"#utility.yul\":36082:36146   */\n      tag_561\n      jump\t// in\n    tag_939:\n        /* \"#utility.yul\":36072:36146   */\n      swap2\n      pop\n        /* \"#utility.yul\":36028:36156   */\n      pop\n        /* \"#utility.yul\":35812:36163   */\n      swap3\n      swap2\n      pop\n      pop\n      jump\t// out\n        /* \"#utility.yul\":36169:36402   */\n    tag_562:\n        /* \"#utility.yul\":36309:36343   */\n      0x45524331393637557067726164653a206e657720696d706c656d656e74617469\n        /* \"#utility.yul\":36305:36306   */\n      0x00\n        /* \"#utility.yul\":36297:36303   */\n      dup3\n        /* \"#utility.yul\":36293:36307   */\n      add\n        /* \"#utility.yul\":36286:36344   */\n      mstore\n        /* \"#utility.yul\":36378:36394   */\n      0x6f6e206973206e6f742055555053000000000000000000000000000000000000\n        /* \"#utility.yul\":36373:36375   */\n      0x20\n        /* \"#utility.yul\":36365:36371   */\n      dup3\n        /* \"#utility.yul\":36361:36376   */\n      add\n        /* \"#utility.yul\":36354:36395   */\n      mstore\n        /* \"#utility.yul\":36169:36402   */\n      pop\n      jump\t// out\n        /* \"#utility.yul\":36408:36774   */\n    tag_563:\n        /* \"#utility.yul\":36550:36553   */\n      0x00\n        /* \"#utility.yul\":36571:36638   */\n      tag_942\n        /* \"#utility.yul\":36635:36637   */\n      0x2e\n        /* \"#utility.yul\":36630:36633   */\n      dup4\n        /* \"#utility.yul\":36571:36638   */\n      tag_522\n      jump\t// in\n    tag_942:\n        /* \"#utility.yul\":36564:36638   */\n      swap2\n      pop\n        /* \"#utility.yul\":36647:36740   */\n      tag_943\n        /* \"#utility.yul\":36736:36739   */\n      dup3\n        /* \"#utility.yul\":36647:36740   */\n      tag_562\n      jump\t// in\n    tag_943:\n        /* \"#utility.yul\":36765:36767   */\n      0x40\n        /* \"#utility.yul\":36760:36763   */\n      dup3\n        /* \"#utility.yul\":36756:36768   */\n      add\n        /* \"#utility.yul\":36749:36768   */\n      swap1\n      pop\n        /* \"#utility.yul\":36408:36774   */\n      swap2\n      swap1\n      pop\n      jump\t// out\n        /* \"#utility.yul\":36780:37199   */\n    tag_331:\n        /* \"#utility.yul\":36946:36950   */\n      0x00\n        /* \"#utility.yul\":36984:36986   */\n      0x20\n        /* \"#utility.yul\":36973:36982   */\n      dup3\n        /* \"#utility.yul\":36969:36987   */\n      add\n        /* \"#utility.yul\":36961:36987   */\n      swap1\n      pop\n        /* \"#utility.yul\":37033:37042   */\n      dup2\n        /* \"#utility.yul\":37027:37031   */\n      dup2\n        /* \"#utility.yul\":37023:37043   */\n      sub\n        /* \"#utility.yul\":37019:37020   */\n      0x00\n        /* \"#utility.yul\":37008:37017   */\n      dup4\n        /* \"#utility.yul\":37004:37021   */\n      add\n        /* \"#utility.yul\":36997:37044   */\n      mstore\n        /* \"#utility.yul\":37061:37192   */\n      tag_945\n        /* \"#utility.yul\":37187:37191   */\n      dup2\n        /* \"#utility.yul\":37061:37192   */\n      tag_563\n      jump\t// in\n    tag_945:\n        /* \"#utility.yul\":37053:37192   */\n      swap1\n      pop\n        /* \"#utility.yul\":36780:37199   */\n      swap2\n      swap1\n      pop\n      jump\t// out\n        /* \"#utility.yul\":37205:37433   */\n    tag_564:\n        /* \"#utility.yul\":37345:37379   */\n      0x45524331393637557067726164653a20756e737570706f727465642070726f78\n        /* \"#utility.yul\":37341:37342   */\n      0x00\n        /* \"#utility.yul\":37333:37339   */\n      dup3\n        /* \"#utility.yul\":37329:37343   */\n      add\n        /* \"#utility.yul\":37322:37380   */\n      mstore\n        /* \"#utility.yul\":37414:37425   */\n      0x6961626c65555549440000000000000000000000000000000000000000000000\n        /* \"#utility.yul\":37409:37411   */\n      0x20\n        /* \"#utility.yul\":37401:37407   */\n      dup3\n        /* \"#utility.yul\":37397:37412   */\n      add\n        /* \"#utility.yul\":37390:37426   */\n      mstore\n        /* \"#utility.yul\":37205:37433   */\n      pop\n      jump\t// out\n        /* \"#utility.yul\":37439:37805   */\n    tag_565:\n        /* \"#utility.yul\":37581:37584   */\n      0x00\n        /* \"#utility.yul\":37602:37669   */\n      tag_948\n        /* \"#utility.yul\":37666:37668   */\n      0x29\n        /* \"#utility.yul\":37661:37664   */\n      dup4\n        /* \"#utility.yul\":37602:37669   */\n      tag_522\n      jump\t// in\n    tag_948:\n        /* \"#utility.yul\":37595:37669   */\n      swap2\n      pop\n        /* \"#utility.yul\":37678:37771   */\n      tag_949\n        /* \"#utility.yul\":37767:37770   */\n      dup3\n        /* \"#utility.yul\":37678:37771   */\n      tag_564\n      jump\t// in\n    tag_949:\n        /* \"#utility.yul\":37796:37798   */\n      0x40\n        /* \"#utility.yul\":37791:37794   */\n      dup3\n        /* \"#utility.yul\":37787:37799   */\n      add\n        /* \"#utility.yul\":37780:37799   */\n      swap1\n      pop\n        /* \"#utility.yul\":37439:37805   */\n      swap2\n      swap1\n      pop\n      jump\t// out\n        /* \"#utility.yul\":37811:38230   */\n    tag_335:\n        /* \"#utility.yul\":37977:37981   */\n      0x00\n        /* \"#utility.yul\":38015:38017   */\n      0x20\n        /* \"#utility.yul\":38004:38013   */\n      dup3\n        /* \"#utility.yul\":38000:38018   */\n      add\n        /* \"#utility.yul\":37992:38018   */\n      swap1\n      pop\n        /* \"#utility.yul\":38064:38073   */\n      dup2\n        /* \"#utility.yul\":38058:38062   */\n      dup2\n        /* \"#utility.yul\":38054:38074   */\n      sub\n        /* \"#utility.yul\":38050:38051   */\n      0x00\n        /* \"#utility.yul\":38039:38048   */\n      dup4\n        /* \"#utility.yul\":38035:38052   */\n      add\n        /* \"#utility.yul\":38028:38075   */\n      mstore\n        /* \"#utility.yul\":38092:38223   */\n      tag_951\n        /* \"#utility.yul\":38218:38222   */\n      dup2\n        /* \"#utility.yul\":38092:38223   */\n      tag_565\n      jump\t// in\n    tag_951:\n        /* \"#utility.yul\":38084:38223   */\n      swap1\n      pop\n        /* \"#utility.yul\":37811:38230   */\n      swap2\n      swap1\n      pop\n      jump\t// out\n        /* \"#utility.yul\":38236:38646   */\n    tag_369:\n        /* \"#utility.yul\":38276:38283   */\n      0x00\n        /* \"#utility.yul\":38299:38319   */\n      tag_953\n        /* \"#utility.yul\":38317:38318   */\n      dup3\n        /* \"#utility.yul\":38299:38319   */\n      tag_470\n      jump\t// in\n    tag_953:\n        /* \"#utility.yul\":38294:38319   */\n      swap2\n      pop\n        /* \"#utility.yul\":38333:38353   */\n      tag_954\n        /* \"#utility.yul\":38351:38352   */\n      dup4\n        /* \"#utility.yul\":38333:38353   */\n      tag_470\n      jump\t// in\n    tag_954:\n        /* \"#utility.yul\":38328:38353   */\n      swap3\n      pop\n        /* \"#utility.yul\":38388:38389   */\n      dup3\n        /* \"#utility.yul\":38385:38386   */\n      dup3\n        /* \"#utility.yul\":38381:38390   */\n      mul\n        /* \"#utility.yul\":38410:38440   */\n      tag_955\n        /* \"#utility.yul\":38428:38439   */\n      dup2\n        /* \"#utility.yul\":38410:38440   */\n      tag_470\n      jump\t// in\n    tag_955:\n        /* \"#utility.yul\":38399:38440   */\n      swap2\n      pop\n        /* \"#utility.yul\":38589:38590   */\n      dup3\n        /* \"#utility.yul\":38580:38587   */\n      dup3\n        /* \"#utility.yul\":38576:38591   */\n      div\n        /* \"#utility.yul\":38573:38574   */\n      dup5\n        /* \"#utility.yul\":38570:38592   */\n      eq\n        /* \"#utility.yul\":38550:38551   */\n      dup4\n        /* \"#utility.yul\":38543:38552   */\n      iszero\n        /* \"#utility.yul\":38523:38606   */\n      or\n        /* \"#utility.yul\":38500:38639   */\n      tag_956\n      jumpi\n        /* \"#utility.yul\":38619:38637   */\n      tag_957\n      tag_525\n      jump\t// in\n    tag_957:\n        /* \"#utility.yul\":38500:38639   */\n    tag_956:\n        /* \"#utility.yul\":38284:38646   */\n      pop\n        /* \"#utility.yul\":38236:38646   */\n      swap3\n      swap2\n      pop\n      pop\n      jump\t// out\n        /* \"#utility.yul\":38652:38832   */\n    tag_566:\n        /* \"#utility.yul\":38700:38777   */\n      0x4e487b7100000000000000000000000000000000000000000000000000000000\n        /* \"#utility.yul\":38697:38698   */\n      0x00\n        /* \"#utility.yul\":38690:38778   */\n      mstore\n        /* \"#utility.yul\":38797:38801   */\n      0x12\n        /* \"#utility.yul\":38794:38795   */\n      0x04\n        /* \"#utility.yul\":38787:38802   */\n      mstore\n        /* \"#utility.yul\":38821:38825   */\n      0x24\n        /* \"#utility.yul\":38818:38819   */\n      0x00\n        /* \"#utility.yul\":38811:38826   */\n      revert\n        /* \"#utility.yul\":38838:39023   */\n    tag_371:\n        /* \"#utility.yul\":38878:38879   */\n      0x00\n        /* \"#utility.yul\":38895:38915   */\n      tag_960\n        /* \"#utility.yul\":38913:38914   */\n      dup3\n        /* \"#utility.yul\":38895:38915   */\n      tag_470\n      jump\t// in\n    tag_960:\n        /* \"#utility.yul\":38890:38915   */\n      swap2\n      pop\n        /* \"#utility.yul\":38929:38949   */\n      tag_961\n        /* \"#utility.yul\":38947:38948   */\n      dup4\n        /* \"#utility.yul\":38929:38949   */\n      tag_470\n      jump\t// in\n    tag_961:\n        /* \"#utility.yul\":38924:38949   */\n      swap3\n      pop\n        /* \"#utility.yul\":38968:38969   */\n      dup3\n        /* \"#utility.yul\":38958:38993   */\n      tag_962\n      jumpi\n        /* \"#utility.yul\":38973:38991   */\n      tag_963\n      tag_566\n      jump\t// in\n    tag_963:\n        /* \"#utility.yul\":38958:38993   */\n    tag_962:\n        /* \"#utility.yul\":39015:39016   */\n      dup3\n        /* \"#utility.yul\":39012:39013   */\n      dup3\n        /* \"#utility.yul\":39008:39017   */\n      div\n        /* \"#utility.yul\":39003:39017   */\n      swap1\n      pop\n        /* \"#utility.yul\":38838:39023   */\n      swap3\n      swap2\n      pop\n      pop\n      jump\t// out\n        /* \"#utility.yul\":39029:39143   */\n    tag_567:\n        /* \"#utility.yul\":39096:39102   */\n      0x00\n        /* \"#utility.yul\":39130:39135   */\n      dup2\n        /* \"#utility.yul\":39124:39136   */\n      mload\n        /* \"#utility.yul\":39114:39136   */\n      swap1\n      pop\n        /* \"#utility.yul\":39029:39143   */\n      swap2\n      swap1\n      pop\n      jump\t// out\n        /* \"#utility.yul\":39149:39333   */\n    tag_568:\n        /* \"#utility.yul\":39248:39259   */\n      0x00\n        /* \"#utility.yul\":39282:39288   */\n      dup3\n        /* \"#utility.yul\":39277:39280   */\n      dup3\n        /* \"#utility.yul\":39270:39289   */\n      mstore\n        /* \"#utility.yul\":39322:39326   */\n      0x20\n        /* \"#utility.yul\":39317:39320   */\n      dup3\n        /* \"#utility.yul\":39313:39327   */\n      add\n        /* \"#utility.yul\":39298:39327   */\n      swap1\n      pop\n        /* \"#utility.yul\":39149:39333   */\n      swap3\n      swap2\n      pop\n      pop\n      jump\t// out\n        /* \"#utility.yul\":39339:39471   */\n    tag_569:\n        /* \"#utility.yul\":39406:39410   */\n      0x00\n        /* \"#utility.yul\":39429:39432   */\n      dup2\n        /* \"#utility.yul\":39421:39432   */\n      swap1\n      pop\n        /* \"#utility.yul\":39459:39463   */\n      0x20\n        /* \"#utility.yul\":39454:39457   */\n      dup3\n        /* \"#utility.yul\":39450:39464   */\n      add\n        /* \"#utility.yul\":39442:39464   */\n      swap1\n      pop\n        /* \"#utility.yul\":39339:39471   */\n      swap2\n      swap1\n      pop\n      jump\t// out\n        /* \"#utility.yul\":39477:39585   */\n    tag_570:\n        /* \"#utility.yul\":39554:39578   */\n      tag_968\n        /* \"#utility.yul\":39572:39577   */\n      dup2\n        /* \"#utility.yul\":39554:39578   */\n      tag_474\n      jump\t// in\n    tag_968:\n        /* \"#utility.yul\":39549:39552   */\n      dup3\n        /* \"#utility.yul\":39542:39579   */\n      mstore\n        /* \"#utility.yul\":39477:39585   */\n      pop\n      pop\n      jump\t// out\n        /* \"#utility.yul\":39591:39770   */\n    tag_571:\n        /* \"#utility.yul\":39660:39670   */\n      0x00\n        /* \"#utility.yul\":39681:39727   */\n      tag_970\n        /* \"#utility.yul\":39723:39726   */\n      dup4\n        /* \"#utility.yul\":39715:39721   */\n      dup4\n        /* \"#utility.yul\":39681:39727   */\n      tag_570\n      jump\t// in\n    tag_970:\n        /* \"#utility.yul\":39759:39763   */\n      0x20\n        /* \"#utility.yul\":39754:39757   */\n      dup4\n        /* \"#utility.yul\":39750:39764   */\n      add\n        /* \"#utility.yul\":39736:39764   */\n      swap1\n      pop\n        /* \"#utility.yul\":39591:39770   */\n      swap3\n      swap2\n      pop\n      pop\n      jump\t// out\n        /* \"#utility.yul\":39776:39889   */\n    tag_572:\n        /* \"#utility.yul\":39846:39850   */\n      0x00\n        /* \"#utility.yul\":39878:39882   */\n      0x20\n        /* \"#utility.yul\":39873:39876   */\n      dup3\n        /* \"#utility.yul\":39869:39883   */\n      add\n        /* \"#utility.yul\":39861:39883   */\n      swap1\n      pop\n        /* \"#utility.yul\":39776:39889   */\n      swap2\n      swap1\n      pop\n      jump\t// out\n        /* \"#utility.yul\":39925:40657   */\n    tag_573:\n        /* \"#utility.yul\":40044:40047   */\n      0x00\n        /* \"#utility.yul\":40073:40127   */\n      tag_973\n        /* \"#utility.yul\":40121:40126   */\n      dup3\n        /* \"#utility.yul\":40073:40127   */\n      tag_567\n      jump\t// in\n    tag_973:\n        /* \"#utility.yul\":40143:40229   */\n      tag_974\n        /* \"#utility.yul\":40222:40228   */\n      dup2\n        /* \"#utility.yul\":40217:40220   */\n      dup6\n        /* \"#utility.yul\":40143:40229   */\n      tag_568\n      jump\t// in\n    tag_974:\n        /* \"#utility.yul\":40136:40229   */\n      swap4\n      pop\n        /* \"#utility.yul\":40253:40309   */\n      tag_975\n        /* \"#utility.yul\":40303:40308   */\n      dup4\n        /* \"#utility.yul\":40253:40309   */\n      tag_569\n      jump\t// in\n    tag_975:\n        /* \"#utility.yul\":40332:40339   */\n      dup1\n        /* \"#utility.yul\":40363:40364   */\n      0x00\n        /* \"#utility.yul\":40348:40632   */\n    tag_976:\n        /* \"#utility.yul\":40373:40379   */\n      dup4\n        /* \"#utility.yul\":40370:40371   */\n      dup2\n        /* \"#utility.yul\":40367:40380   */\n      lt\n        /* \"#utility.yul\":40348:40632   */\n      iszero\n      tag_978\n      jumpi\n        /* \"#utility.yul\":40449:40455   */\n      dup2\n        /* \"#utility.yul\":40443:40456   */\n      mload\n        /* \"#utility.yul\":40476:40539   */\n      tag_979\n        /* \"#utility.yul\":40535:40538   */\n      dup9\n        /* \"#utility.yul\":40520:40533   */\n      dup3\n        /* \"#utility.yul\":40476:40539   */\n      tag_571\n      jump\t// in\n    tag_979:\n        /* \"#utility.yul\":40469:40539   */\n      swap8\n      pop\n        /* \"#utility.yul\":40562:40622   */\n      tag_980\n        /* \"#utility.yul\":40615:40621   */\n      dup4\n        /* \"#utility.yul\":40562:40622   */\n      tag_572\n      jump\t// in\n    tag_980:\n        /* \"#utility.yul\":40552:40622   */\n      swap3\n      pop\n        /* \"#utility.yul\":40408:40632   */\n      pop\n        /* \"#utility.yul\":40395:40396   */\n      0x01\n        /* \"#utility.yul\":40392:40393   */\n      dup2\n        /* \"#utility.yul\":40388:40397   */\n      add\n        /* \"#utility.yul\":40383:40397   */\n      swap1\n      pop\n        /* \"#utility.yul\":40348:40632   */\n      jump(tag_976)\n    tag_978:\n        /* \"#utility.yul\":40352:40366   */\n      pop\n        /* \"#utility.yul\":40648:40651   */\n      dup6\n        /* \"#utility.yul\":40641:40651   */\n      swap4\n      pop\n        /* \"#utility.yul\":40049:40657   */\n      pop\n      pop\n      pop\n        /* \"#utility.yul\":39925:40657   */\n      swap3\n      swap2\n      pop\n      pop\n      jump\t// out\n        /* \"#utility.yul\":40663:41256   */\n    tag_382:\n        /* \"#utility.yul\":40862:40866   */\n      0x00\n        /* \"#utility.yul\":40900:40902   */\n      0x60\n        /* \"#utility.yul\":40889:40898   */\n      dup3\n        /* \"#utility.yul\":40885:40903   */\n      add\n        /* \"#utility.yul\":40877:40903   */\n      swap1\n      pop\n        /* \"#utility.yul\":40949:40958   */\n      dup2\n        /* \"#utility.yul\":40943:40947   */\n      dup2\n        /* \"#utility.yul\":40939:40959   */\n      sub\n        /* \"#utility.yul\":40935:40936   */\n      0x00\n        /* \"#utility.yul\":40924:40933   */\n      dup4\n        /* \"#utility.yul\":40920:40937   */\n      add\n        /* \"#utility.yul\":40913:40960   */\n      mstore\n        /* \"#utility.yul\":40977:41085   */\n      tag_982\n        /* \"#utility.yul\":41080:41084   */\n      dup2\n        /* \"#utility.yul\":41071:41077   */\n      dup7\n        /* \"#utility.yul\":40977:41085   */\n      tag_573\n      jump\t// in\n    tag_982:\n        /* \"#utility.yul\":40969:41085   */\n      swap1\n      pop\n        /* \"#utility.yul\":41095:41167   */\n      tag_983\n        /* \"#utility.yul\":41163:41165   */\n      0x20\n        /* \"#utility.yul\":41152:41161   */\n      dup4\n        /* \"#utility.yul\":41148:41166   */\n      add\n        /* \"#utility.yul\":41139:41145   */\n      dup6\n        /* \"#utility.yul\":41095:41167   */\n      tag_479\n      jump\t// in\n    tag_983:\n        /* \"#utility.yul\":41177:41249   */\n      tag_984\n        /* \"#utility.yul\":41245:41247   */\n      0x40\n        /* \"#utility.yul\":41234:41243   */\n      dup4\n        /* \"#utility.yul\":41230:41248   */\n      add\n        /* \"#utility.yul\":41221:41227   */\n      dup5\n        /* \"#utility.yul\":41177:41249   */\n      tag_479\n      jump\t// in\n    tag_984:\n        /* \"#utility.yul\":40663:41256   */\n      swap5\n      swap4\n      pop\n      pop\n      pop\n      pop\n      jump\t// out\n        /* \"#utility.yul\":41262:41494   */\n    tag_574:\n        /* \"#utility.yul\":41402:41436   */\n      0x455243313936373a206e657720696d706c656d656e746174696f6e206973206e\n        /* \"#utility.yul\":41398:41399   */\n      0x00\n        /* \"#utility.yul\":41390:41396   */\n      dup3\n        /* \"#utility.yul\":41386:41400   */\n      add\n        /* \"#utility.yul\":41379:41437   */\n      mstore\n        /* \"#utility.yul\":41471:41486   */\n      0x6f74206120636f6e747261637400000000000000000000000000000000000000\n        /* \"#utility.yul\":41466:41468   */\n      0x20\n        /* \"#utility.yul\":41458:41464   */\n      dup3\n        /* \"#utility.yul\":41454:41469   */\n      add\n        /* \"#utility.yul\":41447:41487   */\n      mstore\n        /* \"#utility.yul\":41262:41494   */\n      pop\n      jump\t// out\n        /* \"#utility.yul\":41500:41866   */\n    tag_575:\n        /* \"#utility.yul\":41642:41645   */\n      0x00\n        /* \"#utility.yul\":41663:41730   */\n      tag_987\n        /* \"#utility.yul\":41727:41729   */\n      0x2d\n        /* \"#utility.yul\":41722:41725   */\n      dup4\n        /* \"#utility.yul\":41663:41730   */\n      tag_522\n      jump\t// in\n    tag_987:\n        /* \"#utility.yul\":41656:41730   */\n      swap2\n      pop\n        /* \"#utility.yul\":41739:41832   */\n      tag_988\n        /* \"#utility.yul\":41828:41831   */\n      dup3\n        /* \"#utility.yul\":41739:41832   */\n      tag_574\n      jump\t// in\n    tag_988:\n        /* \"#utility.yul\":41857:41859   */\n      0x40\n        /* \"#utility.yul\":41852:41855   */\n      dup3\n        /* \"#utility.yul\":41848:41860   */\n      add\n        /* \"#utility.yul\":41841:41860   */\n      swap1\n      pop\n        /* \"#utility.yul\":41500:41866   */\n      swap2\n      swap1\n      pop\n      jump\t// out\n        /* \"#utility.yul\":41872:42291   */\n    tag_410:\n        /* \"#utility.yul\":42038:42042   */\n      0x00\n        /* \"#utility.yul\":42076:42078   */\n      0x20\n        /* \"#utility.yul\":42065:42074   */\n      dup3\n        /* \"#utility.yul\":42061:42079   */\n      add\n        /* \"#utility.yul\":42053:42079   */\n      swap1\n      pop\n        /* \"#utility.yul\":42125:42134   */\n      dup2\n        /* \"#utility.yul\":42119:42123   */\n      dup2\n        /* \"#utility.yul\":42115:42135   */\n      sub\n        /* \"#utility.yul\":42111:42112   */\n      0x00\n        /* \"#utility.yul\":42100:42109   */\n      dup4\n        /* \"#utility.yul\":42096:42113   */\n      add\n        /* \"#utility.yul\":42089:42136   */\n      mstore\n        /* \"#utility.yul\":42153:42284   */\n      tag_990\n        /* \"#utility.yul\":42279:42283   */\n      dup2\n        /* \"#utility.yul\":42153:42284   */\n      tag_575\n      jump\t// in\n    tag_990:\n        /* \"#utility.yul\":42145:42284   */\n      swap1\n      pop\n        /* \"#utility.yul\":41872:42291   */\n      swap2\n      swap1\n      pop\n      jump\t// out\n        /* \"#utility.yul\":42297:42625   */\n    tag_432:\n        /* \"#utility.yul\":42416:42420   */\n      0x00\n        /* \"#utility.yul\":42454:42456   */\n      0x40\n        /* \"#utility.yul\":42443:42452   */\n      dup3\n        /* \"#utility.yul\":42439:42457   */\n      add\n        /* \"#utility.yul\":42431:42457   */\n      swap1\n      pop\n        /* \"#utility.yul\":42467:42538   */\n      tag_992\n        /* \"#utility.yul\":42535:42536   */\n      0x00\n        /* \"#utility.yul\":42524:42533   */\n      dup4\n        /* \"#utility.yul\":42520:42537   */\n      add\n        /* \"#utility.yul\":42511:42517   */\n      dup6\n        /* \"#utility.yul\":42467:42538   */\n      tag_479\n      jump\t// in\n    tag_992:\n        /* \"#utility.yul\":42548:42618   */\n      tag_993\n        /* \"#utility.yul\":42614:42616   */\n      0x20\n        /* \"#utility.yul\":42603:42612   */\n      dup4\n        /* \"#utility.yul\":42599:42617   */\n      add\n        /* \"#utility.yul\":42590:42596   */\n      dup5\n        /* \"#utility.yul\":42548:42618   */\n      tag_478\n      jump\t// in\n    tag_993:\n        /* \"#utility.yul\":42297:42625   */\n      swap4\n      swap3\n      pop\n      pop\n      pop\n      jump\t// out\n        /* \"#utility.yul\":42631:43187   */\n    tag_436:\n        /* \"#utility.yul\":42670:42677   */\n      0x00\n        /* \"#utility.yul\":42693:42712   */\n      tag_995\n        /* \"#utility.yul\":42710:42711   */\n      dup3\n        /* \"#utility.yul\":42693:42712   */\n      tag_477\n      jump\t// in\n    tag_995:\n        /* \"#utility.yul\":42688:42712   */\n      swap2\n      pop\n        /* \"#utility.yul\":42726:42745   */\n      tag_996\n        /* \"#utility.yul\":42743:42744   */\n      dup4\n        /* \"#utility.yul\":42726:42745   */\n      tag_477\n      jump\t// in\n    tag_996:\n        /* \"#utility.yul\":42721:42745   */\n      swap3\n      pop\n        /* \"#utility.yul\":42780:42781   */\n      dup3\n        /* \"#utility.yul\":42777:42778   */\n      dup3\n        /* \"#utility.yul\":42773:42782   */\n      mul\n        /* \"#utility.yul\":42802:42831   */\n      tag_997\n        /* \"#utility.yul\":42819:42830   */\n      dup2\n        /* \"#utility.yul\":42802:42831   */\n      tag_477\n      jump\t// in\n    tag_997:\n        /* \"#utility.yul\":42791:42831   */\n      swap2\n      pop\n        /* \"#utility.yul\":42889:42955   */\n      0x8000000000000000000000000000000000000000000000000000000000000000\n        /* \"#utility.yul\":42886:42887   */\n      dup5\n        /* \"#utility.yul\":42883:42956   */\n      eq\n        /* \"#utility.yul\":42879:42880   */\n      0x00\n        /* \"#utility.yul\":42876:42877   */\n      dup5\n        /* \"#utility.yul\":42872:42881   */\n      slt\n        /* \"#utility.yul\":42868:42957   */\n      and\n        /* \"#utility.yul\":42865:42980   */\n      iszero\n      tag_998\n      jumpi\n        /* \"#utility.yul\":42960:42978   */\n      tag_999\n      tag_525\n      jump\t// in\n    tag_999:\n        /* \"#utility.yul\":42865:42980   */\n    tag_998:\n        /* \"#utility.yul\":43130:43131   */\n      dup3\n        /* \"#utility.yul\":43121:43128   */\n      dup3\n        /* \"#utility.yul\":43116:43132   */\n      sdiv\n        /* \"#utility.yul\":43113:43114   */\n      dup5\n        /* \"#utility.yul\":43110:43133   */\n      eq\n        /* \"#utility.yul\":43090:43091   */\n      dup4\n        /* \"#utility.yul\":43083:43092   */\n      iszero\n        /* \"#utility.yul\":43063:43147   */\n      or\n        /* \"#utility.yul\":43040:43180   */\n      tag_1000\n      jumpi\n        /* \"#utility.yul\":43160:43178   */\n      tag_1001\n      tag_525\n      jump\t// in\n    tag_1001:\n        /* \"#utility.yul\":43040:43180   */\n    tag_1000:\n        /* \"#utility.yul\":42678:43187   */\n      pop\n        /* \"#utility.yul\":42631:43187   */\n      swap3\n      swap2\n      pop\n      pop\n      jump\t// out\n        /* \"#utility.yul\":43193:43291   */\n    tag_576:\n        /* \"#utility.yul\":43244:43250   */\n      0x00\n        /* \"#utility.yul\":43278:43283   */\n      dup2\n        /* \"#utility.yul\":43272:43284   */\n      mload\n        /* \"#utility.yul\":43262:43284   */\n      swap1\n      pop\n        /* \"#utility.yul\":43193:43291   */\n      swap2\n      swap1\n      pop\n      jump\t// out\n        /* \"#utility.yul\":43297:43444   */\n    tag_577:\n        /* \"#utility.yul\":43398:43409   */\n      0x00\n        /* \"#utility.yul\":43435:43438   */\n      dup2\n        /* \"#utility.yul\":43420:43438   */\n      swap1\n      pop\n        /* \"#utility.yul\":43297:43444   */\n      swap3\n      swap2\n      pop\n      pop\n      jump\t// out\n        /* \"#utility.yul\":43450:43836   */\n    tag_578:\n        /* \"#utility.yul\":43554:43557   */\n      0x00\n        /* \"#utility.yul\":43582:43620   */\n      tag_1005\n        /* \"#utility.yul\":43614:43619   */\n      dup3\n        /* \"#utility.yul\":43582:43620   */\n      tag_576\n      jump\t// in\n    tag_1005:\n        /* \"#utility.yul\":43636:43724   */\n      tag_1006\n        /* \"#utility.yul\":43717:43723   */\n      dup2\n        /* \"#utility.yul\":43712:43715   */\n      dup6\n        /* \"#utility.yul\":43636:43724   */\n      tag_577\n      jump\t// in\n    tag_1006:\n        /* \"#utility.yul\":43629:43724   */\n      swap4\n      pop\n        /* \"#utility.yul\":43733:43798   */\n      tag_1007\n        /* \"#utility.yul\":43791:43797   */\n      dup2\n        /* \"#utility.yul\":43786:43789   */\n      dup6\n        /* \"#utility.yul\":43779:43783   */\n      0x20\n        /* \"#utility.yul\":43772:43777   */\n      dup7\n        /* \"#utility.yul\":43768:43784   */\n      add\n        /* \"#utility.yul\":43733:43798   */\n      tag_501\n      jump\t// in\n    tag_1007:\n        /* \"#utility.yul\":43823:43829   */\n      dup1\n        /* \"#utility.yul\":43818:43821   */\n      dup5\n        /* \"#utility.yul\":43814:43830   */\n      add\n        /* \"#utility.yul\":43807:43830   */\n      swap2\n      pop\n        /* \"#utility.yul\":43558:43836   */\n      pop\n        /* \"#utility.yul\":43450:43836   */\n      swap3\n      swap2\n      pop\n      pop\n      jump\t// out\n        /* \"#utility.yul\":43842:44113   */\n    tag_446:\n        /* \"#utility.yul\":43972:43975   */\n      0x00\n        /* \"#utility.yul\":43994:44087   */\n      tag_1009\n        /* \"#utility.yul\":44083:44086   */\n      dup3\n        /* \"#utility.yul\":44074:44080   */\n      dup5\n        /* \"#utility.yul\":43994:44087   */\n      tag_578\n      jump\t// in\n    tag_1009:\n        /* \"#utility.yul\":43987:44087   */\n      swap2\n      pop\n        /* \"#utility.yul\":44104:44107   */\n      dup2\n        /* \"#utility.yul\":44097:44107   */\n      swap1\n      pop\n        /* \"#utility.yul\":43842:44113   */\n      swap3\n      swap2\n      pop\n      pop\n      jump\t// out\n        /* \"#utility.yul\":44119:44298   */\n    tag_579:\n        /* \"#utility.yul\":44259:44290   */\n      0x416464726573733a2063616c6c20746f206e6f6e2d636f6e7472616374000000\n        /* \"#utility.yul\":44255:44256   */\n      0x00\n        /* \"#utility.yul\":44247:44253   */\n      dup3\n        /* \"#utility.yul\":44243:44257   */\n      add\n        /* \"#utility.yul\":44236:44291   */\n      mstore\n        /* \"#utility.yul\":44119:44298   */\n      pop\n      jump\t// out\n        /* \"#utility.yul\":44304:44670   */\n    tag_580:\n        /* \"#utility.yul\":44446:44449   */\n      0x00\n        /* \"#utility.yul\":44467:44534   */\n      tag_1012\n        /* \"#utility.yul\":44531:44533   */\n      0x1d\n        /* \"#utility.yul\":44526:44529   */\n      dup4\n        /* \"#utility.yul\":44467:44534   */\n      tag_522\n      jump\t// in\n    tag_1012:\n        /* \"#utility.yul\":44460:44534   */\n      swap2\n      pop\n        /* \"#utility.yul\":44543:44636   */\n      tag_1013\n        /* \"#utility.yul\":44632:44635   */\n      dup3\n        /* \"#utility.yul\":44543:44636   */\n      tag_579\n      jump\t// in\n    tag_1013:\n        /* \"#utility.yul\":44661:44663   */\n      0x20\n        /* \"#utility.yul\":44656:44659   */\n      dup3\n        /* \"#utility.yul\":44652:44664   */\n      add\n        /* \"#utility.yul\":44645:44664   */\n      swap1\n      pop\n        /* \"#utility.yul\":44304:44670   */\n      swap2\n      swap1\n      pop\n      jump\t// out\n        /* \"#utility.yul\":44676:45095   */\n    tag_458:\n        /* \"#utility.yul\":44842:44846   */\n      0x00\n        /* \"#utility.yul\":44880:44882   */\n      0x20\n        /* \"#utility.yul\":44869:44878   */\n      dup3\n        /* \"#utility.yul\":44865:44883   */\n      add\n        /* \"#utility.yul\":44857:44883   */\n      swap1\n      pop\n        /* \"#utility.yul\":44929:44938   */\n      dup2\n        /* \"#utility.yul\":44923:44927   */\n      dup2\n        /* \"#utility.yul\":44919:44939   */\n      sub\n        /* \"#utility.yul\":44915:44916   */\n      0x00\n        /* \"#utility.yul\":44904:44913   */\n      dup4\n        /* \"#utility.yul\":44900:44917   */\n      add\n        /* \"#utility.yul\":44893:44940   */\n      mstore\n        /* \"#utility.yul\":44957:45088   */\n      tag_1015\n        /* \"#utility.yul\":45083:45087   */\n      dup2\n        /* \"#utility.yul\":44957:45088   */\n      tag_580\n      jump\t// in\n    tag_1015:\n        /* \"#utility.yul\":44949:45088   */\n      swap1\n      pop\n        /* \"#utility.yul\":44676:45095   */\n      swap2\n      swap1\n      pop\n      jump\t// out\n        /* \"#utility.yul\":45101:45478   */\n    tag_581:\n        /* \"#utility.yul\":45189:45192   */\n      0x00\n        /* \"#utility.yul\":45217:45256   */\n      tag_1017\n        /* \"#utility.yul\":45250:45255   */\n      dup3\n        /* \"#utility.yul\":45217:45256   */\n      tag_499\n      jump\t// in\n    tag_1017:\n        /* \"#utility.yul\":45272:45343   */\n      tag_1018\n        /* \"#utility.yul\":45336:45342   */\n      dup2\n        /* \"#utility.yul\":45331:45334   */\n      dup6\n        /* \"#utility.yul\":45272:45343   */\n      tag_522\n      jump\t// in\n    tag_1018:\n        /* \"#utility.yul\":45265:45343   */\n      swap4\n      pop\n        /* \"#utility.yul\":45352:45417   */\n      tag_1019\n        /* \"#utility.yul\":45410:45416   */\n      dup2\n        /* \"#utility.yul\":45405:45408   */\n      dup6\n        /* \"#utility.yul\":45398:45402   */\n      0x20\n        /* \"#utility.yul\":45391:45396   */\n      dup7\n        /* \"#utility.yul\":45387:45403   */\n      add\n        /* \"#utility.yul\":45352:45417   */\n      tag_501\n      jump\t// in\n    tag_1019:\n        /* \"#utility.yul\":45442:45471   */\n      tag_1020\n        /* \"#utility.yul\":45464:45470   */\n      dup2\n        /* \"#utility.yul\":45442:45471   */\n      tag_483\n      jump\t// in\n    tag_1020:\n        /* \"#utility.yul\":45437:45440   */\n      dup5\n        /* \"#utility.yul\":45433:45472   */\n      add\n        /* \"#utility.yul\":45426:45472   */\n      swap2\n      pop\n        /* \"#utility.yul\":45193:45478   */\n      pop\n        /* \"#utility.yul\":45101:45478   */\n      swap3\n      swap2\n      pop\n      pop\n      jump\t// out\n        /* \"#utility.yul\":45484:45797   */\n    tag_466:\n        /* \"#utility.yul\":45597:45601   */\n      0x00\n        /* \"#utility.yul\":45635:45637   */\n      0x20\n        /* \"#utility.yul\":45624:45633   */\n      dup3\n        /* \"#utility.yul\":45620:45638   */\n      add\n        /* \"#utility.yul\":45612:45638   */\n      swap1\n      pop\n        /* \"#utility.yul\":45684:45693   */\n      dup2\n        /* \"#utility.yul\":45678:45682   */\n      dup2\n        /* \"#utility.yul\":45674:45694   */\n      sub\n        /* \"#utility.yul\":45670:45671   */\n      0x00\n        /* \"#utility.yul\":45659:45668   */\n      dup4\n        /* \"#utility.yul\":45655:45672   */\n      add\n        /* \"#utility.yul\":45648:45695   */\n      mstore\n        /* \"#utility.yul\":45712:45790   */\n      tag_1022\n        /* \"#utility.yul\":45785:45789   */\n      dup2\n        /* \"#utility.yul\":45776:45782   */\n      dup5\n        /* \"#utility.yul\":45712:45790   */\n      tag_581\n      jump\t// in\n    tag_1022:\n        /* \"#utility.yul\":45704:45790   */\n      swap1\n      pop\n        /* \"#utility.yul\":45484:45797   */\n      swap3\n      swap2\n      pop\n      pop\n      jump\t// out\n    stop\n    data_9fdcd12e4b726339b32a442b0a448365d5d85c96b2d2cff917b4f66c63110398 416464726573733a206c6f772d6c6576656c2064656c65676174652063616c6c206661696c6564\n\n    auxdata: 0xa26469706673582212205313101511f03fc3dcc408d2a1532c54983d5d71de24621a3392ae0250b5cbf764736f6c634300081a0033\n}\n",
				"bytecode": {
					"linkReferences": {},
					"object": "60a06040523073ffffffffffffffffffffffffffffffffffffffff1660809073ffffffffffffffffffffffffffffffffffffffff168152503480156041575f80fd5b50608051613f836100765f395f8181610788015281816108160152818161097201528181610a000152610aaf0152613f835ff3fe608060405260043610610129575f3560e01c80638a6655d6116100aa578063b511328d1161006e578063b511328d146103f8578063b6b55f2514610434578063b93a89f714610470578063bdd69096146104b1578063c3a0aba8146104d9578063c4d66de81461050357610129565b80638a6655d6146103185780638da5cb5b146103405780639b6f67be1461036a5780639c1fcc4c14610392578063b00673bc146103bc57610129565b806345071c71116100f157806345071c71146102315780634f1ef2861461026e57806352d1902d1461028a5780636c24a76f146102b45780637c7b66f7146102f057610129565b80630c7353e01461012d5780630dca7ed81461016957806327e235e3146101a55780632e1a7d4d146101e15780633659cfe614610209575b5f80fd5b348015610138575f80fd5b50610153600480360381019061014e91906128a8565b61052b565b60405161016091906128fe565b60405180910390f35b348015610174575f80fd5b5061018f600480360381019061018a9190612917565b61054b565b60405161019c9190612951565b60405180910390f35b3480156101b0575f80fd5b506101cb60048036038101906101c6919061296a565b610560565b6040516101d89190612951565b60405180910390f35b3480156101ec575f80fd5b5061020760048036038101906102029190612917565b610575565b005b348015610214575f80fd5b5061022f600480360381019061022a919061296a565b610786565b005b34801561023c575f80fd5b5061025760048036038101906102529190612995565b61090c565b6040516102659291906129f4565b60405180910390f35b61028860048036038101906102839190612b57565b610970565b005b348015610295575f80fd5b5061029e610aac565b6040516102ab9190612bc9565b60405180910390f35b3480156102bf575f80fd5b506102da60048036038101906102d5919061296a565b610b63565b6040516102e79190612951565b60405180910390f35b3480156102fb575f80fd5b5061031660048036038101906103119190612917565b610c00565b005b348015610323575f80fd5b5061033e60048036038101906103399190612995565b610ce6565b005b34801561034b575f80fd5b50610354610f35565b6040516103619190612be2565b60405180910390f35b348015610375575f80fd5b50610390600480360381019061038b9190612cbf565b610f5a565b005b34801561039d575f80fd5b506103a6610fad565b6040516103b39190612be2565b60405180910390f35b3480156103c7575f80fd5b506103e260048036038101906103dd919061296a565b610fd2565b6040516103ef9190612951565b60405180910390f35b348015610403575f80fd5b5061041e60048036038101906104199190612917565b610fe7565b60405161042b9190612be2565b60405180910390f35b34801561043f575f80fd5b5061045a60048036038101906104559190612917565b61102f565b6040516104679190612951565b60405180910390f35b34801561047b575f80fd5b5061049660048036038101906104919190612917565b6111f3565b6040516104a896959493929190612efd565b60405180910390f35b3480156104bc575f80fd5b506104d760048036038101906104d291906130ed565b611510565b005b3480156104e4575f80fd5b506104ed6116c0565b6040516104fa9190612be2565b60405180910390f35b34801561050e575f80fd5b506105296004803603810190610524919061296a565b6116e5565b005b6008602052815f5260405f20602052805f5260405f205f91509150505481565b6007602052805f5260405f205f915090505481565b6004602052805f5260405f205f915090505481565b5f61057f33610b63565b90508181106105c75733816040517ff6deaa040000000000000000000000000000000000000000000000000000000081526004016105be9291906129f4565b60405180910390fd5b60025f9054906101000a900473ffffffffffffffffffffffffffffffffffffffff1673ffffffffffffffffffffffffffffffffffffffff1663a9059cbb33846040518363ffffffff1660e01b81526004016106239291906129f4565b6020604051808303815f875af115801561063f573d5f803e3d5ffd5b505050506040513d601f19601f820116820180604052508101906106639190613169565b6106a2576040517f08c379a0000000000000000000000000000000000000000000000000000000008152600401610699906131ee565b60405180910390fd5b8160045f3373ffffffffffffffffffffffffffffffffffffffff1673ffffffffffffffffffffffffffffffffffffffff1681526020019081526020015f205f8282546106ee9190613239565b925050819055503373ffffffffffffffffffffffffffffffffffffffff167ff279e6a1f5e320cca91135676d9cb6e44ca8a08c0b88342bcdb1144f6511b5688360045f3373ffffffffffffffffffffffffffffffffffffffff1673ffffffffffffffffffffffffffffffffffffffff1681526020019081526020015f205460405161077a92919061326c565b60405180910390a25050565b7f000000000000000000000000000000000000000000000000000000000000000073ffffffffffffffffffffffffffffffffffffffff163073ffffffffffffffffffffffffffffffffffffffff1603610814576040517f08c379a000000000000000000000000000000000000000000000000000000000815260040161080b90613303565b60405180910390fd5b7f000000000000000000000000000000000000000000000000000000000000000073ffffffffffffffffffffffffffffffffffffffff16610853611896565b73ffffffffffffffffffffffffffffffffffffffff16146108a9576040517f08c379a00000000000000000000000000000000000000000000000000000000081526004016108a090613391565b60405180910390fd5b6108b2816118e9565b610909815f67ffffffffffffffff8111156108d0576108cf612a33565b5b6040519080825280601f01601f1916602001820160405280156109025781602001600182028036833780820191505090505b505f6119bd565b50565b6006602052825f5260405f20602052815f5260405f20818154811061092f575f80fd5b905f5260205f2090600202015f925092505050805f015f9054906101000a900473ffffffffffffffffffffffffffffffffffffffff16908060010154905082565b7f000000000000000000000000000000000000000000000000000000000000000073ffffffffffffffffffffffffffffffffffffffff163073ffffffffffffffffffffffffffffffffffffffff16036109fe576040517f08c379a00000000000000000000000000000000000000000000000000000000081526004016109f590613303565b60405180910390fd5b7f000000000000000000000000000000000000000000000000000000000000000073ffffffffffffffffffffffffffffffffffffffff16610a3d611896565b73ffffffffffffffffffffffffffffffffffffffff1614610a93576040517f08c379a0000000000000000000000000000000000000000000000000000000008152600401610a8a90613391565b60405180910390fd5b610a9c826118e9565b610aa8828260016119bd565b5050565b5f7f000000000000000000000000000000000000000000000000000000000000000073ffffffffffffffffffffffffffffffffffffffff163073ffffffffffffffffffffffffffffffffffffffff1614610b3b576040517f08c379a0000000000000000000000000000000000000000000000000000000008152600401610b329061341f565b60405180910390fd5b7f360894a13ba1a3210667c828492db98dca3e2076cc3735a920a3ca505d382bbc5f1b905090565b5f8060045f8473ffffffffffffffffffffffffffffffffffffffff1673ffffffffffffffffffffffffffffffffffffffff1681526020019081526020015f205490505f60055f8573ffffffffffffffffffffffffffffffffffffffff1673ffffffffffffffffffffffffffffffffffffffff1681526020019081526020015f205490505f8190508083610bf69190613239565b9350505050919050565b5f8111610c42576040517f08c379a0000000000000000000000000000000000000000000000000000000008152600401610c3990613487565b60405180910390fd5b8060045f3373ffffffffffffffffffffffffffffffffffffffff1673ffffffffffffffffffffffffffffffffffffffff1681526020019081526020015f205f828254610c8e91906134a5565b925050819055503373ffffffffffffffffffffffffffffffffffffffff167fa0c8eda28ab82fe28c2bcaa48a1ce2b5eac8dbed005a6e8eb62398577e908d5c82604051610cdb9190612951565b60405180910390a250565b80610cf033610b63565b1015610d31576040517f08c379a0000000000000000000000000000000000000000000000000000000008152600401610d2890613522565b60405180910390fd5b8060055f3373ffffffffffffffffffffffffffffffffffffffff1673ffffffffffffffffffffffffffffffffffffffff1681526020019081526020015f205f828254610d7d91906134a5565b925050819055505f60038481548110610d9957610d98613540565b5b905f5260205f209060020201905081816001018481548110610dbe57610dbd613540565b5b905f5260205f2090600302016001015f828254610ddb91906134a5565b925050819055506001816001018481548110610dfa57610df9613540565b5b905f5260205f2090600302016002015f828254610e1791906134a5565b9250508190555060065f8581526020019081526020015f205f8481526020019081526020015f2060405180604001604052803373ffffffffffffffffffffffffffffffffffffffff16815260200184815250908060018154018082558091505060019003905f5260205f2090600202015f909190919091505f820151815f015f6101000a81548173ffffffffffffffffffffffffffffffffffffffff021916908373ffffffffffffffffffffffffffffffffffffffff16021790555060208201518160010155505082843373ffffffffffffffffffffffffffffffffffffffff167fc32b42768a47a585121e9b8d7a2ab9d3f34c326a192dee11ee1732e3d18313f385604051610f279190612951565b60405180910390a450505050565b5f60029054906101000a900473ffffffffffffffffffffffffffffffffffffffff1681565b5f610f658484611b27565b90508015610f7c57610f778484611d14565b610f91565b610f868483611e85565b610f908484611ff6565b5b8260075f8681526020019081526020015f208190555050505050565b60015f9054906101000a900473ffffffffffffffffffffffffffffffffffffffff1681565b6005602052805f5260405f205f915090505481565b60038181548110610ff6575f80fd5b905f5260205f2090600202015f91509050805f015f9054906101000a900473ffffffffffffffffffffffffffffffffffffffff16905081565b5f60025f9054906101000a900473ffffffffffffffffffffffffffffffffffffffff1673ffffffffffffffffffffffffffffffffffffffff166323b872dd3330856040518463ffffffff1660e01b815260040161108e9392919061356d565b6020604051808303815f875af11580156110aa573d5f803e3d5ffd5b505050506040513d601f19601f820116820180604052508101906110ce9190613169565b61110d576040517f08c379a0000000000000000000000000000000000000000000000000000000008152600401611104906131ee565b60405180910390fd5b8160045f3373ffffffffffffffffffffffffffffffffffffffff1673ffffffffffffffffffffffffffffffffffffffff1681526020019081526020015f205f82825461115991906134a5565b925050819055503373ffffffffffffffffffffffffffffffffffffffff167f2da466a7b24304f47e87fa2e1e5a81b9831ce54fec19055ce277ca2f39ba42c4836040516111a69190612951565b60405180910390a260045f3373ffffffffffffffffffffffffffffffffffffffff1673ffffffffffffffffffffffffffffffffffffffff1681526020019081526020015f20549050919050565b5f60608060605f805f600388815481106112105761120f613540565b5b905f5260205f20906002020190505f816001018054905090508067ffffffffffffffff81111561124357611242612a33565b5b60405190808252806020026020018201604052801561127657816020015b60608152602001906001900390816112615790505b5096508067ffffffffffffffff81111561129357611292612a33565b5b6040519080825280602002602001820160405280156112c15781602001602082028036833780820191505090505b5095508067ffffffffffffffff8111156112de576112dd612a33565b5b60405190808252806020026020018201604052801561130c5781602001602082028036833780820191505090505b509450815f015f9054906101000a900473ffffffffffffffffffffffffffffffffffffffff1697505f5b818110156115045782600101818154811061135457611353613540565b5b905f5260205f2090600302015f01805461136d906135cf565b80601f0160208091040260200160405190810160405280929190818152602001828054611399906135cf565b80156113e45780601f106113bb576101008083540402835291602001916113e4565b820191905f5260205f20905b8154815290600101906020018083116113c757829003601f168201915b50505050508882815181106113fc576113fb613540565b5b602002602001018190525082600101818154811061141d5761141c613540565b5b905f5260205f209060030201600101548782815181106114405761143f613540565b5b60200260200101818152505082600101818154811061146257611461613540565b5b905f5260205f2090600302016002015486828151811061148557611484613540565b5b6020026020010181815250508260010181815481106114a7576114a6613540565b5b905f5260205f20906003020160020154846114c291906134a5565b93508260010181815481106114da576114d9613540565b5b905f5260205f20906003020160010154856114f591906134a5565b94508080600101915050611336565b50505091939550919395565b5f815111611553576040517f08c379a000000000000000000000000000000000000000000000000000000000815260040161154a90613649565b60405180910390fd5b5f600360018160018154018082558091505003905f5260205f209060020201905033815f015f6101000a81548173ffffffffffffffffffffffffffffffffffffffff021916908373ffffffffffffffffffffffffffffffffffffffff1602179055505f5b8251811015611656578160010160405180606001604052808584815181106115e2576115e1613540565b5b602002602001015181526020015f81526020015f815250908060018154018082558091505060019003905f5260205f2090600302015f909190919091505f820151815f0190816116329190613804565b506020820151816001015560408201518160020155505080806001019150506115b7565b505f600160038054905061166a9190613239565b9050803373ffffffffffffffffffffffffffffffffffffffff167f9a6f89a0fdf2b617e645524a789bbeab5b66bf3517973ca92daf26f077603f85856040516116b391906138d3565b60405180910390a3505050565b60025f9054906101000a900473ffffffffffffffffffffffffffffffffffffffff1681565b5f8060019054906101000a900460ff16159050808015611714575060015f8054906101000a900460ff1660ff16105b806117405750611723306121fe565b15801561173f575060015f8054906101000a900460ff1660ff16145b5b61177f576040517f08c379a000000000000000000000000000000000000000000000000000000000815260040161177690613963565b60405180910390fd5b60015f806101000a81548160ff021916908360ff16021790555080156117ba5760015f60016101000a81548160ff0219169083151502179055505b8160025f6101000a81548173ffffffffffffffffffffffffffffffffffffffff021916908373ffffffffffffffffffffffffffffffffffffffff160217905550335f60026101000a81548173ffffffffffffffffffffffffffffffffffffffff021916908373ffffffffffffffffffffffffffffffffffffffff1602179055508015611892575f8060016101000a81548160ff0219169083151502179055507f7f26b83ff96e1f2b6a682f133852f6798a09c465da95921460cefb3847402498600160405161188991906139c6565b60405180910390a15b5050565b5f6118c27f360894a13ba1a3210667c828492db98dca3e2076cc3735a920a3ca505d382bbc5f1b612220565b5f015f9054906101000a900473ffffffffffffffffffffffffffffffffffffffff16905090565b3373ffffffffffffffffffffffffffffffffffffffff165f60029054906101000a900473ffffffffffffffffffffffffffffffffffffffff1673ffffffffffffffffffffffffffffffffffffffff161461197a57336040517f118cdaa70000000000000000000000000000000000000000000000000000000081526004016119719190612be2565b60405180910390fd5b8060015f6101000a81548173ffffffffffffffffffffffffffffffffffffffff021916908373ffffffffffffffffffffffffffffffffffffffff16021790555050565b6119e87f4910fdfa16fed3260ed0e7147f7cc6da11a60208b5b9406d12a635614ffd91435f1b612229565b5f015f9054906101000a900460ff1615611a0a57611a0583612232565b611b22565b8273ffffffffffffffffffffffffffffffffffffffff166352d1902d6040518163ffffffff1660e01b8152600401602060405180830381865afa925050508015611a7257506040513d601f19601f82011682018060405250810190611a6f9190613a09565b60015b611ab1576040517f08c379a0000000000000000000000000000000000000000000000000000000008152600401611aa890613aa4565b60405180910390fd5b7f360894a13ba1a3210667c828492db98dca3e2076cc3735a920a3ca505d382bbc5f1b8114611b15576040517f08c379a0000000000000000000000000000000000000000000000000000000008152600401611b0c90613b32565b60405180910390fd5b50611b218383836122e8565b5b505050565b5f8060038481548110611b3d57611b3c613540565b5b905f5260205f2090600202016040518060400160405290815f82015f9054906101000a900473ffffffffffffffffffffffffffffffffffffffff1673ffffffffffffffffffffffffffffffffffffffff1673ffffffffffffffffffffffffffffffffffffffff16815260200160018201805480602002602001604051908101604052809291908181526020015f905b82821015611c9f578382905f5260205f2090600302016040518060600160405290815f82018054611bfc906135cf565b80601f0160208091040260200160405190810160405280929190818152602001828054611c28906135cf565b8015611c735780601f10611c4a57610100808354040283529160200191611c73565b820191905f5260205f20905b815481529060010190602001808311611c5657829003601f168201915b505050505081526020016001820154815260200160028201548152505081526020019060010190611bcc565b505050508152505090505f816020015190505f5b8151811015611d0657848114158015611ce957505f828281518110611cdb57611cda613540565b5b602002602001015160200151115b15611cf9575f9350505050611d0e565b8080600101915050611cb3565b506001925050505b92915050565b5f60065f8381526020019081526020015f2090505f5b815f8481526020019081526020015f2080549050811015611e47575f825f8581526020019081526020015f208281548110611d6857611d67613540565b5b905f5260205f2090600202016040518060400160405290815f82015f9054906101000a900473ffffffffffffffffffffffffffffffffffffffff1673ffffffffffffffffffffffffffffffffffffffff1673ffffffffffffffffffffffffffffffffffffffff1681526020016001820154815250509050806020015160055f835f015173ffffffffffffffffffffffffffffffffffffffff1673ffffffffffffffffffffffffffffffffffffffff1681526020019081526020015f205f828254611e329190613239565b92505081905550508080600101915050611d2a565b50827fc445a10c3fa19d3805aeea8b151160c7252c62f5bb08325a6acd73f79e5531ee83604051611e789190612951565b60405180910390a2505050565b5f611e8f836111f3565b509450505050505f6064600283611ea69190613b50565b611eb09190613bbe565b90505f835182611ec09190613bbe565b90505f5b8451811015611fb2578160045f878481518110611ee457611ee3613540565b5b602002602001015173ffffffffffffffffffffffffffffffffffffffff1673ffffffffffffffffffffffffffffffffffffffff1681526020019081526020015f205f828254611f3391906134a5565b925050819055508160085f8881526020019081526020015f205f878481518110611f6057611f5f613540565b5b602002602001015173ffffffffffffffffffffffffffffffffffffffff1673ffffffffffffffffffffffffffffffffffffffff1681526020019081526020015f20819055508080600101915050611ec4565b50847f1034bcc6d30aa91c93d14ce14f959d5d304d6b8a76f50f026934b85d4e4122ed858484604051611fe793929190613ca5565b60405180910390a25050505050565b5f6003838154811061200b5761200a613540565b5b905f5260205f20906002020190505f816001018054905090505f60065f8581526020019081526020015f2090505f80612043876111f3565b5094505093505050606460058261205a9190613b50565b6120649190613bbe565b60045f875f015f9054906101000a900473ffffffffffffffffffffffffffffffffffffffff1673ffffffffffffffffffffffffffffffffffffffff1673ffffffffffffffffffffffffffffffffffffffff1681526020019081526020015f205f8282546120d191906134a5565b925050819055505f60646058836120e89190613b50565b6120f29190613bbe565b90505f5b858110156121f3576121e6898984878c8151811061211757612116613540565b5b6020026020010151895f8781526020019081526020015f20805480602002602001604051908101604052809291908181526020015f905b828210156121dc578382905f5260205f2090600202016040518060400160405290815f82015f9054906101000a900473ffffffffffffffffffffffffffffffffffffffff1673ffffffffffffffffffffffffffffffffffffffff1673ffffffffffffffffffffffffffffffffffffffff1681526020016001820154815250508152602001906001019061214e565b5050505086612313565b80806001019150506120f6565b505050505050505050565b5f808273ffffffffffffffffffffffffffffffffffffffff163b119050919050565b5f819050919050565b5f819050919050565b61223b816121fe565b61227a576040517f08c379a000000000000000000000000000000000000000000000000000000000815260040161227190613d51565b60405180910390fd5b806122a67f360894a13ba1a3210667c828492db98dca3e2076cc3735a920a3ca505d382bbc5f1b612220565b5f015f6101000a81548173ffffffffffffffffffffffffffffffffffffffff021916908373ffffffffffffffffffffffffffffffffffffffff16021790555050565b6122f183612649565b5f825111806122fd5750805b1561230e5761230c8383612698565b505b505050565b5f5b8251811015612640575f83828151811061233257612331613540565b5b60200260200101519050806020015160055f835f015173ffffffffffffffffffffffffffffffffffffffff1673ffffffffffffffffffffffffffffffffffffffff1681526020019081526020015f205f82825461238f9190613239565b925050819055508683036124d2575f858783602001516123af9190613b50565b6123b99190613bbe565b90505f8260200151826123cc9190613239565b90508060045f855f015173ffffffffffffffffffffffffffffffffffffffff1673ffffffffffffffffffffffffffffffffffffffff1681526020019081526020015f205f82825461241d91906134a5565b925050819055508060085f8c81526020019081526020015f205f855f015173ffffffffffffffffffffffffffffffffffffffff1673ffffffffffffffffffffffffffffffffffffffff1681526020019081526020015f2081905550825f015173ffffffffffffffffffffffffffffffffffffffff167fa20aa2f236defed03e109fccf805faeb8f6957ecd766ee7cf40dc6f99bef9eab8b836040516124c3929190613d6f565b60405180910390a25050612632565b806020015160045f835f015173ffffffffffffffffffffffffffffffffffffffff1673ffffffffffffffffffffffffffffffffffffffff1681526020019081526020015f205f8282546125259190613239565b925050819055507fffffffffffffffffffffffffffffffffffffffffffffffffffffffffffffffff816020015161255c9190613d96565b60085f8a81526020019081526020015f205f835f015173ffffffffffffffffffffffffffffffffffffffff1673ffffffffffffffffffffffffffffffffffffffff1681526020019081526020015f2081905550805f015173ffffffffffffffffffffffffffffffffffffffff167fa20aa2f236defed03e109fccf805faeb8f6957ecd766ee7cf40dc6f99bef9eab897fffffffffffffffffffffffffffffffffffffffffffffffffffffffffffffffff846020015161261b9190613d96565b604051612629929190613d6f565b60405180910390a25b508080600101915050612315565b50505050505050565b61265281612232565b8073ffffffffffffffffffffffffffffffffffffffff167fbc7cd75a20ee27fd9adebab32041f755214dbc6bffa90cc0225b39da2e5c2d3b60405160405180910390a250565b60606126bd8383604051806060016040528060278152602001613f27602791396126c5565b905092915050565b60605f808573ffffffffffffffffffffffffffffffffffffffff16856040516126ee9190613e50565b5f60405180830381855af49150503d805f8114612726576040519150601f19603f3d011682016040523d82523d5f602084013e61272b565b606091505b509150915061273c86838387612747565b925050509392505050565b606083156127a8575f8351036127a057612760856121fe565b61279f576040517f08c379a000000000000000000000000000000000000000000000000000000000815260040161279690613eb0565b60405180910390fd5b5b8290506127b3565b6127b283836127bb565b5b949350505050565b5f825111156127cd5781518083602001fd5b806040517f08c379a00000000000000000000000000000000000000000000000000000000081526004016128019190613f06565b60405180910390fd5b5f604051905090565b5f80fd5b5f80fd5b5f819050919050565b61282d8161281b565b8114612837575f80fd5b50565b5f8135905061284881612824565b92915050565b5f73ffffffffffffffffffffffffffffffffffffffff82169050919050565b5f6128778261284e565b9050919050565b6128878161286d565b8114612891575f80fd5b50565b5f813590506128a28161287e565b92915050565b5f80604083850312156128be576128bd612813565b5b5f6128cb8582860161283a565b92505060206128dc85828601612894565b9150509250929050565b5f819050919050565b6128f8816128e6565b82525050565b5f6020820190506129115f8301846128ef565b92915050565b5f6020828403121561292c5761292b612813565b5b5f6129398482850161283a565b91505092915050565b61294b8161281b565b82525050565b5f6020820190506129645f830184612942565b92915050565b5f6020828403121561297f5761297e612813565b5b5f61298c84828501612894565b91505092915050565b5f805f606084860312156129ac576129ab612813565b5b5f6129b98682870161283a565b93505060206129ca8682870161283a565b92505060406129db8682870161283a565b9150509250925092565b6129ee8161286d565b82525050565b5f604082019050612a075f8301856129e5565b612a146020830184612942565b9392505050565b5f80fd5b5f80fd5b5f601f19601f8301169050919050565b7f4e487b71000000000000000000000000000000000000000000000000000000005f52604160045260245ffd5b612a6982612a23565b810181811067ffffffffffffffff82111715612a8857612a87612a33565b5b80604052505050565b5f612a9a61280a565b9050612aa68282612a60565b919050565b5f67ffffffffffffffff821115612ac557612ac4612a33565b5b612ace82612a23565b9050602081019050919050565b828183375f83830152505050565b5f612afb612af684612aab565b612a91565b905082815260208101848484011115612b1757612b16612a1f565b5b612b22848285612adb565b509392505050565b5f82601f830112612b3e57612b3d612a1b565b5b8135612b4e848260208601612ae9565b91505092915050565b5f8060408385031215612b6d57612b6c612813565b5b5f612b7a85828601612894565b925050602083013567ffffffffffffffff811115612b9b57612b9a612817565b5b612ba785828601612b2a565b9150509250929050565b5f819050919050565b612bc381612bb1565b82525050565b5f602082019050612bdc5f830184612bba565b92915050565b5f602082019050612bf55f8301846129e5565b92915050565b5f67ffffffffffffffff821115612c1557612c14612a33565b5b602082029050602081019050919050565b5f80fd5b5f612c3c612c3784612bfb565b612a91565b90508083825260208201905060208402830185811115612c5f57612c5e612c26565b5b835b81811015612c885780612c748882612894565b845260208401935050602081019050612c61565b5050509392505050565b5f82601f830112612ca657612ca5612a1b565b5b8135612cb6848260208601612c2a565b91505092915050565b5f805f60608486031215612cd657612cd5612813565b5b5f612ce38682870161283a565b9350506020612cf48682870161283a565b925050604084013567ffffffffffffffff811115612d1557612d14612817565b5b612d2186828701612c92565b9150509250925092565b5f81519050919050565b5f82825260208201905092915050565b5f819050602082019050919050565b5f81519050919050565b5f82825260208201905092915050565b8281835e5f83830152505050565b5f612d8682612d54565b612d908185612d5e565b9350612da0818560208601612d6e565b612da981612a23565b840191505092915050565b5f612dbf8383612d7c565b905092915050565b5f602082019050919050565b5f612ddd82612d2b565b612de78185612d35565b935083602082028501612df985612d45565b805f5b85811015612e345784840389528151612e158582612db4565b9450612e2083612dc7565b925060208a01995050600181019050612dfc565b50829750879550505050505092915050565b5f81519050919050565b5f82825260208201905092915050565b5f819050602082019050919050565b612e788161281b565b82525050565b5f612e898383612e6f565b60208301905092915050565b5f602082019050919050565b5f612eab82612e46565b612eb58185612e50565b9350612ec083612e60565b805f5b83811015612ef0578151612ed78882612e7e565b9750612ee283612e95565b925050600181019050612ec3565b5085935050505092915050565b5f60c082019050612f105f8301896129e5565b8181036020830152612f228188612dd3565b90508181036040830152612f368187612ea1565b90508181036060830152612f4a8186612ea1565b9050612f596080830185612942565b612f6660a0830184612942565b979650505050505050565b5f67ffffffffffffffff821115612f8b57612f8a612a33565b5b602082029050602081019050919050565b5f67ffffffffffffffff821115612fb657612fb5612a33565b5b612fbf82612a23565b9050602081019050919050565b5f612fde612fd984612f9c565b612a91565b905082815260208101848484011115612ffa57612ff9612a1f565b5b613005848285612adb565b509392505050565b5f82601f83011261302157613020612a1b565b5b8135613031848260208601612fcc565b91505092915050565b5f61304c61304784612f71565b612a91565b9050808382526020820190506020840283018581111561306f5761306e612c26565b5b835b818110156130b657803567ffffffffffffffff81111561309457613093612a1b565b5b8086016130a1898261300d565b85526020850194505050602081019050613071565b5050509392505050565b5f82601f8301126130d4576130d3612a1b565b5b81356130e484826020860161303a565b91505092915050565b5f6020828403121561310257613101612813565b5b5f82013567ffffffffffffffff81111561311f5761311e612817565b5b61312b848285016130c0565b91505092915050565b5f8115159050919050565b61314881613134565b8114613152575f80fd5b50565b5f815190506131638161313f565b92915050565b5f6020828403121561317e5761317d612813565b5b5f61318b84828501613155565b91505092915050565b5f82825260208201905092915050565b7f5472616e73666572206661696c656400000000000000000000000000000000005f82015250565b5f6131d8600f83613194565b91506131e3826131a4565b602082019050919050565b5f6020820190508181035f830152613205816131cc565b9050919050565b7f4e487b71000000000000000000000000000000000000000000000000000000005f52601160045260245ffd5b5f6132438261281b565b915061324e8361281b565b92508282039050818111156132665761326561320c565b5b92915050565b5f60408201905061327f5f830185612942565b61328c6020830184612942565b9392505050565b7f46756e6374696f6e206d7573742062652063616c6c6564207468726f756768205f8201527f64656c656761746563616c6c0000000000000000000000000000000000000000602082015250565b5f6132ed602c83613194565b91506132f882613293565b604082019050919050565b5f6020820190508181035f83015261331a816132e1565b9050919050565b7f46756e6374696f6e206d7573742062652063616c6c6564207468726f756768205f8201527f6163746976652070726f78790000000000000000000000000000000000000000602082015250565b5f61337b602c83613194565b915061338682613321565b604082019050919050565b5f6020820190508181035f8301526133a88161336f565b9050919050565b7f555550535570677261646561626c653a206d757374206e6f742062652063616c5f8201527f6c6564207468726f7567682064656c656761746563616c6c0000000000000000602082015250565b5f613409603883613194565b9150613414826133af565b604082019050919050565b5f6020820190508181035f830152613436816133fd565b9050919050565b7f506f696e7473206d7573742062652067726561746572207468616e207a65726f5f82015250565b5f613471602083613194565b915061347c8261343d565b602082019050919050565b5f6020820190508181035f83015261349e81613465565b9050919050565b5f6134af8261281b565b91506134ba8361281b565b92508282019050808211156134d2576134d161320c565b5b92915050565b7f496e73756666696369656e7420766f74696e67207269676874730000000000005f82015250565b5f61350c601a83613194565b9150613517826134d8565b602082019050919050565b5f6020820190508181035f83015261353981613500565b9050919050565b7f4e487b71000000000000000000000000000000000000000000000000000000005f52603260045260245ffd5b5f6060820190506135805f8301866129e5565b61358d60208301856129e5565b61359a6040830184612942565b949350505050565b7f4e487b71000000000000000000000000000000000000000000000000000000005f52602260045260245ffd5b5f60028204905060018216806135e657607f821691505b6020821081036135f9576135f86135a2565b5b50919050565b7f6c656e206572726f7200000000000000000000000000000000000000000000005f82015250565b5f613633600983613194565b915061363e826135ff565b602082019050919050565b5f6020820190508181035f83015261366081613627565b9050919050565b5f819050815f5260205f209050919050565b5f6020601f8301049050919050565b5f82821b905092915050565b5f600883026136c37fffffffffffffffffffffffffffffffffffffffffffffffffffffffffffffffff82613688565b6136cd8683613688565b95508019841693508086168417925050509392505050565b5f819050919050565b5f6137086137036136fe8461281b565b6136e5565b61281b565b9050919050565b5f819050919050565b613721836136ee565b61373561372d8261370f565b848454613694565b825550505050565b5f90565b61374961373d565b613754818484613718565b505050565b5b818110156137775761376c5f82613741565b60018101905061375a565b5050565b601f8211156137bc5761378d81613667565b61379684613679565b810160208510156137a5578190505b6137b96137b185613679565b830182613759565b50505b505050565b5f82821c905092915050565b5f6137dc5f19846008026137c1565b1980831691505092915050565b5f6137f483836137cd565b9150826002028217905092915050565b61380d82612d54565b67ffffffffffffffff81111561382657613825612a33565b5b61383082546135cf565b61383b82828561377b565b5f60209050601f83116001811461386c575f841561385a578287015190505b61386485826137e9565b8655506138cb565b601f19841661387a86613667565b5f5b828110156138a15784890151825560018201915060208501945060208101905061387c565b868310156138be57848901516138ba601f8916826137cd565b8355505b6001600288020188555050505b505050505050565b5f6020820190508181035f8301526138eb8184612dd3565b905092915050565b7f496e697469616c697a61626c653a20636f6e747261637420697320616c7265615f8201527f647920696e697469616c697a6564000000000000000000000000000000000000602082015250565b5f61394d602e83613194565b9150613958826138f3565b604082019050919050565b5f6020820190508181035f83015261397a81613941565b9050919050565b5f819050919050565b5f60ff82169050919050565b5f6139b06139ab6139a684613981565b6136e5565b61398a565b9050919050565b6139c081613996565b82525050565b5f6020820190506139d95f8301846139b7565b92915050565b6139e881612bb1565b81146139f2575f80fd5b50565b5f81519050613a03816139df565b92915050565b5f60208284031215613a1e57613a1d612813565b5b5f613a2b848285016139f5565b91505092915050565b7f45524331393637557067726164653a206e657720696d706c656d656e746174695f8201527f6f6e206973206e6f742055555053000000000000000000000000000000000000602082015250565b5f613a8e602e83613194565b9150613a9982613a34565b604082019050919050565b5f6020820190508181035f830152613abb81613a82565b9050919050565b7f45524331393637557067726164653a20756e737570706f727465642070726f785f8201527f6961626c65555549440000000000000000000000000000000000000000000000602082015250565b5f613b1c602983613194565b9150613b2782613ac2565b604082019050919050565b5f6020820190508181035f830152613b4981613b10565b9050919050565b5f613b5a8261281b565b9150613b658361281b565b9250828202613b738161281b565b91508282048414831517613b8a57613b8961320c565b5b5092915050565b7f4e487b71000000000000000000000000000000000000000000000000000000005f52601260045260245ffd5b5f613bc88261281b565b9150613bd38361281b565b925082613be357613be2613b91565b5b828204905092915050565b5f81519050919050565b5f82825260208201905092915050565b5f819050602082019050919050565b613c208161286d565b82525050565b5f613c318383613c17565b60208301905092915050565b5f602082019050919050565b5f613c5382613bee565b613c5d8185613bf8565b9350613c6883613c08565b805f5b83811015613c98578151613c7f8882613c26565b9750613c8a83613c3d565b925050600181019050613c6b565b5085935050505092915050565b5f6060820190508181035f830152613cbd8186613c49565b9050613ccc6020830185612942565b613cd96040830184612942565b949350505050565b7f455243313936373a206e657720696d706c656d656e746174696f6e206973206e5f8201527f6f74206120636f6e747261637400000000000000000000000000000000000000602082015250565b5f613d3b602d83613194565b9150613d4682613ce1565b604082019050919050565b5f6020820190508181035f830152613d6881613d2f565b9050919050565b5f604082019050613d825f830185612942565b613d8f60208301846128ef565b9392505050565b5f613da0826128e6565b9150613dab836128e6565b9250828202613db9816128e6565b91507f800000000000000000000000000000000000000000000000000000000000000084145f84121615613df057613def61320c565b5b8282058414831517613e0557613e0461320c565b5b5092915050565b5f81519050919050565b5f81905092915050565b5f613e2a82613e0c565b613e348185613e16565b9350613e44818560208601612d6e565b80840191505092915050565b5f613e5b8284613e20565b915081905092915050565b7f416464726573733a2063616c6c20746f206e6f6e2d636f6e74726163740000005f82015250565b5f613e9a601d83613194565b9150613ea582613e66565b602082019050919050565b5f6020820190508181035f830152613ec781613e8e565b9050919050565b5f613ed882612d54565b613ee28185613194565b9350613ef2818560208601612d6e565b613efb81612a23565b840191505092915050565b5f6020820190508181035f830152613f1e8184613ece565b90509291505056fe416464726573733a206c6f772d6c6576656c2064656c65676174652063616c6c206661696c6564a26469706673582212205313101511f03fc3dcc408d2a1532c54983d5d71de24621a3392ae0250b5cbf764736f6c634300081a0033",
					"opcodes": "PUSH1 0xA0 PUSH1 0x40 MSTORE ADDRESS PUSH20 0xFFFFFFFFFFFFFFFFFFFFFFFFFFFFFFFFFFFFFFFF AND PUSH1 0x80 SWAP1 PUSH20 0xFFFFFFFFFFFFFFFFFFFFFFFFFFFFFFFFFFFFFFFF AND DUP2 MSTORE POP CALLVALUE DUP1 ISZERO PUSH1 0x41 JUMPI PUSH0 DUP1 REVERT JUMPDEST POP PUSH1 0x80 MLOAD PUSH2 0x3F83 PUSH2 0x76 PUSH0 CODECOPY PUSH0 DUP2 DUP2 PUSH2 0x788 ADD MSTORE DUP2 DUP2 PUSH2 0x816 ADD MSTORE DUP2 DUP2 PUSH2 0x972 ADD MSTORE DUP2 DUP2 PUSH2 0xA00 ADD MSTORE PUSH2 0xAAF ADD MSTORE PUSH2 0x3F83 PUSH0 RETURN INVALID PUSH1 0x80 PUSH1 0x40 MSTORE PUSH1 0x4 CALLDATASIZE LT PUSH2 0x129 JUMPI PUSH0 CALLDATALOAD PUSH1 0xE0 SHR DUP1 PUSH4 0x8A6655D6 GT PUSH2 0xAA JUMPI DUP1 PUSH4 0xB511328D GT PUSH2 0x6E JUMPI DUP1 PUSH4 0xB511328D EQ PUSH2 0x3F8 JUMPI DUP1 PUSH4 0xB6B55F25 EQ PUSH2 0x434 JUMPI DUP1 PUSH4 0xB93A89F7 EQ PUSH2 0x470 JUMPI DUP1 PUSH4 0xBDD69096 EQ PUSH2 0x4B1 JUMPI DUP1 PUSH4 0xC3A0ABA8 EQ PUSH2 0x4D9 JUMPI DUP1 PUSH4 0xC4D66DE8 EQ PUSH2 0x503 JUMPI PUSH2 0x129 JUMP JUMPDEST DUP1 PUSH4 0x8A6655D6 EQ PUSH2 0x318 JUMPI DUP1 PUSH4 0x8DA5CB5B EQ PUSH2 0x340 JUMPI DUP1 PUSH4 0x9B6F67BE EQ PUSH2 0x36A JUMPI DUP1 PUSH4 0x9C1FCC4C EQ PUSH2 0x392 JUMPI DUP1 PUSH4 0xB00673BC EQ PUSH2 0x3BC JUMPI PUSH2 0x129 JUMP JUMPDEST DUP1 PUSH4 0x45071C71 GT PUSH2 0xF1 JUMPI DUP1 PUSH4 0x45071C71 EQ PUSH2 0x231 JUMPI DUP1 PUSH4 0x4F1EF286 EQ PUSH2 0x26E JUMPI DUP1 PUSH4 0x52D1902D EQ PUSH2 0x28A JUMPI DUP1 PUSH4 0x6C24A76F EQ PUSH2 0x2B4 JUMPI DUP1 PUSH4 0x7C7B66F7 EQ PUSH2 0x2F0 JUMPI PUSH2 0x129 JUMP JUMPDEST DUP1 PUSH4 0xC7353E0 EQ PUSH2 0x12D JUMPI DUP1 PUSH4 0xDCA7ED8 EQ PUSH2 0x169 JUMPI DUP1 PUSH4 0x27E235E3 EQ PUSH2 0x1A5 JUMPI DUP1 PUSH4 0x2E1A7D4D EQ PUSH2 0x1E1 JUMPI DUP1 PUSH4 0x3659CFE6 EQ PUSH2 0x209 JUMPI JUMPDEST PUSH0 DUP1 REVERT JUMPDEST CALLVALUE DUP1 ISZERO PUSH2 0x138 JUMPI PUSH0 DUP1 REVERT JUMPDEST POP PUSH2 0x153 PUSH1 0x4 DUP1 CALLDATASIZE SUB DUP2 ADD SWAP1 PUSH2 0x14E SWAP2 SWAP1 PUSH2 0x28A8 JUMP JUMPDEST PUSH2 0x52B JUMP JUMPDEST PUSH1 0x40 MLOAD PUSH2 0x160 SWAP2 SWAP1 PUSH2 0x28FE JUMP JUMPDEST PUSH1 0x40 MLOAD DUP1 SWAP2 SUB SWAP1 RETURN JUMPDEST CALLVALUE DUP1 ISZERO PUSH2 0x174 JUMPI PUSH0 DUP1 REVERT JUMPDEST POP PUSH2 0x18F PUSH1 0x4 DUP1 CALLDATASIZE SUB DUP2 ADD SWAP1 PUSH2 0x18A SWAP2 SWAP1 PUSH2 0x2917 JUMP JUMPDEST PUSH2 0x54B JUMP JUMPDEST PUSH1 0x40 MLOAD PUSH2 0x19C SWAP2 SWAP1 PUSH2 0x2951 JUMP JUMPDEST PUSH1 0x40 MLOAD DUP1 SWAP2 SUB SWAP1 RETURN JUMPDEST CALLVALUE DUP1 ISZERO PUSH2 0x1B0 JUMPI PUSH0 DUP1 REVERT JUMPDEST POP PUSH2 0x1CB PUSH1 0x4 DUP1 CALLDATASIZE SUB DUP2 ADD SWAP1 PUSH2 0x1C6 SWAP2 SWAP1 PUSH2 0x296A JUMP JUMPDEST PUSH2 0x560 JUMP JUMPDEST PUSH1 0x40 MLOAD PUSH2 0x1D8 SWAP2 SWAP1 PUSH2 0x2951 JUMP JUMPDEST PUSH1 0x40 MLOAD DUP1 SWAP2 SUB SWAP1 RETURN JUMPDEST CALLVALUE DUP1 ISZERO PUSH2 0x1EC JUMPI PUSH0 DUP1 REVERT JUMPDEST POP PUSH2 0x207 PUSH1 0x4 DUP1 CALLDATASIZE SUB DUP2 ADD SWAP1 PUSH2 0x202 SWAP2 SWAP1 PUSH2 0x2917 JUMP JUMPDEST PUSH2 0x575 JUMP JUMPDEST STOP JUMPDEST CALLVALUE DUP1 ISZERO PUSH2 0x214 JUMPI PUSH0 DUP1 REVERT JUMPDEST POP PUSH2 0x22F PUSH1 0x4 DUP1 CALLDATASIZE SUB DUP2 ADD SWAP1 PUSH2 0x22A SWAP2 SWAP1 PUSH2 0x296A JUMP JUMPDEST PUSH2 0x786 JUMP JUMPDEST STOP JUMPDEST CALLVALUE DUP1 ISZERO PUSH2 0x23C JUMPI PUSH0 DUP1 REVERT JUMPDEST POP PUSH2 0x257 PUSH1 0x4 DUP1 CALLDATASIZE SUB DUP2 ADD SWAP1 PUSH2 0x252 SWAP2 SWAP1 PUSH2 0x2995 JUMP JUMPDEST PUSH2 0x90C JUMP JUMPDEST PUSH1 0x40 MLOAD PUSH2 0x265 SWAP3 SWAP2 SWAP1 PUSH2 0x29F4 JUMP JUMPDEST PUSH1 0x40 MLOAD DUP1 SWAP2 SUB SWAP1 RETURN JUMPDEST PUSH2 0x288 PUSH1 0x4 DUP1 CALLDATASIZE SUB DUP2 ADD SWAP1 PUSH2 0x283 SWAP2 SWAP1 PUSH2 0x2B57 JUMP JUMPDEST PUSH2 0x970 JUMP JUMPDEST STOP JUMPDEST CALLVALUE DUP1 ISZERO PUSH2 0x295 JUMPI PUSH0 DUP1 REVERT JUMPDEST POP PUSH2 0x29E PUSH2 0xAAC JUMP JUMPDEST PUSH1 0x40 MLOAD PUSH2 0x2AB SWAP2 SWAP1 PUSH2 0x2BC9 JUMP JUMPDEST PUSH1 0x40 MLOAD DUP1 SWAP2 SUB SWAP1 RETURN JUMPDEST CALLVALUE DUP1 ISZERO PUSH2 0x2BF JUMPI PUSH0 DUP1 REVERT JUMPDEST POP PUSH2 0x2DA PUSH1 0x4 DUP1 CALLDATASIZE SUB DUP2 ADD SWAP1 PUSH2 0x2D5 SWAP2 SWAP1 PUSH2 0x296A JUMP JUMPDEST PUSH2 0xB63 JUMP JUMPDEST PUSH1 0x40 MLOAD PUSH2 0x2E7 SWAP2 SWAP1 PUSH2 0x2951 JUMP JUMPDEST PUSH1 0x40 MLOAD DUP1 SWAP2 SUB SWAP1 RETURN JUMPDEST CALLVALUE DUP1 ISZERO PUSH2 0x2FB JUMPI PUSH0 DUP1 REVERT JUMPDEST POP PUSH2 0x316 PUSH1 0x4 DUP1 CALLDATASIZE SUB DUP2 ADD SWAP1 PUSH2 0x311 SWAP2 SWAP1 PUSH2 0x2917 JUMP JUMPDEST PUSH2 0xC00 JUMP JUMPDEST STOP JUMPDEST CALLVALUE DUP1 ISZERO PUSH2 0x323 JUMPI PUSH0 DUP1 REVERT JUMPDEST POP PUSH2 0x33E PUSH1 0x4 DUP1 CALLDATASIZE SUB DUP2 ADD SWAP1 PUSH2 0x339 SWAP2 SWAP1 PUSH2 0x2995 JUMP JUMPDEST PUSH2 0xCE6 JUMP JUMPDEST STOP JUMPDEST CALLVALUE DUP1 ISZERO PUSH2 0x34B JUMPI PUSH0 DUP1 REVERT JUMPDEST POP PUSH2 0x354 PUSH2 0xF35 JUMP JUMPDEST PUSH1 0x40 MLOAD PUSH2 0x361 SWAP2 SWAP1 PUSH2 0x2BE2 JUMP JUMPDEST PUSH1 0x40 MLOAD DUP1 SWAP2 SUB SWAP1 RETURN JUMPDEST CALLVALUE DUP1 ISZERO PUSH2 0x375 JUMPI PUSH0 DUP1 REVERT JUMPDEST POP PUSH2 0x390 PUSH1 0x4 DUP1 CALLDATASIZE SUB DUP2 ADD SWAP1 PUSH2 0x38B SWAP2 SWAP1 PUSH2 0x2CBF JUMP JUMPDEST PUSH2 0xF5A JUMP JUMPDEST STOP JUMPDEST CALLVALUE DUP1 ISZERO PUSH2 0x39D JUMPI PUSH0 DUP1 REVERT JUMPDEST POP PUSH2 0x3A6 PUSH2 0xFAD JUMP JUMPDEST PUSH1 0x40 MLOAD PUSH2 0x3B3 SWAP2 SWAP1 PUSH2 0x2BE2 JUMP JUMPDEST PUSH1 0x40 MLOAD DUP1 SWAP2 SUB SWAP1 RETURN JUMPDEST CALLVALUE DUP1 ISZERO PUSH2 0x3C7 JUMPI PUSH0 DUP1 REVERT JUMPDEST POP PUSH2 0x3E2 PUSH1 0x4 DUP1 CALLDATASIZE SUB DUP2 ADD SWAP1 PUSH2 0x3DD SWAP2 SWAP1 PUSH2 0x296A JUMP JUMPDEST PUSH2 0xFD2 JUMP JUMPDEST PUSH1 0x40 MLOAD PUSH2 0x3EF SWAP2 SWAP1 PUSH2 0x2951 JUMP JUMPDEST PUSH1 0x40 MLOAD DUP1 SWAP2 SUB SWAP1 RETURN JUMPDEST CALLVALUE DUP1 ISZERO PUSH2 0x403 JUMPI PUSH0 DUP1 REVERT JUMPDEST POP PUSH2 0x41E PUSH1 0x4 DUP1 CALLDATASIZE SUB DUP2 ADD SWAP1 PUSH2 0x419 SWAP2 SWAP1 PUSH2 0x2917 JUMP JUMPDEST PUSH2 0xFE7 JUMP JUMPDEST PUSH1 0x40 MLOAD PUSH2 0x42B SWAP2 SWAP1 PUSH2 0x2BE2 JUMP JUMPDEST PUSH1 0x40 MLOAD DUP1 SWAP2 SUB SWAP1 RETURN JUMPDEST CALLVALUE DUP1 ISZERO PUSH2 0x43F JUMPI PUSH0 DUP1 REVERT JUMPDEST POP PUSH2 0x45A PUSH1 0x4 DUP1 CALLDATASIZE SUB DUP2 ADD SWAP1 PUSH2 0x455 SWAP2 SWAP1 PUSH2 0x2917 JUMP JUMPDEST PUSH2 0x102F JUMP JUMPDEST PUSH1 0x40 MLOAD PUSH2 0x467 SWAP2 SWAP1 PUSH2 0x2951 JUMP JUMPDEST PUSH1 0x40 MLOAD DUP1 SWAP2 SUB SWAP1 RETURN JUMPDEST CALLVALUE DUP1 ISZERO PUSH2 0x47B JUMPI PUSH0 DUP1 REVERT JUMPDEST POP PUSH2 0x496 PUSH1 0x4 DUP1 CALLDATASIZE SUB DUP2 ADD SWAP1 PUSH2 0x491 SWAP2 SWAP1 PUSH2 0x2917 JUMP JUMPDEST PUSH2 0x11F3 JUMP JUMPDEST PUSH1 0x40 MLOAD PUSH2 0x4A8 SWAP7 SWAP6 SWAP5 SWAP4 SWAP3 SWAP2 SWAP1 PUSH2 0x2EFD JUMP JUMPDEST PUSH1 0x40 MLOAD DUP1 SWAP2 SUB SWAP1 RETURN JUMPDEST CALLVALUE DUP1 ISZERO PUSH2 0x4BC JUMPI PUSH0 DUP1 REVERT JUMPDEST POP PUSH2 0x4D7 PUSH1 0x4 DUP1 CALLDATASIZE SUB DUP2 ADD SWAP1 PUSH2 0x4D2 SWAP2 SWAP1 PUSH2 0x30ED JUMP JUMPDEST PUSH2 0x1510 JUMP JUMPDEST STOP JUMPDEST CALLVALUE DUP1 ISZERO PUSH2 0x4E4 JUMPI PUSH0 DUP1 REVERT JUMPDEST POP PUSH2 0x4ED PUSH2 0x16C0 JUMP JUMPDEST PUSH1 0x40 MLOAD PUSH2 0x4FA SWAP2 SWAP1 PUSH2 0x2BE2 JUMP JUMPDEST PUSH1 0x40 MLOAD DUP1 SWAP2 SUB SWAP1 RETURN JUMPDEST CALLVALUE DUP1 ISZERO PUSH2 0x50E JUMPI PUSH0 DUP1 REVERT JUMPDEST POP PUSH2 0x529 PUSH1 0x4 DUP1 CALLDATASIZE SUB DUP2 ADD SWAP1 PUSH2 0x524 SWAP2 SWAP1 PUSH2 0x296A JUMP JUMPDEST PUSH2 0x16E5 JUMP JUMPDEST STOP JUMPDEST PUSH1 0x8 PUSH1 0x20 MSTORE DUP2 PUSH0 MSTORE PUSH1 0x40 PUSH0 KECCAK256 PUSH1 0x20 MSTORE DUP1 PUSH0 MSTORE PUSH1 0x40 PUSH0 KECCAK256 PUSH0 SWAP2 POP SWAP2 POP POP SLOAD DUP2 JUMP JUMPDEST PUSH1 0x7 PUSH1 0x20 MSTORE DUP1 PUSH0 MSTORE PUSH1 0x40 PUSH0 KECCAK256 PUSH0 SWAP2 POP SWAP1 POP SLOAD DUP2 JUMP JUMPDEST PUSH1 0x4 PUSH1 0x20 MSTORE DUP1 PUSH0 MSTORE PUSH1 0x40 PUSH0 KECCAK256 PUSH0 SWAP2 POP SWAP1 POP SLOAD DUP2 JUMP JUMPDEST PUSH0 PUSH2 0x57F CALLER PUSH2 0xB63 JUMP JUMPDEST SWAP1 POP DUP2 DUP2 LT PUSH2 0x5C7 JUMPI CALLER DUP2 PUSH1 0x40 MLOAD PUSH32 0xF6DEAA0400000000000000000000000000000000000000000000000000000000 DUP2 MSTORE PUSH1 0x4 ADD PUSH2 0x5BE SWAP3 SWAP2 SWAP1 PUSH2 0x29F4 JUMP JUMPDEST PUSH1 0x40 MLOAD DUP1 SWAP2 SUB SWAP1 REVERT JUMPDEST PUSH1 0x2 PUSH0 SWAP1 SLOAD SWAP1 PUSH2 0x100 EXP SWAP1 DIV PUSH20 0xFFFFFFFFFFFFFFFFFFFFFFFFFFFFFFFFFFFFFFFF AND PUSH20 0xFFFFFFFFFFFFFFFFFFFFFFFFFFFFFFFFFFFFFFFF AND PUSH4 0xA9059CBB CALLER DUP5 PUSH1 0x40 MLOAD DUP4 PUSH4 0xFFFFFFFF AND PUSH1 0xE0 SHL DUP2 MSTORE PUSH1 0x4 ADD PUSH2 0x623 SWAP3 SWAP2 SWAP1 PUSH2 0x29F4 JUMP JUMPDEST PUSH1 0x20 PUSH1 0x40 MLOAD DUP1 DUP4 SUB DUP2 PUSH0 DUP8 GAS CALL ISZERO DUP1 ISZERO PUSH2 0x63F JUMPI RETURNDATASIZE PUSH0 DUP1 RETURNDATACOPY RETURNDATASIZE PUSH0 REVERT JUMPDEST POP POP POP POP PUSH1 0x40 MLOAD RETURNDATASIZE PUSH1 0x1F NOT PUSH1 0x1F DUP3 ADD AND DUP3 ADD DUP1 PUSH1 0x40 MSTORE POP DUP2 ADD SWAP1 PUSH2 0x663 SWAP2 SWAP1 PUSH2 0x3169 JUMP JUMPDEST PUSH2 0x6A2 JUMPI PUSH1 0x40 MLOAD PUSH32 0x8C379A000000000000000000000000000000000000000000000000000000000 DUP2 MSTORE PUSH1 0x4 ADD PUSH2 0x699 SWAP1 PUSH2 0x31EE JUMP JUMPDEST PUSH1 0x40 MLOAD DUP1 SWAP2 SUB SWAP1 REVERT JUMPDEST DUP2 PUSH1 0x4 PUSH0 CALLER PUSH20 0xFFFFFFFFFFFFFFFFFFFFFFFFFFFFFFFFFFFFFFFF AND PUSH20 0xFFFFFFFFFFFFFFFFFFFFFFFFFFFFFFFFFFFFFFFF AND DUP2 MSTORE PUSH1 0x20 ADD SWAP1 DUP2 MSTORE PUSH1 0x20 ADD PUSH0 KECCAK256 PUSH0 DUP3 DUP3 SLOAD PUSH2 0x6EE SWAP2 SWAP1 PUSH2 0x3239 JUMP JUMPDEST SWAP3 POP POP DUP2 SWAP1 SSTORE POP CALLER PUSH20 0xFFFFFFFFFFFFFFFFFFFFFFFFFFFFFFFFFFFFFFFF AND PUSH32 0xF279E6A1F5E320CCA91135676D9CB6E44CA8A08C0B88342BCDB1144F6511B568 DUP4 PUSH1 0x4 PUSH0 CALLER PUSH20 0xFFFFFFFFFFFFFFFFFFFFFFFFFFFFFFFFFFFFFFFF AND PUSH20 0xFFFFFFFFFFFFFFFFFFFFFFFFFFFFFFFFFFFFFFFF AND DUP2 MSTORE PUSH1 0x20 ADD SWAP1 DUP2 MSTORE PUSH1 0x20 ADD PUSH0 KECCAK256 SLOAD PUSH1 0x40 MLOAD PUSH2 0x77A SWAP3 SWAP2 SWAP1 PUSH2 0x326C JUMP JUMPDEST PUSH1 0x40 MLOAD DUP1 SWAP2 SUB SWAP1 LOG2 POP POP JUMP JUMPDEST PUSH32 0x0 PUSH20 0xFFFFFFFFFFFFFFFFFFFFFFFFFFFFFFFFFFFFFFFF AND ADDRESS PUSH20 0xFFFFFFFFFFFFFFFFFFFFFFFFFFFFFFFFFFFFFFFF AND SUB PUSH2 0x814 JUMPI PUSH1 0x40 MLOAD PUSH32 0x8C379A000000000000000000000000000000000000000000000000000000000 DUP2 MSTORE PUSH1 0x4 ADD PUSH2 0x80B SWAP1 PUSH2 0x3303 JUMP JUMPDEST PUSH1 0x40 MLOAD DUP1 SWAP2 SUB SWAP1 REVERT JUMPDEST PUSH32 0x0 PUSH20 0xFFFFFFFFFFFFFFFFFFFFFFFFFFFFFFFFFFFFFFFF AND PUSH2 0x853 PUSH2 0x1896 JUMP JUMPDEST PUSH20 0xFFFFFFFFFFFFFFFFFFFFFFFFFFFFFFFFFFFFFFFF AND EQ PUSH2 0x8A9 JUMPI PUSH1 0x40 MLOAD PUSH32 0x8C379A000000000000000000000000000000000000000000000000000000000 DUP2 MSTORE PUSH1 0x4 ADD PUSH2 0x8A0 SWAP1 PUSH2 0x3391 JUMP JUMPDEST PUSH1 0x40 MLOAD DUP1 SWAP2 SUB SWAP1 REVERT JUMPDEST PUSH2 0x8B2 DUP2 PUSH2 0x18E9 JUMP JUMPDEST PUSH2 0x909 DUP2 PUSH0 PUSH8 0xFFFFFFFFFFFFFFFF DUP2 GT ISZERO PUSH2 0x8D0 JUMPI PUSH2 0x8CF PUSH2 0x2A33 JUMP JUMPDEST JUMPDEST PUSH1 0x40 MLOAD SWAP1 DUP1 DUP3 MSTORE DUP1 PUSH1 0x1F ADD PUSH1 0x1F NOT AND PUSH1 0x20 ADD DUP3 ADD PUSH1 0x40 MSTORE DUP1 ISZERO PUSH2 0x902 JUMPI DUP2 PUSH1 0x20 ADD PUSH1 0x1 DUP3 MUL DUP1 CALLDATASIZE DUP4 CALLDATACOPY DUP1 DUP3 ADD SWAP2 POP POP SWAP1 POP JUMPDEST POP PUSH0 PUSH2 0x19BD JUMP JUMPDEST POP JUMP JUMPDEST PUSH1 0x6 PUSH1 0x20 MSTORE DUP3 PUSH0 MSTORE PUSH1 0x40 PUSH0 KECCAK256 PUSH1 0x20 MSTORE DUP2 PUSH0 MSTORE PUSH1 0x40 PUSH0 KECCAK256 DUP2 DUP2 SLOAD DUP2 LT PUSH2 0x92F JUMPI PUSH0 DUP1 REVERT JUMPDEST SWAP1 PUSH0 MSTORE PUSH1 0x20 PUSH0 KECCAK256 SWAP1 PUSH1 0x2 MUL ADD PUSH0 SWAP3 POP SWAP3 POP POP POP DUP1 PUSH0 ADD PUSH0 SWAP1 SLOAD SWAP1 PUSH2 0x100 EXP SWAP1 DIV PUSH20 0xFFFFFFFFFFFFFFFFFFFFFFFFFFFFFFFFFFFFFFFF AND SWAP1 DUP1 PUSH1 0x1 ADD SLOAD SWAP1 POP DUP3 JUMP JUMPDEST PUSH32 0x0 PUSH20 0xFFFFFFFFFFFFFFFFFFFFFFFFFFFFFFFFFFFFFFFF AND ADDRESS PUSH20 0xFFFFFFFFFFFFFFFFFFFFFFFFFFFFFFFFFFFFFFFF AND SUB PUSH2 0x9FE JUMPI PUSH1 0x40 MLOAD PUSH32 0x8C379A000000000000000000000000000000000000000000000000000000000 DUP2 MSTORE PUSH1 0x4 ADD PUSH2 0x9F5 SWAP1 PUSH2 0x3303 JUMP JUMPDEST PUSH1 0x40 MLOAD DUP1 SWAP2 SUB SWAP1 REVERT JUMPDEST PUSH32 0x0 PUSH20 0xFFFFFFFFFFFFFFFFFFFFFFFFFFFFFFFFFFFFFFFF AND PUSH2 0xA3D PUSH2 0x1896 JUMP JUMPDEST PUSH20 0xFFFFFFFFFFFFFFFFFFFFFFFFFFFFFFFFFFFFFFFF AND EQ PUSH2 0xA93 JUMPI PUSH1 0x40 MLOAD PUSH32 0x8C379A000000000000000000000000000000000000000000000000000000000 DUP2 MSTORE PUSH1 0x4 ADD PUSH2 0xA8A SWAP1 PUSH2 0x3391 JUMP JUMPDEST PUSH1 0x40 MLOAD DUP1 SWAP2 SUB SWAP1 REVERT JUMPDEST PUSH2 0xA9C DUP3 PUSH2 0x18E9 JUMP JUMPDEST PUSH2 0xAA8 DUP3 DUP3 PUSH1 0x1 PUSH2 0x19BD JUMP JUMPDEST POP POP JUMP JUMPDEST PUSH0 PUSH32 0x0 PUSH20 0xFFFFFFFFFFFFFFFFFFFFFFFFFFFFFFFFFFFFFFFF AND ADDRESS PUSH20 0xFFFFFFFFFFFFFFFFFFFFFFFFFFFFFFFFFFFFFFFF AND EQ PUSH2 0xB3B JUMPI PUSH1 0x40 MLOAD PUSH32 0x8C379A000000000000000000000000000000000000000000000000000000000 DUP2 MSTORE PUSH1 0x4 ADD PUSH2 0xB32 SWAP1 PUSH2 0x341F JUMP JUMPDEST PUSH1 0x40 MLOAD DUP1 SWAP2 SUB SWAP1 REVERT JUMPDEST PUSH32 0x360894A13BA1A3210667C828492DB98DCA3E2076CC3735A920A3CA505D382BBC PUSH0 SHL SWAP1 POP SWAP1 JUMP JUMPDEST PUSH0 DUP1 PUSH1 0x4 PUSH0 DUP5 PUSH20 0xFFFFFFFFFFFFFFFFFFFFFFFFFFFFFFFFFFFFFFFF AND PUSH20 0xFFFFFFFFFFFFFFFFFFFFFFFFFFFFFFFFFFFFFFFF AND DUP2 MSTORE PUSH1 0x20 ADD SWAP1 DUP2 MSTORE PUSH1 0x20 ADD PUSH0 KECCAK256 SLOAD SWAP1 POP PUSH0 PUSH1 0x5 PUSH0 DUP6 PUSH20 0xFFFFFFFFFFFFFFFFFFFFFFFFFFFFFFFFFFFFFFFF AND PUSH20 0xFFFFFFFFFFFFFFFFFFFFFFFFFFFFFFFFFFFFFFFF AND DUP2 MSTORE PUSH1 0x20 ADD SWAP1 DUP2 MSTORE PUSH1 0x20 ADD PUSH0 KECCAK256 SLOAD SWAP1 POP PUSH0 DUP2 SWAP1 POP DUP1 DUP4 PUSH2 0xBF6 SWAP2 SWAP1 PUSH2 0x3239 JUMP JUMPDEST SWAP4 POP POP POP POP SWAP2 SWAP1 POP JUMP JUMPDEST PUSH0 DUP2 GT PUSH2 0xC42 JUMPI PUSH1 0x40 MLOAD PUSH32 0x8C379A000000000000000000000000000000000000000000000000000000000 DUP2 MSTORE PUSH1 0x4 ADD PUSH2 0xC39 SWAP1 PUSH2 0x3487 JUMP JUMPDEST PUSH1 0x40 MLOAD DUP1 SWAP2 SUB SWAP1 REVERT JUMPDEST DUP1 PUSH1 0x4 PUSH0 CALLER PUSH20 0xFFFFFFFFFFFFFFFFFFFFFFFFFFFFFFFFFFFFFFFF AND PUSH20 0xFFFFFFFFFFFFFFFFFFFFFFFFFFFFFFFFFFFFFFFF AND DUP2 MSTORE PUSH1 0x20 ADD SWAP1 DUP2 MSTORE PUSH1 0x20 ADD PUSH0 KECCAK256 PUSH0 DUP3 DUP3 SLOAD PUSH2 0xC8E SWAP2 SWAP1 PUSH2 0x34A5 JUMP JUMPDEST SWAP3 POP POP DUP2 SWAP1 SSTORE POP CALLER PUSH20 0xFFFFFFFFFFFFFFFFFFFFFFFFFFFFFFFFFFFFFFFF AND PUSH32 0xA0C8EDA28AB82FE28C2BCAA48A1CE2B5EAC8DBED005A6E8EB62398577E908D5C DUP3 PUSH1 0x40 MLOAD PUSH2 0xCDB SWAP2 SWAP1 PUSH2 0x2951 JUMP JUMPDEST PUSH1 0x40 MLOAD DUP1 SWAP2 SUB SWAP1 LOG2 POP JUMP JUMPDEST DUP1 PUSH2 0xCF0 CALLER PUSH2 0xB63 JUMP JUMPDEST LT ISZERO PUSH2 0xD31 JUMPI PUSH1 0x40 MLOAD PUSH32 0x8C379A000000000000000000000000000000000000000000000000000000000 DUP2 MSTORE PUSH1 0x4 ADD PUSH2 0xD28 SWAP1 PUSH2 0x3522 JUMP JUMPDEST PUSH1 0x40 MLOAD DUP1 SWAP2 SUB SWAP1 REVERT JUMPDEST DUP1 PUSH1 0x5 PUSH0 CALLER PUSH20 0xFFFFFFFFFFFFFFFFFFFFFFFFFFFFFFFFFFFFFFFF AND PUSH20 0xFFFFFFFFFFFFFFFFFFFFFFFFFFFFFFFFFFFFFFFF AND DUP2 MSTORE PUSH1 0x20 ADD SWAP1 DUP2 MSTORE PUSH1 0x20 ADD PUSH0 KECCAK256 PUSH0 DUP3 DUP3 SLOAD PUSH2 0xD7D SWAP2 SWAP1 PUSH2 0x34A5 JUMP JUMPDEST SWAP3 POP POP DUP2 SWAP1 SSTORE POP PUSH0 PUSH1 0x3 DUP5 DUP2 SLOAD DUP2 LT PUSH2 0xD99 JUMPI PUSH2 0xD98 PUSH2 0x3540 JUMP JUMPDEST JUMPDEST SWAP1 PUSH0 MSTORE PUSH1 0x20 PUSH0 KECCAK256 SWAP1 PUSH1 0x2 MUL ADD SWAP1 POP DUP2 DUP2 PUSH1 0x1 ADD DUP5 DUP2 SLOAD DUP2 LT PUSH2 0xDBE JUMPI PUSH2 0xDBD PUSH2 0x3540 JUMP JUMPDEST JUMPDEST SWAP1 PUSH0 MSTORE PUSH1 0x20 PUSH0 KECCAK256 SWAP1 PUSH1 0x3 MUL ADD PUSH1 0x1 ADD PUSH0 DUP3 DUP3 SLOAD PUSH2 0xDDB SWAP2 SWAP1 PUSH2 0x34A5 JUMP JUMPDEST SWAP3 POP POP DUP2 SWAP1 SSTORE POP PUSH1 0x1 DUP2 PUSH1 0x1 ADD DUP5 DUP2 SLOAD DUP2 LT PUSH2 0xDFA JUMPI PUSH2 0xDF9 PUSH2 0x3540 JUMP JUMPDEST JUMPDEST SWAP1 PUSH0 MSTORE PUSH1 0x20 PUSH0 KECCAK256 SWAP1 PUSH1 0x3 MUL ADD PUSH1 0x2 ADD PUSH0 DUP3 DUP3 SLOAD PUSH2 0xE17 SWAP2 SWAP1 PUSH2 0x34A5 JUMP JUMPDEST SWAP3 POP POP DUP2 SWAP1 SSTORE POP PUSH1 0x6 PUSH0 DUP6 DUP2 MSTORE PUSH1 0x20 ADD SWAP1 DUP2 MSTORE PUSH1 0x20 ADD PUSH0 KECCAK256 PUSH0 DUP5 DUP2 MSTORE PUSH1 0x20 ADD SWAP1 DUP2 MSTORE PUSH1 0x20 ADD PUSH0 KECCAK256 PUSH1 0x40 MLOAD DUP1 PUSH1 0x40 ADD PUSH1 0x40 MSTORE DUP1 CALLER PUSH20 0xFFFFFFFFFFFFFFFFFFFFFFFFFFFFFFFFFFFFFFFF AND DUP2 MSTORE PUSH1 0x20 ADD DUP5 DUP2 MSTORE POP SWAP1 DUP1 PUSH1 0x1 DUP2 SLOAD ADD DUP1 DUP3 SSTORE DUP1 SWAP2 POP POP PUSH1 0x1 SWAP1 SUB SWAP1 PUSH0 MSTORE PUSH1 0x20 PUSH0 KECCAK256 SWAP1 PUSH1 0x2 MUL ADD PUSH0 SWAP1 SWAP2 SWAP1 SWAP2 SWAP1 SWAP2 POP PUSH0 DUP3 ADD MLOAD DUP2 PUSH0 ADD PUSH0 PUSH2 0x100 EXP DUP2 SLOAD DUP2 PUSH20 0xFFFFFFFFFFFFFFFFFFFFFFFFFFFFFFFFFFFFFFFF MUL NOT AND SWAP1 DUP4 PUSH20 0xFFFFFFFFFFFFFFFFFFFFFFFFFFFFFFFFFFFFFFFF AND MUL OR SWAP1 SSTORE POP PUSH1 0x20 DUP3 ADD MLOAD DUP2 PUSH1 0x1 ADD SSTORE POP POP DUP3 DUP5 CALLER PUSH20 0xFFFFFFFFFFFFFFFFFFFFFFFFFFFFFFFFFFFFFFFF AND PUSH32 0xC32B42768A47A585121E9B8D7A2AB9D3F34C326A192DEE11EE1732E3D18313F3 DUP6 PUSH1 0x40 MLOAD PUSH2 0xF27 SWAP2 SWAP1 PUSH2 0x2951 JUMP JUMPDEST PUSH1 0x40 MLOAD DUP1 SWAP2 SUB SWAP1 LOG4 POP POP POP POP JUMP JUMPDEST PUSH0 PUSH1 0x2 SWAP1 SLOAD SWAP1 PUSH2 0x100 EXP SWAP1 DIV PUSH20 0xFFFFFFFFFFFFFFFFFFFFFFFFFFFFFFFFFFFFFFFF AND DUP2 JUMP JUMPDEST PUSH0 PUSH2 0xF65 DUP5 DUP5 PUSH2 0x1B27 JUMP JUMPDEST SWAP1 POP DUP1 ISZERO PUSH2 0xF7C JUMPI PUSH2 0xF77 DUP5 DUP5 PUSH2 0x1D14 JUMP JUMPDEST PUSH2 0xF91 JUMP JUMPDEST PUSH2 0xF86 DUP5 DUP4 PUSH2 0x1E85 JUMP JUMPDEST PUSH2 0xF90 DUP5 DUP5 PUSH2 0x1FF6 JUMP JUMPDEST JUMPDEST DUP3 PUSH1 0x7 PUSH0 DUP7 DUP2 MSTORE PUSH1 0x20 ADD SWAP1 DUP2 MSTORE PUSH1 0x20 ADD PUSH0 KECCAK256 DUP2 SWAP1 SSTORE POP POP POP POP POP JUMP JUMPDEST PUSH1 0x1 PUSH0 SWAP1 SLOAD SWAP1 PUSH2 0x100 EXP SWAP1 DIV PUSH20 0xFFFFFFFFFFFFFFFFFFFFFFFFFFFFFFFFFFFFFFFF AND DUP2 JUMP JUMPDEST PUSH1 0x5 PUSH1 0x20 MSTORE DUP1 PUSH0 MSTORE PUSH1 0x40 PUSH0 KECCAK256 PUSH0 SWAP2 POP SWAP1 POP SLOAD DUP2 JUMP JUMPDEST PUSH1 0x3 DUP2 DUP2 SLOAD DUP2 LT PUSH2 0xFF6 JUMPI PUSH0 DUP1 REVERT JUMPDEST SWAP1 PUSH0 MSTORE PUSH1 0x20 PUSH0 KECCAK256 SWAP1 PUSH1 0x2 MUL ADD PUSH0 SWAP2 POP SWAP1 POP DUP1 PUSH0 ADD PUSH0 SWAP1 SLOAD SWAP1 PUSH2 0x100 EXP SWAP1 DIV PUSH20 0xFFFFFFFFFFFFFFFFFFFFFFFFFFFFFFFFFFFFFFFF AND SWAP1 POP DUP2 JUMP JUMPDEST PUSH0 PUSH1 0x2 PUSH0 SWAP1 SLOAD SWAP1 PUSH2 0x100 EXP SWAP1 DIV PUSH20 0xFFFFFFFFFFFFFFFFFFFFFFFFFFFFFFFFFFFFFFFF AND PUSH20 0xFFFFFFFFFFFFFFFFFFFFFFFFFFFFFFFFFFFFFFFF AND PUSH4 0x23B872DD CALLER ADDRESS DUP6 PUSH1 0x40 MLOAD DUP5 PUSH4 0xFFFFFFFF AND PUSH1 0xE0 SHL DUP2 MSTORE PUSH1 0x4 ADD PUSH2 0x108E SWAP4 SWAP3 SWAP2 SWAP1 PUSH2 0x356D JUMP JUMPDEST PUSH1 0x20 PUSH1 0x40 MLOAD DUP1 DUP4 SUB DUP2 PUSH0 DUP8 GAS CALL ISZERO DUP1 ISZERO PUSH2 0x10AA JUMPI RETURNDATASIZE PUSH0 DUP1 RETURNDATACOPY RETURNDATASIZE PUSH0 REVERT JUMPDEST POP POP POP POP PUSH1 0x40 MLOAD RETURNDATASIZE PUSH1 0x1F NOT PUSH1 0x1F DUP3 ADD AND DUP3 ADD DUP1 PUSH1 0x40 MSTORE POP DUP2 ADD SWAP1 PUSH2 0x10CE SWAP2 SWAP1 PUSH2 0x3169 JUMP JUMPDEST PUSH2 0x110D JUMPI PUSH1 0x40 MLOAD PUSH32 0x8C379A000000000000000000000000000000000000000000000000000000000 DUP2 MSTORE PUSH1 0x4 ADD PUSH2 0x1104 SWAP1 PUSH2 0x31EE JUMP JUMPDEST PUSH1 0x40 MLOAD DUP1 SWAP2 SUB SWAP1 REVERT JUMPDEST DUP2 PUSH1 0x4 PUSH0 CALLER PUSH20 0xFFFFFFFFFFFFFFFFFFFFFFFFFFFFFFFFFFFFFFFF AND PUSH20 0xFFFFFFFFFFFFFFFFFFFFFFFFFFFFFFFFFFFFFFFF AND DUP2 MSTORE PUSH1 0x20 ADD SWAP1 DUP2 MSTORE PUSH1 0x20 ADD PUSH0 KECCAK256 PUSH0 DUP3 DUP3 SLOAD PUSH2 0x1159 SWAP2 SWAP1 PUSH2 0x34A5 JUMP JUMPDEST SWAP3 POP POP DUP2 SWAP1 SSTORE POP CALLER PUSH20 0xFFFFFFFFFFFFFFFFFFFFFFFFFFFFFFFFFFFFFFFF AND PUSH32 0x2DA466A7B24304F47E87FA2E1E5A81B9831CE54FEC19055CE277CA2F39BA42C4 DUP4 PUSH1 0x40 MLOAD PUSH2 0x11A6 SWAP2 SWAP1 PUSH2 0x2951 JUMP JUMPDEST PUSH1 0x40 MLOAD DUP1 SWAP2 SUB SWAP1 LOG2 PUSH1 0x4 PUSH0 CALLER PUSH20 0xFFFFFFFFFFFFFFFFFFFFFFFFFFFFFFFFFFFFFFFF AND PUSH20 0xFFFFFFFFFFFFFFFFFFFFFFFFFFFFFFFFFFFFFFFF AND DUP2 MSTORE PUSH1 0x20 ADD SWAP1 DUP2 MSTORE PUSH1 0x20 ADD PUSH0 KECCAK256 SLOAD SWAP1 POP SWAP2 SWAP1 POP JUMP JUMPDEST PUSH0 PUSH1 0x60 DUP1 PUSH1 0x60 PUSH0 DUP1 PUSH0 PUSH1 0x3 DUP9 DUP2 SLOAD DUP2 LT PUSH2 0x1210 JUMPI PUSH2 0x120F PUSH2 0x3540 JUMP JUMPDEST JUMPDEST SWAP1 PUSH0 MSTORE PUSH1 0x20 PUSH0 KECCAK256 SWAP1 PUSH1 0x2 MUL ADD SWAP1 POP PUSH0 DUP2 PUSH1 0x1 ADD DUP1 SLOAD SWAP1 POP SWAP1 POP DUP1 PUSH8 0xFFFFFFFFFFFFFFFF DUP2 GT ISZERO PUSH2 0x1243 JUMPI PUSH2 0x1242 PUSH2 0x2A33 JUMP JUMPDEST JUMPDEST PUSH1 0x40 MLOAD SWAP1 DUP1 DUP3 MSTORE DUP1 PUSH1 0x20 MUL PUSH1 0x20 ADD DUP3 ADD PUSH1 0x40 MSTORE DUP1 ISZERO PUSH2 0x1276 JUMPI DUP2 PUSH1 0x20 ADD JUMPDEST PUSH1 0x60 DUP2 MSTORE PUSH1 0x20 ADD SWAP1 PUSH1 0x1 SWAP1 SUB SWAP1 DUP2 PUSH2 0x1261 JUMPI SWAP1 POP JUMPDEST POP SWAP7 POP DUP1 PUSH8 0xFFFFFFFFFFFFFFFF DUP2 GT ISZERO PUSH2 0x1293 JUMPI PUSH2 0x1292 PUSH2 0x2A33 JUMP JUMPDEST JUMPDEST PUSH1 0x40 MLOAD SWAP1 DUP1 DUP3 MSTORE DUP1 PUSH1 0x20 MUL PUSH1 0x20 ADD DUP3 ADD PUSH1 0x40 MSTORE DUP1 ISZERO PUSH2 0x12C1 JUMPI DUP2 PUSH1 0x20 ADD PUSH1 0x20 DUP3 MUL DUP1 CALLDATASIZE DUP4 CALLDATACOPY DUP1 DUP3 ADD SWAP2 POP POP SWAP1 POP JUMPDEST POP SWAP6 POP DUP1 PUSH8 0xFFFFFFFFFFFFFFFF DUP2 GT ISZERO PUSH2 0x12DE JUMPI PUSH2 0x12DD PUSH2 0x2A33 JUMP JUMPDEST JUMPDEST PUSH1 0x40 MLOAD SWAP1 DUP1 DUP3 MSTORE DUP1 PUSH1 0x20 MUL PUSH1 0x20 ADD DUP3 ADD PUSH1 0x40 MSTORE DUP1 ISZERO PUSH2 0x130C JUMPI DUP2 PUSH1 0x20 ADD PUSH1 0x20 DUP3 MUL DUP1 CALLDATASIZE DUP4 CALLDATACOPY DUP1 DUP3 ADD SWAP2 POP POP SWAP1 POP JUMPDEST POP SWAP5 POP DUP2 PUSH0 ADD PUSH0 SWAP1 SLOAD SWAP1 PUSH2 0x100 EXP SWAP1 DIV PUSH20 0xFFFFFFFFFFFFFFFFFFFFFFFFFFFFFFFFFFFFFFFF AND SWAP8 POP PUSH0 JUMPDEST DUP2 DUP2 LT ISZERO PUSH2 0x1504 JUMPI DUP3 PUSH1 0x1 ADD DUP2 DUP2 SLOAD DUP2 LT PUSH2 0x1354 JUMPI PUSH2 0x1353 PUSH2 0x3540 JUMP JUMPDEST JUMPDEST SWAP1 PUSH0 MSTORE PUSH1 0x20 PUSH0 KECCAK256 SWAP1 PUSH1 0x3 MUL ADD PUSH0 ADD DUP1 SLOAD PUSH2 0x136D SWAP1 PUSH2 0x35CF JUMP JUMPDEST DUP1 PUSH1 0x1F ADD PUSH1 0x20 DUP1 SWAP2 DIV MUL PUSH1 0x20 ADD PUSH1 0x40 MLOAD SWAP1 DUP2 ADD PUSH1 0x40 MSTORE DUP1 SWAP3 SWAP2 SWAP1 DUP2 DUP2 MSTORE PUSH1 0x20 ADD DUP3 DUP1 SLOAD PUSH2 0x1399 SWAP1 PUSH2 0x35CF JUMP JUMPDEST DUP1 ISZERO PUSH2 0x13E4 JUMPI DUP1 PUSH1 0x1F LT PUSH2 0x13BB JUMPI PUSH2 0x100 DUP1 DUP4 SLOAD DIV MUL DUP4 MSTORE SWAP2 PUSH1 0x20 ADD SWAP2 PUSH2 0x13E4 JUMP JUMPDEST DUP3 ADD SWAP2 SWAP1 PUSH0 MSTORE PUSH1 0x20 PUSH0 KECCAK256 SWAP1 JUMPDEST DUP2 SLOAD DUP2 MSTORE SWAP1 PUSH1 0x1 ADD SWAP1 PUSH1 0x20 ADD DUP1 DUP4 GT PUSH2 0x13C7 JUMPI DUP3 SWAP1 SUB PUSH1 0x1F AND DUP3 ADD SWAP2 JUMPDEST POP POP POP POP POP DUP9 DUP3 DUP2 MLOAD DUP2 LT PUSH2 0x13FC JUMPI PUSH2 0x13FB PUSH2 0x3540 JUMP JUMPDEST JUMPDEST PUSH1 0x20 MUL PUSH1 0x20 ADD ADD DUP2 SWAP1 MSTORE POP DUP3 PUSH1 0x1 ADD DUP2 DUP2 SLOAD DUP2 LT PUSH2 0x141D JUMPI PUSH2 0x141C PUSH2 0x3540 JUMP JUMPDEST JUMPDEST SWAP1 PUSH0 MSTORE PUSH1 0x20 PUSH0 KECCAK256 SWAP1 PUSH1 0x3 MUL ADD PUSH1 0x1 ADD SLOAD DUP8 DUP3 DUP2 MLOAD DUP2 LT PUSH2 0x1440 JUMPI PUSH2 0x143F PUSH2 0x3540 JUMP JUMPDEST JUMPDEST PUSH1 0x20 MUL PUSH1 0x20 ADD ADD DUP2 DUP2 MSTORE POP POP DUP3 PUSH1 0x1 ADD DUP2 DUP2 SLOAD DUP2 LT PUSH2 0x1462 JUMPI PUSH2 0x1461 PUSH2 0x3540 JUMP JUMPDEST JUMPDEST SWAP1 PUSH0 MSTORE PUSH1 0x20 PUSH0 KECCAK256 SWAP1 PUSH1 0x3 MUL ADD PUSH1 0x2 ADD SLOAD DUP7 DUP3 DUP2 MLOAD DUP2 LT PUSH2 0x1485 JUMPI PUSH2 0x1484 PUSH2 0x3540 JUMP JUMPDEST JUMPDEST PUSH1 0x20 MUL PUSH1 0x20 ADD ADD DUP2 DUP2 MSTORE POP POP DUP3 PUSH1 0x1 ADD DUP2 DUP2 SLOAD DUP2 LT PUSH2 0x14A7 JUMPI PUSH2 0x14A6 PUSH2 0x3540 JUMP JUMPDEST JUMPDEST SWAP1 PUSH0 MSTORE PUSH1 0x20 PUSH0 KECCAK256 SWAP1 PUSH1 0x3 MUL ADD PUSH1 0x2 ADD SLOAD DUP5 PUSH2 0x14C2 SWAP2 SWAP1 PUSH2 0x34A5 JUMP JUMPDEST SWAP4 POP DUP3 PUSH1 0x1 ADD DUP2 DUP2 SLOAD DUP2 LT PUSH2 0x14DA JUMPI PUSH2 0x14D9 PUSH2 0x3540 JUMP JUMPDEST JUMPDEST SWAP1 PUSH0 MSTORE PUSH1 0x20 PUSH0 KECCAK256 SWAP1 PUSH1 0x3 MUL ADD PUSH1 0x1 ADD SLOAD DUP6 PUSH2 0x14F5 SWAP2 SWAP1 PUSH2 0x34A5 JUMP JUMPDEST SWAP5 POP DUP1 DUP1 PUSH1 0x1 ADD SWAP2 POP POP PUSH2 0x1336 JUMP JUMPDEST POP POP POP SWAP2 SWAP4 SWAP6 POP SWAP2 SWAP4 SWAP6 JUMP JUMPDEST PUSH0 DUP2 MLOAD GT PUSH2 0x1553 JUMPI PUSH1 0x40 MLOAD PUSH32 0x8C379A000000000000000000000000000000000000000000000000000000000 DUP2 MSTORE PUSH1 0x4 ADD PUSH2 0x154A SWAP1 PUSH2 0x3649 JUMP JUMPDEST PUSH1 0x40 MLOAD DUP1 SWAP2 SUB SWAP1 REVERT JUMPDEST PUSH0 PUSH1 0x3 PUSH1 0x1 DUP2 PUSH1 0x1 DUP2 SLOAD ADD DUP1 DUP3 SSTORE DUP1 SWAP2 POP POP SUB SWAP1 PUSH0 MSTORE PUSH1 0x20 PUSH0 KECCAK256 SWAP1 PUSH1 0x2 MUL ADD SWAP1 POP CALLER DUP2 PUSH0 ADD PUSH0 PUSH2 0x100 EXP DUP2 SLOAD DUP2 PUSH20 0xFFFFFFFFFFFFFFFFFFFFFFFFFFFFFFFFFFFFFFFF MUL NOT AND SWAP1 DUP4 PUSH20 0xFFFFFFFFFFFFFFFFFFFFFFFFFFFFFFFFFFFFFFFF AND MUL OR SWAP1 SSTORE POP PUSH0 JUMPDEST DUP3 MLOAD DUP2 LT ISZERO PUSH2 0x1656 JUMPI DUP2 PUSH1 0x1 ADD PUSH1 0x40 MLOAD DUP1 PUSH1 0x60 ADD PUSH1 0x40 MSTORE DUP1 DUP6 DUP5 DUP2 MLOAD DUP2 LT PUSH2 0x15E2 JUMPI PUSH2 0x15E1 PUSH2 0x3540 JUMP JUMPDEST JUMPDEST PUSH1 0x20 MUL PUSH1 0x20 ADD ADD MLOAD DUP2 MSTORE PUSH1 0x20 ADD PUSH0 DUP2 MSTORE PUSH1 0x20 ADD PUSH0 DUP2 MSTORE POP SWAP1 DUP1 PUSH1 0x1 DUP2 SLOAD ADD DUP1 DUP3 SSTORE DUP1 SWAP2 POP POP PUSH1 0x1 SWAP1 SUB SWAP1 PUSH0 MSTORE PUSH1 0x20 PUSH0 KECCAK256 SWAP1 PUSH1 0x3 MUL ADD PUSH0 SWAP1 SWAP2 SWAP1 SWAP2 SWAP1 SWAP2 POP PUSH0 DUP3 ADD MLOAD DUP2 PUSH0 ADD SWAP1 DUP2 PUSH2 0x1632 SWAP2 SWAP1 PUSH2 0x3804 JUMP JUMPDEST POP PUSH1 0x20 DUP3 ADD MLOAD DUP2 PUSH1 0x1 ADD SSTORE PUSH1 0x40 DUP3 ADD MLOAD DUP2 PUSH1 0x2 ADD SSTORE POP POP DUP1 DUP1 PUSH1 0x1 ADD SWAP2 POP POP PUSH2 0x15B7 JUMP JUMPDEST POP PUSH0 PUSH1 0x1 PUSH1 0x3 DUP1 SLOAD SWAP1 POP PUSH2 0x166A SWAP2 SWAP1 PUSH2 0x3239 JUMP JUMPDEST SWAP1 POP DUP1 CALLER PUSH20 0xFFFFFFFFFFFFFFFFFFFFFFFFFFFFFFFFFFFFFFFF AND PUSH32 0x9A6F89A0FDF2B617E645524A789BBEAB5B66BF3517973CA92DAF26F077603F85 DUP6 PUSH1 0x40 MLOAD PUSH2 0x16B3 SWAP2 SWAP1 PUSH2 0x38D3 JUMP JUMPDEST PUSH1 0x40 MLOAD DUP1 SWAP2 SUB SWAP1 LOG3 POP POP POP JUMP JUMPDEST PUSH1 0x2 PUSH0 SWAP1 SLOAD SWAP1 PUSH2 0x100 EXP SWAP1 DIV PUSH20 0xFFFFFFFFFFFFFFFFFFFFFFFFFFFFFFFFFFFFFFFF AND DUP2 JUMP JUMPDEST PUSH0 DUP1 PUSH1 0x1 SWAP1 SLOAD SWAP1 PUSH2 0x100 EXP SWAP1 DIV PUSH1 0xFF AND ISZERO SWAP1 POP DUP1 DUP1 ISZERO PUSH2 0x1714 JUMPI POP PUSH1 0x1 PUSH0 DUP1 SLOAD SWAP1 PUSH2 0x100 EXP SWAP1 DIV PUSH1 0xFF AND PUSH1 0xFF AND LT JUMPDEST DUP1 PUSH2 0x1740 JUMPI POP PUSH2 0x1723 ADDRESS PUSH2 0x21FE JUMP JUMPDEST ISZERO DUP1 ISZERO PUSH2 0x173F JUMPI POP PUSH1 0x1 PUSH0 DUP1 SLOAD SWAP1 PUSH2 0x100 EXP SWAP1 DIV PUSH1 0xFF AND PUSH1 0xFF AND EQ JUMPDEST JUMPDEST PUSH2 0x177F JUMPI PUSH1 0x40 MLOAD PUSH32 0x8C379A000000000000000000000000000000000000000000000000000000000 DUP2 MSTORE PUSH1 0x4 ADD PUSH2 0x1776 SWAP1 PUSH2 0x3963 JUMP JUMPDEST PUSH1 0x40 MLOAD DUP1 SWAP2 SUB SWAP1 REVERT JUMPDEST PUSH1 0x1 PUSH0 DUP1 PUSH2 0x100 EXP DUP2 SLOAD DUP2 PUSH1 0xFF MUL NOT AND SWAP1 DUP4 PUSH1 0xFF AND MUL OR SWAP1 SSTORE POP DUP1 ISZERO PUSH2 0x17BA JUMPI PUSH1 0x1 PUSH0 PUSH1 0x1 PUSH2 0x100 EXP DUP2 SLOAD DUP2 PUSH1 0xFF MUL NOT AND SWAP1 DUP4 ISZERO ISZERO MUL OR SWAP1 SSTORE POP JUMPDEST DUP2 PUSH1 0x2 PUSH0 PUSH2 0x100 EXP DUP2 SLOAD DUP2 PUSH20 0xFFFFFFFFFFFFFFFFFFFFFFFFFFFFFFFFFFFFFFFF MUL NOT AND SWAP1 DUP4 PUSH20 0xFFFFFFFFFFFFFFFFFFFFFFFFFFFFFFFFFFFFFFFF AND MUL OR SWAP1 SSTORE POP CALLER PUSH0 PUSH1 0x2 PUSH2 0x100 EXP DUP2 SLOAD DUP2 PUSH20 0xFFFFFFFFFFFFFFFFFFFFFFFFFFFFFFFFFFFFFFFF MUL NOT AND SWAP1 DUP4 PUSH20 0xFFFFFFFFFFFFFFFFFFFFFFFFFFFFFFFFFFFFFFFF AND MUL OR SWAP1 SSTORE POP DUP1 ISZERO PUSH2 0x1892 JUMPI PUSH0 DUP1 PUSH1 0x1 PUSH2 0x100 EXP DUP2 SLOAD DUP2 PUSH1 0xFF MUL NOT AND SWAP1 DUP4 ISZERO ISZERO MUL OR SWAP1 SSTORE POP PUSH32 0x7F26B83FF96E1F2B6A682F133852F6798A09C465DA95921460CEFB3847402498 PUSH1 0x1 PUSH1 0x40 MLOAD PUSH2 0x1889 SWAP2 SWAP1 PUSH2 0x39C6 JUMP JUMPDEST PUSH1 0x40 MLOAD DUP1 SWAP2 SUB SWAP1 LOG1 JUMPDEST POP POP JUMP JUMPDEST PUSH0 PUSH2 0x18C2 PUSH32 0x360894A13BA1A3210667C828492DB98DCA3E2076CC3735A920A3CA505D382BBC PUSH0 SHL PUSH2 0x2220 JUMP JUMPDEST PUSH0 ADD PUSH0 SWAP1 SLOAD SWAP1 PUSH2 0x100 EXP SWAP1 DIV PUSH20 0xFFFFFFFFFFFFFFFFFFFFFFFFFFFFFFFFFFFFFFFF AND SWAP1 POP SWAP1 JUMP JUMPDEST CALLER PUSH20 0xFFFFFFFFFFFFFFFFFFFFFFFFFFFFFFFFFFFFFFFF AND PUSH0 PUSH1 0x2 SWAP1 SLOAD SWAP1 PUSH2 0x100 EXP SWAP1 DIV PUSH20 0xFFFFFFFFFFFFFFFFFFFFFFFFFFFFFFFFFFFFFFFF AND PUSH20 0xFFFFFFFFFFFFFFFFFFFFFFFFFFFFFFFFFFFFFFFF AND EQ PUSH2 0x197A JUMPI CALLER PUSH1 0x40 MLOAD PUSH32 0x118CDAA700000000000000000000000000000000000000000000000000000000 DUP2 MSTORE PUSH1 0x4 ADD PUSH2 0x1971 SWAP2 SWAP1 PUSH2 0x2BE2 JUMP JUMPDEST PUSH1 0x40 MLOAD DUP1 SWAP2 SUB SWAP1 REVERT JUMPDEST DUP1 PUSH1 0x1 PUSH0 PUSH2 0x100 EXP DUP2 SLOAD DUP2 PUSH20 0xFFFFFFFFFFFFFFFFFFFFFFFFFFFFFFFFFFFFFFFF MUL NOT AND SWAP1 DUP4 PUSH20 0xFFFFFFFFFFFFFFFFFFFFFFFFFFFFFFFFFFFFFFFF AND MUL OR SWAP1 SSTORE POP POP JUMP JUMPDEST PUSH2 0x19E8 PUSH32 0x4910FDFA16FED3260ED0E7147F7CC6DA11A60208B5B9406D12A635614FFD9143 PUSH0 SHL PUSH2 0x2229 JUMP JUMPDEST PUSH0 ADD PUSH0 SWAP1 SLOAD SWAP1 PUSH2 0x100 EXP SWAP1 DIV PUSH1 0xFF AND ISZERO PUSH2 0x1A0A JUMPI PUSH2 0x1A05 DUP4 PUSH2 0x2232 JUMP JUMPDEST PUSH2 0x1B22 JUMP JUMPDEST DUP3 PUSH20 0xFFFFFFFFFFFFFFFFFFFFFFFFFFFFFFFFFFFFFFFF AND PUSH4 0x52D1902D PUSH1 0x40 MLOAD DUP2 PUSH4 0xFFFFFFFF AND PUSH1 0xE0 SHL DUP2 MSTORE PUSH1 0x4 ADD PUSH1 0x20 PUSH1 0x40 MLOAD DUP1 DUP4 SUB DUP2 DUP7 GAS STATICCALL SWAP3 POP POP POP DUP1 ISZERO PUSH2 0x1A72 JUMPI POP PUSH1 0x40 MLOAD RETURNDATASIZE PUSH1 0x1F NOT PUSH1 0x1F DUP3 ADD AND DUP3 ADD DUP1 PUSH1 0x40 MSTORE POP DUP2 ADD SWAP1 PUSH2 0x1A6F SWAP2 SWAP1 PUSH2 0x3A09 JUMP JUMPDEST PUSH1 0x1 JUMPDEST PUSH2 0x1AB1 JUMPI PUSH1 0x40 MLOAD PUSH32 0x8C379A000000000000000000000000000000000000000000000000000000000 DUP2 MSTORE PUSH1 0x4 ADD PUSH2 0x1AA8 SWAP1 PUSH2 0x3AA4 JUMP JUMPDEST PUSH1 0x40 MLOAD DUP1 SWAP2 SUB SWAP1 REVERT JUMPDEST PUSH32 0x360894A13BA1A3210667C828492DB98DCA3E2076CC3735A920A3CA505D382BBC PUSH0 SHL DUP2 EQ PUSH2 0x1B15 JUMPI PUSH1 0x40 MLOAD PUSH32 0x8C379A000000000000000000000000000000000000000000000000000000000 DUP2 MSTORE PUSH1 0x4 ADD PUSH2 0x1B0C SWAP1 PUSH2 0x3B32 JUMP JUMPDEST PUSH1 0x40 MLOAD DUP1 SWAP2 SUB SWAP1 REVERT JUMPDEST POP PUSH2 0x1B21 DUP4 DUP4 DUP4 PUSH2 0x22E8 JUMP JUMPDEST JUMPDEST POP POP POP JUMP JUMPDEST PUSH0 DUP1 PUSH1 0x3 DUP5 DUP2 SLOAD DUP2 LT PUSH2 0x1B3D JUMPI PUSH2 0x1B3C PUSH2 0x3540 JUMP JUMPDEST JUMPDEST SWAP1 PUSH0 MSTORE PUSH1 0x20 PUSH0 KECCAK256 SWAP1 PUSH1 0x2 MUL ADD PUSH1 0x40 MLOAD DUP1 PUSH1 0x40 ADD PUSH1 0x40 MSTORE SWAP1 DUP2 PUSH0 DUP3 ADD PUSH0 SWAP1 SLOAD SWAP1 PUSH2 0x100 EXP SWAP1 DIV PUSH20 0xFFFFFFFFFFFFFFFFFFFFFFFFFFFFFFFFFFFFFFFF AND PUSH20 0xFFFFFFFFFFFFFFFFFFFFFFFFFFFFFFFFFFFFFFFF AND PUSH20 0xFFFFFFFFFFFFFFFFFFFFFFFFFFFFFFFFFFFFFFFF AND DUP2 MSTORE PUSH1 0x20 ADD PUSH1 0x1 DUP3 ADD DUP1 SLOAD DUP1 PUSH1 0x20 MUL PUSH1 0x20 ADD PUSH1 0x40 MLOAD SWAP1 DUP2 ADD PUSH1 0x40 MSTORE DUP1 SWAP3 SWAP2 SWAP1 DUP2 DUP2 MSTORE PUSH1 0x20 ADD PUSH0 SWAP1 JUMPDEST DUP3 DUP3 LT ISZERO PUSH2 0x1C9F JUMPI DUP4 DUP3 SWAP1 PUSH0 MSTORE PUSH1 0x20 PUSH0 KECCAK256 SWAP1 PUSH1 0x3 MUL ADD PUSH1 0x40 MLOAD DUP1 PUSH1 0x60 ADD PUSH1 0x40 MSTORE SWAP1 DUP2 PUSH0 DUP3 ADD DUP1 SLOAD PUSH2 0x1BFC SWAP1 PUSH2 0x35CF JUMP JUMPDEST DUP1 PUSH1 0x1F ADD PUSH1 0x20 DUP1 SWAP2 DIV MUL PUSH1 0x20 ADD PUSH1 0x40 MLOAD SWAP1 DUP2 ADD PUSH1 0x40 MSTORE DUP1 SWAP3 SWAP2 SWAP1 DUP2 DUP2 MSTORE PUSH1 0x20 ADD DUP3 DUP1 SLOAD PUSH2 0x1C28 SWAP1 PUSH2 0x35CF JUMP JUMPDEST DUP1 ISZERO PUSH2 0x1C73 JUMPI DUP1 PUSH1 0x1F LT PUSH2 0x1C4A JUMPI PUSH2 0x100 DUP1 DUP4 SLOAD DIV MUL DUP4 MSTORE SWAP2 PUSH1 0x20 ADD SWAP2 PUSH2 0x1C73 JUMP JUMPDEST DUP3 ADD SWAP2 SWAP1 PUSH0 MSTORE PUSH1 0x20 PUSH0 KECCAK256 SWAP1 JUMPDEST DUP2 SLOAD DUP2 MSTORE SWAP1 PUSH1 0x1 ADD SWAP1 PUSH1 0x20 ADD DUP1 DUP4 GT PUSH2 0x1C56 JUMPI DUP3 SWAP1 SUB PUSH1 0x1F AND DUP3 ADD SWAP2 JUMPDEST POP POP POP POP POP DUP2 MSTORE PUSH1 0x20 ADD PUSH1 0x1 DUP3 ADD SLOAD DUP2 MSTORE PUSH1 0x20 ADD PUSH1 0x2 DUP3 ADD SLOAD DUP2 MSTORE POP POP DUP2 MSTORE PUSH1 0x20 ADD SWAP1 PUSH1 0x1 ADD SWAP1 PUSH2 0x1BCC JUMP JUMPDEST POP POP POP POP DUP2 MSTORE POP POP SWAP1 POP PUSH0 DUP2 PUSH1 0x20 ADD MLOAD SWAP1 POP PUSH0 JUMPDEST DUP2 MLOAD DUP2 LT ISZERO PUSH2 0x1D06 JUMPI DUP5 DUP2 EQ ISZERO DUP1 ISZERO PUSH2 0x1CE9 JUMPI POP PUSH0 DUP3 DUP3 DUP2 MLOAD DUP2 LT PUSH2 0x1CDB JUMPI PUSH2 0x1CDA PUSH2 0x3540 JUMP JUMPDEST JUMPDEST PUSH1 0x20 MUL PUSH1 0x20 ADD ADD MLOAD PUSH1 0x20 ADD MLOAD GT JUMPDEST ISZERO PUSH2 0x1CF9 JUMPI PUSH0 SWAP4 POP POP POP POP PUSH2 0x1D0E JUMP JUMPDEST DUP1 DUP1 PUSH1 0x1 ADD SWAP2 POP POP PUSH2 0x1CB3 JUMP JUMPDEST POP PUSH1 0x1 SWAP3 POP POP POP JUMPDEST SWAP3 SWAP2 POP POP JUMP JUMPDEST PUSH0 PUSH1 0x6 PUSH0 DUP4 DUP2 MSTORE PUSH1 0x20 ADD SWAP1 DUP2 MSTORE PUSH1 0x20 ADD PUSH0 KECCAK256 SWAP1 POP PUSH0 JUMPDEST DUP2 PUSH0 DUP5 DUP2 MSTORE PUSH1 0x20 ADD SWAP1 DUP2 MSTORE PUSH1 0x20 ADD PUSH0 KECCAK256 DUP1 SLOAD SWAP1 POP DUP2 LT ISZERO PUSH2 0x1E47 JUMPI PUSH0 DUP3 PUSH0 DUP6 DUP2 MSTORE PUSH1 0x20 ADD SWAP1 DUP2 MSTORE PUSH1 0x20 ADD PUSH0 KECCAK256 DUP3 DUP2 SLOAD DUP2 LT PUSH2 0x1D68 JUMPI PUSH2 0x1D67 PUSH2 0x3540 JUMP JUMPDEST JUMPDEST SWAP1 PUSH0 MSTORE PUSH1 0x20 PUSH0 KECCAK256 SWAP1 PUSH1 0x2 MUL ADD PUSH1 0x40 MLOAD DUP1 PUSH1 0x40 ADD PUSH1 0x40 MSTORE SWAP1 DUP2 PUSH0 DUP3 ADD PUSH0 SWAP1 SLOAD SWAP1 PUSH2 0x100 EXP SWAP1 DIV PUSH20 0xFFFFFFFFFFFFFFFFFFFFFFFFFFFFFFFFFFFFFFFF AND PUSH20 0xFFFFFFFFFFFFFFFFFFFFFFFFFFFFFFFFFFFFFFFF AND PUSH20 0xFFFFFFFFFFFFFFFFFFFFFFFFFFFFFFFFFFFFFFFF AND DUP2 MSTORE PUSH1 0x20 ADD PUSH1 0x1 DUP3 ADD SLOAD DUP2 MSTORE POP POP SWAP1 POP DUP1 PUSH1 0x20 ADD MLOAD PUSH1 0x5 PUSH0 DUP4 PUSH0 ADD MLOAD PUSH20 0xFFFFFFFFFFFFFFFFFFFFFFFFFFFFFFFFFFFFFFFF AND PUSH20 0xFFFFFFFFFFFFFFFFFFFFFFFFFFFFFFFFFFFFFFFF AND DUP2 MSTORE PUSH1 0x20 ADD SWAP1 DUP2 MSTORE PUSH1 0x20 ADD PUSH0 KECCAK256 PUSH0 DUP3 DUP3 SLOAD PUSH2 0x1E32 SWAP2 SWAP1 PUSH2 0x3239 JUMP JUMPDEST SWAP3 POP POP DUP2 SWAP1 SSTORE POP POP DUP1 DUP1 PUSH1 0x1 ADD SWAP2 POP POP PUSH2 0x1D2A JUMP JUMPDEST POP DUP3 PUSH32 0xC445A10C3FA19D3805AEEA8B151160C7252C62F5BB08325A6ACD73F79E5531EE DUP4 PUSH1 0x40 MLOAD PUSH2 0x1E78 SWAP2 SWAP1 PUSH2 0x2951 JUMP JUMPDEST PUSH1 0x40 MLOAD DUP1 SWAP2 SUB SWAP1 LOG2 POP POP POP JUMP JUMPDEST PUSH0 PUSH2 0x1E8F DUP4 PUSH2 0x11F3 JUMP JUMPDEST POP SWAP5 POP POP POP POP POP PUSH0 PUSH1 0x64 PUSH1 0x2 DUP4 PUSH2 0x1EA6 SWAP2 SWAP1 PUSH2 0x3B50 JUMP JUMPDEST PUSH2 0x1EB0 SWAP2 SWAP1 PUSH2 0x3BBE JUMP JUMPDEST SWAP1 POP PUSH0 DUP4 MLOAD DUP3 PUSH2 0x1EC0 SWAP2 SWAP1 PUSH2 0x3BBE JUMP JUMPDEST SWAP1 POP PUSH0 JUMPDEST DUP5 MLOAD DUP2 LT ISZERO PUSH2 0x1FB2 JUMPI DUP2 PUSH1 0x4 PUSH0 DUP8 DUP5 DUP2 MLOAD DUP2 LT PUSH2 0x1EE4 JUMPI PUSH2 0x1EE3 PUSH2 0x3540 JUMP JUMPDEST JUMPDEST PUSH1 0x20 MUL PUSH1 0x20 ADD ADD MLOAD PUSH20 0xFFFFFFFFFFFFFFFFFFFFFFFFFFFFFFFFFFFFFFFF AND PUSH20 0xFFFFFFFFFFFFFFFFFFFFFFFFFFFFFFFFFFFFFFFF AND DUP2 MSTORE PUSH1 0x20 ADD SWAP1 DUP2 MSTORE PUSH1 0x20 ADD PUSH0 KECCAK256 PUSH0 DUP3 DUP3 SLOAD PUSH2 0x1F33 SWAP2 SWAP1 PUSH2 0x34A5 JUMP JUMPDEST SWAP3 POP POP DUP2 SWAP1 SSTORE POP DUP2 PUSH1 0x8 PUSH0 DUP9 DUP2 MSTORE PUSH1 0x20 ADD SWAP1 DUP2 MSTORE PUSH1 0x20 ADD PUSH0 KECCAK256 PUSH0 DUP8 DUP5 DUP2 MLOAD DUP2 LT PUSH2 0x1F60 JUMPI PUSH2 0x1F5F PUSH2 0x3540 JUMP JUMPDEST JUMPDEST PUSH1 0x20 MUL PUSH1 0x20 ADD ADD MLOAD PUSH20 0xFFFFFFFFFFFFFFFFFFFFFFFFFFFFFFFFFFFFFFFF AND PUSH20 0xFFFFFFFFFFFFFFFFFFFFFFFFFFFFFFFFFFFFFFFF AND DUP2 MSTORE PUSH1 0x20 ADD SWAP1 DUP2 MSTORE PUSH1 0x20 ADD PUSH0 KECCAK256 DUP2 SWAP1 SSTORE POP DUP1 DUP1 PUSH1 0x1 ADD SWAP2 POP POP PUSH2 0x1EC4 JUMP JUMPDEST POP DUP5 PUSH32 0x1034BCC6D30AA91C93D14CE14F959D5D304D6B8A76F50F026934B85D4E4122ED DUP6 DUP5 DUP5 PUSH1 0x40 MLOAD PUSH2 0x1FE7 SWAP4 SWAP3 SWAP2 SWAP1 PUSH2 0x3CA5 JUMP JUMPDEST PUSH1 0x40 MLOAD DUP1 SWAP2 SUB SWAP1 LOG2 POP POP POP POP POP JUMP JUMPDEST PUSH0 PUSH1 0x3 DUP4 DUP2 SLOAD DUP2 LT PUSH2 0x200B JUMPI PUSH2 0x200A PUSH2 0x3540 JUMP JUMPDEST JUMPDEST SWAP1 PUSH0 MSTORE PUSH1 0x20 PUSH0 KECCAK256 SWAP1 PUSH1 0x2 MUL ADD SWAP1 POP PUSH0 DUP2 PUSH1 0x1 ADD DUP1 SLOAD SWAP1 POP SWAP1 POP PUSH0 PUSH1 0x6 PUSH0 DUP6 DUP2 MSTORE PUSH1 0x20 ADD SWAP1 DUP2 MSTORE PUSH1 0x20 ADD PUSH0 KECCAK256 SWAP1 POP PUSH0 DUP1 PUSH2 0x2043 DUP8 PUSH2 0x11F3 JUMP JUMPDEST POP SWAP5 POP POP SWAP4 POP POP POP PUSH1 0x64 PUSH1 0x5 DUP3 PUSH2 0x205A SWAP2 SWAP1 PUSH2 0x3B50 JUMP JUMPDEST PUSH2 0x2064 SWAP2 SWAP1 PUSH2 0x3BBE JUMP JUMPDEST PUSH1 0x4 PUSH0 DUP8 PUSH0 ADD PUSH0 SWAP1 SLOAD SWAP1 PUSH2 0x100 EXP SWAP1 DIV PUSH20 0xFFFFFFFFFFFFFFFFFFFFFFFFFFFFFFFFFFFFFFFF AND PUSH20 0xFFFFFFFFFFFFFFFFFFFFFFFFFFFFFFFFFFFFFFFF AND PUSH20 0xFFFFFFFFFFFFFFFFFFFFFFFFFFFFFFFFFFFFFFFF AND DUP2 MSTORE PUSH1 0x20 ADD SWAP1 DUP2 MSTORE PUSH1 0x20 ADD PUSH0 KECCAK256 PUSH0 DUP3 DUP3 SLOAD PUSH2 0x20D1 SWAP2 SWAP1 PUSH2 0x34A5 JUMP JUMPDEST SWAP3 POP POP DUP2 SWAP1 SSTORE POP PUSH0 PUSH1 0x64 PUSH1 0x58 DUP4 PUSH2 0x20E8 SWAP2 SWAP1 PUSH2 0x3B50 JUMP JUMPDEST PUSH2 0x20F2 SWAP2 SWAP1 PUSH2 0x3BBE JUMP JUMPDEST SWAP1 POP PUSH0 JUMPDEST DUP6 DUP2 LT ISZERO PUSH2 0x21F3 JUMPI PUSH2 0x21E6 DUP10 DUP10 DUP5 DUP8 DUP13 DUP2 MLOAD DUP2 LT PUSH2 0x2117 JUMPI PUSH2 0x2116 PUSH2 0x3540 JUMP JUMPDEST JUMPDEST PUSH1 0x20 MUL PUSH1 0x20 ADD ADD MLOAD DUP10 PUSH0 DUP8 DUP2 MSTORE PUSH1 0x20 ADD SWAP1 DUP2 MSTORE PUSH1 0x20 ADD PUSH0 KECCAK256 DUP1 SLOAD DUP1 PUSH1 0x20 MUL PUSH1 0x20 ADD PUSH1 0x40 MLOAD SWAP1 DUP2 ADD PUSH1 0x40 MSTORE DUP1 SWAP3 SWAP2 SWAP1 DUP2 DUP2 MSTORE PUSH1 0x20 ADD PUSH0 SWAP1 JUMPDEST DUP3 DUP3 LT ISZERO PUSH2 0x21DC JUMPI DUP4 DUP3 SWAP1 PUSH0 MSTORE PUSH1 0x20 PUSH0 KECCAK256 SWAP1 PUSH1 0x2 MUL ADD PUSH1 0x40 MLOAD DUP1 PUSH1 0x40 ADD PUSH1 0x40 MSTORE SWAP1 DUP2 PUSH0 DUP3 ADD PUSH0 SWAP1 SLOAD SWAP1 PUSH2 0x100 EXP SWAP1 DIV PUSH20 0xFFFFFFFFFFFFFFFFFFFFFFFFFFFFFFFFFFFFFFFF AND PUSH20 0xFFFFFFFFFFFFFFFFFFFFFFFFFFFFFFFFFFFFFFFF AND PUSH20 0xFFFFFFFFFFFFFFFFFFFFFFFFFFFFFFFFFFFFFFFF AND DUP2 MSTORE PUSH1 0x20 ADD PUSH1 0x1 DUP3 ADD SLOAD DUP2 MSTORE POP POP DUP2 MSTORE PUSH1 0x20 ADD SWAP1 PUSH1 0x1 ADD SWAP1 PUSH2 0x214E JUMP JUMPDEST POP POP POP POP DUP7 PUSH2 0x2313 JUMP JUMPDEST DUP1 DUP1 PUSH1 0x1 ADD SWAP2 POP POP PUSH2 0x20F6 JUMP JUMPDEST POP POP POP POP POP POP POP POP POP JUMP JUMPDEST PUSH0 DUP1 DUP3 PUSH20 0xFFFFFFFFFFFFFFFFFFFFFFFFFFFFFFFFFFFFFFFF AND EXTCODESIZE GT SWAP1 POP SWAP2 SWAP1 POP JUMP JUMPDEST PUSH0 DUP2 SWAP1 POP SWAP2 SWAP1 POP JUMP JUMPDEST PUSH0 DUP2 SWAP1 POP SWAP2 SWAP1 POP JUMP JUMPDEST PUSH2 0x223B DUP2 PUSH2 0x21FE JUMP JUMPDEST PUSH2 0x227A JUMPI PUSH1 0x40 MLOAD PUSH32 0x8C379A000000000000000000000000000000000000000000000000000000000 DUP2 MSTORE PUSH1 0x4 ADD PUSH2 0x2271 SWAP1 PUSH2 0x3D51 JUMP JUMPDEST PUSH1 0x40 MLOAD DUP1 SWAP2 SUB SWAP1 REVERT JUMPDEST DUP1 PUSH2 0x22A6 PUSH32 0x360894A13BA1A3210667C828492DB98DCA3E2076CC3735A920A3CA505D382BBC PUSH0 SHL PUSH2 0x2220 JUMP JUMPDEST PUSH0 ADD PUSH0 PUSH2 0x100 EXP DUP2 SLOAD DUP2 PUSH20 0xFFFFFFFFFFFFFFFFFFFFFFFFFFFFFFFFFFFFFFFF MUL NOT AND SWAP1 DUP4 PUSH20 0xFFFFFFFFFFFFFFFFFFFFFFFFFFFFFFFFFFFFFFFF AND MUL OR SWAP1 SSTORE POP POP JUMP JUMPDEST PUSH2 0x22F1 DUP4 PUSH2 0x2649 JUMP JUMPDEST PUSH0 DUP3 MLOAD GT DUP1 PUSH2 0x22FD JUMPI POP DUP1 JUMPDEST ISZERO PUSH2 0x230E JUMPI PUSH2 0x230C DUP4 DUP4 PUSH2 0x2698 JUMP JUMPDEST POP JUMPDEST POP POP POP JUMP JUMPDEST PUSH0 JUMPDEST DUP3 MLOAD DUP2 LT ISZERO PUSH2 0x2640 JUMPI PUSH0 DUP4 DUP3 DUP2 MLOAD DUP2 LT PUSH2 0x2332 JUMPI PUSH2 0x2331 PUSH2 0x3540 JUMP JUMPDEST JUMPDEST PUSH1 0x20 MUL PUSH1 0x20 ADD ADD MLOAD SWAP1 POP DUP1 PUSH1 0x20 ADD MLOAD PUSH1 0x5 PUSH0 DUP4 PUSH0 ADD MLOAD PUSH20 0xFFFFFFFFFFFFFFFFFFFFFFFFFFFFFFFFFFFFFFFF AND PUSH20 0xFFFFFFFFFFFFFFFFFFFFFFFFFFFFFFFFFFFFFFFF AND DUP2 MSTORE PUSH1 0x20 ADD SWAP1 DUP2 MSTORE PUSH1 0x20 ADD PUSH0 KECCAK256 PUSH0 DUP3 DUP3 SLOAD PUSH2 0x238F SWAP2 SWAP1 PUSH2 0x3239 JUMP JUMPDEST SWAP3 POP POP DUP2 SWAP1 SSTORE POP DUP7 DUP4 SUB PUSH2 0x24D2 JUMPI PUSH0 DUP6 DUP8 DUP4 PUSH1 0x20 ADD MLOAD PUSH2 0x23AF SWAP2 SWAP1 PUSH2 0x3B50 JUMP JUMPDEST PUSH2 0x23B9 SWAP2 SWAP1 PUSH2 0x3BBE JUMP JUMPDEST SWAP1 POP PUSH0 DUP3 PUSH1 0x20 ADD MLOAD DUP3 PUSH2 0x23CC SWAP2 SWAP1 PUSH2 0x3239 JUMP JUMPDEST SWAP1 POP DUP1 PUSH1 0x4 PUSH0 DUP6 PUSH0 ADD MLOAD PUSH20 0xFFFFFFFFFFFFFFFFFFFFFFFFFFFFFFFFFFFFFFFF AND PUSH20 0xFFFFFFFFFFFFFFFFFFFFFFFFFFFFFFFFFFFFFFFF AND DUP2 MSTORE PUSH1 0x20 ADD SWAP1 DUP2 MSTORE PUSH1 0x20 ADD PUSH0 KECCAK256 PUSH0 DUP3 DUP3 SLOAD PUSH2 0x241D SWAP2 SWAP1 PUSH2 0x34A5 JUMP JUMPDEST SWAP3 POP POP DUP2 SWAP1 SSTORE POP DUP1 PUSH1 0x8 PUSH0 DUP13 DUP2 MSTORE PUSH1 0x20 ADD SWAP1 DUP2 MSTORE PUSH1 0x20 ADD PUSH0 KECCAK256 PUSH0 DUP6 PUSH0 ADD MLOAD PUSH20 0xFFFFFFFFFFFFFFFFFFFFFFFFFFFFFFFFFFFFFFFF AND PUSH20 0xFFFFFFFFFFFFFFFFFFFFFFFFFFFFFFFFFFFFFFFF AND DUP2 MSTORE PUSH1 0x20 ADD SWAP1 DUP2 MSTORE PUSH1 0x20 ADD PUSH0 KECCAK256 DUP2 SWAP1 SSTORE POP DUP3 PUSH0 ADD MLOAD PUSH20 0xFFFFFFFFFFFFFFFFFFFFFFFFFFFFFFFFFFFFFFFF AND PUSH32 0xA20AA2F236DEFED03E109FCCF805FAEB8F6957ECD766EE7CF40DC6F99BEF9EAB DUP12 DUP4 PUSH1 0x40 MLOAD PUSH2 0x24C3 SWAP3 SWAP2 SWAP1 PUSH2 0x3D6F JUMP JUMPDEST PUSH1 0x40 MLOAD DUP1 SWAP2 SUB SWAP1 LOG2 POP POP PUSH2 0x2632 JUMP JUMPDEST DUP1 PUSH1 0x20 ADD MLOAD PUSH1 0x4 PUSH0 DUP4 PUSH0 ADD MLOAD PUSH20 0xFFFFFFFFFFFFFFFFFFFFFFFFFFFFFFFFFFFFFFFF AND PUSH20 0xFFFFFFFFFFFFFFFFFFFFFFFFFFFFFFFFFFFFFFFF AND DUP2 MSTORE PUSH1 0x20 ADD SWAP1 DUP2 MSTORE PUSH1 0x20 ADD PUSH0 KECCAK256 PUSH0 DUP3 DUP3 SLOAD PUSH2 0x2525 SWAP2 SWAP1 PUSH2 0x3239 JUMP JUMPDEST SWAP3 POP POP DUP2 SWAP1 SSTORE POP PUSH32 0xFFFFFFFFFFFFFFFFFFFFFFFFFFFFFFFFFFFFFFFFFFFFFFFFFFFFFFFFFFFFFFFF DUP2 PUSH1 0x20 ADD MLOAD PUSH2 0x255C SWAP2 SWAP1 PUSH2 0x3D96 JUMP JUMPDEST PUSH1 0x8 PUSH0 DUP11 DUP2 MSTORE PUSH1 0x20 ADD SWAP1 DUP2 MSTORE PUSH1 0x20 ADD PUSH0 KECCAK256 PUSH0 DUP4 PUSH0 ADD MLOAD PUSH20 0xFFFFFFFFFFFFFFFFFFFFFFFFFFFFFFFFFFFFFFFF AND PUSH20 0xFFFFFFFFFFFFFFFFFFFFFFFFFFFFFFFFFFFFFFFF AND DUP2 MSTORE PUSH1 0x20 ADD SWAP1 DUP2 MSTORE PUSH1 0x20 ADD PUSH0 KECCAK256 DUP2 SWAP1 SSTORE POP DUP1 PUSH0 ADD MLOAD PUSH20 0xFFFFFFFFFFFFFFFFFFFFFFFFFFFFFFFFFFFFFFFF AND PUSH32 0xA20AA2F236DEFED03E109FCCF805FAEB8F6957ECD766EE7CF40DC6F99BEF9EAB DUP10 PUSH32 0xFFFFFFFFFFFFFFFFFFFFFFFFFFFFFFFFFFFFFFFFFFFFFFFFFFFFFFFFFFFFFFFF DUP5 PUSH1 0x20 ADD MLOAD PUSH2 0x261B SWAP2 SWAP1 PUSH2 0x3D96 JUMP JUMPDEST PUSH1 0x40 MLOAD PUSH2 0x2629 SWAP3 SWAP2 SWAP1 PUSH2 0x3D6F JUMP JUMPDEST PUSH1 0x40 MLOAD DUP1 SWAP2 SUB SWAP1 LOG2 JUMPDEST POP DUP1 DUP1 PUSH1 0x1 ADD SWAP2 POP POP PUSH2 0x2315 JUMP JUMPDEST POP POP POP POP POP POP POP JUMP JUMPDEST PUSH2 0x2652 DUP2 PUSH2 0x2232 JUMP JUMPDEST DUP1 PUSH20 0xFFFFFFFFFFFFFFFFFFFFFFFFFFFFFFFFFFFFFFFF AND PUSH32 0xBC7CD75A20EE27FD9ADEBAB32041F755214DBC6BFFA90CC0225B39DA2E5C2D3B PUSH1 0x40 MLOAD PUSH1 0x40 MLOAD DUP1 SWAP2 SUB SWAP1 LOG2 POP JUMP JUMPDEST PUSH1 0x60 PUSH2 0x26BD DUP4 DUP4 PUSH1 0x40 MLOAD DUP1 PUSH1 0x60 ADD PUSH1 0x40 MSTORE DUP1 PUSH1 0x27 DUP2 MSTORE PUSH1 0x20 ADD PUSH2 0x3F27 PUSH1 0x27 SWAP2 CODECOPY PUSH2 0x26C5 JUMP JUMPDEST SWAP1 POP SWAP3 SWAP2 POP POP JUMP JUMPDEST PUSH1 0x60 PUSH0 DUP1 DUP6 PUSH20 0xFFFFFFFFFFFFFFFFFFFFFFFFFFFFFFFFFFFFFFFF AND DUP6 PUSH1 0x40 MLOAD PUSH2 0x26EE SWAP2 SWAP1 PUSH2 0x3E50 JUMP JUMPDEST PUSH0 PUSH1 0x40 MLOAD DUP1 DUP4 SUB DUP2 DUP6 GAS DELEGATECALL SWAP2 POP POP RETURNDATASIZE DUP1 PUSH0 DUP2 EQ PUSH2 0x2726 JUMPI PUSH1 0x40 MLOAD SWAP2 POP PUSH1 0x1F NOT PUSH1 0x3F RETURNDATASIZE ADD AND DUP3 ADD PUSH1 0x40 MSTORE RETURNDATASIZE DUP3 MSTORE RETURNDATASIZE PUSH0 PUSH1 0x20 DUP5 ADD RETURNDATACOPY PUSH2 0x272B JUMP JUMPDEST PUSH1 0x60 SWAP2 POP JUMPDEST POP SWAP2 POP SWAP2 POP PUSH2 0x273C DUP7 DUP4 DUP4 DUP8 PUSH2 0x2747 JUMP JUMPDEST SWAP3 POP POP POP SWAP4 SWAP3 POP POP POP JUMP JUMPDEST PUSH1 0x60 DUP4 ISZERO PUSH2 0x27A8 JUMPI PUSH0 DUP4 MLOAD SUB PUSH2 0x27A0 JUMPI PUSH2 0x2760 DUP6 PUSH2 0x21FE JUMP JUMPDEST PUSH2 0x279F JUMPI PUSH1 0x40 MLOAD PUSH32 0x8C379A000000000000000000000000000000000000000000000000000000000 DUP2 MSTORE PUSH1 0x4 ADD PUSH2 0x2796 SWAP1 PUSH2 0x3EB0 JUMP JUMPDEST PUSH1 0x40 MLOAD DUP1 SWAP2 SUB SWAP1 REVERT JUMPDEST JUMPDEST DUP3 SWAP1 POP PUSH2 0x27B3 JUMP JUMPDEST PUSH2 0x27B2 DUP4 DUP4 PUSH2 0x27BB JUMP JUMPDEST JUMPDEST SWAP5 SWAP4 POP POP POP POP JUMP JUMPDEST PUSH0 DUP3 MLOAD GT ISZERO PUSH2 0x27CD JUMPI DUP2 MLOAD DUP1 DUP4 PUSH1 0x20 ADD REVERT JUMPDEST DUP1 PUSH1 0x40 MLOAD PUSH32 0x8C379A000000000000000000000000000000000000000000000000000000000 DUP2 MSTORE PUSH1 0x4 ADD PUSH2 0x2801 SWAP2 SWAP1 PUSH2 0x3F06 JUMP JUMPDEST PUSH1 0x40 MLOAD DUP1 SWAP2 SUB SWAP1 REVERT JUMPDEST PUSH0 PUSH1 0x40 MLOAD SWAP1 POP SWAP1 JUMP JUMPDEST PUSH0 DUP1 REVERT JUMPDEST PUSH0 DUP1 REVERT JUMPDEST PUSH0 DUP2 SWAP1 POP SWAP2 SWAP1 POP JUMP JUMPDEST PUSH2 0x282D DUP2 PUSH2 0x281B JUMP JUMPDEST DUP2 EQ PUSH2 0x2837 JUMPI PUSH0 DUP1 REVERT JUMPDEST POP JUMP JUMPDEST PUSH0 DUP2 CALLDATALOAD SWAP1 POP PUSH2 0x2848 DUP2 PUSH2 0x2824 JUMP JUMPDEST SWAP3 SWAP2 POP POP JUMP JUMPDEST PUSH0 PUSH20 0xFFFFFFFFFFFFFFFFFFFFFFFFFFFFFFFFFFFFFFFF DUP3 AND SWAP1 POP SWAP2 SWAP1 POP JUMP JUMPDEST PUSH0 PUSH2 0x2877 DUP3 PUSH2 0x284E JUMP JUMPDEST SWAP1 POP SWAP2 SWAP1 POP JUMP JUMPDEST PUSH2 0x2887 DUP2 PUSH2 0x286D JUMP JUMPDEST DUP2 EQ PUSH2 0x2891 JUMPI PUSH0 DUP1 REVERT JUMPDEST POP JUMP JUMPDEST PUSH0 DUP2 CALLDATALOAD SWAP1 POP PUSH2 0x28A2 DUP2 PUSH2 0x287E JUMP JUMPDEST SWAP3 SWAP2 POP POP JUMP JUMPDEST PUSH0 DUP1 PUSH1 0x40 DUP4 DUP6 SUB SLT ISZERO PUSH2 0x28BE JUMPI PUSH2 0x28BD PUSH2 0x2813 JUMP JUMPDEST JUMPDEST PUSH0 PUSH2 0x28CB DUP6 DUP3 DUP7 ADD PUSH2 0x283A JUMP JUMPDEST SWAP3 POP POP PUSH1 0x20 PUSH2 0x28DC DUP6 DUP3 DUP7 ADD PUSH2 0x2894 JUMP JUMPDEST SWAP2 POP POP SWAP3 POP SWAP3 SWAP1 POP JUMP JUMPDEST PUSH0 DUP2 SWAP1 POP SWAP2 SWAP1 POP JUMP JUMPDEST PUSH2 0x28F8 DUP2 PUSH2 0x28E6 JUMP JUMPDEST DUP3 MSTORE POP POP JUMP JUMPDEST PUSH0 PUSH1 0x20 DUP3 ADD SWAP1 POP PUSH2 0x2911 PUSH0 DUP4 ADD DUP5 PUSH2 0x28EF JUMP JUMPDEST SWAP3 SWAP2 POP POP JUMP JUMPDEST PUSH0 PUSH1 0x20 DUP3 DUP5 SUB SLT ISZERO PUSH2 0x292C JUMPI PUSH2 0x292B PUSH2 0x2813 JUMP JUMPDEST JUMPDEST PUSH0 PUSH2 0x2939 DUP5 DUP3 DUP6 ADD PUSH2 0x283A JUMP JUMPDEST SWAP2 POP POP SWAP3 SWAP2 POP POP JUMP JUMPDEST PUSH2 0x294B DUP2 PUSH2 0x281B JUMP JUMPDEST DUP3 MSTORE POP POP JUMP JUMPDEST PUSH0 PUSH1 0x20 DUP3 ADD SWAP1 POP PUSH2 0x2964 PUSH0 DUP4 ADD DUP5 PUSH2 0x2942 JUMP JUMPDEST SWAP3 SWAP2 POP POP JUMP JUMPDEST PUSH0 PUSH1 0x20 DUP3 DUP5 SUB SLT ISZERO PUSH2 0x297F JUMPI PUSH2 0x297E PUSH2 0x2813 JUMP JUMPDEST JUMPDEST PUSH0 PUSH2 0x298C DUP5 DUP3 DUP6 ADD PUSH2 0x2894 JUMP JUMPDEST SWAP2 POP POP SWAP3 SWAP2 POP POP JUMP JUMPDEST PUSH0 DUP1 PUSH0 PUSH1 0x60 DUP5 DUP7 SUB SLT ISZERO PUSH2 0x29AC JUMPI PUSH2 0x29AB PUSH2 0x2813 JUMP JUMPDEST JUMPDEST PUSH0 PUSH2 0x29B9 DUP7 DUP3 DUP8 ADD PUSH2 0x283A JUMP JUMPDEST SWAP4 POP POP PUSH1 0x20 PUSH2 0x29CA DUP7 DUP3 DUP8 ADD PUSH2 0x283A JUMP JUMPDEST SWAP3 POP POP PUSH1 0x40 PUSH2 0x29DB DUP7 DUP3 DUP8 ADD PUSH2 0x283A JUMP JUMPDEST SWAP2 POP POP SWAP3 POP SWAP3 POP SWAP3 JUMP JUMPDEST PUSH2 0x29EE DUP2 PUSH2 0x286D JUMP JUMPDEST DUP3 MSTORE POP POP JUMP JUMPDEST PUSH0 PUSH1 0x40 DUP3 ADD SWAP1 POP PUSH2 0x2A07 PUSH0 DUP4 ADD DUP6 PUSH2 0x29E5 JUMP JUMPDEST PUSH2 0x2A14 PUSH1 0x20 DUP4 ADD DUP5 PUSH2 0x2942 JUMP JUMPDEST SWAP4 SWAP3 POP POP POP JUMP JUMPDEST PUSH0 DUP1 REVERT JUMPDEST PUSH0 DUP1 REVERT JUMPDEST PUSH0 PUSH1 0x1F NOT PUSH1 0x1F DUP4 ADD AND SWAP1 POP SWAP2 SWAP1 POP JUMP JUMPDEST PUSH32 0x4E487B7100000000000000000000000000000000000000000000000000000000 PUSH0 MSTORE PUSH1 0x41 PUSH1 0x4 MSTORE PUSH1 0x24 PUSH0 REVERT JUMPDEST PUSH2 0x2A69 DUP3 PUSH2 0x2A23 JUMP JUMPDEST DUP2 ADD DUP2 DUP2 LT PUSH8 0xFFFFFFFFFFFFFFFF DUP3 GT OR ISZERO PUSH2 0x2A88 JUMPI PUSH2 0x2A87 PUSH2 0x2A33 JUMP JUMPDEST JUMPDEST DUP1 PUSH1 0x40 MSTORE POP POP POP JUMP JUMPDEST PUSH0 PUSH2 0x2A9A PUSH2 0x280A JUMP JUMPDEST SWAP1 POP PUSH2 0x2AA6 DUP3 DUP3 PUSH2 0x2A60 JUMP JUMPDEST SWAP2 SWAP1 POP JUMP JUMPDEST PUSH0 PUSH8 0xFFFFFFFFFFFFFFFF DUP3 GT ISZERO PUSH2 0x2AC5 JUMPI PUSH2 0x2AC4 PUSH2 0x2A33 JUMP JUMPDEST JUMPDEST PUSH2 0x2ACE DUP3 PUSH2 0x2A23 JUMP JUMPDEST SWAP1 POP PUSH1 0x20 DUP2 ADD SWAP1 POP SWAP2 SWAP1 POP JUMP JUMPDEST DUP3 DUP2 DUP4 CALLDATACOPY PUSH0 DUP4 DUP4 ADD MSTORE POP POP POP JUMP JUMPDEST PUSH0 PUSH2 0x2AFB PUSH2 0x2AF6 DUP5 PUSH2 0x2AAB JUMP JUMPDEST PUSH2 0x2A91 JUMP JUMPDEST SWAP1 POP DUP3 DUP2 MSTORE PUSH1 0x20 DUP2 ADD DUP5 DUP5 DUP5 ADD GT ISZERO PUSH2 0x2B17 JUMPI PUSH2 0x2B16 PUSH2 0x2A1F JUMP JUMPDEST JUMPDEST PUSH2 0x2B22 DUP5 DUP3 DUP6 PUSH2 0x2ADB JUMP JUMPDEST POP SWAP4 SWAP3 POP POP POP JUMP JUMPDEST PUSH0 DUP3 PUSH1 0x1F DUP4 ADD SLT PUSH2 0x2B3E JUMPI PUSH2 0x2B3D PUSH2 0x2A1B JUMP JUMPDEST JUMPDEST DUP2 CALLDATALOAD PUSH2 0x2B4E DUP5 DUP3 PUSH1 0x20 DUP7 ADD PUSH2 0x2AE9 JUMP JUMPDEST SWAP2 POP POP SWAP3 SWAP2 POP POP JUMP JUMPDEST PUSH0 DUP1 PUSH1 0x40 DUP4 DUP6 SUB SLT ISZERO PUSH2 0x2B6D JUMPI PUSH2 0x2B6C PUSH2 0x2813 JUMP JUMPDEST JUMPDEST PUSH0 PUSH2 0x2B7A DUP6 DUP3 DUP7 ADD PUSH2 0x2894 JUMP JUMPDEST SWAP3 POP POP PUSH1 0x20 DUP4 ADD CALLDATALOAD PUSH8 0xFFFFFFFFFFFFFFFF DUP2 GT ISZERO PUSH2 0x2B9B JUMPI PUSH2 0x2B9A PUSH2 0x2817 JUMP JUMPDEST JUMPDEST PUSH2 0x2BA7 DUP6 DUP3 DUP7 ADD PUSH2 0x2B2A JUMP JUMPDEST SWAP2 POP POP SWAP3 POP SWAP3 SWAP1 POP JUMP JUMPDEST PUSH0 DUP2 SWAP1 POP SWAP2 SWAP1 POP JUMP JUMPDEST PUSH2 0x2BC3 DUP2 PUSH2 0x2BB1 JUMP JUMPDEST DUP3 MSTORE POP POP JUMP JUMPDEST PUSH0 PUSH1 0x20 DUP3 ADD SWAP1 POP PUSH2 0x2BDC PUSH0 DUP4 ADD DUP5 PUSH2 0x2BBA JUMP JUMPDEST SWAP3 SWAP2 POP POP JUMP JUMPDEST PUSH0 PUSH1 0x20 DUP3 ADD SWAP1 POP PUSH2 0x2BF5 PUSH0 DUP4 ADD DUP5 PUSH2 0x29E5 JUMP JUMPDEST SWAP3 SWAP2 POP POP JUMP JUMPDEST PUSH0 PUSH8 0xFFFFFFFFFFFFFFFF DUP3 GT ISZERO PUSH2 0x2C15 JUMPI PUSH2 0x2C14 PUSH2 0x2A33 JUMP JUMPDEST JUMPDEST PUSH1 0x20 DUP3 MUL SWAP1 POP PUSH1 0x20 DUP2 ADD SWAP1 POP SWAP2 SWAP1 POP JUMP JUMPDEST PUSH0 DUP1 REVERT JUMPDEST PUSH0 PUSH2 0x2C3C PUSH2 0x2C37 DUP5 PUSH2 0x2BFB JUMP JUMPDEST PUSH2 0x2A91 JUMP JUMPDEST SWAP1 POP DUP1 DUP4 DUP3 MSTORE PUSH1 0x20 DUP3 ADD SWAP1 POP PUSH1 0x20 DUP5 MUL DUP4 ADD DUP6 DUP2 GT ISZERO PUSH2 0x2C5F JUMPI PUSH2 0x2C5E PUSH2 0x2C26 JUMP JUMPDEST JUMPDEST DUP4 JUMPDEST DUP2 DUP2 LT ISZERO PUSH2 0x2C88 JUMPI DUP1 PUSH2 0x2C74 DUP9 DUP3 PUSH2 0x2894 JUMP JUMPDEST DUP5 MSTORE PUSH1 0x20 DUP5 ADD SWAP4 POP POP PUSH1 0x20 DUP2 ADD SWAP1 POP PUSH2 0x2C61 JUMP JUMPDEST POP POP POP SWAP4 SWAP3 POP POP POP JUMP JUMPDEST PUSH0 DUP3 PUSH1 0x1F DUP4 ADD SLT PUSH2 0x2CA6 JUMPI PUSH2 0x2CA5 PUSH2 0x2A1B JUMP JUMPDEST JUMPDEST DUP2 CALLDATALOAD PUSH2 0x2CB6 DUP5 DUP3 PUSH1 0x20 DUP7 ADD PUSH2 0x2C2A JUMP JUMPDEST SWAP2 POP POP SWAP3 SWAP2 POP POP JUMP JUMPDEST PUSH0 DUP1 PUSH0 PUSH1 0x60 DUP5 DUP7 SUB SLT ISZERO PUSH2 0x2CD6 JUMPI PUSH2 0x2CD5 PUSH2 0x2813 JUMP JUMPDEST JUMPDEST PUSH0 PUSH2 0x2CE3 DUP7 DUP3 DUP8 ADD PUSH2 0x283A JUMP JUMPDEST SWAP4 POP POP PUSH1 0x20 PUSH2 0x2CF4 DUP7 DUP3 DUP8 ADD PUSH2 0x283A JUMP JUMPDEST SWAP3 POP POP PUSH1 0x40 DUP5 ADD CALLDATALOAD PUSH8 0xFFFFFFFFFFFFFFFF DUP2 GT ISZERO PUSH2 0x2D15 JUMPI PUSH2 0x2D14 PUSH2 0x2817 JUMP JUMPDEST JUMPDEST PUSH2 0x2D21 DUP7 DUP3 DUP8 ADD PUSH2 0x2C92 JUMP JUMPDEST SWAP2 POP POP SWAP3 POP SWAP3 POP SWAP3 JUMP JUMPDEST PUSH0 DUP2 MLOAD SWAP1 POP SWAP2 SWAP1 POP JUMP JUMPDEST PUSH0 DUP3 DUP3 MSTORE PUSH1 0x20 DUP3 ADD SWAP1 POP SWAP3 SWAP2 POP POP JUMP JUMPDEST PUSH0 DUP2 SWAP1 POP PUSH1 0x20 DUP3 ADD SWAP1 POP SWAP2 SWAP1 POP JUMP JUMPDEST PUSH0 DUP2 MLOAD SWAP1 POP SWAP2 SWAP1 POP JUMP JUMPDEST PUSH0 DUP3 DUP3 MSTORE PUSH1 0x20 DUP3 ADD SWAP1 POP SWAP3 SWAP2 POP POP JUMP JUMPDEST DUP3 DUP2 DUP4 MCOPY PUSH0 DUP4 DUP4 ADD MSTORE POP POP POP JUMP JUMPDEST PUSH0 PUSH2 0x2D86 DUP3 PUSH2 0x2D54 JUMP JUMPDEST PUSH2 0x2D90 DUP2 DUP6 PUSH2 0x2D5E JUMP JUMPDEST SWAP4 POP PUSH2 0x2DA0 DUP2 DUP6 PUSH1 0x20 DUP7 ADD PUSH2 0x2D6E JUMP JUMPDEST PUSH2 0x2DA9 DUP2 PUSH2 0x2A23 JUMP JUMPDEST DUP5 ADD SWAP2 POP POP SWAP3 SWAP2 POP POP JUMP JUMPDEST PUSH0 PUSH2 0x2DBF DUP4 DUP4 PUSH2 0x2D7C JUMP JUMPDEST SWAP1 POP SWAP3 SWAP2 POP POP JUMP JUMPDEST PUSH0 PUSH1 0x20 DUP3 ADD SWAP1 POP SWAP2 SWAP1 POP JUMP JUMPDEST PUSH0 PUSH2 0x2DDD DUP3 PUSH2 0x2D2B JUMP JUMPDEST PUSH2 0x2DE7 DUP2 DUP6 PUSH2 0x2D35 JUMP JUMPDEST SWAP4 POP DUP4 PUSH1 0x20 DUP3 MUL DUP6 ADD PUSH2 0x2DF9 DUP6 PUSH2 0x2D45 JUMP JUMPDEST DUP1 PUSH0 JUMPDEST DUP6 DUP2 LT ISZERO PUSH2 0x2E34 JUMPI DUP5 DUP5 SUB DUP10 MSTORE DUP2 MLOAD PUSH2 0x2E15 DUP6 DUP3 PUSH2 0x2DB4 JUMP JUMPDEST SWAP5 POP PUSH2 0x2E20 DUP4 PUSH2 0x2DC7 JUMP JUMPDEST SWAP3 POP PUSH1 0x20 DUP11 ADD SWAP10 POP POP PUSH1 0x1 DUP2 ADD SWAP1 POP PUSH2 0x2DFC JUMP JUMPDEST POP DUP3 SWAP8 POP DUP8 SWAP6 POP POP POP POP POP POP SWAP3 SWAP2 POP POP JUMP JUMPDEST PUSH0 DUP2 MLOAD SWAP1 POP SWAP2 SWAP1 POP JUMP JUMPDEST PUSH0 DUP3 DUP3 MSTORE PUSH1 0x20 DUP3 ADD SWAP1 POP SWAP3 SWAP2 POP POP JUMP JUMPDEST PUSH0 DUP2 SWAP1 POP PUSH1 0x20 DUP3 ADD SWAP1 POP SWAP2 SWAP1 POP JUMP JUMPDEST PUSH2 0x2E78 DUP2 PUSH2 0x281B JUMP JUMPDEST DUP3 MSTORE POP POP JUMP JUMPDEST PUSH0 PUSH2 0x2E89 DUP4 DUP4 PUSH2 0x2E6F JUMP JUMPDEST PUSH1 0x20 DUP4 ADD SWAP1 POP SWAP3 SWAP2 POP POP JUMP JUMPDEST PUSH0 PUSH1 0x20 DUP3 ADD SWAP1 POP SWAP2 SWAP1 POP JUMP JUMPDEST PUSH0 PUSH2 0x2EAB DUP3 PUSH2 0x2E46 JUMP JUMPDEST PUSH2 0x2EB5 DUP2 DUP6 PUSH2 0x2E50 JUMP JUMPDEST SWAP4 POP PUSH2 0x2EC0 DUP4 PUSH2 0x2E60 JUMP JUMPDEST DUP1 PUSH0 JUMPDEST DUP4 DUP2 LT ISZERO PUSH2 0x2EF0 JUMPI DUP2 MLOAD PUSH2 0x2ED7 DUP9 DUP3 PUSH2 0x2E7E JUMP JUMPDEST SWAP8 POP PUSH2 0x2EE2 DUP4 PUSH2 0x2E95 JUMP JUMPDEST SWAP3 POP POP PUSH1 0x1 DUP2 ADD SWAP1 POP PUSH2 0x2EC3 JUMP JUMPDEST POP DUP6 SWAP4 POP POP POP POP SWAP3 SWAP2 POP POP JUMP JUMPDEST PUSH0 PUSH1 0xC0 DUP3 ADD SWAP1 POP PUSH2 0x2F10 PUSH0 DUP4 ADD DUP10 PUSH2 0x29E5 JUMP JUMPDEST DUP2 DUP2 SUB PUSH1 0x20 DUP4 ADD MSTORE PUSH2 0x2F22 DUP2 DUP9 PUSH2 0x2DD3 JUMP JUMPDEST SWAP1 POP DUP2 DUP2 SUB PUSH1 0x40 DUP4 ADD MSTORE PUSH2 0x2F36 DUP2 DUP8 PUSH2 0x2EA1 JUMP JUMPDEST SWAP1 POP DUP2 DUP2 SUB PUSH1 0x60 DUP4 ADD MSTORE PUSH2 0x2F4A DUP2 DUP7 PUSH2 0x2EA1 JUMP JUMPDEST SWAP1 POP PUSH2 0x2F59 PUSH1 0x80 DUP4 ADD DUP6 PUSH2 0x2942 JUMP JUMPDEST PUSH2 0x2F66 PUSH1 0xA0 DUP4 ADD DUP5 PUSH2 0x2942 JUMP JUMPDEST SWAP8 SWAP7 POP POP POP POP POP POP POP JUMP JUMPDEST PUSH0 PUSH8 0xFFFFFFFFFFFFFFFF DUP3 GT ISZERO PUSH2 0x2F8B JUMPI PUSH2 0x2F8A PUSH2 0x2A33 JUMP JUMPDEST JUMPDEST PUSH1 0x20 DUP3 MUL SWAP1 POP PUSH1 0x20 DUP2 ADD SWAP1 POP SWAP2 SWAP1 POP JUMP JUMPDEST PUSH0 PUSH8 0xFFFFFFFFFFFFFFFF DUP3 GT ISZERO PUSH2 0x2FB6 JUMPI PUSH2 0x2FB5 PUSH2 0x2A33 JUMP JUMPDEST JUMPDEST PUSH2 0x2FBF DUP3 PUSH2 0x2A23 JUMP JUMPDEST SWAP1 POP PUSH1 0x20 DUP2 ADD SWAP1 POP SWAP2 SWAP1 POP JUMP JUMPDEST PUSH0 PUSH2 0x2FDE PUSH2 0x2FD9 DUP5 PUSH2 0x2F9C JUMP JUMPDEST PUSH2 0x2A91 JUMP JUMPDEST SWAP1 POP DUP3 DUP2 MSTORE PUSH1 0x20 DUP2 ADD DUP5 DUP5 DUP5 ADD GT ISZERO PUSH2 0x2FFA JUMPI PUSH2 0x2FF9 PUSH2 0x2A1F JUMP JUMPDEST JUMPDEST PUSH2 0x3005 DUP5 DUP3 DUP6 PUSH2 0x2ADB JUMP JUMPDEST POP SWAP4 SWAP3 POP POP POP JUMP JUMPDEST PUSH0 DUP3 PUSH1 0x1F DUP4 ADD SLT PUSH2 0x3021 JUMPI PUSH2 0x3020 PUSH2 0x2A1B JUMP JUMPDEST JUMPDEST DUP2 CALLDATALOAD PUSH2 0x3031 DUP5 DUP3 PUSH1 0x20 DUP7 ADD PUSH2 0x2FCC JUMP JUMPDEST SWAP2 POP POP SWAP3 SWAP2 POP POP JUMP JUMPDEST PUSH0 PUSH2 0x304C PUSH2 0x3047 DUP5 PUSH2 0x2F71 JUMP JUMPDEST PUSH2 0x2A91 JUMP JUMPDEST SWAP1 POP DUP1 DUP4 DUP3 MSTORE PUSH1 0x20 DUP3 ADD SWAP1 POP PUSH1 0x20 DUP5 MUL DUP4 ADD DUP6 DUP2 GT ISZERO PUSH2 0x306F JUMPI PUSH2 0x306E PUSH2 0x2C26 JUMP JUMPDEST JUMPDEST DUP4 JUMPDEST DUP2 DUP2 LT ISZERO PUSH2 0x30B6 JUMPI DUP1 CALLDATALOAD PUSH8 0xFFFFFFFFFFFFFFFF DUP2 GT ISZERO PUSH2 0x3094 JUMPI PUSH2 0x3093 PUSH2 0x2A1B JUMP JUMPDEST JUMPDEST DUP1 DUP7 ADD PUSH2 0x30A1 DUP10 DUP3 PUSH2 0x300D JUMP JUMPDEST DUP6 MSTORE PUSH1 0x20 DUP6 ADD SWAP5 POP POP POP PUSH1 0x20 DUP2 ADD SWAP1 POP PUSH2 0x3071 JUMP JUMPDEST POP POP POP SWAP4 SWAP3 POP POP POP JUMP JUMPDEST PUSH0 DUP3 PUSH1 0x1F DUP4 ADD SLT PUSH2 0x30D4 JUMPI PUSH2 0x30D3 PUSH2 0x2A1B JUMP JUMPDEST JUMPDEST DUP2 CALLDATALOAD PUSH2 0x30E4 DUP5 DUP3 PUSH1 0x20 DUP7 ADD PUSH2 0x303A JUMP JUMPDEST SWAP2 POP POP SWAP3 SWAP2 POP POP JUMP JUMPDEST PUSH0 PUSH1 0x20 DUP3 DUP5 SUB SLT ISZERO PUSH2 0x3102 JUMPI PUSH2 0x3101 PUSH2 0x2813 JUMP JUMPDEST JUMPDEST PUSH0 DUP3 ADD CALLDATALOAD PUSH8 0xFFFFFFFFFFFFFFFF DUP2 GT ISZERO PUSH2 0x311F JUMPI PUSH2 0x311E PUSH2 0x2817 JUMP JUMPDEST JUMPDEST PUSH2 0x312B DUP5 DUP3 DUP6 ADD PUSH2 0x30C0 JUMP JUMPDEST SWAP2 POP POP SWAP3 SWAP2 POP POP JUMP JUMPDEST PUSH0 DUP2 ISZERO ISZERO SWAP1 POP SWAP2 SWAP1 POP JUMP JUMPDEST PUSH2 0x3148 DUP2 PUSH2 0x3134 JUMP JUMPDEST DUP2 EQ PUSH2 0x3152 JUMPI PUSH0 DUP1 REVERT JUMPDEST POP JUMP JUMPDEST PUSH0 DUP2 MLOAD SWAP1 POP PUSH2 0x3163 DUP2 PUSH2 0x313F JUMP JUMPDEST SWAP3 SWAP2 POP POP JUMP JUMPDEST PUSH0 PUSH1 0x20 DUP3 DUP5 SUB SLT ISZERO PUSH2 0x317E JUMPI PUSH2 0x317D PUSH2 0x2813 JUMP JUMPDEST JUMPDEST PUSH0 PUSH2 0x318B DUP5 DUP3 DUP6 ADD PUSH2 0x3155 JUMP JUMPDEST SWAP2 POP POP SWAP3 SWAP2 POP POP JUMP JUMPDEST PUSH0 DUP3 DUP3 MSTORE PUSH1 0x20 DUP3 ADD SWAP1 POP SWAP3 SWAP2 POP POP JUMP JUMPDEST PUSH32 0x5472616E73666572206661696C65640000000000000000000000000000000000 PUSH0 DUP3 ADD MSTORE POP JUMP JUMPDEST PUSH0 PUSH2 0x31D8 PUSH1 0xF DUP4 PUSH2 0x3194 JUMP JUMPDEST SWAP2 POP PUSH2 0x31E3 DUP3 PUSH2 0x31A4 JUMP JUMPDEST PUSH1 0x20 DUP3 ADD SWAP1 POP SWAP2 SWAP1 POP JUMP JUMPDEST PUSH0 PUSH1 0x20 DUP3 ADD SWAP1 POP DUP2 DUP2 SUB PUSH0 DUP4 ADD MSTORE PUSH2 0x3205 DUP2 PUSH2 0x31CC JUMP JUMPDEST SWAP1 POP SWAP2 SWAP1 POP JUMP JUMPDEST PUSH32 0x4E487B7100000000000000000000000000000000000000000000000000000000 PUSH0 MSTORE PUSH1 0x11 PUSH1 0x4 MSTORE PUSH1 0x24 PUSH0 REVERT JUMPDEST PUSH0 PUSH2 0x3243 DUP3 PUSH2 0x281B JUMP JUMPDEST SWAP2 POP PUSH2 0x324E DUP4 PUSH2 0x281B JUMP JUMPDEST SWAP3 POP DUP3 DUP3 SUB SWAP1 POP DUP2 DUP2 GT ISZERO PUSH2 0x3266 JUMPI PUSH2 0x3265 PUSH2 0x320C JUMP JUMPDEST JUMPDEST SWAP3 SWAP2 POP POP JUMP JUMPDEST PUSH0 PUSH1 0x40 DUP3 ADD SWAP1 POP PUSH2 0x327F PUSH0 DUP4 ADD DUP6 PUSH2 0x2942 JUMP JUMPDEST PUSH2 0x328C PUSH1 0x20 DUP4 ADD DUP5 PUSH2 0x2942 JUMP JUMPDEST SWAP4 SWAP3 POP POP POP JUMP JUMPDEST PUSH32 0x46756E6374696F6E206D7573742062652063616C6C6564207468726F75676820 PUSH0 DUP3 ADD MSTORE PUSH32 0x64656C656761746563616C6C0000000000000000000000000000000000000000 PUSH1 0x20 DUP3 ADD MSTORE POP JUMP JUMPDEST PUSH0 PUSH2 0x32ED PUSH1 0x2C DUP4 PUSH2 0x3194 JUMP JUMPDEST SWAP2 POP PUSH2 0x32F8 DUP3 PUSH2 0x3293 JUMP JUMPDEST PUSH1 0x40 DUP3 ADD SWAP1 POP SWAP2 SWAP1 POP JUMP JUMPDEST PUSH0 PUSH1 0x20 DUP3 ADD SWAP1 POP DUP2 DUP2 SUB PUSH0 DUP4 ADD MSTORE PUSH2 0x331A DUP2 PUSH2 0x32E1 JUMP JUMPDEST SWAP1 POP SWAP2 SWAP1 POP JUMP JUMPDEST PUSH32 0x46756E6374696F6E206D7573742062652063616C6C6564207468726F75676820 PUSH0 DUP3 ADD MSTORE PUSH32 0x6163746976652070726F78790000000000000000000000000000000000000000 PUSH1 0x20 DUP3 ADD MSTORE POP JUMP JUMPDEST PUSH0 PUSH2 0x337B PUSH1 0x2C DUP4 PUSH2 0x3194 JUMP JUMPDEST SWAP2 POP PUSH2 0x3386 DUP3 PUSH2 0x3321 JUMP JUMPDEST PUSH1 0x40 DUP3 ADD SWAP1 POP SWAP2 SWAP1 POP JUMP JUMPDEST PUSH0 PUSH1 0x20 DUP3 ADD SWAP1 POP DUP2 DUP2 SUB PUSH0 DUP4 ADD MSTORE PUSH2 0x33A8 DUP2 PUSH2 0x336F JUMP JUMPDEST SWAP1 POP SWAP2 SWAP1 POP JUMP JUMPDEST PUSH32 0x555550535570677261646561626C653A206D757374206E6F742062652063616C PUSH0 DUP3 ADD MSTORE PUSH32 0x6C6564207468726F7567682064656C656761746563616C6C0000000000000000 PUSH1 0x20 DUP3 ADD MSTORE POP JUMP JUMPDEST PUSH0 PUSH2 0x3409 PUSH1 0x38 DUP4 PUSH2 0x3194 JUMP JUMPDEST SWAP2 POP PUSH2 0x3414 DUP3 PUSH2 0x33AF JUMP JUMPDEST PUSH1 0x40 DUP3 ADD SWAP1 POP SWAP2 SWAP1 POP JUMP JUMPDEST PUSH0 PUSH1 0x20 DUP3 ADD SWAP1 POP DUP2 DUP2 SUB PUSH0 DUP4 ADD MSTORE PUSH2 0x3436 DUP2 PUSH2 0x33FD JUMP JUMPDEST SWAP1 POP SWAP2 SWAP1 POP JUMP JUMPDEST PUSH32 0x506F696E7473206D7573742062652067726561746572207468616E207A65726F PUSH0 DUP3 ADD MSTORE POP JUMP JUMPDEST PUSH0 PUSH2 0x3471 PUSH1 0x20 DUP4 PUSH2 0x3194 JUMP JUMPDEST SWAP2 POP PUSH2 0x347C DUP3 PUSH2 0x343D JUMP JUMPDEST PUSH1 0x20 DUP3 ADD SWAP1 POP SWAP2 SWAP1 POP JUMP JUMPDEST PUSH0 PUSH1 0x20 DUP3 ADD SWAP1 POP DUP2 DUP2 SUB PUSH0 DUP4 ADD MSTORE PUSH2 0x349E DUP2 PUSH2 0x3465 JUMP JUMPDEST SWAP1 POP SWAP2 SWAP1 POP JUMP JUMPDEST PUSH0 PUSH2 0x34AF DUP3 PUSH2 0x281B JUMP JUMPDEST SWAP2 POP PUSH2 0x34BA DUP4 PUSH2 0x281B JUMP JUMPDEST SWAP3 POP DUP3 DUP3 ADD SWAP1 POP DUP1 DUP3 GT ISZERO PUSH2 0x34D2 JUMPI PUSH2 0x34D1 PUSH2 0x320C JUMP JUMPDEST JUMPDEST SWAP3 SWAP2 POP POP JUMP JUMPDEST PUSH32 0x496E73756666696369656E7420766F74696E6720726967687473000000000000 PUSH0 DUP3 ADD MSTORE POP JUMP JUMPDEST PUSH0 PUSH2 0x350C PUSH1 0x1A DUP4 PUSH2 0x3194 JUMP JUMPDEST SWAP2 POP PUSH2 0x3517 DUP3 PUSH2 0x34D8 JUMP JUMPDEST PUSH1 0x20 DUP3 ADD SWAP1 POP SWAP2 SWAP1 POP JUMP JUMPDEST PUSH0 PUSH1 0x20 DUP3 ADD SWAP1 POP DUP2 DUP2 SUB PUSH0 DUP4 ADD MSTORE PUSH2 0x3539 DUP2 PUSH2 0x3500 JUMP JUMPDEST SWAP1 POP SWAP2 SWAP1 POP JUMP JUMPDEST PUSH32 0x4E487B7100000000000000000000000000000000000000000000000000000000 PUSH0 MSTORE PUSH1 0x32 PUSH1 0x4 MSTORE PUSH1 0x24 PUSH0 REVERT JUMPDEST PUSH0 PUSH1 0x60 DUP3 ADD SWAP1 POP PUSH2 0x3580 PUSH0 DUP4 ADD DUP7 PUSH2 0x29E5 JUMP JUMPDEST PUSH2 0x358D PUSH1 0x20 DUP4 ADD DUP6 PUSH2 0x29E5 JUMP JUMPDEST PUSH2 0x359A PUSH1 0x40 DUP4 ADD DUP5 PUSH2 0x2942 JUMP JUMPDEST SWAP5 SWAP4 POP POP POP POP JUMP JUMPDEST PUSH32 0x4E487B7100000000000000000000000000000000000000000000000000000000 PUSH0 MSTORE PUSH1 0x22 PUSH1 0x4 MSTORE PUSH1 0x24 PUSH0 REVERT JUMPDEST PUSH0 PUSH1 0x2 DUP3 DIV SWAP1 POP PUSH1 0x1 DUP3 AND DUP1 PUSH2 0x35E6 JUMPI PUSH1 0x7F DUP3 AND SWAP2 POP JUMPDEST PUSH1 0x20 DUP3 LT DUP2 SUB PUSH2 0x35F9 JUMPI PUSH2 0x35F8 PUSH2 0x35A2 JUMP JUMPDEST JUMPDEST POP SWAP2 SWAP1 POP JUMP JUMPDEST PUSH32 0x6C656E206572726F720000000000000000000000000000000000000000000000 PUSH0 DUP3 ADD MSTORE POP JUMP JUMPDEST PUSH0 PUSH2 0x3633 PUSH1 0x9 DUP4 PUSH2 0x3194 JUMP JUMPDEST SWAP2 POP PUSH2 0x363E DUP3 PUSH2 0x35FF JUMP JUMPDEST PUSH1 0x20 DUP3 ADD SWAP1 POP SWAP2 SWAP1 POP JUMP JUMPDEST PUSH0 PUSH1 0x20 DUP3 ADD SWAP1 POP DUP2 DUP2 SUB PUSH0 DUP4 ADD MSTORE PUSH2 0x3660 DUP2 PUSH2 0x3627 JUMP JUMPDEST SWAP1 POP SWAP2 SWAP1 POP JUMP JUMPDEST PUSH0 DUP2 SWAP1 POP DUP2 PUSH0 MSTORE PUSH1 0x20 PUSH0 KECCAK256 SWAP1 POP SWAP2 SWAP1 POP JUMP JUMPDEST PUSH0 PUSH1 0x20 PUSH1 0x1F DUP4 ADD DIV SWAP1 POP SWAP2 SWAP1 POP JUMP JUMPDEST PUSH0 DUP3 DUP3 SHL SWAP1 POP SWAP3 SWAP2 POP POP JUMP JUMPDEST PUSH0 PUSH1 0x8 DUP4 MUL PUSH2 0x36C3 PUSH32 0xFFFFFFFFFFFFFFFFFFFFFFFFFFFFFFFFFFFFFFFFFFFFFFFFFFFFFFFFFFFFFFFF DUP3 PUSH2 0x3688 JUMP JUMPDEST PUSH2 0x36CD DUP7 DUP4 PUSH2 0x3688 JUMP JUMPDEST SWAP6 POP DUP1 NOT DUP5 AND SWAP4 POP DUP1 DUP7 AND DUP5 OR SWAP3 POP POP POP SWAP4 SWAP3 POP POP POP JUMP JUMPDEST PUSH0 DUP2 SWAP1 POP SWAP2 SWAP1 POP JUMP JUMPDEST PUSH0 PUSH2 0x3708 PUSH2 0x3703 PUSH2 0x36FE DUP5 PUSH2 0x281B JUMP JUMPDEST PUSH2 0x36E5 JUMP JUMPDEST PUSH2 0x281B JUMP JUMPDEST SWAP1 POP SWAP2 SWAP1 POP JUMP JUMPDEST PUSH0 DUP2 SWAP1 POP SWAP2 SWAP1 POP JUMP JUMPDEST PUSH2 0x3721 DUP4 PUSH2 0x36EE JUMP JUMPDEST PUSH2 0x3735 PUSH2 0x372D DUP3 PUSH2 0x370F JUMP JUMPDEST DUP5 DUP5 SLOAD PUSH2 0x3694 JUMP JUMPDEST DUP3 SSTORE POP POP POP POP JUMP JUMPDEST PUSH0 SWAP1 JUMP JUMPDEST PUSH2 0x3749 PUSH2 0x373D JUMP JUMPDEST PUSH2 0x3754 DUP2 DUP5 DUP5 PUSH2 0x3718 JUMP JUMPDEST POP POP POP JUMP JUMPDEST JUMPDEST DUP2 DUP2 LT ISZERO PUSH2 0x3777 JUMPI PUSH2 0x376C PUSH0 DUP3 PUSH2 0x3741 JUMP JUMPDEST PUSH1 0x1 DUP2 ADD SWAP1 POP PUSH2 0x375A JUMP JUMPDEST POP POP JUMP JUMPDEST PUSH1 0x1F DUP3 GT ISZERO PUSH2 0x37BC JUMPI PUSH2 0x378D DUP2 PUSH2 0x3667 JUMP JUMPDEST PUSH2 0x3796 DUP5 PUSH2 0x3679 JUMP JUMPDEST DUP2 ADD PUSH1 0x20 DUP6 LT ISZERO PUSH2 0x37A5 JUMPI DUP2 SWAP1 POP JUMPDEST PUSH2 0x37B9 PUSH2 0x37B1 DUP6 PUSH2 0x3679 JUMP JUMPDEST DUP4 ADD DUP3 PUSH2 0x3759 JUMP JUMPDEST POP POP JUMPDEST POP POP POP JUMP JUMPDEST PUSH0 DUP3 DUP3 SHR SWAP1 POP SWAP3 SWAP2 POP POP JUMP JUMPDEST PUSH0 PUSH2 0x37DC PUSH0 NOT DUP5 PUSH1 0x8 MUL PUSH2 0x37C1 JUMP JUMPDEST NOT DUP1 DUP4 AND SWAP2 POP POP SWAP3 SWAP2 POP POP JUMP JUMPDEST PUSH0 PUSH2 0x37F4 DUP4 DUP4 PUSH2 0x37CD JUMP JUMPDEST SWAP2 POP DUP3 PUSH1 0x2 MUL DUP3 OR SWAP1 POP SWAP3 SWAP2 POP POP JUMP JUMPDEST PUSH2 0x380D DUP3 PUSH2 0x2D54 JUMP JUMPDEST PUSH8 0xFFFFFFFFFFFFFFFF DUP2 GT ISZERO PUSH2 0x3826 JUMPI PUSH2 0x3825 PUSH2 0x2A33 JUMP JUMPDEST JUMPDEST PUSH2 0x3830 DUP3 SLOAD PUSH2 0x35CF JUMP JUMPDEST PUSH2 0x383B DUP3 DUP3 DUP6 PUSH2 0x377B JUMP JUMPDEST PUSH0 PUSH1 0x20 SWAP1 POP PUSH1 0x1F DUP4 GT PUSH1 0x1 DUP2 EQ PUSH2 0x386C JUMPI PUSH0 DUP5 ISZERO PUSH2 0x385A JUMPI DUP3 DUP8 ADD MLOAD SWAP1 POP JUMPDEST PUSH2 0x3864 DUP6 DUP3 PUSH2 0x37E9 JUMP JUMPDEST DUP7 SSTORE POP PUSH2 0x38CB JUMP JUMPDEST PUSH1 0x1F NOT DUP5 AND PUSH2 0x387A DUP7 PUSH2 0x3667 JUMP JUMPDEST PUSH0 JUMPDEST DUP3 DUP2 LT ISZERO PUSH2 0x38A1 JUMPI DUP5 DUP10 ADD MLOAD DUP3 SSTORE PUSH1 0x1 DUP3 ADD SWAP2 POP PUSH1 0x20 DUP6 ADD SWAP5 POP PUSH1 0x20 DUP2 ADD SWAP1 POP PUSH2 0x387C JUMP JUMPDEST DUP7 DUP4 LT ISZERO PUSH2 0x38BE JUMPI DUP5 DUP10 ADD MLOAD PUSH2 0x38BA PUSH1 0x1F DUP10 AND DUP3 PUSH2 0x37CD JUMP JUMPDEST DUP4 SSTORE POP JUMPDEST PUSH1 0x1 PUSH1 0x2 DUP9 MUL ADD DUP9 SSTORE POP POP POP JUMPDEST POP POP POP POP POP POP JUMP JUMPDEST PUSH0 PUSH1 0x20 DUP3 ADD SWAP1 POP DUP2 DUP2 SUB PUSH0 DUP4 ADD MSTORE PUSH2 0x38EB DUP2 DUP5 PUSH2 0x2DD3 JUMP JUMPDEST SWAP1 POP SWAP3 SWAP2 POP POP JUMP JUMPDEST PUSH32 0x496E697469616C697A61626C653A20636F6E747261637420697320616C726561 PUSH0 DUP3 ADD MSTORE PUSH32 0x647920696E697469616C697A6564000000000000000000000000000000000000 PUSH1 0x20 DUP3 ADD MSTORE POP JUMP JUMPDEST PUSH0 PUSH2 0x394D PUSH1 0x2E DUP4 PUSH2 0x3194 JUMP JUMPDEST SWAP2 POP PUSH2 0x3958 DUP3 PUSH2 0x38F3 JUMP JUMPDEST PUSH1 0x40 DUP3 ADD SWAP1 POP SWAP2 SWAP1 POP JUMP JUMPDEST PUSH0 PUSH1 0x20 DUP3 ADD SWAP1 POP DUP2 DUP2 SUB PUSH0 DUP4 ADD MSTORE PUSH2 0x397A DUP2 PUSH2 0x3941 JUMP JUMPDEST SWAP1 POP SWAP2 SWAP1 POP JUMP JUMPDEST PUSH0 DUP2 SWAP1 POP SWAP2 SWAP1 POP JUMP JUMPDEST PUSH0 PUSH1 0xFF DUP3 AND SWAP1 POP SWAP2 SWAP1 POP JUMP JUMPDEST PUSH0 PUSH2 0x39B0 PUSH2 0x39AB PUSH2 0x39A6 DUP5 PUSH2 0x3981 JUMP JUMPDEST PUSH2 0x36E5 JUMP JUMPDEST PUSH2 0x398A JUMP JUMPDEST SWAP1 POP SWAP2 SWAP1 POP JUMP JUMPDEST PUSH2 0x39C0 DUP2 PUSH2 0x3996 JUMP JUMPDEST DUP3 MSTORE POP POP JUMP JUMPDEST PUSH0 PUSH1 0x20 DUP3 ADD SWAP1 POP PUSH2 0x39D9 PUSH0 DUP4 ADD DUP5 PUSH2 0x39B7 JUMP JUMPDEST SWAP3 SWAP2 POP POP JUMP JUMPDEST PUSH2 0x39E8 DUP2 PUSH2 0x2BB1 JUMP JUMPDEST DUP2 EQ PUSH2 0x39F2 JUMPI PUSH0 DUP1 REVERT JUMPDEST POP JUMP JUMPDEST PUSH0 DUP2 MLOAD SWAP1 POP PUSH2 0x3A03 DUP2 PUSH2 0x39DF JUMP JUMPDEST SWAP3 SWAP2 POP POP JUMP JUMPDEST PUSH0 PUSH1 0x20 DUP3 DUP5 SUB SLT ISZERO PUSH2 0x3A1E JUMPI PUSH2 0x3A1D PUSH2 0x2813 JUMP JUMPDEST JUMPDEST PUSH0 PUSH2 0x3A2B DUP5 DUP3 DUP6 ADD PUSH2 0x39F5 JUMP JUMPDEST SWAP2 POP POP SWAP3 SWAP2 POP POP JUMP JUMPDEST PUSH32 0x45524331393637557067726164653A206E657720696D706C656D656E74617469 PUSH0 DUP3 ADD MSTORE PUSH32 0x6F6E206973206E6F742055555053000000000000000000000000000000000000 PUSH1 0x20 DUP3 ADD MSTORE POP JUMP JUMPDEST PUSH0 PUSH2 0x3A8E PUSH1 0x2E DUP4 PUSH2 0x3194 JUMP JUMPDEST SWAP2 POP PUSH2 0x3A99 DUP3 PUSH2 0x3A34 JUMP JUMPDEST PUSH1 0x40 DUP3 ADD SWAP1 POP SWAP2 SWAP1 POP JUMP JUMPDEST PUSH0 PUSH1 0x20 DUP3 ADD SWAP1 POP DUP2 DUP2 SUB PUSH0 DUP4 ADD MSTORE PUSH2 0x3ABB DUP2 PUSH2 0x3A82 JUMP JUMPDEST SWAP1 POP SWAP2 SWAP1 POP JUMP JUMPDEST PUSH32 0x45524331393637557067726164653A20756E737570706F727465642070726F78 PUSH0 DUP3 ADD MSTORE PUSH32 0x6961626C65555549440000000000000000000000000000000000000000000000 PUSH1 0x20 DUP3 ADD MSTORE POP JUMP JUMPDEST PUSH0 PUSH2 0x3B1C PUSH1 0x29 DUP4 PUSH2 0x3194 JUMP JUMPDEST SWAP2 POP PUSH2 0x3B27 DUP3 PUSH2 0x3AC2 JUMP JUMPDEST PUSH1 0x40 DUP3 ADD SWAP1 POP SWAP2 SWAP1 POP JUMP JUMPDEST PUSH0 PUSH1 0x20 DUP3 ADD SWAP1 POP DUP2 DUP2 SUB PUSH0 DUP4 ADD MSTORE PUSH2 0x3B49 DUP2 PUSH2 0x3B10 JUMP JUMPDEST SWAP1 POP SWAP2 SWAP1 POP JUMP JUMPDEST PUSH0 PUSH2 0x3B5A DUP3 PUSH2 0x281B JUMP JUMPDEST SWAP2 POP PUSH2 0x3B65 DUP4 PUSH2 0x281B JUMP JUMPDEST SWAP3 POP DUP3 DUP3 MUL PUSH2 0x3B73 DUP2 PUSH2 0x281B JUMP JUMPDEST SWAP2 POP DUP3 DUP3 DIV DUP5 EQ DUP4 ISZERO OR PUSH2 0x3B8A JUMPI PUSH2 0x3B89 PUSH2 0x320C JUMP JUMPDEST JUMPDEST POP SWAP3 SWAP2 POP POP JUMP JUMPDEST PUSH32 0x4E487B7100000000000000000000000000000000000000000000000000000000 PUSH0 MSTORE PUSH1 0x12 PUSH1 0x4 MSTORE PUSH1 0x24 PUSH0 REVERT JUMPDEST PUSH0 PUSH2 0x3BC8 DUP3 PUSH2 0x281B JUMP JUMPDEST SWAP2 POP PUSH2 0x3BD3 DUP4 PUSH2 0x281B JUMP JUMPDEST SWAP3 POP DUP3 PUSH2 0x3BE3 JUMPI PUSH2 0x3BE2 PUSH2 0x3B91 JUMP JUMPDEST JUMPDEST DUP3 DUP3 DIV SWAP1 POP SWAP3 SWAP2 POP POP JUMP JUMPDEST PUSH0 DUP2 MLOAD SWAP1 POP SWAP2 SWAP1 POP JUMP JUMPDEST PUSH0 DUP3 DUP3 MSTORE PUSH1 0x20 DUP3 ADD SWAP1 POP SWAP3 SWAP2 POP POP JUMP JUMPDEST PUSH0 DUP2 SWAP1 POP PUSH1 0x20 DUP3 ADD SWAP1 POP SWAP2 SWAP1 POP JUMP JUMPDEST PUSH2 0x3C20 DUP2 PUSH2 0x286D JUMP JUMPDEST DUP3 MSTORE POP POP JUMP JUMPDEST PUSH0 PUSH2 0x3C31 DUP4 DUP4 PUSH2 0x3C17 JUMP JUMPDEST PUSH1 0x20 DUP4 ADD SWAP1 POP SWAP3 SWAP2 POP POP JUMP JUMPDEST PUSH0 PUSH1 0x20 DUP3 ADD SWAP1 POP SWAP2 SWAP1 POP JUMP JUMPDEST PUSH0 PUSH2 0x3C53 DUP3 PUSH2 0x3BEE JUMP JUMPDEST PUSH2 0x3C5D DUP2 DUP6 PUSH2 0x3BF8 JUMP JUMPDEST SWAP4 POP PUSH2 0x3C68 DUP4 PUSH2 0x3C08 JUMP JUMPDEST DUP1 PUSH0 JUMPDEST DUP4 DUP2 LT ISZERO PUSH2 0x3C98 JUMPI DUP2 MLOAD PUSH2 0x3C7F DUP9 DUP3 PUSH2 0x3C26 JUMP JUMPDEST SWAP8 POP PUSH2 0x3C8A DUP4 PUSH2 0x3C3D JUMP JUMPDEST SWAP3 POP POP PUSH1 0x1 DUP2 ADD SWAP1 POP PUSH2 0x3C6B JUMP JUMPDEST POP DUP6 SWAP4 POP POP POP POP SWAP3 SWAP2 POP POP JUMP JUMPDEST PUSH0 PUSH1 0x60 DUP3 ADD SWAP1 POP DUP2 DUP2 SUB PUSH0 DUP4 ADD MSTORE PUSH2 0x3CBD DUP2 DUP7 PUSH2 0x3C49 JUMP JUMPDEST SWAP1 POP PUSH2 0x3CCC PUSH1 0x20 DUP4 ADD DUP6 PUSH2 0x2942 JUMP JUMPDEST PUSH2 0x3CD9 PUSH1 0x40 DUP4 ADD DUP5 PUSH2 0x2942 JUMP JUMPDEST SWAP5 SWAP4 POP POP POP POP JUMP JUMPDEST PUSH32 0x455243313936373A206E657720696D706C656D656E746174696F6E206973206E PUSH0 DUP3 ADD MSTORE PUSH32 0x6F74206120636F6E747261637400000000000000000000000000000000000000 PUSH1 0x20 DUP3 ADD MSTORE POP JUMP JUMPDEST PUSH0 PUSH2 0x3D3B PUSH1 0x2D DUP4 PUSH2 0x3194 JUMP JUMPDEST SWAP2 POP PUSH2 0x3D46 DUP3 PUSH2 0x3CE1 JUMP JUMPDEST PUSH1 0x40 DUP3 ADD SWAP1 POP SWAP2 SWAP1 POP JUMP JUMPDEST PUSH0 PUSH1 0x20 DUP3 ADD SWAP1 POP DUP2 DUP2 SUB PUSH0 DUP4 ADD MSTORE PUSH2 0x3D68 DUP2 PUSH2 0x3D2F JUMP JUMPDEST SWAP1 POP SWAP2 SWAP1 POP JUMP JUMPDEST PUSH0 PUSH1 0x40 DUP3 ADD SWAP1 POP PUSH2 0x3D82 PUSH0 DUP4 ADD DUP6 PUSH2 0x2942 JUMP JUMPDEST PUSH2 0x3D8F PUSH1 0x20 DUP4 ADD DUP5 PUSH2 0x28EF JUMP JUMPDEST SWAP4 SWAP3 POP POP POP JUMP JUMPDEST PUSH0 PUSH2 0x3DA0 DUP3 PUSH2 0x28E6 JUMP JUMPDEST SWAP2 POP PUSH2 0x3DAB DUP4 PUSH2 0x28E6 JUMP JUMPDEST SWAP3 POP DUP3 DUP3 MUL PUSH2 0x3DB9 DUP2 PUSH2 0x28E6 JUMP JUMPDEST SWAP2 POP PUSH32 0x8000000000000000000000000000000000000000000000000000000000000000 DUP5 EQ PUSH0 DUP5 SLT AND ISZERO PUSH2 0x3DF0 JUMPI PUSH2 0x3DEF PUSH2 0x320C JUMP JUMPDEST JUMPDEST DUP3 DUP3 SDIV DUP5 EQ DUP4 ISZERO OR PUSH2 0x3E05 JUMPI PUSH2 0x3E04 PUSH2 0x320C JUMP JUMPDEST JUMPDEST POP SWAP3 SWAP2 POP POP JUMP JUMPDEST PUSH0 DUP2 MLOAD SWAP1 POP SWAP2 SWAP1 POP JUMP JUMPDEST PUSH0 DUP2 SWAP1 POP SWAP3 SWAP2 POP POP JUMP JUMPDEST PUSH0 PUSH2 0x3E2A DUP3 PUSH2 0x3E0C JUMP JUMPDEST PUSH2 0x3E34 DUP2 DUP6 PUSH2 0x3E16 JUMP JUMPDEST SWAP4 POP PUSH2 0x3E44 DUP2 DUP6 PUSH1 0x20 DUP7 ADD PUSH2 0x2D6E JUMP JUMPDEST DUP1 DUP5 ADD SWAP2 POP POP SWAP3 SWAP2 POP POP JUMP JUMPDEST PUSH0 PUSH2 0x3E5B DUP3 DUP5 PUSH2 0x3E20 JUMP JUMPDEST SWAP2 POP DUP2 SWAP1 POP SWAP3 SWAP2 POP POP JUMP JUMPDEST PUSH32 0x416464726573733A2063616C6C20746F206E6F6E2D636F6E7472616374000000 PUSH0 DUP3 ADD MSTORE POP JUMP JUMPDEST PUSH0 PUSH2 0x3E9A PUSH1 0x1D DUP4 PUSH2 0x3194 JUMP JUMPDEST SWAP2 POP PUSH2 0x3EA5 DUP3 PUSH2 0x3E66 JUMP JUMPDEST PUSH1 0x20 DUP3 ADD SWAP1 POP SWAP2 SWAP1 POP JUMP JUMPDEST PUSH0 PUSH1 0x20 DUP3 ADD SWAP1 POP DUP2 DUP2 SUB PUSH0 DUP4 ADD MSTORE PUSH2 0x3EC7 DUP2 PUSH2 0x3E8E JUMP JUMPDEST SWAP1 POP SWAP2 SWAP1 POP JUMP JUMPDEST PUSH0 PUSH2 0x3ED8 DUP3 PUSH2 0x2D54 JUMP JUMPDEST PUSH2 0x3EE2 DUP2 DUP6 PUSH2 0x3194 JUMP JUMPDEST SWAP4 POP PUSH2 0x3EF2 DUP2 DUP6 PUSH1 0x20 DUP7 ADD PUSH2 0x2D6E JUMP JUMPDEST PUSH2 0x3EFB DUP2 PUSH2 0x2A23 JUMP JUMPDEST DUP5 ADD SWAP2 POP POP SWAP3 SWAP2 POP POP JUMP JUMPDEST PUSH0 PUSH1 0x20 DUP3 ADD SWAP1 POP DUP2 DUP2 SUB PUSH0 DUP4 ADD MSTORE PUSH2 0x3F1E DUP2 DUP5 PUSH2 0x3ECE JUMP JUMPDEST SWAP1 POP SWAP3 SWAP2 POP POP JUMP INVALID COINBASE PUSH5 0x6472657373 GASPRICE KECCAK256 PUSH13 0x6F772D6C6576656C2064656C65 PUSH8 0x6174652063616C6C KECCAK256 PUSH7 0x61696C6564A264 PUSH10 0x70667358221220531310 ISZERO GT CREATE EXTCODEHASH 0xC3 0xDC 0xC4 ADDMOD 0xD2 LOG1 MSTORE8 0x2C SLOAD SWAP9 RETURNDATASIZE TSTORE PUSH18 0xDE24621A3392AE0250B5CBF764736F6C6343 STOP ADDMOD BYTE STOP CALLER "
				},
				"gasEstimates": {
					"creation": {
						"codeDepositCost": "3251800",
						"executionCost": "infinite",
						"totalCost": "infinite"
					},
					"external": {
						"balances(address)": "2870",
						"create(string[])": "infinite",
						"deposit(uint256)": "infinite",
						"exchangePoints(uint256)": "infinite",
						"getAvailableBalance(address)": "infinite",
						"getDetails(uint256)": "infinite",
						"initialize(address)": "132654",
						"logicAddress()": "2597",
						"mlnTokenAddr()": "2618",
						"owner()": "2603",
						"proposalInfos(uint256)": "5000",
						"proposalVotingSituation(uint256,uint256,uint256)": "infinite",
						"proxiableUUID()": "infinite",
						"settle(uint256,uint256,address[])": "infinite",
						"upgradeTo(address)": "infinite",
						"upgradeToAndCall(address,bytes)": "infinite",
						"userProposalResults(uint256,address)": "3058",
						"vote(uint256,uint256,uint256)": "infinite",
						"votingLock(address)": "2913",
						"winningOption(uint256)": "infinite",
						"withdraw(uint256)": "infinite"
					},
					"internal": {
						"_authorizeUpgrade(address)": "infinite",
						"distributeRewardsAndPenalties(uint256,uint256,uint256,uint256,struct Proposal.VoteInfo memory[] memory,uint256)": "infinite",
						"handleJurorsDistributeRewards(uint256,address[] memory)": "infinite",
						"handleMultiOptionProposal(uint256,uint256)": "infinite",
						"handleSingleOptionProposal(uint256,uint256)": "infinite",
						"isSingleOptionProposal(uint256,uint256)": "infinite"
					}
				},
				"methodIdentifiers": {
					"balances(address)": "27e235e3",
					"create(string[])": "bdd69096",
					"deposit(uint256)": "b6b55f25",
					"exchangePoints(uint256)": "7c7b66f7",
					"getAvailableBalance(address)": "6c24a76f",
					"getDetails(uint256)": "b93a89f7",
					"initialize(address)": "c4d66de8",
					"logicAddress()": "9c1fcc4c",
					"mlnTokenAddr()": "c3a0aba8",
					"owner()": "8da5cb5b",
					"proposalInfos(uint256)": "b511328d",
					"proposalVotingSituation(uint256,uint256,uint256)": "45071c71",
					"proxiableUUID()": "52d1902d",
					"settle(uint256,uint256,address[])": "9b6f67be",
					"upgradeTo(address)": "3659cfe6",
					"upgradeToAndCall(address,bytes)": "4f1ef286",
					"userProposalResults(uint256,address)": "0c7353e0",
					"vote(uint256,uint256,uint256)": "8a6655d6",
					"votingLock(address)": "b00673bc",
					"winningOption(uint256)": "0dca7ed8",
					"withdraw(uint256)": "2e1a7d4d"
				}
			},
			"storageLayout": {
				"storage": [
					{
						"astId": 351,
						"contract": "contracts/Proposal.sol:Proposal",
						"label": "_initialized",
						"offset": 0,
						"slot": "0",
						"type": "t_uint8"
					},
					{
						"astId": 354,
						"contract": "contracts/Proposal.sol:Proposal",
						"label": "_initializing",
						"offset": 1,
						"slot": "0",
						"type": "t_bool"
					},
					{
						"astId": 1251,
						"contract": "contracts/Proposal.sol:Proposal",
						"label": "owner",
						"offset": 2,
						"slot": "0",
						"type": "t_address"
					},
					{
						"astId": 1253,
						"contract": "contracts/Proposal.sol:Proposal",
						"label": "logicAddress",
						"offset": 0,
						"slot": "1",
						"type": "t_address"
					},
					{
						"astId": 1255,
						"contract": "contracts/Proposal.sol:Proposal",
						"label": "mlnTokenAddr",
						"offset": 0,
						"slot": "2",
						"type": "t_address"
					},
					{
						"astId": 1259,
						"contract": "contracts/Proposal.sol:Proposal",
						"label": "proposalInfos",
						"offset": 0,
						"slot": "3",
						"type": "t_array(t_struct(ProposalInfo)1170_storage)dyn_storage"
					},
					{
						"astId": 1263,
						"contract": "contracts/Proposal.sol:Proposal",
						"label": "balances",
						"offset": 0,
						"slot": "4",
						"type": "t_mapping(t_address,t_uint256)"
					},
					{
						"astId": 1267,
						"contract": "contracts/Proposal.sol:Proposal",
						"label": "votingLock",
						"offset": 0,
						"slot": "5",
						"type": "t_mapping(t_address,t_uint256)"
					},
					{
						"astId": 1275,
						"contract": "contracts/Proposal.sol:Proposal",
						"label": "proposalVotingSituation",
						"offset": 0,
						"slot": "6",
						"type": "t_mapping(t_uint256,t_mapping(t_uint256,t_array(t_struct(VoteInfo)1175_storage)dyn_storage))"
					},
					{
						"astId": 1279,
						"contract": "contracts/Proposal.sol:Proposal",
						"label": "winningOption",
						"offset": 0,
						"slot": "7",
						"type": "t_mapping(t_uint256,t_uint256)"
					},
					{
						"astId": 1285,
						"contract": "contracts/Proposal.sol:Proposal",
						"label": "userProposalResults",
						"offset": 0,
						"slot": "8",
						"type": "t_mapping(t_uint256,t_mapping(t_address,t_int256))"
					}
				],
				"types": {
					"t_address": {
						"encoding": "inplace",
						"label": "address",
						"numberOfBytes": "20"
					},
					"t_array(t_struct(Option)1163_storage)dyn_storage": {
						"base": "t_struct(Option)1163_storage",
						"encoding": "dynamic_array",
						"label": "struct Proposal.Option[]",
						"numberOfBytes": "32"
					},
					"t_array(t_struct(ProposalInfo)1170_storage)dyn_storage": {
						"base": "t_struct(ProposalInfo)1170_storage",
						"encoding": "dynamic_array",
						"label": "struct Proposal.ProposalInfo[]",
						"numberOfBytes": "32"
					},
					"t_array(t_struct(VoteInfo)1175_storage)dyn_storage": {
						"base": "t_struct(VoteInfo)1175_storage",
						"encoding": "dynamic_array",
						"label": "struct Proposal.VoteInfo[]",
						"numberOfBytes": "32"
					},
					"t_bool": {
						"encoding": "inplace",
						"label": "bool",
						"numberOfBytes": "1"
					},
					"t_int256": {
						"encoding": "inplace",
						"label": "int256",
						"numberOfBytes": "32"
					},
					"t_mapping(t_address,t_int256)": {
						"encoding": "mapping",
						"key": "t_address",
						"label": "mapping(address => int256)",
						"numberOfBytes": "32",
						"value": "t_int256"
					},
					"t_mapping(t_address,t_uint256)": {
						"encoding": "mapping",
						"key": "t_address",
						"label": "mapping(address => uint256)",
						"numberOfBytes": "32",
						"value": "t_uint256"
					},
					"t_mapping(t_uint256,t_array(t_struct(VoteInfo)1175_storage)dyn_storage)": {
						"encoding": "mapping",
						"key": "t_uint256",
						"label": "mapping(uint256 => struct Proposal.VoteInfo[])",
						"numberOfBytes": "32",
						"value": "t_array(t_struct(VoteInfo)1175_storage)dyn_storage"
					},
					"t_mapping(t_uint256,t_mapping(t_address,t_int256))": {
						"encoding": "mapping",
						"key": "t_uint256",
						"label": "mapping(uint256 => mapping(address => int256))",
						"numberOfBytes": "32",
						"value": "t_mapping(t_address,t_int256)"
					},
					"t_mapping(t_uint256,t_mapping(t_uint256,t_array(t_struct(VoteInfo)1175_storage)dyn_storage))": {
						"encoding": "mapping",
						"key": "t_uint256",
						"label": "mapping(uint256 => mapping(uint256 => struct Proposal.VoteInfo[]))",
						"numberOfBytes": "32",
						"value": "t_mapping(t_uint256,t_array(t_struct(VoteInfo)1175_storage)dyn_storage)"
					},
					"t_mapping(t_uint256,t_uint256)": {
						"encoding": "mapping",
						"key": "t_uint256",
						"label": "mapping(uint256 => uint256)",
						"numberOfBytes": "32",
						"value": "t_uint256"
					},
					"t_string_storage": {
						"encoding": "bytes",
						"label": "string",
						"numberOfBytes": "32"
					},
					"t_struct(Option)1163_storage": {
						"encoding": "inplace",
						"label": "struct Proposal.Option",
						"members": [
							{
								"astId": 1158,
								"contract": "contracts/Proposal.sol:Proposal",
								"label": "desc",
								"offset": 0,
								"slot": "0",
								"type": "t_string_storage"
							},
							{
								"astId": 1160,
								"contract": "contracts/Proposal.sol:Proposal",
								"label": "count",
								"offset": 0,
								"slot": "1",
								"type": "t_uint256"
							},
							{
								"astId": 1162,
								"contract": "contracts/Proposal.sol:Proposal",
								"label": "voters",
								"offset": 0,
								"slot": "2",
								"type": "t_uint256"
							}
						],
						"numberOfBytes": "96"
					},
					"t_struct(ProposalInfo)1170_storage": {
						"encoding": "inplace",
						"label": "struct Proposal.ProposalInfo",
						"members": [
							{
								"astId": 1165,
								"contract": "contracts/Proposal.sol:Proposal",
								"label": "founder",
								"offset": 0,
								"slot": "0",
								"type": "t_address"
							},
							{
								"astId": 1169,
								"contract": "contracts/Proposal.sol:Proposal",
								"label": "options",
								"offset": 0,
								"slot": "1",
								"type": "t_array(t_struct(Option)1163_storage)dyn_storage"
							}
						],
						"numberOfBytes": "64"
					},
					"t_struct(VoteInfo)1175_storage": {
						"encoding": "inplace",
						"label": "struct Proposal.VoteInfo",
						"members": [
							{
								"astId": 1172,
								"contract": "contracts/Proposal.sol:Proposal",
								"label": "user",
								"offset": 0,
								"slot": "0",
								"type": "t_address"
							},
							{
								"astId": 1174,
								"contract": "contracts/Proposal.sol:Proposal",
								"label": "amount",
								"offset": 0,
								"slot": "1",
								"type": "t_uint256"
							}
						],
						"numberOfBytes": "64"
					},
					"t_uint256": {
						"encoding": "inplace",
						"label": "uint256",
						"numberOfBytes": "32"
					},
					"t_uint8": {
						"encoding": "inplace",
						"label": "uint8",
						"numberOfBytes": "1"
					}
				}
			},
			"userdoc": {
				"kind": "user",
				"methods": {},
				"version": 1
			}
		}
	}
}