{
	"contracts/Proposal.sol": {
		"Proposal": {
			"abi": [
				{
					"inputs": [
						{
							"internalType": "address",
							"name": "user",
							"type": "address"
						},
						{
							"internalType": "uint256",
							"name": "availableBalance",
							"type": "uint256"
						}
					],
					"name": "InsufficientBalance",
					"type": "error"
				},
				{
					"inputs": [
						{
							"internalType": "address",
							"name": "account",
							"type": "address"
						}
					],
					"name": "OwnableUnauthorizedAccount",
					"type": "error"
				},
				{
					"anonymous": false,
					"inputs": [
						{
							"indexed": false,
							"internalType": "address",
							"name": "previousAdmin",
							"type": "address"
						},
						{
							"indexed": false,
							"internalType": "address",
							"name": "newAdmin",
							"type": "address"
						}
					],
					"name": "AdminChanged",
					"type": "event"
				},
				{
					"anonymous": false,
					"inputs": [
						{
							"indexed": true,
							"internalType": "address",
							"name": "beacon",
							"type": "address"
						}
					],
					"name": "BeaconUpgraded",
					"type": "event"
				},
				{
					"anonymous": false,
					"inputs": [
						{
							"indexed": true,
							"internalType": "address",
							"name": "founder",
							"type": "address"
						},
						{
							"indexed": true,
							"internalType": "uint256",
							"name": "id",
							"type": "uint256"
						},
						{
							"indexed": false,
							"internalType": "string[]",
							"name": "options",
							"type": "string[]"
						}
					],
					"name": "CreateProposal",
					"type": "event"
				},
				{
					"anonymous": false,
					"inputs": [
						{
							"indexed": true,
							"internalType": "address",
							"name": "user",
							"type": "address"
						},
						{
							"indexed": false,
							"internalType": "uint256",
							"name": "amount",
							"type": "uint256"
						}
					],
					"name": "Deposited",
					"type": "event"
				},
				{
					"anonymous": false,
					"inputs": [
						{
							"indexed": true,
							"internalType": "address",
							"name": "user",
							"type": "address"
						},
						{
							"indexed": false,
							"internalType": "uint256",
							"name": "points",
							"type": "uint256"
						}
					],
					"name": "ExchangePoints",
					"type": "event"
				},
				{
					"anonymous": false,
					"inputs": [
						{
							"indexed": false,
							"internalType": "uint8",
							"name": "version",
							"type": "uint8"
						}
					],
					"name": "Initialized",
					"type": "event"
				},
				{
					"anonymous": false,
					"inputs": [
						{
							"indexed": true,
							"internalType": "uint256",
							"name": "proposalId",
							"type": "uint256"
						},
						{
							"indexed": false,
							"internalType": "uint256",
							"name": "winOptionId",
							"type": "uint256"
						}
					],
					"name": "ProposalRefunded",
					"type": "event"
				},
				{
					"anonymous": false,
					"inputs": [
						{
							"indexed": true,
							"internalType": "address",
							"name": "voter",
							"type": "address"
						},
						{
							"indexed": false,
							"internalType": "uint256",
							"name": "proposalId",
							"type": "uint256"
						},
						{
							"indexed": false,
							"internalType": "int256",
							"name": "amount",
							"type": "int256"
						}
					],
					"name": "ProposalSettlement",
					"type": "event"
				},
				{
					"anonymous": false,
					"inputs": [
						{
							"indexed": true,
							"internalType": "address",
							"name": "implementation",
							"type": "address"
						}
					],
					"name": "Upgraded",
					"type": "event"
				},
				{
					"anonymous": false,
					"inputs": [
						{
							"indexed": true,
							"internalType": "address",
							"name": "_address",
							"type": "address"
						},
						{
							"indexed": true,
							"internalType": "uint256",
							"name": "_proposalId",
							"type": "uint256"
						},
						{
							"indexed": true,
							"internalType": "uint256",
							"name": "_optionId",
							"type": "uint256"
						},
						{
							"indexed": false,
							"internalType": "uint256",
							"name": "_amount",
							"type": "uint256"
						}
					],
					"name": "Voted",
					"type": "event"
				},
				{
					"anonymous": false,
					"inputs": [
						{
							"indexed": true,
							"internalType": "address",
							"name": "user",
							"type": "address"
						},
						{
							"indexed": false,
							"internalType": "uint256",
							"name": "amount",
							"type": "uint256"
						},
						{
							"indexed": false,
							"internalType": "uint256",
							"name": "balance",
							"type": "uint256"
						}
					],
					"name": "Withdraw",
					"type": "event"
				},
				{
					"inputs": [
						{
							"internalType": "address",
							"name": "",
							"type": "address"
						}
					],
					"name": "balances",
					"outputs": [
						{
							"internalType": "uint256",
							"name": "",
							"type": "uint256"
						}
					],
					"stateMutability": "view",
					"type": "function"
				},
				{
					"inputs": [
						{
							"internalType": "string[]",
							"name": "optionDescs",
							"type": "string[]"
						}
					],
					"name": "createProposal",
					"outputs": [
						{
							"internalType": "uint256",
							"name": "",
							"type": "uint256"
						}
					],
					"stateMutability": "nonpayable",
					"type": "function"
				},
				{
					"inputs": [
						{
							"internalType": "uint256",
							"name": "amount",
							"type": "uint256"
						}
					],
					"name": "deposit",
					"outputs": [
						{
							"internalType": "uint256",
							"name": "",
							"type": "uint256"
						}
					],
					"stateMutability": "nonpayable",
					"type": "function"
				},
				{
					"inputs": [
						{
							"internalType": "uint256",
							"name": "points",
							"type": "uint256"
						}
					],
					"name": "exchangePoints",
					"outputs": [
						{
							"internalType": "uint256",
							"name": "",
							"type": "uint256"
						}
					],
					"stateMutability": "nonpayable",
					"type": "function"
				},
				{
					"inputs": [
						{
							"internalType": "address",
							"name": "user",
							"type": "address"
						}
					],
					"name": "getAvailableBalance",
					"outputs": [
						{
							"internalType": "uint256",
							"name": "",
							"type": "uint256"
						}
					],
					"stateMutability": "view",
					"type": "function"
				},
				{
					"inputs": [
						{
							"internalType": "address",
							"name": "tokenAddr",
							"type": "address"
						}
					],
					"name": "initialize",
					"outputs": [],
					"stateMutability": "nonpayable",
					"type": "function"
				},
				{
					"inputs": [],
					"name": "logicAddress",
					"outputs": [
						{
							"internalType": "address",
							"name": "",
							"type": "address"
						}
					],
					"stateMutability": "view",
					"type": "function"
				},
				{
					"inputs": [],
					"name": "mlnTokenAddr",
					"outputs": [
						{
							"internalType": "address",
							"name": "",
							"type": "address"
						}
					],
					"stateMutability": "view",
					"type": "function"
				},
				{
					"inputs": [],
					"name": "owner",
					"outputs": [
						{
							"internalType": "address",
							"name": "",
							"type": "address"
						}
					],
					"stateMutability": "view",
					"type": "function"
				},
				{
					"inputs": [
						{
							"internalType": "uint256",
							"name": "",
							"type": "uint256"
						}
					],
					"name": "proposalInfos",
					"outputs": [
						{
							"internalType": "address",
							"name": "founder",
							"type": "address"
						}
					],
					"stateMutability": "view",
					"type": "function"
				},
				{
					"inputs": [
						{
							"internalType": "uint256",
							"name": "proposalId",
							"type": "uint256"
						},
						{
							"internalType": "uint256",
							"name": "winOptionId",
							"type": "uint256"
						}
					],
					"name": "proposalSettlement",
					"outputs": [],
					"stateMutability": "nonpayable",
					"type": "function"
				},
				{
					"inputs": [
						{
							"internalType": "uint256",
							"name": "",
							"type": "uint256"
						},
						{
							"internalType": "uint256",
							"name": "",
							"type": "uint256"
						},
						{
							"internalType": "uint256",
							"name": "",
							"type": "uint256"
						}
					],
					"name": "proposalVotingSituation",
					"outputs": [
						{
							"internalType": "address",
							"name": "user",
							"type": "address"
						},
						{
							"internalType": "uint256",
							"name": "amount",
							"type": "uint256"
						}
					],
					"stateMutability": "view",
					"type": "function"
				},
				{
					"inputs": [
						{
							"internalType": "uint256",
							"name": "",
							"type": "uint256"
						}
					],
					"name": "proposalWinningOption",
					"outputs": [
						{
							"internalType": "uint256",
							"name": "",
							"type": "uint256"
						}
					],
					"stateMutability": "view",
					"type": "function"
				},
				{
					"inputs": [],
					"name": "proxiableUUID",
					"outputs": [
						{
							"internalType": "bytes32",
							"name": "",
							"type": "bytes32"
						}
					],
					"stateMutability": "view",
					"type": "function"
				},
				{
					"inputs": [
						{
							"internalType": "address",
							"name": "newImplementation",
							"type": "address"
						}
					],
					"name": "upgradeTo",
					"outputs": [],
					"stateMutability": "nonpayable",
					"type": "function"
				},
				{
					"inputs": [
						{
							"internalType": "address",
							"name": "newImplementation",
							"type": "address"
						},
						{
							"internalType": "bytes",
							"name": "data",
							"type": "bytes"
						}
					],
					"name": "upgradeToAndCall",
					"outputs": [],
					"stateMutability": "payable",
					"type": "function"
				},
				{
					"inputs": [
						{
							"internalType": "uint256",
							"name": "",
							"type": "uint256"
						},
						{
							"internalType": "address",
							"name": "",
							"type": "address"
						}
					],
					"name": "userProposalResults",
					"outputs": [
						{
							"internalType": "int256",
							"name": "",
							"type": "int256"
						}
					],
					"stateMutability": "view",
					"type": "function"
				},
				{
					"inputs": [
						{
							"internalType": "uint256",
							"name": "proposalId",
							"type": "uint256"
						},
						{
							"internalType": "uint256",
							"name": "optionId",
							"type": "uint256"
						},
						{
							"internalType": "uint256",
							"name": "amount",
							"type": "uint256"
						}
					],
					"name": "vote",
					"outputs": [],
					"stateMutability": "nonpayable",
					"type": "function"
				},
				{
					"inputs": [
						{
							"internalType": "address",
							"name": "",
							"type": "address"
						}
					],
					"name": "votingLock",
					"outputs": [
						{
							"internalType": "uint256",
							"name": "",
							"type": "uint256"
						}
					],
					"stateMutability": "view",
					"type": "function"
				},
				{
					"inputs": [
						{
							"internalType": "uint256",
							"name": "amount",
							"type": "uint256"
						}
					],
					"name": "withdraw",
					"outputs": [],
					"stateMutability": "nonpayable",
					"type": "function"
				}
			],
			"devdoc": {
				"events": {
					"AdminChanged(address,address)": {
						"details": "Emitted when the admin account has changed."
					},
					"BeaconUpgraded(address)": {
						"details": "Emitted when the beacon is changed."
					},
					"Initialized(uint8)": {
						"details": "Triggered when the contract has been initialized or reinitialized."
					},
					"Upgraded(address)": {
						"details": "Emitted when the implementation is upgraded."
					}
				},
				"kind": "dev",
				"methods": {
					"proxiableUUID()": {
						"details": "Implementation of the ERC1822 {proxiableUUID} function. This returns the storage slot used by the implementation. It is used to validate the implementation's compatibility when performing an upgrade. IMPORTANT: A proxy pointing at a proxiable contract should not be considered proxiable itself, because this risks bricking a proxy that upgrades to it, by delegating to itself until out of gas. Thus it is critical that this function revert if invoked through a proxy. This is guaranteed by the `notDelegated` modifier."
					},
					"upgradeTo(address)": {
						"custom:oz-upgrades-unsafe-allow-reachable": "delegatecall",
						"details": "Upgrade the implementation of the proxy to `newImplementation`. Calls {_authorizeUpgrade}. Emits an {Upgraded} event."
					},
					"upgradeToAndCall(address,bytes)": {
						"custom:oz-upgrades-unsafe-allow-reachable": "delegatecall",
						"details": "Upgrade the implementation of the proxy to `newImplementation`, and subsequently execute the function call encoded in `data`. Calls {_authorizeUpgrade}. Emits an {Upgraded} event."
					}
				},
				"version": 1
			},
			"evm": {
				"assembly": "    /* \"contracts/Proposal.sol\":245:8946  contract Proposal is Initializable, UUPSUpgradeable {... */\n  mstore(0x40, 0xa0)\n    /* \"@openzeppelin/contracts/proxy/utils/UUPSUpgradeable.sol\":1088:1092  this */\n  address\n    /* \"@openzeppelin/contracts/proxy/utils/UUPSUpgradeable.sol\":1045:1093  address private immutable __self = address(this) */\n  0xffffffffffffffffffffffffffffffffffffffff\n  and\n  0x80\n  swap1\n  0xffffffffffffffffffffffffffffffffffffffff\n  and\n  dup2\n  mstore\n  pop\n    /* \"contracts/Proposal.sol\":245:8946  contract Proposal is Initializable, UUPSUpgradeable {... */\n  callvalue\n  dup1\n  iszero\n  tag_1\n  jumpi\n  0x00\n  dup1\n  revert\ntag_1:\n  pop\n  mload(0x80)\n  codecopy(0x00, dataOffset(sub_0), dataSize(sub_0))\n  0x00\n  assignImmutable(\"0x26253e4b9754d7b70fa53c504adf7cef3bf444a45077af864d39a1233fe15035\")\n  return(0x00, dataSize(sub_0))\nstop\n\nsub_0: assembly {\n        /* \"contracts/Proposal.sol\":245:8946  contract Proposal is Initializable, UUPSUpgradeable {... */\n      mstore(0x40, 0x80)\n      jumpi(tag_1, lt(calldatasize, 0x04))\n      shr(0xe0, calldataload(0x00))\n      dup1\n      0x8624b42d\n      gt\n      tag_22\n      jumpi\n      dup1\n      0xb511328d\n      gt\n      tag_23\n      jumpi\n      dup1\n      0xb511328d\n      eq\n      tag_17\n      jumpi\n      dup1\n      0xb6b55f25\n      eq\n      tag_18\n      jumpi\n      dup1\n      0xc3a0aba8\n      eq\n      tag_19\n      jumpi\n      dup1\n      0xc4d66de8\n      eq\n      tag_20\n      jumpi\n      dup1\n      0xf647344b\n      eq\n      tag_21\n      jumpi\n      jump(tag_1)\n    tag_23:\n      dup1\n      0x8624b42d\n      eq\n      tag_12\n      jumpi\n      dup1\n      0x8a6655d6\n      eq\n      tag_13\n      jumpi\n      dup1\n      0x8da5cb5b\n      eq\n      tag_14\n      jumpi\n      dup1\n      0x9c1fcc4c\n      eq\n      tag_15\n      jumpi\n      dup1\n      0xb00673bc\n      eq\n      tag_16\n      jumpi\n      jump(tag_1)\n    tag_22:\n      dup1\n      0x45071c71\n      gt\n      tag_24\n      jumpi\n      dup1\n      0x45071c71\n      eq\n      tag_7\n      jumpi\n      dup1\n      0x4f1ef286\n      eq\n      tag_8\n      jumpi\n      dup1\n      0x52d1902d\n      eq\n      tag_9\n      jumpi\n      dup1\n      0x6c24a76f\n      eq\n      tag_10\n      jumpi\n      dup1\n      0x7c7b66f7\n      eq\n      tag_11\n      jumpi\n      jump(tag_1)\n    tag_24:\n      dup1\n      0x0c7353e0\n      eq\n      tag_2\n      jumpi\n      dup1\n      0x27e235e3\n      eq\n      tag_3\n      jumpi\n      dup1\n      0x2e1a7d4d\n      eq\n      tag_4\n      jumpi\n      dup1\n      0x2efdc9f5\n      eq\n      tag_5\n      jumpi\n      dup1\n      0x3659cfe6\n      eq\n      tag_6\n      jumpi\n    tag_1:\n      0x00\n      dup1\n      revert\n        /* \"contracts/Proposal.sol\":1885:1958  mapping(uint256 => mapping(address => int256)) public userProposalResults */\n    tag_2:\n      callvalue\n      dup1\n      iszero\n      tag_25\n      jumpi\n      0x00\n      dup1\n      revert\n    tag_25:\n      pop\n      tag_26\n      0x04\n      dup1\n      calldatasize\n      sub\n      dup2\n      add\n      swap1\n      tag_27\n      swap2\n      swap1\n      tag_28\n      jump\t// in\n    tag_27:\n      tag_29\n      jump\t// in\n    tag_26:\n      mload(0x40)\n      tag_30\n      swap2\n      swap1\n      tag_31\n      jump\t// in\n    tag_30:\n      mload(0x40)\n      dup1\n      swap2\n      sub\n      swap1\n      return\n        /* \"contracts/Proposal.sol\":1540:1583  mapping(address => uint256) public balances */\n    tag_3:\n      callvalue\n      dup1\n      iszero\n      tag_32\n      jumpi\n      0x00\n      dup1\n      revert\n    tag_32:\n      pop\n      tag_33\n      0x04\n      dup1\n      calldatasize\n      sub\n      dup2\n      add\n      swap1\n      tag_34\n      swap2\n      swap1\n      tag_35\n      jump\t// in\n    tag_34:\n      tag_36\n      jump\t// in\n    tag_33:\n      mload(0x40)\n      tag_37\n      swap2\n      swap1\n      tag_38\n      jump\t// in\n    tag_37:\n      mload(0x40)\n      dup1\n      swap2\n      sub\n      swap1\n      return\n        /* \"contracts/Proposal.sol\":3584:4051  function withdraw(uint256 amount) external {... */\n    tag_4:\n      callvalue\n      dup1\n      iszero\n      tag_39\n      jumpi\n      0x00\n      dup1\n      revert\n    tag_39:\n      pop\n      tag_40\n      0x04\n      dup1\n      calldatasize\n      sub\n      dup2\n      add\n      swap1\n      tag_41\n      swap2\n      swap1\n      tag_42\n      jump\t// in\n    tag_41:\n      tag_43\n      jump\t// in\n    tag_40:\n      stop\n        /* \"contracts/Proposal.sol\":1770:1826  mapping(uint256 => uint256) public proposalWinningOption */\n    tag_5:\n      callvalue\n      dup1\n      iszero\n      tag_44\n      jumpi\n      0x00\n      dup1\n      revert\n    tag_44:\n      pop\n      tag_45\n      0x04\n      dup1\n      calldatasize\n      sub\n      dup2\n      add\n      swap1\n      tag_46\n      swap2\n      swap1\n      tag_42\n      jump\t// in\n    tag_46:\n      tag_47\n      jump\t// in\n    tag_45:\n      mload(0x40)\n      tag_48\n      swap2\n      swap1\n      tag_38\n      jump\t// in\n    tag_48:\n      mload(0x40)\n      dup1\n      swap2\n      sub\n      swap1\n      return\n        /* \"@openzeppelin/contracts/proxy/utils/UUPSUpgradeable.sol\":3143:3338  function upgradeTo(address newImplementation) public virtual onlyProxy {... */\n    tag_6:\n      callvalue\n      dup1\n      iszero\n      tag_49\n      jumpi\n      0x00\n      dup1\n      revert\n    tag_49:\n      pop\n      tag_50\n      0x04\n      dup1\n      calldatasize\n      sub\n      dup2\n      add\n      swap1\n      tag_51\n      swap2\n      swap1\n      tag_35\n      jump\t// in\n    tag_51:\n      tag_52\n      jump\t// in\n    tag_50:\n      stop\n        /* \"contracts/Proposal.sol\":1674:1763  mapping(uint256 => mapping(uint256 => VoteInfo[]))... */\n    tag_7:\n      callvalue\n      dup1\n      iszero\n      tag_53\n      jumpi\n      0x00\n      dup1\n      revert\n    tag_53:\n      pop\n      tag_54\n      0x04\n      dup1\n      calldatasize\n      sub\n      dup2\n      add\n      swap1\n      tag_55\n      swap2\n      swap1\n      tag_56\n      jump\t// in\n    tag_55:\n      tag_57\n      jump\t// in\n    tag_54:\n      mload(0x40)\n      tag_58\n      swap3\n      swap2\n      swap1\n      tag_59\n      jump\t// in\n    tag_58:\n      mload(0x40)\n      dup1\n      swap2\n      sub\n      swap1\n      return\n        /* \"@openzeppelin/contracts/proxy/utils/UUPSUpgradeable.sol\":3657:3877  function upgradeToAndCall(address newImplementation, bytes memory data) public payable virtual onlyProxy {... */\n    tag_8:\n      tag_60\n      0x04\n      dup1\n      calldatasize\n      sub\n      dup2\n      add\n      swap1\n      tag_61\n      swap2\n      swap1\n      tag_62\n      jump\t// in\n    tag_61:\n      tag_63\n      jump\t// in\n    tag_60:\n      stop\n        /* \"@openzeppelin/contracts/proxy/utils/UUPSUpgradeable.sol\":2762:2893  function proxiableUUID() external view virtual override notDelegated returns (bytes32) {... */\n    tag_9:\n      callvalue\n      dup1\n      iszero\n      tag_64\n      jumpi\n      0x00\n      dup1\n      revert\n    tag_64:\n      pop\n      tag_65\n      tag_66\n      jump\t// in\n    tag_65:\n      mload(0x40)\n      tag_67\n      swap2\n      swap1\n      tag_68\n      jump\t// in\n    tag_67:\n      mload(0x40)\n      dup1\n      swap2\n      sub\n      swap1\n      return\n        /* \"contracts/Proposal.sol\":8051:8320  function getAvailableBalance(address user) public view returns (uint256) {... */\n    tag_10:\n      callvalue\n      dup1\n      iszero\n      tag_69\n      jumpi\n      0x00\n      dup1\n      revert\n    tag_69:\n      pop\n      tag_70\n      0x04\n      dup1\n      calldatasize\n      sub\n      dup2\n      add\n      swap1\n      tag_71\n      swap2\n      swap1\n      tag_35\n      jump\t// in\n    tag_71:\n      tag_72\n      jump\t// in\n    tag_70:\n      mload(0x40)\n      tag_73\n      swap2\n      swap1\n      tag_38\n      jump\t// in\n    tag_73:\n      mload(0x40)\n      dup1\n      swap2\n      sub\n      swap1\n      return\n        /* \"contracts/Proposal.sol\":3313:3578  function exchangePoints(uint256 points) external returns (uint256) {... */\n    tag_11:\n      callvalue\n      dup1\n      iszero\n      tag_74\n      jumpi\n      0x00\n      dup1\n      revert\n    tag_74:\n      pop\n      tag_75\n      0x04\n      dup1\n      calldatasize\n      sub\n      dup2\n      add\n      swap1\n      tag_76\n      swap2\n      swap1\n      tag_42\n      jump\t// in\n    tag_76:\n      tag_77\n      jump\t// in\n    tag_75:\n      mload(0x40)\n      tag_78\n      swap2\n      swap1\n      tag_38\n      jump\t// in\n    tag_78:\n      mload(0x40)\n      dup1\n      swap2\n      sub\n      swap1\n      return\n        /* \"contracts/Proposal.sol\":2740:3307  function createProposal(string[] memory optionDescs)... */\n    tag_12:\n      callvalue\n      dup1\n      iszero\n      tag_79\n      jumpi\n      0x00\n      dup1\n      revert\n    tag_79:\n      pop\n      tag_80\n      0x04\n      dup1\n      calldatasize\n      sub\n      dup2\n      add\n      swap1\n      tag_81\n      swap2\n      swap1\n      tag_82\n      jump\t// in\n    tag_81:\n      tag_83\n      jump\t// in\n    tag_80:\n      mload(0x40)\n      tag_84\n      swap2\n      swap1\n      tag_38\n      jump\t// in\n    tag_84:\n      mload(0x40)\n      dup1\n      swap2\n      sub\n      swap1\n      return\n        /* \"contracts/Proposal.sol\":4057:4631  function vote(... */\n    tag_13:\n      callvalue\n      dup1\n      iszero\n      tag_85\n      jumpi\n      0x00\n      dup1\n      revert\n    tag_85:\n      pop\n      tag_86\n      0x04\n      dup1\n      calldatasize\n      sub\n      dup2\n      add\n      swap1\n      tag_87\n      swap2\n      swap1\n      tag_56\n      jump\t// in\n    tag_87:\n      tag_88\n      jump\t// in\n    tag_86:\n      stop\n        /* \"contracts/Proposal.sol\":1368:1388  address public owner */\n    tag_14:\n      callvalue\n      dup1\n      iszero\n      tag_89\n      jumpi\n      0x00\n      dup1\n      revert\n    tag_89:\n      pop\n      tag_90\n      tag_91\n      jump\t// in\n    tag_90:\n      mload(0x40)\n      tag_92\n      swap2\n      swap1\n      tag_93\n      jump\t// in\n    tag_92:\n      mload(0x40)\n      dup1\n      swap2\n      sub\n      swap1\n      return\n        /* \"contracts/Proposal.sol\":1395:1422  address public logicAddress */\n    tag_15:\n      callvalue\n      dup1\n      iszero\n      tag_94\n      jumpi\n      0x00\n      dup1\n      revert\n    tag_94:\n      pop\n      tag_95\n      tag_96\n      jump\t// in\n    tag_95:\n      mload(0x40)\n      tag_97\n      swap2\n      swap1\n      tag_93\n      jump\t// in\n    tag_97:\n      mload(0x40)\n      dup1\n      swap2\n      sub\n      swap1\n      return\n        /* \"contracts/Proposal.sol\":1590:1635  mapping(address => uint256) public votingLock */\n    tag_16:\n      callvalue\n      dup1\n      iszero\n      tag_98\n      jumpi\n      0x00\n      dup1\n      revert\n    tag_98:\n      pop\n      tag_99\n      0x04\n      dup1\n      calldatasize\n      sub\n      dup2\n      add\n      swap1\n      tag_100\n      swap2\n      swap1\n      tag_35\n      jump\t// in\n    tag_100:\n      tag_101\n      jump\t// in\n    tag_99:\n      mload(0x40)\n      tag_102\n      swap2\n      swap1\n      tag_38\n      jump\t// in\n    tag_102:\n      mload(0x40)\n      dup1\n      swap2\n      sub\n      swap1\n      return\n        /* \"contracts/Proposal.sol\":1480:1515  ProposalInfo[] public proposalInfos */\n    tag_17:\n      callvalue\n      dup1\n      iszero\n      tag_103\n      jumpi\n      0x00\n      dup1\n      revert\n    tag_103:\n      pop\n      tag_104\n      0x04\n      dup1\n      calldatasize\n      sub\n      dup2\n      add\n      swap1\n      tag_105\n      swap2\n      swap1\n      tag_42\n      jump\t// in\n    tag_105:\n      tag_106\n      jump\t// in\n    tag_104:\n      mload(0x40)\n      tag_107\n      swap2\n      swap1\n      tag_93\n      jump\t// in\n    tag_107:\n      mload(0x40)\n      dup1\n      swap2\n      sub\n      swap1\n      return\n        /* \"contracts/Proposal.sol\":2344:2734  function deposit(uint256 amount) external returns (uint256) {... */\n    tag_18:\n      callvalue\n      dup1\n      iszero\n      tag_108\n      jumpi\n      0x00\n      dup1\n      revert\n    tag_108:\n      pop\n      tag_109\n      0x04\n      dup1\n      calldatasize\n      sub\n      dup2\n      add\n      swap1\n      tag_110\n      swap2\n      swap1\n      tag_42\n      jump\t// in\n    tag_110:\n      tag_111\n      jump\t// in\n    tag_109:\n      mload(0x40)\n      tag_112\n      swap2\n      swap1\n      tag_38\n      jump\t// in\n    tag_112:\n      mload(0x40)\n      dup1\n      swap2\n      sub\n      swap1\n      return\n        /* \"contracts/Proposal.sol\":1429:1456  address public mlnTokenAddr */\n    tag_19:\n      callvalue\n      dup1\n      iszero\n      tag_113\n      jumpi\n      0x00\n      dup1\n      revert\n    tag_113:\n      pop\n      tag_114\n      tag_115\n      jump\t// in\n    tag_114:\n      mload(0x40)\n      tag_116\n      swap2\n      swap1\n      tag_93\n      jump\t// in\n    tag_116:\n      mload(0x40)\n      dup1\n      swap2\n      sub\n      swap1\n      return\n        /* \"contracts/Proposal.sol\":2209:2338  function initialize(address tokenAddr) external initializer {... */\n    tag_20:\n      callvalue\n      dup1\n      iszero\n      tag_117\n      jumpi\n      0x00\n      dup1\n      revert\n    tag_117:\n      pop\n      tag_118\n      0x04\n      dup1\n      calldatasize\n      sub\n      dup2\n      add\n      swap1\n      tag_119\n      swap2\n      swap1\n      tag_35\n      jump\t// in\n    tag_119:\n      tag_120\n      jump\t// in\n    tag_118:\n      stop\n        /* \"contracts/Proposal.sol\":4637:5103  function proposalSettlement(uint256 proposalId, uint256 winOptionId)... */\n    tag_21:\n      callvalue\n      dup1\n      iszero\n      tag_121\n      jumpi\n      0x00\n      dup1\n      revert\n    tag_121:\n      pop\n      tag_122\n      0x04\n      dup1\n      calldatasize\n      sub\n      dup2\n      add\n      swap1\n      tag_123\n      swap2\n      swap1\n      tag_124\n      jump\t// in\n    tag_123:\n      tag_125\n      jump\t// in\n    tag_122:\n      stop\n        /* \"contracts/Proposal.sol\":1885:1958  mapping(uint256 => mapping(address => int256)) public userProposalResults */\n    tag_29:\n      mstore(0x20, 0x08)\n      dup2\n      0x00\n      mstore\n      mstore(0x20, keccak256(0x00, 0x40))\n      dup1\n      0x00\n      mstore\n      keccak256(0x00, 0x40)\n      0x00\n      swap2\n      pop\n      swap2\n      pop\n      pop\n      sload\n      dup2\n      jump\t// out\n        /* \"contracts/Proposal.sol\":1540:1583  mapping(address => uint256) public balances */\n    tag_36:\n      mstore(0x20, 0x04)\n      dup1\n      0x00\n      mstore\n      keccak256(0x00, 0x40)\n      0x00\n      swap2\n      pop\n      swap1\n      pop\n      sload\n      dup2\n      jump\t// out\n        /* \"contracts/Proposal.sol\":3584:4051  function withdraw(uint256 amount) external {... */\n    tag_43:\n        /* \"contracts/Proposal.sol\":3637:3661  uint256 availableBalance */\n      0x00\n        /* \"contracts/Proposal.sol\":3664:3695  getAvailableBalance(msg.sender) */\n      tag_127\n        /* \"contracts/Proposal.sol\":3684:3694  msg.sender */\n      caller\n        /* \"contracts/Proposal.sol\":3664:3683  getAvailableBalance */\n      tag_72\n        /* \"contracts/Proposal.sol\":3664:3695  getAvailableBalance(msg.sender) */\n      jump\t// in\n    tag_127:\n        /* \"contracts/Proposal.sol\":3637:3695  uint256 availableBalance = getAvailableBalance(msg.sender) */\n      swap1\n      pop\n        /* \"contracts/Proposal.sol\":3730:3736  amount */\n      dup2\n        /* \"contracts/Proposal.sol\":3710:3726  availableBalance */\n      dup2\n        /* \"contracts/Proposal.sol\":3710:3736  availableBalance >= amount */\n      lt\n        /* \"contracts/Proposal.sol\":3706:3819  if (availableBalance >= amount) {... */\n      tag_128\n      jumpi\n        /* \"contracts/Proposal.sol\":3779:3789  msg.sender */\n      caller\n        /* \"contracts/Proposal.sol\":3791:3807  availableBalance */\n      dup2\n        /* \"contracts/Proposal.sol\":3759:3808  InsufficientBalance(msg.sender, availableBalance) */\n      mload(0x40)\n      0xf6deaa0400000000000000000000000000000000000000000000000000000000\n      dup2\n      mstore\n      0x04\n      add\n      tag_129\n      swap3\n      swap2\n      swap1\n      tag_59\n      jump\t// in\n    tag_129:\n      mload(0x40)\n      dup1\n      swap2\n      sub\n      swap1\n      revert\n        /* \"contracts/Proposal.sol\":3706:3819  if (availableBalance >= amount) {... */\n    tag_128:\n        /* \"contracts/Proposal.sol\":3856:3868  mlnTokenAddr */\n      0x02\n      0x00\n      swap1\n      sload\n      swap1\n      0x0100\n      exp\n      swap1\n      div\n      0xffffffffffffffffffffffffffffffffffffffff\n      and\n        /* \"contracts/Proposal.sol\":3849:3878  IERC20(mlnTokenAddr).transfer */\n      0xffffffffffffffffffffffffffffffffffffffff\n      and\n      0xa9059cbb\n        /* \"contracts/Proposal.sol\":3879:3889  msg.sender */\n      caller\n        /* \"contracts/Proposal.sol\":3891:3897  amount */\n      dup5\n        /* \"contracts/Proposal.sol\":3849:3898  IERC20(mlnTokenAddr).transfer(msg.sender, amount) */\n      mload(0x40)\n      dup4\n      0xffffffff\n      and\n      0xe0\n      shl\n      dup2\n      mstore\n      0x04\n      add\n      tag_130\n      swap3\n      swap2\n      swap1\n      tag_59\n      jump\t// in\n    tag_130:\n      0x20\n      mload(0x40)\n      dup1\n      dup4\n      sub\n      dup2\n      0x00\n      dup8\n      gas\n      call\n      iszero\n      dup1\n      iszero\n      tag_132\n      jumpi\n      returndatasize\n      0x00\n      dup1\n      returndatacopy\n      revert(0x00, returndatasize)\n    tag_132:\n      pop\n      pop\n      pop\n      pop\n      mload(0x40)\n      returndatasize\n      not(0x1f)\n      0x1f\n      dup3\n      add\n      and\n      dup3\n      add\n      dup1\n      0x40\n      mstore\n      pop\n      dup2\n      add\n      swap1\n      tag_133\n      swap2\n      swap1\n      tag_134\n      jump\t// in\n    tag_133:\n        /* \"contracts/Proposal.sol\":3828:3939  require(... */\n      tag_135\n      jumpi\n      mload(0x40)\n      0x08c379a000000000000000000000000000000000000000000000000000000000\n      dup2\n      mstore\n      0x04\n      add\n      tag_136\n      swap1\n      tag_137\n      jump\t// in\n    tag_136:\n      mload(0x40)\n      dup1\n      swap2\n      sub\n      swap1\n      revert\n    tag_135:\n        /* \"contracts/Proposal.sol\":3973:3979  amount */\n      dup2\n        /* \"contracts/Proposal.sol\":3949:3957  balances */\n      0x04\n        /* \"contracts/Proposal.sol\":3949:3969  balances[msg.sender] */\n      0x00\n        /* \"contracts/Proposal.sol\":3958:3968  msg.sender */\n      caller\n        /* \"contracts/Proposal.sol\":3949:3969  balances[msg.sender] */\n      0xffffffffffffffffffffffffffffffffffffffff\n      and\n      0xffffffffffffffffffffffffffffffffffffffff\n      and\n      dup2\n      mstore\n      0x20\n      add\n      swap1\n      dup2\n      mstore\n      0x20\n      add\n      0x00\n      keccak256\n      0x00\n        /* \"contracts/Proposal.sol\":3949:3979  balances[msg.sender] -= amount */\n      dup3\n      dup3\n      sload\n      tag_138\n      swap2\n      swap1\n      tag_139\n      jump\t// in\n    tag_138:\n      swap3\n      pop\n      pop\n      dup2\n      swap1\n      sstore\n      pop\n        /* \"contracts/Proposal.sol\":4003:4013  msg.sender */\n      caller\n        /* \"contracts/Proposal.sol\":3994:4044  Withdraw(msg.sender, amount, balances[msg.sender]) */\n      0xffffffffffffffffffffffffffffffffffffffff\n      and\n      0xf279e6a1f5e320cca91135676d9cb6e44ca8a08c0b88342bcdb1144f6511b568\n        /* \"contracts/Proposal.sol\":4015:4021  amount */\n      dup4\n        /* \"contracts/Proposal.sol\":4023:4031  balances */\n      0x04\n        /* \"contracts/Proposal.sol\":4023:4043  balances[msg.sender] */\n      0x00\n        /* \"contracts/Proposal.sol\":4032:4042  msg.sender */\n      caller\n        /* \"contracts/Proposal.sol\":4023:4043  balances[msg.sender] */\n      0xffffffffffffffffffffffffffffffffffffffff\n      and\n      0xffffffffffffffffffffffffffffffffffffffff\n      and\n      dup2\n      mstore\n      0x20\n      add\n      swap1\n      dup2\n      mstore\n      0x20\n      add\n      0x00\n      keccak256\n      sload\n        /* \"contracts/Proposal.sol\":3994:4044  Withdraw(msg.sender, amount, balances[msg.sender]) */\n      mload(0x40)\n      tag_140\n      swap3\n      swap2\n      swap1\n      tag_141\n      jump\t// in\n    tag_140:\n      mload(0x40)\n      dup1\n      swap2\n      sub\n      swap1\n      log2\n        /* \"contracts/Proposal.sol\":3627:4051  {... */\n      pop\n        /* \"contracts/Proposal.sol\":3584:4051  function withdraw(uint256 amount) external {... */\n      pop\n      jump\t// out\n        /* \"contracts/Proposal.sol\":1770:1826  mapping(uint256 => uint256) public proposalWinningOption */\n    tag_47:\n      mstore(0x20, 0x07)\n      dup1\n      0x00\n      mstore\n      keccak256(0x00, 0x40)\n      0x00\n      swap2\n      pop\n      swap1\n      pop\n      sload\n      dup2\n      jump\t// out\n        /* \"@openzeppelin/contracts/proxy/utils/UUPSUpgradeable.sol\":3143:3338  function upgradeTo(address newImplementation) public virtual onlyProxy {... */\n    tag_52:\n        /* \"@openzeppelin/contracts/proxy/utils/UUPSUpgradeable.sol\":1654:1660  __self */\n      immutable(\"0x26253e4b9754d7b70fa53c504adf7cef3bf444a45077af864d39a1233fe15035\")\n        /* \"@openzeppelin/contracts/proxy/utils/UUPSUpgradeable.sol\":1637:1660  address(this) != __self */\n      0xffffffffffffffffffffffffffffffffffffffff\n      and\n        /* \"@openzeppelin/contracts/proxy/utils/UUPSUpgradeable.sol\":1645:1649  this */\n      address\n        /* \"@openzeppelin/contracts/proxy/utils/UUPSUpgradeable.sol\":1637:1660  address(this) != __self */\n      0xffffffffffffffffffffffffffffffffffffffff\n      and\n      sub\n        /* \"@openzeppelin/contracts/proxy/utils/UUPSUpgradeable.sol\":1629:1709  require(address(this) != __self, \"Function must be called through delegatecall\") */\n      tag_143\n      jumpi\n      mload(0x40)\n      0x08c379a000000000000000000000000000000000000000000000000000000000\n      dup2\n      mstore\n      0x04\n      add\n      tag_144\n      swap1\n      tag_145\n      jump\t// in\n    tag_144:\n      mload(0x40)\n      dup1\n      swap2\n      sub\n      swap1\n      revert\n    tag_143:\n        /* \"@openzeppelin/contracts/proxy/utils/UUPSUpgradeable.sol\":1751:1757  __self */\n      immutable(\"0x26253e4b9754d7b70fa53c504adf7cef3bf444a45077af864d39a1233fe15035\")\n        /* \"@openzeppelin/contracts/proxy/utils/UUPSUpgradeable.sol\":1727:1757  _getImplementation() == __self */\n      0xffffffffffffffffffffffffffffffffffffffff\n      and\n        /* \"@openzeppelin/contracts/proxy/utils/UUPSUpgradeable.sol\":1727:1747  _getImplementation() */\n      tag_146\n        /* \"@openzeppelin/contracts/proxy/utils/UUPSUpgradeable.sol\":1727:1745  _getImplementation */\n      tag_147\n        /* \"@openzeppelin/contracts/proxy/utils/UUPSUpgradeable.sol\":1727:1747  _getImplementation() */\n      jump\t// in\n    tag_146:\n        /* \"@openzeppelin/contracts/proxy/utils/UUPSUpgradeable.sol\":1727:1757  _getImplementation() == __self */\n      0xffffffffffffffffffffffffffffffffffffffff\n      and\n      eq\n        /* \"@openzeppelin/contracts/proxy/utils/UUPSUpgradeable.sol\":1719:1806  require(_getImplementation() == __self, \"Function must be called through active proxy\") */\n      tag_148\n      jumpi\n      mload(0x40)\n      0x08c379a000000000000000000000000000000000000000000000000000000000\n      dup2\n      mstore\n      0x04\n      add\n      tag_149\n      swap1\n      tag_150\n      jump\t// in\n    tag_149:\n      mload(0x40)\n      dup1\n      swap2\n      sub\n      swap1\n      revert\n    tag_148:\n        /* \"@openzeppelin/contracts/proxy/utils/UUPSUpgradeable.sol\":3224:3260  _authorizeUpgrade(newImplementation) */\n      tag_152\n        /* \"@openzeppelin/contracts/proxy/utils/UUPSUpgradeable.sol\":3242:3259  newImplementation */\n      dup2\n        /* \"@openzeppelin/contracts/proxy/utils/UUPSUpgradeable.sol\":3224:3241  _authorizeUpgrade */\n      tag_153\n        /* \"@openzeppelin/contracts/proxy/utils/UUPSUpgradeable.sol\":3224:3260  _authorizeUpgrade(newImplementation) */\n      jump\t// in\n    tag_152:\n        /* \"@openzeppelin/contracts/proxy/utils/UUPSUpgradeable.sol\":3270:3331  _upgradeToAndCallUUPS(newImplementation, new bytes(0), false) */\n      tag_154\n        /* \"@openzeppelin/contracts/proxy/utils/UUPSUpgradeable.sol\":3292:3309  newImplementation */\n      dup2\n        /* \"@openzeppelin/contracts/proxy/utils/UUPSUpgradeable.sol\":3321:3322  0 */\n      0x00\n        /* \"@openzeppelin/contracts/proxy/utils/UUPSUpgradeable.sol\":3311:3323  new bytes(0) */\n      0xffffffffffffffff\n      dup2\n      gt\n      iszero\n      tag_155\n      jumpi\n      tag_156\n      tag_157\n      jump\t// in\n    tag_156:\n    tag_155:\n      mload(0x40)\n      swap1\n      dup1\n      dup3\n      mstore\n      dup1\n      0x1f\n      add\n      not(0x1f)\n      and\n      0x20\n      add\n      dup3\n      add\n      0x40\n      mstore\n      dup1\n      iszero\n      tag_158\n      jumpi\n      dup2\n      0x20\n      add\n      0x01\n      dup3\n      mul\n      dup1\n      calldatasize\n      dup4\n      calldatacopy\n      dup1\n      dup3\n      add\n      swap2\n      pop\n      pop\n      swap1\n      pop\n    tag_158:\n      pop\n        /* \"@openzeppelin/contracts/proxy/utils/UUPSUpgradeable.sol\":3325:3330  false */\n      0x00\n        /* \"@openzeppelin/contracts/proxy/utils/UUPSUpgradeable.sol\":3270:3291  _upgradeToAndCallUUPS */\n      tag_159\n        /* \"@openzeppelin/contracts/proxy/utils/UUPSUpgradeable.sol\":3270:3331  _upgradeToAndCallUUPS(newImplementation, new bytes(0), false) */\n      jump\t// in\n    tag_154:\n        /* \"@openzeppelin/contracts/proxy/utils/UUPSUpgradeable.sol\":3143:3338  function upgradeTo(address newImplementation) public virtual onlyProxy {... */\n      pop\n      jump\t// out\n        /* \"contracts/Proposal.sol\":1674:1763  mapping(uint256 => mapping(uint256 => VoteInfo[]))... */\n    tag_57:\n      mstore(0x20, 0x06)\n      dup3\n      0x00\n      mstore\n      mstore(0x20, keccak256(0x00, 0x40))\n      dup2\n      0x00\n      mstore\n      keccak256(0x00, 0x40)\n      dup2\n      dup2\n      sload\n      dup2\n      lt\n      tag_160\n      jumpi\n      0x00\n      dup1\n      revert\n    tag_160:\n      swap1\n      0x00\n      mstore\n      keccak256(0x00, 0x20)\n      swap1\n      0x02\n      mul\n      add\n      0x00\n      swap3\n      pop\n      swap3\n      pop\n      pop\n      pop\n      dup1\n      0x00\n      add\n      0x00\n      swap1\n      sload\n      swap1\n      0x0100\n      exp\n      swap1\n      div\n      0xffffffffffffffffffffffffffffffffffffffff\n      and\n      swap1\n      dup1\n      0x01\n      add\n      sload\n      swap1\n      pop\n      dup3\n      jump\t// out\n        /* \"@openzeppelin/contracts/proxy/utils/UUPSUpgradeable.sol\":3657:3877  function upgradeToAndCall(address newImplementation, bytes memory data) public payable virtual onlyProxy {... */\n    tag_63:\n        /* \"@openzeppelin/contracts/proxy/utils/UUPSUpgradeable.sol\":1654:1660  __self */\n      immutable(\"0x26253e4b9754d7b70fa53c504adf7cef3bf444a45077af864d39a1233fe15035\")\n        /* \"@openzeppelin/contracts/proxy/utils/UUPSUpgradeable.sol\":1637:1660  address(this) != __self */\n      0xffffffffffffffffffffffffffffffffffffffff\n      and\n        /* \"@openzeppelin/contracts/proxy/utils/UUPSUpgradeable.sol\":1645:1649  this */\n      address\n        /* \"@openzeppelin/contracts/proxy/utils/UUPSUpgradeable.sol\":1637:1660  address(this) != __self */\n      0xffffffffffffffffffffffffffffffffffffffff\n      and\n      sub\n        /* \"@openzeppelin/contracts/proxy/utils/UUPSUpgradeable.sol\":1629:1709  require(address(this) != __self, \"Function must be called through delegatecall\") */\n      tag_163\n      jumpi\n      mload(0x40)\n      0x08c379a000000000000000000000000000000000000000000000000000000000\n      dup2\n      mstore\n      0x04\n      add\n      tag_164\n      swap1\n      tag_145\n      jump\t// in\n    tag_164:\n      mload(0x40)\n      dup1\n      swap2\n      sub\n      swap1\n      revert\n    tag_163:\n        /* \"@openzeppelin/contracts/proxy/utils/UUPSUpgradeable.sol\":1751:1757  __self */\n      immutable(\"0x26253e4b9754d7b70fa53c504adf7cef3bf444a45077af864d39a1233fe15035\")\n        /* \"@openzeppelin/contracts/proxy/utils/UUPSUpgradeable.sol\":1727:1757  _getImplementation() == __self */\n      0xffffffffffffffffffffffffffffffffffffffff\n      and\n        /* \"@openzeppelin/contracts/proxy/utils/UUPSUpgradeable.sol\":1727:1747  _getImplementation() */\n      tag_165\n        /* \"@openzeppelin/contracts/proxy/utils/UUPSUpgradeable.sol\":1727:1745  _getImplementation */\n      tag_147\n        /* \"@openzeppelin/contracts/proxy/utils/UUPSUpgradeable.sol\":1727:1747  _getImplementation() */\n      jump\t// in\n    tag_165:\n        /* \"@openzeppelin/contracts/proxy/utils/UUPSUpgradeable.sol\":1727:1757  _getImplementation() == __self */\n      0xffffffffffffffffffffffffffffffffffffffff\n      and\n      eq\n        /* \"@openzeppelin/contracts/proxy/utils/UUPSUpgradeable.sol\":1719:1806  require(_getImplementation() == __self, \"Function must be called through active proxy\") */\n      tag_166\n      jumpi\n      mload(0x40)\n      0x08c379a000000000000000000000000000000000000000000000000000000000\n      dup2\n      mstore\n      0x04\n      add\n      tag_167\n      swap1\n      tag_150\n      jump\t// in\n    tag_167:\n      mload(0x40)\n      dup1\n      swap2\n      sub\n      swap1\n      revert\n    tag_166:\n        /* \"@openzeppelin/contracts/proxy/utils/UUPSUpgradeable.sol\":3772:3808  _authorizeUpgrade(newImplementation) */\n      tag_169\n        /* \"@openzeppelin/contracts/proxy/utils/UUPSUpgradeable.sol\":3790:3807  newImplementation */\n      dup3\n        /* \"@openzeppelin/contracts/proxy/utils/UUPSUpgradeable.sol\":3772:3789  _authorizeUpgrade */\n      tag_153\n        /* \"@openzeppelin/contracts/proxy/utils/UUPSUpgradeable.sol\":3772:3808  _authorizeUpgrade(newImplementation) */\n      jump\t// in\n    tag_169:\n        /* \"@openzeppelin/contracts/proxy/utils/UUPSUpgradeable.sol\":3818:3870  _upgradeToAndCallUUPS(newImplementation, data, true) */\n      tag_170\n        /* \"@openzeppelin/contracts/proxy/utils/UUPSUpgradeable.sol\":3840:3857  newImplementation */\n      dup3\n        /* \"@openzeppelin/contracts/proxy/utils/UUPSUpgradeable.sol\":3859:3863  data */\n      dup3\n        /* \"@openzeppelin/contracts/proxy/utils/UUPSUpgradeable.sol\":3865:3869  true */\n      0x01\n        /* \"@openzeppelin/contracts/proxy/utils/UUPSUpgradeable.sol\":3818:3839  _upgradeToAndCallUUPS */\n      tag_159\n        /* \"@openzeppelin/contracts/proxy/utils/UUPSUpgradeable.sol\":3818:3870  _upgradeToAndCallUUPS(newImplementation, data, true) */\n      jump\t// in\n    tag_170:\n        /* \"@openzeppelin/contracts/proxy/utils/UUPSUpgradeable.sol\":3657:3877  function upgradeToAndCall(address newImplementation, bytes memory data) public payable virtual onlyProxy {... */\n      pop\n      pop\n      jump\t// out\n        /* \"@openzeppelin/contracts/proxy/utils/UUPSUpgradeable.sol\":2762:2893  function proxiableUUID() external view virtual override notDelegated returns (bytes32) {... */\n    tag_66:\n        /* \"@openzeppelin/contracts/proxy/utils/UUPSUpgradeable.sol\":2840:2847  bytes32 */\n      0x00\n        /* \"@openzeppelin/contracts/proxy/utils/UUPSUpgradeable.sol\":2089:2095  __self */\n      immutable(\"0x26253e4b9754d7b70fa53c504adf7cef3bf444a45077af864d39a1233fe15035\")\n        /* \"@openzeppelin/contracts/proxy/utils/UUPSUpgradeable.sol\":2072:2095  address(this) == __self */\n      0xffffffffffffffffffffffffffffffffffffffff\n      and\n        /* \"@openzeppelin/contracts/proxy/utils/UUPSUpgradeable.sol\":2080:2084  this */\n      address\n        /* \"@openzeppelin/contracts/proxy/utils/UUPSUpgradeable.sol\":2072:2095  address(this) == __self */\n      0xffffffffffffffffffffffffffffffffffffffff\n      and\n      eq\n        /* \"@openzeppelin/contracts/proxy/utils/UUPSUpgradeable.sol\":2064:2156  require(address(this) == __self, \"UUPSUpgradeable: must not be called through delegatecall\") */\n      tag_172\n      jumpi\n      mload(0x40)\n      0x08c379a000000000000000000000000000000000000000000000000000000000\n      dup2\n      mstore\n      0x04\n      add\n      tag_173\n      swap1\n      tag_174\n      jump\t// in\n    tag_173:\n      mload(0x40)\n      dup1\n      swap2\n      sub\n      swap1\n      revert\n    tag_172:\n        /* \"@openzeppelin/contracts/proxy/ERC1967/ERC1967Upgrade.sol\":1030:1096  0x360894a13ba1a3210667c828492db98dca3e2076cc3735a920a3ca505d382bbc */\n      0x360894a13ba1a3210667c828492db98dca3e2076cc3735a920a3ca505d382bbc\n        /* \"@openzeppelin/contracts/proxy/utils/UUPSUpgradeable.sol\":2866:2886  _IMPLEMENTATION_SLOT */\n      0x00\n      shl\n        /* \"@openzeppelin/contracts/proxy/utils/UUPSUpgradeable.sol\":2859:2886  return _IMPLEMENTATION_SLOT */\n      swap1\n      pop\n        /* \"@openzeppelin/contracts/proxy/utils/UUPSUpgradeable.sol\":2762:2893  function proxiableUUID() external view virtual override notDelegated returns (bytes32) {... */\n      swap1\n      jump\t// out\n        /* \"contracts/Proposal.sol\":8051:8320  function getAvailableBalance(address user) public view returns (uint256) {... */\n    tag_72:\n        /* \"contracts/Proposal.sol\":8115:8122  uint256 */\n      0x00\n        /* \"contracts/Proposal.sol\":8134:8154  uint256 totalBalance */\n      dup1\n        /* \"contracts/Proposal.sol\":8157:8165  balances */\n      0x04\n        /* \"contracts/Proposal.sol\":8157:8171  balances[user] */\n      0x00\n        /* \"contracts/Proposal.sol\":8166:8170  user */\n      dup5\n        /* \"contracts/Proposal.sol\":8157:8171  balances[user] */\n      0xffffffffffffffffffffffffffffffffffffffff\n      and\n      0xffffffffffffffffffffffffffffffffffffffff\n      and\n      dup2\n      mstore\n      0x20\n      add\n      swap1\n      dup2\n      mstore\n      0x20\n      add\n      0x00\n      keccak256\n      sload\n        /* \"contracts/Proposal.sol\":8134:8171  uint256 totalBalance = balances[user] */\n      swap1\n      pop\n        /* \"contracts/Proposal.sol\":8181:8204  uint256 lockedForVoting */\n      0x00\n        /* \"contracts/Proposal.sol\":8207:8217  votingLock */\n      0x05\n        /* \"contracts/Proposal.sol\":8207:8223  votingLock[user] */\n      0x00\n        /* \"contracts/Proposal.sol\":8218:8222  user */\n      dup6\n        /* \"contracts/Proposal.sol\":8207:8223  votingLock[user] */\n      0xffffffffffffffffffffffffffffffffffffffff\n      and\n      0xffffffffffffffffffffffffffffffffffffffff\n      and\n      dup2\n      mstore\n      0x20\n      add\n      swap1\n      dup2\n      mstore\n      0x20\n      add\n      0x00\n      keccak256\n      sload\n        /* \"contracts/Proposal.sol\":8181:8223  uint256 lockedForVoting = votingLock[user] */\n      swap1\n      pop\n        /* \"contracts/Proposal.sol\":8233:8252  uint256 totalLocked */\n      0x00\n        /* \"contracts/Proposal.sol\":8255:8270  lockedForVoting */\n      dup2\n        /* \"contracts/Proposal.sol\":8233:8270  uint256 totalLocked = lockedForVoting */\n      swap1\n      pop\n        /* \"contracts/Proposal.sol\":8302:8313  totalLocked */\n      dup1\n        /* \"contracts/Proposal.sol\":8287:8299  totalBalance */\n      dup4\n        /* \"contracts/Proposal.sol\":8287:8313  totalBalance - totalLocked */\n      tag_177\n      swap2\n      swap1\n      tag_139\n      jump\t// in\n    tag_177:\n        /* \"contracts/Proposal.sol\":8280:8313  return totalBalance - totalLocked */\n      swap4\n      pop\n      pop\n      pop\n      pop\n        /* \"contracts/Proposal.sol\":8051:8320  function getAvailableBalance(address user) public view returns (uint256) {... */\n      swap2\n      swap1\n      pop\n      jump\t// out\n        /* \"contracts/Proposal.sol\":3313:3578  function exchangePoints(uint256 points) external returns (uint256) {... */\n    tag_77:\n        /* \"contracts/Proposal.sol\":3371:3378  uint256 */\n      0x00\n        /* \"contracts/Proposal.sol\":3407:3408  0 */\n      dup1\n        /* \"contracts/Proposal.sol\":3398:3404  points */\n      dup3\n        /* \"contracts/Proposal.sol\":3398:3408  points > 0 */\n      gt\n        /* \"contracts/Proposal.sol\":3390:3445  require(points > 0, \"Points must be greater than zero\") */\n      tag_179\n      jumpi\n      mload(0x40)\n      0x08c379a000000000000000000000000000000000000000000000000000000000\n      dup2\n      mstore\n      0x04\n      add\n      tag_180\n      swap1\n      tag_181\n      jump\t// in\n    tag_180:\n      mload(0x40)\n      dup1\n      swap2\n      sub\n      swap1\n      revert\n    tag_179:\n        /* \"contracts/Proposal.sol\":3479:3485  points */\n      dup2\n        /* \"contracts/Proposal.sol\":3455:3463  balances */\n      0x04\n        /* \"contracts/Proposal.sol\":3455:3475  balances[msg.sender] */\n      0x00\n        /* \"contracts/Proposal.sol\":3464:3474  msg.sender */\n      caller\n        /* \"contracts/Proposal.sol\":3455:3475  balances[msg.sender] */\n      0xffffffffffffffffffffffffffffffffffffffff\n      and\n      0xffffffffffffffffffffffffffffffffffffffff\n      and\n      dup2\n      mstore\n      0x20\n      add\n      swap1\n      dup2\n      mstore\n      0x20\n      add\n      0x00\n      keccak256\n      0x00\n        /* \"contracts/Proposal.sol\":3455:3485  balances[msg.sender] += points */\n      dup3\n      dup3\n      sload\n      tag_182\n      swap2\n      swap1\n      tag_183\n      jump\t// in\n    tag_182:\n      swap3\n      pop\n      pop\n      dup2\n      swap1\n      sstore\n      pop\n        /* \"contracts/Proposal.sol\":3515:3525  msg.sender */\n      caller\n        /* \"contracts/Proposal.sol\":3500:3534  ExchangePoints(msg.sender, points) */\n      0xffffffffffffffffffffffffffffffffffffffff\n      and\n      0xa0c8eda28ab82fe28c2bcaa48a1ce2b5eac8dbed005a6e8eb62398577e908d5c\n        /* \"contracts/Proposal.sol\":3527:3533  points */\n      dup4\n        /* \"contracts/Proposal.sol\":3500:3534  ExchangePoints(msg.sender, points) */\n      mload(0x40)\n      tag_184\n      swap2\n      swap1\n      tag_38\n      jump\t// in\n    tag_184:\n      mload(0x40)\n      dup1\n      swap2\n      sub\n      swap1\n      log2\n        /* \"contracts/Proposal.sol\":3551:3559  balances */\n      0x04\n        /* \"contracts/Proposal.sol\":3551:3571  balances[msg.sender] */\n      0x00\n        /* \"contracts/Proposal.sol\":3560:3570  msg.sender */\n      caller\n        /* \"contracts/Proposal.sol\":3551:3571  balances[msg.sender] */\n      0xffffffffffffffffffffffffffffffffffffffff\n      and\n      0xffffffffffffffffffffffffffffffffffffffff\n      and\n      dup2\n      mstore\n      0x20\n      add\n      swap1\n      dup2\n      mstore\n      0x20\n      add\n      0x00\n      keccak256\n      sload\n        /* \"contracts/Proposal.sol\":3544:3571  return balances[msg.sender] */\n      swap1\n      pop\n        /* \"contracts/Proposal.sol\":3313:3578  function exchangePoints(uint256 points) external returns (uint256) {... */\n      swap2\n      swap1\n      pop\n      jump\t// out\n        /* \"contracts/Proposal.sol\":2740:3307  function createProposal(string[] memory optionDescs)... */\n    tag_83:\n        /* \"contracts/Proposal.sol\":2827:2834  uint256 */\n      0x00\n        /* \"contracts/Proposal.sol\":2911:2924  proposalInfos */\n      0x03\n        /* \"contracts/Proposal.sol\":2911:2931  proposalInfos.push() */\n      0x01\n      dup2\n      0x01\n      dup2\n      sload\n      add\n      dup1\n      dup3\n      sstore\n      dup1\n      swap2\n      pop\n      pop\n      sub\n      swap1\n      0x00\n      mstore\n      keccak256(0x00, 0x20)\n      swap1\n      pop\n      pop\n        /* \"contracts/Proposal.sol\":2941:2952  uint256 len */\n      0x00\n        /* \"contracts/Proposal.sol\":2978:2979  1 */\n      0x01\n        /* \"contracts/Proposal.sol\":2955:2968  proposalInfos */\n      0x03\n        /* \"contracts/Proposal.sol\":2955:2975  proposalInfos.length */\n      dup1\n      sload\n      swap1\n      pop\n        /* \"contracts/Proposal.sol\":2955:2979  proposalInfos.length - 1 */\n      tag_187\n      swap2\n      swap1\n      tag_139\n      jump\t// in\n    tag_187:\n        /* \"contracts/Proposal.sol\":2941:2979  uint256 len = proposalInfos.length - 1 */\n      swap1\n      pop\n        /* \"contracts/Proposal.sol\":2990:3022  ProposalInfo storage newProposal */\n      0x00\n        /* \"contracts/Proposal.sol\":3025:3038  proposalInfos */\n      0x03\n        /* \"contracts/Proposal.sol\":3039:3042  len */\n      dup3\n        /* \"contracts/Proposal.sol\":3025:3043  proposalInfos[len] */\n      dup2\n      sload\n      dup2\n      lt\n      tag_188\n      jumpi\n      tag_189\n      tag_190\n      jump\t// in\n    tag_189:\n    tag_188:\n      swap1\n      0x00\n      mstore\n      keccak256(0x00, 0x20)\n      swap1\n      0x02\n      mul\n      add\n        /* \"contracts/Proposal.sol\":2990:3043  ProposalInfo storage newProposal = proposalInfos[len] */\n      swap1\n      pop\n        /* \"contracts/Proposal.sol\":3075:3085  msg.sender */\n      caller\n        /* \"contracts/Proposal.sol\":3053:3064  newProposal */\n      dup2\n        /* \"contracts/Proposal.sol\":3053:3072  newProposal.founder */\n      0x00\n      add\n      0x00\n        /* \"contracts/Proposal.sol\":3053:3085  newProposal.founder = msg.sender */\n      0x0100\n      exp\n      dup2\n      sload\n      dup2\n      0xffffffffffffffffffffffffffffffffffffffff\n      mul\n      not\n      and\n      swap1\n      dup4\n      0xffffffffffffffffffffffffffffffffffffffff\n      and\n      mul\n      or\n      swap1\n      sstore\n      pop\n        /* \"contracts/Proposal.sol\":3101:3110  uint256 i */\n      0x00\n        /* \"contracts/Proposal.sol\":3096:3221  for (uint256 i = 0; i < optionDescs.length; i++) {... */\n    tag_192:\n        /* \"contracts/Proposal.sol\":3120:3131  optionDescs */\n      dup5\n        /* \"contracts/Proposal.sol\":3120:3138  optionDescs.length */\n      mload\n        /* \"contracts/Proposal.sol\":3116:3117  i */\n      dup2\n        /* \"contracts/Proposal.sol\":3116:3138  i < optionDescs.length */\n      lt\n        /* \"contracts/Proposal.sol\":3096:3221  for (uint256 i = 0; i < optionDescs.length; i++) {... */\n      iszero\n      tag_193\n      jumpi\n        /* \"contracts/Proposal.sol\":3159:3170  newProposal */\n      dup2\n        /* \"contracts/Proposal.sol\":3159:3178  newProposal.options */\n      0x01\n      add\n        /* \"contracts/Proposal.sol\":3184:3209  Option(optionDescs[i], 0) */\n      mload(0x40)\n      dup1\n      0x40\n      add\n      0x40\n      mstore\n      dup1\n        /* \"contracts/Proposal.sol\":3191:3202  optionDescs */\n      dup8\n        /* \"contracts/Proposal.sol\":3203:3204  i */\n      dup5\n        /* \"contracts/Proposal.sol\":3191:3205  optionDescs[i] */\n      dup2\n      mload\n      dup2\n      lt\n      tag_195\n      jumpi\n      tag_196\n      tag_190\n      jump\t// in\n    tag_196:\n    tag_195:\n      0x20\n      mul\n      0x20\n      add\n      add\n      mload\n        /* \"contracts/Proposal.sol\":3184:3209  Option(optionDescs[i], 0) */\n      dup2\n      mstore\n      0x20\n      add\n        /* \"contracts/Proposal.sol\":3207:3208  0 */\n      0x00\n        /* \"contracts/Proposal.sol\":3184:3209  Option(optionDescs[i], 0) */\n      dup2\n      mstore\n      pop\n        /* \"contracts/Proposal.sol\":3159:3210  newProposal.options.push(Option(optionDescs[i], 0)) */\n      swap1\n      dup1\n      0x01\n      dup2\n      sload\n      add\n      dup1\n      dup3\n      sstore\n      dup1\n      swap2\n      pop\n      pop\n      0x01\n      swap1\n      sub\n      swap1\n      0x00\n      mstore\n      keccak256(0x00, 0x20)\n      swap1\n      0x02\n      mul\n      add\n      0x00\n      swap1\n      swap2\n      swap1\n      swap2\n      swap1\n      swap2\n      pop\n      0x00\n      dup3\n      add\n      mload\n      dup2\n      0x00\n      add\n      swap1\n      dup2\n      tag_198\n      swap2\n      swap1\n      tag_199\n      jump\t// in\n    tag_198:\n      pop\n      0x20\n      dup3\n      add\n      mload\n      dup2\n      0x01\n      add\n      sstore\n      pop\n      pop\n        /* \"contracts/Proposal.sol\":3140:3143  i++ */\n      dup1\n      dup1\n      0x01\n      add\n      swap2\n      pop\n      pop\n        /* \"contracts/Proposal.sol\":3096:3221  for (uint256 i = 0; i < optionDescs.length; i++) {... */\n      jump(tag_192)\n    tag_193:\n      pop\n        /* \"contracts/Proposal.sol\":3263:3266  len */\n      dup2\n        /* \"contracts/Proposal.sol\":3251:3261  msg.sender */\n      caller\n        /* \"contracts/Proposal.sol\":3236:3280  CreateProposal(msg.sender, len, optionDescs) */\n      0xffffffffffffffffffffffffffffffffffffffff\n      and\n      0x9a6f89a0fdf2b617e645524a789bbeab5b66bf3517973ca92daf26f077603f85\n        /* \"contracts/Proposal.sol\":3268:3279  optionDescs */\n      dup7\n        /* \"contracts/Proposal.sol\":3236:3280  CreateProposal(msg.sender, len, optionDescs) */\n      mload(0x40)\n      tag_200\n      swap2\n      swap1\n      tag_201\n      jump\t// in\n    tag_200:\n      mload(0x40)\n      dup1\n      swap2\n      sub\n      swap1\n      log3\n        /* \"contracts/Proposal.sol\":3297:3300  len */\n      dup2\n        /* \"contracts/Proposal.sol\":3290:3300  return len */\n      swap3\n      pop\n      pop\n      pop\n        /* \"contracts/Proposal.sol\":2740:3307  function createProposal(string[] memory optionDescs)... */\n      swap2\n      swap1\n      pop\n      jump\t// out\n        /* \"contracts/Proposal.sol\":4057:4631  function vote(... */\n    tag_88:\n        /* \"contracts/Proposal.sol\":4230:4236  amount */\n      dup1\n        /* \"contracts/Proposal.sol\":4195:4226  getAvailableBalance(msg.sender) */\n      tag_203\n        /* \"contracts/Proposal.sol\":4215:4225  msg.sender */\n      caller\n        /* \"contracts/Proposal.sol\":4195:4214  getAvailableBalance */\n      tag_72\n        /* \"contracts/Proposal.sol\":4195:4226  getAvailableBalance(msg.sender) */\n      jump\t// in\n    tag_203:\n        /* \"contracts/Proposal.sol\":4195:4236  getAvailableBalance(msg.sender) >= amount */\n      lt\n      iszero\n        /* \"contracts/Proposal.sol\":4174:4288  require(... */\n      tag_204\n      jumpi\n      mload(0x40)\n      0x08c379a000000000000000000000000000000000000000000000000000000000\n      dup2\n      mstore\n      0x04\n      add\n      tag_205\n      swap1\n      tag_206\n      jump\t// in\n    tag_205:\n      mload(0x40)\n      dup1\n      swap2\n      sub\n      swap1\n      revert\n    tag_204:\n        /* \"contracts/Proposal.sol\":4324:4330  amount */\n      dup1\n        /* \"contracts/Proposal.sol\":4298:4308  votingLock */\n      0x05\n        /* \"contracts/Proposal.sol\":4298:4320  votingLock[msg.sender] */\n      0x00\n        /* \"contracts/Proposal.sol\":4309:4319  msg.sender */\n      caller\n        /* \"contracts/Proposal.sol\":4298:4320  votingLock[msg.sender] */\n      0xffffffffffffffffffffffffffffffffffffffff\n      and\n      0xffffffffffffffffffffffffffffffffffffffff\n      and\n      dup2\n      mstore\n      0x20\n      add\n      swap1\n      dup2\n      mstore\n      0x20\n      add\n      0x00\n      keccak256\n      0x00\n        /* \"contracts/Proposal.sol\":4298:4330  votingLock[msg.sender] += amount */\n      dup3\n      dup3\n      sload\n      tag_207\n      swap2\n      swap1\n      tag_183\n      jump\t// in\n    tag_207:\n      swap3\n      pop\n      pop\n      dup2\n      swap1\n      sstore\n      pop\n        /* \"contracts/Proposal.sol\":4340:4369  ProposalInfo storage proposal */\n      0x00\n        /* \"contracts/Proposal.sol\":4372:4385  proposalInfos */\n      0x03\n        /* \"contracts/Proposal.sol\":4386:4396  proposalId */\n      dup5\n        /* \"contracts/Proposal.sol\":4372:4397  proposalInfos[proposalId] */\n      dup2\n      sload\n      dup2\n      lt\n      tag_208\n      jumpi\n      tag_209\n      tag_190\n      jump\t// in\n    tag_209:\n    tag_208:\n      swap1\n      0x00\n      mstore\n      keccak256(0x00, 0x20)\n      swap1\n      0x02\n      mul\n      add\n        /* \"contracts/Proposal.sol\":4340:4397  ProposalInfo storage proposal = proposalInfos[proposalId] */\n      swap1\n      pop\n        /* \"contracts/Proposal.sol\":4443:4449  amount */\n      dup2\n        /* \"contracts/Proposal.sol\":4407:4415  proposal */\n      dup2\n        /* \"contracts/Proposal.sol\":4407:4423  proposal.options */\n      0x01\n      add\n        /* \"contracts/Proposal.sol\":4424:4432  optionId */\n      dup5\n        /* \"contracts/Proposal.sol\":4407:4433  proposal.options[optionId] */\n      dup2\n      sload\n      dup2\n      lt\n      tag_211\n      jumpi\n      tag_212\n      tag_190\n      jump\t// in\n    tag_212:\n    tag_211:\n      swap1\n      0x00\n      mstore\n      keccak256(0x00, 0x20)\n      swap1\n      0x02\n      mul\n      add\n        /* \"contracts/Proposal.sol\":4407:4439  proposal.options[optionId].count */\n      0x01\n      add\n      0x00\n        /* \"contracts/Proposal.sol\":4407:4449  proposal.options[optionId].count += amount */\n      dup3\n      dup3\n      sload\n      tag_214\n      swap2\n      swap1\n      tag_183\n      jump\t// in\n    tag_214:\n      swap3\n      pop\n      pop\n      dup2\n      swap1\n      sstore\n      pop\n        /* \"contracts/Proposal.sol\":4459:4482  proposalVotingSituation */\n      0x06\n        /* \"contracts/Proposal.sol\":4459:4494  proposalVotingSituation[proposalId] */\n      0x00\n        /* \"contracts/Proposal.sol\":4483:4493  proposalId */\n      dup6\n        /* \"contracts/Proposal.sol\":4459:4494  proposalVotingSituation[proposalId] */\n      dup2\n      mstore\n      0x20\n      add\n      swap1\n      dup2\n      mstore\n      0x20\n      add\n      0x00\n      keccak256\n        /* \"contracts/Proposal.sol\":4459:4504  proposalVotingSituation[proposalId][optionId] */\n      0x00\n        /* \"contracts/Proposal.sol\":4495:4503  optionId */\n      dup5\n        /* \"contracts/Proposal.sol\":4459:4504  proposalVotingSituation[proposalId][optionId] */\n      dup2\n      mstore\n      0x20\n      add\n      swap1\n      dup2\n      mstore\n      0x20\n      add\n      0x00\n      keccak256\n        /* \"contracts/Proposal.sol\":4523:4551  VoteInfo(msg.sender, amount) */\n      mload(0x40)\n      dup1\n      0x40\n      add\n      0x40\n      mstore\n      dup1\n        /* \"contracts/Proposal.sol\":4532:4542  msg.sender */\n      caller\n        /* \"contracts/Proposal.sol\":4523:4551  VoteInfo(msg.sender, amount) */\n      0xffffffffffffffffffffffffffffffffffffffff\n      and\n      dup2\n      mstore\n      0x20\n      add\n        /* \"contracts/Proposal.sol\":4544:4550  amount */\n      dup5\n        /* \"contracts/Proposal.sol\":4523:4551  VoteInfo(msg.sender, amount) */\n      dup2\n      mstore\n      pop\n        /* \"contracts/Proposal.sol\":4459:4561  proposalVotingSituation[proposalId][optionId].push(... */\n      swap1\n      dup1\n      0x01\n      dup2\n      sload\n      add\n      dup1\n      dup3\n      sstore\n      dup1\n      swap2\n      pop\n      pop\n      0x01\n      swap1\n      sub\n      swap1\n      0x00\n      mstore\n      keccak256(0x00, 0x20)\n      swap1\n      0x02\n      mul\n      add\n      0x00\n      swap1\n      swap2\n      swap1\n      swap2\n      swap1\n      swap2\n      pop\n      0x00\n      dup3\n      add\n      mload\n      dup2\n      0x00\n      add\n      exp(0x0100, 0x00)\n      dup2\n      sload\n      dup2\n      0xffffffffffffffffffffffffffffffffffffffff\n      mul\n      not\n      and\n      swap1\n      dup4\n      0xffffffffffffffffffffffffffffffffffffffff\n      and\n      mul\n      or\n      swap1\n      sstore\n      pop\n      0x20\n      dup3\n      add\n      mload\n      dup2\n      0x01\n      add\n      sstore\n      pop\n      pop\n        /* \"contracts/Proposal.sol\":4607:4615  optionId */\n      dup3\n        /* \"contracts/Proposal.sol\":4595:4605  proposalId */\n      dup5\n        /* \"contracts/Proposal.sol\":4583:4593  msg.sender */\n      caller\n        /* \"contracts/Proposal.sol\":4577:4624  Voted(msg.sender, proposalId, optionId, amount) */\n      0xffffffffffffffffffffffffffffffffffffffff\n      and\n      0xc32b42768a47a585121e9b8d7a2ab9d3f34c326a192dee11ee1732e3d18313f3\n        /* \"contracts/Proposal.sol\":4617:4623  amount */\n      dup6\n        /* \"contracts/Proposal.sol\":4577:4624  Voted(msg.sender, proposalId, optionId, amount) */\n      mload(0x40)\n      tag_216\n      swap2\n      swap1\n      tag_38\n      jump\t// in\n    tag_216:\n      mload(0x40)\n      dup1\n      swap2\n      sub\n      swap1\n      log4\n        /* \"contracts/Proposal.sol\":4164:4631  {... */\n      pop\n        /* \"contracts/Proposal.sol\":4057:4631  function vote(... */\n      pop\n      pop\n      pop\n      jump\t// out\n        /* \"contracts/Proposal.sol\":1368:1388  address public owner */\n    tag_91:\n      0x00\n      0x02\n      swap1\n      sload\n      swap1\n      0x0100\n      exp\n      swap1\n      div\n      0xffffffffffffffffffffffffffffffffffffffff\n      and\n      dup2\n      jump\t// out\n        /* \"contracts/Proposal.sol\":1395:1422  address public logicAddress */\n    tag_96:\n      0x01\n      0x00\n      swap1\n      sload\n      swap1\n      0x0100\n      exp\n      swap1\n      div\n      0xffffffffffffffffffffffffffffffffffffffff\n      and\n      dup2\n      jump\t// out\n        /* \"contracts/Proposal.sol\":1590:1635  mapping(address => uint256) public votingLock */\n    tag_101:\n      mstore(0x20, 0x05)\n      dup1\n      0x00\n      mstore\n      keccak256(0x00, 0x40)\n      0x00\n      swap2\n      pop\n      swap1\n      pop\n      sload\n      dup2\n      jump\t// out\n        /* \"contracts/Proposal.sol\":1480:1515  ProposalInfo[] public proposalInfos */\n    tag_106:\n      0x03\n      dup2\n      dup2\n      sload\n      dup2\n      lt\n      tag_217\n      jumpi\n      0x00\n      dup1\n      revert\n    tag_217:\n      swap1\n      0x00\n      mstore\n      keccak256(0x00, 0x20)\n      swap1\n      0x02\n      mul\n      add\n      0x00\n      swap2\n      pop\n      swap1\n      pop\n      dup1\n      0x00\n      add\n      0x00\n      swap1\n      sload\n      swap1\n      0x0100\n      exp\n      swap1\n      div\n      0xffffffffffffffffffffffffffffffffffffffff\n      and\n      swap1\n      pop\n      dup2\n      jump\t// out\n        /* \"contracts/Proposal.sol\":2344:2734  function deposit(uint256 amount) external returns (uint256) {... */\n    tag_111:\n        /* \"contracts/Proposal.sol\":2395:2402  uint256 */\n      0x00\n        /* \"contracts/Proposal.sol\":2442:2454  mlnTokenAddr */\n      0x02\n      0x00\n      swap1\n      sload\n      swap1\n      0x0100\n      exp\n      swap1\n      div\n      0xffffffffffffffffffffffffffffffffffffffff\n      and\n        /* \"contracts/Proposal.sol\":2435:2468  IERC20(mlnTokenAddr).transferFrom */\n      0xffffffffffffffffffffffffffffffffffffffff\n      and\n      0x23b872dd\n        /* \"contracts/Proposal.sol\":2486:2496  msg.sender */\n      caller\n        /* \"contracts/Proposal.sol\":2522:2526  this */\n      address\n        /* \"contracts/Proposal.sol\":2545:2551  amount */\n      dup6\n        /* \"contracts/Proposal.sol\":2435:2565  IERC20(mlnTokenAddr).transferFrom(... */\n      mload(0x40)\n      dup5\n      0xffffffff\n      and\n      0xe0\n      shl\n      dup2\n      mstore\n      0x04\n      add\n      tag_220\n      swap4\n      swap3\n      swap2\n      swap1\n      tag_221\n      jump\t// in\n    tag_220:\n      0x20\n      mload(0x40)\n      dup1\n      dup4\n      sub\n      dup2\n      0x00\n      dup8\n      gas\n      call\n      iszero\n      dup1\n      iszero\n      tag_223\n      jumpi\n      returndatasize\n      0x00\n      dup1\n      returndatacopy\n      revert(0x00, returndatasize)\n    tag_223:\n      pop\n      pop\n      pop\n      pop\n      mload(0x40)\n      returndatasize\n      not(0x1f)\n      0x1f\n      dup3\n      add\n      and\n      dup3\n      add\n      dup1\n      0x40\n      mstore\n      pop\n      dup2\n      add\n      swap1\n      tag_224\n      swap2\n      swap1\n      tag_134\n      jump\t// in\n    tag_224:\n        /* \"contracts/Proposal.sol\":2414:2606  require(... */\n      tag_225\n      jumpi\n      mload(0x40)\n      0x08c379a000000000000000000000000000000000000000000000000000000000\n      dup2\n      mstore\n      0x04\n      add\n      tag_226\n      swap1\n      tag_137\n      jump\t// in\n    tag_226:\n      mload(0x40)\n      dup1\n      swap2\n      sub\n      swap1\n      revert\n    tag_225:\n        /* \"contracts/Proposal.sol\":2640:2646  amount */\n      dup2\n        /* \"contracts/Proposal.sol\":2616:2624  balances */\n      0x04\n        /* \"contracts/Proposal.sol\":2616:2636  balances[msg.sender] */\n      0x00\n        /* \"contracts/Proposal.sol\":2625:2635  msg.sender */\n      caller\n        /* \"contracts/Proposal.sol\":2616:2636  balances[msg.sender] */\n      0xffffffffffffffffffffffffffffffffffffffff\n      and\n      0xffffffffffffffffffffffffffffffffffffffff\n      and\n      dup2\n      mstore\n      0x20\n      add\n      swap1\n      dup2\n      mstore\n      0x20\n      add\n      0x00\n      keccak256\n      0x00\n        /* \"contracts/Proposal.sol\":2616:2646  balances[msg.sender] += amount */\n      dup3\n      dup3\n      sload\n      tag_227\n      swap2\n      swap1\n      tag_183\n      jump\t// in\n    tag_227:\n      swap3\n      pop\n      pop\n      dup2\n      swap1\n      sstore\n      pop\n        /* \"contracts/Proposal.sol\":2671:2681  msg.sender */\n      caller\n        /* \"contracts/Proposal.sol\":2661:2690  Deposited(msg.sender, amount) */\n      0xffffffffffffffffffffffffffffffffffffffff\n      and\n      0x2da466a7b24304f47e87fa2e1e5a81b9831ce54fec19055ce277ca2f39ba42c4\n        /* \"contracts/Proposal.sol\":2683:2689  amount */\n      dup4\n        /* \"contracts/Proposal.sol\":2661:2690  Deposited(msg.sender, amount) */\n      mload(0x40)\n      tag_228\n      swap2\n      swap1\n      tag_38\n      jump\t// in\n    tag_228:\n      mload(0x40)\n      dup1\n      swap2\n      sub\n      swap1\n      log2\n        /* \"contracts/Proposal.sol\":2707:2715  balances */\n      0x04\n        /* \"contracts/Proposal.sol\":2707:2727  balances[msg.sender] */\n      0x00\n        /* \"contracts/Proposal.sol\":2716:2726  msg.sender */\n      caller\n        /* \"contracts/Proposal.sol\":2707:2727  balances[msg.sender] */\n      0xffffffffffffffffffffffffffffffffffffffff\n      and\n      0xffffffffffffffffffffffffffffffffffffffff\n      and\n      dup2\n      mstore\n      0x20\n      add\n      swap1\n      dup2\n      mstore\n      0x20\n      add\n      0x00\n      keccak256\n      sload\n        /* \"contracts/Proposal.sol\":2700:2727  return balances[msg.sender] */\n      swap1\n      pop\n        /* \"contracts/Proposal.sol\":2344:2734  function deposit(uint256 amount) external returns (uint256) {... */\n      swap2\n      swap1\n      pop\n      jump\t// out\n        /* \"contracts/Proposal.sol\":1429:1456  address public mlnTokenAddr */\n    tag_115:\n      0x02\n      0x00\n      swap1\n      sload\n      swap1\n      0x0100\n      exp\n      swap1\n      div\n      0xffffffffffffffffffffffffffffffffffffffff\n      and\n      dup2\n      jump\t// out\n        /* \"contracts/Proposal.sol\":2209:2338  function initialize(address tokenAddr) external initializer {... */\n    tag_120:\n        /* \"@openzeppelin/contracts/proxy/utils/Initializable.sol\":3268:3287  bool isTopLevelCall */\n      0x00\n        /* \"@openzeppelin/contracts/proxy/utils/Initializable.sol\":3291:3304  _initializing */\n      dup1\n      0x01\n      swap1\n      sload\n      swap1\n      0x0100\n      exp\n      swap1\n      div\n      0xff\n      and\n        /* \"@openzeppelin/contracts/proxy/utils/Initializable.sol\":3290:3304  !_initializing */\n      iszero\n        /* \"@openzeppelin/contracts/proxy/utils/Initializable.sol\":3268:3304  bool isTopLevelCall = !_initializing */\n      swap1\n      pop\n        /* \"@openzeppelin/contracts/proxy/utils/Initializable.sol\":3336:3350  isTopLevelCall */\n      dup1\n        /* \"@openzeppelin/contracts/proxy/utils/Initializable.sol\":3336:3370  isTopLevelCall && _initialized < 1 */\n      dup1\n      iszero\n      tag_230\n      jumpi\n      pop\n        /* \"@openzeppelin/contracts/proxy/utils/Initializable.sol\":3369:3370  1 */\n      0x01\n        /* \"@openzeppelin/contracts/proxy/utils/Initializable.sol\":3354:3366  _initialized */\n      0x00\n      dup1\n      sload\n      swap1\n      0x0100\n      exp\n      swap1\n      div\n      0xff\n      and\n        /* \"@openzeppelin/contracts/proxy/utils/Initializable.sol\":3354:3370  _initialized < 1 */\n      0xff\n      and\n      lt\n        /* \"@openzeppelin/contracts/proxy/utils/Initializable.sol\":3336:3370  isTopLevelCall && _initialized < 1 */\n    tag_230:\n        /* \"@openzeppelin/contracts/proxy/utils/Initializable.sol\":3335:3432  (isTopLevelCall && _initialized < 1) || (!Address.isContract(address(this)) && _initialized == 1) */\n      dup1\n      tag_231\n      jumpi\n      pop\n        /* \"@openzeppelin/contracts/proxy/utils/Initializable.sol\":3377:3410  Address.isContract(address(this)) */\n      tag_232\n        /* \"@openzeppelin/contracts/proxy/utils/Initializable.sol\":3404:3408  this */\n      address\n        /* \"@openzeppelin/contracts/proxy/utils/Initializable.sol\":3377:3395  Address.isContract */\n      tag_233\n        /* \"@openzeppelin/contracts/proxy/utils/Initializable.sol\":3377:3410  Address.isContract(address(this)) */\n      jump\t// in\n    tag_232:\n        /* \"@openzeppelin/contracts/proxy/utils/Initializable.sol\":3376:3410  !Address.isContract(address(this)) */\n      iszero\n        /* \"@openzeppelin/contracts/proxy/utils/Initializable.sol\":3376:3431  !Address.isContract(address(this)) && _initialized == 1 */\n      dup1\n      iszero\n      tag_234\n      jumpi\n      pop\n        /* \"@openzeppelin/contracts/proxy/utils/Initializable.sol\":3430:3431  1 */\n      0x01\n        /* \"@openzeppelin/contracts/proxy/utils/Initializable.sol\":3414:3426  _initialized */\n      0x00\n      dup1\n      sload\n      swap1\n      0x0100\n      exp\n      swap1\n      div\n      0xff\n      and\n        /* \"@openzeppelin/contracts/proxy/utils/Initializable.sol\":3414:3431  _initialized == 1 */\n      0xff\n      and\n      eq\n        /* \"@openzeppelin/contracts/proxy/utils/Initializable.sol\":3376:3431  !Address.isContract(address(this)) && _initialized == 1 */\n    tag_234:\n        /* \"@openzeppelin/contracts/proxy/utils/Initializable.sol\":3335:3432  (isTopLevelCall && _initialized < 1) || (!Address.isContract(address(this)) && _initialized == 1) */\n    tag_231:\n        /* \"@openzeppelin/contracts/proxy/utils/Initializable.sol\":3314:3504  require(... */\n      tag_235\n      jumpi\n      mload(0x40)\n      0x08c379a000000000000000000000000000000000000000000000000000000000\n      dup2\n      mstore\n      0x04\n      add\n      tag_236\n      swap1\n      tag_237\n      jump\t// in\n    tag_236:\n      mload(0x40)\n      dup1\n      swap2\n      sub\n      swap1\n      revert\n    tag_235:\n        /* \"@openzeppelin/contracts/proxy/utils/Initializable.sol\":3529:3530  1 */\n      0x01\n        /* \"@openzeppelin/contracts/proxy/utils/Initializable.sol\":3514:3526  _initialized */\n      0x00\n      dup1\n        /* \"@openzeppelin/contracts/proxy/utils/Initializable.sol\":3514:3530  _initialized = 1 */\n      0x0100\n      exp\n      dup2\n      sload\n      dup2\n      0xff\n      mul\n      not\n      and\n      swap1\n      dup4\n      0xff\n      and\n      mul\n      or\n      swap1\n      sstore\n      pop\n        /* \"@openzeppelin/contracts/proxy/utils/Initializable.sol\":3544:3558  isTopLevelCall */\n      dup1\n        /* \"@openzeppelin/contracts/proxy/utils/Initializable.sol\":3540:3605  if (isTopLevelCall) {... */\n      iszero\n      tag_238\n      jumpi\n        /* \"@openzeppelin/contracts/proxy/utils/Initializable.sol\":3590:3594  true */\n      0x01\n        /* \"@openzeppelin/contracts/proxy/utils/Initializable.sol\":3574:3587  _initializing */\n      0x00\n      0x01\n        /* \"@openzeppelin/contracts/proxy/utils/Initializable.sol\":3574:3594  _initializing = true */\n      0x0100\n      exp\n      dup2\n      sload\n      dup2\n      0xff\n      mul\n      not\n      and\n      swap1\n      dup4\n      iszero\n      iszero\n      mul\n      or\n      swap1\n      sstore\n      pop\n        /* \"@openzeppelin/contracts/proxy/utils/Initializable.sol\":3540:3605  if (isTopLevelCall) {... */\n    tag_238:\n        /* \"contracts/Proposal.sol\":2294:2303  tokenAddr */\n      dup2\n        /* \"contracts/Proposal.sol\":2279:2291  mlnTokenAddr */\n      0x02\n      0x00\n        /* \"contracts/Proposal.sol\":2279:2303  mlnTokenAddr = tokenAddr */\n      0x0100\n      exp\n      dup2\n      sload\n      dup2\n      0xffffffffffffffffffffffffffffffffffffffff\n      mul\n      not\n      and\n      swap1\n      dup4\n      0xffffffffffffffffffffffffffffffffffffffff\n      and\n      mul\n      or\n      swap1\n      sstore\n      pop\n        /* \"contracts/Proposal.sol\":2321:2331  msg.sender */\n      caller\n        /* \"contracts/Proposal.sol\":2313:2318  owner */\n      0x00\n      0x02\n        /* \"contracts/Proposal.sol\":2313:2331  owner = msg.sender */\n      0x0100\n      exp\n      dup2\n      sload\n      dup2\n      0xffffffffffffffffffffffffffffffffffffffff\n      mul\n      not\n      and\n      swap1\n      dup4\n      0xffffffffffffffffffffffffffffffffffffffff\n      and\n      mul\n      or\n      swap1\n      sstore\n      pop\n        /* \"@openzeppelin/contracts/proxy/utils/Initializable.sol\":3629:3643  isTopLevelCall */\n      dup1\n        /* \"@openzeppelin/contracts/proxy/utils/Initializable.sol\":3625:3724  if (isTopLevelCall) {... */\n      iszero\n      tag_240\n      jumpi\n        /* \"@openzeppelin/contracts/proxy/utils/Initializable.sol\":3675:3680  false */\n      0x00\n        /* \"@openzeppelin/contracts/proxy/utils/Initializable.sol\":3659:3672  _initializing */\n      dup1\n      0x01\n        /* \"@openzeppelin/contracts/proxy/utils/Initializable.sol\":3659:3680  _initializing = false */\n      0x0100\n      exp\n      dup2\n      sload\n      dup2\n      0xff\n      mul\n      not\n      and\n      swap1\n      dup4\n      iszero\n      iszero\n      mul\n      or\n      swap1\n      sstore\n      pop\n        /* \"@openzeppelin/contracts/proxy/utils/Initializable.sol\":3699:3713  Initialized(1) */\n      0x7f26b83ff96e1f2b6a682f133852f6798a09c465da95921460cefb3847402498\n        /* \"@openzeppelin/contracts/proxy/utils/Initializable.sol\":3711:3712  1 */\n      0x01\n        /* \"@openzeppelin/contracts/proxy/utils/Initializable.sol\":3699:3713  Initialized(1) */\n      mload(0x40)\n      tag_241\n      swap2\n      swap1\n      tag_242\n      jump\t// in\n    tag_241:\n      mload(0x40)\n      dup1\n      swap2\n      sub\n      swap1\n      log1\n        /* \"@openzeppelin/contracts/proxy/utils/Initializable.sol\":3625:3724  if (isTopLevelCall) {... */\n    tag_240:\n        /* \"@openzeppelin/contracts/proxy/utils/Initializable.sol\":3258:3730  {... */\n      pop\n        /* \"contracts/Proposal.sol\":2209:2338  function initialize(address tokenAddr) external initializer {... */\n      pop\n      jump\t// out\n        /* \"contracts/Proposal.sol\":4637:5103  function proposalSettlement(uint256 proposalId, uint256 winOptionId)... */\n    tag_125:\n        /* \"contracts/Proposal.sol\":4737:4762  bool isSingleOptionStatus */\n      0x00\n        /* \"contracts/Proposal.sol\":4765:4846  isSingleOptionProposal(... */\n      tag_244\n        /* \"contracts/Proposal.sol\":4801:4811  proposalId */\n      dup4\n        /* \"contracts/Proposal.sol\":4825:4836  winOptionId */\n      dup4\n        /* \"contracts/Proposal.sol\":4765:4787  isSingleOptionProposal */\n      tag_245\n        /* \"contracts/Proposal.sol\":4765:4846  isSingleOptionProposal(... */\n      jump\t// in\n    tag_244:\n        /* \"contracts/Proposal.sol\":4737:4846  bool isSingleOptionStatus = isSingleOptionProposal(... */\n      swap1\n      pop\n        /* \"contracts/Proposal.sol\":4861:4881  isSingleOptionStatus */\n      dup1\n        /* \"contracts/Proposal.sol\":4857:5040  if (isSingleOptionStatus) {... */\n      iszero\n      tag_246\n      jumpi\n        /* \"contracts/Proposal.sol\":4897:4948  handleSingleOptionProposal(proposalId, winOptionId) */\n      tag_247\n        /* \"contracts/Proposal.sol\":4924:4934  proposalId */\n      dup4\n        /* \"contracts/Proposal.sol\":4936:4947  winOptionId */\n      dup4\n        /* \"contracts/Proposal.sol\":4897:4923  handleSingleOptionProposal */\n      tag_248\n        /* \"contracts/Proposal.sol\":4897:4948  handleSingleOptionProposal(proposalId, winOptionId) */\n      jump\t// in\n    tag_247:\n        /* \"contracts/Proposal.sol\":4857:5040  if (isSingleOptionStatus) {... */\n      jump(tag_249)\n    tag_246:\n        /* \"contracts/Proposal.sol\":4979:5029  handleMultiOptionProposal(proposalId, winOptionId) */\n      tag_250\n        /* \"contracts/Proposal.sol\":5005:5015  proposalId */\n      dup4\n        /* \"contracts/Proposal.sol\":5017:5028  winOptionId */\n      dup4\n        /* \"contracts/Proposal.sol\":4979:5004  handleMultiOptionProposal */\n      tag_251\n        /* \"contracts/Proposal.sol\":4979:5029  handleMultiOptionProposal(proposalId, winOptionId) */\n      jump\t// in\n    tag_250:\n        /* \"contracts/Proposal.sol\":4857:5040  if (isSingleOptionStatus) {... */\n    tag_249:\n        /* \"contracts/Proposal.sol\":5085:5096  winOptionId */\n      dup2\n        /* \"contracts/Proposal.sol\":5049:5070  proposalWinningOption */\n      0x07\n        /* \"contracts/Proposal.sol\":5049:5082  proposalWinningOption[proposalId] */\n      0x00\n        /* \"contracts/Proposal.sol\":5071:5081  proposalId */\n      dup6\n        /* \"contracts/Proposal.sol\":5049:5082  proposalWinningOption[proposalId] */\n      dup2\n      mstore\n      0x20\n      add\n      swap1\n      dup2\n      mstore\n      0x20\n      add\n      0x00\n      keccak256\n        /* \"contracts/Proposal.sol\":5049:5096  proposalWinningOption[proposalId] = winOptionId */\n      dup2\n      swap1\n      sstore\n      pop\n        /* \"contracts/Proposal.sol\":4727:5103  {... */\n      pop\n        /* \"contracts/Proposal.sol\":4637:5103  function proposalSettlement(uint256 proposalId, uint256 winOptionId)... */\n      pop\n      pop\n      jump\t// out\n        /* \"@openzeppelin/contracts/proxy/ERC1967/ERC1967Upgrade.sol\":1175:1315  function _getImplementation() internal view returns (address) {... */\n    tag_147:\n        /* \"@openzeppelin/contracts/proxy/ERC1967/ERC1967Upgrade.sol\":1228:1235  address */\n      0x00\n        /* \"@openzeppelin/contracts/proxy/ERC1967/ERC1967Upgrade.sol\":1254:1302  StorageSlot.getAddressSlot(_IMPLEMENTATION_SLOT) */\n      tag_253\n        /* \"@openzeppelin/contracts/proxy/ERC1967/ERC1967Upgrade.sol\":1030:1096  0x360894a13ba1a3210667c828492db98dca3e2076cc3735a920a3ca505d382bbc */\n      0x360894a13ba1a3210667c828492db98dca3e2076cc3735a920a3ca505d382bbc\n        /* \"@openzeppelin/contracts/proxy/ERC1967/ERC1967Upgrade.sol\":1281:1301  _IMPLEMENTATION_SLOT */\n      0x00\n      shl\n        /* \"@openzeppelin/contracts/proxy/ERC1967/ERC1967Upgrade.sol\":1254:1280  StorageSlot.getAddressSlot */\n      tag_254\n        /* \"@openzeppelin/contracts/proxy/ERC1967/ERC1967Upgrade.sol\":1254:1302  StorageSlot.getAddressSlot(_IMPLEMENTATION_SLOT) */\n      jump\t// in\n    tag_253:\n        /* \"@openzeppelin/contracts/proxy/ERC1967/ERC1967Upgrade.sol\":1254:1308  StorageSlot.getAddressSlot(_IMPLEMENTATION_SLOT).value */\n      0x00\n      add\n      0x00\n      swap1\n      sload\n      swap1\n      0x0100\n      exp\n      swap1\n      div\n      0xffffffffffffffffffffffffffffffffffffffff\n      and\n        /* \"@openzeppelin/contracts/proxy/ERC1967/ERC1967Upgrade.sol\":1247:1308  return StorageSlot.getAddressSlot(_IMPLEMENTATION_SLOT).value */\n      swap1\n      pop\n        /* \"@openzeppelin/contracts/proxy/ERC1967/ERC1967Upgrade.sol\":1175:1315  function _getImplementation() internal view returns (address) {... */\n      swap1\n      jump\t// out\n        /* \"contracts/Proposal.sol\":8785:8944  function _authorizeUpgrade(address newImplementation)... */\n    tag_153:\n        /* \"contracts/Proposal.sol\":2088:2098  msg.sender */\n      caller\n        /* \"contracts/Proposal.sol\":2079:2098  owner != msg.sender */\n      0xffffffffffffffffffffffffffffffffffffffff\n      and\n        /* \"contracts/Proposal.sol\":2079:2084  owner */\n      0x00\n      0x02\n      swap1\n      sload\n      swap1\n      0x0100\n      exp\n      swap1\n      div\n      0xffffffffffffffffffffffffffffffffffffffff\n      and\n        /* \"contracts/Proposal.sol\":2079:2098  owner != msg.sender */\n      0xffffffffffffffffffffffffffffffffffffffff\n      and\n      eq\n        /* \"contracts/Proposal.sol\":2075:2170  if (owner != msg.sender) {... */\n      tag_256\n      jumpi\n        /* \"contracts/Proposal.sol\":2148:2158  msg.sender */\n      caller\n        /* \"contracts/Proposal.sol\":2121:2159  OwnableUnauthorizedAccount(msg.sender) */\n      mload(0x40)\n      0x118cdaa700000000000000000000000000000000000000000000000000000000\n      dup2\n      mstore\n      0x04\n      add\n      tag_257\n      swap2\n      swap1\n      tag_93\n      jump\t// in\n    tag_257:\n      mload(0x40)\n      dup1\n      swap2\n      sub\n      swap1\n      revert\n        /* \"contracts/Proposal.sol\":2075:2170  if (owner != msg.sender) {... */\n    tag_256:\n        /* \"contracts/Proposal.sol\":8920:8937  newImplementation */\n      dup1\n        /* \"contracts/Proposal.sol\":8905:8917  logicAddress */\n      0x01\n      0x00\n        /* \"contracts/Proposal.sol\":8905:8937  logicAddress = newImplementation */\n      0x0100\n      exp\n      dup2\n      sload\n      dup2\n      0xffffffffffffffffffffffffffffffffffffffff\n      mul\n      not\n      and\n      swap1\n      dup4\n      0xffffffffffffffffffffffffffffffffffffffff\n      and\n      mul\n      or\n      swap1\n      sstore\n      pop\n        /* \"contracts/Proposal.sol\":8785:8944  function _authorizeUpgrade(address newImplementation)... */\n      pop\n      jump\t// out\n        /* \"@openzeppelin/contracts/proxy/ERC1967/ERC1967Upgrade.sol\":2494:3416  function _upgradeToAndCallUUPS(address newImplementation, bytes memory data, bool forceCall) internal {... */\n    tag_159:\n        /* \"@openzeppelin/contracts/proxy/ERC1967/ERC1967Upgrade.sol\":2910:2952  StorageSlot.getBooleanSlot(_ROLLBACK_SLOT) */\n      tag_260\n        /* \"@openzeppelin/contracts/proxy/ERC1967/ERC1967Upgrade.sol\":689:755  0x4910fdfa16fed3260ed0e7147f7cc6da11a60208b5b9406d12a635614ffd9143 */\n      0x4910fdfa16fed3260ed0e7147f7cc6da11a60208b5b9406d12a635614ffd9143\n        /* \"@openzeppelin/contracts/proxy/ERC1967/ERC1967Upgrade.sol\":2937:2951  _ROLLBACK_SLOT */\n      0x00\n      shl\n        /* \"@openzeppelin/contracts/proxy/ERC1967/ERC1967Upgrade.sol\":2910:2936  StorageSlot.getBooleanSlot */\n      tag_261\n        /* \"@openzeppelin/contracts/proxy/ERC1967/ERC1967Upgrade.sol\":2910:2952  StorageSlot.getBooleanSlot(_ROLLBACK_SLOT) */\n      jump\t// in\n    tag_260:\n        /* \"@openzeppelin/contracts/proxy/ERC1967/ERC1967Upgrade.sol\":2910:2958  StorageSlot.getBooleanSlot(_ROLLBACK_SLOT).value */\n      0x00\n      add\n      0x00\n      swap1\n      sload\n      swap1\n      0x0100\n      exp\n      swap1\n      div\n      0xff\n      and\n        /* \"@openzeppelin/contracts/proxy/ERC1967/ERC1967Upgrade.sol\":2906:3410  if (StorageSlot.getBooleanSlot(_ROLLBACK_SLOT).value) {... */\n      iszero\n      tag_262\n      jumpi\n        /* \"@openzeppelin/contracts/proxy/ERC1967/ERC1967Upgrade.sol\":2974:3011  _setImplementation(newImplementation) */\n      tag_263\n        /* \"@openzeppelin/contracts/proxy/ERC1967/ERC1967Upgrade.sol\":2993:3010  newImplementation */\n      dup4\n        /* \"@openzeppelin/contracts/proxy/ERC1967/ERC1967Upgrade.sol\":2974:2992  _setImplementation */\n      tag_264\n        /* \"@openzeppelin/contracts/proxy/ERC1967/ERC1967Upgrade.sol\":2974:3011  _setImplementation(newImplementation) */\n      jump\t// in\n    tag_263:\n        /* \"@openzeppelin/contracts/proxy/ERC1967/ERC1967Upgrade.sol\":2906:3410  if (StorageSlot.getBooleanSlot(_ROLLBACK_SLOT).value) {... */\n      jump(tag_265)\n    tag_262:\n        /* \"@openzeppelin/contracts/proxy/ERC1967/ERC1967Upgrade.sol\":3064:3081  newImplementation */\n      dup3\n        /* \"@openzeppelin/contracts/proxy/ERC1967/ERC1967Upgrade.sol\":3046:3096  IERC1822Proxiable(newImplementation).proxiableUUID */\n      0xffffffffffffffffffffffffffffffffffffffff\n      and\n      0x52d1902d\n        /* \"@openzeppelin/contracts/proxy/ERC1967/ERC1967Upgrade.sol\":3046:3098  IERC1822Proxiable(newImplementation).proxiableUUID() */\n      mload(0x40)\n      dup2\n      0xffffffff\n      and\n      0xe0\n      shl\n      dup2\n      mstore\n      0x04\n      add\n      0x20\n      mload(0x40)\n      dup1\n      dup4\n      sub\n      dup2\n      dup7\n      gas\n      staticcall\n      swap3\n      pop\n      pop\n      pop\n      dup1\n      iszero\n      tag_266\n      jumpi\n      pop\n      mload(0x40)\n      returndatasize\n      not(0x1f)\n      0x1f\n      dup3\n      add\n      and\n      dup3\n      add\n      dup1\n      0x40\n      mstore\n      pop\n      dup2\n      add\n      swap1\n      tag_267\n      swap2\n      swap1\n      tag_268\n      jump\t// in\n    tag_267:\n      0x01\n    tag_266:\n        /* \"@openzeppelin/contracts/proxy/ERC1967/ERC1967Upgrade.sol\":3042:3333  try IERC1822Proxiable(newImplementation).proxiableUUID() returns (bytes32 slot) {... */\n      tag_269\n      jumpi\n        /* \"@openzeppelin/contracts/proxy/ERC1967/ERC1967Upgrade.sol\":3262:3318  revert(\"ERC1967Upgrade: new implementation is not UUPS\") */\n      mload(0x40)\n      0x08c379a000000000000000000000000000000000000000000000000000000000\n      dup2\n      mstore\n      0x04\n      add\n      tag_273\n      swap1\n      tag_274\n      jump\t// in\n    tag_273:\n      mload(0x40)\n      dup1\n      swap2\n      sub\n      swap1\n      revert\n        /* \"@openzeppelin/contracts/proxy/ERC1967/ERC1967Upgrade.sol\":3042:3333  try IERC1822Proxiable(newImplementation).proxiableUUID() returns (bytes32 slot) {... */\n    tag_269:\n        /* \"@openzeppelin/contracts/proxy/ERC1967/ERC1967Upgrade.sol\":1030:1096  0x360894a13ba1a3210667c828492db98dca3e2076cc3735a920a3ca505d382bbc */\n      0x360894a13ba1a3210667c828492db98dca3e2076cc3735a920a3ca505d382bbc\n        /* \"@openzeppelin/contracts/proxy/ERC1967/ERC1967Upgrade.sol\":3156:3176  _IMPLEMENTATION_SLOT */\n      0x00\n      shl\n        /* \"@openzeppelin/contracts/proxy/ERC1967/ERC1967Upgrade.sol\":3148:3152  slot */\n      dup2\n        /* \"@openzeppelin/contracts/proxy/ERC1967/ERC1967Upgrade.sol\":3148:3176  slot == _IMPLEMENTATION_SLOT */\n      eq\n        /* \"@openzeppelin/contracts/proxy/ERC1967/ERC1967Upgrade.sol\":3140:3222  require(slot == _IMPLEMENTATION_SLOT, \"ERC1967Upgrade: unsupported proxiableUUID\") */\n      tag_276\n      jumpi\n      mload(0x40)\n      0x08c379a000000000000000000000000000000000000000000000000000000000\n      dup2\n      mstore\n      0x04\n      add\n      tag_277\n      swap1\n      tag_278\n      jump\t// in\n    tag_277:\n      mload(0x40)\n      dup1\n      swap2\n      sub\n      swap1\n      revert\n    tag_276:\n        /* \"@openzeppelin/contracts/proxy/ERC1967/ERC1967Upgrade.sol\":3099:3237  returns (bytes32 slot) {... */\n      pop\n        /* \"@openzeppelin/contracts/proxy/ERC1967/ERC1967Upgrade.sol\":3346:3399  _upgradeToAndCall(newImplementation, data, forceCall) */\n      tag_279\n        /* \"@openzeppelin/contracts/proxy/ERC1967/ERC1967Upgrade.sol\":3364:3381  newImplementation */\n      dup4\n        /* \"@openzeppelin/contracts/proxy/ERC1967/ERC1967Upgrade.sol\":3383:3387  data */\n      dup4\n        /* \"@openzeppelin/contracts/proxy/ERC1967/ERC1967Upgrade.sol\":3389:3398  forceCall */\n      dup4\n        /* \"@openzeppelin/contracts/proxy/ERC1967/ERC1967Upgrade.sol\":3346:3363  _upgradeToAndCall */\n      tag_280\n        /* \"@openzeppelin/contracts/proxy/ERC1967/ERC1967Upgrade.sol\":3346:3399  _upgradeToAndCall(newImplementation, data, forceCall) */\n      jump\t// in\n    tag_279:\n        /* \"@openzeppelin/contracts/proxy/ERC1967/ERC1967Upgrade.sol\":2906:3410  if (StorageSlot.getBooleanSlot(_ROLLBACK_SLOT).value) {... */\n    tag_265:\n        /* \"@openzeppelin/contracts/proxy/ERC1967/ERC1967Upgrade.sol\":2494:3416  function _upgradeToAndCallUUPS(address newImplementation, bytes memory data, bool forceCall) internal {... */\n      pop\n      pop\n      pop\n      jump\t// out\n        /* \"@openzeppelin/contracts/utils/Address.sol\":1412:1732  function isContract(address account) internal view returns (bool) {... */\n    tag_233:\n        /* \"@openzeppelin/contracts/utils/Address.sol\":1472:1476  bool */\n      0x00\n        /* \"@openzeppelin/contracts/utils/Address.sol\":1724:1725  0 */\n      dup1\n        /* \"@openzeppelin/contracts/utils/Address.sol\":1702:1709  account */\n      dup3\n        /* \"@openzeppelin/contracts/utils/Address.sol\":1702:1721  account.code.length */\n      0xffffffffffffffffffffffffffffffffffffffff\n      and\n      extcodesize\n        /* \"@openzeppelin/contracts/utils/Address.sol\":1702:1725  account.code.length > 0 */\n      gt\n        /* \"@openzeppelin/contracts/utils/Address.sol\":1695:1725  return account.code.length > 0 */\n      swap1\n      pop\n        /* \"@openzeppelin/contracts/utils/Address.sol\":1412:1732  function isContract(address account) internal view returns (bool) {... */\n      swap2\n      swap1\n      pop\n      jump\t// out\n        /* \"contracts/Proposal.sol\":8326:8779  function isSingleOptionProposal(uint256 proposalId, uint256 winOptionId)... */\n    tag_245:\n        /* \"contracts/Proposal.sol\":8446:8450  bool */\n      0x00\n        /* \"contracts/Proposal.sol\":8466:8498  ProposalInfo memory proposalInfo */\n      dup1\n        /* \"contracts/Proposal.sol\":8501:8514  proposalInfos */\n      0x03\n        /* \"contracts/Proposal.sol\":8515:8525  proposalId */\n      dup5\n        /* \"contracts/Proposal.sol\":8501:8526  proposalInfos[proposalId] */\n      dup2\n      sload\n      dup2\n      lt\n      tag_283\n      jumpi\n      tag_284\n      tag_190\n      jump\t// in\n    tag_284:\n    tag_283:\n      swap1\n      0x00\n      mstore\n      keccak256(0x00, 0x20)\n      swap1\n      0x02\n      mul\n      add\n        /* \"contracts/Proposal.sol\":8466:8526  ProposalInfo memory proposalInfo = proposalInfos[proposalId] */\n      mload(0x40)\n      dup1\n      0x40\n      add\n      0x40\n      mstore\n      swap1\n      dup2\n      0x00\n      dup3\n      add\n      0x00\n      swap1\n      sload\n      swap1\n      0x0100\n      exp\n      swap1\n      div\n      0xffffffffffffffffffffffffffffffffffffffff\n      and\n      0xffffffffffffffffffffffffffffffffffffffff\n      and\n      0xffffffffffffffffffffffffffffffffffffffff\n      and\n      dup2\n      mstore\n      0x20\n      add\n      0x01\n      dup3\n      add\n      dup1\n      sload\n      dup1\n      0x20\n      mul\n      0x20\n      add\n      mload(0x40)\n      swap1\n      dup2\n      add\n      0x40\n      mstore\n      dup1\n      swap3\n      swap2\n      swap1\n      dup2\n      dup2\n      mstore\n      0x20\n      add\n      0x00\n      swap1\n    tag_286:\n      dup3\n      dup3\n      lt\n      iszero\n      tag_287\n      jumpi\n      dup4\n      dup3\n      swap1\n      0x00\n      mstore\n      keccak256(0x00, 0x20)\n      swap1\n      0x02\n      mul\n      add\n      mload(0x40)\n      dup1\n      0x40\n      add\n      0x40\n      mstore\n      swap1\n      dup2\n      0x00\n      dup3\n      add\n      dup1\n      sload\n      tag_289\n      swap1\n      tag_290\n      jump\t// in\n    tag_289:\n      dup1\n      0x1f\n      add\n      0x20\n      dup1\n      swap2\n      div\n      mul\n      0x20\n      add\n      mload(0x40)\n      swap1\n      dup2\n      add\n      0x40\n      mstore\n      dup1\n      swap3\n      swap2\n      swap1\n      dup2\n      dup2\n      mstore\n      0x20\n      add\n      dup3\n      dup1\n      sload\n      tag_291\n      swap1\n      tag_290\n      jump\t// in\n    tag_291:\n      dup1\n      iszero\n      tag_292\n      jumpi\n      dup1\n      0x1f\n      lt\n      tag_293\n      jumpi\n      0x0100\n      dup1\n      dup4\n      sload\n      div\n      mul\n      dup4\n      mstore\n      swap2\n      0x20\n      add\n      swap2\n      jump(tag_292)\n    tag_293:\n      dup3\n      add\n      swap2\n      swap1\n      0x00\n      mstore\n      keccak256(0x00, 0x20)\n      swap1\n    tag_294:\n      dup2\n      sload\n      dup2\n      mstore\n      swap1\n      0x01\n      add\n      swap1\n      0x20\n      add\n      dup1\n      dup4\n      gt\n      tag_294\n      jumpi\n      dup3\n      swap1\n      sub\n      0x1f\n      and\n      dup3\n      add\n      swap2\n    tag_292:\n      pop\n      pop\n      pop\n      pop\n      pop\n      dup2\n      mstore\n      0x20\n      add\n      0x01\n      dup3\n      add\n      sload\n      dup2\n      mstore\n      pop\n      pop\n      dup2\n      mstore\n      0x20\n      add\n      swap1\n      0x01\n      add\n      swap1\n      jump(tag_286)\n    tag_287:\n      pop\n      pop\n      pop\n      pop\n      dup2\n      mstore\n      pop\n      pop\n      swap1\n      pop\n        /* \"contracts/Proposal.sol\":8536:8559  Option[] memory options */\n      0x00\n        /* \"contracts/Proposal.sol\":8562:8574  proposalInfo */\n      dup2\n        /* \"contracts/Proposal.sol\":8562:8582  proposalInfo.options */\n      0x20\n      add\n      mload\n        /* \"contracts/Proposal.sol\":8536:8582  Option[] memory options = proposalInfo.options */\n      swap1\n      pop\n        /* \"contracts/Proposal.sol\":8597:8606  uint256 i */\n      0x00\n        /* \"contracts/Proposal.sol\":8592:8752  for (uint256 i = 0; i < options.length; i++) {... */\n    tag_295:\n        /* \"contracts/Proposal.sol\":8616:8623  options */\n      dup2\n        /* \"contracts/Proposal.sol\":8616:8630  options.length */\n      mload\n        /* \"contracts/Proposal.sol\":8612:8613  i */\n      dup2\n        /* \"contracts/Proposal.sol\":8612:8630  i < options.length */\n      lt\n        /* \"contracts/Proposal.sol\":8592:8752  for (uint256 i = 0; i < options.length; i++) {... */\n      iszero\n      tag_296\n      jumpi\n        /* \"contracts/Proposal.sol\":8660:8671  winOptionId */\n      dup5\n        /* \"contracts/Proposal.sol\":8655:8656  i */\n      dup2\n        /* \"contracts/Proposal.sol\":8655:8671  i != winOptionId */\n      eq\n      iszero\n        /* \"contracts/Proposal.sol\":8655:8695  i != winOptionId && options[i].count > 0 */\n      dup1\n      iszero\n      tag_298\n      jumpi\n      pop\n        /* \"contracts/Proposal.sol\":8694:8695  0 */\n      0x00\n        /* \"contracts/Proposal.sol\":8675:8682  options */\n      dup3\n        /* \"contracts/Proposal.sol\":8683:8684  i */\n      dup3\n        /* \"contracts/Proposal.sol\":8675:8685  options[i] */\n      dup2\n      mload\n      dup2\n      lt\n      tag_299\n      jumpi\n      tag_300\n      tag_190\n      jump\t// in\n    tag_300:\n    tag_299:\n      0x20\n      mul\n      0x20\n      add\n      add\n      mload\n        /* \"contracts/Proposal.sol\":8675:8691  options[i].count */\n      0x20\n      add\n      mload\n        /* \"contracts/Proposal.sol\":8675:8695  options[i].count > 0 */\n      gt\n        /* \"contracts/Proposal.sol\":8655:8695  i != winOptionId && options[i].count > 0 */\n    tag_298:\n        /* \"contracts/Proposal.sol\":8651:8742  if (i != winOptionId && options[i].count > 0) {... */\n      iszero\n      tag_301\n      jumpi\n        /* \"contracts/Proposal.sol\":8722:8727  false */\n      0x00\n        /* \"contracts/Proposal.sol\":8715:8727  return false */\n      swap4\n      pop\n      pop\n      pop\n      pop\n      jump(tag_282)\n        /* \"contracts/Proposal.sol\":8651:8742  if (i != winOptionId && options[i].count > 0) {... */\n    tag_301:\n        /* \"contracts/Proposal.sol\":8632:8635  i++ */\n      dup1\n      dup1\n      0x01\n      add\n      swap2\n      pop\n      pop\n        /* \"contracts/Proposal.sol\":8592:8752  for (uint256 i = 0; i < options.length; i++) {... */\n      jump(tag_295)\n    tag_296:\n      pop\n        /* \"contracts/Proposal.sol\":8768:8772  true */\n      0x01\n        /* \"contracts/Proposal.sol\":8761:8772  return true */\n      swap3\n      pop\n      pop\n      pop\n        /* \"contracts/Proposal.sol\":8326:8779  function isSingleOptionProposal(uint256 proposalId, uint256 winOptionId)... */\n    tag_282:\n      swap3\n      swap2\n      pop\n      pop\n      jump\t// out\n        /* \"contracts/Proposal.sol\":5109:5590  function handleSingleOptionProposal(uint256 proposalId, uint256 winOptionId)... */\n    tag_248:\n        /* \"contracts/Proposal.sol\":5217:5279  mapping(uint256 => VoteInfo[])... */\n      0x00\n        /* \"contracts/Proposal.sol\":5282:5305  proposalVotingSituation */\n      0x06\n        /* \"contracts/Proposal.sol\":5282:5318  proposalVotingSituation[winOptionId] */\n      0x00\n        /* \"contracts/Proposal.sol\":5306:5317  winOptionId */\n      dup4\n        /* \"contracts/Proposal.sol\":5282:5318  proposalVotingSituation[winOptionId] */\n      dup2\n      mstore\n      0x20\n      add\n      swap1\n      dup2\n      mstore\n      0x20\n      add\n      0x00\n      keccak256\n        /* \"contracts/Proposal.sol\":5217:5318  mapping(uint256 => VoteInfo[])... */\n      swap1\n      pop\n        /* \"contracts/Proposal.sol\":5334:5343  uint256 i */\n      0x00\n        /* \"contracts/Proposal.sol\":5329:5528  for (uint256 i = 0; i < voteRecords[winOptionId].length; i++) {... */\n    tag_303:\n        /* \"contracts/Proposal.sol\":5353:5364  voteRecords */\n      dup2\n        /* \"contracts/Proposal.sol\":5353:5377  voteRecords[winOptionId] */\n      0x00\n        /* \"contracts/Proposal.sol\":5365:5376  winOptionId */\n      dup5\n        /* \"contracts/Proposal.sol\":5353:5377  voteRecords[winOptionId] */\n      dup2\n      mstore\n      0x20\n      add\n      swap1\n      dup2\n      mstore\n      0x20\n      add\n      0x00\n      keccak256\n        /* \"contracts/Proposal.sol\":5353:5384  voteRecords[winOptionId].length */\n      dup1\n      sload\n      swap1\n      pop\n        /* \"contracts/Proposal.sol\":5349:5350  i */\n      dup2\n        /* \"contracts/Proposal.sol\":5349:5384  i < voteRecords[winOptionId].length */\n      lt\n        /* \"contracts/Proposal.sol\":5329:5528  for (uint256 i = 0; i < voteRecords[winOptionId].length; i++) {... */\n      iszero\n      tag_304\n      jumpi\n        /* \"contracts/Proposal.sol\":5405:5429  VoteInfo memory voteInfo */\n      0x00\n        /* \"contracts/Proposal.sol\":5432:5443  voteRecords */\n      dup3\n        /* \"contracts/Proposal.sol\":5432:5456  voteRecords[winOptionId] */\n      0x00\n        /* \"contracts/Proposal.sol\":5444:5455  winOptionId */\n      dup6\n        /* \"contracts/Proposal.sol\":5432:5456  voteRecords[winOptionId] */\n      dup2\n      mstore\n      0x20\n      add\n      swap1\n      dup2\n      mstore\n      0x20\n      add\n      0x00\n      keccak256\n        /* \"contracts/Proposal.sol\":5457:5458  i */\n      dup3\n        /* \"contracts/Proposal.sol\":5432:5459  voteRecords[winOptionId][i] */\n      dup2\n      sload\n      dup2\n      lt\n      tag_306\n      jumpi\n      tag_307\n      tag_190\n      jump\t// in\n    tag_307:\n    tag_306:\n      swap1\n      0x00\n      mstore\n      keccak256(0x00, 0x20)\n      swap1\n      0x02\n      mul\n      add\n        /* \"contracts/Proposal.sol\":5405:5459  VoteInfo memory voteInfo = voteRecords[winOptionId][i] */\n      mload(0x40)\n      dup1\n      0x40\n      add\n      0x40\n      mstore\n      swap1\n      dup2\n      0x00\n      dup3\n      add\n      0x00\n      swap1\n      sload\n      swap1\n      0x0100\n      exp\n      swap1\n      div\n      0xffffffffffffffffffffffffffffffffffffffff\n      and\n      0xffffffffffffffffffffffffffffffffffffffff\n      and\n      0xffffffffffffffffffffffffffffffffffffffff\n      and\n      dup2\n      mstore\n      0x20\n      add\n      0x01\n      dup3\n      add\n      sload\n      dup2\n      mstore\n      pop\n      pop\n      swap1\n      pop\n        /* \"contracts/Proposal.sol\":5502:5510  voteInfo */\n      dup1\n        /* \"contracts/Proposal.sol\":5502:5517  voteInfo.amount */\n      0x20\n      add\n      mload\n        /* \"contracts/Proposal.sol\":5473:5483  votingLock */\n      0x05\n        /* \"contracts/Proposal.sol\":5473:5498  votingLock[voteInfo.user] */\n      0x00\n        /* \"contracts/Proposal.sol\":5484:5492  voteInfo */\n      dup4\n        /* \"contracts/Proposal.sol\":5484:5497  voteInfo.user */\n      0x00\n      add\n      mload\n        /* \"contracts/Proposal.sol\":5473:5498  votingLock[voteInfo.user] */\n      0xffffffffffffffffffffffffffffffffffffffff\n      and\n      0xffffffffffffffffffffffffffffffffffffffff\n      and\n      dup2\n      mstore\n      0x20\n      add\n      swap1\n      dup2\n      mstore\n      0x20\n      add\n      0x00\n      keccak256\n      0x00\n        /* \"contracts/Proposal.sol\":5473:5517  votingLock[voteInfo.user] -= voteInfo.amount */\n      dup3\n      dup3\n      sload\n      tag_309\n      swap2\n      swap1\n      tag_139\n      jump\t// in\n    tag_309:\n      swap3\n      pop\n      pop\n      dup2\n      swap1\n      sstore\n      pop\n        /* \"contracts/Proposal.sol\":5391:5528  {... */\n      pop\n        /* \"contracts/Proposal.sol\":5386:5389  i++ */\n      dup1\n      dup1\n      0x01\n      add\n      swap2\n      pop\n      pop\n        /* \"contracts/Proposal.sol\":5329:5528  for (uint256 i = 0; i < voteRecords[winOptionId].length; i++) {... */\n      jump(tag_303)\n    tag_304:\n      pop\n        /* \"contracts/Proposal.sol\":5559:5569  proposalId */\n      dup3\n        /* \"contracts/Proposal.sol\":5542:5583  ProposalRefunded(proposalId, winOptionId) */\n      0xc445a10c3fa19d3805aeea8b151160c7252c62f5bb08325a6acd73f79e5531ee\n        /* \"contracts/Proposal.sol\":5571:5582  winOptionId */\n      dup4\n        /* \"contracts/Proposal.sol\":5542:5583  ProposalRefunded(proposalId, winOptionId) */\n      mload(0x40)\n      tag_310\n      swap2\n      swap1\n      tag_38\n      jump\t// in\n    tag_310:\n      mload(0x40)\n      dup1\n      swap2\n      sub\n      swap1\n      log2\n        /* \"contracts/Proposal.sol\":5207:5590  {... */\n      pop\n        /* \"contracts/Proposal.sol\":5109:5590  function handleSingleOptionProposal(uint256 proposalId, uint256 winOptionId)... */\n      pop\n      pop\n      jump\t// out\n        /* \"contracts/Proposal.sol\":5596:6589  function handleMultiOptionProposal(uint256 proposalId, uint256 winOptionId)... */\n    tag_251:\n        /* \"contracts/Proposal.sol\":5703:5736  ProposalInfo storage proposalInfo */\n      0x00\n        /* \"contracts/Proposal.sol\":5739:5752  proposalInfos */\n      0x03\n        /* \"contracts/Proposal.sol\":5753:5763  proposalId */\n      dup4\n        /* \"contracts/Proposal.sol\":5739:5764  proposalInfos[proposalId] */\n      dup2\n      sload\n      dup2\n      lt\n      tag_312\n      jumpi\n      tag_313\n      tag_190\n      jump\t// in\n    tag_313:\n    tag_312:\n      swap1\n      0x00\n      mstore\n      keccak256(0x00, 0x20)\n      swap1\n      0x02\n      mul\n      add\n        /* \"contracts/Proposal.sol\":5703:5764  ProposalInfo storage proposalInfo = proposalInfos[proposalId] */\n      swap1\n      pop\n        /* \"contracts/Proposal.sol\":5774:5836  mapping(uint256 => VoteInfo[])... */\n      0x00\n        /* \"contracts/Proposal.sol\":5839:5862  proposalVotingSituation */\n      0x06\n        /* \"contracts/Proposal.sol\":5839:5875  proposalVotingSituation[winOptionId] */\n      0x00\n        /* \"contracts/Proposal.sol\":5863:5874  winOptionId */\n      dup5\n        /* \"contracts/Proposal.sol\":5839:5875  proposalVotingSituation[winOptionId] */\n      dup2\n      mstore\n      0x20\n      add\n      swap1\n      dup2\n      mstore\n      0x20\n      add\n      0x00\n      keccak256\n        /* \"contracts/Proposal.sol\":5774:5875  mapping(uint256 => VoteInfo[])... */\n      swap1\n      pop\n        /* \"contracts/Proposal.sol\":5886:5904  uint256 totalStake */\n      0x00\n        /* \"contracts/Proposal.sol\":5914:5933  uint256 optionCount */\n      dup1\n        /* \"contracts/Proposal.sol\":5936:5948  proposalInfo */\n      dup4\n        /* \"contracts/Proposal.sol\":5936:5956  proposalInfo.options */\n      0x01\n      add\n        /* \"contracts/Proposal.sol\":5936:5963  proposalInfo.options.length */\n      dup1\n      sload\n      swap1\n      pop\n        /* \"contracts/Proposal.sol\":5914:5963  uint256 optionCount = proposalInfo.options.length */\n      swap1\n      pop\n        /* \"contracts/Proposal.sol\":5973:5993  uint256 winVoteCount */\n      0x00\n        /* \"contracts/Proposal.sol\":5996:6008  proposalInfo */\n      dup5\n        /* \"contracts/Proposal.sol\":5996:6016  proposalInfo.options */\n      0x01\n      add\n        /* \"contracts/Proposal.sol\":6017:6028  winOptionId */\n      dup7\n        /* \"contracts/Proposal.sol\":5996:6029  proposalInfo.options[winOptionId] */\n      dup2\n      sload\n      dup2\n      lt\n      tag_315\n      jumpi\n      tag_316\n      tag_190\n      jump\t// in\n    tag_316:\n    tag_315:\n      swap1\n      0x00\n      mstore\n      keccak256(0x00, 0x20)\n      swap1\n      0x02\n      mul\n      add\n        /* \"contracts/Proposal.sol\":5996:6035  proposalInfo.options[winOptionId].count */\n      0x01\n      add\n      sload\n        /* \"contracts/Proposal.sol\":5973:6035  uint256 winVoteCount = proposalInfo.options[winOptionId].count */\n      swap1\n      pop\n        /* \"contracts/Proposal.sol\":6051:6060  uint256 i */\n      0x00\n        /* \"contracts/Proposal.sol\":6046:6156  for (uint256 i = 0; i < optionCount; i++) {... */\n    tag_318:\n        /* \"contracts/Proposal.sol\":6070:6081  optionCount */\n      dup3\n        /* \"contracts/Proposal.sol\":6066:6067  i */\n      dup2\n        /* \"contracts/Proposal.sol\":6066:6081  i < optionCount */\n      lt\n        /* \"contracts/Proposal.sol\":6046:6156  for (uint256 i = 0; i < optionCount; i++) {... */\n      iszero\n      tag_319\n      jumpi\n        /* \"contracts/Proposal.sol\":6116:6128  proposalInfo */\n      dup6\n        /* \"contracts/Proposal.sol\":6116:6136  proposalInfo.options */\n      0x01\n      add\n        /* \"contracts/Proposal.sol\":6137:6138  i */\n      dup2\n        /* \"contracts/Proposal.sol\":6116:6139  proposalInfo.options[i] */\n      dup2\n      sload\n      dup2\n      lt\n      tag_321\n      jumpi\n      tag_322\n      tag_190\n      jump\t// in\n    tag_322:\n    tag_321:\n      swap1\n      0x00\n      mstore\n      keccak256(0x00, 0x20)\n      swap1\n      0x02\n      mul\n      add\n        /* \"contracts/Proposal.sol\":6116:6145  proposalInfo.options[i].count */\n      0x01\n      add\n      sload\n        /* \"contracts/Proposal.sol\":6102:6145  totalStake += proposalInfo.options[i].count */\n      dup5\n      tag_324\n      swap2\n      swap1\n      tag_183\n      jump\t// in\n    tag_324:\n      swap4\n      pop\n        /* \"contracts/Proposal.sol\":6083:6086  i++ */\n      dup1\n      dup1\n      0x01\n      add\n      swap2\n      pop\n      pop\n        /* \"contracts/Proposal.sol\":6046:6156  for (uint256 i = 0; i < optionCount; i++) {... */\n      jump(tag_318)\n    tag_319:\n      pop\n        /* \"contracts/Proposal.sol\":6219:6222  100 */\n      0x64\n        /* \"contracts/Proposal.sol\":6214:6215  5 */\n      0x05\n        /* \"contracts/Proposal.sol\":6201:6211  totalStake */\n      dup5\n        /* \"contracts/Proposal.sol\":6201:6215  totalStake * 5 */\n      tag_325\n      swap2\n      swap1\n      tag_326\n      jump\t// in\n    tag_325:\n        /* \"contracts/Proposal.sol\":6200:6222  (totalStake * 5) / 100 */\n      tag_327\n      swap2\n      swap1\n      tag_328\n      jump\t// in\n    tag_327:\n        /* \"contracts/Proposal.sol\":6166:6174  balances */\n      0x04\n        /* \"contracts/Proposal.sol\":6166:6196  balances[proposalInfo.founder] */\n      0x00\n        /* \"contracts/Proposal.sol\":6175:6187  proposalInfo */\n      dup8\n        /* \"contracts/Proposal.sol\":6175:6195  proposalInfo.founder */\n      0x00\n      add\n      0x00\n      swap1\n      sload\n      swap1\n      0x0100\n      exp\n      swap1\n      div\n      0xffffffffffffffffffffffffffffffffffffffff\n      and\n        /* \"contracts/Proposal.sol\":6166:6196  balances[proposalInfo.founder] */\n      0xffffffffffffffffffffffffffffffffffffffff\n      and\n      0xffffffffffffffffffffffffffffffffffffffff\n      and\n      dup2\n      mstore\n      0x20\n      add\n      swap1\n      dup2\n      mstore\n      0x20\n      add\n      0x00\n      keccak256\n      0x00\n        /* \"contracts/Proposal.sol\":6166:6222  balances[proposalInfo.founder] += (totalStake * 5) / 100 */\n      dup3\n      dup3\n      sload\n      tag_329\n      swap2\n      swap1\n      tag_183\n      jump\t// in\n    tag_329:\n      swap3\n      pop\n      pop\n      dup2\n      swap1\n      sstore\n      pop\n        /* \"contracts/Proposal.sol\":6232:6260  uint256 totalStakeExtractFee */\n      0x00\n        /* \"contracts/Proposal.sol\":6283:6286  100 */\n      0x64\n        /* \"contracts/Proposal.sol\":6277:6279  90 */\n      0x5a\n        /* \"contracts/Proposal.sol\":6264:6274  totalStake */\n      dup6\n        /* \"contracts/Proposal.sol\":6264:6279  totalStake * 90 */\n      tag_330\n      swap2\n      swap1\n      tag_326\n      jump\t// in\n    tag_330:\n        /* \"contracts/Proposal.sol\":6263:6286  (totalStake * 90) / 100 */\n      tag_331\n      swap2\n      swap1\n      tag_328\n      jump\t// in\n    tag_331:\n        /* \"contracts/Proposal.sol\":6232:6286  uint256 totalStakeExtractFee = (totalStake * 90) / 100 */\n      swap1\n      pop\n        /* \"contracts/Proposal.sol\":6302:6311  uint256 i */\n      0x00\n        /* \"contracts/Proposal.sol\":6297:6583  for (uint256 i = 0; i < optionCount; i++) {... */\n    tag_332:\n        /* \"contracts/Proposal.sol\":6321:6332  optionCount */\n      dup4\n        /* \"contracts/Proposal.sol\":6317:6318  i */\n      dup2\n        /* \"contracts/Proposal.sol\":6317:6332  i < optionCount */\n      lt\n        /* \"contracts/Proposal.sol\":6297:6583  for (uint256 i = 0; i < optionCount; i++) {... */\n      iszero\n      tag_333\n      jumpi\n        /* \"contracts/Proposal.sol\":6353:6572  distributeRewardsAndPenalties(... */\n      tag_335\n        /* \"contracts/Proposal.sol\":6400:6410  proposalId */\n      dup10\n        /* \"contracts/Proposal.sol\":6428:6439  winOptionId */\n      dup10\n        /* \"contracts/Proposal.sol\":6457:6477  totalStakeExtractFee */\n      dup5\n        /* \"contracts/Proposal.sol\":6495:6507  winVoteCount */\n      dup7\n        /* \"contracts/Proposal.sol\":6525:6536  voteRecords */\n      dup11\n        /* \"contracts/Proposal.sol\":6525:6539  voteRecords[i] */\n      0x00\n        /* \"contracts/Proposal.sol\":6537:6538  i */\n      dup8\n        /* \"contracts/Proposal.sol\":6525:6539  voteRecords[i] */\n      dup2\n      mstore\n      0x20\n      add\n      swap1\n      dup2\n      mstore\n      0x20\n      add\n      0x00\n      keccak256\n        /* \"contracts/Proposal.sol\":6353:6572  distributeRewardsAndPenalties(... */\n      dup1\n      sload\n      dup1\n      0x20\n      mul\n      0x20\n      add\n      mload(0x40)\n      swap1\n      dup2\n      add\n      0x40\n      mstore\n      dup1\n      swap3\n      swap2\n      swap1\n      dup2\n      dup2\n      mstore\n      0x20\n      add\n      0x00\n      swap1\n    tag_336:\n      dup3\n      dup3\n      lt\n      iszero\n      tag_337\n      jumpi\n      dup4\n      dup3\n      swap1\n      0x00\n      mstore\n      keccak256(0x00, 0x20)\n      swap1\n      0x02\n      mul\n      add\n      mload(0x40)\n      dup1\n      0x40\n      add\n      0x40\n      mstore\n      swap1\n      dup2\n      0x00\n      dup3\n      add\n      0x00\n      swap1\n      sload\n      swap1\n      0x0100\n      exp\n      swap1\n      div\n      0xffffffffffffffffffffffffffffffffffffffff\n      and\n      0xffffffffffffffffffffffffffffffffffffffff\n      and\n      0xffffffffffffffffffffffffffffffffffffffff\n      and\n      dup2\n      mstore\n      0x20\n      add\n      0x01\n      dup3\n      add\n      sload\n      dup2\n      mstore\n      pop\n      pop\n      dup2\n      mstore\n      0x20\n      add\n      swap1\n      0x01\n      add\n      swap1\n      jump(tag_336)\n    tag_337:\n      pop\n      pop\n      pop\n      pop\n        /* \"contracts/Proposal.sol\":6557:6558  i */\n      dup7\n        /* \"contracts/Proposal.sol\":6353:6382  distributeRewardsAndPenalties */\n      tag_339\n        /* \"contracts/Proposal.sol\":6353:6572  distributeRewardsAndPenalties(... */\n      jump\t// in\n    tag_335:\n        /* \"contracts/Proposal.sol\":6334:6337  i++ */\n      dup1\n      dup1\n      0x01\n      add\n      swap2\n      pop\n      pop\n        /* \"contracts/Proposal.sol\":6297:6583  for (uint256 i = 0; i < optionCount; i++) {... */\n      jump(tag_332)\n    tag_333:\n      pop\n        /* \"contracts/Proposal.sol\":5693:6589  {... */\n      pop\n      pop\n      pop\n      pop\n      pop\n      pop\n        /* \"contracts/Proposal.sol\":5596:6589  function handleMultiOptionProposal(uint256 proposalId, uint256 winOptionId)... */\n      pop\n      pop\n      jump\t// out\n        /* \"@openzeppelin/contracts/utils/StorageSlot.sol\":1859:2049  function getAddressSlot(bytes32 slot) internal pure returns (AddressSlot storage r) {... */\n    tag_254:\n        /* \"@openzeppelin/contracts/utils/StorageSlot.sol\":1920:1941  AddressSlot storage r */\n      0x00\n        /* \"@openzeppelin/contracts/utils/StorageSlot.sol\":2029:2033  slot */\n      dup2\n        /* \"@openzeppelin/contracts/utils/StorageSlot.sol\":2019:2033  r.slot := slot */\n      swap1\n      pop\n        /* \"@openzeppelin/contracts/utils/StorageSlot.sol\":1859:2049  function getAddressSlot(bytes32 slot) internal pure returns (AddressSlot storage r) {... */\n      swap2\n      swap1\n      pop\n      jump\t// out\n        /* \"@openzeppelin/contracts/utils/StorageSlot.sol\":2147:2337  function getBooleanSlot(bytes32 slot) internal pure returns (BooleanSlot storage r) {... */\n    tag_261:\n        /* \"@openzeppelin/contracts/utils/StorageSlot.sol\":2208:2229  BooleanSlot storage r */\n      0x00\n        /* \"@openzeppelin/contracts/utils/StorageSlot.sol\":2317:2321  slot */\n      dup2\n        /* \"@openzeppelin/contracts/utils/StorageSlot.sol\":2307:2321  r.slot := slot */\n      swap1\n      pop\n        /* \"@openzeppelin/contracts/utils/StorageSlot.sol\":2147:2337  function getBooleanSlot(bytes32 slot) internal pure returns (BooleanSlot storage r) {... */\n      swap2\n      swap1\n      pop\n      jump\t// out\n        /* \"@openzeppelin/contracts/proxy/ERC1967/ERC1967Upgrade.sol\":1406:1665  function _setImplementation(address newImplementation) private {... */\n    tag_264:\n        /* \"@openzeppelin/contracts/proxy/ERC1967/ERC1967Upgrade.sol\":1487:1524  Address.isContract(newImplementation) */\n      tag_343\n        /* \"@openzeppelin/contracts/proxy/ERC1967/ERC1967Upgrade.sol\":1506:1523  newImplementation */\n      dup2\n        /* \"@openzeppelin/contracts/proxy/ERC1967/ERC1967Upgrade.sol\":1487:1505  Address.isContract */\n      tag_233\n        /* \"@openzeppelin/contracts/proxy/ERC1967/ERC1967Upgrade.sol\":1487:1524  Address.isContract(newImplementation) */\n      jump\t// in\n    tag_343:\n        /* \"@openzeppelin/contracts/proxy/ERC1967/ERC1967Upgrade.sol\":1479:1574  require(Address.isContract(newImplementation), \"ERC1967: new implementation is not a contract\") */\n      tag_344\n      jumpi\n      mload(0x40)\n      0x08c379a000000000000000000000000000000000000000000000000000000000\n      dup2\n      mstore\n      0x04\n      add\n      tag_345\n      swap1\n      tag_346\n      jump\t// in\n    tag_345:\n      mload(0x40)\n      dup1\n      swap2\n      sub\n      swap1\n      revert\n    tag_344:\n        /* \"@openzeppelin/contracts/proxy/ERC1967/ERC1967Upgrade.sol\":1641:1658  newImplementation */\n      dup1\n        /* \"@openzeppelin/contracts/proxy/ERC1967/ERC1967Upgrade.sol\":1584:1632  StorageSlot.getAddressSlot(_IMPLEMENTATION_SLOT) */\n      tag_347\n        /* \"@openzeppelin/contracts/proxy/ERC1967/ERC1967Upgrade.sol\":1030:1096  0x360894a13ba1a3210667c828492db98dca3e2076cc3735a920a3ca505d382bbc */\n      0x360894a13ba1a3210667c828492db98dca3e2076cc3735a920a3ca505d382bbc\n        /* \"@openzeppelin/contracts/proxy/ERC1967/ERC1967Upgrade.sol\":1611:1631  _IMPLEMENTATION_SLOT */\n      0x00\n      shl\n        /* \"@openzeppelin/contracts/proxy/ERC1967/ERC1967Upgrade.sol\":1584:1610  StorageSlot.getAddressSlot */\n      tag_254\n        /* \"@openzeppelin/contracts/proxy/ERC1967/ERC1967Upgrade.sol\":1584:1632  StorageSlot.getAddressSlot(_IMPLEMENTATION_SLOT) */\n      jump\t// in\n    tag_347:\n        /* \"@openzeppelin/contracts/proxy/ERC1967/ERC1967Upgrade.sol\":1584:1638  StorageSlot.getAddressSlot(_IMPLEMENTATION_SLOT).value */\n      0x00\n      add\n      0x00\n        /* \"@openzeppelin/contracts/proxy/ERC1967/ERC1967Upgrade.sol\":1584:1658  StorageSlot.getAddressSlot(_IMPLEMENTATION_SLOT).value = newImplementation */\n      0x0100\n      exp\n      dup2\n      sload\n      dup2\n      0xffffffffffffffffffffffffffffffffffffffff\n      mul\n      not\n      and\n      swap1\n      dup4\n      0xffffffffffffffffffffffffffffffffffffffff\n      and\n      mul\n      or\n      swap1\n      sstore\n      pop\n        /* \"@openzeppelin/contracts/proxy/ERC1967/ERC1967Upgrade.sol\":1406:1665  function _setImplementation(address newImplementation) private {... */\n      pop\n      jump\t// out\n        /* \"@openzeppelin/contracts/proxy/ERC1967/ERC1967Upgrade.sol\":2057:2322  function _upgradeToAndCall(address newImplementation, bytes memory data, bool forceCall) internal {... */\n    tag_280:\n        /* \"@openzeppelin/contracts/proxy/ERC1967/ERC1967Upgrade.sol\":2165:2194  _upgradeTo(newImplementation) */\n      tag_349\n        /* \"@openzeppelin/contracts/proxy/ERC1967/ERC1967Upgrade.sol\":2176:2193  newImplementation */\n      dup4\n        /* \"@openzeppelin/contracts/proxy/ERC1967/ERC1967Upgrade.sol\":2165:2175  _upgradeTo */\n      tag_350\n        /* \"@openzeppelin/contracts/proxy/ERC1967/ERC1967Upgrade.sol\":2165:2194  _upgradeTo(newImplementation) */\n      jump\t// in\n    tag_349:\n        /* \"@openzeppelin/contracts/proxy/ERC1967/ERC1967Upgrade.sol\":2222:2223  0 */\n      0x00\n        /* \"@openzeppelin/contracts/proxy/ERC1967/ERC1967Upgrade.sol\":2208:2212  data */\n      dup3\n        /* \"@openzeppelin/contracts/proxy/ERC1967/ERC1967Upgrade.sol\":2208:2219  data.length */\n      mload\n        /* \"@openzeppelin/contracts/proxy/ERC1967/ERC1967Upgrade.sol\":2208:2223  data.length > 0 */\n      gt\n        /* \"@openzeppelin/contracts/proxy/ERC1967/ERC1967Upgrade.sol\":2208:2236  data.length > 0 || forceCall */\n      dup1\n      tag_351\n      jumpi\n      pop\n        /* \"@openzeppelin/contracts/proxy/ERC1967/ERC1967Upgrade.sol\":2227:2236  forceCall */\n      dup1\n        /* \"@openzeppelin/contracts/proxy/ERC1967/ERC1967Upgrade.sol\":2208:2236  data.length > 0 || forceCall */\n    tag_351:\n        /* \"@openzeppelin/contracts/proxy/ERC1967/ERC1967Upgrade.sol\":2204:2316  if (data.length > 0 || forceCall) {... */\n      iszero\n      tag_352\n      jumpi\n        /* \"@openzeppelin/contracts/proxy/ERC1967/ERC1967Upgrade.sol\":2252:2305  Address.functionDelegateCall(newImplementation, data) */\n      tag_353\n        /* \"@openzeppelin/contracts/proxy/ERC1967/ERC1967Upgrade.sol\":2281:2298  newImplementation */\n      dup4\n        /* \"@openzeppelin/contracts/proxy/ERC1967/ERC1967Upgrade.sol\":2300:2304  data */\n      dup4\n        /* \"@openzeppelin/contracts/proxy/ERC1967/ERC1967Upgrade.sol\":2252:2280  Address.functionDelegateCall */\n      tag_354\n        /* \"@openzeppelin/contracts/proxy/ERC1967/ERC1967Upgrade.sol\":2252:2305  Address.functionDelegateCall(newImplementation, data) */\n      jump\t// in\n    tag_353:\n      pop\n        /* \"@openzeppelin/contracts/proxy/ERC1967/ERC1967Upgrade.sol\":2204:2316  if (data.length > 0 || forceCall) {... */\n    tag_352:\n        /* \"@openzeppelin/contracts/proxy/ERC1967/ERC1967Upgrade.sol\":2057:2322  function _upgradeToAndCall(address newImplementation, bytes memory data, bool forceCall) internal {... */\n      pop\n      pop\n      pop\n      jump\t// out\n        /* \"contracts/Proposal.sol\":6595:8045  function distributeRewardsAndPenalties(... */\n    tag_339:\n        /* \"contracts/Proposal.sol\":6852:6861  uint256 j */\n      0x00\n        /* \"contracts/Proposal.sol\":6847:8039  for (uint256 j = 0; j < voteInfos.length; j++) {... */\n    tag_356:\n        /* \"contracts/Proposal.sol\":6871:6880  voteInfos */\n      dup3\n        /* \"contracts/Proposal.sol\":6871:6887  voteInfos.length */\n      mload\n        /* \"contracts/Proposal.sol\":6867:6868  j */\n      dup2\n        /* \"contracts/Proposal.sol\":6867:6887  j < voteInfos.length */\n      lt\n        /* \"contracts/Proposal.sol\":6847:8039  for (uint256 j = 0; j < voteInfos.length; j++) {... */\n      iszero\n      tag_357\n      jumpi\n        /* \"contracts/Proposal.sol\":6908:6932  VoteInfo memory voteInfo */\n      0x00\n        /* \"contracts/Proposal.sol\":6935:6944  voteInfos */\n      dup4\n        /* \"contracts/Proposal.sol\":6945:6946  j */\n      dup3\n        /* \"contracts/Proposal.sol\":6935:6947  voteInfos[j] */\n      dup2\n      mload\n      dup2\n      lt\n      tag_359\n      jumpi\n      tag_360\n      tag_190\n      jump\t// in\n    tag_360:\n    tag_359:\n      0x20\n      mul\n      0x20\n      add\n      add\n      mload\n        /* \"contracts/Proposal.sol\":6908:6947  VoteInfo memory voteInfo = voteInfos[j] */\n      swap1\n      pop\n        /* \"contracts/Proposal.sol\":6990:6998  voteInfo */\n      dup1\n        /* \"contracts/Proposal.sol\":6990:7005  voteInfo.amount */\n      0x20\n      add\n      mload\n        /* \"contracts/Proposal.sol\":6961:6971  votingLock */\n      0x05\n        /* \"contracts/Proposal.sol\":6961:6986  votingLock[voteInfo.user] */\n      0x00\n        /* \"contracts/Proposal.sol\":6972:6980  voteInfo */\n      dup4\n        /* \"contracts/Proposal.sol\":6972:6985  voteInfo.user */\n      0x00\n      add\n      mload\n        /* \"contracts/Proposal.sol\":6961:6986  votingLock[voteInfo.user] */\n      0xffffffffffffffffffffffffffffffffffffffff\n      and\n      0xffffffffffffffffffffffffffffffffffffffff\n      and\n      dup2\n      mstore\n      0x20\n      add\n      swap1\n      dup2\n      mstore\n      0x20\n      add\n      0x00\n      keccak256\n      0x00\n        /* \"contracts/Proposal.sol\":6961:7005  votingLock[voteInfo.user] -= voteInfo.amount */\n      dup3\n      dup3\n      sload\n      tag_361\n      swap2\n      swap1\n      tag_139\n      jump\t// in\n    tag_361:\n      swap3\n      pop\n      pop\n      dup2\n      swap1\n      sstore\n      pop\n        /* \"contracts/Proposal.sol\":7036:7047  winOptionId */\n      dup7\n        /* \"contracts/Proposal.sol\":7024:7032  optionId */\n      dup4\n        /* \"contracts/Proposal.sol\":7024:7047  optionId == winOptionId */\n      sub\n        /* \"contracts/Proposal.sol\":7020:8029  if (optionId == winOptionId) {... */\n      tag_362\n      jumpi\n        /* \"contracts/Proposal.sol\":7067:7081  uint256 reward */\n      0x00\n        /* \"contracts/Proposal.sol\":7147:7159  winVoteCount */\n      dup6\n        /* \"contracts/Proposal.sol\":7103:7123  totalStakeExtractFee */\n      dup8\n        /* \"contracts/Proposal.sol\":7085:7093  voteInfo */\n      dup4\n        /* \"contracts/Proposal.sol\":7085:7100  voteInfo.amount */\n      0x20\n      add\n      mload\n        /* \"contracts/Proposal.sol\":7085:7123  voteInfo.amount * totalStakeExtractFee */\n      tag_363\n      swap2\n      swap1\n      tag_326\n      jump\t// in\n    tag_363:\n        /* \"contracts/Proposal.sol\":7084:7159  (voteInfo.amount * totalStakeExtractFee) /... */\n      tag_364\n      swap2\n      swap1\n      tag_328\n      jump\t// in\n    tag_364:\n        /* \"contracts/Proposal.sol\":7067:7159  uint256 reward = (voteInfo.amount * totalStakeExtractFee) /... */\n      swap1\n      pop\n        /* \"contracts/Proposal.sol\":7177:7209  uint256 rewardExcludingPrincipal */\n      0x00\n        /* \"contracts/Proposal.sol\":7221:7229  voteInfo */\n      dup3\n        /* \"contracts/Proposal.sol\":7221:7236  voteInfo.amount */\n      0x20\n      add\n      mload\n        /* \"contracts/Proposal.sol\":7212:7218  reward */\n      dup3\n        /* \"contracts/Proposal.sol\":7212:7236  reward - voteInfo.amount */\n      tag_365\n      swap2\n      swap1\n      tag_139\n      jump\t// in\n    tag_365:\n        /* \"contracts/Proposal.sol\":7177:7236  uint256 rewardExcludingPrincipal = reward - voteInfo.amount */\n      swap1\n      pop\n        /* \"contracts/Proposal.sol\":7281:7305  rewardExcludingPrincipal */\n      dup1\n        /* \"contracts/Proposal.sol\":7254:7262  balances */\n      0x04\n        /* \"contracts/Proposal.sol\":7254:7277  balances[voteInfo.user] */\n      0x00\n        /* \"contracts/Proposal.sol\":7263:7271  voteInfo */\n      dup6\n        /* \"contracts/Proposal.sol\":7263:7276  voteInfo.user */\n      0x00\n      add\n      mload\n        /* \"contracts/Proposal.sol\":7254:7277  balances[voteInfo.user] */\n      0xffffffffffffffffffffffffffffffffffffffff\n      and\n      0xffffffffffffffffffffffffffffffffffffffff\n      and\n      dup2\n      mstore\n      0x20\n      add\n      swap1\n      dup2\n      mstore\n      0x20\n      add\n      0x00\n      keccak256\n      0x00\n        /* \"contracts/Proposal.sol\":7254:7305  balances[voteInfo.user] += rewardExcludingPrincipal */\n      dup3\n      dup3\n      sload\n      tag_366\n      swap2\n      swap1\n      tag_183\n      jump\t// in\n    tag_366:\n      swap3\n      pop\n      pop\n      dup2\n      swap1\n      sstore\n      pop\n        /* \"contracts/Proposal.sol\":7400:7424  rewardExcludingPrincipal */\n      dup1\n        /* \"contracts/Proposal.sol\":7323:7342  userProposalResults */\n      0x08\n        /* \"contracts/Proposal.sol\":7323:7354  userProposalResults[proposalId] */\n      0x00\n        /* \"contracts/Proposal.sol\":7343:7353  proposalId */\n      dup13\n        /* \"contracts/Proposal.sol\":7323:7354  userProposalResults[proposalId] */\n      dup2\n      mstore\n      0x20\n      add\n      swap1\n      dup2\n      mstore\n      0x20\n      add\n      0x00\n      keccak256\n        /* \"contracts/Proposal.sol\":7323:7369  userProposalResults[proposalId][voteInfo.user] */\n      0x00\n        /* \"contracts/Proposal.sol\":7355:7363  voteInfo */\n      dup6\n        /* \"contracts/Proposal.sol\":7355:7368  voteInfo.user */\n      0x00\n      add\n      mload\n        /* \"contracts/Proposal.sol\":7323:7369  userProposalResults[proposalId][voteInfo.user] */\n      0xffffffffffffffffffffffffffffffffffffffff\n      and\n      0xffffffffffffffffffffffffffffffffffffffff\n      and\n      dup2\n      mstore\n      0x20\n      add\n      swap1\n      dup2\n      mstore\n      0x20\n      add\n      0x00\n      keccak256\n        /* \"contracts/Proposal.sol\":7323:7442  userProposalResults[proposalId][voteInfo.user] = int256(... */\n      dup2\n      swap1\n      sstore\n      pop\n        /* \"contracts/Proposal.sol\":7505:7513  voteInfo */\n      dup3\n        /* \"contracts/Proposal.sol\":7505:7518  voteInfo.user */\n      0x00\n      add\n      mload\n        /* \"contracts/Proposal.sol\":7465:7622  ProposalSettlement(... */\n      0xffffffffffffffffffffffffffffffffffffffff\n      and\n      0x4d7fcca217e75e1a57dd8bd07a5bdce0687cc5a93591037097451084d3db3b26\n        /* \"contracts/Proposal.sol\":7540:7550  proposalId */\n      dup12\n        /* \"contracts/Proposal.sol\":7579:7603  rewardExcludingPrincipal */\n      dup4\n        /* \"contracts/Proposal.sol\":7465:7622  ProposalSettlement(... */\n      mload(0x40)\n      tag_367\n      swap3\n      swap2\n      swap1\n      tag_368\n      jump\t// in\n    tag_367:\n      mload(0x40)\n      dup1\n      swap2\n      sub\n      swap1\n      log2\n        /* \"contracts/Proposal.sol\":7049:7637  {... */\n      pop\n      pop\n        /* \"contracts/Proposal.sol\":7020:8029  if (optionId == winOptionId) {... */\n      jump(tag_369)\n    tag_362:\n        /* \"contracts/Proposal.sol\":7688:7696  voteInfo */\n      dup1\n        /* \"contracts/Proposal.sol\":7688:7703  voteInfo.amount */\n      0x20\n      add\n      mload\n        /* \"contracts/Proposal.sol\":7661:7669  balances */\n      0x04\n        /* \"contracts/Proposal.sol\":7661:7684  balances[voteInfo.user] */\n      0x00\n        /* \"contracts/Proposal.sol\":7670:7678  voteInfo */\n      dup4\n        /* \"contracts/Proposal.sol\":7670:7683  voteInfo.user */\n      0x00\n      add\n      mload\n        /* \"contracts/Proposal.sol\":7661:7684  balances[voteInfo.user] */\n      0xffffffffffffffffffffffffffffffffffffffff\n      and\n      0xffffffffffffffffffffffffffffffffffffffff\n      and\n      dup2\n      mstore\n      0x20\n      add\n      swap1\n      dup2\n      mstore\n      0x20\n      add\n      0x00\n      keccak256\n      0x00\n        /* \"contracts/Proposal.sol\":7661:7703  balances[voteInfo.user] -= voteInfo.amount */\n      dup3\n      dup3\n      sload\n      tag_370\n      swap2\n      swap1\n      tag_139\n      jump\t// in\n    tag_370:\n      swap3\n      pop\n      pop\n      dup2\n      swap1\n      sstore\n      pop\n        /* \"contracts/Proposal.sol\":7836:7838  -1 */\n      0xffffffffffffffffffffffffffffffffffffffffffffffffffffffffffffffff\n        /* \"contracts/Proposal.sol\":7797:7805  voteInfo */\n      dup2\n        /* \"contracts/Proposal.sol\":7797:7812  voteInfo.amount */\n      0x20\n      add\n      mload\n        /* \"contracts/Proposal.sol\":7790:7838  int256(voteInfo.amount) *... */\n      tag_371\n      swap2\n      swap1\n      tag_372\n      jump\t// in\n    tag_371:\n        /* \"contracts/Proposal.sol\":7721:7740  userProposalResults */\n      0x08\n        /* \"contracts/Proposal.sol\":7721:7752  userProposalResults[proposalId] */\n      0x00\n        /* \"contracts/Proposal.sol\":7741:7751  proposalId */\n      dup11\n        /* \"contracts/Proposal.sol\":7721:7752  userProposalResults[proposalId] */\n      dup2\n      mstore\n      0x20\n      add\n      swap1\n      dup2\n      mstore\n      0x20\n      add\n      0x00\n      keccak256\n        /* \"contracts/Proposal.sol\":7721:7767  userProposalResults[proposalId][voteInfo.user] */\n      0x00\n        /* \"contracts/Proposal.sol\":7753:7761  voteInfo */\n      dup4\n        /* \"contracts/Proposal.sol\":7753:7766  voteInfo.user */\n      0x00\n      add\n      mload\n        /* \"contracts/Proposal.sol\":7721:7767  userProposalResults[proposalId][voteInfo.user] */\n      0xffffffffffffffffffffffffffffffffffffffff\n      and\n      0xffffffffffffffffffffffffffffffffffffffff\n      and\n      dup2\n      mstore\n      0x20\n      add\n      swap1\n      dup2\n      mstore\n      0x20\n      add\n      0x00\n      keccak256\n        /* \"contracts/Proposal.sol\":7721:7838  userProposalResults[proposalId][voteInfo.user] =... */\n      dup2\n      swap1\n      sstore\n      pop\n        /* \"contracts/Proposal.sol\":7901:7909  voteInfo */\n      dup1\n        /* \"contracts/Proposal.sol\":7901:7914  voteInfo.user */\n      0x00\n      add\n      mload\n        /* \"contracts/Proposal.sol\":7861:8014  ProposalSettlement(... */\n      0xffffffffffffffffffffffffffffffffffffffff\n      and\n      0x4d7fcca217e75e1a57dd8bd07a5bdce0687cc5a93591037097451084d3db3b26\n        /* \"contracts/Proposal.sol\":7936:7946  proposalId */\n      dup10\n        /* \"contracts/Proposal.sol\":7994:7996  -1 */\n      0xffffffffffffffffffffffffffffffffffffffffffffffffffffffffffffffff\n        /* \"contracts/Proposal.sol\":7975:7983  voteInfo */\n      dup5\n        /* \"contracts/Proposal.sol\":7975:7990  voteInfo.amount */\n      0x20\n      add\n      mload\n        /* \"contracts/Proposal.sol\":7968:7996  int256(voteInfo.amount) * -1 */\n      tag_373\n      swap2\n      swap1\n      tag_372\n      jump\t// in\n    tag_373:\n        /* \"contracts/Proposal.sol\":7861:8014  ProposalSettlement(... */\n      mload(0x40)\n      tag_374\n      swap3\n      swap2\n      swap1\n      tag_368\n      jump\t// in\n    tag_374:\n      mload(0x40)\n      dup1\n      swap2\n      sub\n      swap1\n      log2\n        /* \"contracts/Proposal.sol\":7020:8029  if (optionId == winOptionId) {... */\n    tag_369:\n        /* \"contracts/Proposal.sol\":6894:8039  {... */\n      pop\n        /* \"contracts/Proposal.sol\":6889:6892  j++ */\n      dup1\n      dup1\n      0x01\n      add\n      swap2\n      pop\n      pop\n        /* \"contracts/Proposal.sol\":6847:8039  for (uint256 j = 0; j < voteInfos.length; j++) {... */\n      jump(tag_356)\n    tag_357:\n      pop\n        /* \"contracts/Proposal.sol\":6595:8045  function distributeRewardsAndPenalties(... */\n      pop\n      pop\n      pop\n      pop\n      pop\n      pop\n      jump\t// out\n        /* \"@openzeppelin/contracts/proxy/ERC1967/ERC1967Upgrade.sol\":1771:1923  function _upgradeTo(address newImplementation) internal {... */\n    tag_350:\n        /* \"@openzeppelin/contracts/proxy/ERC1967/ERC1967Upgrade.sol\":1837:1874  _setImplementation(newImplementation) */\n      tag_376\n        /* \"@openzeppelin/contracts/proxy/ERC1967/ERC1967Upgrade.sol\":1856:1873  newImplementation */\n      dup2\n        /* \"@openzeppelin/contracts/proxy/ERC1967/ERC1967Upgrade.sol\":1837:1855  _setImplementation */\n      tag_264\n        /* \"@openzeppelin/contracts/proxy/ERC1967/ERC1967Upgrade.sol\":1837:1874  _setImplementation(newImplementation) */\n      jump\t// in\n    tag_376:\n        /* \"@openzeppelin/contracts/proxy/ERC1967/ERC1967Upgrade.sol\":1898:1915  newImplementation */\n      dup1\n        /* \"@openzeppelin/contracts/proxy/ERC1967/ERC1967Upgrade.sol\":1889:1916  Upgraded(newImplementation) */\n      0xffffffffffffffffffffffffffffffffffffffff\n      and\n      0xbc7cd75a20ee27fd9adebab32041f755214dbc6bffa90cc0225b39da2e5c2d3b\n      mload(0x40)\n      mload(0x40)\n      dup1\n      swap2\n      sub\n      swap1\n      log2\n        /* \"@openzeppelin/contracts/proxy/ERC1967/ERC1967Upgrade.sol\":1771:1923  function _upgradeTo(address newImplementation) internal {... */\n      pop\n      jump\t// out\n        /* \"@openzeppelin/contracts/utils/Address.sol\":6674:6872  function functionDelegateCall(address target, bytes memory data) internal returns (bytes memory) {... */\n    tag_354:\n        /* \"@openzeppelin/contracts/utils/Address.sol\":6757:6769  bytes memory */\n      0x60\n        /* \"@openzeppelin/contracts/utils/Address.sol\":6788:6865  functionDelegateCall(target, data, \"Address: low-level delegate call failed\") */\n      tag_378\n        /* \"@openzeppelin/contracts/utils/Address.sol\":6809:6815  target */\n      dup4\n        /* \"@openzeppelin/contracts/utils/Address.sol\":6817:6821  data */\n      dup4\n        /* \"@openzeppelin/contracts/utils/Address.sol\":6788:6865  functionDelegateCall(target, data, \"Address: low-level delegate call failed\") */\n      mload(0x40)\n      dup1\n      0x60\n      add\n      0x40\n      mstore\n      dup1\n      0x27\n      dup2\n      mstore\n      0x20\n      add\n      data_9fdcd12e4b726339b32a442b0a448365d5d85c96b2d2cff917b4f66c63110398\n      0x27\n      swap2\n      codecopy\n        /* \"@openzeppelin/contracts/utils/Address.sol\":6788:6808  functionDelegateCall */\n      tag_379\n        /* \"@openzeppelin/contracts/utils/Address.sol\":6788:6865  functionDelegateCall(target, data, \"Address: low-level delegate call failed\") */\n      jump\t// in\n    tag_378:\n        /* \"@openzeppelin/contracts/utils/Address.sol\":6781:6865  return functionDelegateCall(target, data, \"Address: low-level delegate call failed\") */\n      swap1\n      pop\n        /* \"@openzeppelin/contracts/utils/Address.sol\":6674:6872  function functionDelegateCall(address target, bytes memory data) internal returns (bytes memory) {... */\n      swap3\n      swap2\n      pop\n      pop\n      jump\t// out\n        /* \"@openzeppelin/contracts/utils/Address.sol\":7058:7383  function functionDelegateCall(... */\n    tag_379:\n        /* \"@openzeppelin/contracts/utils/Address.sol\":7199:7211  bytes memory */\n      0x60\n        /* \"@openzeppelin/contracts/utils/Address.sol\":7224:7236  bool success */\n      0x00\n        /* \"@openzeppelin/contracts/utils/Address.sol\":7238:7261  bytes memory returndata */\n      dup1\n        /* \"@openzeppelin/contracts/utils/Address.sol\":7265:7271  target */\n      dup6\n        /* \"@openzeppelin/contracts/utils/Address.sol\":7265:7284  target.delegatecall */\n      0xffffffffffffffffffffffffffffffffffffffff\n      and\n        /* \"@openzeppelin/contracts/utils/Address.sol\":7285:7289  data */\n      dup6\n        /* \"@openzeppelin/contracts/utils/Address.sol\":7265:7290  target.delegatecall(data) */\n      mload(0x40)\n      tag_381\n      swap2\n      swap1\n      tag_382\n      jump\t// in\n    tag_381:\n      0x00\n      mload(0x40)\n      dup1\n      dup4\n      sub\n      dup2\n      dup6\n      gas\n      delegatecall\n      swap2\n      pop\n      pop\n      returndatasize\n      dup1\n      0x00\n      dup2\n      eq\n      tag_385\n      jumpi\n      mload(0x40)\n      swap2\n      pop\n      and(add(returndatasize, 0x3f), not(0x1f))\n      dup3\n      add\n      0x40\n      mstore\n      returndatasize\n      dup3\n      mstore\n      returndatasize\n      0x00\n      0x20\n      dup5\n      add\n      returndatacopy\n      jump(tag_384)\n    tag_385:\n      0x60\n      swap2\n      pop\n    tag_384:\n      pop\n        /* \"@openzeppelin/contracts/utils/Address.sol\":7223:7290  (bool success, bytes memory returndata) = target.delegatecall(data) */\n      swap2\n      pop\n      swap2\n      pop\n        /* \"@openzeppelin/contracts/utils/Address.sol\":7307:7376  verifyCallResultFromTarget(target, success, returndata, errorMessage) */\n      tag_386\n        /* \"@openzeppelin/contracts/utils/Address.sol\":7334:7340  target */\n      dup7\n        /* \"@openzeppelin/contracts/utils/Address.sol\":7342:7349  success */\n      dup4\n        /* \"@openzeppelin/contracts/utils/Address.sol\":7351:7361  returndata */\n      dup4\n        /* \"@openzeppelin/contracts/utils/Address.sol\":7363:7375  errorMessage */\n      dup8\n        /* \"@openzeppelin/contracts/utils/Address.sol\":7307:7333  verifyCallResultFromTarget */\n      tag_387\n        /* \"@openzeppelin/contracts/utils/Address.sol\":7307:7376  verifyCallResultFromTarget(target, success, returndata, errorMessage) */\n      jump\t// in\n    tag_386:\n        /* \"@openzeppelin/contracts/utils/Address.sol\":7300:7376  return verifyCallResultFromTarget(target, success, returndata, errorMessage) */\n      swap3\n      pop\n      pop\n      pop\n        /* \"@openzeppelin/contracts/utils/Address.sol\":7058:7383  function functionDelegateCall(... */\n      swap4\n      swap3\n      pop\n      pop\n      pop\n      jump\t// out\n        /* \"@openzeppelin/contracts/utils/Address.sol\":7671:8299  function verifyCallResultFromTarget(... */\n    tag_387:\n        /* \"@openzeppelin/contracts/utils/Address.sol\":7851:7863  bytes memory */\n      0x60\n        /* \"@openzeppelin/contracts/utils/Address.sol\":7879:7886  success */\n      dup4\n        /* \"@openzeppelin/contracts/utils/Address.sol\":7875:8293  if (success) {... */\n      iszero\n      tag_389\n      jumpi\n        /* \"@openzeppelin/contracts/utils/Address.sol\":7927:7928  0 */\n      0x00\n        /* \"@openzeppelin/contracts/utils/Address.sol\":7906:7916  returndata */\n      dup4\n        /* \"@openzeppelin/contracts/utils/Address.sol\":7906:7923  returndata.length */\n      mload\n        /* \"@openzeppelin/contracts/utils/Address.sol\":7906:7928  returndata.length == 0 */\n      sub\n        /* \"@openzeppelin/contracts/utils/Address.sol\":7902:8188  if (returndata.length == 0) {... */\n      tag_390\n      jumpi\n        /* \"@openzeppelin/contracts/utils/Address.sol\":8121:8139  isContract(target) */\n      tag_391\n        /* \"@openzeppelin/contracts/utils/Address.sol\":8132:8138  target */\n      dup6\n        /* \"@openzeppelin/contracts/utils/Address.sol\":8121:8131  isContract */\n      tag_233\n        /* \"@openzeppelin/contracts/utils/Address.sol\":8121:8139  isContract(target) */\n      jump\t// in\n    tag_391:\n        /* \"@openzeppelin/contracts/utils/Address.sol\":8113:8173  require(isContract(target), \"Address: call to non-contract\") */\n      tag_392\n      jumpi\n      mload(0x40)\n      0x08c379a000000000000000000000000000000000000000000000000000000000\n      dup2\n      mstore\n      0x04\n      add\n      tag_393\n      swap1\n      tag_394\n      jump\t// in\n    tag_393:\n      mload(0x40)\n      dup1\n      swap2\n      sub\n      swap1\n      revert\n    tag_392:\n        /* \"@openzeppelin/contracts/utils/Address.sol\":7902:8188  if (returndata.length == 0) {... */\n    tag_390:\n        /* \"@openzeppelin/contracts/utils/Address.sol\":8208:8218  returndata */\n      dup3\n        /* \"@openzeppelin/contracts/utils/Address.sol\":8201:8218  return returndata */\n      swap1\n      pop\n      jump(tag_388)\n        /* \"@openzeppelin/contracts/utils/Address.sol\":7875:8293  if (success) {... */\n    tag_389:\n        /* \"@openzeppelin/contracts/utils/Address.sol\":8249:8282  _revert(returndata, errorMessage) */\n      tag_396\n        /* \"@openzeppelin/contracts/utils/Address.sol\":8257:8267  returndata */\n      dup4\n        /* \"@openzeppelin/contracts/utils/Address.sol\":8269:8281  errorMessage */\n      dup4\n        /* \"@openzeppelin/contracts/utils/Address.sol\":8249:8256  _revert */\n      tag_397\n        /* \"@openzeppelin/contracts/utils/Address.sol\":8249:8282  _revert(returndata, errorMessage) */\n      jump\t// in\n    tag_396:\n        /* \"@openzeppelin/contracts/utils/Address.sol\":7671:8299  function verifyCallResultFromTarget(... */\n    tag_388:\n      swap5\n      swap4\n      pop\n      pop\n      pop\n      pop\n      jump\t// out\n        /* \"@openzeppelin/contracts/utils/Address.sol\":8821:9361  function _revert(bytes memory returndata, string memory errorMessage) private pure {... */\n    tag_397:\n        /* \"@openzeppelin/contracts/utils/Address.sol\":9000:9001  0 */\n      0x00\n        /* \"@openzeppelin/contracts/utils/Address.sol\":8980:8990  returndata */\n      dup3\n        /* \"@openzeppelin/contracts/utils/Address.sol\":8980:8997  returndata.length */\n      mload\n        /* \"@openzeppelin/contracts/utils/Address.sol\":8980:9001  returndata.length > 0 */\n      gt\n        /* \"@openzeppelin/contracts/utils/Address.sol\":8976:9355  if (returndata.length > 0) {... */\n      iszero\n      tag_399\n      jumpi\n        /* \"@openzeppelin/contracts/utils/Address.sol\":9208:9218  returndata */\n      dup2\n        /* \"@openzeppelin/contracts/utils/Address.sol\":9202:9219  mload(returndata) */\n      mload\n        /* \"@openzeppelin/contracts/utils/Address.sol\":9264:9279  returndata_size */\n      dup1\n        /* \"@openzeppelin/contracts/utils/Address.sol\":9251:9261  returndata */\n      dup4\n        /* \"@openzeppelin/contracts/utils/Address.sol\":9247:9249  32 */\n      0x20\n        /* \"@openzeppelin/contracts/utils/Address.sol\":9243:9262  add(32, returndata) */\n      add\n        /* \"@openzeppelin/contracts/utils/Address.sol\":9236:9280  revert(add(32, returndata), returndata_size) */\n      revert\n        /* \"@openzeppelin/contracts/utils/Address.sol\":8976:9355  if (returndata.length > 0) {... */\n    tag_399:\n        /* \"@openzeppelin/contracts/utils/Address.sol\":9331:9343  errorMessage */\n      dup1\n        /* \"@openzeppelin/contracts/utils/Address.sol\":9324:9344  revert(errorMessage) */\n      mload(0x40)\n      0x08c379a000000000000000000000000000000000000000000000000000000000\n      dup2\n      mstore\n      0x04\n      add\n      tag_401\n      swap2\n      swap1\n      tag_402\n      jump\t// in\n    tag_401:\n      mload(0x40)\n      dup1\n      swap2\n      sub\n      swap1\n      revert\n        /* \"#utility.yul\":7:82   */\n    tag_403:\n        /* \"#utility.yul\":40:46   */\n      0x00\n        /* \"#utility.yul\":73:75   */\n      0x40\n        /* \"#utility.yul\":67:76   */\n      mload\n        /* \"#utility.yul\":57:76   */\n      swap1\n      pop\n        /* \"#utility.yul\":7:82   */\n      swap1\n      jump\t// out\n        /* \"#utility.yul\":88:205   */\n    tag_404:\n        /* \"#utility.yul\":197:198   */\n      0x00\n        /* \"#utility.yul\":194:195   */\n      dup1\n        /* \"#utility.yul\":187:199   */\n      revert\n        /* \"#utility.yul\":211:328   */\n    tag_405:\n        /* \"#utility.yul\":320:321   */\n      0x00\n        /* \"#utility.yul\":317:318   */\n      dup1\n        /* \"#utility.yul\":310:322   */\n      revert\n        /* \"#utility.yul\":334:411   */\n    tag_406:\n        /* \"#utility.yul\":371:378   */\n      0x00\n        /* \"#utility.yul\":400:405   */\n      dup2\n        /* \"#utility.yul\":389:405   */\n      swap1\n      pop\n        /* \"#utility.yul\":334:411   */\n      swap2\n      swap1\n      pop\n      jump\t// out\n        /* \"#utility.yul\":417:539   */\n    tag_407:\n        /* \"#utility.yul\":490:514   */\n      tag_505\n        /* \"#utility.yul\":508:513   */\n      dup2\n        /* \"#utility.yul\":490:514   */\n      tag_406\n      jump\t// in\n    tag_505:\n        /* \"#utility.yul\":483:488   */\n      dup2\n        /* \"#utility.yul\":480:515   */\n      eq\n        /* \"#utility.yul\":470:533   */\n      tag_506\n      jumpi\n        /* \"#utility.yul\":529:530   */\n      0x00\n        /* \"#utility.yul\":526:527   */\n      dup1\n        /* \"#utility.yul\":519:531   */\n      revert\n        /* \"#utility.yul\":470:533   */\n    tag_506:\n        /* \"#utility.yul\":417:539   */\n      pop\n      jump\t// out\n        /* \"#utility.yul\":545:684   */\n    tag_408:\n        /* \"#utility.yul\":591:596   */\n      0x00\n        /* \"#utility.yul\":629:635   */\n      dup2\n        /* \"#utility.yul\":616:636   */\n      calldataload\n        /* \"#utility.yul\":607:636   */\n      swap1\n      pop\n        /* \"#utility.yul\":645:678   */\n      tag_508\n        /* \"#utility.yul\":672:677   */\n      dup2\n        /* \"#utility.yul\":645:678   */\n      tag_407\n      jump\t// in\n    tag_508:\n        /* \"#utility.yul\":545:684   */\n      swap3\n      swap2\n      pop\n      pop\n      jump\t// out\n        /* \"#utility.yul\":690:816   */\n    tag_409:\n        /* \"#utility.yul\":727:734   */\n      0x00\n        /* \"#utility.yul\":767:809   */\n      0xffffffffffffffffffffffffffffffffffffffff\n        /* \"#utility.yul\":760:765   */\n      dup3\n        /* \"#utility.yul\":756:810   */\n      and\n        /* \"#utility.yul\":745:810   */\n      swap1\n      pop\n        /* \"#utility.yul\":690:816   */\n      swap2\n      swap1\n      pop\n      jump\t// out\n        /* \"#utility.yul\":822:918   */\n    tag_410:\n        /* \"#utility.yul\":859:866   */\n      0x00\n        /* \"#utility.yul\":888:912   */\n      tag_511\n        /* \"#utility.yul\":906:911   */\n      dup3\n        /* \"#utility.yul\":888:912   */\n      tag_409\n      jump\t// in\n    tag_511:\n        /* \"#utility.yul\":877:912   */\n      swap1\n      pop\n        /* \"#utility.yul\":822:918   */\n      swap2\n      swap1\n      pop\n      jump\t// out\n        /* \"#utility.yul\":924:1046   */\n    tag_411:\n        /* \"#utility.yul\":997:1021   */\n      tag_513\n        /* \"#utility.yul\":1015:1020   */\n      dup2\n        /* \"#utility.yul\":997:1021   */\n      tag_410\n      jump\t// in\n    tag_513:\n        /* \"#utility.yul\":990:995   */\n      dup2\n        /* \"#utility.yul\":987:1022   */\n      eq\n        /* \"#utility.yul\":977:1040   */\n      tag_514\n      jumpi\n        /* \"#utility.yul\":1036:1037   */\n      0x00\n        /* \"#utility.yul\":1033:1034   */\n      dup1\n        /* \"#utility.yul\":1026:1038   */\n      revert\n        /* \"#utility.yul\":977:1040   */\n    tag_514:\n        /* \"#utility.yul\":924:1046   */\n      pop\n      jump\t// out\n        /* \"#utility.yul\":1052:1191   */\n    tag_412:\n        /* \"#utility.yul\":1098:1103   */\n      0x00\n        /* \"#utility.yul\":1136:1142   */\n      dup2\n        /* \"#utility.yul\":1123:1143   */\n      calldataload\n        /* \"#utility.yul\":1114:1143   */\n      swap1\n      pop\n        /* \"#utility.yul\":1152:1185   */\n      tag_516\n        /* \"#utility.yul\":1179:1184   */\n      dup2\n        /* \"#utility.yul\":1152:1185   */\n      tag_411\n      jump\t// in\n    tag_516:\n        /* \"#utility.yul\":1052:1191   */\n      swap3\n      swap2\n      pop\n      pop\n      jump\t// out\n        /* \"#utility.yul\":1197:1671   */\n    tag_28:\n        /* \"#utility.yul\":1265:1271   */\n      0x00\n        /* \"#utility.yul\":1273:1279   */\n      dup1\n        /* \"#utility.yul\":1322:1324   */\n      0x40\n        /* \"#utility.yul\":1310:1319   */\n      dup4\n        /* \"#utility.yul\":1301:1308   */\n      dup6\n        /* \"#utility.yul\":1297:1320   */\n      sub\n        /* \"#utility.yul\":1293:1325   */\n      slt\n        /* \"#utility.yul\":1290:1409   */\n      iszero\n      tag_518\n      jumpi\n        /* \"#utility.yul\":1328:1407   */\n      tag_519\n      tag_404\n      jump\t// in\n    tag_519:\n        /* \"#utility.yul\":1290:1409   */\n    tag_518:\n        /* \"#utility.yul\":1448:1449   */\n      0x00\n        /* \"#utility.yul\":1473:1526   */\n      tag_520\n        /* \"#utility.yul\":1518:1525   */\n      dup6\n        /* \"#utility.yul\":1509:1515   */\n      dup3\n        /* \"#utility.yul\":1498:1507   */\n      dup7\n        /* \"#utility.yul\":1494:1516   */\n      add\n        /* \"#utility.yul\":1473:1526   */\n      tag_408\n      jump\t// in\n    tag_520:\n        /* \"#utility.yul\":1463:1526   */\n      swap3\n      pop\n        /* \"#utility.yul\":1419:1536   */\n      pop\n        /* \"#utility.yul\":1575:1577   */\n      0x20\n        /* \"#utility.yul\":1601:1654   */\n      tag_521\n        /* \"#utility.yul\":1646:1653   */\n      dup6\n        /* \"#utility.yul\":1637:1643   */\n      dup3\n        /* \"#utility.yul\":1626:1635   */\n      dup7\n        /* \"#utility.yul\":1622:1644   */\n      add\n        /* \"#utility.yul\":1601:1654   */\n      tag_412\n      jump\t// in\n    tag_521:\n        /* \"#utility.yul\":1591:1654   */\n      swap2\n      pop\n        /* \"#utility.yul\":1546:1664   */\n      pop\n        /* \"#utility.yul\":1197:1671   */\n      swap3\n      pop\n      swap3\n      swap1\n      pop\n      jump\t// out\n        /* \"#utility.yul\":1677:1753   */\n    tag_413:\n        /* \"#utility.yul\":1713:1720   */\n      0x00\n        /* \"#utility.yul\":1742:1747   */\n      dup2\n        /* \"#utility.yul\":1731:1747   */\n      swap1\n      pop\n        /* \"#utility.yul\":1677:1753   */\n      swap2\n      swap1\n      pop\n      jump\t// out\n        /* \"#utility.yul\":1759:1874   */\n    tag_414:\n        /* \"#utility.yul\":1844:1867   */\n      tag_524\n        /* \"#utility.yul\":1861:1866   */\n      dup2\n        /* \"#utility.yul\":1844:1867   */\n      tag_413\n      jump\t// in\n    tag_524:\n        /* \"#utility.yul\":1839:1842   */\n      dup3\n        /* \"#utility.yul\":1832:1868   */\n      mstore\n        /* \"#utility.yul\":1759:1874   */\n      pop\n      pop\n      jump\t// out\n        /* \"#utility.yul\":1880:2098   */\n    tag_31:\n        /* \"#utility.yul\":1971:1975   */\n      0x00\n        /* \"#utility.yul\":2009:2011   */\n      0x20\n        /* \"#utility.yul\":1998:2007   */\n      dup3\n        /* \"#utility.yul\":1994:2012   */\n      add\n        /* \"#utility.yul\":1986:2012   */\n      swap1\n      pop\n        /* \"#utility.yul\":2022:2091   */\n      tag_526\n        /* \"#utility.yul\":2088:2089   */\n      0x00\n        /* \"#utility.yul\":2077:2086   */\n      dup4\n        /* \"#utility.yul\":2073:2090   */\n      add\n        /* \"#utility.yul\":2064:2070   */\n      dup5\n        /* \"#utility.yul\":2022:2091   */\n      tag_414\n      jump\t// in\n    tag_526:\n        /* \"#utility.yul\":1880:2098   */\n      swap3\n      swap2\n      pop\n      pop\n      jump\t// out\n        /* \"#utility.yul\":2104:2433   */\n    tag_35:\n        /* \"#utility.yul\":2163:2169   */\n      0x00\n        /* \"#utility.yul\":2212:2214   */\n      0x20\n        /* \"#utility.yul\":2200:2209   */\n      dup3\n        /* \"#utility.yul\":2191:2198   */\n      dup5\n        /* \"#utility.yul\":2187:2210   */\n      sub\n        /* \"#utility.yul\":2183:2215   */\n      slt\n        /* \"#utility.yul\":2180:2299   */\n      iszero\n      tag_528\n      jumpi\n        /* \"#utility.yul\":2218:2297   */\n      tag_529\n      tag_404\n      jump\t// in\n    tag_529:\n        /* \"#utility.yul\":2180:2299   */\n    tag_528:\n        /* \"#utility.yul\":2338:2339   */\n      0x00\n        /* \"#utility.yul\":2363:2416   */\n      tag_530\n        /* \"#utility.yul\":2408:2415   */\n      dup5\n        /* \"#utility.yul\":2399:2405   */\n      dup3\n        /* \"#utility.yul\":2388:2397   */\n      dup6\n        /* \"#utility.yul\":2384:2406   */\n      add\n        /* \"#utility.yul\":2363:2416   */\n      tag_412\n      jump\t// in\n    tag_530:\n        /* \"#utility.yul\":2353:2416   */\n      swap2\n      pop\n        /* \"#utility.yul\":2309:2426   */\n      pop\n        /* \"#utility.yul\":2104:2433   */\n      swap3\n      swap2\n      pop\n      pop\n      jump\t// out\n        /* \"#utility.yul\":2439:2557   */\n    tag_415:\n        /* \"#utility.yul\":2526:2550   */\n      tag_532\n        /* \"#utility.yul\":2544:2549   */\n      dup2\n        /* \"#utility.yul\":2526:2550   */\n      tag_406\n      jump\t// in\n    tag_532:\n        /* \"#utility.yul\":2521:2524   */\n      dup3\n        /* \"#utility.yul\":2514:2551   */\n      mstore\n        /* \"#utility.yul\":2439:2557   */\n      pop\n      pop\n      jump\t// out\n        /* \"#utility.yul\":2563:2785   */\n    tag_38:\n        /* \"#utility.yul\":2656:2660   */\n      0x00\n        /* \"#utility.yul\":2694:2696   */\n      0x20\n        /* \"#utility.yul\":2683:2692   */\n      dup3\n        /* \"#utility.yul\":2679:2697   */\n      add\n        /* \"#utility.yul\":2671:2697   */\n      swap1\n      pop\n        /* \"#utility.yul\":2707:2778   */\n      tag_534\n        /* \"#utility.yul\":2775:2776   */\n      0x00\n        /* \"#utility.yul\":2764:2773   */\n      dup4\n        /* \"#utility.yul\":2760:2777   */\n      add\n        /* \"#utility.yul\":2751:2757   */\n      dup5\n        /* \"#utility.yul\":2707:2778   */\n      tag_415\n      jump\t// in\n    tag_534:\n        /* \"#utility.yul\":2563:2785   */\n      swap3\n      swap2\n      pop\n      pop\n      jump\t// out\n        /* \"#utility.yul\":2791:3120   */\n    tag_42:\n        /* \"#utility.yul\":2850:2856   */\n      0x00\n        /* \"#utility.yul\":2899:2901   */\n      0x20\n        /* \"#utility.yul\":2887:2896   */\n      dup3\n        /* \"#utility.yul\":2878:2885   */\n      dup5\n        /* \"#utility.yul\":2874:2897   */\n      sub\n        /* \"#utility.yul\":2870:2902   */\n      slt\n        /* \"#utility.yul\":2867:2986   */\n      iszero\n      tag_536\n      jumpi\n        /* \"#utility.yul\":2905:2984   */\n      tag_537\n      tag_404\n      jump\t// in\n    tag_537:\n        /* \"#utility.yul\":2867:2986   */\n    tag_536:\n        /* \"#utility.yul\":3025:3026   */\n      0x00\n        /* \"#utility.yul\":3050:3103   */\n      tag_538\n        /* \"#utility.yul\":3095:3102   */\n      dup5\n        /* \"#utility.yul\":3086:3092   */\n      dup3\n        /* \"#utility.yul\":3075:3084   */\n      dup6\n        /* \"#utility.yul\":3071:3093   */\n      add\n        /* \"#utility.yul\":3050:3103   */\n      tag_408\n      jump\t// in\n    tag_538:\n        /* \"#utility.yul\":3040:3103   */\n      swap2\n      pop\n        /* \"#utility.yul\":2996:3113   */\n      pop\n        /* \"#utility.yul\":2791:3120   */\n      swap3\n      swap2\n      pop\n      pop\n      jump\t// out\n        /* \"#utility.yul\":3126:3745   */\n    tag_56:\n        /* \"#utility.yul\":3203:3209   */\n      0x00\n        /* \"#utility.yul\":3211:3217   */\n      dup1\n        /* \"#utility.yul\":3219:3225   */\n      0x00\n        /* \"#utility.yul\":3268:3270   */\n      0x60\n        /* \"#utility.yul\":3256:3265   */\n      dup5\n        /* \"#utility.yul\":3247:3254   */\n      dup7\n        /* \"#utility.yul\":3243:3266   */\n      sub\n        /* \"#utility.yul\":3239:3271   */\n      slt\n        /* \"#utility.yul\":3236:3355   */\n      iszero\n      tag_540\n      jumpi\n        /* \"#utility.yul\":3274:3353   */\n      tag_541\n      tag_404\n      jump\t// in\n    tag_541:\n        /* \"#utility.yul\":3236:3355   */\n    tag_540:\n        /* \"#utility.yul\":3394:3395   */\n      0x00\n        /* \"#utility.yul\":3419:3472   */\n      tag_542\n        /* \"#utility.yul\":3464:3471   */\n      dup7\n        /* \"#utility.yul\":3455:3461   */\n      dup3\n        /* \"#utility.yul\":3444:3453   */\n      dup8\n        /* \"#utility.yul\":3440:3462   */\n      add\n        /* \"#utility.yul\":3419:3472   */\n      tag_408\n      jump\t// in\n    tag_542:\n        /* \"#utility.yul\":3409:3472   */\n      swap4\n      pop\n        /* \"#utility.yul\":3365:3482   */\n      pop\n        /* \"#utility.yul\":3521:3523   */\n      0x20\n        /* \"#utility.yul\":3547:3600   */\n      tag_543\n        /* \"#utility.yul\":3592:3599   */\n      dup7\n        /* \"#utility.yul\":3583:3589   */\n      dup3\n        /* \"#utility.yul\":3572:3581   */\n      dup8\n        /* \"#utility.yul\":3568:3590   */\n      add\n        /* \"#utility.yul\":3547:3600   */\n      tag_408\n      jump\t// in\n    tag_543:\n        /* \"#utility.yul\":3537:3600   */\n      swap3\n      pop\n        /* \"#utility.yul\":3492:3610   */\n      pop\n        /* \"#utility.yul\":3649:3651   */\n      0x40\n        /* \"#utility.yul\":3675:3728   */\n      tag_544\n        /* \"#utility.yul\":3720:3727   */\n      dup7\n        /* \"#utility.yul\":3711:3717   */\n      dup3\n        /* \"#utility.yul\":3700:3709   */\n      dup8\n        /* \"#utility.yul\":3696:3718   */\n      add\n        /* \"#utility.yul\":3675:3728   */\n      tag_408\n      jump\t// in\n    tag_544:\n        /* \"#utility.yul\":3665:3728   */\n      swap2\n      pop\n        /* \"#utility.yul\":3620:3738   */\n      pop\n        /* \"#utility.yul\":3126:3745   */\n      swap3\n      pop\n      swap3\n      pop\n      swap3\n      jump\t// out\n        /* \"#utility.yul\":3751:3869   */\n    tag_416:\n        /* \"#utility.yul\":3838:3862   */\n      tag_546\n        /* \"#utility.yul\":3856:3861   */\n      dup2\n        /* \"#utility.yul\":3838:3862   */\n      tag_410\n      jump\t// in\n    tag_546:\n        /* \"#utility.yul\":3833:3836   */\n      dup3\n        /* \"#utility.yul\":3826:3863   */\n      mstore\n        /* \"#utility.yul\":3751:3869   */\n      pop\n      pop\n      jump\t// out\n        /* \"#utility.yul\":3875:4207   */\n    tag_59:\n        /* \"#utility.yul\":3996:4000   */\n      0x00\n        /* \"#utility.yul\":4034:4036   */\n      0x40\n        /* \"#utility.yul\":4023:4032   */\n      dup3\n        /* \"#utility.yul\":4019:4037   */\n      add\n        /* \"#utility.yul\":4011:4037   */\n      swap1\n      pop\n        /* \"#utility.yul\":4047:4118   */\n      tag_548\n        /* \"#utility.yul\":4115:4116   */\n      0x00\n        /* \"#utility.yul\":4104:4113   */\n      dup4\n        /* \"#utility.yul\":4100:4117   */\n      add\n        /* \"#utility.yul\":4091:4097   */\n      dup6\n        /* \"#utility.yul\":4047:4118   */\n      tag_416\n      jump\t// in\n    tag_548:\n        /* \"#utility.yul\":4128:4200   */\n      tag_549\n        /* \"#utility.yul\":4196:4198   */\n      0x20\n        /* \"#utility.yul\":4185:4194   */\n      dup4\n        /* \"#utility.yul\":4181:4199   */\n      add\n        /* \"#utility.yul\":4172:4178   */\n      dup5\n        /* \"#utility.yul\":4128:4200   */\n      tag_415\n      jump\t// in\n    tag_549:\n        /* \"#utility.yul\":3875:4207   */\n      swap4\n      swap3\n      pop\n      pop\n      pop\n      jump\t// out\n        /* \"#utility.yul\":4213:4330   */\n    tag_417:\n        /* \"#utility.yul\":4322:4323   */\n      0x00\n        /* \"#utility.yul\":4319:4320   */\n      dup1\n        /* \"#utility.yul\":4312:4324   */\n      revert\n        /* \"#utility.yul\":4336:4453   */\n    tag_418:\n        /* \"#utility.yul\":4445:4446   */\n      0x00\n        /* \"#utility.yul\":4442:4443   */\n      dup1\n        /* \"#utility.yul\":4435:4447   */\n      revert\n        /* \"#utility.yul\":4459:4561   */\n    tag_419:\n        /* \"#utility.yul\":4500:4506   */\n      0x00\n        /* \"#utility.yul\":4551:4553   */\n      0x1f\n        /* \"#utility.yul\":4547:4554   */\n      not\n        /* \"#utility.yul\":4542:4544   */\n      0x1f\n        /* \"#utility.yul\":4535:4540   */\n      dup4\n        /* \"#utility.yul\":4531:4545   */\n      add\n        /* \"#utility.yul\":4527:4555   */\n      and\n        /* \"#utility.yul\":4517:4555   */\n      swap1\n      pop\n        /* \"#utility.yul\":4459:4561   */\n      swap2\n      swap1\n      pop\n      jump\t// out\n        /* \"#utility.yul\":4567:4747   */\n    tag_157:\n        /* \"#utility.yul\":4615:4692   */\n      0x4e487b7100000000000000000000000000000000000000000000000000000000\n        /* \"#utility.yul\":4612:4613   */\n      0x00\n        /* \"#utility.yul\":4605:4693   */\n      mstore\n        /* \"#utility.yul\":4712:4716   */\n      0x41\n        /* \"#utility.yul\":4709:4710   */\n      0x04\n        /* \"#utility.yul\":4702:4717   */\n      mstore\n        /* \"#utility.yul\":4736:4740   */\n      0x24\n        /* \"#utility.yul\":4733:4734   */\n      0x00\n        /* \"#utility.yul\":4726:4741   */\n      revert\n        /* \"#utility.yul\":4753:5034   */\n    tag_420:\n        /* \"#utility.yul\":4836:4863   */\n      tag_555\n        /* \"#utility.yul\":4858:4862   */\n      dup3\n        /* \"#utility.yul\":4836:4863   */\n      tag_419\n      jump\t// in\n    tag_555:\n        /* \"#utility.yul\":4828:4834   */\n      dup2\n        /* \"#utility.yul\":4824:4864   */\n      add\n        /* \"#utility.yul\":4966:4972   */\n      dup2\n        /* \"#utility.yul\":4954:4964   */\n      dup2\n        /* \"#utility.yul\":4951:4973   */\n      lt\n        /* \"#utility.yul\":4930:4948   */\n      0xffffffffffffffff\n        /* \"#utility.yul\":4918:4928   */\n      dup3\n        /* \"#utility.yul\":4915:4949   */\n      gt\n        /* \"#utility.yul\":4912:4974   */\n      or\n        /* \"#utility.yul\":4909:4997   */\n      iszero\n      tag_556\n      jumpi\n        /* \"#utility.yul\":4977:4995   */\n      tag_557\n      tag_157\n      jump\t// in\n    tag_557:\n        /* \"#utility.yul\":4909:4997   */\n    tag_556:\n        /* \"#utility.yul\":5017:5027   */\n      dup1\n        /* \"#utility.yul\":5013:5015   */\n      0x40\n        /* \"#utility.yul\":5006:5028   */\n      mstore\n        /* \"#utility.yul\":4796:5034   */\n      pop\n        /* \"#utility.yul\":4753:5034   */\n      pop\n      pop\n      jump\t// out\n        /* \"#utility.yul\":5040:5169   */\n    tag_421:\n        /* \"#utility.yul\":5074:5080   */\n      0x00\n        /* \"#utility.yul\":5101:5121   */\n      tag_559\n      tag_403\n      jump\t// in\n    tag_559:\n        /* \"#utility.yul\":5091:5121   */\n      swap1\n      pop\n        /* \"#utility.yul\":5130:5163   */\n      tag_560\n        /* \"#utility.yul\":5158:5162   */\n      dup3\n        /* \"#utility.yul\":5150:5156   */\n      dup3\n        /* \"#utility.yul\":5130:5163   */\n      tag_420\n      jump\t// in\n    tag_560:\n        /* \"#utility.yul\":5040:5169   */\n      swap2\n      swap1\n      pop\n      jump\t// out\n        /* \"#utility.yul\":5175:5482   */\n    tag_422:\n        /* \"#utility.yul\":5236:5240   */\n      0x00\n        /* \"#utility.yul\":5326:5344   */\n      0xffffffffffffffff\n        /* \"#utility.yul\":5318:5324   */\n      dup3\n        /* \"#utility.yul\":5315:5345   */\n      gt\n        /* \"#utility.yul\":5312:5368   */\n      iszero\n      tag_562\n      jumpi\n        /* \"#utility.yul\":5348:5366   */\n      tag_563\n      tag_157\n      jump\t// in\n    tag_563:\n        /* \"#utility.yul\":5312:5368   */\n    tag_562:\n        /* \"#utility.yul\":5386:5415   */\n      tag_564\n        /* \"#utility.yul\":5408:5414   */\n      dup3\n        /* \"#utility.yul\":5386:5415   */\n      tag_419\n      jump\t// in\n    tag_564:\n        /* \"#utility.yul\":5378:5415   */\n      swap1\n      pop\n        /* \"#utility.yul\":5470:5474   */\n      0x20\n        /* \"#utility.yul\":5464:5468   */\n      dup2\n        /* \"#utility.yul\":5460:5475   */\n      add\n        /* \"#utility.yul\":5452:5475   */\n      swap1\n      pop\n        /* \"#utility.yul\":5175:5482   */\n      swap2\n      swap1\n      pop\n      jump\t// out\n        /* \"#utility.yul\":5488:5636   */\n    tag_423:\n        /* \"#utility.yul\":5586:5592   */\n      dup3\n        /* \"#utility.yul\":5581:5584   */\n      dup2\n        /* \"#utility.yul\":5576:5579   */\n      dup4\n        /* \"#utility.yul\":5563:5593   */\n      calldatacopy\n        /* \"#utility.yul\":5627:5628   */\n      0x00\n        /* \"#utility.yul\":5618:5624   */\n      dup4\n        /* \"#utility.yul\":5613:5616   */\n      dup4\n        /* \"#utility.yul\":5609:5625   */\n      add\n        /* \"#utility.yul\":5602:5629   */\n      mstore\n        /* \"#utility.yul\":5488:5636   */\n      pop\n      pop\n      pop\n      jump\t// out\n        /* \"#utility.yul\":5642:6065   */\n    tag_424:\n        /* \"#utility.yul\":5719:5724   */\n      0x00\n        /* \"#utility.yul\":5744:5809   */\n      tag_567\n        /* \"#utility.yul\":5760:5808   */\n      tag_568\n        /* \"#utility.yul\":5801:5807   */\n      dup5\n        /* \"#utility.yul\":5760:5808   */\n      tag_422\n      jump\t// in\n    tag_568:\n        /* \"#utility.yul\":5744:5809   */\n      tag_421\n      jump\t// in\n    tag_567:\n        /* \"#utility.yul\":5735:5809   */\n      swap1\n      pop\n        /* \"#utility.yul\":5832:5838   */\n      dup3\n        /* \"#utility.yul\":5825:5830   */\n      dup2\n        /* \"#utility.yul\":5818:5839   */\n      mstore\n        /* \"#utility.yul\":5870:5874   */\n      0x20\n        /* \"#utility.yul\":5863:5868   */\n      dup2\n        /* \"#utility.yul\":5859:5875   */\n      add\n        /* \"#utility.yul\":5908:5911   */\n      dup5\n        /* \"#utility.yul\":5899:5905   */\n      dup5\n        /* \"#utility.yul\":5894:5897   */\n      dup5\n        /* \"#utility.yul\":5890:5906   */\n      add\n        /* \"#utility.yul\":5887:5912   */\n      gt\n        /* \"#utility.yul\":5884:5996   */\n      iszero\n      tag_569\n      jumpi\n        /* \"#utility.yul\":5915:5994   */\n      tag_570\n      tag_418\n      jump\t// in\n    tag_570:\n        /* \"#utility.yul\":5884:5996   */\n    tag_569:\n        /* \"#utility.yul\":6005:6059   */\n      tag_571\n        /* \"#utility.yul\":6052:6058   */\n      dup5\n        /* \"#utility.yul\":6047:6050   */\n      dup3\n        /* \"#utility.yul\":6042:6045   */\n      dup6\n        /* \"#utility.yul\":6005:6059   */\n      tag_423\n      jump\t// in\n    tag_571:\n        /* \"#utility.yul\":5725:6065   */\n      pop\n        /* \"#utility.yul\":5642:6065   */\n      swap4\n      swap3\n      pop\n      pop\n      pop\n      jump\t// out\n        /* \"#utility.yul\":6084:6422   */\n    tag_425:\n        /* \"#utility.yul\":6139:6144   */\n      0x00\n        /* \"#utility.yul\":6188:6191   */\n      dup3\n        /* \"#utility.yul\":6181:6185   */\n      0x1f\n        /* \"#utility.yul\":6173:6179   */\n      dup4\n        /* \"#utility.yul\":6169:6186   */\n      add\n        /* \"#utility.yul\":6165:6192   */\n      slt\n        /* \"#utility.yul\":6155:6277   */\n      tag_573\n      jumpi\n        /* \"#utility.yul\":6196:6275   */\n      tag_574\n      tag_417\n      jump\t// in\n    tag_574:\n        /* \"#utility.yul\":6155:6277   */\n    tag_573:\n        /* \"#utility.yul\":6313:6319   */\n      dup2\n        /* \"#utility.yul\":6300:6320   */\n      calldataload\n        /* \"#utility.yul\":6338:6416   */\n      tag_575\n        /* \"#utility.yul\":6412:6415   */\n      dup5\n        /* \"#utility.yul\":6404:6410   */\n      dup3\n        /* \"#utility.yul\":6397:6401   */\n      0x20\n        /* \"#utility.yul\":6389:6395   */\n      dup7\n        /* \"#utility.yul\":6385:6402   */\n      add\n        /* \"#utility.yul\":6338:6416   */\n      tag_424\n      jump\t// in\n    tag_575:\n        /* \"#utility.yul\":6329:6416   */\n      swap2\n      pop\n        /* \"#utility.yul\":6145:6422   */\n      pop\n        /* \"#utility.yul\":6084:6422   */\n      swap3\n      swap2\n      pop\n      pop\n      jump\t// out\n        /* \"#utility.yul\":6428:7080   */\n    tag_62:\n        /* \"#utility.yul\":6505:6511   */\n      0x00\n        /* \"#utility.yul\":6513:6519   */\n      dup1\n        /* \"#utility.yul\":6562:6564   */\n      0x40\n        /* \"#utility.yul\":6550:6559   */\n      dup4\n        /* \"#utility.yul\":6541:6548   */\n      dup6\n        /* \"#utility.yul\":6537:6560   */\n      sub\n        /* \"#utility.yul\":6533:6565   */\n      slt\n        /* \"#utility.yul\":6530:6649   */\n      iszero\n      tag_577\n      jumpi\n        /* \"#utility.yul\":6568:6647   */\n      tag_578\n      tag_404\n      jump\t// in\n    tag_578:\n        /* \"#utility.yul\":6530:6649   */\n    tag_577:\n        /* \"#utility.yul\":6688:6689   */\n      0x00\n        /* \"#utility.yul\":6713:6766   */\n      tag_579\n        /* \"#utility.yul\":6758:6765   */\n      dup6\n        /* \"#utility.yul\":6749:6755   */\n      dup3\n        /* \"#utility.yul\":6738:6747   */\n      dup7\n        /* \"#utility.yul\":6734:6756   */\n      add\n        /* \"#utility.yul\":6713:6766   */\n      tag_412\n      jump\t// in\n    tag_579:\n        /* \"#utility.yul\":6703:6766   */\n      swap3\n      pop\n        /* \"#utility.yul\":6659:6776   */\n      pop\n        /* \"#utility.yul\":6843:6845   */\n      0x20\n        /* \"#utility.yul\":6832:6841   */\n      dup4\n        /* \"#utility.yul\":6828:6846   */\n      add\n        /* \"#utility.yul\":6815:6847   */\n      calldataload\n        /* \"#utility.yul\":6874:6892   */\n      0xffffffffffffffff\n        /* \"#utility.yul\":6866:6872   */\n      dup2\n        /* \"#utility.yul\":6863:6893   */\n      gt\n        /* \"#utility.yul\":6860:6977   */\n      iszero\n      tag_580\n      jumpi\n        /* \"#utility.yul\":6896:6975   */\n      tag_581\n      tag_405\n      jump\t// in\n    tag_581:\n        /* \"#utility.yul\":6860:6977   */\n    tag_580:\n        /* \"#utility.yul\":7001:7063   */\n      tag_582\n        /* \"#utility.yul\":7055:7062   */\n      dup6\n        /* \"#utility.yul\":7046:7052   */\n      dup3\n        /* \"#utility.yul\":7035:7044   */\n      dup7\n        /* \"#utility.yul\":7031:7053   */\n      add\n        /* \"#utility.yul\":7001:7063   */\n      tag_425\n      jump\t// in\n    tag_582:\n        /* \"#utility.yul\":6991:7063   */\n      swap2\n      pop\n        /* \"#utility.yul\":6786:7073   */\n      pop\n        /* \"#utility.yul\":6428:7080   */\n      swap3\n      pop\n      swap3\n      swap1\n      pop\n      jump\t// out\n        /* \"#utility.yul\":7086:7163   */\n    tag_426:\n        /* \"#utility.yul\":7123:7130   */\n      0x00\n        /* \"#utility.yul\":7152:7157   */\n      dup2\n        /* \"#utility.yul\":7141:7157   */\n      swap1\n      pop\n        /* \"#utility.yul\":7086:7163   */\n      swap2\n      swap1\n      pop\n      jump\t// out\n        /* \"#utility.yul\":7169:7287   */\n    tag_427:\n        /* \"#utility.yul\":7256:7280   */\n      tag_585\n        /* \"#utility.yul\":7274:7279   */\n      dup2\n        /* \"#utility.yul\":7256:7280   */\n      tag_426\n      jump\t// in\n    tag_585:\n        /* \"#utility.yul\":7251:7254   */\n      dup3\n        /* \"#utility.yul\":7244:7281   */\n      mstore\n        /* \"#utility.yul\":7169:7287   */\n      pop\n      pop\n      jump\t// out\n        /* \"#utility.yul\":7293:7515   */\n    tag_68:\n        /* \"#utility.yul\":7386:7390   */\n      0x00\n        /* \"#utility.yul\":7424:7426   */\n      0x20\n        /* \"#utility.yul\":7413:7422   */\n      dup3\n        /* \"#utility.yul\":7409:7427   */\n      add\n        /* \"#utility.yul\":7401:7427   */\n      swap1\n      pop\n        /* \"#utility.yul\":7437:7508   */\n      tag_587\n        /* \"#utility.yul\":7505:7506   */\n      0x00\n        /* \"#utility.yul\":7494:7503   */\n      dup4\n        /* \"#utility.yul\":7490:7507   */\n      add\n        /* \"#utility.yul\":7481:7487   */\n      dup5\n        /* \"#utility.yul\":7437:7508   */\n      tag_427\n      jump\t// in\n    tag_587:\n        /* \"#utility.yul\":7293:7515   */\n      swap3\n      swap2\n      pop\n      pop\n      jump\t// out\n        /* \"#utility.yul\":7521:7842   */\n    tag_428:\n        /* \"#utility.yul\":7608:7612   */\n      0x00\n        /* \"#utility.yul\":7698:7716   */\n      0xffffffffffffffff\n        /* \"#utility.yul\":7690:7696   */\n      dup3\n        /* \"#utility.yul\":7687:7717   */\n      gt\n        /* \"#utility.yul\":7684:7740   */\n      iszero\n      tag_589\n      jumpi\n        /* \"#utility.yul\":7720:7738   */\n      tag_590\n      tag_157\n      jump\t// in\n    tag_590:\n        /* \"#utility.yul\":7684:7740   */\n    tag_589:\n        /* \"#utility.yul\":7770:7774   */\n      0x20\n        /* \"#utility.yul\":7762:7768   */\n      dup3\n        /* \"#utility.yul\":7758:7775   */\n      mul\n        /* \"#utility.yul\":7750:7775   */\n      swap1\n      pop\n        /* \"#utility.yul\":7830:7834   */\n      0x20\n        /* \"#utility.yul\":7824:7828   */\n      dup2\n        /* \"#utility.yul\":7820:7835   */\n      add\n        /* \"#utility.yul\":7812:7835   */\n      swap1\n      pop\n        /* \"#utility.yul\":7521:7842   */\n      swap2\n      swap1\n      pop\n      jump\t// out\n        /* \"#utility.yul\":7848:7965   */\n    tag_429:\n        /* \"#utility.yul\":7957:7958   */\n      0x00\n        /* \"#utility.yul\":7954:7955   */\n      dup1\n        /* \"#utility.yul\":7947:7959   */\n      revert\n        /* \"#utility.yul\":7971:8279   */\n    tag_430:\n        /* \"#utility.yul\":8033:8037   */\n      0x00\n        /* \"#utility.yul\":8123:8141   */\n      0xffffffffffffffff\n        /* \"#utility.yul\":8115:8121   */\n      dup3\n        /* \"#utility.yul\":8112:8142   */\n      gt\n        /* \"#utility.yul\":8109:8165   */\n      iszero\n      tag_593\n      jumpi\n        /* \"#utility.yul\":8145:8163   */\n      tag_594\n      tag_157\n      jump\t// in\n    tag_594:\n        /* \"#utility.yul\":8109:8165   */\n    tag_593:\n        /* \"#utility.yul\":8183:8212   */\n      tag_595\n        /* \"#utility.yul\":8205:8211   */\n      dup3\n        /* \"#utility.yul\":8183:8212   */\n      tag_419\n      jump\t// in\n    tag_595:\n        /* \"#utility.yul\":8175:8212   */\n      swap1\n      pop\n        /* \"#utility.yul\":8267:8271   */\n      0x20\n        /* \"#utility.yul\":8261:8265   */\n      dup2\n        /* \"#utility.yul\":8257:8272   */\n      add\n        /* \"#utility.yul\":8249:8272   */\n      swap1\n      pop\n        /* \"#utility.yul\":7971:8279   */\n      swap2\n      swap1\n      pop\n      jump\t// out\n        /* \"#utility.yul\":8285:8710   */\n    tag_431:\n        /* \"#utility.yul\":8363:8368   */\n      0x00\n        /* \"#utility.yul\":8388:8454   */\n      tag_597\n        /* \"#utility.yul\":8404:8453   */\n      tag_598\n        /* \"#utility.yul\":8446:8452   */\n      dup5\n        /* \"#utility.yul\":8404:8453   */\n      tag_430\n      jump\t// in\n    tag_598:\n        /* \"#utility.yul\":8388:8454   */\n      tag_421\n      jump\t// in\n    tag_597:\n        /* \"#utility.yul\":8379:8454   */\n      swap1\n      pop\n        /* \"#utility.yul\":8477:8483   */\n      dup3\n        /* \"#utility.yul\":8470:8475   */\n      dup2\n        /* \"#utility.yul\":8463:8484   */\n      mstore\n        /* \"#utility.yul\":8515:8519   */\n      0x20\n        /* \"#utility.yul\":8508:8513   */\n      dup2\n        /* \"#utility.yul\":8504:8520   */\n      add\n        /* \"#utility.yul\":8553:8556   */\n      dup5\n        /* \"#utility.yul\":8544:8550   */\n      dup5\n        /* \"#utility.yul\":8539:8542   */\n      dup5\n        /* \"#utility.yul\":8535:8551   */\n      add\n        /* \"#utility.yul\":8532:8557   */\n      gt\n        /* \"#utility.yul\":8529:8641   */\n      iszero\n      tag_599\n      jumpi\n        /* \"#utility.yul\":8560:8639   */\n      tag_600\n      tag_418\n      jump\t// in\n    tag_600:\n        /* \"#utility.yul\":8529:8641   */\n    tag_599:\n        /* \"#utility.yul\":8650:8704   */\n      tag_601\n        /* \"#utility.yul\":8697:8703   */\n      dup5\n        /* \"#utility.yul\":8692:8695   */\n      dup3\n        /* \"#utility.yul\":8687:8690   */\n      dup6\n        /* \"#utility.yul\":8650:8704   */\n      tag_423\n      jump\t// in\n    tag_601:\n        /* \"#utility.yul\":8369:8710   */\n      pop\n        /* \"#utility.yul\":8285:8710   */\n      swap4\n      swap3\n      pop\n      pop\n      pop\n      jump\t// out\n        /* \"#utility.yul\":8730:9070   */\n    tag_432:\n        /* \"#utility.yul\":8786:8791   */\n      0x00\n        /* \"#utility.yul\":8835:8838   */\n      dup3\n        /* \"#utility.yul\":8828:8832   */\n      0x1f\n        /* \"#utility.yul\":8820:8826   */\n      dup4\n        /* \"#utility.yul\":8816:8833   */\n      add\n        /* \"#utility.yul\":8812:8839   */\n      slt\n        /* \"#utility.yul\":8802:8924   */\n      tag_603\n      jumpi\n        /* \"#utility.yul\":8843:8922   */\n      tag_604\n      tag_417\n      jump\t// in\n    tag_604:\n        /* \"#utility.yul\":8802:8924   */\n    tag_603:\n        /* \"#utility.yul\":8960:8966   */\n      dup2\n        /* \"#utility.yul\":8947:8967   */\n      calldataload\n        /* \"#utility.yul\":8985:9064   */\n      tag_605\n        /* \"#utility.yul\":9060:9063   */\n      dup5\n        /* \"#utility.yul\":9052:9058   */\n      dup3\n        /* \"#utility.yul\":9045:9049   */\n      0x20\n        /* \"#utility.yul\":9037:9043   */\n      dup7\n        /* \"#utility.yul\":9033:9050   */\n      add\n        /* \"#utility.yul\":8985:9064   */\n      tag_431\n      jump\t// in\n    tag_605:\n        /* \"#utility.yul\":8976:9064   */\n      swap2\n      pop\n        /* \"#utility.yul\":8792:9070   */\n      pop\n        /* \"#utility.yul\":8730:9070   */\n      swap3\n      swap2\n      pop\n      pop\n      jump\t// out\n        /* \"#utility.yul\":9092:10037   */\n    tag_433:\n        /* \"#utility.yul\":9198:9203   */\n      0x00\n        /* \"#utility.yul\":9223:9314   */\n      tag_607\n        /* \"#utility.yul\":9239:9313   */\n      tag_608\n        /* \"#utility.yul\":9306:9312   */\n      dup5\n        /* \"#utility.yul\":9239:9313   */\n      tag_428\n      jump\t// in\n    tag_608:\n        /* \"#utility.yul\":9223:9314   */\n      tag_421\n      jump\t// in\n    tag_607:\n        /* \"#utility.yul\":9214:9314   */\n      swap1\n      pop\n        /* \"#utility.yul\":9334:9339   */\n      dup1\n        /* \"#utility.yul\":9363:9369   */\n      dup4\n        /* \"#utility.yul\":9356:9361   */\n      dup3\n        /* \"#utility.yul\":9349:9370   */\n      mstore\n        /* \"#utility.yul\":9397:9401   */\n      0x20\n        /* \"#utility.yul\":9390:9395   */\n      dup3\n        /* \"#utility.yul\":9386:9402   */\n      add\n        /* \"#utility.yul\":9379:9402   */\n      swap1\n      pop\n        /* \"#utility.yul\":9450:9454   */\n      0x20\n        /* \"#utility.yul\":9442:9448   */\n      dup5\n        /* \"#utility.yul\":9438:9455   */\n      mul\n        /* \"#utility.yul\":9430:9436   */\n      dup4\n        /* \"#utility.yul\":9426:9456   */\n      add\n        /* \"#utility.yul\":9479:9482   */\n      dup6\n        /* \"#utility.yul\":9471:9477   */\n      dup2\n        /* \"#utility.yul\":9468:9483   */\n      gt\n        /* \"#utility.yul\":9465:9587   */\n      iszero\n      tag_609\n      jumpi\n        /* \"#utility.yul\":9498:9577   */\n      tag_610\n      tag_429\n      jump\t// in\n    tag_610:\n        /* \"#utility.yul\":9465:9587   */\n    tag_609:\n        /* \"#utility.yul\":9613:9619   */\n      dup4\n        /* \"#utility.yul\":9596:10031   */\n    tag_611:\n        /* \"#utility.yul\":9630:9636   */\n      dup2\n        /* \"#utility.yul\":9625:9628   */\n      dup2\n        /* \"#utility.yul\":9622:9637   */\n      lt\n        /* \"#utility.yul\":9596:10031   */\n      iszero\n      tag_613\n      jumpi\n        /* \"#utility.yul\":9719:9722   */\n      dup1\n        /* \"#utility.yul\":9706:9723   */\n      calldataload\n        /* \"#utility.yul\":9755:9773   */\n      0xffffffffffffffff\n        /* \"#utility.yul\":9742:9753   */\n      dup2\n        /* \"#utility.yul\":9739:9774   */\n      gt\n        /* \"#utility.yul\":9736:9858   */\n      iszero\n      tag_614\n      jumpi\n        /* \"#utility.yul\":9777:9856   */\n      tag_615\n      tag_417\n      jump\t// in\n    tag_615:\n        /* \"#utility.yul\":9736:9858   */\n    tag_614:\n        /* \"#utility.yul\":9901:9912   */\n      dup1\n        /* \"#utility.yul\":9893:9899   */\n      dup7\n        /* \"#utility.yul\":9889:9913   */\n      add\n        /* \"#utility.yul\":9939:9986   */\n      tag_616\n        /* \"#utility.yul\":9982:9985   */\n      dup10\n        /* \"#utility.yul\":9970:9980   */\n      dup3\n        /* \"#utility.yul\":9939:9986   */\n      tag_432\n      jump\t// in\n    tag_616:\n        /* \"#utility.yul\":9934:9937   */\n      dup6\n        /* \"#utility.yul\":9927:9987   */\n      mstore\n        /* \"#utility.yul\":10016:10020   */\n      0x20\n        /* \"#utility.yul\":10011:10014   */\n      dup6\n        /* \"#utility.yul\":10007:10021   */\n      add\n        /* \"#utility.yul\":10000:10021   */\n      swap5\n      pop\n        /* \"#utility.yul\":9672:10031   */\n      pop\n      pop\n        /* \"#utility.yul\":9656:9660   */\n      0x20\n        /* \"#utility.yul\":9651:9654   */\n      dup2\n        /* \"#utility.yul\":9647:9661   */\n      add\n        /* \"#utility.yul\":9640:9661   */\n      swap1\n      pop\n        /* \"#utility.yul\":9596:10031   */\n      jump(tag_611)\n    tag_613:\n        /* \"#utility.yul\":9600:9621   */\n      pop\n        /* \"#utility.yul\":9204:10037   */\n      pop\n      pop\n        /* \"#utility.yul\":9092:10037   */\n      swap4\n      swap3\n      pop\n      pop\n      pop\n      jump\t// out\n        /* \"#utility.yul\":10059:10449   */\n    tag_434:\n        /* \"#utility.yul\":10140:10145   */\n      0x00\n        /* \"#utility.yul\":10189:10192   */\n      dup3\n        /* \"#utility.yul\":10182:10186   */\n      0x1f\n        /* \"#utility.yul\":10174:10180   */\n      dup4\n        /* \"#utility.yul\":10170:10187   */\n      add\n        /* \"#utility.yul\":10166:10193   */\n      slt\n        /* \"#utility.yul\":10156:10278   */\n      tag_618\n      jumpi\n        /* \"#utility.yul\":10197:10276   */\n      tag_619\n      tag_417\n      jump\t// in\n    tag_619:\n        /* \"#utility.yul\":10156:10278   */\n    tag_618:\n        /* \"#utility.yul\":10314:10320   */\n      dup2\n        /* \"#utility.yul\":10301:10321   */\n      calldataload\n        /* \"#utility.yul\":10339:10443   */\n      tag_620\n        /* \"#utility.yul\":10439:10442   */\n      dup5\n        /* \"#utility.yul\":10431:10437   */\n      dup3\n        /* \"#utility.yul\":10424:10428   */\n      0x20\n        /* \"#utility.yul\":10416:10422   */\n      dup7\n        /* \"#utility.yul\":10412:10429   */\n      add\n        /* \"#utility.yul\":10339:10443   */\n      tag_433\n      jump\t// in\n    tag_620:\n        /* \"#utility.yul\":10330:10443   */\n      swap2\n      pop\n        /* \"#utility.yul\":10146:10449   */\n      pop\n        /* \"#utility.yul\":10059:10449   */\n      swap3\n      swap2\n      pop\n      pop\n      jump\t// out\n        /* \"#utility.yul\":10455:11014   */\n    tag_82:\n        /* \"#utility.yul\":10549:10555   */\n      0x00\n        /* \"#utility.yul\":10598:10600   */\n      0x20\n        /* \"#utility.yul\":10586:10595   */\n      dup3\n        /* \"#utility.yul\":10577:10584   */\n      dup5\n        /* \"#utility.yul\":10573:10596   */\n      sub\n        /* \"#utility.yul\":10569:10601   */\n      slt\n        /* \"#utility.yul\":10566:10685   */\n      iszero\n      tag_622\n      jumpi\n        /* \"#utility.yul\":10604:10683   */\n      tag_623\n      tag_404\n      jump\t// in\n    tag_623:\n        /* \"#utility.yul\":10566:10685   */\n    tag_622:\n        /* \"#utility.yul\":10752:10753   */\n      0x00\n        /* \"#utility.yul\":10741:10750   */\n      dup3\n        /* \"#utility.yul\":10737:10754   */\n      add\n        /* \"#utility.yul\":10724:10755   */\n      calldataload\n        /* \"#utility.yul\":10782:10800   */\n      0xffffffffffffffff\n        /* \"#utility.yul\":10774:10780   */\n      dup2\n        /* \"#utility.yul\":10771:10801   */\n      gt\n        /* \"#utility.yul\":10768:10885   */\n      iszero\n      tag_624\n      jumpi\n        /* \"#utility.yul\":10804:10883   */\n      tag_625\n      tag_405\n      jump\t// in\n    tag_625:\n        /* \"#utility.yul\":10768:10885   */\n    tag_624:\n        /* \"#utility.yul\":10909:10997   */\n      tag_626\n        /* \"#utility.yul\":10989:10996   */\n      dup5\n        /* \"#utility.yul\":10980:10986   */\n      dup3\n        /* \"#utility.yul\":10969:10978   */\n      dup6\n        /* \"#utility.yul\":10965:10987   */\n      add\n        /* \"#utility.yul\":10909:10997   */\n      tag_434\n      jump\t// in\n    tag_626:\n        /* \"#utility.yul\":10899:10997   */\n      swap2\n      pop\n        /* \"#utility.yul\":10695:11007   */\n      pop\n        /* \"#utility.yul\":10455:11014   */\n      swap3\n      swap2\n      pop\n      pop\n      jump\t// out\n        /* \"#utility.yul\":11020:11242   */\n    tag_93:\n        /* \"#utility.yul\":11113:11117   */\n      0x00\n        /* \"#utility.yul\":11151:11153   */\n      0x20\n        /* \"#utility.yul\":11140:11149   */\n      dup3\n        /* \"#utility.yul\":11136:11154   */\n      add\n        /* \"#utility.yul\":11128:11154   */\n      swap1\n      pop\n        /* \"#utility.yul\":11164:11235   */\n      tag_628\n        /* \"#utility.yul\":11232:11233   */\n      0x00\n        /* \"#utility.yul\":11221:11230   */\n      dup4\n        /* \"#utility.yul\":11217:11234   */\n      add\n        /* \"#utility.yul\":11208:11214   */\n      dup5\n        /* \"#utility.yul\":11164:11235   */\n      tag_416\n      jump\t// in\n    tag_628:\n        /* \"#utility.yul\":11020:11242   */\n      swap3\n      swap2\n      pop\n      pop\n      jump\t// out\n        /* \"#utility.yul\":11248:11722   */\n    tag_124:\n        /* \"#utility.yul\":11316:11322   */\n      0x00\n        /* \"#utility.yul\":11324:11330   */\n      dup1\n        /* \"#utility.yul\":11373:11375   */\n      0x40\n        /* \"#utility.yul\":11361:11370   */\n      dup4\n        /* \"#utility.yul\":11352:11359   */\n      dup6\n        /* \"#utility.yul\":11348:11371   */\n      sub\n        /* \"#utility.yul\":11344:11376   */\n      slt\n        /* \"#utility.yul\":11341:11460   */\n      iszero\n      tag_630\n      jumpi\n        /* \"#utility.yul\":11379:11458   */\n      tag_631\n      tag_404\n      jump\t// in\n    tag_631:\n        /* \"#utility.yul\":11341:11460   */\n    tag_630:\n        /* \"#utility.yul\":11499:11500   */\n      0x00\n        /* \"#utility.yul\":11524:11577   */\n      tag_632\n        /* \"#utility.yul\":11569:11576   */\n      dup6\n        /* \"#utility.yul\":11560:11566   */\n      dup3\n        /* \"#utility.yul\":11549:11558   */\n      dup7\n        /* \"#utility.yul\":11545:11567   */\n      add\n        /* \"#utility.yul\":11524:11577   */\n      tag_408\n      jump\t// in\n    tag_632:\n        /* \"#utility.yul\":11514:11577   */\n      swap3\n      pop\n        /* \"#utility.yul\":11470:11587   */\n      pop\n        /* \"#utility.yul\":11626:11628   */\n      0x20\n        /* \"#utility.yul\":11652:11705   */\n      tag_633\n        /* \"#utility.yul\":11697:11704   */\n      dup6\n        /* \"#utility.yul\":11688:11694   */\n      dup3\n        /* \"#utility.yul\":11677:11686   */\n      dup7\n        /* \"#utility.yul\":11673:11695   */\n      add\n        /* \"#utility.yul\":11652:11705   */\n      tag_408\n      jump\t// in\n    tag_633:\n        /* \"#utility.yul\":11642:11705   */\n      swap2\n      pop\n        /* \"#utility.yul\":11597:11715   */\n      pop\n        /* \"#utility.yul\":11248:11722   */\n      swap3\n      pop\n      swap3\n      swap1\n      pop\n      jump\t// out\n        /* \"#utility.yul\":11728:11818   */\n    tag_435:\n        /* \"#utility.yul\":11762:11769   */\n      0x00\n        /* \"#utility.yul\":11805:11810   */\n      dup2\n        /* \"#utility.yul\":11798:11811   */\n      iszero\n        /* \"#utility.yul\":11791:11812   */\n      iszero\n        /* \"#utility.yul\":11780:11812   */\n      swap1\n      pop\n        /* \"#utility.yul\":11728:11818   */\n      swap2\n      swap1\n      pop\n      jump\t// out\n        /* \"#utility.yul\":11824:11940   */\n    tag_436:\n        /* \"#utility.yul\":11894:11915   */\n      tag_636\n        /* \"#utility.yul\":11909:11914   */\n      dup2\n        /* \"#utility.yul\":11894:11915   */\n      tag_435\n      jump\t// in\n    tag_636:\n        /* \"#utility.yul\":11887:11892   */\n      dup2\n        /* \"#utility.yul\":11884:11916   */\n      eq\n        /* \"#utility.yul\":11874:11934   */\n      tag_637\n      jumpi\n        /* \"#utility.yul\":11930:11931   */\n      0x00\n        /* \"#utility.yul\":11927:11928   */\n      dup1\n        /* \"#utility.yul\":11920:11932   */\n      revert\n        /* \"#utility.yul\":11874:11934   */\n    tag_637:\n        /* \"#utility.yul\":11824:11940   */\n      pop\n      jump\t// out\n        /* \"#utility.yul\":11946:12083   */\n    tag_437:\n        /* \"#utility.yul\":12000:12005   */\n      0x00\n        /* \"#utility.yul\":12031:12037   */\n      dup2\n        /* \"#utility.yul\":12025:12038   */\n      mload\n        /* \"#utility.yul\":12016:12038   */\n      swap1\n      pop\n        /* \"#utility.yul\":12047:12077   */\n      tag_639\n        /* \"#utility.yul\":12071:12076   */\n      dup2\n        /* \"#utility.yul\":12047:12077   */\n      tag_436\n      jump\t// in\n    tag_639:\n        /* \"#utility.yul\":11946:12083   */\n      swap3\n      swap2\n      pop\n      pop\n      jump\t// out\n        /* \"#utility.yul\":12089:12434   */\n    tag_134:\n        /* \"#utility.yul\":12156:12162   */\n      0x00\n        /* \"#utility.yul\":12205:12207   */\n      0x20\n        /* \"#utility.yul\":12193:12202   */\n      dup3\n        /* \"#utility.yul\":12184:12191   */\n      dup5\n        /* \"#utility.yul\":12180:12203   */\n      sub\n        /* \"#utility.yul\":12176:12208   */\n      slt\n        /* \"#utility.yul\":12173:12292   */\n      iszero\n      tag_641\n      jumpi\n        /* \"#utility.yul\":12211:12290   */\n      tag_642\n      tag_404\n      jump\t// in\n    tag_642:\n        /* \"#utility.yul\":12173:12292   */\n    tag_641:\n        /* \"#utility.yul\":12331:12332   */\n      0x00\n        /* \"#utility.yul\":12356:12417   */\n      tag_643\n        /* \"#utility.yul\":12409:12416   */\n      dup5\n        /* \"#utility.yul\":12400:12406   */\n      dup3\n        /* \"#utility.yul\":12389:12398   */\n      dup6\n        /* \"#utility.yul\":12385:12407   */\n      add\n        /* \"#utility.yul\":12356:12417   */\n      tag_437\n      jump\t// in\n    tag_643:\n        /* \"#utility.yul\":12346:12417   */\n      swap2\n      pop\n        /* \"#utility.yul\":12302:12427   */\n      pop\n        /* \"#utility.yul\":12089:12434   */\n      swap3\n      swap2\n      pop\n      pop\n      jump\t// out\n        /* \"#utility.yul\":12440:12609   */\n    tag_438:\n        /* \"#utility.yul\":12524:12535   */\n      0x00\n        /* \"#utility.yul\":12558:12564   */\n      dup3\n        /* \"#utility.yul\":12553:12556   */\n      dup3\n        /* \"#utility.yul\":12546:12565   */\n      mstore\n        /* \"#utility.yul\":12598:12602   */\n      0x20\n        /* \"#utility.yul\":12593:12596   */\n      dup3\n        /* \"#utility.yul\":12589:12603   */\n      add\n        /* \"#utility.yul\":12574:12603   */\n      swap1\n      pop\n        /* \"#utility.yul\":12440:12609   */\n      swap3\n      swap2\n      pop\n      pop\n      jump\t// out\n        /* \"#utility.yul\":12615:12780   */\n    tag_439:\n        /* \"#utility.yul\":12755:12772   */\n      0x5472616e73666572206661696c65640000000000000000000000000000000000\n        /* \"#utility.yul\":12751:12752   */\n      0x00\n        /* \"#utility.yul\":12743:12749   */\n      dup3\n        /* \"#utility.yul\":12739:12753   */\n      add\n        /* \"#utility.yul\":12732:12773   */\n      mstore\n        /* \"#utility.yul\":12615:12780   */\n      pop\n      jump\t// out\n        /* \"#utility.yul\":12786:13152   */\n    tag_440:\n        /* \"#utility.yul\":12928:12931   */\n      0x00\n        /* \"#utility.yul\":12949:13016   */\n      tag_647\n        /* \"#utility.yul\":13013:13015   */\n      0x0f\n        /* \"#utility.yul\":13008:13011   */\n      dup4\n        /* \"#utility.yul\":12949:13016   */\n      tag_438\n      jump\t// in\n    tag_647:\n        /* \"#utility.yul\":12942:13016   */\n      swap2\n      pop\n        /* \"#utility.yul\":13025:13118   */\n      tag_648\n        /* \"#utility.yul\":13114:13117   */\n      dup3\n        /* \"#utility.yul\":13025:13118   */\n      tag_439\n      jump\t// in\n    tag_648:\n        /* \"#utility.yul\":13143:13145   */\n      0x20\n        /* \"#utility.yul\":13138:13141   */\n      dup3\n        /* \"#utility.yul\":13134:13146   */\n      add\n        /* \"#utility.yul\":13127:13146   */\n      swap1\n      pop\n        /* \"#utility.yul\":12786:13152   */\n      swap2\n      swap1\n      pop\n      jump\t// out\n        /* \"#utility.yul\":13158:13577   */\n    tag_137:\n        /* \"#utility.yul\":13324:13328   */\n      0x00\n        /* \"#utility.yul\":13362:13364   */\n      0x20\n        /* \"#utility.yul\":13351:13360   */\n      dup3\n        /* \"#utility.yul\":13347:13365   */\n      add\n        /* \"#utility.yul\":13339:13365   */\n      swap1\n      pop\n        /* \"#utility.yul\":13411:13420   */\n      dup2\n        /* \"#utility.yul\":13405:13409   */\n      dup2\n        /* \"#utility.yul\":13401:13421   */\n      sub\n        /* \"#utility.yul\":13397:13398   */\n      0x00\n        /* \"#utility.yul\":13386:13395   */\n      dup4\n        /* \"#utility.yul\":13382:13399   */\n      add\n        /* \"#utility.yul\":13375:13422   */\n      mstore\n        /* \"#utility.yul\":13439:13570   */\n      tag_650\n        /* \"#utility.yul\":13565:13569   */\n      dup2\n        /* \"#utility.yul\":13439:13570   */\n      tag_440\n      jump\t// in\n    tag_650:\n        /* \"#utility.yul\":13431:13570   */\n      swap1\n      pop\n        /* \"#utility.yul\":13158:13577   */\n      swap2\n      swap1\n      pop\n      jump\t// out\n        /* \"#utility.yul\":13583:13763   */\n    tag_441:\n        /* \"#utility.yul\":13631:13708   */\n      0x4e487b7100000000000000000000000000000000000000000000000000000000\n        /* \"#utility.yul\":13628:13629   */\n      0x00\n        /* \"#utility.yul\":13621:13709   */\n      mstore\n        /* \"#utility.yul\":13728:13732   */\n      0x11\n        /* \"#utility.yul\":13725:13726   */\n      0x04\n        /* \"#utility.yul\":13718:13733   */\n      mstore\n        /* \"#utility.yul\":13752:13756   */\n      0x24\n        /* \"#utility.yul\":13749:13750   */\n      0x00\n        /* \"#utility.yul\":13742:13757   */\n      revert\n        /* \"#utility.yul\":13769:13963   */\n    tag_139:\n        /* \"#utility.yul\":13809:13813   */\n      0x00\n        /* \"#utility.yul\":13829:13849   */\n      tag_653\n        /* \"#utility.yul\":13847:13848   */\n      dup3\n        /* \"#utility.yul\":13829:13849   */\n      tag_406\n      jump\t// in\n    tag_653:\n        /* \"#utility.yul\":13824:13849   */\n      swap2\n      pop\n        /* \"#utility.yul\":13863:13883   */\n      tag_654\n        /* \"#utility.yul\":13881:13882   */\n      dup4\n        /* \"#utility.yul\":13863:13883   */\n      tag_406\n      jump\t// in\n    tag_654:\n        /* \"#utility.yul\":13858:13883   */\n      swap3\n      pop\n        /* \"#utility.yul\":13907:13908   */\n      dup3\n        /* \"#utility.yul\":13904:13905   */\n      dup3\n        /* \"#utility.yul\":13900:13909   */\n      sub\n        /* \"#utility.yul\":13892:13909   */\n      swap1\n      pop\n        /* \"#utility.yul\":13931:13932   */\n      dup2\n        /* \"#utility.yul\":13925:13929   */\n      dup2\n        /* \"#utility.yul\":13922:13933   */\n      gt\n        /* \"#utility.yul\":13919:13956   */\n      iszero\n      tag_655\n      jumpi\n        /* \"#utility.yul\":13936:13954   */\n      tag_656\n      tag_441\n      jump\t// in\n    tag_656:\n        /* \"#utility.yul\":13919:13956   */\n    tag_655:\n        /* \"#utility.yul\":13769:13963   */\n      swap3\n      swap2\n      pop\n      pop\n      jump\t// out\n        /* \"#utility.yul\":13969:14301   */\n    tag_141:\n        /* \"#utility.yul\":14090:14094   */\n      0x00\n        /* \"#utility.yul\":14128:14130   */\n      0x40\n        /* \"#utility.yul\":14117:14126   */\n      dup3\n        /* \"#utility.yul\":14113:14131   */\n      add\n        /* \"#utility.yul\":14105:14131   */\n      swap1\n      pop\n        /* \"#utility.yul\":14141:14212   */\n      tag_658\n        /* \"#utility.yul\":14209:14210   */\n      0x00\n        /* \"#utility.yul\":14198:14207   */\n      dup4\n        /* \"#utility.yul\":14194:14211   */\n      add\n        /* \"#utility.yul\":14185:14191   */\n      dup6\n        /* \"#utility.yul\":14141:14212   */\n      tag_415\n      jump\t// in\n    tag_658:\n        /* \"#utility.yul\":14222:14294   */\n      tag_659\n        /* \"#utility.yul\":14290:14292   */\n      0x20\n        /* \"#utility.yul\":14279:14288   */\n      dup4\n        /* \"#utility.yul\":14275:14293   */\n      add\n        /* \"#utility.yul\":14266:14272   */\n      dup5\n        /* \"#utility.yul\":14222:14294   */\n      tag_415\n      jump\t// in\n    tag_659:\n        /* \"#utility.yul\":13969:14301   */\n      swap4\n      swap3\n      pop\n      pop\n      pop\n      jump\t// out\n        /* \"#utility.yul\":14307:14538   */\n    tag_442:\n        /* \"#utility.yul\":14447:14481   */\n      0x46756e6374696f6e206d7573742062652063616c6c6564207468726f75676820\n        /* \"#utility.yul\":14443:14444   */\n      0x00\n        /* \"#utility.yul\":14435:14441   */\n      dup3\n        /* \"#utility.yul\":14431:14445   */\n      add\n        /* \"#utility.yul\":14424:14482   */\n      mstore\n        /* \"#utility.yul\":14516:14530   */\n      0x64656c656761746563616c6c0000000000000000000000000000000000000000\n        /* \"#utility.yul\":14511:14513   */\n      0x20\n        /* \"#utility.yul\":14503:14509   */\n      dup3\n        /* \"#utility.yul\":14499:14514   */\n      add\n        /* \"#utility.yul\":14492:14531   */\n      mstore\n        /* \"#utility.yul\":14307:14538   */\n      pop\n      jump\t// out\n        /* \"#utility.yul\":14544:14910   */\n    tag_443:\n        /* \"#utility.yul\":14686:14689   */\n      0x00\n        /* \"#utility.yul\":14707:14774   */\n      tag_662\n        /* \"#utility.yul\":14771:14773   */\n      0x2c\n        /* \"#utility.yul\":14766:14769   */\n      dup4\n        /* \"#utility.yul\":14707:14774   */\n      tag_438\n      jump\t// in\n    tag_662:\n        /* \"#utility.yul\":14700:14774   */\n      swap2\n      pop\n        /* \"#utility.yul\":14783:14876   */\n      tag_663\n        /* \"#utility.yul\":14872:14875   */\n      dup3\n        /* \"#utility.yul\":14783:14876   */\n      tag_442\n      jump\t// in\n    tag_663:\n        /* \"#utility.yul\":14901:14903   */\n      0x40\n        /* \"#utility.yul\":14896:14899   */\n      dup3\n        /* \"#utility.yul\":14892:14904   */\n      add\n        /* \"#utility.yul\":14885:14904   */\n      swap1\n      pop\n        /* \"#utility.yul\":14544:14910   */\n      swap2\n      swap1\n      pop\n      jump\t// out\n        /* \"#utility.yul\":14916:15335   */\n    tag_145:\n        /* \"#utility.yul\":15082:15086   */\n      0x00\n        /* \"#utility.yul\":15120:15122   */\n      0x20\n        /* \"#utility.yul\":15109:15118   */\n      dup3\n        /* \"#utility.yul\":15105:15123   */\n      add\n        /* \"#utility.yul\":15097:15123   */\n      swap1\n      pop\n        /* \"#utility.yul\":15169:15178   */\n      dup2\n        /* \"#utility.yul\":15163:15167   */\n      dup2\n        /* \"#utility.yul\":15159:15179   */\n      sub\n        /* \"#utility.yul\":15155:15156   */\n      0x00\n        /* \"#utility.yul\":15144:15153   */\n      dup4\n        /* \"#utility.yul\":15140:15157   */\n      add\n        /* \"#utility.yul\":15133:15180   */\n      mstore\n        /* \"#utility.yul\":15197:15328   */\n      tag_665\n        /* \"#utility.yul\":15323:15327   */\n      dup2\n        /* \"#utility.yul\":15197:15328   */\n      tag_443\n      jump\t// in\n    tag_665:\n        /* \"#utility.yul\":15189:15328   */\n      swap1\n      pop\n        /* \"#utility.yul\":14916:15335   */\n      swap2\n      swap1\n      pop\n      jump\t// out\n        /* \"#utility.yul\":15341:15572   */\n    tag_444:\n        /* \"#utility.yul\":15481:15515   */\n      0x46756e6374696f6e206d7573742062652063616c6c6564207468726f75676820\n        /* \"#utility.yul\":15477:15478   */\n      0x00\n        /* \"#utility.yul\":15469:15475   */\n      dup3\n        /* \"#utility.yul\":15465:15479   */\n      add\n        /* \"#utility.yul\":15458:15516   */\n      mstore\n        /* \"#utility.yul\":15550:15564   */\n      0x6163746976652070726f78790000000000000000000000000000000000000000\n        /* \"#utility.yul\":15545:15547   */\n      0x20\n        /* \"#utility.yul\":15537:15543   */\n      dup3\n        /* \"#utility.yul\":15533:15548   */\n      add\n        /* \"#utility.yul\":15526:15565   */\n      mstore\n        /* \"#utility.yul\":15341:15572   */\n      pop\n      jump\t// out\n        /* \"#utility.yul\":15578:15944   */\n    tag_445:\n        /* \"#utility.yul\":15720:15723   */\n      0x00\n        /* \"#utility.yul\":15741:15808   */\n      tag_668\n        /* \"#utility.yul\":15805:15807   */\n      0x2c\n        /* \"#utility.yul\":15800:15803   */\n      dup4\n        /* \"#utility.yul\":15741:15808   */\n      tag_438\n      jump\t// in\n    tag_668:\n        /* \"#utility.yul\":15734:15808   */\n      swap2\n      pop\n        /* \"#utility.yul\":15817:15910   */\n      tag_669\n        /* \"#utility.yul\":15906:15909   */\n      dup3\n        /* \"#utility.yul\":15817:15910   */\n      tag_444\n      jump\t// in\n    tag_669:\n        /* \"#utility.yul\":15935:15937   */\n      0x40\n        /* \"#utility.yul\":15930:15933   */\n      dup3\n        /* \"#utility.yul\":15926:15938   */\n      add\n        /* \"#utility.yul\":15919:15938   */\n      swap1\n      pop\n        /* \"#utility.yul\":15578:15944   */\n      swap2\n      swap1\n      pop\n      jump\t// out\n        /* \"#utility.yul\":15950:16369   */\n    tag_150:\n        /* \"#utility.yul\":16116:16120   */\n      0x00\n        /* \"#utility.yul\":16154:16156   */\n      0x20\n        /* \"#utility.yul\":16143:16152   */\n      dup3\n        /* \"#utility.yul\":16139:16157   */\n      add\n        /* \"#utility.yul\":16131:16157   */\n      swap1\n      pop\n        /* \"#utility.yul\":16203:16212   */\n      dup2\n        /* \"#utility.yul\":16197:16201   */\n      dup2\n        /* \"#utility.yul\":16193:16213   */\n      sub\n        /* \"#utility.yul\":16189:16190   */\n      0x00\n        /* \"#utility.yul\":16178:16187   */\n      dup4\n        /* \"#utility.yul\":16174:16191   */\n      add\n        /* \"#utility.yul\":16167:16214   */\n      mstore\n        /* \"#utility.yul\":16231:16362   */\n      tag_671\n        /* \"#utility.yul\":16357:16361   */\n      dup2\n        /* \"#utility.yul\":16231:16362   */\n      tag_445\n      jump\t// in\n    tag_671:\n        /* \"#utility.yul\":16223:16362   */\n      swap1\n      pop\n        /* \"#utility.yul\":15950:16369   */\n      swap2\n      swap1\n      pop\n      jump\t// out\n        /* \"#utility.yul\":16375:16618   */\n    tag_446:\n        /* \"#utility.yul\":16515:16549   */\n      0x555550535570677261646561626c653a206d757374206e6f742062652063616c\n        /* \"#utility.yul\":16511:16512   */\n      0x00\n        /* \"#utility.yul\":16503:16509   */\n      dup3\n        /* \"#utility.yul\":16499:16513   */\n      add\n        /* \"#utility.yul\":16492:16550   */\n      mstore\n        /* \"#utility.yul\":16584:16610   */\n      0x6c6564207468726f7567682064656c656761746563616c6c0000000000000000\n        /* \"#utility.yul\":16579:16581   */\n      0x20\n        /* \"#utility.yul\":16571:16577   */\n      dup3\n        /* \"#utility.yul\":16567:16582   */\n      add\n        /* \"#utility.yul\":16560:16611   */\n      mstore\n        /* \"#utility.yul\":16375:16618   */\n      pop\n      jump\t// out\n        /* \"#utility.yul\":16624:16990   */\n    tag_447:\n        /* \"#utility.yul\":16766:16769   */\n      0x00\n        /* \"#utility.yul\":16787:16854   */\n      tag_674\n        /* \"#utility.yul\":16851:16853   */\n      0x38\n        /* \"#utility.yul\":16846:16849   */\n      dup4\n        /* \"#utility.yul\":16787:16854   */\n      tag_438\n      jump\t// in\n    tag_674:\n        /* \"#utility.yul\":16780:16854   */\n      swap2\n      pop\n        /* \"#utility.yul\":16863:16956   */\n      tag_675\n        /* \"#utility.yul\":16952:16955   */\n      dup3\n        /* \"#utility.yul\":16863:16956   */\n      tag_446\n      jump\t// in\n    tag_675:\n        /* \"#utility.yul\":16981:16983   */\n      0x40\n        /* \"#utility.yul\":16976:16979   */\n      dup3\n        /* \"#utility.yul\":16972:16984   */\n      add\n        /* \"#utility.yul\":16965:16984   */\n      swap1\n      pop\n        /* \"#utility.yul\":16624:16990   */\n      swap2\n      swap1\n      pop\n      jump\t// out\n        /* \"#utility.yul\":16996:17415   */\n    tag_174:\n        /* \"#utility.yul\":17162:17166   */\n      0x00\n        /* \"#utility.yul\":17200:17202   */\n      0x20\n        /* \"#utility.yul\":17189:17198   */\n      dup3\n        /* \"#utility.yul\":17185:17203   */\n      add\n        /* \"#utility.yul\":17177:17203   */\n      swap1\n      pop\n        /* \"#utility.yul\":17249:17258   */\n      dup2\n        /* \"#utility.yul\":17243:17247   */\n      dup2\n        /* \"#utility.yul\":17239:17259   */\n      sub\n        /* \"#utility.yul\":17235:17236   */\n      0x00\n        /* \"#utility.yul\":17224:17233   */\n      dup4\n        /* \"#utility.yul\":17220:17237   */\n      add\n        /* \"#utility.yul\":17213:17260   */\n      mstore\n        /* \"#utility.yul\":17277:17408   */\n      tag_677\n        /* \"#utility.yul\":17403:17407   */\n      dup2\n        /* \"#utility.yul\":17277:17408   */\n      tag_447\n      jump\t// in\n    tag_677:\n        /* \"#utility.yul\":17269:17408   */\n      swap1\n      pop\n        /* \"#utility.yul\":16996:17415   */\n      swap2\n      swap1\n      pop\n      jump\t// out\n        /* \"#utility.yul\":17421:17603   */\n    tag_448:\n        /* \"#utility.yul\":17561:17595   */\n      0x506f696e7473206d7573742062652067726561746572207468616e207a65726f\n        /* \"#utility.yul\":17557:17558   */\n      0x00\n        /* \"#utility.yul\":17549:17555   */\n      dup3\n        /* \"#utility.yul\":17545:17559   */\n      add\n        /* \"#utility.yul\":17538:17596   */\n      mstore\n        /* \"#utility.yul\":17421:17603   */\n      pop\n      jump\t// out\n        /* \"#utility.yul\":17609:17975   */\n    tag_449:\n        /* \"#utility.yul\":17751:17754   */\n      0x00\n        /* \"#utility.yul\":17772:17839   */\n      tag_680\n        /* \"#utility.yul\":17836:17838   */\n      0x20\n        /* \"#utility.yul\":17831:17834   */\n      dup4\n        /* \"#utility.yul\":17772:17839   */\n      tag_438\n      jump\t// in\n    tag_680:\n        /* \"#utility.yul\":17765:17839   */\n      swap2\n      pop\n        /* \"#utility.yul\":17848:17941   */\n      tag_681\n        /* \"#utility.yul\":17937:17940   */\n      dup3\n        /* \"#utility.yul\":17848:17941   */\n      tag_448\n      jump\t// in\n    tag_681:\n        /* \"#utility.yul\":17966:17968   */\n      0x20\n        /* \"#utility.yul\":17961:17964   */\n      dup3\n        /* \"#utility.yul\":17957:17969   */\n      add\n        /* \"#utility.yul\":17950:17969   */\n      swap1\n      pop\n        /* \"#utility.yul\":17609:17975   */\n      swap2\n      swap1\n      pop\n      jump\t// out\n        /* \"#utility.yul\":17981:18400   */\n    tag_181:\n        /* \"#utility.yul\":18147:18151   */\n      0x00\n        /* \"#utility.yul\":18185:18187   */\n      0x20\n        /* \"#utility.yul\":18174:18183   */\n      dup3\n        /* \"#utility.yul\":18170:18188   */\n      add\n        /* \"#utility.yul\":18162:18188   */\n      swap1\n      pop\n        /* \"#utility.yul\":18234:18243   */\n      dup2\n        /* \"#utility.yul\":18228:18232   */\n      dup2\n        /* \"#utility.yul\":18224:18244   */\n      sub\n        /* \"#utility.yul\":18220:18221   */\n      0x00\n        /* \"#utility.yul\":18209:18218   */\n      dup4\n        /* \"#utility.yul\":18205:18222   */\n      add\n        /* \"#utility.yul\":18198:18245   */\n      mstore\n        /* \"#utility.yul\":18262:18393   */\n      tag_683\n        /* \"#utility.yul\":18388:18392   */\n      dup2\n        /* \"#utility.yul\":18262:18393   */\n      tag_449\n      jump\t// in\n    tag_683:\n        /* \"#utility.yul\":18254:18393   */\n      swap1\n      pop\n        /* \"#utility.yul\":17981:18400   */\n      swap2\n      swap1\n      pop\n      jump\t// out\n        /* \"#utility.yul\":18406:18597   */\n    tag_183:\n        /* \"#utility.yul\":18446:18449   */\n      0x00\n        /* \"#utility.yul\":18465:18485   */\n      tag_685\n        /* \"#utility.yul\":18483:18484   */\n      dup3\n        /* \"#utility.yul\":18465:18485   */\n      tag_406\n      jump\t// in\n    tag_685:\n        /* \"#utility.yul\":18460:18485   */\n      swap2\n      pop\n        /* \"#utility.yul\":18499:18519   */\n      tag_686\n        /* \"#utility.yul\":18517:18518   */\n      dup4\n        /* \"#utility.yul\":18499:18519   */\n      tag_406\n      jump\t// in\n    tag_686:\n        /* \"#utility.yul\":18494:18519   */\n      swap3\n      pop\n        /* \"#utility.yul\":18542:18543   */\n      dup3\n        /* \"#utility.yul\":18539:18540   */\n      dup3\n        /* \"#utility.yul\":18535:18544   */\n      add\n        /* \"#utility.yul\":18528:18544   */\n      swap1\n      pop\n        /* \"#utility.yul\":18563:18566   */\n      dup1\n        /* \"#utility.yul\":18560:18561   */\n      dup3\n        /* \"#utility.yul\":18557:18567   */\n      gt\n        /* \"#utility.yul\":18554:18590   */\n      iszero\n      tag_687\n      jumpi\n        /* \"#utility.yul\":18570:18588   */\n      tag_688\n      tag_441\n      jump\t// in\n    tag_688:\n        /* \"#utility.yul\":18554:18590   */\n    tag_687:\n        /* \"#utility.yul\":18406:18597   */\n      swap3\n      swap2\n      pop\n      pop\n      jump\t// out\n        /* \"#utility.yul\":18603:18783   */\n    tag_190:\n        /* \"#utility.yul\":18651:18728   */\n      0x4e487b7100000000000000000000000000000000000000000000000000000000\n        /* \"#utility.yul\":18648:18649   */\n      0x00\n        /* \"#utility.yul\":18641:18729   */\n      mstore\n        /* \"#utility.yul\":18748:18752   */\n      0x32\n        /* \"#utility.yul\":18745:18746   */\n      0x04\n        /* \"#utility.yul\":18738:18753   */\n      mstore\n        /* \"#utility.yul\":18772:18776   */\n      0x24\n        /* \"#utility.yul\":18769:18770   */\n      0x00\n        /* \"#utility.yul\":18762:18777   */\n      revert\n        /* \"#utility.yul\":18789:18888   */\n    tag_450:\n        /* \"#utility.yul\":18841:18847   */\n      0x00\n        /* \"#utility.yul\":18875:18880   */\n      dup2\n        /* \"#utility.yul\":18869:18881   */\n      mload\n        /* \"#utility.yul\":18859:18881   */\n      swap1\n      pop\n        /* \"#utility.yul\":18789:18888   */\n      swap2\n      swap1\n      pop\n      jump\t// out\n        /* \"#utility.yul\":18894:19074   */\n    tag_451:\n        /* \"#utility.yul\":18942:19019   */\n      0x4e487b7100000000000000000000000000000000000000000000000000000000\n        /* \"#utility.yul\":18939:18940   */\n      0x00\n        /* \"#utility.yul\":18932:19020   */\n      mstore\n        /* \"#utility.yul\":19039:19043   */\n      0x22\n        /* \"#utility.yul\":19036:19037   */\n      0x04\n        /* \"#utility.yul\":19029:19044   */\n      mstore\n        /* \"#utility.yul\":19063:19067   */\n      0x24\n        /* \"#utility.yul\":19060:19061   */\n      0x00\n        /* \"#utility.yul\":19053:19068   */\n      revert\n        /* \"#utility.yul\":19080:19400   */\n    tag_290:\n        /* \"#utility.yul\":19124:19130   */\n      0x00\n        /* \"#utility.yul\":19161:19162   */\n      0x02\n        /* \"#utility.yul\":19155:19159   */\n      dup3\n        /* \"#utility.yul\":19151:19163   */\n      div\n        /* \"#utility.yul\":19141:19163   */\n      swap1\n      pop\n        /* \"#utility.yul\":19208:19209   */\n      0x01\n        /* \"#utility.yul\":19202:19206   */\n      dup3\n        /* \"#utility.yul\":19198:19210   */\n      and\n        /* \"#utility.yul\":19229:19247   */\n      dup1\n        /* \"#utility.yul\":19219:19300   */\n      tag_693\n      jumpi\n        /* \"#utility.yul\":19285:19289   */\n      0x7f\n        /* \"#utility.yul\":19277:19283   */\n      dup3\n        /* \"#utility.yul\":19273:19290   */\n      and\n        /* \"#utility.yul\":19263:19290   */\n      swap2\n      pop\n        /* \"#utility.yul\":19219:19300   */\n    tag_693:\n        /* \"#utility.yul\":19347:19349   */\n      0x20\n        /* \"#utility.yul\":19339:19345   */\n      dup3\n        /* \"#utility.yul\":19336:19350   */\n      lt\n        /* \"#utility.yul\":19316:19334   */\n      dup2\n        /* \"#utility.yul\":19313:19351   */\n      sub\n        /* \"#utility.yul\":19310:19394   */\n      tag_694\n      jumpi\n        /* \"#utility.yul\":19366:19384   */\n      tag_695\n      tag_451\n      jump\t// in\n    tag_695:\n        /* \"#utility.yul\":19310:19394   */\n    tag_694:\n        /* \"#utility.yul\":19131:19400   */\n      pop\n        /* \"#utility.yul\":19080:19400   */\n      swap2\n      swap1\n      pop\n      jump\t// out\n        /* \"#utility.yul\":19406:19547   */\n    tag_452:\n        /* \"#utility.yul\":19455:19459   */\n      0x00\n        /* \"#utility.yul\":19478:19481   */\n      dup2\n        /* \"#utility.yul\":19470:19481   */\n      swap1\n      pop\n        /* \"#utility.yul\":19501:19504   */\n      dup2\n        /* \"#utility.yul\":19498:19499   */\n      0x00\n        /* \"#utility.yul\":19491:19505   */\n      mstore\n        /* \"#utility.yul\":19535:19539   */\n      0x20\n        /* \"#utility.yul\":19532:19533   */\n      0x00\n        /* \"#utility.yul\":19522:19540   */\n      keccak256\n        /* \"#utility.yul\":19514:19540   */\n      swap1\n      pop\n        /* \"#utility.yul\":19406:19547   */\n      swap2\n      swap1\n      pop\n      jump\t// out\n        /* \"#utility.yul\":19553:19646   */\n    tag_453:\n        /* \"#utility.yul\":19590:19596   */\n      0x00\n        /* \"#utility.yul\":19637:19639   */\n      0x20\n        /* \"#utility.yul\":19632:19634   */\n      0x1f\n        /* \"#utility.yul\":19625:19630   */\n      dup4\n        /* \"#utility.yul\":19621:19635   */\n      add\n        /* \"#utility.yul\":19617:19640   */\n      div\n        /* \"#utility.yul\":19607:19640   */\n      swap1\n      pop\n        /* \"#utility.yul\":19553:19646   */\n      swap2\n      swap1\n      pop\n      jump\t// out\n        /* \"#utility.yul\":19652:19759   */\n    tag_454:\n        /* \"#utility.yul\":19696:19704   */\n      0x00\n        /* \"#utility.yul\":19746:19751   */\n      dup3\n        /* \"#utility.yul\":19740:19744   */\n      dup3\n        /* \"#utility.yul\":19736:19752   */\n      shl\n        /* \"#utility.yul\":19715:19752   */\n      swap1\n      pop\n        /* \"#utility.yul\":19652:19759   */\n      swap3\n      swap2\n      pop\n      pop\n      jump\t// out\n        /* \"#utility.yul\":19765:20158   */\n    tag_455:\n        /* \"#utility.yul\":19834:19840   */\n      0x00\n        /* \"#utility.yul\":19884:19885   */\n      0x08\n        /* \"#utility.yul\":19872:19882   */\n      dup4\n        /* \"#utility.yul\":19868:19886   */\n      mul\n        /* \"#utility.yul\":19907:20004   */\n      tag_700\n        /* \"#utility.yul\":19937:20003   */\n      0xffffffffffffffffffffffffffffffffffffffffffffffffffffffffffffffff\n        /* \"#utility.yul\":19926:19935   */\n      dup3\n        /* \"#utility.yul\":19907:20004   */\n      tag_454\n      jump\t// in\n    tag_700:\n        /* \"#utility.yul\":20025:20064   */\n      tag_701\n        /* \"#utility.yul\":20055:20063   */\n      dup7\n        /* \"#utility.yul\":20044:20053   */\n      dup4\n        /* \"#utility.yul\":20025:20064   */\n      tag_454\n      jump\t// in\n    tag_701:\n        /* \"#utility.yul\":20013:20064   */\n      swap6\n      pop\n        /* \"#utility.yul\":20097:20101   */\n      dup1\n        /* \"#utility.yul\":20093:20102   */\n      not\n        /* \"#utility.yul\":20086:20091   */\n      dup5\n        /* \"#utility.yul\":20082:20103   */\n      and\n        /* \"#utility.yul\":20073:20103   */\n      swap4\n      pop\n        /* \"#utility.yul\":20146:20150   */\n      dup1\n        /* \"#utility.yul\":20136:20144   */\n      dup7\n        /* \"#utility.yul\":20132:20151   */\n      and\n        /* \"#utility.yul\":20125:20130   */\n      dup5\n        /* \"#utility.yul\":20122:20152   */\n      or\n        /* \"#utility.yul\":20112:20152   */\n      swap3\n      pop\n        /* \"#utility.yul\":19841:20158   */\n      pop\n      pop\n        /* \"#utility.yul\":19765:20158   */\n      swap4\n      swap3\n      pop\n      pop\n      pop\n      jump\t// out\n        /* \"#utility.yul\":20164:20224   */\n    tag_456:\n        /* \"#utility.yul\":20192:20195   */\n      0x00\n        /* \"#utility.yul\":20213:20218   */\n      dup2\n        /* \"#utility.yul\":20206:20218   */\n      swap1\n      pop\n        /* \"#utility.yul\":20164:20224   */\n      swap2\n      swap1\n      pop\n      jump\t// out\n        /* \"#utility.yul\":20230:20372   */\n    tag_457:\n        /* \"#utility.yul\":20280:20289   */\n      0x00\n        /* \"#utility.yul\":20313:20366   */\n      tag_704\n        /* \"#utility.yul\":20331:20365   */\n      tag_705\n        /* \"#utility.yul\":20340:20364   */\n      tag_706\n        /* \"#utility.yul\":20358:20363   */\n      dup5\n        /* \"#utility.yul\":20340:20364   */\n      tag_406\n      jump\t// in\n    tag_706:\n        /* \"#utility.yul\":20331:20365   */\n      tag_456\n      jump\t// in\n    tag_705:\n        /* \"#utility.yul\":20313:20366   */\n      tag_406\n      jump\t// in\n    tag_704:\n        /* \"#utility.yul\":20300:20366   */\n      swap1\n      pop\n        /* \"#utility.yul\":20230:20372   */\n      swap2\n      swap1\n      pop\n      jump\t// out\n        /* \"#utility.yul\":20378:20453   */\n    tag_458:\n        /* \"#utility.yul\":20421:20424   */\n      0x00\n        /* \"#utility.yul\":20442:20447   */\n      dup2\n        /* \"#utility.yul\":20435:20447   */\n      swap1\n      pop\n        /* \"#utility.yul\":20378:20453   */\n      swap2\n      swap1\n      pop\n      jump\t// out\n        /* \"#utility.yul\":20459:20728   */\n    tag_459:\n        /* \"#utility.yul\":20569:20608   */\n      tag_709\n        /* \"#utility.yul\":20600:20607   */\n      dup4\n        /* \"#utility.yul\":20569:20608   */\n      tag_457\n      jump\t// in\n    tag_709:\n        /* \"#utility.yul\":20630:20721   */\n      tag_710\n        /* \"#utility.yul\":20679:20720   */\n      tag_711\n        /* \"#utility.yul\":20703:20719   */\n      dup3\n        /* \"#utility.yul\":20679:20720   */\n      tag_458\n      jump\t// in\n    tag_711:\n        /* \"#utility.yul\":20671:20677   */\n      dup5\n        /* \"#utility.yul\":20664:20668   */\n      dup5\n        /* \"#utility.yul\":20658:20669   */\n      sload\n        /* \"#utility.yul\":20630:20721   */\n      tag_455\n      jump\t// in\n    tag_710:\n        /* \"#utility.yul\":20624:20628   */\n      dup3\n        /* \"#utility.yul\":20617:20722   */\n      sstore\n        /* \"#utility.yul\":20535:20728   */\n      pop\n        /* \"#utility.yul\":20459:20728   */\n      pop\n      pop\n      pop\n      jump\t// out\n        /* \"#utility.yul\":20734:20807   */\n    tag_460:\n        /* \"#utility.yul\":20779:20782   */\n      0x00\n        /* \"#utility.yul\":20734:20807   */\n      swap1\n      jump\t// out\n        /* \"#utility.yul\":20813:21002   */\n    tag_461:\n        /* \"#utility.yul\":20890:20922   */\n      tag_714\n      tag_460\n      jump\t// in\n    tag_714:\n        /* \"#utility.yul\":20931:20996   */\n      tag_715\n        /* \"#utility.yul\":20989:20995   */\n      dup2\n        /* \"#utility.yul\":20981:20987   */\n      dup5\n        /* \"#utility.yul\":20975:20979   */\n      dup5\n        /* \"#utility.yul\":20931:20996   */\n      tag_459\n      jump\t// in\n    tag_715:\n        /* \"#utility.yul\":20866:21002   */\n      pop\n        /* \"#utility.yul\":20813:21002   */\n      pop\n      pop\n      jump\t// out\n        /* \"#utility.yul\":21008:21194   */\n    tag_462:\n        /* \"#utility.yul\":21068:21188   */\n    tag_717:\n        /* \"#utility.yul\":21085:21088   */\n      dup2\n        /* \"#utility.yul\":21078:21083   */\n      dup2\n        /* \"#utility.yul\":21075:21089   */\n      lt\n        /* \"#utility.yul\":21068:21188   */\n      iszero\n      tag_719\n      jumpi\n        /* \"#utility.yul\":21139:21178   */\n      tag_720\n        /* \"#utility.yul\":21176:21177   */\n      0x00\n        /* \"#utility.yul\":21169:21174   */\n      dup3\n        /* \"#utility.yul\":21139:21178   */\n      tag_461\n      jump\t// in\n    tag_720:\n        /* \"#utility.yul\":21112:21113   */\n      0x01\n        /* \"#utility.yul\":21105:21110   */\n      dup2\n        /* \"#utility.yul\":21101:21114   */\n      add\n        /* \"#utility.yul\":21092:21114   */\n      swap1\n      pop\n        /* \"#utility.yul\":21068:21188   */\n      jump(tag_717)\n    tag_719:\n        /* \"#utility.yul\":21008:21194   */\n      pop\n      pop\n      jump\t// out\n        /* \"#utility.yul\":21200:21743   */\n    tag_463:\n        /* \"#utility.yul\":21301:21303   */\n      0x1f\n        /* \"#utility.yul\":21296:21299   */\n      dup3\n        /* \"#utility.yul\":21293:21304   */\n      gt\n        /* \"#utility.yul\":21290:21736   */\n      iszero\n      tag_722\n      jumpi\n        /* \"#utility.yul\":21335:21373   */\n      tag_723\n        /* \"#utility.yul\":21367:21372   */\n      dup2\n        /* \"#utility.yul\":21335:21373   */\n      tag_452\n      jump\t// in\n    tag_723:\n        /* \"#utility.yul\":21419:21448   */\n      tag_724\n        /* \"#utility.yul\":21437:21447   */\n      dup5\n        /* \"#utility.yul\":21419:21448   */\n      tag_453\n      jump\t// in\n    tag_724:\n        /* \"#utility.yul\":21409:21417   */\n      dup2\n        /* \"#utility.yul\":21405:21449   */\n      add\n        /* \"#utility.yul\":21602:21604   */\n      0x20\n        /* \"#utility.yul\":21590:21600   */\n      dup6\n        /* \"#utility.yul\":21587:21605   */\n      lt\n        /* \"#utility.yul\":21584:21633   */\n      iszero\n      tag_725\n      jumpi\n        /* \"#utility.yul\":21623:21631   */\n      dup2\n        /* \"#utility.yul\":21608:21631   */\n      swap1\n      pop\n        /* \"#utility.yul\":21584:21633   */\n    tag_725:\n        /* \"#utility.yul\":21646:21726   */\n      tag_726\n        /* \"#utility.yul\":21702:21724   */\n      tag_727\n        /* \"#utility.yul\":21720:21723   */\n      dup6\n        /* \"#utility.yul\":21702:21724   */\n      tag_453\n      jump\t// in\n    tag_727:\n        /* \"#utility.yul\":21692:21700   */\n      dup4\n        /* \"#utility.yul\":21688:21725   */\n      add\n        /* \"#utility.yul\":21675:21686   */\n      dup3\n        /* \"#utility.yul\":21646:21726   */\n      tag_462\n      jump\t// in\n    tag_726:\n        /* \"#utility.yul\":21305:21736   */\n      pop\n      pop\n        /* \"#utility.yul\":21290:21736   */\n    tag_722:\n        /* \"#utility.yul\":21200:21743   */\n      pop\n      pop\n      pop\n      jump\t// out\n        /* \"#utility.yul\":21749:21866   */\n    tag_464:\n        /* \"#utility.yul\":21803:21811   */\n      0x00\n        /* \"#utility.yul\":21853:21858   */\n      dup3\n        /* \"#utility.yul\":21847:21851   */\n      dup3\n        /* \"#utility.yul\":21843:21859   */\n      shr\n        /* \"#utility.yul\":21822:21859   */\n      swap1\n      pop\n        /* \"#utility.yul\":21749:21866   */\n      swap3\n      swap2\n      pop\n      pop\n      jump\t// out\n        /* \"#utility.yul\":21872:22041   */\n    tag_465:\n        /* \"#utility.yul\":21916:21922   */\n      0x00\n        /* \"#utility.yul\":21949:22000   */\n      tag_730\n        /* \"#utility.yul\":21997:21998   */\n      0x00\n        /* \"#utility.yul\":21993:21999   */\n      not\n        /* \"#utility.yul\":21985:21990   */\n      dup5\n        /* \"#utility.yul\":21982:21983   */\n      0x08\n        /* \"#utility.yul\":21978:21991   */\n      mul\n        /* \"#utility.yul\":21949:22000   */\n      tag_464\n      jump\t// in\n    tag_730:\n        /* \"#utility.yul\":21945:22001   */\n      not\n        /* \"#utility.yul\":22030:22034   */\n      dup1\n        /* \"#utility.yul\":22024:22028   */\n      dup4\n        /* \"#utility.yul\":22020:22035   */\n      and\n        /* \"#utility.yul\":22010:22035   */\n      swap2\n      pop\n        /* \"#utility.yul\":21923:22041   */\n      pop\n        /* \"#utility.yul\":21872:22041   */\n      swap3\n      swap2\n      pop\n      pop\n      jump\t// out\n        /* \"#utility.yul\":22046:22341   */\n    tag_466:\n        /* \"#utility.yul\":22122:22126   */\n      0x00\n        /* \"#utility.yul\":22268:22297   */\n      tag_732\n        /* \"#utility.yul\":22293:22296   */\n      dup4\n        /* \"#utility.yul\":22287:22291   */\n      dup4\n        /* \"#utility.yul\":22268:22297   */\n      tag_465\n      jump\t// in\n    tag_732:\n        /* \"#utility.yul\":22260:22297   */\n      swap2\n      pop\n        /* \"#utility.yul\":22330:22333   */\n      dup3\n        /* \"#utility.yul\":22327:22328   */\n      0x02\n        /* \"#utility.yul\":22323:22334   */\n      mul\n        /* \"#utility.yul\":22317:22321   */\n      dup3\n        /* \"#utility.yul\":22314:22335   */\n      or\n        /* \"#utility.yul\":22306:22335   */\n      swap1\n      pop\n        /* \"#utility.yul\":22046:22341   */\n      swap3\n      swap2\n      pop\n      pop\n      jump\t// out\n        /* \"#utility.yul\":22346:23741   */\n    tag_199:\n        /* \"#utility.yul\":22463:22500   */\n      tag_734\n        /* \"#utility.yul\":22496:22499   */\n      dup3\n        /* \"#utility.yul\":22463:22500   */\n      tag_450\n      jump\t// in\n    tag_734:\n        /* \"#utility.yul\":22565:22583   */\n      0xffffffffffffffff\n        /* \"#utility.yul\":22557:22563   */\n      dup2\n        /* \"#utility.yul\":22554:22584   */\n      gt\n        /* \"#utility.yul\":22551:22607   */\n      iszero\n      tag_735\n      jumpi\n        /* \"#utility.yul\":22587:22605   */\n      tag_736\n      tag_157\n      jump\t// in\n    tag_736:\n        /* \"#utility.yul\":22551:22607   */\n    tag_735:\n        /* \"#utility.yul\":22631:22669   */\n      tag_737\n        /* \"#utility.yul\":22663:22667   */\n      dup3\n        /* \"#utility.yul\":22657:22668   */\n      sload\n        /* \"#utility.yul\":22631:22669   */\n      tag_290\n      jump\t// in\n    tag_737:\n        /* \"#utility.yul\":22716:22783   */\n      tag_738\n        /* \"#utility.yul\":22776:22782   */\n      dup3\n        /* \"#utility.yul\":22768:22774   */\n      dup3\n        /* \"#utility.yul\":22762:22766   */\n      dup6\n        /* \"#utility.yul\":22716:22783   */\n      tag_463\n      jump\t// in\n    tag_738:\n        /* \"#utility.yul\":22810:22811   */\n      0x00\n        /* \"#utility.yul\":22834:22838   */\n      0x20\n        /* \"#utility.yul\":22821:22838   */\n      swap1\n      pop\n        /* \"#utility.yul\":22866:22868   */\n      0x1f\n        /* \"#utility.yul\":22858:22864   */\n      dup4\n        /* \"#utility.yul\":22855:22869   */\n      gt\n        /* \"#utility.yul\":22883:22884   */\n      0x01\n        /* \"#utility.yul\":22878:23496   */\n      dup2\n      eq\n      tag_740\n      jumpi\n        /* \"#utility.yul\":23540:23541   */\n      0x00\n        /* \"#utility.yul\":23557:23563   */\n      dup5\n        /* \"#utility.yul\":23554:23631   */\n      iszero\n      tag_741\n      jumpi\n        /* \"#utility.yul\":23606:23615   */\n      dup3\n        /* \"#utility.yul\":23601:23604   */\n      dup8\n        /* \"#utility.yul\":23597:23616   */\n      add\n        /* \"#utility.yul\":23591:23617   */\n      mload\n        /* \"#utility.yul\":23582:23617   */\n      swap1\n      pop\n        /* \"#utility.yul\":23554:23631   */\n    tag_741:\n        /* \"#utility.yul\":23657:23724   */\n      tag_742\n        /* \"#utility.yul\":23717:23723   */\n      dup6\n        /* \"#utility.yul\":23710:23715   */\n      dup3\n        /* \"#utility.yul\":23657:23724   */\n      tag_466\n      jump\t// in\n    tag_742:\n        /* \"#utility.yul\":23651:23655   */\n      dup7\n        /* \"#utility.yul\":23644:23725   */\n      sstore\n        /* \"#utility.yul\":23513:23735   */\n      pop\n        /* \"#utility.yul\":22848:23735   */\n      jump(tag_739)\n        /* \"#utility.yul\":22878:23496   */\n    tag_740:\n        /* \"#utility.yul\":22930:22934   */\n      0x1f\n        /* \"#utility.yul\":22926:22935   */\n      not\n        /* \"#utility.yul\":22918:22924   */\n      dup5\n        /* \"#utility.yul\":22914:22936   */\n      and\n        /* \"#utility.yul\":22964:23001   */\n      tag_743\n        /* \"#utility.yul\":22996:23000   */\n      dup7\n        /* \"#utility.yul\":22964:23001   */\n      tag_452\n      jump\t// in\n    tag_743:\n        /* \"#utility.yul\":23023:23024   */\n      0x00\n        /* \"#utility.yul\":23037:23245   */\n    tag_744:\n        /* \"#utility.yul\":23051:23058   */\n      dup3\n        /* \"#utility.yul\":23048:23049   */\n      dup2\n        /* \"#utility.yul\":23045:23059   */\n      lt\n        /* \"#utility.yul\":23037:23245   */\n      iszero\n      tag_746\n      jumpi\n        /* \"#utility.yul\":23130:23139   */\n      dup5\n        /* \"#utility.yul\":23125:23128   */\n      dup10\n        /* \"#utility.yul\":23121:23140   */\n      add\n        /* \"#utility.yul\":23115:23141   */\n      mload\n        /* \"#utility.yul\":23107:23113   */\n      dup3\n        /* \"#utility.yul\":23100:23142   */\n      sstore\n        /* \"#utility.yul\":23181:23182   */\n      0x01\n        /* \"#utility.yul\":23173:23179   */\n      dup3\n        /* \"#utility.yul\":23169:23183   */\n      add\n        /* \"#utility.yul\":23159:23183   */\n      swap2\n      pop\n        /* \"#utility.yul\":23228:23230   */\n      0x20\n        /* \"#utility.yul\":23217:23226   */\n      dup6\n        /* \"#utility.yul\":23213:23231   */\n      add\n        /* \"#utility.yul\":23200:23231   */\n      swap5\n      pop\n        /* \"#utility.yul\":23074:23078   */\n      0x20\n        /* \"#utility.yul\":23071:23072   */\n      dup2\n        /* \"#utility.yul\":23067:23079   */\n      add\n        /* \"#utility.yul\":23062:23079   */\n      swap1\n      pop\n        /* \"#utility.yul\":23037:23245   */\n      jump(tag_744)\n    tag_746:\n        /* \"#utility.yul\":23273:23279   */\n      dup7\n        /* \"#utility.yul\":23264:23271   */\n      dup4\n        /* \"#utility.yul\":23261:23280   */\n      lt\n        /* \"#utility.yul\":23258:23437   */\n      iszero\n      tag_747\n      jumpi\n        /* \"#utility.yul\":23331:23340   */\n      dup5\n        /* \"#utility.yul\":23326:23329   */\n      dup10\n        /* \"#utility.yul\":23322:23341   */\n      add\n        /* \"#utility.yul\":23316:23342   */\n      mload\n        /* \"#utility.yul\":23374:23422   */\n      tag_748\n        /* \"#utility.yul\":23416:23420   */\n      0x1f\n        /* \"#utility.yul\":23408:23414   */\n      dup10\n        /* \"#utility.yul\":23404:23421   */\n      and\n        /* \"#utility.yul\":23393:23402   */\n      dup3\n        /* \"#utility.yul\":23374:23422   */\n      tag_465\n      jump\t// in\n    tag_748:\n        /* \"#utility.yul\":23366:23372   */\n      dup4\n        /* \"#utility.yul\":23359:23423   */\n      sstore\n        /* \"#utility.yul\":23281:23437   */\n      pop\n        /* \"#utility.yul\":23258:23437   */\n    tag_747:\n        /* \"#utility.yul\":23483:23484   */\n      0x01\n        /* \"#utility.yul\":23479:23480   */\n      0x02\n        /* \"#utility.yul\":23471:23477   */\n      dup9\n        /* \"#utility.yul\":23467:23481   */\n      mul\n        /* \"#utility.yul\":23463:23485   */\n      add\n        /* \"#utility.yul\":23457:23461   */\n      dup9\n        /* \"#utility.yul\":23450:23486   */\n      sstore\n        /* \"#utility.yul\":22885:23496   */\n      pop\n      pop\n      pop\n        /* \"#utility.yul\":22848:23735   */\n    tag_739:\n      pop\n        /* \"#utility.yul\":22438:23741   */\n      pop\n      pop\n      pop\n        /* \"#utility.yul\":22346:23741   */\n      pop\n      pop\n      jump\t// out\n        /* \"#utility.yul\":23747:23871   */\n    tag_467:\n        /* \"#utility.yul\":23824:23830   */\n      0x00\n        /* \"#utility.yul\":23858:23863   */\n      dup2\n        /* \"#utility.yul\":23852:23864   */\n      mload\n        /* \"#utility.yul\":23842:23864   */\n      swap1\n      pop\n        /* \"#utility.yul\":23747:23871   */\n      swap2\n      swap1\n      pop\n      jump\t// out\n        /* \"#utility.yul\":23877:24071   */\n    tag_468:\n        /* \"#utility.yul\":23986:23997   */\n      0x00\n        /* \"#utility.yul\":24020:24026   */\n      dup3\n        /* \"#utility.yul\":24015:24018   */\n      dup3\n        /* \"#utility.yul\":24008:24027   */\n      mstore\n        /* \"#utility.yul\":24060:24064   */\n      0x20\n        /* \"#utility.yul\":24055:24058   */\n      dup3\n        /* \"#utility.yul\":24051:24065   */\n      add\n        /* \"#utility.yul\":24036:24065   */\n      swap1\n      pop\n        /* \"#utility.yul\":23877:24071   */\n      swap3\n      swap2\n      pop\n      pop\n      jump\t// out\n        /* \"#utility.yul\":24077:24219   */\n    tag_469:\n        /* \"#utility.yul\":24154:24158   */\n      0x00\n        /* \"#utility.yul\":24177:24180   */\n      dup2\n        /* \"#utility.yul\":24169:24180   */\n      swap1\n      pop\n        /* \"#utility.yul\":24207:24211   */\n      0x20\n        /* \"#utility.yul\":24202:24205   */\n      dup3\n        /* \"#utility.yul\":24198:24212   */\n      add\n        /* \"#utility.yul\":24190:24212   */\n      swap1\n      pop\n        /* \"#utility.yul\":24077:24219   */\n      swap2\n      swap1\n      pop\n      jump\t// out\n        /* \"#utility.yul\":24225:24384   */\n    tag_470:\n        /* \"#utility.yul\":24299:24310   */\n      0x00\n        /* \"#utility.yul\":24333:24339   */\n      dup3\n        /* \"#utility.yul\":24328:24331   */\n      dup3\n        /* \"#utility.yul\":24321:24340   */\n      mstore\n        /* \"#utility.yul\":24373:24377   */\n      0x20\n        /* \"#utility.yul\":24368:24371   */\n      dup3\n        /* \"#utility.yul\":24364:24378   */\n      add\n        /* \"#utility.yul\":24349:24378   */\n      swap1\n      pop\n        /* \"#utility.yul\":24225:24384   */\n      swap3\n      swap2\n      pop\n      pop\n      jump\t// out\n        /* \"#utility.yul\":24390:24529   */\n    tag_471:\n        /* \"#utility.yul\":24479:24485   */\n      dup3\n        /* \"#utility.yul\":24474:24477   */\n      dup2\n        /* \"#utility.yul\":24469:24472   */\n      dup4\n        /* \"#utility.yul\":24463:24486   */\n      mcopy\n        /* \"#utility.yul\":24520:24521   */\n      0x00\n        /* \"#utility.yul\":24511:24517   */\n      dup4\n        /* \"#utility.yul\":24506:24509   */\n      dup4\n        /* \"#utility.yul\":24502:24518   */\n      add\n        /* \"#utility.yul\":24495:24522   */\n      mstore\n        /* \"#utility.yul\":24390:24529   */\n      pop\n      pop\n      pop\n      jump\t// out\n        /* \"#utility.yul\":24535:24892   */\n    tag_472:\n        /* \"#utility.yul\":24613:24616   */\n      0x00\n        /* \"#utility.yul\":24641:24680   */\n      tag_755\n        /* \"#utility.yul\":24674:24679   */\n      dup3\n        /* \"#utility.yul\":24641:24680   */\n      tag_450\n      jump\t// in\n    tag_755:\n        /* \"#utility.yul\":24696:24757   */\n      tag_756\n        /* \"#utility.yul\":24750:24756   */\n      dup2\n        /* \"#utility.yul\":24745:24748   */\n      dup6\n        /* \"#utility.yul\":24696:24757   */\n      tag_470\n      jump\t// in\n    tag_756:\n        /* \"#utility.yul\":24689:24757   */\n      swap4\n      pop\n        /* \"#utility.yul\":24766:24831   */\n      tag_757\n        /* \"#utility.yul\":24824:24830   */\n      dup2\n        /* \"#utility.yul\":24819:24822   */\n      dup6\n        /* \"#utility.yul\":24812:24816   */\n      0x20\n        /* \"#utility.yul\":24805:24810   */\n      dup7\n        /* \"#utility.yul\":24801:24817   */\n      add\n        /* \"#utility.yul\":24766:24831   */\n      tag_471\n      jump\t// in\n    tag_757:\n        /* \"#utility.yul\":24856:24885   */\n      tag_758\n        /* \"#utility.yul\":24878:24884   */\n      dup2\n        /* \"#utility.yul\":24856:24885   */\n      tag_419\n      jump\t// in\n    tag_758:\n        /* \"#utility.yul\":24851:24854   */\n      dup5\n        /* \"#utility.yul\":24847:24886   */\n      add\n        /* \"#utility.yul\":24840:24886   */\n      swap2\n      pop\n        /* \"#utility.yul\":24617:24892   */\n      pop\n        /* \"#utility.yul\":24535:24892   */\n      swap3\n      swap2\n      pop\n      pop\n      jump\t// out\n        /* \"#utility.yul\":24898:25094   */\n    tag_473:\n        /* \"#utility.yul\":24987:24997   */\n      0x00\n        /* \"#utility.yul\":25022:25088   */\n      tag_760\n        /* \"#utility.yul\":25084:25087   */\n      dup4\n        /* \"#utility.yul\":25076:25082   */\n      dup4\n        /* \"#utility.yul\":25022:25088   */\n      tag_472\n      jump\t// in\n    tag_760:\n        /* \"#utility.yul\":25008:25088   */\n      swap1\n      pop\n        /* \"#utility.yul\":24898:25094   */\n      swap3\n      swap2\n      pop\n      pop\n      jump\t// out\n        /* \"#utility.yul\":25100:25223   */\n    tag_474:\n        /* \"#utility.yul\":25180:25184   */\n      0x00\n        /* \"#utility.yul\":25212:25216   */\n      0x20\n        /* \"#utility.yul\":25207:25210   */\n      dup3\n        /* \"#utility.yul\":25203:25217   */\n      add\n        /* \"#utility.yul\":25195:25217   */\n      swap1\n      pop\n        /* \"#utility.yul\":25100:25223   */\n      swap2\n      swap1\n      pop\n      jump\t// out\n        /* \"#utility.yul\":25257:26248   */\n    tag_475:\n        /* \"#utility.yul\":25396:25399   */\n      0x00\n        /* \"#utility.yul\":25425:25489   */\n      tag_763\n        /* \"#utility.yul\":25483:25488   */\n      dup3\n        /* \"#utility.yul\":25425:25489   */\n      tag_467\n      jump\t// in\n    tag_763:\n        /* \"#utility.yul\":25505:25601   */\n      tag_764\n        /* \"#utility.yul\":25594:25600   */\n      dup2\n        /* \"#utility.yul\":25589:25592   */\n      dup6\n        /* \"#utility.yul\":25505:25601   */\n      tag_468\n      jump\t// in\n    tag_764:\n        /* \"#utility.yul\":25498:25601   */\n      swap4\n      pop\n        /* \"#utility.yul\":25627:25630   */\n      dup4\n        /* \"#utility.yul\":25672:25676   */\n      0x20\n        /* \"#utility.yul\":25664:25670   */\n      dup3\n        /* \"#utility.yul\":25660:25677   */\n      mul\n        /* \"#utility.yul\":25655:25658   */\n      dup6\n        /* \"#utility.yul\":25651:25678   */\n      add\n        /* \"#utility.yul\":25702:25768   */\n      tag_765\n        /* \"#utility.yul\":25762:25767   */\n      dup6\n        /* \"#utility.yul\":25702:25768   */\n      tag_469\n      jump\t// in\n    tag_765:\n        /* \"#utility.yul\":25791:25798   */\n      dup1\n        /* \"#utility.yul\":25822:25823   */\n      0x00\n        /* \"#utility.yul\":25807:26203   */\n    tag_766:\n        /* \"#utility.yul\":25832:25838   */\n      dup6\n        /* \"#utility.yul\":25829:25830   */\n      dup2\n        /* \"#utility.yul\":25826:25839   */\n      lt\n        /* \"#utility.yul\":25807:26203   */\n      iszero\n      tag_768\n      jumpi\n        /* \"#utility.yul\":25903:25912   */\n      dup5\n        /* \"#utility.yul\":25897:25901   */\n      dup5\n        /* \"#utility.yul\":25893:25913   */\n      sub\n        /* \"#utility.yul\":25888:25891   */\n      dup10\n        /* \"#utility.yul\":25881:25914   */\n      mstore\n        /* \"#utility.yul\":25954:25960   */\n      dup2\n        /* \"#utility.yul\":25948:25961   */\n      mload\n        /* \"#utility.yul\":25982:26066   */\n      tag_769\n        /* \"#utility.yul\":26061:26065   */\n      dup6\n        /* \"#utility.yul\":26046:26059   */\n      dup3\n        /* \"#utility.yul\":25982:26066   */\n      tag_473\n      jump\t// in\n    tag_769:\n        /* \"#utility.yul\":25974:26066   */\n      swap5\n      pop\n        /* \"#utility.yul\":26089:26159   */\n      tag_770\n        /* \"#utility.yul\":26152:26158   */\n      dup4\n        /* \"#utility.yul\":26089:26159   */\n      tag_474\n      jump\t// in\n    tag_770:\n        /* \"#utility.yul\":26079:26159   */\n      swap3\n      pop\n        /* \"#utility.yul\":26188:26192   */\n      0x20\n        /* \"#utility.yul\":26183:26186   */\n      dup11\n        /* \"#utility.yul\":26179:26193   */\n      add\n        /* \"#utility.yul\":26172:26193   */\n      swap10\n      pop\n        /* \"#utility.yul\":25867:26203   */\n      pop\n        /* \"#utility.yul\":25854:25855   */\n      0x01\n        /* \"#utility.yul\":25851:25852   */\n      dup2\n        /* \"#utility.yul\":25847:25856   */\n      add\n        /* \"#utility.yul\":25842:25856   */\n      swap1\n      pop\n        /* \"#utility.yul\":25807:26203   */\n      jump(tag_766)\n    tag_768:\n        /* \"#utility.yul\":25811:25825   */\n      pop\n        /* \"#utility.yul\":26219:26223   */\n      dup3\n        /* \"#utility.yul\":26212:26223   */\n      swap8\n      pop\n        /* \"#utility.yul\":26239:26242   */\n      dup8\n        /* \"#utility.yul\":26232:26242   */\n      swap6\n      pop\n        /* \"#utility.yul\":25401:26248   */\n      pop\n      pop\n      pop\n      pop\n      pop\n        /* \"#utility.yul\":25257:26248   */\n      swap3\n      swap2\n      pop\n      pop\n      jump\t// out\n        /* \"#utility.yul\":26254:26667   */\n    tag_201:\n        /* \"#utility.yul\":26417:26421   */\n      0x00\n        /* \"#utility.yul\":26455:26457   */\n      0x20\n        /* \"#utility.yul\":26444:26453   */\n      dup3\n        /* \"#utility.yul\":26440:26458   */\n      add\n        /* \"#utility.yul\":26432:26458   */\n      swap1\n      pop\n        /* \"#utility.yul\":26504:26513   */\n      dup2\n        /* \"#utility.yul\":26498:26502   */\n      dup2\n        /* \"#utility.yul\":26494:26514   */\n      sub\n        /* \"#utility.yul\":26490:26491   */\n      0x00\n        /* \"#utility.yul\":26479:26488   */\n      dup4\n        /* \"#utility.yul\":26475:26492   */\n      add\n        /* \"#utility.yul\":26468:26515   */\n      mstore\n        /* \"#utility.yul\":26532:26660   */\n      tag_772\n        /* \"#utility.yul\":26655:26659   */\n      dup2\n        /* \"#utility.yul\":26646:26652   */\n      dup5\n        /* \"#utility.yul\":26532:26660   */\n      tag_475\n      jump\t// in\n    tag_772:\n        /* \"#utility.yul\":26524:26660   */\n      swap1\n      pop\n        /* \"#utility.yul\":26254:26667   */\n      swap3\n      swap2\n      pop\n      pop\n      jump\t// out\n        /* \"#utility.yul\":26673:26849   */\n    tag_476:\n        /* \"#utility.yul\":26813:26841   */\n      0x496e73756666696369656e7420766f74696e6720726967687473000000000000\n        /* \"#utility.yul\":26809:26810   */\n      0x00\n        /* \"#utility.yul\":26801:26807   */\n      dup3\n        /* \"#utility.yul\":26797:26811   */\n      add\n        /* \"#utility.yul\":26790:26842   */\n      mstore\n        /* \"#utility.yul\":26673:26849   */\n      pop\n      jump\t// out\n        /* \"#utility.yul\":26855:27221   */\n    tag_477:\n        /* \"#utility.yul\":26997:27000   */\n      0x00\n        /* \"#utility.yul\":27018:27085   */\n      tag_775\n        /* \"#utility.yul\":27082:27084   */\n      0x1a\n        /* \"#utility.yul\":27077:27080   */\n      dup4\n        /* \"#utility.yul\":27018:27085   */\n      tag_438\n      jump\t// in\n    tag_775:\n        /* \"#utility.yul\":27011:27085   */\n      swap2\n      pop\n        /* \"#utility.yul\":27094:27187   */\n      tag_776\n        /* \"#utility.yul\":27183:27186   */\n      dup3\n        /* \"#utility.yul\":27094:27187   */\n      tag_476\n      jump\t// in\n    tag_776:\n        /* \"#utility.yul\":27212:27214   */\n      0x20\n        /* \"#utility.yul\":27207:27210   */\n      dup3\n        /* \"#utility.yul\":27203:27215   */\n      add\n        /* \"#utility.yul\":27196:27215   */\n      swap1\n      pop\n        /* \"#utility.yul\":26855:27221   */\n      swap2\n      swap1\n      pop\n      jump\t// out\n        /* \"#utility.yul\":27227:27646   */\n    tag_206:\n        /* \"#utility.yul\":27393:27397   */\n      0x00\n        /* \"#utility.yul\":27431:27433   */\n      0x20\n        /* \"#utility.yul\":27420:27429   */\n      dup3\n        /* \"#utility.yul\":27416:27434   */\n      add\n        /* \"#utility.yul\":27408:27434   */\n      swap1\n      pop\n        /* \"#utility.yul\":27480:27489   */\n      dup2\n        /* \"#utility.yul\":27474:27478   */\n      dup2\n        /* \"#utility.yul\":27470:27490   */\n      sub\n        /* \"#utility.yul\":27466:27467   */\n      0x00\n        /* \"#utility.yul\":27455:27464   */\n      dup4\n        /* \"#utility.yul\":27451:27468   */\n      add\n        /* \"#utility.yul\":27444:27491   */\n      mstore\n        /* \"#utility.yul\":27508:27639   */\n      tag_778\n        /* \"#utility.yul\":27634:27638   */\n      dup2\n        /* \"#utility.yul\":27508:27639   */\n      tag_477\n      jump\t// in\n    tag_778:\n        /* \"#utility.yul\":27500:27639   */\n      swap1\n      pop\n        /* \"#utility.yul\":27227:27646   */\n      swap2\n      swap1\n      pop\n      jump\t// out\n        /* \"#utility.yul\":27652:28094   */\n    tag_221:\n        /* \"#utility.yul\":27801:27805   */\n      0x00\n        /* \"#utility.yul\":27839:27841   */\n      0x60\n        /* \"#utility.yul\":27828:27837   */\n      dup3\n        /* \"#utility.yul\":27824:27842   */\n      add\n        /* \"#utility.yul\":27816:27842   */\n      swap1\n      pop\n        /* \"#utility.yul\":27852:27923   */\n      tag_780\n        /* \"#utility.yul\":27920:27921   */\n      0x00\n        /* \"#utility.yul\":27909:27918   */\n      dup4\n        /* \"#utility.yul\":27905:27922   */\n      add\n        /* \"#utility.yul\":27896:27902   */\n      dup7\n        /* \"#utility.yul\":27852:27923   */\n      tag_416\n      jump\t// in\n    tag_780:\n        /* \"#utility.yul\":27933:28005   */\n      tag_781\n        /* \"#utility.yul\":28001:28003   */\n      0x20\n        /* \"#utility.yul\":27990:27999   */\n      dup4\n        /* \"#utility.yul\":27986:28004   */\n      add\n        /* \"#utility.yul\":27977:27983   */\n      dup6\n        /* \"#utility.yul\":27933:28005   */\n      tag_416\n      jump\t// in\n    tag_781:\n        /* \"#utility.yul\":28015:28087   */\n      tag_782\n        /* \"#utility.yul\":28083:28085   */\n      0x40\n        /* \"#utility.yul\":28072:28081   */\n      dup4\n        /* \"#utility.yul\":28068:28086   */\n      add\n        /* \"#utility.yul\":28059:28065   */\n      dup5\n        /* \"#utility.yul\":28015:28087   */\n      tag_415\n      jump\t// in\n    tag_782:\n        /* \"#utility.yul\":27652:28094   */\n      swap5\n      swap4\n      pop\n      pop\n      pop\n      pop\n      jump\t// out\n        /* \"#utility.yul\":28100:28333   */\n    tag_478:\n        /* \"#utility.yul\":28240:28274   */\n      0x496e697469616c697a61626c653a20636f6e747261637420697320616c726561\n        /* \"#utility.yul\":28236:28237   */\n      0x00\n        /* \"#utility.yul\":28228:28234   */\n      dup3\n        /* \"#utility.yul\":28224:28238   */\n      add\n        /* \"#utility.yul\":28217:28275   */\n      mstore\n        /* \"#utility.yul\":28309:28325   */\n      0x647920696e697469616c697a6564000000000000000000000000000000000000\n        /* \"#utility.yul\":28304:28306   */\n      0x20\n        /* \"#utility.yul\":28296:28302   */\n      dup3\n        /* \"#utility.yul\":28292:28307   */\n      add\n        /* \"#utility.yul\":28285:28326   */\n      mstore\n        /* \"#utility.yul\":28100:28333   */\n      pop\n      jump\t// out\n        /* \"#utility.yul\":28339:28705   */\n    tag_479:\n        /* \"#utility.yul\":28481:28484   */\n      0x00\n        /* \"#utility.yul\":28502:28569   */\n      tag_785\n        /* \"#utility.yul\":28566:28568   */\n      0x2e\n        /* \"#utility.yul\":28561:28564   */\n      dup4\n        /* \"#utility.yul\":28502:28569   */\n      tag_438\n      jump\t// in\n    tag_785:\n        /* \"#utility.yul\":28495:28569   */\n      swap2\n      pop\n        /* \"#utility.yul\":28578:28671   */\n      tag_786\n        /* \"#utility.yul\":28667:28670   */\n      dup3\n        /* \"#utility.yul\":28578:28671   */\n      tag_478\n      jump\t// in\n    tag_786:\n        /* \"#utility.yul\":28696:28698   */\n      0x40\n        /* \"#utility.yul\":28691:28694   */\n      dup3\n        /* \"#utility.yul\":28687:28699   */\n      add\n        /* \"#utility.yul\":28680:28699   */\n      swap1\n      pop\n        /* \"#utility.yul\":28339:28705   */\n      swap2\n      swap1\n      pop\n      jump\t// out\n        /* \"#utility.yul\":28711:29130   */\n    tag_237:\n        /* \"#utility.yul\":28877:28881   */\n      0x00\n        /* \"#utility.yul\":28915:28917   */\n      0x20\n        /* \"#utility.yul\":28904:28913   */\n      dup3\n        /* \"#utility.yul\":28900:28918   */\n      add\n        /* \"#utility.yul\":28892:28918   */\n      swap1\n      pop\n        /* \"#utility.yul\":28964:28973   */\n      dup2\n        /* \"#utility.yul\":28958:28962   */\n      dup2\n        /* \"#utility.yul\":28954:28974   */\n      sub\n        /* \"#utility.yul\":28950:28951   */\n      0x00\n        /* \"#utility.yul\":28939:28948   */\n      dup4\n        /* \"#utility.yul\":28935:28952   */\n      add\n        /* \"#utility.yul\":28928:28975   */\n      mstore\n        /* \"#utility.yul\":28992:29123   */\n      tag_788\n        /* \"#utility.yul\":29118:29122   */\n      dup2\n        /* \"#utility.yul\":28992:29123   */\n      tag_479\n      jump\t// in\n    tag_788:\n        /* \"#utility.yul\":28984:29123   */\n      swap1\n      pop\n        /* \"#utility.yul\":28711:29130   */\n      swap2\n      swap1\n      pop\n      jump\t// out\n        /* \"#utility.yul\":29136:29221   */\n    tag_480:\n        /* \"#utility.yul\":29181:29188   */\n      0x00\n        /* \"#utility.yul\":29210:29215   */\n      dup2\n        /* \"#utility.yul\":29199:29215   */\n      swap1\n      pop\n        /* \"#utility.yul\":29136:29221   */\n      swap2\n      swap1\n      pop\n      jump\t// out\n        /* \"#utility.yul\":29227:29313   */\n    tag_481:\n        /* \"#utility.yul\":29262:29269   */\n      0x00\n        /* \"#utility.yul\":29302:29306   */\n      0xff\n        /* \"#utility.yul\":29295:29300   */\n      dup3\n        /* \"#utility.yul\":29291:29307   */\n      and\n        /* \"#utility.yul\":29280:29307   */\n      swap1\n      pop\n        /* \"#utility.yul\":29227:29313   */\n      swap2\n      swap1\n      pop\n      jump\t// out\n        /* \"#utility.yul\":29319:29473   */\n    tag_482:\n        /* \"#utility.yul\":29375:29384   */\n      0x00\n        /* \"#utility.yul\":29408:29467   */\n      tag_792\n        /* \"#utility.yul\":29424:29466   */\n      tag_793\n        /* \"#utility.yul\":29433:29465   */\n      tag_794\n        /* \"#utility.yul\":29459:29464   */\n      dup5\n        /* \"#utility.yul\":29433:29465   */\n      tag_480\n      jump\t// in\n    tag_794:\n        /* \"#utility.yul\":29424:29466   */\n      tag_456\n      jump\t// in\n    tag_793:\n        /* \"#utility.yul\":29408:29467   */\n      tag_481\n      jump\t// in\n    tag_792:\n        /* \"#utility.yul\":29395:29467   */\n      swap1\n      pop\n        /* \"#utility.yul\":29319:29473   */\n      swap2\n      swap1\n      pop\n      jump\t// out\n        /* \"#utility.yul\":29479:29622   */\n    tag_483:\n        /* \"#utility.yul\":29572:29615   */\n      tag_796\n        /* \"#utility.yul\":29609:29614   */\n      dup2\n        /* \"#utility.yul\":29572:29615   */\n      tag_482\n      jump\t// in\n    tag_796:\n        /* \"#utility.yul\":29567:29570   */\n      dup3\n        /* \"#utility.yul\":29560:29616   */\n      mstore\n        /* \"#utility.yul\":29479:29622   */\n      pop\n      pop\n      jump\t// out\n        /* \"#utility.yul\":29628:29862   */\n    tag_242:\n        /* \"#utility.yul\":29727:29731   */\n      0x00\n        /* \"#utility.yul\":29765:29767   */\n      0x20\n        /* \"#utility.yul\":29754:29763   */\n      dup3\n        /* \"#utility.yul\":29750:29768   */\n      add\n        /* \"#utility.yul\":29742:29768   */\n      swap1\n      pop\n        /* \"#utility.yul\":29778:29855   */\n      tag_798\n        /* \"#utility.yul\":29852:29853   */\n      0x00\n        /* \"#utility.yul\":29841:29850   */\n      dup4\n        /* \"#utility.yul\":29837:29854   */\n      add\n        /* \"#utility.yul\":29828:29834   */\n      dup5\n        /* \"#utility.yul\":29778:29855   */\n      tag_483\n      jump\t// in\n    tag_798:\n        /* \"#utility.yul\":29628:29862   */\n      swap3\n      swap2\n      pop\n      pop\n      jump\t// out\n        /* \"#utility.yul\":29868:29990   */\n    tag_484:\n        /* \"#utility.yul\":29941:29965   */\n      tag_800\n        /* \"#utility.yul\":29959:29964   */\n      dup2\n        /* \"#utility.yul\":29941:29965   */\n      tag_426\n      jump\t// in\n    tag_800:\n        /* \"#utility.yul\":29934:29939   */\n      dup2\n        /* \"#utility.yul\":29931:29966   */\n      eq\n        /* \"#utility.yul\":29921:29984   */\n      tag_801\n      jumpi\n        /* \"#utility.yul\":29980:29981   */\n      0x00\n        /* \"#utility.yul\":29977:29978   */\n      dup1\n        /* \"#utility.yul\":29970:29982   */\n      revert\n        /* \"#utility.yul\":29921:29984   */\n    tag_801:\n        /* \"#utility.yul\":29868:29990   */\n      pop\n      jump\t// out\n        /* \"#utility.yul\":29996:30139   */\n    tag_485:\n        /* \"#utility.yul\":30053:30058   */\n      0x00\n        /* \"#utility.yul\":30084:30090   */\n      dup2\n        /* \"#utility.yul\":30078:30091   */\n      mload\n        /* \"#utility.yul\":30069:30091   */\n      swap1\n      pop\n        /* \"#utility.yul\":30100:30133   */\n      tag_803\n        /* \"#utility.yul\":30127:30132   */\n      dup2\n        /* \"#utility.yul\":30100:30133   */\n      tag_484\n      jump\t// in\n    tag_803:\n        /* \"#utility.yul\":29996:30139   */\n      swap3\n      swap2\n      pop\n      pop\n      jump\t// out\n        /* \"#utility.yul\":30145:30496   */\n    tag_268:\n        /* \"#utility.yul\":30215:30221   */\n      0x00\n        /* \"#utility.yul\":30264:30266   */\n      0x20\n        /* \"#utility.yul\":30252:30261   */\n      dup3\n        /* \"#utility.yul\":30243:30250   */\n      dup5\n        /* \"#utility.yul\":30239:30262   */\n      sub\n        /* \"#utility.yul\":30235:30267   */\n      slt\n        /* \"#utility.yul\":30232:30351   */\n      iszero\n      tag_805\n      jumpi\n        /* \"#utility.yul\":30270:30349   */\n      tag_806\n      tag_404\n      jump\t// in\n    tag_806:\n        /* \"#utility.yul\":30232:30351   */\n    tag_805:\n        /* \"#utility.yul\":30390:30391   */\n      0x00\n        /* \"#utility.yul\":30415:30479   */\n      tag_807\n        /* \"#utility.yul\":30471:30478   */\n      dup5\n        /* \"#utility.yul\":30462:30468   */\n      dup3\n        /* \"#utility.yul\":30451:30460   */\n      dup6\n        /* \"#utility.yul\":30447:30469   */\n      add\n        /* \"#utility.yul\":30415:30479   */\n      tag_485\n      jump\t// in\n    tag_807:\n        /* \"#utility.yul\":30405:30479   */\n      swap2\n      pop\n        /* \"#utility.yul\":30361:30489   */\n      pop\n        /* \"#utility.yul\":30145:30496   */\n      swap3\n      swap2\n      pop\n      pop\n      jump\t// out\n        /* \"#utility.yul\":30502:30735   */\n    tag_486:\n        /* \"#utility.yul\":30642:30676   */\n      0x45524331393637557067726164653a206e657720696d706c656d656e74617469\n        /* \"#utility.yul\":30638:30639   */\n      0x00\n        /* \"#utility.yul\":30630:30636   */\n      dup3\n        /* \"#utility.yul\":30626:30640   */\n      add\n        /* \"#utility.yul\":30619:30677   */\n      mstore\n        /* \"#utility.yul\":30711:30727   */\n      0x6f6e206973206e6f742055555053000000000000000000000000000000000000\n        /* \"#utility.yul\":30706:30708   */\n      0x20\n        /* \"#utility.yul\":30698:30704   */\n      dup3\n        /* \"#utility.yul\":30694:30709   */\n      add\n        /* \"#utility.yul\":30687:30728   */\n      mstore\n        /* \"#utility.yul\":30502:30735   */\n      pop\n      jump\t// out\n        /* \"#utility.yul\":30741:31107   */\n    tag_487:\n        /* \"#utility.yul\":30883:30886   */\n      0x00\n        /* \"#utility.yul\":30904:30971   */\n      tag_810\n        /* \"#utility.yul\":30968:30970   */\n      0x2e\n        /* \"#utility.yul\":30963:30966   */\n      dup4\n        /* \"#utility.yul\":30904:30971   */\n      tag_438\n      jump\t// in\n    tag_810:\n        /* \"#utility.yul\":30897:30971   */\n      swap2\n      pop\n        /* \"#utility.yul\":30980:31073   */\n      tag_811\n        /* \"#utility.yul\":31069:31072   */\n      dup3\n        /* \"#utility.yul\":30980:31073   */\n      tag_486\n      jump\t// in\n    tag_811:\n        /* \"#utility.yul\":31098:31100   */\n      0x40\n        /* \"#utility.yul\":31093:31096   */\n      dup3\n        /* \"#utility.yul\":31089:31101   */\n      add\n        /* \"#utility.yul\":31082:31101   */\n      swap1\n      pop\n        /* \"#utility.yul\":30741:31107   */\n      swap2\n      swap1\n      pop\n      jump\t// out\n        /* \"#utility.yul\":31113:31532   */\n    tag_274:\n        /* \"#utility.yul\":31279:31283   */\n      0x00\n        /* \"#utility.yul\":31317:31319   */\n      0x20\n        /* \"#utility.yul\":31306:31315   */\n      dup3\n        /* \"#utility.yul\":31302:31320   */\n      add\n        /* \"#utility.yul\":31294:31320   */\n      swap1\n      pop\n        /* \"#utility.yul\":31366:31375   */\n      dup2\n        /* \"#utility.yul\":31360:31364   */\n      dup2\n        /* \"#utility.yul\":31356:31376   */\n      sub\n        /* \"#utility.yul\":31352:31353   */\n      0x00\n        /* \"#utility.yul\":31341:31350   */\n      dup4\n        /* \"#utility.yul\":31337:31354   */\n      add\n        /* \"#utility.yul\":31330:31377   */\n      mstore\n        /* \"#utility.yul\":31394:31525   */\n      tag_813\n        /* \"#utility.yul\":31520:31524   */\n      dup2\n        /* \"#utility.yul\":31394:31525   */\n      tag_487\n      jump\t// in\n    tag_813:\n        /* \"#utility.yul\":31386:31525   */\n      swap1\n      pop\n        /* \"#utility.yul\":31113:31532   */\n      swap2\n      swap1\n      pop\n      jump\t// out\n        /* \"#utility.yul\":31538:31766   */\n    tag_488:\n        /* \"#utility.yul\":31678:31712   */\n      0x45524331393637557067726164653a20756e737570706f727465642070726f78\n        /* \"#utility.yul\":31674:31675   */\n      0x00\n        /* \"#utility.yul\":31666:31672   */\n      dup3\n        /* \"#utility.yul\":31662:31676   */\n      add\n        /* \"#utility.yul\":31655:31713   */\n      mstore\n        /* \"#utility.yul\":31747:31758   */\n      0x6961626c65555549440000000000000000000000000000000000000000000000\n        /* \"#utility.yul\":31742:31744   */\n      0x20\n        /* \"#utility.yul\":31734:31740   */\n      dup3\n        /* \"#utility.yul\":31730:31745   */\n      add\n        /* \"#utility.yul\":31723:31759   */\n      mstore\n        /* \"#utility.yul\":31538:31766   */\n      pop\n      jump\t// out\n        /* \"#utility.yul\":31772:32138   */\n    tag_489:\n        /* \"#utility.yul\":31914:31917   */\n      0x00\n        /* \"#utility.yul\":31935:32002   */\n      tag_816\n        /* \"#utility.yul\":31999:32001   */\n      0x29\n        /* \"#utility.yul\":31994:31997   */\n      dup4\n        /* \"#utility.yul\":31935:32002   */\n      tag_438\n      jump\t// in\n    tag_816:\n        /* \"#utility.yul\":31928:32002   */\n      swap2\n      pop\n        /* \"#utility.yul\":32011:32104   */\n      tag_817\n        /* \"#utility.yul\":32100:32103   */\n      dup3\n        /* \"#utility.yul\":32011:32104   */\n      tag_488\n      jump\t// in\n    tag_817:\n        /* \"#utility.yul\":32129:32131   */\n      0x40\n        /* \"#utility.yul\":32124:32127   */\n      dup3\n        /* \"#utility.yul\":32120:32132   */\n      add\n        /* \"#utility.yul\":32113:32132   */\n      swap1\n      pop\n        /* \"#utility.yul\":31772:32138   */\n      swap2\n      swap1\n      pop\n      jump\t// out\n        /* \"#utility.yul\":32144:32563   */\n    tag_278:\n        /* \"#utility.yul\":32310:32314   */\n      0x00\n        /* \"#utility.yul\":32348:32350   */\n      0x20\n        /* \"#utility.yul\":32337:32346   */\n      dup3\n        /* \"#utility.yul\":32333:32351   */\n      add\n        /* \"#utility.yul\":32325:32351   */\n      swap1\n      pop\n        /* \"#utility.yul\":32397:32406   */\n      dup2\n        /* \"#utility.yul\":32391:32395   */\n      dup2\n        /* \"#utility.yul\":32387:32407   */\n      sub\n        /* \"#utility.yul\":32383:32384   */\n      0x00\n        /* \"#utility.yul\":32372:32381   */\n      dup4\n        /* \"#utility.yul\":32368:32385   */\n      add\n        /* \"#utility.yul\":32361:32408   */\n      mstore\n        /* \"#utility.yul\":32425:32556   */\n      tag_819\n        /* \"#utility.yul\":32551:32555   */\n      dup2\n        /* \"#utility.yul\":32425:32556   */\n      tag_489\n      jump\t// in\n    tag_819:\n        /* \"#utility.yul\":32417:32556   */\n      swap1\n      pop\n        /* \"#utility.yul\":32144:32563   */\n      swap2\n      swap1\n      pop\n      jump\t// out\n        /* \"#utility.yul\":32569:32979   */\n    tag_326:\n        /* \"#utility.yul\":32609:32616   */\n      0x00\n        /* \"#utility.yul\":32632:32652   */\n      tag_821\n        /* \"#utility.yul\":32650:32651   */\n      dup3\n        /* \"#utility.yul\":32632:32652   */\n      tag_406\n      jump\t// in\n    tag_821:\n        /* \"#utility.yul\":32627:32652   */\n      swap2\n      pop\n        /* \"#utility.yul\":32666:32686   */\n      tag_822\n        /* \"#utility.yul\":32684:32685   */\n      dup4\n        /* \"#utility.yul\":32666:32686   */\n      tag_406\n      jump\t// in\n    tag_822:\n        /* \"#utility.yul\":32661:32686   */\n      swap3\n      pop\n        /* \"#utility.yul\":32721:32722   */\n      dup3\n        /* \"#utility.yul\":32718:32719   */\n      dup3\n        /* \"#utility.yul\":32714:32723   */\n      mul\n        /* \"#utility.yul\":32743:32773   */\n      tag_823\n        /* \"#utility.yul\":32761:32772   */\n      dup2\n        /* \"#utility.yul\":32743:32773   */\n      tag_406\n      jump\t// in\n    tag_823:\n        /* \"#utility.yul\":32732:32773   */\n      swap2\n      pop\n        /* \"#utility.yul\":32922:32923   */\n      dup3\n        /* \"#utility.yul\":32913:32920   */\n      dup3\n        /* \"#utility.yul\":32909:32924   */\n      div\n        /* \"#utility.yul\":32906:32907   */\n      dup5\n        /* \"#utility.yul\":32903:32925   */\n      eq\n        /* \"#utility.yul\":32883:32884   */\n      dup4\n        /* \"#utility.yul\":32876:32885   */\n      iszero\n        /* \"#utility.yul\":32856:32939   */\n      or\n        /* \"#utility.yul\":32833:32972   */\n      tag_824\n      jumpi\n        /* \"#utility.yul\":32952:32970   */\n      tag_825\n      tag_441\n      jump\t// in\n    tag_825:\n        /* \"#utility.yul\":32833:32972   */\n    tag_824:\n        /* \"#utility.yul\":32617:32979   */\n      pop\n        /* \"#utility.yul\":32569:32979   */\n      swap3\n      swap2\n      pop\n      pop\n      jump\t// out\n        /* \"#utility.yul\":32985:33165   */\n    tag_490:\n        /* \"#utility.yul\":33033:33110   */\n      0x4e487b7100000000000000000000000000000000000000000000000000000000\n        /* \"#utility.yul\":33030:33031   */\n      0x00\n        /* \"#utility.yul\":33023:33111   */\n      mstore\n        /* \"#utility.yul\":33130:33134   */\n      0x12\n        /* \"#utility.yul\":33127:33128   */\n      0x04\n        /* \"#utility.yul\":33120:33135   */\n      mstore\n        /* \"#utility.yul\":33154:33158   */\n      0x24\n        /* \"#utility.yul\":33151:33152   */\n      0x00\n        /* \"#utility.yul\":33144:33159   */\n      revert\n        /* \"#utility.yul\":33171:33356   */\n    tag_328:\n        /* \"#utility.yul\":33211:33212   */\n      0x00\n        /* \"#utility.yul\":33228:33248   */\n      tag_828\n        /* \"#utility.yul\":33246:33247   */\n      dup3\n        /* \"#utility.yul\":33228:33248   */\n      tag_406\n      jump\t// in\n    tag_828:\n        /* \"#utility.yul\":33223:33248   */\n      swap2\n      pop\n        /* \"#utility.yul\":33262:33282   */\n      tag_829\n        /* \"#utility.yul\":33280:33281   */\n      dup4\n        /* \"#utility.yul\":33262:33282   */\n      tag_406\n      jump\t// in\n    tag_829:\n        /* \"#utility.yul\":33257:33282   */\n      swap3\n      pop\n        /* \"#utility.yul\":33301:33302   */\n      dup3\n        /* \"#utility.yul\":33291:33326   */\n      tag_830\n      jumpi\n        /* \"#utility.yul\":33306:33324   */\n      tag_831\n      tag_490\n      jump\t// in\n    tag_831:\n        /* \"#utility.yul\":33291:33326   */\n    tag_830:\n        /* \"#utility.yul\":33348:33349   */\n      dup3\n        /* \"#utility.yul\":33345:33346   */\n      dup3\n        /* \"#utility.yul\":33341:33350   */\n      div\n        /* \"#utility.yul\":33336:33350   */\n      swap1\n      pop\n        /* \"#utility.yul\":33171:33356   */\n      swap3\n      swap2\n      pop\n      pop\n      jump\t// out\n        /* \"#utility.yul\":33362:33594   */\n    tag_491:\n        /* \"#utility.yul\":33502:33536   */\n      0x455243313936373a206e657720696d706c656d656e746174696f6e206973206e\n        /* \"#utility.yul\":33498:33499   */\n      0x00\n        /* \"#utility.yul\":33490:33496   */\n      dup3\n        /* \"#utility.yul\":33486:33500   */\n      add\n        /* \"#utility.yul\":33479:33537   */\n      mstore\n        /* \"#utility.yul\":33571:33586   */\n      0x6f74206120636f6e747261637400000000000000000000000000000000000000\n        /* \"#utility.yul\":33566:33568   */\n      0x20\n        /* \"#utility.yul\":33558:33564   */\n      dup3\n        /* \"#utility.yul\":33554:33569   */\n      add\n        /* \"#utility.yul\":33547:33587   */\n      mstore\n        /* \"#utility.yul\":33362:33594   */\n      pop\n      jump\t// out\n        /* \"#utility.yul\":33600:33966   */\n    tag_492:\n        /* \"#utility.yul\":33742:33745   */\n      0x00\n        /* \"#utility.yul\":33763:33830   */\n      tag_834\n        /* \"#utility.yul\":33827:33829   */\n      0x2d\n        /* \"#utility.yul\":33822:33825   */\n      dup4\n        /* \"#utility.yul\":33763:33830   */\n      tag_438\n      jump\t// in\n    tag_834:\n        /* \"#utility.yul\":33756:33830   */\n      swap2\n      pop\n        /* \"#utility.yul\":33839:33932   */\n      tag_835\n        /* \"#utility.yul\":33928:33931   */\n      dup3\n        /* \"#utility.yul\":33839:33932   */\n      tag_491\n      jump\t// in\n    tag_835:\n        /* \"#utility.yul\":33957:33959   */\n      0x40\n        /* \"#utility.yul\":33952:33955   */\n      dup3\n        /* \"#utility.yul\":33948:33960   */\n      add\n        /* \"#utility.yul\":33941:33960   */\n      swap1\n      pop\n        /* \"#utility.yul\":33600:33966   */\n      swap2\n      swap1\n      pop\n      jump\t// out\n        /* \"#utility.yul\":33972:34391   */\n    tag_346:\n        /* \"#utility.yul\":34138:34142   */\n      0x00\n        /* \"#utility.yul\":34176:34178   */\n      0x20\n        /* \"#utility.yul\":34165:34174   */\n      dup3\n        /* \"#utility.yul\":34161:34179   */\n      add\n        /* \"#utility.yul\":34153:34179   */\n      swap1\n      pop\n        /* \"#utility.yul\":34225:34234   */\n      dup2\n        /* \"#utility.yul\":34219:34223   */\n      dup2\n        /* \"#utility.yul\":34215:34235   */\n      sub\n        /* \"#utility.yul\":34211:34212   */\n      0x00\n        /* \"#utility.yul\":34200:34209   */\n      dup4\n        /* \"#utility.yul\":34196:34213   */\n      add\n        /* \"#utility.yul\":34189:34236   */\n      mstore\n        /* \"#utility.yul\":34253:34384   */\n      tag_837\n        /* \"#utility.yul\":34379:34383   */\n      dup2\n        /* \"#utility.yul\":34253:34384   */\n      tag_492\n      jump\t// in\n    tag_837:\n        /* \"#utility.yul\":34245:34384   */\n      swap1\n      pop\n        /* \"#utility.yul\":33972:34391   */\n      swap2\n      swap1\n      pop\n      jump\t// out\n        /* \"#utility.yul\":34397:34725   */\n    tag_368:\n        /* \"#utility.yul\":34516:34520   */\n      0x00\n        /* \"#utility.yul\":34554:34556   */\n      0x40\n        /* \"#utility.yul\":34543:34552   */\n      dup3\n        /* \"#utility.yul\":34539:34557   */\n      add\n        /* \"#utility.yul\":34531:34557   */\n      swap1\n      pop\n        /* \"#utility.yul\":34567:34638   */\n      tag_839\n        /* \"#utility.yul\":34635:34636   */\n      0x00\n        /* \"#utility.yul\":34624:34633   */\n      dup4\n        /* \"#utility.yul\":34620:34637   */\n      add\n        /* \"#utility.yul\":34611:34617   */\n      dup6\n        /* \"#utility.yul\":34567:34638   */\n      tag_415\n      jump\t// in\n    tag_839:\n        /* \"#utility.yul\":34648:34718   */\n      tag_840\n        /* \"#utility.yul\":34714:34716   */\n      0x20\n        /* \"#utility.yul\":34703:34712   */\n      dup4\n        /* \"#utility.yul\":34699:34717   */\n      add\n        /* \"#utility.yul\":34690:34696   */\n      dup5\n        /* \"#utility.yul\":34648:34718   */\n      tag_414\n      jump\t// in\n    tag_840:\n        /* \"#utility.yul\":34397:34725   */\n      swap4\n      swap3\n      pop\n      pop\n      pop\n      jump\t// out\n        /* \"#utility.yul\":34731:35287   */\n    tag_372:\n        /* \"#utility.yul\":34770:34777   */\n      0x00\n        /* \"#utility.yul\":34793:34812   */\n      tag_842\n        /* \"#utility.yul\":34810:34811   */\n      dup3\n        /* \"#utility.yul\":34793:34812   */\n      tag_413\n      jump\t// in\n    tag_842:\n        /* \"#utility.yul\":34788:34812   */\n      swap2\n      pop\n        /* \"#utility.yul\":34826:34845   */\n      tag_843\n        /* \"#utility.yul\":34843:34844   */\n      dup4\n        /* \"#utility.yul\":34826:34845   */\n      tag_413\n      jump\t// in\n    tag_843:\n        /* \"#utility.yul\":34821:34845   */\n      swap3\n      pop\n        /* \"#utility.yul\":34880:34881   */\n      dup3\n        /* \"#utility.yul\":34877:34878   */\n      dup3\n        /* \"#utility.yul\":34873:34882   */\n      mul\n        /* \"#utility.yul\":34902:34931   */\n      tag_844\n        /* \"#utility.yul\":34919:34930   */\n      dup2\n        /* \"#utility.yul\":34902:34931   */\n      tag_413\n      jump\t// in\n    tag_844:\n        /* \"#utility.yul\":34891:34931   */\n      swap2\n      pop\n        /* \"#utility.yul\":34989:35055   */\n      0x8000000000000000000000000000000000000000000000000000000000000000\n        /* \"#utility.yul\":34986:34987   */\n      dup5\n        /* \"#utility.yul\":34983:35056   */\n      eq\n        /* \"#utility.yul\":34979:34980   */\n      0x00\n        /* \"#utility.yul\":34976:34977   */\n      dup5\n        /* \"#utility.yul\":34972:34981   */\n      slt\n        /* \"#utility.yul\":34968:35057   */\n      and\n        /* \"#utility.yul\":34965:35080   */\n      iszero\n      tag_845\n      jumpi\n        /* \"#utility.yul\":35060:35078   */\n      tag_846\n      tag_441\n      jump\t// in\n    tag_846:\n        /* \"#utility.yul\":34965:35080   */\n    tag_845:\n        /* \"#utility.yul\":35230:35231   */\n      dup3\n        /* \"#utility.yul\":35221:35228   */\n      dup3\n        /* \"#utility.yul\":35216:35232   */\n      sdiv\n        /* \"#utility.yul\":35213:35214   */\n      dup5\n        /* \"#utility.yul\":35210:35233   */\n      eq\n        /* \"#utility.yul\":35190:35191   */\n      dup4\n        /* \"#utility.yul\":35183:35192   */\n      iszero\n        /* \"#utility.yul\":35163:35247   */\n      or\n        /* \"#utility.yul\":35140:35280   */\n      tag_847\n      jumpi\n        /* \"#utility.yul\":35260:35278   */\n      tag_848\n      tag_441\n      jump\t// in\n    tag_848:\n        /* \"#utility.yul\":35140:35280   */\n    tag_847:\n        /* \"#utility.yul\":34778:35287   */\n      pop\n        /* \"#utility.yul\":34731:35287   */\n      swap3\n      swap2\n      pop\n      pop\n      jump\t// out\n        /* \"#utility.yul\":35293:35391   */\n    tag_493:\n        /* \"#utility.yul\":35344:35350   */\n      0x00\n        /* \"#utility.yul\":35378:35383   */\n      dup2\n        /* \"#utility.yul\":35372:35384   */\n      mload\n        /* \"#utility.yul\":35362:35384   */\n      swap1\n      pop\n        /* \"#utility.yul\":35293:35391   */\n      swap2\n      swap1\n      pop\n      jump\t// out\n        /* \"#utility.yul\":35397:35544   */\n    tag_494:\n        /* \"#utility.yul\":35498:35509   */\n      0x00\n        /* \"#utility.yul\":35535:35538   */\n      dup2\n        /* \"#utility.yul\":35520:35538   */\n      swap1\n      pop\n        /* \"#utility.yul\":35397:35544   */\n      swap3\n      swap2\n      pop\n      pop\n      jump\t// out\n        /* \"#utility.yul\":35550:35936   */\n    tag_495:\n        /* \"#utility.yul\":35654:35657   */\n      0x00\n        /* \"#utility.yul\":35682:35720   */\n      tag_852\n        /* \"#utility.yul\":35714:35719   */\n      dup3\n        /* \"#utility.yul\":35682:35720   */\n      tag_493\n      jump\t// in\n    tag_852:\n        /* \"#utility.yul\":35736:35824   */\n      tag_853\n        /* \"#utility.yul\":35817:35823   */\n      dup2\n        /* \"#utility.yul\":35812:35815   */\n      dup6\n        /* \"#utility.yul\":35736:35824   */\n      tag_494\n      jump\t// in\n    tag_853:\n        /* \"#utility.yul\":35729:35824   */\n      swap4\n      pop\n        /* \"#utility.yul\":35833:35898   */\n      tag_854\n        /* \"#utility.yul\":35891:35897   */\n      dup2\n        /* \"#utility.yul\":35886:35889   */\n      dup6\n        /* \"#utility.yul\":35879:35883   */\n      0x20\n        /* \"#utility.yul\":35872:35877   */\n      dup7\n        /* \"#utility.yul\":35868:35884   */\n      add\n        /* \"#utility.yul\":35833:35898   */\n      tag_471\n      jump\t// in\n    tag_854:\n        /* \"#utility.yul\":35923:35929   */\n      dup1\n        /* \"#utility.yul\":35918:35921   */\n      dup5\n        /* \"#utility.yul\":35914:35930   */\n      add\n        /* \"#utility.yul\":35907:35930   */\n      swap2\n      pop\n        /* \"#utility.yul\":35658:35936   */\n      pop\n        /* \"#utility.yul\":35550:35936   */\n      swap3\n      swap2\n      pop\n      pop\n      jump\t// out\n        /* \"#utility.yul\":35942:36213   */\n    tag_382:\n        /* \"#utility.yul\":36072:36075   */\n      0x00\n        /* \"#utility.yul\":36094:36187   */\n      tag_856\n        /* \"#utility.yul\":36183:36186   */\n      dup3\n        /* \"#utility.yul\":36174:36180   */\n      dup5\n        /* \"#utility.yul\":36094:36187   */\n      tag_495\n      jump\t// in\n    tag_856:\n        /* \"#utility.yul\":36087:36187   */\n      swap2\n      pop\n        /* \"#utility.yul\":36204:36207   */\n      dup2\n        /* \"#utility.yul\":36197:36207   */\n      swap1\n      pop\n        /* \"#utility.yul\":35942:36213   */\n      swap3\n      swap2\n      pop\n      pop\n      jump\t// out\n        /* \"#utility.yul\":36219:36398   */\n    tag_496:\n        /* \"#utility.yul\":36359:36390   */\n      0x416464726573733a2063616c6c20746f206e6f6e2d636f6e7472616374000000\n        /* \"#utility.yul\":36355:36356   */\n      0x00\n        /* \"#utility.yul\":36347:36353   */\n      dup3\n        /* \"#utility.yul\":36343:36357   */\n      add\n        /* \"#utility.yul\":36336:36391   */\n      mstore\n        /* \"#utility.yul\":36219:36398   */\n      pop\n      jump\t// out\n        /* \"#utility.yul\":36404:36770   */\n    tag_497:\n        /* \"#utility.yul\":36546:36549   */\n      0x00\n        /* \"#utility.yul\":36567:36634   */\n      tag_859\n        /* \"#utility.yul\":36631:36633   */\n      0x1d\n        /* \"#utility.yul\":36626:36629   */\n      dup4\n        /* \"#utility.yul\":36567:36634   */\n      tag_438\n      jump\t// in\n    tag_859:\n        /* \"#utility.yul\":36560:36634   */\n      swap2\n      pop\n        /* \"#utility.yul\":36643:36736   */\n      tag_860\n        /* \"#utility.yul\":36732:36735   */\n      dup3\n        /* \"#utility.yul\":36643:36736   */\n      tag_496\n      jump\t// in\n    tag_860:\n        /* \"#utility.yul\":36761:36763   */\n      0x20\n        /* \"#utility.yul\":36756:36759   */\n      dup3\n        /* \"#utility.yul\":36752:36764   */\n      add\n        /* \"#utility.yul\":36745:36764   */\n      swap1\n      pop\n        /* \"#utility.yul\":36404:36770   */\n      swap2\n      swap1\n      pop\n      jump\t// out\n        /* \"#utility.yul\":36776:37195   */\n    tag_394:\n        /* \"#utility.yul\":36942:36946   */\n      0x00\n        /* \"#utility.yul\":36980:36982   */\n      0x20\n        /* \"#utility.yul\":36969:36978   */\n      dup3\n        /* \"#utility.yul\":36965:36983   */\n      add\n        /* \"#utility.yul\":36957:36983   */\n      swap1\n      pop\n        /* \"#utility.yul\":37029:37038   */\n      dup2\n        /* \"#utility.yul\":37023:37027   */\n      dup2\n        /* \"#utility.yul\":37019:37039   */\n      sub\n        /* \"#utility.yul\":37015:37016   */\n      0x00\n        /* \"#utility.yul\":37004:37013   */\n      dup4\n        /* \"#utility.yul\":37000:37017   */\n      add\n        /* \"#utility.yul\":36993:37040   */\n      mstore\n        /* \"#utility.yul\":37057:37188   */\n      tag_862\n        /* \"#utility.yul\":37183:37187   */\n      dup2\n        /* \"#utility.yul\":37057:37188   */\n      tag_497\n      jump\t// in\n    tag_862:\n        /* \"#utility.yul\":37049:37188   */\n      swap1\n      pop\n        /* \"#utility.yul\":36776:37195   */\n      swap2\n      swap1\n      pop\n      jump\t// out\n        /* \"#utility.yul\":37201:37578   */\n    tag_498:\n        /* \"#utility.yul\":37289:37292   */\n      0x00\n        /* \"#utility.yul\":37317:37356   */\n      tag_864\n        /* \"#utility.yul\":37350:37355   */\n      dup3\n        /* \"#utility.yul\":37317:37356   */\n      tag_450\n      jump\t// in\n    tag_864:\n        /* \"#utility.yul\":37372:37443   */\n      tag_865\n        /* \"#utility.yul\":37436:37442   */\n      dup2\n        /* \"#utility.yul\":37431:37434   */\n      dup6\n        /* \"#utility.yul\":37372:37443   */\n      tag_438\n      jump\t// in\n    tag_865:\n        /* \"#utility.yul\":37365:37443   */\n      swap4\n      pop\n        /* \"#utility.yul\":37452:37517   */\n      tag_866\n        /* \"#utility.yul\":37510:37516   */\n      dup2\n        /* \"#utility.yul\":37505:37508   */\n      dup6\n        /* \"#utility.yul\":37498:37502   */\n      0x20\n        /* \"#utility.yul\":37491:37496   */\n      dup7\n        /* \"#utility.yul\":37487:37503   */\n      add\n        /* \"#utility.yul\":37452:37517   */\n      tag_471\n      jump\t// in\n    tag_866:\n        /* \"#utility.yul\":37542:37571   */\n      tag_867\n        /* \"#utility.yul\":37564:37570   */\n      dup2\n        /* \"#utility.yul\":37542:37571   */\n      tag_419\n      jump\t// in\n    tag_867:\n        /* \"#utility.yul\":37537:37540   */\n      dup5\n        /* \"#utility.yul\":37533:37572   */\n      add\n        /* \"#utility.yul\":37526:37572   */\n      swap2\n      pop\n        /* \"#utility.yul\":37293:37578   */\n      pop\n        /* \"#utility.yul\":37201:37578   */\n      swap3\n      swap2\n      pop\n      pop\n      jump\t// out\n        /* \"#utility.yul\":37584:37897   */\n    tag_402:\n        /* \"#utility.yul\":37697:37701   */\n      0x00\n        /* \"#utility.yul\":37735:37737   */\n      0x20\n        /* \"#utility.yul\":37724:37733   */\n      dup3\n        /* \"#utility.yul\":37720:37738   */\n      add\n        /* \"#utility.yul\":37712:37738   */\n      swap1\n      pop\n        /* \"#utility.yul\":37784:37793   */\n      dup2\n        /* \"#utility.yul\":37778:37782   */\n      dup2\n        /* \"#utility.yul\":37774:37794   */\n      sub\n        /* \"#utility.yul\":37770:37771   */\n      0x00\n        /* \"#utility.yul\":37759:37768   */\n      dup4\n        /* \"#utility.yul\":37755:37772   */\n      add\n        /* \"#utility.yul\":37748:37795   */\n      mstore\n        /* \"#utility.yul\":37812:37890   */\n      tag_869\n        /* \"#utility.yul\":37885:37889   */\n      dup2\n        /* \"#utility.yul\":37876:37882   */\n      dup5\n        /* \"#utility.yul\":37812:37890   */\n      tag_498\n      jump\t// in\n    tag_869:\n        /* \"#utility.yul\":37804:37890   */\n      swap1\n      pop\n        /* \"#utility.yul\":37584:37897   */\n      swap3\n      swap2\n      pop\n      pop\n      jump\t// out\n    stop\n    data_9fdcd12e4b726339b32a442b0a448365d5d85c96b2d2cff917b4f66c63110398 416464726573733a206c6f772d6c6576656c2064656c65676174652063616c6c206661696c6564\n\n    auxdata: 0xa2646970667358221220033ff32d64f03327df1c0abe34cb3f72dea297b858d5e0c01fd0096e8562f3e964736f6c634300081a0033\n}\n",
				"bytecode": {
					"linkReferences": {},
					"object": "60a06040523073ffffffffffffffffffffffffffffffffffffffff1660809073ffffffffffffffffffffffffffffffffffffffff168152503480156041575f80fd5b506080516137686100765f395f8181610764015281816107f20152818161094e015281816109dc0152610a8b01526137685ff3fe60806040526004361061011e575f3560e01c80638624b42d1161009f578063b511328d11610063578063b511328d14610415578063b6b55f2514610451578063c3a0aba81461048d578063c4d66de8146104b7578063f647344b146104df5761011e565b80638624b42d146103215780638a6655d61461035d5780638da5cb5b146103855780639c1fcc4c146103af578063b00673bc146103d95761011e565b806345071c71116100e657806345071c71146102265780634f1ef2861461026357806352d1902d1461027f5780636c24a76f146102a95780637c7b66f7146102e55761011e565b80630c7353e01461012257806327e235e31461015e5780632e1a7d4d1461019a5780632efdc9f5146101c25780633659cfe6146101fe575b5f80fd5b34801561012d575f80fd5b5061014860048036038101906101439190612401565b610507565b6040516101559190612457565b60405180910390f35b348015610169575f80fd5b50610184600480360381019061017f9190612470565b610527565b60405161019191906124aa565b60405180910390f35b3480156101a5575f80fd5b506101c060048036038101906101bb91906124c3565b61053c565b005b3480156101cd575f80fd5b506101e860048036038101906101e391906124c3565b61074d565b6040516101f591906124aa565b60405180910390f35b348015610209575f80fd5b50610224600480360381019061021f9190612470565b610762565b005b348015610231575f80fd5b5061024c600480360381019061024791906124ee565b6108e8565b60405161025a92919061254d565b60405180910390f35b61027d600480360381019061027891906126b0565b61094c565b005b34801561028a575f80fd5b50610293610a88565b6040516102a09190612722565b60405180910390f35b3480156102b4575f80fd5b506102cf60048036038101906102ca9190612470565b610b3f565b6040516102dc91906124aa565b60405180910390f35b3480156102f0575f80fd5b5061030b600480360381019061030691906124c3565b610bdc565b60405161031891906124aa565b60405180910390f35b34801561032c575f80fd5b50610347600480360381019061034291906128bb565b610d05565b60405161035491906124aa565b60405180910390f35b348015610368575f80fd5b50610383600480360381019061037e91906124ee565b610e86565b005b348015610390575f80fd5b50610399611099565b6040516103a69190612902565b60405180910390f35b3480156103ba575f80fd5b506103c36110be565b6040516103d09190612902565b60405180910390f35b3480156103e4575f80fd5b506103ff60048036038101906103fa9190612470565b6110e3565b60405161040c91906124aa565b60405180910390f35b348015610420575f80fd5b5061043b600480360381019061043691906124c3565b6110f8565b6040516104489190612902565b60405180910390f35b34801561045c575f80fd5b50610477600480360381019061047291906124c3565b611140565b60405161048491906124aa565b60405180910390f35b348015610498575f80fd5b506104a1611304565b6040516104ae9190612902565b60405180910390f35b3480156104c2575f80fd5b506104dd60048036038101906104d89190612470565b611329565b005b3480156104ea575f80fd5b506105056004803603810190610500919061291b565b6114da565b005b6008602052815f5260405f20602052805f5260405f205f91509150505481565b6004602052805f5260405f205f915090505481565b5f61054633610b3f565b905081811061058e5733816040517ff6deaa0400000000000000000000000000000000000000000000000000000000815260040161058592919061254d565b60405180910390fd5b60025f9054906101000a900473ffffffffffffffffffffffffffffffffffffffff1673ffffffffffffffffffffffffffffffffffffffff1663a9059cbb33846040518363ffffffff1660e01b81526004016105ea92919061254d565b6020604051808303815f875af1158015610606573d5f803e3d5ffd5b505050506040513d601f19601f8201168201806040525081019061062a919061298e565b610669576040517f08c379a000000000000000000000000000000000000000000000000000000000815260040161066090612a13565b60405180910390fd5b8160045f3373ffffffffffffffffffffffffffffffffffffffff1673ffffffffffffffffffffffffffffffffffffffff1681526020019081526020015f205f8282546106b59190612a5e565b925050819055503373ffffffffffffffffffffffffffffffffffffffff167ff279e6a1f5e320cca91135676d9cb6e44ca8a08c0b88342bcdb1144f6511b5688360045f3373ffffffffffffffffffffffffffffffffffffffff1673ffffffffffffffffffffffffffffffffffffffff1681526020019081526020015f2054604051610741929190612a91565b60405180910390a25050565b6007602052805f5260405f205f915090505481565b7f000000000000000000000000000000000000000000000000000000000000000073ffffffffffffffffffffffffffffffffffffffff163073ffffffffffffffffffffffffffffffffffffffff16036107f0576040517f08c379a00000000000000000000000000000000000000000000000000000000081526004016107e790612b28565b60405180910390fd5b7f000000000000000000000000000000000000000000000000000000000000000073ffffffffffffffffffffffffffffffffffffffff1661082f611522565b73ffffffffffffffffffffffffffffffffffffffff1614610885576040517f08c379a000000000000000000000000000000000000000000000000000000000815260040161087c90612bb6565b60405180910390fd5b61088e81611575565b6108e5815f67ffffffffffffffff8111156108ac576108ab61258c565b5b6040519080825280601f01601f1916602001820160405280156108de5781602001600182028036833780820191505090505b505f611649565b50565b6006602052825f5260405f20602052815f5260405f20818154811061090b575f80fd5b905f5260205f2090600202015f925092505050805f015f9054906101000a900473ffffffffffffffffffffffffffffffffffffffff16908060010154905082565b7f000000000000000000000000000000000000000000000000000000000000000073ffffffffffffffffffffffffffffffffffffffff163073ffffffffffffffffffffffffffffffffffffffff16036109da576040517f08c379a00000000000000000000000000000000000000000000000000000000081526004016109d190612b28565b60405180910390fd5b7f000000000000000000000000000000000000000000000000000000000000000073ffffffffffffffffffffffffffffffffffffffff16610a19611522565b73ffffffffffffffffffffffffffffffffffffffff1614610a6f576040517f08c379a0000000000000000000000000000000000000000000000000000000008152600401610a6690612bb6565b60405180910390fd5b610a7882611575565b610a8482826001611649565b5050565b5f7f000000000000000000000000000000000000000000000000000000000000000073ffffffffffffffffffffffffffffffffffffffff163073ffffffffffffffffffffffffffffffffffffffff1614610b17576040517f08c379a0000000000000000000000000000000000000000000000000000000008152600401610b0e90612c44565b60405180910390fd5b7f360894a13ba1a3210667c828492db98dca3e2076cc3735a920a3ca505d382bbc5f1b905090565b5f8060045f8473ffffffffffffffffffffffffffffffffffffffff1673ffffffffffffffffffffffffffffffffffffffff1681526020019081526020015f205490505f60055f8573ffffffffffffffffffffffffffffffffffffffff1673ffffffffffffffffffffffffffffffffffffffff1681526020019081526020015f205490505f8190508083610bd29190612a5e565b9350505050919050565b5f808211610c1f576040517f08c379a0000000000000000000000000000000000000000000000000000000008152600401610c1690612cac565b60405180910390fd5b8160045f3373ffffffffffffffffffffffffffffffffffffffff1673ffffffffffffffffffffffffffffffffffffffff1681526020019081526020015f205f828254610c6b9190612cca565b925050819055503373ffffffffffffffffffffffffffffffffffffffff167fa0c8eda28ab82fe28c2bcaa48a1ce2b5eac8dbed005a6e8eb62398577e908d5c83604051610cb891906124aa565b60405180910390a260045f3373ffffffffffffffffffffffffffffffffffffffff1673ffffffffffffffffffffffffffffffffffffffff1681526020019081526020015f20549050919050565b5f600360018160018154018082558091505003905f5260205f209050505f6001600380549050610d359190612a5e565b90505f60038281548110610d4c57610d4b612cfd565b5b905f5260205f209060020201905033815f015f6101000a81548173ffffffffffffffffffffffffffffffffffffffff021916908373ffffffffffffffffffffffffffffffffffffffff1602179055505f5b8451811015610e2c57816001016040518060400160405280878481518110610dc857610dc7612cfd565b5b602002602001015181526020015f815250908060018154018082558091505060019003905f5260205f2090600202015f909190919091505f820151815f019081610e129190612f2e565b506020820151816001015550508080600101915050610d9d565b50813373ffffffffffffffffffffffffffffffffffffffff167f9a6f89a0fdf2b617e645524a789bbeab5b66bf3517973ca92daf26f077603f8586604051610e74919061310e565b60405180910390a38192505050919050565b80610e9033610b3f565b1015610ed1576040517f08c379a0000000000000000000000000000000000000000000000000000000008152600401610ec890613178565b60405180910390fd5b8060055f3373ffffffffffffffffffffffffffffffffffffffff1673ffffffffffffffffffffffffffffffffffffffff1681526020019081526020015f205f828254610f1d9190612cca565b925050819055505f60038481548110610f3957610f38612cfd565b5b905f5260205f209060020201905081816001018481548110610f5e57610f5d612cfd565b5b905f5260205f2090600202016001015f828254610f7b9190612cca565b9250508190555060065f8581526020019081526020015f205f8481526020019081526020015f2060405180604001604052803373ffffffffffffffffffffffffffffffffffffffff16815260200184815250908060018154018082558091505060019003905f5260205f2090600202015f909190919091505f820151815f015f6101000a81548173ffffffffffffffffffffffffffffffffffffffff021916908373ffffffffffffffffffffffffffffffffffffffff16021790555060208201518160010155505082843373ffffffffffffffffffffffffffffffffffffffff167fc32b42768a47a585121e9b8d7a2ab9d3f34c326a192dee11ee1732e3d18313f38560405161108b91906124aa565b60405180910390a450505050565b5f60029054906101000a900473ffffffffffffffffffffffffffffffffffffffff1681565b60015f9054906101000a900473ffffffffffffffffffffffffffffffffffffffff1681565b6005602052805f5260405f205f915090505481565b60038181548110611107575f80fd5b905f5260205f2090600202015f91509050805f015f9054906101000a900473ffffffffffffffffffffffffffffffffffffffff16905081565b5f60025f9054906101000a900473ffffffffffffffffffffffffffffffffffffffff1673ffffffffffffffffffffffffffffffffffffffff166323b872dd3330856040518463ffffffff1660e01b815260040161119f93929190613196565b6020604051808303815f875af11580156111bb573d5f803e3d5ffd5b505050506040513d601f19601f820116820180604052508101906111df919061298e565b61121e576040517f08c379a000000000000000000000000000000000000000000000000000000000815260040161121590612a13565b60405180910390fd5b8160045f3373ffffffffffffffffffffffffffffffffffffffff1673ffffffffffffffffffffffffffffffffffffffff1681526020019081526020015f205f82825461126a9190612cca565b925050819055503373ffffffffffffffffffffffffffffffffffffffff167f2da466a7b24304f47e87fa2e1e5a81b9831ce54fec19055ce277ca2f39ba42c4836040516112b791906124aa565b60405180910390a260045f3373ffffffffffffffffffffffffffffffffffffffff1673ffffffffffffffffffffffffffffffffffffffff1681526020019081526020015f20549050919050565b60025f9054906101000a900473ffffffffffffffffffffffffffffffffffffffff1681565b5f8060019054906101000a900460ff16159050808015611358575060015f8054906101000a900460ff1660ff16105b806113845750611367306117b3565b158015611383575060015f8054906101000a900460ff1660ff16145b5b6113c3576040517f08c379a00000000000000000000000000000000000000000000000000000000081526004016113ba9061323b565b60405180910390fd5b60015f806101000a81548160ff021916908360ff16021790555080156113fe5760015f60016101000a81548160ff0219169083151502179055505b8160025f6101000a81548173ffffffffffffffffffffffffffffffffffffffff021916908373ffffffffffffffffffffffffffffffffffffffff160217905550335f60026101000a81548173ffffffffffffffffffffffffffffffffffffffff021916908373ffffffffffffffffffffffffffffffffffffffff16021790555080156114d6575f8060016101000a81548160ff0219169083151502179055507f7f26b83ff96e1f2b6a682f133852f6798a09c465da95921460cefb384740249860016040516114cd919061329e565b60405180910390a15b5050565b5f6114e583836117d5565b905080156114fc576114f783836119b8565b611507565b6115068383611b29565b5b8160075f8581526020019081526020015f2081905550505050565b5f61154e7f360894a13ba1a3210667c828492db98dca3e2076cc3735a920a3ca505d382bbc5f1b611d79565b5f015f9054906101000a900473ffffffffffffffffffffffffffffffffffffffff16905090565b3373ffffffffffffffffffffffffffffffffffffffff165f60029054906101000a900473ffffffffffffffffffffffffffffffffffffffff1673ffffffffffffffffffffffffffffffffffffffff161461160657336040517f118cdaa70000000000000000000000000000000000000000000000000000000081526004016115fd9190612902565b60405180910390fd5b8060015f6101000a81548173ffffffffffffffffffffffffffffffffffffffff021916908373ffffffffffffffffffffffffffffffffffffffff16021790555050565b6116747f4910fdfa16fed3260ed0e7147f7cc6da11a60208b5b9406d12a635614ffd91435f1b611d82565b5f015f9054906101000a900460ff16156116965761169183611d8b565b6117ae565b8273ffffffffffffffffffffffffffffffffffffffff166352d1902d6040518163ffffffff1660e01b8152600401602060405180830381865afa9250505080156116fe57506040513d601f19601f820116820180604052508101906116fb91906132e1565b60015b61173d576040517f08c379a00000000000000000000000000000000000000000000000000000000081526004016117349061337c565b60405180910390fd5b7f360894a13ba1a3210667c828492db98dca3e2076cc3735a920a3ca505d382bbc5f1b81146117a1576040517f08c379a00000000000000000000000000000000000000000000000000000000081526004016117989061340a565b60405180910390fd5b506117ad838383611e41565b5b505050565b5f808273ffffffffffffffffffffffffffffffffffffffff163b119050919050565b5f80600384815481106117eb576117ea612cfd565b5b905f5260205f2090600202016040518060400160405290815f82015f9054906101000a900473ffffffffffffffffffffffffffffffffffffffff1673ffffffffffffffffffffffffffffffffffffffff1673ffffffffffffffffffffffffffffffffffffffff16815260200160018201805480602002602001604051908101604052809291908181526020015f905b82821015611943578382905f5260205f2090600202016040518060400160405290815f820180546118aa90612d61565b80601f01602080910402602001604051908101604052809291908181526020018280546118d690612d61565b80156119215780601f106118f857610100808354040283529160200191611921565b820191905f5260205f20905b81548152906001019060200180831161190457829003601f168201915b505050505081526020016001820154815250508152602001906001019061187a565b505050508152505090505f816020015190505f5b81518110156119aa5784811415801561198d57505f82828151811061197f5761197e612cfd565b5b602002602001015160200151115b1561199d575f93505050506119b2565b8080600101915050611957565b506001925050505b92915050565b5f60065f8381526020019081526020015f2090505f5b815f8481526020019081526020015f2080549050811015611aeb575f825f8581526020019081526020015f208281548110611a0c57611a0b612cfd565b5b905f5260205f2090600202016040518060400160405290815f82015f9054906101000a900473ffffffffffffffffffffffffffffffffffffffff1673ffffffffffffffffffffffffffffffffffffffff1673ffffffffffffffffffffffffffffffffffffffff1681526020016001820154815250509050806020015160055f835f015173ffffffffffffffffffffffffffffffffffffffff1673ffffffffffffffffffffffffffffffffffffffff1681526020019081526020015f205f828254611ad69190612a5e565b925050819055505080806001019150506119ce565b50827fc445a10c3fa19d3805aeea8b151160c7252c62f5bb08325a6acd73f79e5531ee83604051611b1c91906124aa565b60405180910390a2505050565b5f60038381548110611b3e57611b3d612cfd565b5b905f5260205f20906002020190505f60065f8481526020019081526020015f2090505f80836001018054905090505f846001018681548110611b8357611b82612cfd565b5b905f5260205f2090600202016001015490505f5b82811015611bdf57856001018181548110611bb557611bb4612cfd565b5b905f5260205f2090600202016001015484611bd09190612cca565b93508080600101915050611b97565b506064600584611bef9190613428565b611bf99190613496565b60045f875f015f9054906101000a900473ffffffffffffffffffffffffffffffffffffffff1673ffffffffffffffffffffffffffffffffffffffff1673ffffffffffffffffffffffffffffffffffffffff1681526020019081526020015f205f828254611c669190612cca565b925050819055505f6064605a85611c7d9190613428565b611c879190613496565b90505f5b83811015611d6e57611d61898984868a5f8781526020019081526020015f20805480602002602001604051908101604052809291908181526020015f905b82821015611d57578382905f5260205f2090600202016040518060400160405290815f82015f9054906101000a900473ffffffffffffffffffffffffffffffffffffffff1673ffffffffffffffffffffffffffffffffffffffff1673ffffffffffffffffffffffffffffffffffffffff16815260200160018201548152505081526020019060010190611cc9565b5050505086611e6c565b8080600101915050611c8b565b505050505050505050565b5f819050919050565b5f819050919050565b611d94816117b3565b611dd3576040517f08c379a0000000000000000000000000000000000000000000000000000000008152600401611dca90613536565b60405180910390fd5b80611dff7f360894a13ba1a3210667c828492db98dca3e2076cc3735a920a3ca505d382bbc5f1b611d79565b5f015f6101000a81548173ffffffffffffffffffffffffffffffffffffffff021916908373ffffffffffffffffffffffffffffffffffffffff16021790555050565b611e4a836121a2565b5f82511180611e565750805b15611e6757611e6583836121f1565b505b505050565b5f5b8251811015612199575f838281518110611e8b57611e8a612cfd565b5b60200260200101519050806020015160055f835f015173ffffffffffffffffffffffffffffffffffffffff1673ffffffffffffffffffffffffffffffffffffffff1681526020019081526020015f205f828254611ee89190612a5e565b9250508190555086830361202b575f85878360200151611f089190613428565b611f129190613496565b90505f826020015182611f259190612a5e565b90508060045f855f015173ffffffffffffffffffffffffffffffffffffffff1673ffffffffffffffffffffffffffffffffffffffff1681526020019081526020015f205f828254611f769190612cca565b925050819055508060085f8c81526020019081526020015f205f855f015173ffffffffffffffffffffffffffffffffffffffff1673ffffffffffffffffffffffffffffffffffffffff1681526020019081526020015f2081905550825f015173ffffffffffffffffffffffffffffffffffffffff167f4d7fcca217e75e1a57dd8bd07a5bdce0687cc5a93591037097451084d3db3b268b8360405161201c929190613554565b60405180910390a2505061218b565b806020015160045f835f015173ffffffffffffffffffffffffffffffffffffffff1673ffffffffffffffffffffffffffffffffffffffff1681526020019081526020015f205f82825461207e9190612a5e565b925050819055507fffffffffffffffffffffffffffffffffffffffffffffffffffffffffffffffff81602001516120b5919061357b565b60085f8a81526020019081526020015f205f835f015173ffffffffffffffffffffffffffffffffffffffff1673ffffffffffffffffffffffffffffffffffffffff1681526020019081526020015f2081905550805f015173ffffffffffffffffffffffffffffffffffffffff167f4d7fcca217e75e1a57dd8bd07a5bdce0687cc5a93591037097451084d3db3b26897fffffffffffffffffffffffffffffffffffffffffffffffffffffffffffffffff8460200151612174919061357b565b604051612182929190613554565b60405180910390a25b508080600101915050611e6e565b50505050505050565b6121ab81611d8b565b8073ffffffffffffffffffffffffffffffffffffffff167fbc7cd75a20ee27fd9adebab32041f755214dbc6bffa90cc0225b39da2e5c2d3b60405160405180910390a250565b6060612216838360405180606001604052806027815260200161370c6027913961221e565b905092915050565b60605f808573ffffffffffffffffffffffffffffffffffffffff16856040516122479190613635565b5f60405180830381855af49150503d805f811461227f576040519150601f19603f3d011682016040523d82523d5f602084013e612284565b606091505b5091509150612295868383876122a0565b925050509392505050565b60608315612301575f8351036122f9576122b9856117b3565b6122f8576040517f08c379a00000000000000000000000000000000000000000000000000000000081526004016122ef90613695565b60405180910390fd5b5b82905061230c565b61230b8383612314565b5b949350505050565b5f825111156123265781518083602001fd5b806040517f08c379a000000000000000000000000000000000000000000000000000000000815260040161235a91906136eb565b60405180910390fd5b5f604051905090565b5f80fd5b5f80fd5b5f819050919050565b61238681612374565b8114612390575f80fd5b50565b5f813590506123a18161237d565b92915050565b5f73ffffffffffffffffffffffffffffffffffffffff82169050919050565b5f6123d0826123a7565b9050919050565b6123e0816123c6565b81146123ea575f80fd5b50565b5f813590506123fb816123d7565b92915050565b5f80604083850312156124175761241661236c565b5b5f61242485828601612393565b9250506020612435858286016123ed565b9150509250929050565b5f819050919050565b6124518161243f565b82525050565b5f60208201905061246a5f830184612448565b92915050565b5f602082840312156124855761248461236c565b5b5f612492848285016123ed565b91505092915050565b6124a481612374565b82525050565b5f6020820190506124bd5f83018461249b565b92915050565b5f602082840312156124d8576124d761236c565b5b5f6124e584828501612393565b91505092915050565b5f805f606084860312156125055761250461236c565b5b5f61251286828701612393565b935050602061252386828701612393565b925050604061253486828701612393565b9150509250925092565b612547816123c6565b82525050565b5f6040820190506125605f83018561253e565b61256d602083018461249b565b9392505050565b5f80fd5b5f80fd5b5f601f19601f8301169050919050565b7f4e487b71000000000000000000000000000000000000000000000000000000005f52604160045260245ffd5b6125c28261257c565b810181811067ffffffffffffffff821117156125e1576125e061258c565b5b80604052505050565b5f6125f3612363565b90506125ff82826125b9565b919050565b5f67ffffffffffffffff82111561261e5761261d61258c565b5b6126278261257c565b9050602081019050919050565b828183375f83830152505050565b5f61265461264f84612604565b6125ea565b9050828152602081018484840111156126705761266f612578565b5b61267b848285612634565b509392505050565b5f82601f83011261269757612696612574565b5b81356126a7848260208601612642565b91505092915050565b5f80604083850312156126c6576126c561236c565b5b5f6126d3858286016123ed565b925050602083013567ffffffffffffffff8111156126f4576126f3612370565b5b61270085828601612683565b9150509250929050565b5f819050919050565b61271c8161270a565b82525050565b5f6020820190506127355f830184612713565b92915050565b5f67ffffffffffffffff8211156127555761275461258c565b5b602082029050602081019050919050565b5f80fd5b5f67ffffffffffffffff8211156127845761278361258c565b5b61278d8261257c565b9050602081019050919050565b5f6127ac6127a78461276a565b6125ea565b9050828152602081018484840111156127c8576127c7612578565b5b6127d3848285612634565b509392505050565b5f82601f8301126127ef576127ee612574565b5b81356127ff84826020860161279a565b91505092915050565b5f61281a6128158461273b565b6125ea565b9050808382526020820190506020840283018581111561283d5761283c612766565b5b835b8181101561288457803567ffffffffffffffff81111561286257612861612574565b5b80860161286f89826127db565b8552602085019450505060208101905061283f565b5050509392505050565b5f82601f8301126128a2576128a1612574565b5b81356128b2848260208601612808565b91505092915050565b5f602082840312156128d0576128cf61236c565b5b5f82013567ffffffffffffffff8111156128ed576128ec612370565b5b6128f98482850161288e565b91505092915050565b5f6020820190506129155f83018461253e565b92915050565b5f80604083850312156129315761293061236c565b5b5f61293e85828601612393565b925050602061294f85828601612393565b9150509250929050565b5f8115159050919050565b61296d81612959565b8114612977575f80fd5b50565b5f8151905061298881612964565b92915050565b5f602082840312156129a3576129a261236c565b5b5f6129b08482850161297a565b91505092915050565b5f82825260208201905092915050565b7f5472616e73666572206661696c656400000000000000000000000000000000005f82015250565b5f6129fd600f836129b9565b9150612a08826129c9565b602082019050919050565b5f6020820190508181035f830152612a2a816129f1565b9050919050565b7f4e487b71000000000000000000000000000000000000000000000000000000005f52601160045260245ffd5b5f612a6882612374565b9150612a7383612374565b9250828203905081811115612a8b57612a8a612a31565b5b92915050565b5f604082019050612aa45f83018561249b565b612ab1602083018461249b565b9392505050565b7f46756e6374696f6e206d7573742062652063616c6c6564207468726f756768205f8201527f64656c656761746563616c6c0000000000000000000000000000000000000000602082015250565b5f612b12602c836129b9565b9150612b1d82612ab8565b604082019050919050565b5f6020820190508181035f830152612b3f81612b06565b9050919050565b7f46756e6374696f6e206d7573742062652063616c6c6564207468726f756768205f8201527f6163746976652070726f78790000000000000000000000000000000000000000602082015250565b5f612ba0602c836129b9565b9150612bab82612b46565b604082019050919050565b5f6020820190508181035f830152612bcd81612b94565b9050919050565b7f555550535570677261646561626c653a206d757374206e6f742062652063616c5f8201527f6c6564207468726f7567682064656c656761746563616c6c0000000000000000602082015250565b5f612c2e6038836129b9565b9150612c3982612bd4565b604082019050919050565b5f6020820190508181035f830152612c5b81612c22565b9050919050565b7f506f696e7473206d7573742062652067726561746572207468616e207a65726f5f82015250565b5f612c966020836129b9565b9150612ca182612c62565b602082019050919050565b5f6020820190508181035f830152612cc381612c8a565b9050919050565b5f612cd482612374565b9150612cdf83612374565b9250828201905080821115612cf757612cf6612a31565b5b92915050565b7f4e487b71000000000000000000000000000000000000000000000000000000005f52603260045260245ffd5b5f81519050919050565b7f4e487b71000000000000000000000000000000000000000000000000000000005f52602260045260245ffd5b5f6002820490506001821680612d7857607f821691505b602082108103612d8b57612d8a612d34565b5b50919050565b5f819050815f5260205f209050919050565b5f6020601f8301049050919050565b5f82821b905092915050565b5f60088302612ded7fffffffffffffffffffffffffffffffffffffffffffffffffffffffffffffffff82612db2565b612df78683612db2565b95508019841693508086168417925050509392505050565b5f819050919050565b5f612e32612e2d612e2884612374565b612e0f565b612374565b9050919050565b5f819050919050565b612e4b83612e18565b612e5f612e5782612e39565b848454612dbe565b825550505050565b5f90565b612e73612e67565b612e7e818484612e42565b505050565b5b81811015612ea157612e965f82612e6b565b600181019050612e84565b5050565b601f821115612ee657612eb781612d91565b612ec084612da3565b81016020851015612ecf578190505b612ee3612edb85612da3565b830182612e83565b50505b505050565b5f82821c905092915050565b5f612f065f1984600802612eeb565b1980831691505092915050565b5f612f1e8383612ef7565b9150826002028217905092915050565b612f3782612d2a565b67ffffffffffffffff811115612f5057612f4f61258c565b5b612f5a8254612d61565b612f65828285612ea5565b5f60209050601f831160018114612f96575f8415612f84578287015190505b612f8e8582612f13565b865550612ff5565b601f198416612fa486612d91565b5f5b82811015612fcb57848901518255600182019150602085019450602081019050612fa6565b86831015612fe85784890151612fe4601f891682612ef7565b8355505b6001600288020188555050505b505050505050565b5f81519050919050565b5f82825260208201905092915050565b5f819050602082019050919050565b5f82825260208201905092915050565b8281835e5f83830152505050565b5f61304e82612d2a565b6130588185613026565b9350613068818560208601613036565b6130718161257c565b840191505092915050565b5f6130878383613044565b905092915050565b5f602082019050919050565b5f6130a582612ffd565b6130af8185613007565b9350836020820285016130c185613017565b805f5b858110156130fc57848403895281516130dd858261307c565b94506130e88361308f565b925060208a019950506001810190506130c4565b50829750879550505050505092915050565b5f6020820190508181035f830152613126818461309b565b905092915050565b7f496e73756666696369656e7420766f74696e67207269676874730000000000005f82015250565b5f613162601a836129b9565b915061316d8261312e565b602082019050919050565b5f6020820190508181035f83015261318f81613156565b9050919050565b5f6060820190506131a95f83018661253e565b6131b6602083018561253e565b6131c3604083018461249b565b949350505050565b7f496e697469616c697a61626c653a20636f6e747261637420697320616c7265615f8201527f647920696e697469616c697a6564000000000000000000000000000000000000602082015250565b5f613225602e836129b9565b9150613230826131cb565b604082019050919050565b5f6020820190508181035f83015261325281613219565b9050919050565b5f819050919050565b5f60ff82169050919050565b5f61328861328361327e84613259565b612e0f565b613262565b9050919050565b6132988161326e565b82525050565b5f6020820190506132b15f83018461328f565b92915050565b6132c08161270a565b81146132ca575f80fd5b50565b5f815190506132db816132b7565b92915050565b5f602082840312156132f6576132f561236c565b5b5f613303848285016132cd565b91505092915050565b7f45524331393637557067726164653a206e657720696d706c656d656e746174695f8201527f6f6e206973206e6f742055555053000000000000000000000000000000000000602082015250565b5f613366602e836129b9565b91506133718261330c565b604082019050919050565b5f6020820190508181035f8301526133938161335a565b9050919050565b7f45524331393637557067726164653a20756e737570706f727465642070726f785f8201527f6961626c65555549440000000000000000000000000000000000000000000000602082015250565b5f6133f46029836129b9565b91506133ff8261339a565b604082019050919050565b5f6020820190508181035f830152613421816133e8565b9050919050565b5f61343282612374565b915061343d83612374565b925082820261344b81612374565b9150828204841483151761346257613461612a31565b5b5092915050565b7f4e487b71000000000000000000000000000000000000000000000000000000005f52601260045260245ffd5b5f6134a082612374565b91506134ab83612374565b9250826134bb576134ba613469565b5b828204905092915050565b7f455243313936373a206e657720696d706c656d656e746174696f6e206973206e5f8201527f6f74206120636f6e747261637400000000000000000000000000000000000000602082015250565b5f613520602d836129b9565b915061352b826134c6565b604082019050919050565b5f6020820190508181035f83015261354d81613514565b9050919050565b5f6040820190506135675f83018561249b565b6135746020830184612448565b9392505050565b5f6135858261243f565b91506135908361243f565b925082820261359e8161243f565b91507f800000000000000000000000000000000000000000000000000000000000000084145f841216156135d5576135d4612a31565b5b82820584148315176135ea576135e9612a31565b5b5092915050565b5f81519050919050565b5f81905092915050565b5f61360f826135f1565b61361981856135fb565b9350613629818560208601613036565b80840191505092915050565b5f6136408284613605565b915081905092915050565b7f416464726573733a2063616c6c20746f206e6f6e2d636f6e74726163740000005f82015250565b5f61367f601d836129b9565b915061368a8261364b565b602082019050919050565b5f6020820190508181035f8301526136ac81613673565b9050919050565b5f6136bd82612d2a565b6136c781856129b9565b93506136d7818560208601613036565b6136e08161257c565b840191505092915050565b5f6020820190508181035f83015261370381846136b3565b90509291505056fe416464726573733a206c6f772d6c6576656c2064656c65676174652063616c6c206661696c6564a2646970667358221220033ff32d64f03327df1c0abe34cb3f72dea297b858d5e0c01fd0096e8562f3e964736f6c634300081a0033",
					"opcodes": "PUSH1 0xA0 PUSH1 0x40 MSTORE ADDRESS PUSH20 0xFFFFFFFFFFFFFFFFFFFFFFFFFFFFFFFFFFFFFFFF AND PUSH1 0x80 SWAP1 PUSH20 0xFFFFFFFFFFFFFFFFFFFFFFFFFFFFFFFFFFFFFFFF AND DUP2 MSTORE POP CALLVALUE DUP1 ISZERO PUSH1 0x41 JUMPI PUSH0 DUP1 REVERT JUMPDEST POP PUSH1 0x80 MLOAD PUSH2 0x3768 PUSH2 0x76 PUSH0 CODECOPY PUSH0 DUP2 DUP2 PUSH2 0x764 ADD MSTORE DUP2 DUP2 PUSH2 0x7F2 ADD MSTORE DUP2 DUP2 PUSH2 0x94E ADD MSTORE DUP2 DUP2 PUSH2 0x9DC ADD MSTORE PUSH2 0xA8B ADD MSTORE PUSH2 0x3768 PUSH0 RETURN INVALID PUSH1 0x80 PUSH1 0x40 MSTORE PUSH1 0x4 CALLDATASIZE LT PUSH2 0x11E JUMPI PUSH0 CALLDATALOAD PUSH1 0xE0 SHR DUP1 PUSH4 0x8624B42D GT PUSH2 0x9F JUMPI DUP1 PUSH4 0xB511328D GT PUSH2 0x63 JUMPI DUP1 PUSH4 0xB511328D EQ PUSH2 0x415 JUMPI DUP1 PUSH4 0xB6B55F25 EQ PUSH2 0x451 JUMPI DUP1 PUSH4 0xC3A0ABA8 EQ PUSH2 0x48D JUMPI DUP1 PUSH4 0xC4D66DE8 EQ PUSH2 0x4B7 JUMPI DUP1 PUSH4 0xF647344B EQ PUSH2 0x4DF JUMPI PUSH2 0x11E JUMP JUMPDEST DUP1 PUSH4 0x8624B42D EQ PUSH2 0x321 JUMPI DUP1 PUSH4 0x8A6655D6 EQ PUSH2 0x35D JUMPI DUP1 PUSH4 0x8DA5CB5B EQ PUSH2 0x385 JUMPI DUP1 PUSH4 0x9C1FCC4C EQ PUSH2 0x3AF JUMPI DUP1 PUSH4 0xB00673BC EQ PUSH2 0x3D9 JUMPI PUSH2 0x11E JUMP JUMPDEST DUP1 PUSH4 0x45071C71 GT PUSH2 0xE6 JUMPI DUP1 PUSH4 0x45071C71 EQ PUSH2 0x226 JUMPI DUP1 PUSH4 0x4F1EF286 EQ PUSH2 0x263 JUMPI DUP1 PUSH4 0x52D1902D EQ PUSH2 0x27F JUMPI DUP1 PUSH4 0x6C24A76F EQ PUSH2 0x2A9 JUMPI DUP1 PUSH4 0x7C7B66F7 EQ PUSH2 0x2E5 JUMPI PUSH2 0x11E JUMP JUMPDEST DUP1 PUSH4 0xC7353E0 EQ PUSH2 0x122 JUMPI DUP1 PUSH4 0x27E235E3 EQ PUSH2 0x15E JUMPI DUP1 PUSH4 0x2E1A7D4D EQ PUSH2 0x19A JUMPI DUP1 PUSH4 0x2EFDC9F5 EQ PUSH2 0x1C2 JUMPI DUP1 PUSH4 0x3659CFE6 EQ PUSH2 0x1FE JUMPI JUMPDEST PUSH0 DUP1 REVERT JUMPDEST CALLVALUE DUP1 ISZERO PUSH2 0x12D JUMPI PUSH0 DUP1 REVERT JUMPDEST POP PUSH2 0x148 PUSH1 0x4 DUP1 CALLDATASIZE SUB DUP2 ADD SWAP1 PUSH2 0x143 SWAP2 SWAP1 PUSH2 0x2401 JUMP JUMPDEST PUSH2 0x507 JUMP JUMPDEST PUSH1 0x40 MLOAD PUSH2 0x155 SWAP2 SWAP1 PUSH2 0x2457 JUMP JUMPDEST PUSH1 0x40 MLOAD DUP1 SWAP2 SUB SWAP1 RETURN JUMPDEST CALLVALUE DUP1 ISZERO PUSH2 0x169 JUMPI PUSH0 DUP1 REVERT JUMPDEST POP PUSH2 0x184 PUSH1 0x4 DUP1 CALLDATASIZE SUB DUP2 ADD SWAP1 PUSH2 0x17F SWAP2 SWAP1 PUSH2 0x2470 JUMP JUMPDEST PUSH2 0x527 JUMP JUMPDEST PUSH1 0x40 MLOAD PUSH2 0x191 SWAP2 SWAP1 PUSH2 0x24AA JUMP JUMPDEST PUSH1 0x40 MLOAD DUP1 SWAP2 SUB SWAP1 RETURN JUMPDEST CALLVALUE DUP1 ISZERO PUSH2 0x1A5 JUMPI PUSH0 DUP1 REVERT JUMPDEST POP PUSH2 0x1C0 PUSH1 0x4 DUP1 CALLDATASIZE SUB DUP2 ADD SWAP1 PUSH2 0x1BB SWAP2 SWAP1 PUSH2 0x24C3 JUMP JUMPDEST PUSH2 0x53C JUMP JUMPDEST STOP JUMPDEST CALLVALUE DUP1 ISZERO PUSH2 0x1CD JUMPI PUSH0 DUP1 REVERT JUMPDEST POP PUSH2 0x1E8 PUSH1 0x4 DUP1 CALLDATASIZE SUB DUP2 ADD SWAP1 PUSH2 0x1E3 SWAP2 SWAP1 PUSH2 0x24C3 JUMP JUMPDEST PUSH2 0x74D JUMP JUMPDEST PUSH1 0x40 MLOAD PUSH2 0x1F5 SWAP2 SWAP1 PUSH2 0x24AA JUMP JUMPDEST PUSH1 0x40 MLOAD DUP1 SWAP2 SUB SWAP1 RETURN JUMPDEST CALLVALUE DUP1 ISZERO PUSH2 0x209 JUMPI PUSH0 DUP1 REVERT JUMPDEST POP PUSH2 0x224 PUSH1 0x4 DUP1 CALLDATASIZE SUB DUP2 ADD SWAP1 PUSH2 0x21F SWAP2 SWAP1 PUSH2 0x2470 JUMP JUMPDEST PUSH2 0x762 JUMP JUMPDEST STOP JUMPDEST CALLVALUE DUP1 ISZERO PUSH2 0x231 JUMPI PUSH0 DUP1 REVERT JUMPDEST POP PUSH2 0x24C PUSH1 0x4 DUP1 CALLDATASIZE SUB DUP2 ADD SWAP1 PUSH2 0x247 SWAP2 SWAP1 PUSH2 0x24EE JUMP JUMPDEST PUSH2 0x8E8 JUMP JUMPDEST PUSH1 0x40 MLOAD PUSH2 0x25A SWAP3 SWAP2 SWAP1 PUSH2 0x254D JUMP JUMPDEST PUSH1 0x40 MLOAD DUP1 SWAP2 SUB SWAP1 RETURN JUMPDEST PUSH2 0x27D PUSH1 0x4 DUP1 CALLDATASIZE SUB DUP2 ADD SWAP1 PUSH2 0x278 SWAP2 SWAP1 PUSH2 0x26B0 JUMP JUMPDEST PUSH2 0x94C JUMP JUMPDEST STOP JUMPDEST CALLVALUE DUP1 ISZERO PUSH2 0x28A JUMPI PUSH0 DUP1 REVERT JUMPDEST POP PUSH2 0x293 PUSH2 0xA88 JUMP JUMPDEST PUSH1 0x40 MLOAD PUSH2 0x2A0 SWAP2 SWAP1 PUSH2 0x2722 JUMP JUMPDEST PUSH1 0x40 MLOAD DUP1 SWAP2 SUB SWAP1 RETURN JUMPDEST CALLVALUE DUP1 ISZERO PUSH2 0x2B4 JUMPI PUSH0 DUP1 REVERT JUMPDEST POP PUSH2 0x2CF PUSH1 0x4 DUP1 CALLDATASIZE SUB DUP2 ADD SWAP1 PUSH2 0x2CA SWAP2 SWAP1 PUSH2 0x2470 JUMP JUMPDEST PUSH2 0xB3F JUMP JUMPDEST PUSH1 0x40 MLOAD PUSH2 0x2DC SWAP2 SWAP1 PUSH2 0x24AA JUMP JUMPDEST PUSH1 0x40 MLOAD DUP1 SWAP2 SUB SWAP1 RETURN JUMPDEST CALLVALUE DUP1 ISZERO PUSH2 0x2F0 JUMPI PUSH0 DUP1 REVERT JUMPDEST POP PUSH2 0x30B PUSH1 0x4 DUP1 CALLDATASIZE SUB DUP2 ADD SWAP1 PUSH2 0x306 SWAP2 SWAP1 PUSH2 0x24C3 JUMP JUMPDEST PUSH2 0xBDC JUMP JUMPDEST PUSH1 0x40 MLOAD PUSH2 0x318 SWAP2 SWAP1 PUSH2 0x24AA JUMP JUMPDEST PUSH1 0x40 MLOAD DUP1 SWAP2 SUB SWAP1 RETURN JUMPDEST CALLVALUE DUP1 ISZERO PUSH2 0x32C JUMPI PUSH0 DUP1 REVERT JUMPDEST POP PUSH2 0x347 PUSH1 0x4 DUP1 CALLDATASIZE SUB DUP2 ADD SWAP1 PUSH2 0x342 SWAP2 SWAP1 PUSH2 0x28BB JUMP JUMPDEST PUSH2 0xD05 JUMP JUMPDEST PUSH1 0x40 MLOAD PUSH2 0x354 SWAP2 SWAP1 PUSH2 0x24AA JUMP JUMPDEST PUSH1 0x40 MLOAD DUP1 SWAP2 SUB SWAP1 RETURN JUMPDEST CALLVALUE DUP1 ISZERO PUSH2 0x368 JUMPI PUSH0 DUP1 REVERT JUMPDEST POP PUSH2 0x383 PUSH1 0x4 DUP1 CALLDATASIZE SUB DUP2 ADD SWAP1 PUSH2 0x37E SWAP2 SWAP1 PUSH2 0x24EE JUMP JUMPDEST PUSH2 0xE86 JUMP JUMPDEST STOP JUMPDEST CALLVALUE DUP1 ISZERO PUSH2 0x390 JUMPI PUSH0 DUP1 REVERT JUMPDEST POP PUSH2 0x399 PUSH2 0x1099 JUMP JUMPDEST PUSH1 0x40 MLOAD PUSH2 0x3A6 SWAP2 SWAP1 PUSH2 0x2902 JUMP JUMPDEST PUSH1 0x40 MLOAD DUP1 SWAP2 SUB SWAP1 RETURN JUMPDEST CALLVALUE DUP1 ISZERO PUSH2 0x3BA JUMPI PUSH0 DUP1 REVERT JUMPDEST POP PUSH2 0x3C3 PUSH2 0x10BE JUMP JUMPDEST PUSH1 0x40 MLOAD PUSH2 0x3D0 SWAP2 SWAP1 PUSH2 0x2902 JUMP JUMPDEST PUSH1 0x40 MLOAD DUP1 SWAP2 SUB SWAP1 RETURN JUMPDEST CALLVALUE DUP1 ISZERO PUSH2 0x3E4 JUMPI PUSH0 DUP1 REVERT JUMPDEST POP PUSH2 0x3FF PUSH1 0x4 DUP1 CALLDATASIZE SUB DUP2 ADD SWAP1 PUSH2 0x3FA SWAP2 SWAP1 PUSH2 0x2470 JUMP JUMPDEST PUSH2 0x10E3 JUMP JUMPDEST PUSH1 0x40 MLOAD PUSH2 0x40C SWAP2 SWAP1 PUSH2 0x24AA JUMP JUMPDEST PUSH1 0x40 MLOAD DUP1 SWAP2 SUB SWAP1 RETURN JUMPDEST CALLVALUE DUP1 ISZERO PUSH2 0x420 JUMPI PUSH0 DUP1 REVERT JUMPDEST POP PUSH2 0x43B PUSH1 0x4 DUP1 CALLDATASIZE SUB DUP2 ADD SWAP1 PUSH2 0x436 SWAP2 SWAP1 PUSH2 0x24C3 JUMP JUMPDEST PUSH2 0x10F8 JUMP JUMPDEST PUSH1 0x40 MLOAD PUSH2 0x448 SWAP2 SWAP1 PUSH2 0x2902 JUMP JUMPDEST PUSH1 0x40 MLOAD DUP1 SWAP2 SUB SWAP1 RETURN JUMPDEST CALLVALUE DUP1 ISZERO PUSH2 0x45C JUMPI PUSH0 DUP1 REVERT JUMPDEST POP PUSH2 0x477 PUSH1 0x4 DUP1 CALLDATASIZE SUB DUP2 ADD SWAP1 PUSH2 0x472 SWAP2 SWAP1 PUSH2 0x24C3 JUMP JUMPDEST PUSH2 0x1140 JUMP JUMPDEST PUSH1 0x40 MLOAD PUSH2 0x484 SWAP2 SWAP1 PUSH2 0x24AA JUMP JUMPDEST PUSH1 0x40 MLOAD DUP1 SWAP2 SUB SWAP1 RETURN JUMPDEST CALLVALUE DUP1 ISZERO PUSH2 0x498 JUMPI PUSH0 DUP1 REVERT JUMPDEST POP PUSH2 0x4A1 PUSH2 0x1304 JUMP JUMPDEST PUSH1 0x40 MLOAD PUSH2 0x4AE SWAP2 SWAP1 PUSH2 0x2902 JUMP JUMPDEST PUSH1 0x40 MLOAD DUP1 SWAP2 SUB SWAP1 RETURN JUMPDEST CALLVALUE DUP1 ISZERO PUSH2 0x4C2 JUMPI PUSH0 DUP1 REVERT JUMPDEST POP PUSH2 0x4DD PUSH1 0x4 DUP1 CALLDATASIZE SUB DUP2 ADD SWAP1 PUSH2 0x4D8 SWAP2 SWAP1 PUSH2 0x2470 JUMP JUMPDEST PUSH2 0x1329 JUMP JUMPDEST STOP JUMPDEST CALLVALUE DUP1 ISZERO PUSH2 0x4EA JUMPI PUSH0 DUP1 REVERT JUMPDEST POP PUSH2 0x505 PUSH1 0x4 DUP1 CALLDATASIZE SUB DUP2 ADD SWAP1 PUSH2 0x500 SWAP2 SWAP1 PUSH2 0x291B JUMP JUMPDEST PUSH2 0x14DA JUMP JUMPDEST STOP JUMPDEST PUSH1 0x8 PUSH1 0x20 MSTORE DUP2 PUSH0 MSTORE PUSH1 0x40 PUSH0 KECCAK256 PUSH1 0x20 MSTORE DUP1 PUSH0 MSTORE PUSH1 0x40 PUSH0 KECCAK256 PUSH0 SWAP2 POP SWAP2 POP POP SLOAD DUP2 JUMP JUMPDEST PUSH1 0x4 PUSH1 0x20 MSTORE DUP1 PUSH0 MSTORE PUSH1 0x40 PUSH0 KECCAK256 PUSH0 SWAP2 POP SWAP1 POP SLOAD DUP2 JUMP JUMPDEST PUSH0 PUSH2 0x546 CALLER PUSH2 0xB3F JUMP JUMPDEST SWAP1 POP DUP2 DUP2 LT PUSH2 0x58E JUMPI CALLER DUP2 PUSH1 0x40 MLOAD PUSH32 0xF6DEAA0400000000000000000000000000000000000000000000000000000000 DUP2 MSTORE PUSH1 0x4 ADD PUSH2 0x585 SWAP3 SWAP2 SWAP1 PUSH2 0x254D JUMP JUMPDEST PUSH1 0x40 MLOAD DUP1 SWAP2 SUB SWAP1 REVERT JUMPDEST PUSH1 0x2 PUSH0 SWAP1 SLOAD SWAP1 PUSH2 0x100 EXP SWAP1 DIV PUSH20 0xFFFFFFFFFFFFFFFFFFFFFFFFFFFFFFFFFFFFFFFF AND PUSH20 0xFFFFFFFFFFFFFFFFFFFFFFFFFFFFFFFFFFFFFFFF AND PUSH4 0xA9059CBB CALLER DUP5 PUSH1 0x40 MLOAD DUP4 PUSH4 0xFFFFFFFF AND PUSH1 0xE0 SHL DUP2 MSTORE PUSH1 0x4 ADD PUSH2 0x5EA SWAP3 SWAP2 SWAP1 PUSH2 0x254D JUMP JUMPDEST PUSH1 0x20 PUSH1 0x40 MLOAD DUP1 DUP4 SUB DUP2 PUSH0 DUP8 GAS CALL ISZERO DUP1 ISZERO PUSH2 0x606 JUMPI RETURNDATASIZE PUSH0 DUP1 RETURNDATACOPY RETURNDATASIZE PUSH0 REVERT JUMPDEST POP POP POP POP PUSH1 0x40 MLOAD RETURNDATASIZE PUSH1 0x1F NOT PUSH1 0x1F DUP3 ADD AND DUP3 ADD DUP1 PUSH1 0x40 MSTORE POP DUP2 ADD SWAP1 PUSH2 0x62A SWAP2 SWAP1 PUSH2 0x298E JUMP JUMPDEST PUSH2 0x669 JUMPI PUSH1 0x40 MLOAD PUSH32 0x8C379A000000000000000000000000000000000000000000000000000000000 DUP2 MSTORE PUSH1 0x4 ADD PUSH2 0x660 SWAP1 PUSH2 0x2A13 JUMP JUMPDEST PUSH1 0x40 MLOAD DUP1 SWAP2 SUB SWAP1 REVERT JUMPDEST DUP2 PUSH1 0x4 PUSH0 CALLER PUSH20 0xFFFFFFFFFFFFFFFFFFFFFFFFFFFFFFFFFFFFFFFF AND PUSH20 0xFFFFFFFFFFFFFFFFFFFFFFFFFFFFFFFFFFFFFFFF AND DUP2 MSTORE PUSH1 0x20 ADD SWAP1 DUP2 MSTORE PUSH1 0x20 ADD PUSH0 KECCAK256 PUSH0 DUP3 DUP3 SLOAD PUSH2 0x6B5 SWAP2 SWAP1 PUSH2 0x2A5E JUMP JUMPDEST SWAP3 POP POP DUP2 SWAP1 SSTORE POP CALLER PUSH20 0xFFFFFFFFFFFFFFFFFFFFFFFFFFFFFFFFFFFFFFFF AND PUSH32 0xF279E6A1F5E320CCA91135676D9CB6E44CA8A08C0B88342BCDB1144F6511B568 DUP4 PUSH1 0x4 PUSH0 CALLER PUSH20 0xFFFFFFFFFFFFFFFFFFFFFFFFFFFFFFFFFFFFFFFF AND PUSH20 0xFFFFFFFFFFFFFFFFFFFFFFFFFFFFFFFFFFFFFFFF AND DUP2 MSTORE PUSH1 0x20 ADD SWAP1 DUP2 MSTORE PUSH1 0x20 ADD PUSH0 KECCAK256 SLOAD PUSH1 0x40 MLOAD PUSH2 0x741 SWAP3 SWAP2 SWAP1 PUSH2 0x2A91 JUMP JUMPDEST PUSH1 0x40 MLOAD DUP1 SWAP2 SUB SWAP1 LOG2 POP POP JUMP JUMPDEST PUSH1 0x7 PUSH1 0x20 MSTORE DUP1 PUSH0 MSTORE PUSH1 0x40 PUSH0 KECCAK256 PUSH0 SWAP2 POP SWAP1 POP SLOAD DUP2 JUMP JUMPDEST PUSH32 0x0 PUSH20 0xFFFFFFFFFFFFFFFFFFFFFFFFFFFFFFFFFFFFFFFF AND ADDRESS PUSH20 0xFFFFFFFFFFFFFFFFFFFFFFFFFFFFFFFFFFFFFFFF AND SUB PUSH2 0x7F0 JUMPI PUSH1 0x40 MLOAD PUSH32 0x8C379A000000000000000000000000000000000000000000000000000000000 DUP2 MSTORE PUSH1 0x4 ADD PUSH2 0x7E7 SWAP1 PUSH2 0x2B28 JUMP JUMPDEST PUSH1 0x40 MLOAD DUP1 SWAP2 SUB SWAP1 REVERT JUMPDEST PUSH32 0x0 PUSH20 0xFFFFFFFFFFFFFFFFFFFFFFFFFFFFFFFFFFFFFFFF AND PUSH2 0x82F PUSH2 0x1522 JUMP JUMPDEST PUSH20 0xFFFFFFFFFFFFFFFFFFFFFFFFFFFFFFFFFFFFFFFF AND EQ PUSH2 0x885 JUMPI PUSH1 0x40 MLOAD PUSH32 0x8C379A000000000000000000000000000000000000000000000000000000000 DUP2 MSTORE PUSH1 0x4 ADD PUSH2 0x87C SWAP1 PUSH2 0x2BB6 JUMP JUMPDEST PUSH1 0x40 MLOAD DUP1 SWAP2 SUB SWAP1 REVERT JUMPDEST PUSH2 0x88E DUP2 PUSH2 0x1575 JUMP JUMPDEST PUSH2 0x8E5 DUP2 PUSH0 PUSH8 0xFFFFFFFFFFFFFFFF DUP2 GT ISZERO PUSH2 0x8AC JUMPI PUSH2 0x8AB PUSH2 0x258C JUMP JUMPDEST JUMPDEST PUSH1 0x40 MLOAD SWAP1 DUP1 DUP3 MSTORE DUP1 PUSH1 0x1F ADD PUSH1 0x1F NOT AND PUSH1 0x20 ADD DUP3 ADD PUSH1 0x40 MSTORE DUP1 ISZERO PUSH2 0x8DE JUMPI DUP2 PUSH1 0x20 ADD PUSH1 0x1 DUP3 MUL DUP1 CALLDATASIZE DUP4 CALLDATACOPY DUP1 DUP3 ADD SWAP2 POP POP SWAP1 POP JUMPDEST POP PUSH0 PUSH2 0x1649 JUMP JUMPDEST POP JUMP JUMPDEST PUSH1 0x6 PUSH1 0x20 MSTORE DUP3 PUSH0 MSTORE PUSH1 0x40 PUSH0 KECCAK256 PUSH1 0x20 MSTORE DUP2 PUSH0 MSTORE PUSH1 0x40 PUSH0 KECCAK256 DUP2 DUP2 SLOAD DUP2 LT PUSH2 0x90B JUMPI PUSH0 DUP1 REVERT JUMPDEST SWAP1 PUSH0 MSTORE PUSH1 0x20 PUSH0 KECCAK256 SWAP1 PUSH1 0x2 MUL ADD PUSH0 SWAP3 POP SWAP3 POP POP POP DUP1 PUSH0 ADD PUSH0 SWAP1 SLOAD SWAP1 PUSH2 0x100 EXP SWAP1 DIV PUSH20 0xFFFFFFFFFFFFFFFFFFFFFFFFFFFFFFFFFFFFFFFF AND SWAP1 DUP1 PUSH1 0x1 ADD SLOAD SWAP1 POP DUP3 JUMP JUMPDEST PUSH32 0x0 PUSH20 0xFFFFFFFFFFFFFFFFFFFFFFFFFFFFFFFFFFFFFFFF AND ADDRESS PUSH20 0xFFFFFFFFFFFFFFFFFFFFFFFFFFFFFFFFFFFFFFFF AND SUB PUSH2 0x9DA JUMPI PUSH1 0x40 MLOAD PUSH32 0x8C379A000000000000000000000000000000000000000000000000000000000 DUP2 MSTORE PUSH1 0x4 ADD PUSH2 0x9D1 SWAP1 PUSH2 0x2B28 JUMP JUMPDEST PUSH1 0x40 MLOAD DUP1 SWAP2 SUB SWAP1 REVERT JUMPDEST PUSH32 0x0 PUSH20 0xFFFFFFFFFFFFFFFFFFFFFFFFFFFFFFFFFFFFFFFF AND PUSH2 0xA19 PUSH2 0x1522 JUMP JUMPDEST PUSH20 0xFFFFFFFFFFFFFFFFFFFFFFFFFFFFFFFFFFFFFFFF AND EQ PUSH2 0xA6F JUMPI PUSH1 0x40 MLOAD PUSH32 0x8C379A000000000000000000000000000000000000000000000000000000000 DUP2 MSTORE PUSH1 0x4 ADD PUSH2 0xA66 SWAP1 PUSH2 0x2BB6 JUMP JUMPDEST PUSH1 0x40 MLOAD DUP1 SWAP2 SUB SWAP1 REVERT JUMPDEST PUSH2 0xA78 DUP3 PUSH2 0x1575 JUMP JUMPDEST PUSH2 0xA84 DUP3 DUP3 PUSH1 0x1 PUSH2 0x1649 JUMP JUMPDEST POP POP JUMP JUMPDEST PUSH0 PUSH32 0x0 PUSH20 0xFFFFFFFFFFFFFFFFFFFFFFFFFFFFFFFFFFFFFFFF AND ADDRESS PUSH20 0xFFFFFFFFFFFFFFFFFFFFFFFFFFFFFFFFFFFFFFFF AND EQ PUSH2 0xB17 JUMPI PUSH1 0x40 MLOAD PUSH32 0x8C379A000000000000000000000000000000000000000000000000000000000 DUP2 MSTORE PUSH1 0x4 ADD PUSH2 0xB0E SWAP1 PUSH2 0x2C44 JUMP JUMPDEST PUSH1 0x40 MLOAD DUP1 SWAP2 SUB SWAP1 REVERT JUMPDEST PUSH32 0x360894A13BA1A3210667C828492DB98DCA3E2076CC3735A920A3CA505D382BBC PUSH0 SHL SWAP1 POP SWAP1 JUMP JUMPDEST PUSH0 DUP1 PUSH1 0x4 PUSH0 DUP5 PUSH20 0xFFFFFFFFFFFFFFFFFFFFFFFFFFFFFFFFFFFFFFFF AND PUSH20 0xFFFFFFFFFFFFFFFFFFFFFFFFFFFFFFFFFFFFFFFF AND DUP2 MSTORE PUSH1 0x20 ADD SWAP1 DUP2 MSTORE PUSH1 0x20 ADD PUSH0 KECCAK256 SLOAD SWAP1 POP PUSH0 PUSH1 0x5 PUSH0 DUP6 PUSH20 0xFFFFFFFFFFFFFFFFFFFFFFFFFFFFFFFFFFFFFFFF AND PUSH20 0xFFFFFFFFFFFFFFFFFFFFFFFFFFFFFFFFFFFFFFFF AND DUP2 MSTORE PUSH1 0x20 ADD SWAP1 DUP2 MSTORE PUSH1 0x20 ADD PUSH0 KECCAK256 SLOAD SWAP1 POP PUSH0 DUP2 SWAP1 POP DUP1 DUP4 PUSH2 0xBD2 SWAP2 SWAP1 PUSH2 0x2A5E JUMP JUMPDEST SWAP4 POP POP POP POP SWAP2 SWAP1 POP JUMP JUMPDEST PUSH0 DUP1 DUP3 GT PUSH2 0xC1F JUMPI PUSH1 0x40 MLOAD PUSH32 0x8C379A000000000000000000000000000000000000000000000000000000000 DUP2 MSTORE PUSH1 0x4 ADD PUSH2 0xC16 SWAP1 PUSH2 0x2CAC JUMP JUMPDEST PUSH1 0x40 MLOAD DUP1 SWAP2 SUB SWAP1 REVERT JUMPDEST DUP2 PUSH1 0x4 PUSH0 CALLER PUSH20 0xFFFFFFFFFFFFFFFFFFFFFFFFFFFFFFFFFFFFFFFF AND PUSH20 0xFFFFFFFFFFFFFFFFFFFFFFFFFFFFFFFFFFFFFFFF AND DUP2 MSTORE PUSH1 0x20 ADD SWAP1 DUP2 MSTORE PUSH1 0x20 ADD PUSH0 KECCAK256 PUSH0 DUP3 DUP3 SLOAD PUSH2 0xC6B SWAP2 SWAP1 PUSH2 0x2CCA JUMP JUMPDEST SWAP3 POP POP DUP2 SWAP1 SSTORE POP CALLER PUSH20 0xFFFFFFFFFFFFFFFFFFFFFFFFFFFFFFFFFFFFFFFF AND PUSH32 0xA0C8EDA28AB82FE28C2BCAA48A1CE2B5EAC8DBED005A6E8EB62398577E908D5C DUP4 PUSH1 0x40 MLOAD PUSH2 0xCB8 SWAP2 SWAP1 PUSH2 0x24AA JUMP JUMPDEST PUSH1 0x40 MLOAD DUP1 SWAP2 SUB SWAP1 LOG2 PUSH1 0x4 PUSH0 CALLER PUSH20 0xFFFFFFFFFFFFFFFFFFFFFFFFFFFFFFFFFFFFFFFF AND PUSH20 0xFFFFFFFFFFFFFFFFFFFFFFFFFFFFFFFFFFFFFFFF AND DUP2 MSTORE PUSH1 0x20 ADD SWAP1 DUP2 MSTORE PUSH1 0x20 ADD PUSH0 KECCAK256 SLOAD SWAP1 POP SWAP2 SWAP1 POP JUMP JUMPDEST PUSH0 PUSH1 0x3 PUSH1 0x1 DUP2 PUSH1 0x1 DUP2 SLOAD ADD DUP1 DUP3 SSTORE DUP1 SWAP2 POP POP SUB SWAP1 PUSH0 MSTORE PUSH1 0x20 PUSH0 KECCAK256 SWAP1 POP POP PUSH0 PUSH1 0x1 PUSH1 0x3 DUP1 SLOAD SWAP1 POP PUSH2 0xD35 SWAP2 SWAP1 PUSH2 0x2A5E JUMP JUMPDEST SWAP1 POP PUSH0 PUSH1 0x3 DUP3 DUP2 SLOAD DUP2 LT PUSH2 0xD4C JUMPI PUSH2 0xD4B PUSH2 0x2CFD JUMP JUMPDEST JUMPDEST SWAP1 PUSH0 MSTORE PUSH1 0x20 PUSH0 KECCAK256 SWAP1 PUSH1 0x2 MUL ADD SWAP1 POP CALLER DUP2 PUSH0 ADD PUSH0 PUSH2 0x100 EXP DUP2 SLOAD DUP2 PUSH20 0xFFFFFFFFFFFFFFFFFFFFFFFFFFFFFFFFFFFFFFFF MUL NOT AND SWAP1 DUP4 PUSH20 0xFFFFFFFFFFFFFFFFFFFFFFFFFFFFFFFFFFFFFFFF AND MUL OR SWAP1 SSTORE POP PUSH0 JUMPDEST DUP5 MLOAD DUP2 LT ISZERO PUSH2 0xE2C JUMPI DUP2 PUSH1 0x1 ADD PUSH1 0x40 MLOAD DUP1 PUSH1 0x40 ADD PUSH1 0x40 MSTORE DUP1 DUP8 DUP5 DUP2 MLOAD DUP2 LT PUSH2 0xDC8 JUMPI PUSH2 0xDC7 PUSH2 0x2CFD JUMP JUMPDEST JUMPDEST PUSH1 0x20 MUL PUSH1 0x20 ADD ADD MLOAD DUP2 MSTORE PUSH1 0x20 ADD PUSH0 DUP2 MSTORE POP SWAP1 DUP1 PUSH1 0x1 DUP2 SLOAD ADD DUP1 DUP3 SSTORE DUP1 SWAP2 POP POP PUSH1 0x1 SWAP1 SUB SWAP1 PUSH0 MSTORE PUSH1 0x20 PUSH0 KECCAK256 SWAP1 PUSH1 0x2 MUL ADD PUSH0 SWAP1 SWAP2 SWAP1 SWAP2 SWAP1 SWAP2 POP PUSH0 DUP3 ADD MLOAD DUP2 PUSH0 ADD SWAP1 DUP2 PUSH2 0xE12 SWAP2 SWAP1 PUSH2 0x2F2E JUMP JUMPDEST POP PUSH1 0x20 DUP3 ADD MLOAD DUP2 PUSH1 0x1 ADD SSTORE POP POP DUP1 DUP1 PUSH1 0x1 ADD SWAP2 POP POP PUSH2 0xD9D JUMP JUMPDEST POP DUP2 CALLER PUSH20 0xFFFFFFFFFFFFFFFFFFFFFFFFFFFFFFFFFFFFFFFF AND PUSH32 0x9A6F89A0FDF2B617E645524A789BBEAB5B66BF3517973CA92DAF26F077603F85 DUP7 PUSH1 0x40 MLOAD PUSH2 0xE74 SWAP2 SWAP1 PUSH2 0x310E JUMP JUMPDEST PUSH1 0x40 MLOAD DUP1 SWAP2 SUB SWAP1 LOG3 DUP2 SWAP3 POP POP POP SWAP2 SWAP1 POP JUMP JUMPDEST DUP1 PUSH2 0xE90 CALLER PUSH2 0xB3F JUMP JUMPDEST LT ISZERO PUSH2 0xED1 JUMPI PUSH1 0x40 MLOAD PUSH32 0x8C379A000000000000000000000000000000000000000000000000000000000 DUP2 MSTORE PUSH1 0x4 ADD PUSH2 0xEC8 SWAP1 PUSH2 0x3178 JUMP JUMPDEST PUSH1 0x40 MLOAD DUP1 SWAP2 SUB SWAP1 REVERT JUMPDEST DUP1 PUSH1 0x5 PUSH0 CALLER PUSH20 0xFFFFFFFFFFFFFFFFFFFFFFFFFFFFFFFFFFFFFFFF AND PUSH20 0xFFFFFFFFFFFFFFFFFFFFFFFFFFFFFFFFFFFFFFFF AND DUP2 MSTORE PUSH1 0x20 ADD SWAP1 DUP2 MSTORE PUSH1 0x20 ADD PUSH0 KECCAK256 PUSH0 DUP3 DUP3 SLOAD PUSH2 0xF1D SWAP2 SWAP1 PUSH2 0x2CCA JUMP JUMPDEST SWAP3 POP POP DUP2 SWAP1 SSTORE POP PUSH0 PUSH1 0x3 DUP5 DUP2 SLOAD DUP2 LT PUSH2 0xF39 JUMPI PUSH2 0xF38 PUSH2 0x2CFD JUMP JUMPDEST JUMPDEST SWAP1 PUSH0 MSTORE PUSH1 0x20 PUSH0 KECCAK256 SWAP1 PUSH1 0x2 MUL ADD SWAP1 POP DUP2 DUP2 PUSH1 0x1 ADD DUP5 DUP2 SLOAD DUP2 LT PUSH2 0xF5E JUMPI PUSH2 0xF5D PUSH2 0x2CFD JUMP JUMPDEST JUMPDEST SWAP1 PUSH0 MSTORE PUSH1 0x20 PUSH0 KECCAK256 SWAP1 PUSH1 0x2 MUL ADD PUSH1 0x1 ADD PUSH0 DUP3 DUP3 SLOAD PUSH2 0xF7B SWAP2 SWAP1 PUSH2 0x2CCA JUMP JUMPDEST SWAP3 POP POP DUP2 SWAP1 SSTORE POP PUSH1 0x6 PUSH0 DUP6 DUP2 MSTORE PUSH1 0x20 ADD SWAP1 DUP2 MSTORE PUSH1 0x20 ADD PUSH0 KECCAK256 PUSH0 DUP5 DUP2 MSTORE PUSH1 0x20 ADD SWAP1 DUP2 MSTORE PUSH1 0x20 ADD PUSH0 KECCAK256 PUSH1 0x40 MLOAD DUP1 PUSH1 0x40 ADD PUSH1 0x40 MSTORE DUP1 CALLER PUSH20 0xFFFFFFFFFFFFFFFFFFFFFFFFFFFFFFFFFFFFFFFF AND DUP2 MSTORE PUSH1 0x20 ADD DUP5 DUP2 MSTORE POP SWAP1 DUP1 PUSH1 0x1 DUP2 SLOAD ADD DUP1 DUP3 SSTORE DUP1 SWAP2 POP POP PUSH1 0x1 SWAP1 SUB SWAP1 PUSH0 MSTORE PUSH1 0x20 PUSH0 KECCAK256 SWAP1 PUSH1 0x2 MUL ADD PUSH0 SWAP1 SWAP2 SWAP1 SWAP2 SWAP1 SWAP2 POP PUSH0 DUP3 ADD MLOAD DUP2 PUSH0 ADD PUSH0 PUSH2 0x100 EXP DUP2 SLOAD DUP2 PUSH20 0xFFFFFFFFFFFFFFFFFFFFFFFFFFFFFFFFFFFFFFFF MUL NOT AND SWAP1 DUP4 PUSH20 0xFFFFFFFFFFFFFFFFFFFFFFFFFFFFFFFFFFFFFFFF AND MUL OR SWAP1 SSTORE POP PUSH1 0x20 DUP3 ADD MLOAD DUP2 PUSH1 0x1 ADD SSTORE POP POP DUP3 DUP5 CALLER PUSH20 0xFFFFFFFFFFFFFFFFFFFFFFFFFFFFFFFFFFFFFFFF AND PUSH32 0xC32B42768A47A585121E9B8D7A2AB9D3F34C326A192DEE11EE1732E3D18313F3 DUP6 PUSH1 0x40 MLOAD PUSH2 0x108B SWAP2 SWAP1 PUSH2 0x24AA JUMP JUMPDEST PUSH1 0x40 MLOAD DUP1 SWAP2 SUB SWAP1 LOG4 POP POP POP POP JUMP JUMPDEST PUSH0 PUSH1 0x2 SWAP1 SLOAD SWAP1 PUSH2 0x100 EXP SWAP1 DIV PUSH20 0xFFFFFFFFFFFFFFFFFFFFFFFFFFFFFFFFFFFFFFFF AND DUP2 JUMP JUMPDEST PUSH1 0x1 PUSH0 SWAP1 SLOAD SWAP1 PUSH2 0x100 EXP SWAP1 DIV PUSH20 0xFFFFFFFFFFFFFFFFFFFFFFFFFFFFFFFFFFFFFFFF AND DUP2 JUMP JUMPDEST PUSH1 0x5 PUSH1 0x20 MSTORE DUP1 PUSH0 MSTORE PUSH1 0x40 PUSH0 KECCAK256 PUSH0 SWAP2 POP SWAP1 POP SLOAD DUP2 JUMP JUMPDEST PUSH1 0x3 DUP2 DUP2 SLOAD DUP2 LT PUSH2 0x1107 JUMPI PUSH0 DUP1 REVERT JUMPDEST SWAP1 PUSH0 MSTORE PUSH1 0x20 PUSH0 KECCAK256 SWAP1 PUSH1 0x2 MUL ADD PUSH0 SWAP2 POP SWAP1 POP DUP1 PUSH0 ADD PUSH0 SWAP1 SLOAD SWAP1 PUSH2 0x100 EXP SWAP1 DIV PUSH20 0xFFFFFFFFFFFFFFFFFFFFFFFFFFFFFFFFFFFFFFFF AND SWAP1 POP DUP2 JUMP JUMPDEST PUSH0 PUSH1 0x2 PUSH0 SWAP1 SLOAD SWAP1 PUSH2 0x100 EXP SWAP1 DIV PUSH20 0xFFFFFFFFFFFFFFFFFFFFFFFFFFFFFFFFFFFFFFFF AND PUSH20 0xFFFFFFFFFFFFFFFFFFFFFFFFFFFFFFFFFFFFFFFF AND PUSH4 0x23B872DD CALLER ADDRESS DUP6 PUSH1 0x40 MLOAD DUP5 PUSH4 0xFFFFFFFF AND PUSH1 0xE0 SHL DUP2 MSTORE PUSH1 0x4 ADD PUSH2 0x119F SWAP4 SWAP3 SWAP2 SWAP1 PUSH2 0x3196 JUMP JUMPDEST PUSH1 0x20 PUSH1 0x40 MLOAD DUP1 DUP4 SUB DUP2 PUSH0 DUP8 GAS CALL ISZERO DUP1 ISZERO PUSH2 0x11BB JUMPI RETURNDATASIZE PUSH0 DUP1 RETURNDATACOPY RETURNDATASIZE PUSH0 REVERT JUMPDEST POP POP POP POP PUSH1 0x40 MLOAD RETURNDATASIZE PUSH1 0x1F NOT PUSH1 0x1F DUP3 ADD AND DUP3 ADD DUP1 PUSH1 0x40 MSTORE POP DUP2 ADD SWAP1 PUSH2 0x11DF SWAP2 SWAP1 PUSH2 0x298E JUMP JUMPDEST PUSH2 0x121E JUMPI PUSH1 0x40 MLOAD PUSH32 0x8C379A000000000000000000000000000000000000000000000000000000000 DUP2 MSTORE PUSH1 0x4 ADD PUSH2 0x1215 SWAP1 PUSH2 0x2A13 JUMP JUMPDEST PUSH1 0x40 MLOAD DUP1 SWAP2 SUB SWAP1 REVERT JUMPDEST DUP2 PUSH1 0x4 PUSH0 CALLER PUSH20 0xFFFFFFFFFFFFFFFFFFFFFFFFFFFFFFFFFFFFFFFF AND PUSH20 0xFFFFFFFFFFFFFFFFFFFFFFFFFFFFFFFFFFFFFFFF AND DUP2 MSTORE PUSH1 0x20 ADD SWAP1 DUP2 MSTORE PUSH1 0x20 ADD PUSH0 KECCAK256 PUSH0 DUP3 DUP3 SLOAD PUSH2 0x126A SWAP2 SWAP1 PUSH2 0x2CCA JUMP JUMPDEST SWAP3 POP POP DUP2 SWAP1 SSTORE POP CALLER PUSH20 0xFFFFFFFFFFFFFFFFFFFFFFFFFFFFFFFFFFFFFFFF AND PUSH32 0x2DA466A7B24304F47E87FA2E1E5A81B9831CE54FEC19055CE277CA2F39BA42C4 DUP4 PUSH1 0x40 MLOAD PUSH2 0x12B7 SWAP2 SWAP1 PUSH2 0x24AA JUMP JUMPDEST PUSH1 0x40 MLOAD DUP1 SWAP2 SUB SWAP1 LOG2 PUSH1 0x4 PUSH0 CALLER PUSH20 0xFFFFFFFFFFFFFFFFFFFFFFFFFFFFFFFFFFFFFFFF AND PUSH20 0xFFFFFFFFFFFFFFFFFFFFFFFFFFFFFFFFFFFFFFFF AND DUP2 MSTORE PUSH1 0x20 ADD SWAP1 DUP2 MSTORE PUSH1 0x20 ADD PUSH0 KECCAK256 SLOAD SWAP1 POP SWAP2 SWAP1 POP JUMP JUMPDEST PUSH1 0x2 PUSH0 SWAP1 SLOAD SWAP1 PUSH2 0x100 EXP SWAP1 DIV PUSH20 0xFFFFFFFFFFFFFFFFFFFFFFFFFFFFFFFFFFFFFFFF AND DUP2 JUMP JUMPDEST PUSH0 DUP1 PUSH1 0x1 SWAP1 SLOAD SWAP1 PUSH2 0x100 EXP SWAP1 DIV PUSH1 0xFF AND ISZERO SWAP1 POP DUP1 DUP1 ISZERO PUSH2 0x1358 JUMPI POP PUSH1 0x1 PUSH0 DUP1 SLOAD SWAP1 PUSH2 0x100 EXP SWAP1 DIV PUSH1 0xFF AND PUSH1 0xFF AND LT JUMPDEST DUP1 PUSH2 0x1384 JUMPI POP PUSH2 0x1367 ADDRESS PUSH2 0x17B3 JUMP JUMPDEST ISZERO DUP1 ISZERO PUSH2 0x1383 JUMPI POP PUSH1 0x1 PUSH0 DUP1 SLOAD SWAP1 PUSH2 0x100 EXP SWAP1 DIV PUSH1 0xFF AND PUSH1 0xFF AND EQ JUMPDEST JUMPDEST PUSH2 0x13C3 JUMPI PUSH1 0x40 MLOAD PUSH32 0x8C379A000000000000000000000000000000000000000000000000000000000 DUP2 MSTORE PUSH1 0x4 ADD PUSH2 0x13BA SWAP1 PUSH2 0x323B JUMP JUMPDEST PUSH1 0x40 MLOAD DUP1 SWAP2 SUB SWAP1 REVERT JUMPDEST PUSH1 0x1 PUSH0 DUP1 PUSH2 0x100 EXP DUP2 SLOAD DUP2 PUSH1 0xFF MUL NOT AND SWAP1 DUP4 PUSH1 0xFF AND MUL OR SWAP1 SSTORE POP DUP1 ISZERO PUSH2 0x13FE JUMPI PUSH1 0x1 PUSH0 PUSH1 0x1 PUSH2 0x100 EXP DUP2 SLOAD DUP2 PUSH1 0xFF MUL NOT AND SWAP1 DUP4 ISZERO ISZERO MUL OR SWAP1 SSTORE POP JUMPDEST DUP2 PUSH1 0x2 PUSH0 PUSH2 0x100 EXP DUP2 SLOAD DUP2 PUSH20 0xFFFFFFFFFFFFFFFFFFFFFFFFFFFFFFFFFFFFFFFF MUL NOT AND SWAP1 DUP4 PUSH20 0xFFFFFFFFFFFFFFFFFFFFFFFFFFFFFFFFFFFFFFFF AND MUL OR SWAP1 SSTORE POP CALLER PUSH0 PUSH1 0x2 PUSH2 0x100 EXP DUP2 SLOAD DUP2 PUSH20 0xFFFFFFFFFFFFFFFFFFFFFFFFFFFFFFFFFFFFFFFF MUL NOT AND SWAP1 DUP4 PUSH20 0xFFFFFFFFFFFFFFFFFFFFFFFFFFFFFFFFFFFFFFFF AND MUL OR SWAP1 SSTORE POP DUP1 ISZERO PUSH2 0x14D6 JUMPI PUSH0 DUP1 PUSH1 0x1 PUSH2 0x100 EXP DUP2 SLOAD DUP2 PUSH1 0xFF MUL NOT AND SWAP1 DUP4 ISZERO ISZERO MUL OR SWAP1 SSTORE POP PUSH32 0x7F26B83FF96E1F2B6A682F133852F6798A09C465DA95921460CEFB3847402498 PUSH1 0x1 PUSH1 0x40 MLOAD PUSH2 0x14CD SWAP2 SWAP1 PUSH2 0x329E JUMP JUMPDEST PUSH1 0x40 MLOAD DUP1 SWAP2 SUB SWAP1 LOG1 JUMPDEST POP POP JUMP JUMPDEST PUSH0 PUSH2 0x14E5 DUP4 DUP4 PUSH2 0x17D5 JUMP JUMPDEST SWAP1 POP DUP1 ISZERO PUSH2 0x14FC JUMPI PUSH2 0x14F7 DUP4 DUP4 PUSH2 0x19B8 JUMP JUMPDEST PUSH2 0x1507 JUMP JUMPDEST PUSH2 0x1506 DUP4 DUP4 PUSH2 0x1B29 JUMP JUMPDEST JUMPDEST DUP2 PUSH1 0x7 PUSH0 DUP6 DUP2 MSTORE PUSH1 0x20 ADD SWAP1 DUP2 MSTORE PUSH1 0x20 ADD PUSH0 KECCAK256 DUP2 SWAP1 SSTORE POP POP POP POP JUMP JUMPDEST PUSH0 PUSH2 0x154E PUSH32 0x360894A13BA1A3210667C828492DB98DCA3E2076CC3735A920A3CA505D382BBC PUSH0 SHL PUSH2 0x1D79 JUMP JUMPDEST PUSH0 ADD PUSH0 SWAP1 SLOAD SWAP1 PUSH2 0x100 EXP SWAP1 DIV PUSH20 0xFFFFFFFFFFFFFFFFFFFFFFFFFFFFFFFFFFFFFFFF AND SWAP1 POP SWAP1 JUMP JUMPDEST CALLER PUSH20 0xFFFFFFFFFFFFFFFFFFFFFFFFFFFFFFFFFFFFFFFF AND PUSH0 PUSH1 0x2 SWAP1 SLOAD SWAP1 PUSH2 0x100 EXP SWAP1 DIV PUSH20 0xFFFFFFFFFFFFFFFFFFFFFFFFFFFFFFFFFFFFFFFF AND PUSH20 0xFFFFFFFFFFFFFFFFFFFFFFFFFFFFFFFFFFFFFFFF AND EQ PUSH2 0x1606 JUMPI CALLER PUSH1 0x40 MLOAD PUSH32 0x118CDAA700000000000000000000000000000000000000000000000000000000 DUP2 MSTORE PUSH1 0x4 ADD PUSH2 0x15FD SWAP2 SWAP1 PUSH2 0x2902 JUMP JUMPDEST PUSH1 0x40 MLOAD DUP1 SWAP2 SUB SWAP1 REVERT JUMPDEST DUP1 PUSH1 0x1 PUSH0 PUSH2 0x100 EXP DUP2 SLOAD DUP2 PUSH20 0xFFFFFFFFFFFFFFFFFFFFFFFFFFFFFFFFFFFFFFFF MUL NOT AND SWAP1 DUP4 PUSH20 0xFFFFFFFFFFFFFFFFFFFFFFFFFFFFFFFFFFFFFFFF AND MUL OR SWAP1 SSTORE POP POP JUMP JUMPDEST PUSH2 0x1674 PUSH32 0x4910FDFA16FED3260ED0E7147F7CC6DA11A60208B5B9406D12A635614FFD9143 PUSH0 SHL PUSH2 0x1D82 JUMP JUMPDEST PUSH0 ADD PUSH0 SWAP1 SLOAD SWAP1 PUSH2 0x100 EXP SWAP1 DIV PUSH1 0xFF AND ISZERO PUSH2 0x1696 JUMPI PUSH2 0x1691 DUP4 PUSH2 0x1D8B JUMP JUMPDEST PUSH2 0x17AE JUMP JUMPDEST DUP3 PUSH20 0xFFFFFFFFFFFFFFFFFFFFFFFFFFFFFFFFFFFFFFFF AND PUSH4 0x52D1902D PUSH1 0x40 MLOAD DUP2 PUSH4 0xFFFFFFFF AND PUSH1 0xE0 SHL DUP2 MSTORE PUSH1 0x4 ADD PUSH1 0x20 PUSH1 0x40 MLOAD DUP1 DUP4 SUB DUP2 DUP7 GAS STATICCALL SWAP3 POP POP POP DUP1 ISZERO PUSH2 0x16FE JUMPI POP PUSH1 0x40 MLOAD RETURNDATASIZE PUSH1 0x1F NOT PUSH1 0x1F DUP3 ADD AND DUP3 ADD DUP1 PUSH1 0x40 MSTORE POP DUP2 ADD SWAP1 PUSH2 0x16FB SWAP2 SWAP1 PUSH2 0x32E1 JUMP JUMPDEST PUSH1 0x1 JUMPDEST PUSH2 0x173D JUMPI PUSH1 0x40 MLOAD PUSH32 0x8C379A000000000000000000000000000000000000000000000000000000000 DUP2 MSTORE PUSH1 0x4 ADD PUSH2 0x1734 SWAP1 PUSH2 0x337C JUMP JUMPDEST PUSH1 0x40 MLOAD DUP1 SWAP2 SUB SWAP1 REVERT JUMPDEST PUSH32 0x360894A13BA1A3210667C828492DB98DCA3E2076CC3735A920A3CA505D382BBC PUSH0 SHL DUP2 EQ PUSH2 0x17A1 JUMPI PUSH1 0x40 MLOAD PUSH32 0x8C379A000000000000000000000000000000000000000000000000000000000 DUP2 MSTORE PUSH1 0x4 ADD PUSH2 0x1798 SWAP1 PUSH2 0x340A JUMP JUMPDEST PUSH1 0x40 MLOAD DUP1 SWAP2 SUB SWAP1 REVERT JUMPDEST POP PUSH2 0x17AD DUP4 DUP4 DUP4 PUSH2 0x1E41 JUMP JUMPDEST JUMPDEST POP POP POP JUMP JUMPDEST PUSH0 DUP1 DUP3 PUSH20 0xFFFFFFFFFFFFFFFFFFFFFFFFFFFFFFFFFFFFFFFF AND EXTCODESIZE GT SWAP1 POP SWAP2 SWAP1 POP JUMP JUMPDEST PUSH0 DUP1 PUSH1 0x3 DUP5 DUP2 SLOAD DUP2 LT PUSH2 0x17EB JUMPI PUSH2 0x17EA PUSH2 0x2CFD JUMP JUMPDEST JUMPDEST SWAP1 PUSH0 MSTORE PUSH1 0x20 PUSH0 KECCAK256 SWAP1 PUSH1 0x2 MUL ADD PUSH1 0x40 MLOAD DUP1 PUSH1 0x40 ADD PUSH1 0x40 MSTORE SWAP1 DUP2 PUSH0 DUP3 ADD PUSH0 SWAP1 SLOAD SWAP1 PUSH2 0x100 EXP SWAP1 DIV PUSH20 0xFFFFFFFFFFFFFFFFFFFFFFFFFFFFFFFFFFFFFFFF AND PUSH20 0xFFFFFFFFFFFFFFFFFFFFFFFFFFFFFFFFFFFFFFFF AND PUSH20 0xFFFFFFFFFFFFFFFFFFFFFFFFFFFFFFFFFFFFFFFF AND DUP2 MSTORE PUSH1 0x20 ADD PUSH1 0x1 DUP3 ADD DUP1 SLOAD DUP1 PUSH1 0x20 MUL PUSH1 0x20 ADD PUSH1 0x40 MLOAD SWAP1 DUP2 ADD PUSH1 0x40 MSTORE DUP1 SWAP3 SWAP2 SWAP1 DUP2 DUP2 MSTORE PUSH1 0x20 ADD PUSH0 SWAP1 JUMPDEST DUP3 DUP3 LT ISZERO PUSH2 0x1943 JUMPI DUP4 DUP3 SWAP1 PUSH0 MSTORE PUSH1 0x20 PUSH0 KECCAK256 SWAP1 PUSH1 0x2 MUL ADD PUSH1 0x40 MLOAD DUP1 PUSH1 0x40 ADD PUSH1 0x40 MSTORE SWAP1 DUP2 PUSH0 DUP3 ADD DUP1 SLOAD PUSH2 0x18AA SWAP1 PUSH2 0x2D61 JUMP JUMPDEST DUP1 PUSH1 0x1F ADD PUSH1 0x20 DUP1 SWAP2 DIV MUL PUSH1 0x20 ADD PUSH1 0x40 MLOAD SWAP1 DUP2 ADD PUSH1 0x40 MSTORE DUP1 SWAP3 SWAP2 SWAP1 DUP2 DUP2 MSTORE PUSH1 0x20 ADD DUP3 DUP1 SLOAD PUSH2 0x18D6 SWAP1 PUSH2 0x2D61 JUMP JUMPDEST DUP1 ISZERO PUSH2 0x1921 JUMPI DUP1 PUSH1 0x1F LT PUSH2 0x18F8 JUMPI PUSH2 0x100 DUP1 DUP4 SLOAD DIV MUL DUP4 MSTORE SWAP2 PUSH1 0x20 ADD SWAP2 PUSH2 0x1921 JUMP JUMPDEST DUP3 ADD SWAP2 SWAP1 PUSH0 MSTORE PUSH1 0x20 PUSH0 KECCAK256 SWAP1 JUMPDEST DUP2 SLOAD DUP2 MSTORE SWAP1 PUSH1 0x1 ADD SWAP1 PUSH1 0x20 ADD DUP1 DUP4 GT PUSH2 0x1904 JUMPI DUP3 SWAP1 SUB PUSH1 0x1F AND DUP3 ADD SWAP2 JUMPDEST POP POP POP POP POP DUP2 MSTORE PUSH1 0x20 ADD PUSH1 0x1 DUP3 ADD SLOAD DUP2 MSTORE POP POP DUP2 MSTORE PUSH1 0x20 ADD SWAP1 PUSH1 0x1 ADD SWAP1 PUSH2 0x187A JUMP JUMPDEST POP POP POP POP DUP2 MSTORE POP POP SWAP1 POP PUSH0 DUP2 PUSH1 0x20 ADD MLOAD SWAP1 POP PUSH0 JUMPDEST DUP2 MLOAD DUP2 LT ISZERO PUSH2 0x19AA JUMPI DUP5 DUP2 EQ ISZERO DUP1 ISZERO PUSH2 0x198D JUMPI POP PUSH0 DUP3 DUP3 DUP2 MLOAD DUP2 LT PUSH2 0x197F JUMPI PUSH2 0x197E PUSH2 0x2CFD JUMP JUMPDEST JUMPDEST PUSH1 0x20 MUL PUSH1 0x20 ADD ADD MLOAD PUSH1 0x20 ADD MLOAD GT JUMPDEST ISZERO PUSH2 0x199D JUMPI PUSH0 SWAP4 POP POP POP POP PUSH2 0x19B2 JUMP JUMPDEST DUP1 DUP1 PUSH1 0x1 ADD SWAP2 POP POP PUSH2 0x1957 JUMP JUMPDEST POP PUSH1 0x1 SWAP3 POP POP POP JUMPDEST SWAP3 SWAP2 POP POP JUMP JUMPDEST PUSH0 PUSH1 0x6 PUSH0 DUP4 DUP2 MSTORE PUSH1 0x20 ADD SWAP1 DUP2 MSTORE PUSH1 0x20 ADD PUSH0 KECCAK256 SWAP1 POP PUSH0 JUMPDEST DUP2 PUSH0 DUP5 DUP2 MSTORE PUSH1 0x20 ADD SWAP1 DUP2 MSTORE PUSH1 0x20 ADD PUSH0 KECCAK256 DUP1 SLOAD SWAP1 POP DUP2 LT ISZERO PUSH2 0x1AEB JUMPI PUSH0 DUP3 PUSH0 DUP6 DUP2 MSTORE PUSH1 0x20 ADD SWAP1 DUP2 MSTORE PUSH1 0x20 ADD PUSH0 KECCAK256 DUP3 DUP2 SLOAD DUP2 LT PUSH2 0x1A0C JUMPI PUSH2 0x1A0B PUSH2 0x2CFD JUMP JUMPDEST JUMPDEST SWAP1 PUSH0 MSTORE PUSH1 0x20 PUSH0 KECCAK256 SWAP1 PUSH1 0x2 MUL ADD PUSH1 0x40 MLOAD DUP1 PUSH1 0x40 ADD PUSH1 0x40 MSTORE SWAP1 DUP2 PUSH0 DUP3 ADD PUSH0 SWAP1 SLOAD SWAP1 PUSH2 0x100 EXP SWAP1 DIV PUSH20 0xFFFFFFFFFFFFFFFFFFFFFFFFFFFFFFFFFFFFFFFF AND PUSH20 0xFFFFFFFFFFFFFFFFFFFFFFFFFFFFFFFFFFFFFFFF AND PUSH20 0xFFFFFFFFFFFFFFFFFFFFFFFFFFFFFFFFFFFFFFFF AND DUP2 MSTORE PUSH1 0x20 ADD PUSH1 0x1 DUP3 ADD SLOAD DUP2 MSTORE POP POP SWAP1 POP DUP1 PUSH1 0x20 ADD MLOAD PUSH1 0x5 PUSH0 DUP4 PUSH0 ADD MLOAD PUSH20 0xFFFFFFFFFFFFFFFFFFFFFFFFFFFFFFFFFFFFFFFF AND PUSH20 0xFFFFFFFFFFFFFFFFFFFFFFFFFFFFFFFFFFFFFFFF AND DUP2 MSTORE PUSH1 0x20 ADD SWAP1 DUP2 MSTORE PUSH1 0x20 ADD PUSH0 KECCAK256 PUSH0 DUP3 DUP3 SLOAD PUSH2 0x1AD6 SWAP2 SWAP1 PUSH2 0x2A5E JUMP JUMPDEST SWAP3 POP POP DUP2 SWAP1 SSTORE POP POP DUP1 DUP1 PUSH1 0x1 ADD SWAP2 POP POP PUSH2 0x19CE JUMP JUMPDEST POP DUP3 PUSH32 0xC445A10C3FA19D3805AEEA8B151160C7252C62F5BB08325A6ACD73F79E5531EE DUP4 PUSH1 0x40 MLOAD PUSH2 0x1B1C SWAP2 SWAP1 PUSH2 0x24AA JUMP JUMPDEST PUSH1 0x40 MLOAD DUP1 SWAP2 SUB SWAP1 LOG2 POP POP POP JUMP JUMPDEST PUSH0 PUSH1 0x3 DUP4 DUP2 SLOAD DUP2 LT PUSH2 0x1B3E JUMPI PUSH2 0x1B3D PUSH2 0x2CFD JUMP JUMPDEST JUMPDEST SWAP1 PUSH0 MSTORE PUSH1 0x20 PUSH0 KECCAK256 SWAP1 PUSH1 0x2 MUL ADD SWAP1 POP PUSH0 PUSH1 0x6 PUSH0 DUP5 DUP2 MSTORE PUSH1 0x20 ADD SWAP1 DUP2 MSTORE PUSH1 0x20 ADD PUSH0 KECCAK256 SWAP1 POP PUSH0 DUP1 DUP4 PUSH1 0x1 ADD DUP1 SLOAD SWAP1 POP SWAP1 POP PUSH0 DUP5 PUSH1 0x1 ADD DUP7 DUP2 SLOAD DUP2 LT PUSH2 0x1B83 JUMPI PUSH2 0x1B82 PUSH2 0x2CFD JUMP JUMPDEST JUMPDEST SWAP1 PUSH0 MSTORE PUSH1 0x20 PUSH0 KECCAK256 SWAP1 PUSH1 0x2 MUL ADD PUSH1 0x1 ADD SLOAD SWAP1 POP PUSH0 JUMPDEST DUP3 DUP2 LT ISZERO PUSH2 0x1BDF JUMPI DUP6 PUSH1 0x1 ADD DUP2 DUP2 SLOAD DUP2 LT PUSH2 0x1BB5 JUMPI PUSH2 0x1BB4 PUSH2 0x2CFD JUMP JUMPDEST JUMPDEST SWAP1 PUSH0 MSTORE PUSH1 0x20 PUSH0 KECCAK256 SWAP1 PUSH1 0x2 MUL ADD PUSH1 0x1 ADD SLOAD DUP5 PUSH2 0x1BD0 SWAP2 SWAP1 PUSH2 0x2CCA JUMP JUMPDEST SWAP4 POP DUP1 DUP1 PUSH1 0x1 ADD SWAP2 POP POP PUSH2 0x1B97 JUMP JUMPDEST POP PUSH1 0x64 PUSH1 0x5 DUP5 PUSH2 0x1BEF SWAP2 SWAP1 PUSH2 0x3428 JUMP JUMPDEST PUSH2 0x1BF9 SWAP2 SWAP1 PUSH2 0x3496 JUMP JUMPDEST PUSH1 0x4 PUSH0 DUP8 PUSH0 ADD PUSH0 SWAP1 SLOAD SWAP1 PUSH2 0x100 EXP SWAP1 DIV PUSH20 0xFFFFFFFFFFFFFFFFFFFFFFFFFFFFFFFFFFFFFFFF AND PUSH20 0xFFFFFFFFFFFFFFFFFFFFFFFFFFFFFFFFFFFFFFFF AND PUSH20 0xFFFFFFFFFFFFFFFFFFFFFFFFFFFFFFFFFFFFFFFF AND DUP2 MSTORE PUSH1 0x20 ADD SWAP1 DUP2 MSTORE PUSH1 0x20 ADD PUSH0 KECCAK256 PUSH0 DUP3 DUP3 SLOAD PUSH2 0x1C66 SWAP2 SWAP1 PUSH2 0x2CCA JUMP JUMPDEST SWAP3 POP POP DUP2 SWAP1 SSTORE POP PUSH0 PUSH1 0x64 PUSH1 0x5A DUP6 PUSH2 0x1C7D SWAP2 SWAP1 PUSH2 0x3428 JUMP JUMPDEST PUSH2 0x1C87 SWAP2 SWAP1 PUSH2 0x3496 JUMP JUMPDEST SWAP1 POP PUSH0 JUMPDEST DUP4 DUP2 LT ISZERO PUSH2 0x1D6E JUMPI PUSH2 0x1D61 DUP10 DUP10 DUP5 DUP7 DUP11 PUSH0 DUP8 DUP2 MSTORE PUSH1 0x20 ADD SWAP1 DUP2 MSTORE PUSH1 0x20 ADD PUSH0 KECCAK256 DUP1 SLOAD DUP1 PUSH1 0x20 MUL PUSH1 0x20 ADD PUSH1 0x40 MLOAD SWAP1 DUP2 ADD PUSH1 0x40 MSTORE DUP1 SWAP3 SWAP2 SWAP1 DUP2 DUP2 MSTORE PUSH1 0x20 ADD PUSH0 SWAP1 JUMPDEST DUP3 DUP3 LT ISZERO PUSH2 0x1D57 JUMPI DUP4 DUP3 SWAP1 PUSH0 MSTORE PUSH1 0x20 PUSH0 KECCAK256 SWAP1 PUSH1 0x2 MUL ADD PUSH1 0x40 MLOAD DUP1 PUSH1 0x40 ADD PUSH1 0x40 MSTORE SWAP1 DUP2 PUSH0 DUP3 ADD PUSH0 SWAP1 SLOAD SWAP1 PUSH2 0x100 EXP SWAP1 DIV PUSH20 0xFFFFFFFFFFFFFFFFFFFFFFFFFFFFFFFFFFFFFFFF AND PUSH20 0xFFFFFFFFFFFFFFFFFFFFFFFFFFFFFFFFFFFFFFFF AND PUSH20 0xFFFFFFFFFFFFFFFFFFFFFFFFFFFFFFFFFFFFFFFF AND DUP2 MSTORE PUSH1 0x20 ADD PUSH1 0x1 DUP3 ADD SLOAD DUP2 MSTORE POP POP DUP2 MSTORE PUSH1 0x20 ADD SWAP1 PUSH1 0x1 ADD SWAP1 PUSH2 0x1CC9 JUMP JUMPDEST POP POP POP POP DUP7 PUSH2 0x1E6C JUMP JUMPDEST DUP1 DUP1 PUSH1 0x1 ADD SWAP2 POP POP PUSH2 0x1C8B JUMP JUMPDEST POP POP POP POP POP POP POP POP POP JUMP JUMPDEST PUSH0 DUP2 SWAP1 POP SWAP2 SWAP1 POP JUMP JUMPDEST PUSH0 DUP2 SWAP1 POP SWAP2 SWAP1 POP JUMP JUMPDEST PUSH2 0x1D94 DUP2 PUSH2 0x17B3 JUMP JUMPDEST PUSH2 0x1DD3 JUMPI PUSH1 0x40 MLOAD PUSH32 0x8C379A000000000000000000000000000000000000000000000000000000000 DUP2 MSTORE PUSH1 0x4 ADD PUSH2 0x1DCA SWAP1 PUSH2 0x3536 JUMP JUMPDEST PUSH1 0x40 MLOAD DUP1 SWAP2 SUB SWAP1 REVERT JUMPDEST DUP1 PUSH2 0x1DFF PUSH32 0x360894A13BA1A3210667C828492DB98DCA3E2076CC3735A920A3CA505D382BBC PUSH0 SHL PUSH2 0x1D79 JUMP JUMPDEST PUSH0 ADD PUSH0 PUSH2 0x100 EXP DUP2 SLOAD DUP2 PUSH20 0xFFFFFFFFFFFFFFFFFFFFFFFFFFFFFFFFFFFFFFFF MUL NOT AND SWAP1 DUP4 PUSH20 0xFFFFFFFFFFFFFFFFFFFFFFFFFFFFFFFFFFFFFFFF AND MUL OR SWAP1 SSTORE POP POP JUMP JUMPDEST PUSH2 0x1E4A DUP4 PUSH2 0x21A2 JUMP JUMPDEST PUSH0 DUP3 MLOAD GT DUP1 PUSH2 0x1E56 JUMPI POP DUP1 JUMPDEST ISZERO PUSH2 0x1E67 JUMPI PUSH2 0x1E65 DUP4 DUP4 PUSH2 0x21F1 JUMP JUMPDEST POP JUMPDEST POP POP POP JUMP JUMPDEST PUSH0 JUMPDEST DUP3 MLOAD DUP2 LT ISZERO PUSH2 0x2199 JUMPI PUSH0 DUP4 DUP3 DUP2 MLOAD DUP2 LT PUSH2 0x1E8B JUMPI PUSH2 0x1E8A PUSH2 0x2CFD JUMP JUMPDEST JUMPDEST PUSH1 0x20 MUL PUSH1 0x20 ADD ADD MLOAD SWAP1 POP DUP1 PUSH1 0x20 ADD MLOAD PUSH1 0x5 PUSH0 DUP4 PUSH0 ADD MLOAD PUSH20 0xFFFFFFFFFFFFFFFFFFFFFFFFFFFFFFFFFFFFFFFF AND PUSH20 0xFFFFFFFFFFFFFFFFFFFFFFFFFFFFFFFFFFFFFFFF AND DUP2 MSTORE PUSH1 0x20 ADD SWAP1 DUP2 MSTORE PUSH1 0x20 ADD PUSH0 KECCAK256 PUSH0 DUP3 DUP3 SLOAD PUSH2 0x1EE8 SWAP2 SWAP1 PUSH2 0x2A5E JUMP JUMPDEST SWAP3 POP POP DUP2 SWAP1 SSTORE POP DUP7 DUP4 SUB PUSH2 0x202B JUMPI PUSH0 DUP6 DUP8 DUP4 PUSH1 0x20 ADD MLOAD PUSH2 0x1F08 SWAP2 SWAP1 PUSH2 0x3428 JUMP JUMPDEST PUSH2 0x1F12 SWAP2 SWAP1 PUSH2 0x3496 JUMP JUMPDEST SWAP1 POP PUSH0 DUP3 PUSH1 0x20 ADD MLOAD DUP3 PUSH2 0x1F25 SWAP2 SWAP1 PUSH2 0x2A5E JUMP JUMPDEST SWAP1 POP DUP1 PUSH1 0x4 PUSH0 DUP6 PUSH0 ADD MLOAD PUSH20 0xFFFFFFFFFFFFFFFFFFFFFFFFFFFFFFFFFFFFFFFF AND PUSH20 0xFFFFFFFFFFFFFFFFFFFFFFFFFFFFFFFFFFFFFFFF AND DUP2 MSTORE PUSH1 0x20 ADD SWAP1 DUP2 MSTORE PUSH1 0x20 ADD PUSH0 KECCAK256 PUSH0 DUP3 DUP3 SLOAD PUSH2 0x1F76 SWAP2 SWAP1 PUSH2 0x2CCA JUMP JUMPDEST SWAP3 POP POP DUP2 SWAP1 SSTORE POP DUP1 PUSH1 0x8 PUSH0 DUP13 DUP2 MSTORE PUSH1 0x20 ADD SWAP1 DUP2 MSTORE PUSH1 0x20 ADD PUSH0 KECCAK256 PUSH0 DUP6 PUSH0 ADD MLOAD PUSH20 0xFFFFFFFFFFFFFFFFFFFFFFFFFFFFFFFFFFFFFFFF AND PUSH20 0xFFFFFFFFFFFFFFFFFFFFFFFFFFFFFFFFFFFFFFFF AND DUP2 MSTORE PUSH1 0x20 ADD SWAP1 DUP2 MSTORE PUSH1 0x20 ADD PUSH0 KECCAK256 DUP2 SWAP1 SSTORE POP DUP3 PUSH0 ADD MLOAD PUSH20 0xFFFFFFFFFFFFFFFFFFFFFFFFFFFFFFFFFFFFFFFF AND PUSH32 0x4D7FCCA217E75E1A57DD8BD07A5BDCE0687CC5A93591037097451084D3DB3B26 DUP12 DUP4 PUSH1 0x40 MLOAD PUSH2 0x201C SWAP3 SWAP2 SWAP1 PUSH2 0x3554 JUMP JUMPDEST PUSH1 0x40 MLOAD DUP1 SWAP2 SUB SWAP1 LOG2 POP POP PUSH2 0x218B JUMP JUMPDEST DUP1 PUSH1 0x20 ADD MLOAD PUSH1 0x4 PUSH0 DUP4 PUSH0 ADD MLOAD PUSH20 0xFFFFFFFFFFFFFFFFFFFFFFFFFFFFFFFFFFFFFFFF AND PUSH20 0xFFFFFFFFFFFFFFFFFFFFFFFFFFFFFFFFFFFFFFFF AND DUP2 MSTORE PUSH1 0x20 ADD SWAP1 DUP2 MSTORE PUSH1 0x20 ADD PUSH0 KECCAK256 PUSH0 DUP3 DUP3 SLOAD PUSH2 0x207E SWAP2 SWAP1 PUSH2 0x2A5E JUMP JUMPDEST SWAP3 POP POP DUP2 SWAP1 SSTORE POP PUSH32 0xFFFFFFFFFFFFFFFFFFFFFFFFFFFFFFFFFFFFFFFFFFFFFFFFFFFFFFFFFFFFFFFF DUP2 PUSH1 0x20 ADD MLOAD PUSH2 0x20B5 SWAP2 SWAP1 PUSH2 0x357B JUMP JUMPDEST PUSH1 0x8 PUSH0 DUP11 DUP2 MSTORE PUSH1 0x20 ADD SWAP1 DUP2 MSTORE PUSH1 0x20 ADD PUSH0 KECCAK256 PUSH0 DUP4 PUSH0 ADD MLOAD PUSH20 0xFFFFFFFFFFFFFFFFFFFFFFFFFFFFFFFFFFFFFFFF AND PUSH20 0xFFFFFFFFFFFFFFFFFFFFFFFFFFFFFFFFFFFFFFFF AND DUP2 MSTORE PUSH1 0x20 ADD SWAP1 DUP2 MSTORE PUSH1 0x20 ADD PUSH0 KECCAK256 DUP2 SWAP1 SSTORE POP DUP1 PUSH0 ADD MLOAD PUSH20 0xFFFFFFFFFFFFFFFFFFFFFFFFFFFFFFFFFFFFFFFF AND PUSH32 0x4D7FCCA217E75E1A57DD8BD07A5BDCE0687CC5A93591037097451084D3DB3B26 DUP10 PUSH32 0xFFFFFFFFFFFFFFFFFFFFFFFFFFFFFFFFFFFFFFFFFFFFFFFFFFFFFFFFFFFFFFFF DUP5 PUSH1 0x20 ADD MLOAD PUSH2 0x2174 SWAP2 SWAP1 PUSH2 0x357B JUMP JUMPDEST PUSH1 0x40 MLOAD PUSH2 0x2182 SWAP3 SWAP2 SWAP1 PUSH2 0x3554 JUMP JUMPDEST PUSH1 0x40 MLOAD DUP1 SWAP2 SUB SWAP1 LOG2 JUMPDEST POP DUP1 DUP1 PUSH1 0x1 ADD SWAP2 POP POP PUSH2 0x1E6E JUMP JUMPDEST POP POP POP POP POP POP POP JUMP JUMPDEST PUSH2 0x21AB DUP2 PUSH2 0x1D8B JUMP JUMPDEST DUP1 PUSH20 0xFFFFFFFFFFFFFFFFFFFFFFFFFFFFFFFFFFFFFFFF AND PUSH32 0xBC7CD75A20EE27FD9ADEBAB32041F755214DBC6BFFA90CC0225B39DA2E5C2D3B PUSH1 0x40 MLOAD PUSH1 0x40 MLOAD DUP1 SWAP2 SUB SWAP1 LOG2 POP JUMP JUMPDEST PUSH1 0x60 PUSH2 0x2216 DUP4 DUP4 PUSH1 0x40 MLOAD DUP1 PUSH1 0x60 ADD PUSH1 0x40 MSTORE DUP1 PUSH1 0x27 DUP2 MSTORE PUSH1 0x20 ADD PUSH2 0x370C PUSH1 0x27 SWAP2 CODECOPY PUSH2 0x221E JUMP JUMPDEST SWAP1 POP SWAP3 SWAP2 POP POP JUMP JUMPDEST PUSH1 0x60 PUSH0 DUP1 DUP6 PUSH20 0xFFFFFFFFFFFFFFFFFFFFFFFFFFFFFFFFFFFFFFFF AND DUP6 PUSH1 0x40 MLOAD PUSH2 0x2247 SWAP2 SWAP1 PUSH2 0x3635 JUMP JUMPDEST PUSH0 PUSH1 0x40 MLOAD DUP1 DUP4 SUB DUP2 DUP6 GAS DELEGATECALL SWAP2 POP POP RETURNDATASIZE DUP1 PUSH0 DUP2 EQ PUSH2 0x227F JUMPI PUSH1 0x40 MLOAD SWAP2 POP PUSH1 0x1F NOT PUSH1 0x3F RETURNDATASIZE ADD AND DUP3 ADD PUSH1 0x40 MSTORE RETURNDATASIZE DUP3 MSTORE RETURNDATASIZE PUSH0 PUSH1 0x20 DUP5 ADD RETURNDATACOPY PUSH2 0x2284 JUMP JUMPDEST PUSH1 0x60 SWAP2 POP JUMPDEST POP SWAP2 POP SWAP2 POP PUSH2 0x2295 DUP7 DUP4 DUP4 DUP8 PUSH2 0x22A0 JUMP JUMPDEST SWAP3 POP POP POP SWAP4 SWAP3 POP POP POP JUMP JUMPDEST PUSH1 0x60 DUP4 ISZERO PUSH2 0x2301 JUMPI PUSH0 DUP4 MLOAD SUB PUSH2 0x22F9 JUMPI PUSH2 0x22B9 DUP6 PUSH2 0x17B3 JUMP JUMPDEST PUSH2 0x22F8 JUMPI PUSH1 0x40 MLOAD PUSH32 0x8C379A000000000000000000000000000000000000000000000000000000000 DUP2 MSTORE PUSH1 0x4 ADD PUSH2 0x22EF SWAP1 PUSH2 0x3695 JUMP JUMPDEST PUSH1 0x40 MLOAD DUP1 SWAP2 SUB SWAP1 REVERT JUMPDEST JUMPDEST DUP3 SWAP1 POP PUSH2 0x230C JUMP JUMPDEST PUSH2 0x230B DUP4 DUP4 PUSH2 0x2314 JUMP JUMPDEST JUMPDEST SWAP5 SWAP4 POP POP POP POP JUMP JUMPDEST PUSH0 DUP3 MLOAD GT ISZERO PUSH2 0x2326 JUMPI DUP2 MLOAD DUP1 DUP4 PUSH1 0x20 ADD REVERT JUMPDEST DUP1 PUSH1 0x40 MLOAD PUSH32 0x8C379A000000000000000000000000000000000000000000000000000000000 DUP2 MSTORE PUSH1 0x4 ADD PUSH2 0x235A SWAP2 SWAP1 PUSH2 0x36EB JUMP JUMPDEST PUSH1 0x40 MLOAD DUP1 SWAP2 SUB SWAP1 REVERT JUMPDEST PUSH0 PUSH1 0x40 MLOAD SWAP1 POP SWAP1 JUMP JUMPDEST PUSH0 DUP1 REVERT JUMPDEST PUSH0 DUP1 REVERT JUMPDEST PUSH0 DUP2 SWAP1 POP SWAP2 SWAP1 POP JUMP JUMPDEST PUSH2 0x2386 DUP2 PUSH2 0x2374 JUMP JUMPDEST DUP2 EQ PUSH2 0x2390 JUMPI PUSH0 DUP1 REVERT JUMPDEST POP JUMP JUMPDEST PUSH0 DUP2 CALLDATALOAD SWAP1 POP PUSH2 0x23A1 DUP2 PUSH2 0x237D JUMP JUMPDEST SWAP3 SWAP2 POP POP JUMP JUMPDEST PUSH0 PUSH20 0xFFFFFFFFFFFFFFFFFFFFFFFFFFFFFFFFFFFFFFFF DUP3 AND SWAP1 POP SWAP2 SWAP1 POP JUMP JUMPDEST PUSH0 PUSH2 0x23D0 DUP3 PUSH2 0x23A7 JUMP JUMPDEST SWAP1 POP SWAP2 SWAP1 POP JUMP JUMPDEST PUSH2 0x23E0 DUP2 PUSH2 0x23C6 JUMP JUMPDEST DUP2 EQ PUSH2 0x23EA JUMPI PUSH0 DUP1 REVERT JUMPDEST POP JUMP JUMPDEST PUSH0 DUP2 CALLDATALOAD SWAP1 POP PUSH2 0x23FB DUP2 PUSH2 0x23D7 JUMP JUMPDEST SWAP3 SWAP2 POP POP JUMP JUMPDEST PUSH0 DUP1 PUSH1 0x40 DUP4 DUP6 SUB SLT ISZERO PUSH2 0x2417 JUMPI PUSH2 0x2416 PUSH2 0x236C JUMP JUMPDEST JUMPDEST PUSH0 PUSH2 0x2424 DUP6 DUP3 DUP7 ADD PUSH2 0x2393 JUMP JUMPDEST SWAP3 POP POP PUSH1 0x20 PUSH2 0x2435 DUP6 DUP3 DUP7 ADD PUSH2 0x23ED JUMP JUMPDEST SWAP2 POP POP SWAP3 POP SWAP3 SWAP1 POP JUMP JUMPDEST PUSH0 DUP2 SWAP1 POP SWAP2 SWAP1 POP JUMP JUMPDEST PUSH2 0x2451 DUP2 PUSH2 0x243F JUMP JUMPDEST DUP3 MSTORE POP POP JUMP JUMPDEST PUSH0 PUSH1 0x20 DUP3 ADD SWAP1 POP PUSH2 0x246A PUSH0 DUP4 ADD DUP5 PUSH2 0x2448 JUMP JUMPDEST SWAP3 SWAP2 POP POP JUMP JUMPDEST PUSH0 PUSH1 0x20 DUP3 DUP5 SUB SLT ISZERO PUSH2 0x2485 JUMPI PUSH2 0x2484 PUSH2 0x236C JUMP JUMPDEST JUMPDEST PUSH0 PUSH2 0x2492 DUP5 DUP3 DUP6 ADD PUSH2 0x23ED JUMP JUMPDEST SWAP2 POP POP SWAP3 SWAP2 POP POP JUMP JUMPDEST PUSH2 0x24A4 DUP2 PUSH2 0x2374 JUMP JUMPDEST DUP3 MSTORE POP POP JUMP JUMPDEST PUSH0 PUSH1 0x20 DUP3 ADD SWAP1 POP PUSH2 0x24BD PUSH0 DUP4 ADD DUP5 PUSH2 0x249B JUMP JUMPDEST SWAP3 SWAP2 POP POP JUMP JUMPDEST PUSH0 PUSH1 0x20 DUP3 DUP5 SUB SLT ISZERO PUSH2 0x24D8 JUMPI PUSH2 0x24D7 PUSH2 0x236C JUMP JUMPDEST JUMPDEST PUSH0 PUSH2 0x24E5 DUP5 DUP3 DUP6 ADD PUSH2 0x2393 JUMP JUMPDEST SWAP2 POP POP SWAP3 SWAP2 POP POP JUMP JUMPDEST PUSH0 DUP1 PUSH0 PUSH1 0x60 DUP5 DUP7 SUB SLT ISZERO PUSH2 0x2505 JUMPI PUSH2 0x2504 PUSH2 0x236C JUMP JUMPDEST JUMPDEST PUSH0 PUSH2 0x2512 DUP7 DUP3 DUP8 ADD PUSH2 0x2393 JUMP JUMPDEST SWAP4 POP POP PUSH1 0x20 PUSH2 0x2523 DUP7 DUP3 DUP8 ADD PUSH2 0x2393 JUMP JUMPDEST SWAP3 POP POP PUSH1 0x40 PUSH2 0x2534 DUP7 DUP3 DUP8 ADD PUSH2 0x2393 JUMP JUMPDEST SWAP2 POP POP SWAP3 POP SWAP3 POP SWAP3 JUMP JUMPDEST PUSH2 0x2547 DUP2 PUSH2 0x23C6 JUMP JUMPDEST DUP3 MSTORE POP POP JUMP JUMPDEST PUSH0 PUSH1 0x40 DUP3 ADD SWAP1 POP PUSH2 0x2560 PUSH0 DUP4 ADD DUP6 PUSH2 0x253E JUMP JUMPDEST PUSH2 0x256D PUSH1 0x20 DUP4 ADD DUP5 PUSH2 0x249B JUMP JUMPDEST SWAP4 SWAP3 POP POP POP JUMP JUMPDEST PUSH0 DUP1 REVERT JUMPDEST PUSH0 DUP1 REVERT JUMPDEST PUSH0 PUSH1 0x1F NOT PUSH1 0x1F DUP4 ADD AND SWAP1 POP SWAP2 SWAP1 POP JUMP JUMPDEST PUSH32 0x4E487B7100000000000000000000000000000000000000000000000000000000 PUSH0 MSTORE PUSH1 0x41 PUSH1 0x4 MSTORE PUSH1 0x24 PUSH0 REVERT JUMPDEST PUSH2 0x25C2 DUP3 PUSH2 0x257C JUMP JUMPDEST DUP2 ADD DUP2 DUP2 LT PUSH8 0xFFFFFFFFFFFFFFFF DUP3 GT OR ISZERO PUSH2 0x25E1 JUMPI PUSH2 0x25E0 PUSH2 0x258C JUMP JUMPDEST JUMPDEST DUP1 PUSH1 0x40 MSTORE POP POP POP JUMP JUMPDEST PUSH0 PUSH2 0x25F3 PUSH2 0x2363 JUMP JUMPDEST SWAP1 POP PUSH2 0x25FF DUP3 DUP3 PUSH2 0x25B9 JUMP JUMPDEST SWAP2 SWAP1 POP JUMP JUMPDEST PUSH0 PUSH8 0xFFFFFFFFFFFFFFFF DUP3 GT ISZERO PUSH2 0x261E JUMPI PUSH2 0x261D PUSH2 0x258C JUMP JUMPDEST JUMPDEST PUSH2 0x2627 DUP3 PUSH2 0x257C JUMP JUMPDEST SWAP1 POP PUSH1 0x20 DUP2 ADD SWAP1 POP SWAP2 SWAP1 POP JUMP JUMPDEST DUP3 DUP2 DUP4 CALLDATACOPY PUSH0 DUP4 DUP4 ADD MSTORE POP POP POP JUMP JUMPDEST PUSH0 PUSH2 0x2654 PUSH2 0x264F DUP5 PUSH2 0x2604 JUMP JUMPDEST PUSH2 0x25EA JUMP JUMPDEST SWAP1 POP DUP3 DUP2 MSTORE PUSH1 0x20 DUP2 ADD DUP5 DUP5 DUP5 ADD GT ISZERO PUSH2 0x2670 JUMPI PUSH2 0x266F PUSH2 0x2578 JUMP JUMPDEST JUMPDEST PUSH2 0x267B DUP5 DUP3 DUP6 PUSH2 0x2634 JUMP JUMPDEST POP SWAP4 SWAP3 POP POP POP JUMP JUMPDEST PUSH0 DUP3 PUSH1 0x1F DUP4 ADD SLT PUSH2 0x2697 JUMPI PUSH2 0x2696 PUSH2 0x2574 JUMP JUMPDEST JUMPDEST DUP2 CALLDATALOAD PUSH2 0x26A7 DUP5 DUP3 PUSH1 0x20 DUP7 ADD PUSH2 0x2642 JUMP JUMPDEST SWAP2 POP POP SWAP3 SWAP2 POP POP JUMP JUMPDEST PUSH0 DUP1 PUSH1 0x40 DUP4 DUP6 SUB SLT ISZERO PUSH2 0x26C6 JUMPI PUSH2 0x26C5 PUSH2 0x236C JUMP JUMPDEST JUMPDEST PUSH0 PUSH2 0x26D3 DUP6 DUP3 DUP7 ADD PUSH2 0x23ED JUMP JUMPDEST SWAP3 POP POP PUSH1 0x20 DUP4 ADD CALLDATALOAD PUSH8 0xFFFFFFFFFFFFFFFF DUP2 GT ISZERO PUSH2 0x26F4 JUMPI PUSH2 0x26F3 PUSH2 0x2370 JUMP JUMPDEST JUMPDEST PUSH2 0x2700 DUP6 DUP3 DUP7 ADD PUSH2 0x2683 JUMP JUMPDEST SWAP2 POP POP SWAP3 POP SWAP3 SWAP1 POP JUMP JUMPDEST PUSH0 DUP2 SWAP1 POP SWAP2 SWAP1 POP JUMP JUMPDEST PUSH2 0x271C DUP2 PUSH2 0x270A JUMP JUMPDEST DUP3 MSTORE POP POP JUMP JUMPDEST PUSH0 PUSH1 0x20 DUP3 ADD SWAP1 POP PUSH2 0x2735 PUSH0 DUP4 ADD DUP5 PUSH2 0x2713 JUMP JUMPDEST SWAP3 SWAP2 POP POP JUMP JUMPDEST PUSH0 PUSH8 0xFFFFFFFFFFFFFFFF DUP3 GT ISZERO PUSH2 0x2755 JUMPI PUSH2 0x2754 PUSH2 0x258C JUMP JUMPDEST JUMPDEST PUSH1 0x20 DUP3 MUL SWAP1 POP PUSH1 0x20 DUP2 ADD SWAP1 POP SWAP2 SWAP1 POP JUMP JUMPDEST PUSH0 DUP1 REVERT JUMPDEST PUSH0 PUSH8 0xFFFFFFFFFFFFFFFF DUP3 GT ISZERO PUSH2 0x2784 JUMPI PUSH2 0x2783 PUSH2 0x258C JUMP JUMPDEST JUMPDEST PUSH2 0x278D DUP3 PUSH2 0x257C JUMP JUMPDEST SWAP1 POP PUSH1 0x20 DUP2 ADD SWAP1 POP SWAP2 SWAP1 POP JUMP JUMPDEST PUSH0 PUSH2 0x27AC PUSH2 0x27A7 DUP5 PUSH2 0x276A JUMP JUMPDEST PUSH2 0x25EA JUMP JUMPDEST SWAP1 POP DUP3 DUP2 MSTORE PUSH1 0x20 DUP2 ADD DUP5 DUP5 DUP5 ADD GT ISZERO PUSH2 0x27C8 JUMPI PUSH2 0x27C7 PUSH2 0x2578 JUMP JUMPDEST JUMPDEST PUSH2 0x27D3 DUP5 DUP3 DUP6 PUSH2 0x2634 JUMP JUMPDEST POP SWAP4 SWAP3 POP POP POP JUMP JUMPDEST PUSH0 DUP3 PUSH1 0x1F DUP4 ADD SLT PUSH2 0x27EF JUMPI PUSH2 0x27EE PUSH2 0x2574 JUMP JUMPDEST JUMPDEST DUP2 CALLDATALOAD PUSH2 0x27FF DUP5 DUP3 PUSH1 0x20 DUP7 ADD PUSH2 0x279A JUMP JUMPDEST SWAP2 POP POP SWAP3 SWAP2 POP POP JUMP JUMPDEST PUSH0 PUSH2 0x281A PUSH2 0x2815 DUP5 PUSH2 0x273B JUMP JUMPDEST PUSH2 0x25EA JUMP JUMPDEST SWAP1 POP DUP1 DUP4 DUP3 MSTORE PUSH1 0x20 DUP3 ADD SWAP1 POP PUSH1 0x20 DUP5 MUL DUP4 ADD DUP6 DUP2 GT ISZERO PUSH2 0x283D JUMPI PUSH2 0x283C PUSH2 0x2766 JUMP JUMPDEST JUMPDEST DUP4 JUMPDEST DUP2 DUP2 LT ISZERO PUSH2 0x2884 JUMPI DUP1 CALLDATALOAD PUSH8 0xFFFFFFFFFFFFFFFF DUP2 GT ISZERO PUSH2 0x2862 JUMPI PUSH2 0x2861 PUSH2 0x2574 JUMP JUMPDEST JUMPDEST DUP1 DUP7 ADD PUSH2 0x286F DUP10 DUP3 PUSH2 0x27DB JUMP JUMPDEST DUP6 MSTORE PUSH1 0x20 DUP6 ADD SWAP5 POP POP POP PUSH1 0x20 DUP2 ADD SWAP1 POP PUSH2 0x283F JUMP JUMPDEST POP POP POP SWAP4 SWAP3 POP POP POP JUMP JUMPDEST PUSH0 DUP3 PUSH1 0x1F DUP4 ADD SLT PUSH2 0x28A2 JUMPI PUSH2 0x28A1 PUSH2 0x2574 JUMP JUMPDEST JUMPDEST DUP2 CALLDATALOAD PUSH2 0x28B2 DUP5 DUP3 PUSH1 0x20 DUP7 ADD PUSH2 0x2808 JUMP JUMPDEST SWAP2 POP POP SWAP3 SWAP2 POP POP JUMP JUMPDEST PUSH0 PUSH1 0x20 DUP3 DUP5 SUB SLT ISZERO PUSH2 0x28D0 JUMPI PUSH2 0x28CF PUSH2 0x236C JUMP JUMPDEST JUMPDEST PUSH0 DUP3 ADD CALLDATALOAD PUSH8 0xFFFFFFFFFFFFFFFF DUP2 GT ISZERO PUSH2 0x28ED JUMPI PUSH2 0x28EC PUSH2 0x2370 JUMP JUMPDEST JUMPDEST PUSH2 0x28F9 DUP5 DUP3 DUP6 ADD PUSH2 0x288E JUMP JUMPDEST SWAP2 POP POP SWAP3 SWAP2 POP POP JUMP JUMPDEST PUSH0 PUSH1 0x20 DUP3 ADD SWAP1 POP PUSH2 0x2915 PUSH0 DUP4 ADD DUP5 PUSH2 0x253E JUMP JUMPDEST SWAP3 SWAP2 POP POP JUMP JUMPDEST PUSH0 DUP1 PUSH1 0x40 DUP4 DUP6 SUB SLT ISZERO PUSH2 0x2931 JUMPI PUSH2 0x2930 PUSH2 0x236C JUMP JUMPDEST JUMPDEST PUSH0 PUSH2 0x293E DUP6 DUP3 DUP7 ADD PUSH2 0x2393 JUMP JUMPDEST SWAP3 POP POP PUSH1 0x20 PUSH2 0x294F DUP6 DUP3 DUP7 ADD PUSH2 0x2393 JUMP JUMPDEST SWAP2 POP POP SWAP3 POP SWAP3 SWAP1 POP JUMP JUMPDEST PUSH0 DUP2 ISZERO ISZERO SWAP1 POP SWAP2 SWAP1 POP JUMP JUMPDEST PUSH2 0x296D DUP2 PUSH2 0x2959 JUMP JUMPDEST DUP2 EQ PUSH2 0x2977 JUMPI PUSH0 DUP1 REVERT JUMPDEST POP JUMP JUMPDEST PUSH0 DUP2 MLOAD SWAP1 POP PUSH2 0x2988 DUP2 PUSH2 0x2964 JUMP JUMPDEST SWAP3 SWAP2 POP POP JUMP JUMPDEST PUSH0 PUSH1 0x20 DUP3 DUP5 SUB SLT ISZERO PUSH2 0x29A3 JUMPI PUSH2 0x29A2 PUSH2 0x236C JUMP JUMPDEST JUMPDEST PUSH0 PUSH2 0x29B0 DUP5 DUP3 DUP6 ADD PUSH2 0x297A JUMP JUMPDEST SWAP2 POP POP SWAP3 SWAP2 POP POP JUMP JUMPDEST PUSH0 DUP3 DUP3 MSTORE PUSH1 0x20 DUP3 ADD SWAP1 POP SWAP3 SWAP2 POP POP JUMP JUMPDEST PUSH32 0x5472616E73666572206661696C65640000000000000000000000000000000000 PUSH0 DUP3 ADD MSTORE POP JUMP JUMPDEST PUSH0 PUSH2 0x29FD PUSH1 0xF DUP4 PUSH2 0x29B9 JUMP JUMPDEST SWAP2 POP PUSH2 0x2A08 DUP3 PUSH2 0x29C9 JUMP JUMPDEST PUSH1 0x20 DUP3 ADD SWAP1 POP SWAP2 SWAP1 POP JUMP JUMPDEST PUSH0 PUSH1 0x20 DUP3 ADD SWAP1 POP DUP2 DUP2 SUB PUSH0 DUP4 ADD MSTORE PUSH2 0x2A2A DUP2 PUSH2 0x29F1 JUMP JUMPDEST SWAP1 POP SWAP2 SWAP1 POP JUMP JUMPDEST PUSH32 0x4E487B7100000000000000000000000000000000000000000000000000000000 PUSH0 MSTORE PUSH1 0x11 PUSH1 0x4 MSTORE PUSH1 0x24 PUSH0 REVERT JUMPDEST PUSH0 PUSH2 0x2A68 DUP3 PUSH2 0x2374 JUMP JUMPDEST SWAP2 POP PUSH2 0x2A73 DUP4 PUSH2 0x2374 JUMP JUMPDEST SWAP3 POP DUP3 DUP3 SUB SWAP1 POP DUP2 DUP2 GT ISZERO PUSH2 0x2A8B JUMPI PUSH2 0x2A8A PUSH2 0x2A31 JUMP JUMPDEST JUMPDEST SWAP3 SWAP2 POP POP JUMP JUMPDEST PUSH0 PUSH1 0x40 DUP3 ADD SWAP1 POP PUSH2 0x2AA4 PUSH0 DUP4 ADD DUP6 PUSH2 0x249B JUMP JUMPDEST PUSH2 0x2AB1 PUSH1 0x20 DUP4 ADD DUP5 PUSH2 0x249B JUMP JUMPDEST SWAP4 SWAP3 POP POP POP JUMP JUMPDEST PUSH32 0x46756E6374696F6E206D7573742062652063616C6C6564207468726F75676820 PUSH0 DUP3 ADD MSTORE PUSH32 0x64656C656761746563616C6C0000000000000000000000000000000000000000 PUSH1 0x20 DUP3 ADD MSTORE POP JUMP JUMPDEST PUSH0 PUSH2 0x2B12 PUSH1 0x2C DUP4 PUSH2 0x29B9 JUMP JUMPDEST SWAP2 POP PUSH2 0x2B1D DUP3 PUSH2 0x2AB8 JUMP JUMPDEST PUSH1 0x40 DUP3 ADD SWAP1 POP SWAP2 SWAP1 POP JUMP JUMPDEST PUSH0 PUSH1 0x20 DUP3 ADD SWAP1 POP DUP2 DUP2 SUB PUSH0 DUP4 ADD MSTORE PUSH2 0x2B3F DUP2 PUSH2 0x2B06 JUMP JUMPDEST SWAP1 POP SWAP2 SWAP1 POP JUMP JUMPDEST PUSH32 0x46756E6374696F6E206D7573742062652063616C6C6564207468726F75676820 PUSH0 DUP3 ADD MSTORE PUSH32 0x6163746976652070726F78790000000000000000000000000000000000000000 PUSH1 0x20 DUP3 ADD MSTORE POP JUMP JUMPDEST PUSH0 PUSH2 0x2BA0 PUSH1 0x2C DUP4 PUSH2 0x29B9 JUMP JUMPDEST SWAP2 POP PUSH2 0x2BAB DUP3 PUSH2 0x2B46 JUMP JUMPDEST PUSH1 0x40 DUP3 ADD SWAP1 POP SWAP2 SWAP1 POP JUMP JUMPDEST PUSH0 PUSH1 0x20 DUP3 ADD SWAP1 POP DUP2 DUP2 SUB PUSH0 DUP4 ADD MSTORE PUSH2 0x2BCD DUP2 PUSH2 0x2B94 JUMP JUMPDEST SWAP1 POP SWAP2 SWAP1 POP JUMP JUMPDEST PUSH32 0x555550535570677261646561626C653A206D757374206E6F742062652063616C PUSH0 DUP3 ADD MSTORE PUSH32 0x6C6564207468726F7567682064656C656761746563616C6C0000000000000000 PUSH1 0x20 DUP3 ADD MSTORE POP JUMP JUMPDEST PUSH0 PUSH2 0x2C2E PUSH1 0x38 DUP4 PUSH2 0x29B9 JUMP JUMPDEST SWAP2 POP PUSH2 0x2C39 DUP3 PUSH2 0x2BD4 JUMP JUMPDEST PUSH1 0x40 DUP3 ADD SWAP1 POP SWAP2 SWAP1 POP JUMP JUMPDEST PUSH0 PUSH1 0x20 DUP3 ADD SWAP1 POP DUP2 DUP2 SUB PUSH0 DUP4 ADD MSTORE PUSH2 0x2C5B DUP2 PUSH2 0x2C22 JUMP JUMPDEST SWAP1 POP SWAP2 SWAP1 POP JUMP JUMPDEST PUSH32 0x506F696E7473206D7573742062652067726561746572207468616E207A65726F PUSH0 DUP3 ADD MSTORE POP JUMP JUMPDEST PUSH0 PUSH2 0x2C96 PUSH1 0x20 DUP4 PUSH2 0x29B9 JUMP JUMPDEST SWAP2 POP PUSH2 0x2CA1 DUP3 PUSH2 0x2C62 JUMP JUMPDEST PUSH1 0x20 DUP3 ADD SWAP1 POP SWAP2 SWAP1 POP JUMP JUMPDEST PUSH0 PUSH1 0x20 DUP3 ADD SWAP1 POP DUP2 DUP2 SUB PUSH0 DUP4 ADD MSTORE PUSH2 0x2CC3 DUP2 PUSH2 0x2C8A JUMP JUMPDEST SWAP1 POP SWAP2 SWAP1 POP JUMP JUMPDEST PUSH0 PUSH2 0x2CD4 DUP3 PUSH2 0x2374 JUMP JUMPDEST SWAP2 POP PUSH2 0x2CDF DUP4 PUSH2 0x2374 JUMP JUMPDEST SWAP3 POP DUP3 DUP3 ADD SWAP1 POP DUP1 DUP3 GT ISZERO PUSH2 0x2CF7 JUMPI PUSH2 0x2CF6 PUSH2 0x2A31 JUMP JUMPDEST JUMPDEST SWAP3 SWAP2 POP POP JUMP JUMPDEST PUSH32 0x4E487B7100000000000000000000000000000000000000000000000000000000 PUSH0 MSTORE PUSH1 0x32 PUSH1 0x4 MSTORE PUSH1 0x24 PUSH0 REVERT JUMPDEST PUSH0 DUP2 MLOAD SWAP1 POP SWAP2 SWAP1 POP JUMP JUMPDEST PUSH32 0x4E487B7100000000000000000000000000000000000000000000000000000000 PUSH0 MSTORE PUSH1 0x22 PUSH1 0x4 MSTORE PUSH1 0x24 PUSH0 REVERT JUMPDEST PUSH0 PUSH1 0x2 DUP3 DIV SWAP1 POP PUSH1 0x1 DUP3 AND DUP1 PUSH2 0x2D78 JUMPI PUSH1 0x7F DUP3 AND SWAP2 POP JUMPDEST PUSH1 0x20 DUP3 LT DUP2 SUB PUSH2 0x2D8B JUMPI PUSH2 0x2D8A PUSH2 0x2D34 JUMP JUMPDEST JUMPDEST POP SWAP2 SWAP1 POP JUMP JUMPDEST PUSH0 DUP2 SWAP1 POP DUP2 PUSH0 MSTORE PUSH1 0x20 PUSH0 KECCAK256 SWAP1 POP SWAP2 SWAP1 POP JUMP JUMPDEST PUSH0 PUSH1 0x20 PUSH1 0x1F DUP4 ADD DIV SWAP1 POP SWAP2 SWAP1 POP JUMP JUMPDEST PUSH0 DUP3 DUP3 SHL SWAP1 POP SWAP3 SWAP2 POP POP JUMP JUMPDEST PUSH0 PUSH1 0x8 DUP4 MUL PUSH2 0x2DED PUSH32 0xFFFFFFFFFFFFFFFFFFFFFFFFFFFFFFFFFFFFFFFFFFFFFFFFFFFFFFFFFFFFFFFF DUP3 PUSH2 0x2DB2 JUMP JUMPDEST PUSH2 0x2DF7 DUP7 DUP4 PUSH2 0x2DB2 JUMP JUMPDEST SWAP6 POP DUP1 NOT DUP5 AND SWAP4 POP DUP1 DUP7 AND DUP5 OR SWAP3 POP POP POP SWAP4 SWAP3 POP POP POP JUMP JUMPDEST PUSH0 DUP2 SWAP1 POP SWAP2 SWAP1 POP JUMP JUMPDEST PUSH0 PUSH2 0x2E32 PUSH2 0x2E2D PUSH2 0x2E28 DUP5 PUSH2 0x2374 JUMP JUMPDEST PUSH2 0x2E0F JUMP JUMPDEST PUSH2 0x2374 JUMP JUMPDEST SWAP1 POP SWAP2 SWAP1 POP JUMP JUMPDEST PUSH0 DUP2 SWAP1 POP SWAP2 SWAP1 POP JUMP JUMPDEST PUSH2 0x2E4B DUP4 PUSH2 0x2E18 JUMP JUMPDEST PUSH2 0x2E5F PUSH2 0x2E57 DUP3 PUSH2 0x2E39 JUMP JUMPDEST DUP5 DUP5 SLOAD PUSH2 0x2DBE JUMP JUMPDEST DUP3 SSTORE POP POP POP POP JUMP JUMPDEST PUSH0 SWAP1 JUMP JUMPDEST PUSH2 0x2E73 PUSH2 0x2E67 JUMP JUMPDEST PUSH2 0x2E7E DUP2 DUP5 DUP5 PUSH2 0x2E42 JUMP JUMPDEST POP POP POP JUMP JUMPDEST JUMPDEST DUP2 DUP2 LT ISZERO PUSH2 0x2EA1 JUMPI PUSH2 0x2E96 PUSH0 DUP3 PUSH2 0x2E6B JUMP JUMPDEST PUSH1 0x1 DUP2 ADD SWAP1 POP PUSH2 0x2E84 JUMP JUMPDEST POP POP JUMP JUMPDEST PUSH1 0x1F DUP3 GT ISZERO PUSH2 0x2EE6 JUMPI PUSH2 0x2EB7 DUP2 PUSH2 0x2D91 JUMP JUMPDEST PUSH2 0x2EC0 DUP5 PUSH2 0x2DA3 JUMP JUMPDEST DUP2 ADD PUSH1 0x20 DUP6 LT ISZERO PUSH2 0x2ECF JUMPI DUP2 SWAP1 POP JUMPDEST PUSH2 0x2EE3 PUSH2 0x2EDB DUP6 PUSH2 0x2DA3 JUMP JUMPDEST DUP4 ADD DUP3 PUSH2 0x2E83 JUMP JUMPDEST POP POP JUMPDEST POP POP POP JUMP JUMPDEST PUSH0 DUP3 DUP3 SHR SWAP1 POP SWAP3 SWAP2 POP POP JUMP JUMPDEST PUSH0 PUSH2 0x2F06 PUSH0 NOT DUP5 PUSH1 0x8 MUL PUSH2 0x2EEB JUMP JUMPDEST NOT DUP1 DUP4 AND SWAP2 POP POP SWAP3 SWAP2 POP POP JUMP JUMPDEST PUSH0 PUSH2 0x2F1E DUP4 DUP4 PUSH2 0x2EF7 JUMP JUMPDEST SWAP2 POP DUP3 PUSH1 0x2 MUL DUP3 OR SWAP1 POP SWAP3 SWAP2 POP POP JUMP JUMPDEST PUSH2 0x2F37 DUP3 PUSH2 0x2D2A JUMP JUMPDEST PUSH8 0xFFFFFFFFFFFFFFFF DUP2 GT ISZERO PUSH2 0x2F50 JUMPI PUSH2 0x2F4F PUSH2 0x258C JUMP JUMPDEST JUMPDEST PUSH2 0x2F5A DUP3 SLOAD PUSH2 0x2D61 JUMP JUMPDEST PUSH2 0x2F65 DUP3 DUP3 DUP6 PUSH2 0x2EA5 JUMP JUMPDEST PUSH0 PUSH1 0x20 SWAP1 POP PUSH1 0x1F DUP4 GT PUSH1 0x1 DUP2 EQ PUSH2 0x2F96 JUMPI PUSH0 DUP5 ISZERO PUSH2 0x2F84 JUMPI DUP3 DUP8 ADD MLOAD SWAP1 POP JUMPDEST PUSH2 0x2F8E DUP6 DUP3 PUSH2 0x2F13 JUMP JUMPDEST DUP7 SSTORE POP PUSH2 0x2FF5 JUMP JUMPDEST PUSH1 0x1F NOT DUP5 AND PUSH2 0x2FA4 DUP7 PUSH2 0x2D91 JUMP JUMPDEST PUSH0 JUMPDEST DUP3 DUP2 LT ISZERO PUSH2 0x2FCB JUMPI DUP5 DUP10 ADD MLOAD DUP3 SSTORE PUSH1 0x1 DUP3 ADD SWAP2 POP PUSH1 0x20 DUP6 ADD SWAP5 POP PUSH1 0x20 DUP2 ADD SWAP1 POP PUSH2 0x2FA6 JUMP JUMPDEST DUP7 DUP4 LT ISZERO PUSH2 0x2FE8 JUMPI DUP5 DUP10 ADD MLOAD PUSH2 0x2FE4 PUSH1 0x1F DUP10 AND DUP3 PUSH2 0x2EF7 JUMP JUMPDEST DUP4 SSTORE POP JUMPDEST PUSH1 0x1 PUSH1 0x2 DUP9 MUL ADD DUP9 SSTORE POP POP POP JUMPDEST POP POP POP POP POP POP JUMP JUMPDEST PUSH0 DUP2 MLOAD SWAP1 POP SWAP2 SWAP1 POP JUMP JUMPDEST PUSH0 DUP3 DUP3 MSTORE PUSH1 0x20 DUP3 ADD SWAP1 POP SWAP3 SWAP2 POP POP JUMP JUMPDEST PUSH0 DUP2 SWAP1 POP PUSH1 0x20 DUP3 ADD SWAP1 POP SWAP2 SWAP1 POP JUMP JUMPDEST PUSH0 DUP3 DUP3 MSTORE PUSH1 0x20 DUP3 ADD SWAP1 POP SWAP3 SWAP2 POP POP JUMP JUMPDEST DUP3 DUP2 DUP4 MCOPY PUSH0 DUP4 DUP4 ADD MSTORE POP POP POP JUMP JUMPDEST PUSH0 PUSH2 0x304E DUP3 PUSH2 0x2D2A JUMP JUMPDEST PUSH2 0x3058 DUP2 DUP6 PUSH2 0x3026 JUMP JUMPDEST SWAP4 POP PUSH2 0x3068 DUP2 DUP6 PUSH1 0x20 DUP7 ADD PUSH2 0x3036 JUMP JUMPDEST PUSH2 0x3071 DUP2 PUSH2 0x257C JUMP JUMPDEST DUP5 ADD SWAP2 POP POP SWAP3 SWAP2 POP POP JUMP JUMPDEST PUSH0 PUSH2 0x3087 DUP4 DUP4 PUSH2 0x3044 JUMP JUMPDEST SWAP1 POP SWAP3 SWAP2 POP POP JUMP JUMPDEST PUSH0 PUSH1 0x20 DUP3 ADD SWAP1 POP SWAP2 SWAP1 POP JUMP JUMPDEST PUSH0 PUSH2 0x30A5 DUP3 PUSH2 0x2FFD JUMP JUMPDEST PUSH2 0x30AF DUP2 DUP6 PUSH2 0x3007 JUMP JUMPDEST SWAP4 POP DUP4 PUSH1 0x20 DUP3 MUL DUP6 ADD PUSH2 0x30C1 DUP6 PUSH2 0x3017 JUMP JUMPDEST DUP1 PUSH0 JUMPDEST DUP6 DUP2 LT ISZERO PUSH2 0x30FC JUMPI DUP5 DUP5 SUB DUP10 MSTORE DUP2 MLOAD PUSH2 0x30DD DUP6 DUP3 PUSH2 0x307C JUMP JUMPDEST SWAP5 POP PUSH2 0x30E8 DUP4 PUSH2 0x308F JUMP JUMPDEST SWAP3 POP PUSH1 0x20 DUP11 ADD SWAP10 POP POP PUSH1 0x1 DUP2 ADD SWAP1 POP PUSH2 0x30C4 JUMP JUMPDEST POP DUP3 SWAP8 POP DUP8 SWAP6 POP POP POP POP POP POP SWAP3 SWAP2 POP POP JUMP JUMPDEST PUSH0 PUSH1 0x20 DUP3 ADD SWAP1 POP DUP2 DUP2 SUB PUSH0 DUP4 ADD MSTORE PUSH2 0x3126 DUP2 DUP5 PUSH2 0x309B JUMP JUMPDEST SWAP1 POP SWAP3 SWAP2 POP POP JUMP JUMPDEST PUSH32 0x496E73756666696369656E7420766F74696E6720726967687473000000000000 PUSH0 DUP3 ADD MSTORE POP JUMP JUMPDEST PUSH0 PUSH2 0x3162 PUSH1 0x1A DUP4 PUSH2 0x29B9 JUMP JUMPDEST SWAP2 POP PUSH2 0x316D DUP3 PUSH2 0x312E JUMP JUMPDEST PUSH1 0x20 DUP3 ADD SWAP1 POP SWAP2 SWAP1 POP JUMP JUMPDEST PUSH0 PUSH1 0x20 DUP3 ADD SWAP1 POP DUP2 DUP2 SUB PUSH0 DUP4 ADD MSTORE PUSH2 0x318F DUP2 PUSH2 0x3156 JUMP JUMPDEST SWAP1 POP SWAP2 SWAP1 POP JUMP JUMPDEST PUSH0 PUSH1 0x60 DUP3 ADD SWAP1 POP PUSH2 0x31A9 PUSH0 DUP4 ADD DUP7 PUSH2 0x253E JUMP JUMPDEST PUSH2 0x31B6 PUSH1 0x20 DUP4 ADD DUP6 PUSH2 0x253E JUMP JUMPDEST PUSH2 0x31C3 PUSH1 0x40 DUP4 ADD DUP5 PUSH2 0x249B JUMP JUMPDEST SWAP5 SWAP4 POP POP POP POP JUMP JUMPDEST PUSH32 0x496E697469616C697A61626C653A20636F6E747261637420697320616C726561 PUSH0 DUP3 ADD MSTORE PUSH32 0x647920696E697469616C697A6564000000000000000000000000000000000000 PUSH1 0x20 DUP3 ADD MSTORE POP JUMP JUMPDEST PUSH0 PUSH2 0x3225 PUSH1 0x2E DUP4 PUSH2 0x29B9 JUMP JUMPDEST SWAP2 POP PUSH2 0x3230 DUP3 PUSH2 0x31CB JUMP JUMPDEST PUSH1 0x40 DUP3 ADD SWAP1 POP SWAP2 SWAP1 POP JUMP JUMPDEST PUSH0 PUSH1 0x20 DUP3 ADD SWAP1 POP DUP2 DUP2 SUB PUSH0 DUP4 ADD MSTORE PUSH2 0x3252 DUP2 PUSH2 0x3219 JUMP JUMPDEST SWAP1 POP SWAP2 SWAP1 POP JUMP JUMPDEST PUSH0 DUP2 SWAP1 POP SWAP2 SWAP1 POP JUMP JUMPDEST PUSH0 PUSH1 0xFF DUP3 AND SWAP1 POP SWAP2 SWAP1 POP JUMP JUMPDEST PUSH0 PUSH2 0x3288 PUSH2 0x3283 PUSH2 0x327E DUP5 PUSH2 0x3259 JUMP JUMPDEST PUSH2 0x2E0F JUMP JUMPDEST PUSH2 0x3262 JUMP JUMPDEST SWAP1 POP SWAP2 SWAP1 POP JUMP JUMPDEST PUSH2 0x3298 DUP2 PUSH2 0x326E JUMP JUMPDEST DUP3 MSTORE POP POP JUMP JUMPDEST PUSH0 PUSH1 0x20 DUP3 ADD SWAP1 POP PUSH2 0x32B1 PUSH0 DUP4 ADD DUP5 PUSH2 0x328F JUMP JUMPDEST SWAP3 SWAP2 POP POP JUMP JUMPDEST PUSH2 0x32C0 DUP2 PUSH2 0x270A JUMP JUMPDEST DUP2 EQ PUSH2 0x32CA JUMPI PUSH0 DUP1 REVERT JUMPDEST POP JUMP JUMPDEST PUSH0 DUP2 MLOAD SWAP1 POP PUSH2 0x32DB DUP2 PUSH2 0x32B7 JUMP JUMPDEST SWAP3 SWAP2 POP POP JUMP JUMPDEST PUSH0 PUSH1 0x20 DUP3 DUP5 SUB SLT ISZERO PUSH2 0x32F6 JUMPI PUSH2 0x32F5 PUSH2 0x236C JUMP JUMPDEST JUMPDEST PUSH0 PUSH2 0x3303 DUP5 DUP3 DUP6 ADD PUSH2 0x32CD JUMP JUMPDEST SWAP2 POP POP SWAP3 SWAP2 POP POP JUMP JUMPDEST PUSH32 0x45524331393637557067726164653A206E657720696D706C656D656E74617469 PUSH0 DUP3 ADD MSTORE PUSH32 0x6F6E206973206E6F742055555053000000000000000000000000000000000000 PUSH1 0x20 DUP3 ADD MSTORE POP JUMP JUMPDEST PUSH0 PUSH2 0x3366 PUSH1 0x2E DUP4 PUSH2 0x29B9 JUMP JUMPDEST SWAP2 POP PUSH2 0x3371 DUP3 PUSH2 0x330C JUMP JUMPDEST PUSH1 0x40 DUP3 ADD SWAP1 POP SWAP2 SWAP1 POP JUMP JUMPDEST PUSH0 PUSH1 0x20 DUP3 ADD SWAP1 POP DUP2 DUP2 SUB PUSH0 DUP4 ADD MSTORE PUSH2 0x3393 DUP2 PUSH2 0x335A JUMP JUMPDEST SWAP1 POP SWAP2 SWAP1 POP JUMP JUMPDEST PUSH32 0x45524331393637557067726164653A20756E737570706F727465642070726F78 PUSH0 DUP3 ADD MSTORE PUSH32 0x6961626C65555549440000000000000000000000000000000000000000000000 PUSH1 0x20 DUP3 ADD MSTORE POP JUMP JUMPDEST PUSH0 PUSH2 0x33F4 PUSH1 0x29 DUP4 PUSH2 0x29B9 JUMP JUMPDEST SWAP2 POP PUSH2 0x33FF DUP3 PUSH2 0x339A JUMP JUMPDEST PUSH1 0x40 DUP3 ADD SWAP1 POP SWAP2 SWAP1 POP JUMP JUMPDEST PUSH0 PUSH1 0x20 DUP3 ADD SWAP1 POP DUP2 DUP2 SUB PUSH0 DUP4 ADD MSTORE PUSH2 0x3421 DUP2 PUSH2 0x33E8 JUMP JUMPDEST SWAP1 POP SWAP2 SWAP1 POP JUMP JUMPDEST PUSH0 PUSH2 0x3432 DUP3 PUSH2 0x2374 JUMP JUMPDEST SWAP2 POP PUSH2 0x343D DUP4 PUSH2 0x2374 JUMP JUMPDEST SWAP3 POP DUP3 DUP3 MUL PUSH2 0x344B DUP2 PUSH2 0x2374 JUMP JUMPDEST SWAP2 POP DUP3 DUP3 DIV DUP5 EQ DUP4 ISZERO OR PUSH2 0x3462 JUMPI PUSH2 0x3461 PUSH2 0x2A31 JUMP JUMPDEST JUMPDEST POP SWAP3 SWAP2 POP POP JUMP JUMPDEST PUSH32 0x4E487B7100000000000000000000000000000000000000000000000000000000 PUSH0 MSTORE PUSH1 0x12 PUSH1 0x4 MSTORE PUSH1 0x24 PUSH0 REVERT JUMPDEST PUSH0 PUSH2 0x34A0 DUP3 PUSH2 0x2374 JUMP JUMPDEST SWAP2 POP PUSH2 0x34AB DUP4 PUSH2 0x2374 JUMP JUMPDEST SWAP3 POP DUP3 PUSH2 0x34BB JUMPI PUSH2 0x34BA PUSH2 0x3469 JUMP JUMPDEST JUMPDEST DUP3 DUP3 DIV SWAP1 POP SWAP3 SWAP2 POP POP JUMP JUMPDEST PUSH32 0x455243313936373A206E657720696D706C656D656E746174696F6E206973206E PUSH0 DUP3 ADD MSTORE PUSH32 0x6F74206120636F6E747261637400000000000000000000000000000000000000 PUSH1 0x20 DUP3 ADD MSTORE POP JUMP JUMPDEST PUSH0 PUSH2 0x3520 PUSH1 0x2D DUP4 PUSH2 0x29B9 JUMP JUMPDEST SWAP2 POP PUSH2 0x352B DUP3 PUSH2 0x34C6 JUMP JUMPDEST PUSH1 0x40 DUP3 ADD SWAP1 POP SWAP2 SWAP1 POP JUMP JUMPDEST PUSH0 PUSH1 0x20 DUP3 ADD SWAP1 POP DUP2 DUP2 SUB PUSH0 DUP4 ADD MSTORE PUSH2 0x354D DUP2 PUSH2 0x3514 JUMP JUMPDEST SWAP1 POP SWAP2 SWAP1 POP JUMP JUMPDEST PUSH0 PUSH1 0x40 DUP3 ADD SWAP1 POP PUSH2 0x3567 PUSH0 DUP4 ADD DUP6 PUSH2 0x249B JUMP JUMPDEST PUSH2 0x3574 PUSH1 0x20 DUP4 ADD DUP5 PUSH2 0x2448 JUMP JUMPDEST SWAP4 SWAP3 POP POP POP JUMP JUMPDEST PUSH0 PUSH2 0x3585 DUP3 PUSH2 0x243F JUMP JUMPDEST SWAP2 POP PUSH2 0x3590 DUP4 PUSH2 0x243F JUMP JUMPDEST SWAP3 POP DUP3 DUP3 MUL PUSH2 0x359E DUP2 PUSH2 0x243F JUMP JUMPDEST SWAP2 POP PUSH32 0x8000000000000000000000000000000000000000000000000000000000000000 DUP5 EQ PUSH0 DUP5 SLT AND ISZERO PUSH2 0x35D5 JUMPI PUSH2 0x35D4 PUSH2 0x2A31 JUMP JUMPDEST JUMPDEST DUP3 DUP3 SDIV DUP5 EQ DUP4 ISZERO OR PUSH2 0x35EA JUMPI PUSH2 0x35E9 PUSH2 0x2A31 JUMP JUMPDEST JUMPDEST POP SWAP3 SWAP2 POP POP JUMP JUMPDEST PUSH0 DUP2 MLOAD SWAP1 POP SWAP2 SWAP1 POP JUMP JUMPDEST PUSH0 DUP2 SWAP1 POP SWAP3 SWAP2 POP POP JUMP JUMPDEST PUSH0 PUSH2 0x360F DUP3 PUSH2 0x35F1 JUMP JUMPDEST PUSH2 0x3619 DUP2 DUP6 PUSH2 0x35FB JUMP JUMPDEST SWAP4 POP PUSH2 0x3629 DUP2 DUP6 PUSH1 0x20 DUP7 ADD PUSH2 0x3036 JUMP JUMPDEST DUP1 DUP5 ADD SWAP2 POP POP SWAP3 SWAP2 POP POP JUMP JUMPDEST PUSH0 PUSH2 0x3640 DUP3 DUP5 PUSH2 0x3605 JUMP JUMPDEST SWAP2 POP DUP2 SWAP1 POP SWAP3 SWAP2 POP POP JUMP JUMPDEST PUSH32 0x416464726573733A2063616C6C20746F206E6F6E2D636F6E7472616374000000 PUSH0 DUP3 ADD MSTORE POP JUMP JUMPDEST PUSH0 PUSH2 0x367F PUSH1 0x1D DUP4 PUSH2 0x29B9 JUMP JUMPDEST SWAP2 POP PUSH2 0x368A DUP3 PUSH2 0x364B JUMP JUMPDEST PUSH1 0x20 DUP3 ADD SWAP1 POP SWAP2 SWAP1 POP JUMP JUMPDEST PUSH0 PUSH1 0x20 DUP3 ADD SWAP1 POP DUP2 DUP2 SUB PUSH0 DUP4 ADD MSTORE PUSH2 0x36AC DUP2 PUSH2 0x3673 JUMP JUMPDEST SWAP1 POP SWAP2 SWAP1 POP JUMP JUMPDEST PUSH0 PUSH2 0x36BD DUP3 PUSH2 0x2D2A JUMP JUMPDEST PUSH2 0x36C7 DUP2 DUP6 PUSH2 0x29B9 JUMP JUMPDEST SWAP4 POP PUSH2 0x36D7 DUP2 DUP6 PUSH1 0x20 DUP7 ADD PUSH2 0x3036 JUMP JUMPDEST PUSH2 0x36E0 DUP2 PUSH2 0x257C JUMP JUMPDEST DUP5 ADD SWAP2 POP POP SWAP3 SWAP2 POP POP JUMP JUMPDEST PUSH0 PUSH1 0x20 DUP3 ADD SWAP1 POP DUP2 DUP2 SUB PUSH0 DUP4 ADD MSTORE PUSH2 0x3703 DUP2 DUP5 PUSH2 0x36B3 JUMP JUMPDEST SWAP1 POP SWAP3 SWAP2 POP POP JUMP INVALID COINBASE PUSH5 0x6472657373 GASPRICE KECCAK256 PUSH13 0x6F772D6C6576656C2064656C65 PUSH8 0x6174652063616C6C KECCAK256 PUSH7 0x61696C6564A264 PUSH10 0x70667358221220033FF3 0x2D PUSH5 0xF03327DF1C EXP 0xBE CALLVALUE 0xCB EXTCODEHASH PUSH19 0xDEA297B858D5E0C01FD0096E8562F3E964736F PUSH13 0x634300081A0033000000000000 "
				},
				"gasEstimates": {
					"creation": {
						"codeDepositCost": "2836800",
						"executionCost": "infinite",
						"totalCost": "infinite"
					},
					"external": {
						"balances(address)": "2848",
						"createProposal(string[])": "infinite",
						"deposit(uint256)": "infinite",
						"exchangePoints(uint256)": "infinite",
						"getAvailableBalance(address)": "infinite",
						"initialize(address)": "132610",
						"logicAddress()": "2597",
						"mlnTokenAddr()": "2574",
						"owner()": "2625",
						"proposalInfos(uint256)": "5000",
						"proposalSettlement(uint256,uint256)": "infinite",
						"proposalVotingSituation(uint256,uint256,uint256)": "infinite",
						"proposalWinningOption(uint256)": "infinite",
						"proxiableUUID()": "infinite",
						"upgradeTo(address)": "infinite",
						"upgradeToAndCall(address,bytes)": "infinite",
						"userProposalResults(uint256,address)": "3058",
						"vote(uint256,uint256,uint256)": "infinite",
						"votingLock(address)": "2913",
						"withdraw(uint256)": "infinite"
					},
					"internal": {
						"_authorizeUpgrade(address)": "infinite",
						"distributeRewardsAndPenalties(uint256,uint256,uint256,uint256,struct Proposal.VoteInfo memory[] memory,uint256)": "infinite",
						"handleMultiOptionProposal(uint256,uint256)": "infinite",
						"handleSingleOptionProposal(uint256,uint256)": "infinite",
						"isSingleOptionProposal(uint256,uint256)": "infinite"
					}
				},
				"methodIdentifiers": {
					"balances(address)": "27e235e3",
					"createProposal(string[])": "8624b42d",
					"deposit(uint256)": "b6b55f25",
					"exchangePoints(uint256)": "7c7b66f7",
					"getAvailableBalance(address)": "6c24a76f",
					"initialize(address)": "c4d66de8",
					"logicAddress()": "9c1fcc4c",
					"mlnTokenAddr()": "c3a0aba8",
					"owner()": "8da5cb5b",
					"proposalInfos(uint256)": "b511328d",
					"proposalSettlement(uint256,uint256)": "f647344b",
					"proposalVotingSituation(uint256,uint256,uint256)": "45071c71",
					"proposalWinningOption(uint256)": "2efdc9f5",
					"proxiableUUID()": "52d1902d",
					"upgradeTo(address)": "3659cfe6",
					"upgradeToAndCall(address,bytes)": "4f1ef286",
					"userProposalResults(uint256,address)": "0c7353e0",
					"vote(uint256,uint256,uint256)": "8a6655d6",
					"votingLock(address)": "b00673bc",
					"withdraw(uint256)": "2e1a7d4d"
				}
			},
			"storageLayout": {
				"storage": [
					{
						"astId": 351,
						"contract": "contracts/Proposal.sol:Proposal",
						"label": "_initialized",
						"offset": 0,
						"slot": "0",
						"type": "t_uint8"
					},
					{
						"astId": 354,
						"contract": "contracts/Proposal.sol:Proposal",
						"label": "_initializing",
						"offset": 1,
						"slot": "0",
						"type": "t_bool"
					},
					{
						"astId": 1238,
						"contract": "contracts/Proposal.sol:Proposal",
						"label": "owner",
						"offset": 2,
						"slot": "0",
						"type": "t_address"
					},
					{
						"astId": 1240,
						"contract": "contracts/Proposal.sol:Proposal",
						"label": "logicAddress",
						"offset": 0,
						"slot": "1",
						"type": "t_address"
					},
					{
						"astId": 1242,
						"contract": "contracts/Proposal.sol:Proposal",
						"label": "mlnTokenAddr",
						"offset": 0,
						"slot": "2",
						"type": "t_address"
					},
					{
						"astId": 1246,
						"contract": "contracts/Proposal.sol:Proposal",
						"label": "proposalInfos",
						"offset": 0,
						"slot": "3",
						"type": "t_array(t_struct(ProposalInfo)1168_storage)dyn_storage"
					},
					{
						"astId": 1250,
						"contract": "contracts/Proposal.sol:Proposal",
						"label": "balances",
						"offset": 0,
						"slot": "4",
						"type": "t_mapping(t_address,t_uint256)"
					},
					{
						"astId": 1254,
						"contract": "contracts/Proposal.sol:Proposal",
						"label": "votingLock",
						"offset": 0,
						"slot": "5",
						"type": "t_mapping(t_address,t_uint256)"
					},
					{
						"astId": 1262,
						"contract": "contracts/Proposal.sol:Proposal",
						"label": "proposalVotingSituation",
						"offset": 0,
						"slot": "6",
						"type": "t_mapping(t_uint256,t_mapping(t_uint256,t_array(t_struct(VoteInfo)1173_storage)dyn_storage))"
					},
					{
						"astId": 1266,
						"contract": "contracts/Proposal.sol:Proposal",
						"label": "proposalWinningOption",
						"offset": 0,
						"slot": "7",
						"type": "t_mapping(t_uint256,t_uint256)"
					},
					{
						"astId": 1272,
						"contract": "contracts/Proposal.sol:Proposal",
						"label": "userProposalResults",
						"offset": 0,
						"slot": "8",
						"type": "t_mapping(t_uint256,t_mapping(t_address,t_int256))"
					}
				],
				"types": {
					"t_address": {
						"encoding": "inplace",
						"label": "address",
						"numberOfBytes": "20"
					},
					"t_array(t_struct(Option)1161_storage)dyn_storage": {
						"base": "t_struct(Option)1161_storage",
						"encoding": "dynamic_array",
						"label": "struct Proposal.Option[]",
						"numberOfBytes": "32"
					},
					"t_array(t_struct(ProposalInfo)1168_storage)dyn_storage": {
						"base": "t_struct(ProposalInfo)1168_storage",
						"encoding": "dynamic_array",
						"label": "struct Proposal.ProposalInfo[]",
						"numberOfBytes": "32"
					},
					"t_array(t_struct(VoteInfo)1173_storage)dyn_storage": {
						"base": "t_struct(VoteInfo)1173_storage",
						"encoding": "dynamic_array",
						"label": "struct Proposal.VoteInfo[]",
						"numberOfBytes": "32"
					},
					"t_bool": {
						"encoding": "inplace",
						"label": "bool",
						"numberOfBytes": "1"
					},
					"t_int256": {
						"encoding": "inplace",
						"label": "int256",
						"numberOfBytes": "32"
					},
					"t_mapping(t_address,t_int256)": {
						"encoding": "mapping",
						"key": "t_address",
						"label": "mapping(address => int256)",
						"numberOfBytes": "32",
						"value": "t_int256"
					},
					"t_mapping(t_address,t_uint256)": {
						"encoding": "mapping",
						"key": "t_address",
						"label": "mapping(address => uint256)",
						"numberOfBytes": "32",
						"value": "t_uint256"
					},
					"t_mapping(t_uint256,t_array(t_struct(VoteInfo)1173_storage)dyn_storage)": {
						"encoding": "mapping",
						"key": "t_uint256",
						"label": "mapping(uint256 => struct Proposal.VoteInfo[])",
						"numberOfBytes": "32",
						"value": "t_array(t_struct(VoteInfo)1173_storage)dyn_storage"
					},
					"t_mapping(t_uint256,t_mapping(t_address,t_int256))": {
						"encoding": "mapping",
						"key": "t_uint256",
						"label": "mapping(uint256 => mapping(address => int256))",
						"numberOfBytes": "32",
						"value": "t_mapping(t_address,t_int256)"
					},
					"t_mapping(t_uint256,t_mapping(t_uint256,t_array(t_struct(VoteInfo)1173_storage)dyn_storage))": {
						"encoding": "mapping",
						"key": "t_uint256",
						"label": "mapping(uint256 => mapping(uint256 => struct Proposal.VoteInfo[]))",
						"numberOfBytes": "32",
						"value": "t_mapping(t_uint256,t_array(t_struct(VoteInfo)1173_storage)dyn_storage)"
					},
					"t_mapping(t_uint256,t_uint256)": {
						"encoding": "mapping",
						"key": "t_uint256",
						"label": "mapping(uint256 => uint256)",
						"numberOfBytes": "32",
						"value": "t_uint256"
					},
					"t_string_storage": {
						"encoding": "bytes",
						"label": "string",
						"numberOfBytes": "32"
					},
					"t_struct(Option)1161_storage": {
						"encoding": "inplace",
						"label": "struct Proposal.Option",
						"members": [
							{
								"astId": 1158,
								"contract": "contracts/Proposal.sol:Proposal",
								"label": "desc",
								"offset": 0,
								"slot": "0",
								"type": "t_string_storage"
							},
							{
								"astId": 1160,
								"contract": "contracts/Proposal.sol:Proposal",
								"label": "count",
								"offset": 0,
								"slot": "1",
								"type": "t_uint256"
							}
						],
						"numberOfBytes": "64"
					},
					"t_struct(ProposalInfo)1168_storage": {
						"encoding": "inplace",
						"label": "struct Proposal.ProposalInfo",
						"members": [
							{
								"astId": 1163,
								"contract": "contracts/Proposal.sol:Proposal",
								"label": "founder",
								"offset": 0,
								"slot": "0",
								"type": "t_address"
							},
							{
								"astId": 1167,
								"contract": "contracts/Proposal.sol:Proposal",
								"label": "options",
								"offset": 0,
								"slot": "1",
								"type": "t_array(t_struct(Option)1161_storage)dyn_storage"
							}
						],
						"numberOfBytes": "64"
					},
					"t_struct(VoteInfo)1173_storage": {
						"encoding": "inplace",
						"label": "struct Proposal.VoteInfo",
						"members": [
							{
								"astId": 1170,
								"contract": "contracts/Proposal.sol:Proposal",
								"label": "user",
								"offset": 0,
								"slot": "0",
								"type": "t_address"
							},
							{
								"astId": 1172,
								"contract": "contracts/Proposal.sol:Proposal",
								"label": "amount",
								"offset": 0,
								"slot": "1",
								"type": "t_uint256"
							}
						],
						"numberOfBytes": "64"
					},
					"t_uint256": {
						"encoding": "inplace",
						"label": "uint256",
						"numberOfBytes": "32"
					},
					"t_uint8": {
						"encoding": "inplace",
						"label": "uint8",
						"numberOfBytes": "1"
					}
				}
			},
			"userdoc": {
				"kind": "user",
				"methods": {},
				"version": 1
			}
		}
	}
}