{
  "_format": "hh-sol-artifact-1",
  "contractName": "MelonToken",
  "sourceName": "contracts/MelonToken.sol",
  "abi": [
    {
      "inputs": [],
      "stateMutability": "nonpayable",
      "type": "constructor"
    },
    {
      "inputs": [],
      "name": "InvalidShortString",
      "type": "error"
    },
    {
      "inputs": [
        {
          "internalType": "string",
          "name": "str",
          "type": "string"
        }
      ],
      "name": "StringTooLong",
      "type": "error"
    },
    {
      "anonymous": false,
      "inputs": [
        {
          "indexed": true,
          "internalType": "address",
          "name": "owner",
          "type": "address"
        },
        {
          "indexed": true,
          "internalType": "address",
          "name": "spender",
          "type": "address"
        },
        {
          "indexed": false,
          "internalType": "uint256",
          "name": "value",
          "type": "uint256"
        }
      ],
      "name": "Approval",
      "type": "event"
    },
    {
      "anonymous": false,
      "inputs": [],
      "name": "EIP712DomainChanged",
      "type": "event"
    },
    {
      "anonymous": false,
      "inputs": [
        {
          "indexed": true,
          "internalType": "address",
          "name": "previousOwner",
          "type": "address"
        },
        {
          "indexed": true,
          "internalType": "address",
          "name": "newOwner",
          "type": "address"
        }
      ],
      "name": "OwnershipTransferred",
      "type": "event"
    },
    {
      "anonymous": false,
      "inputs": [
        {
          "indexed": false,
          "internalType": "address",
          "name": "account",
          "type": "address"
        }
      ],
      "name": "Paused",
      "type": "event"
    },
    {
      "anonymous": false,
      "inputs": [
        {
          "indexed": true,
          "internalType": "address",
          "name": "from",
          "type": "address"
        },
        {
          "indexed": true,
          "internalType": "address",
          "name": "to",
          "type": "address"
        },
        {
          "indexed": false,
          "internalType": "uint256",
          "name": "value",
          "type": "uint256"
        }
      ],
      "name": "Transfer",
      "type": "event"
    },
    {
      "anonymous": false,
      "inputs": [
        {
          "indexed": false,
          "internalType": "address",
          "name": "account",
          "type": "address"
        }
      ],
      "name": "Unpaused",
      "type": "event"
    },
    {
      "inputs": [],
      "name": "DOMAIN_SEPARATOR",
      "outputs": [
        {
          "internalType": "bytes32",
          "name": "",
          "type": "bytes32"
        }
      ],
      "stateMutability": "view",
      "type": "function"
    },
    {
      "inputs": [
        {
          "internalType": "address",
          "name": "owner",
          "type": "address"
        },
        {
          "internalType": "address",
          "name": "spender",
          "type": "address"
        }
      ],
      "name": "allowance",
      "outputs": [
        {
          "internalType": "uint256",
          "name": "",
          "type": "uint256"
        }
      ],
      "stateMutability": "view",
      "type": "function"
    },
    {
      "inputs": [
        {
          "internalType": "address",
          "name": "spender",
          "type": "address"
        },
        {
          "internalType": "uint256",
          "name": "amount",
          "type": "uint256"
        }
      ],
      "name": "approve",
      "outputs": [
        {
          "internalType": "bool",
          "name": "",
          "type": "bool"
        }
      ],
      "stateMutability": "nonpayable",
      "type": "function"
    },
    {
      "inputs": [
        {
          "internalType": "address",
          "name": "account",
          "type": "address"
        }
      ],
      "name": "balanceOf",
      "outputs": [
        {
          "internalType": "uint256",
          "name": "",
          "type": "uint256"
        }
      ],
      "stateMutability": "view",
      "type": "function"
    },
    {
      "inputs": [],
      "name": "decimals",
      "outputs": [
        {
          "internalType": "uint8",
          "name": "",
          "type": "uint8"
        }
      ],
      "stateMutability": "view",
      "type": "function"
    },
    {
      "inputs": [
        {
          "internalType": "address",
          "name": "spender",
          "type": "address"
        },
        {
          "internalType": "uint256",
          "name": "subtractedValue",
          "type": "uint256"
        }
      ],
      "name": "decreaseAllowance",
      "outputs": [
        {
          "internalType": "bool",
          "name": "",
          "type": "bool"
        }
      ],
      "stateMutability": "nonpayable",
      "type": "function"
    },
    {
      "inputs": [],
      "name": "eip712Domain",
      "outputs": [
        {
          "internalType": "bytes1",
          "name": "fields",
          "type": "bytes1"
        },
        {
          "internalType": "string",
          "name": "name",
          "type": "string"
        },
        {
          "internalType": "string",
          "name": "version",
          "type": "string"
        },
        {
          "internalType": "uint256",
          "name": "chainId",
          "type": "uint256"
        },
        {
          "internalType": "address",
          "name": "verifyingContract",
          "type": "address"
        },
        {
          "internalType": "bytes32",
          "name": "salt",
          "type": "bytes32"
        },
        {
          "internalType": "uint256[]",
          "name": "extensions",
          "type": "uint256[]"
        }
      ],
      "stateMutability": "view",
      "type": "function"
    },
    {
      "inputs": [
        {
          "internalType": "address",
          "name": "spender",
          "type": "address"
        },
        {
          "internalType": "uint256",
          "name": "addedValue",
          "type": "uint256"
        }
      ],
      "name": "increaseAllowance",
      "outputs": [
        {
          "internalType": "bool",
          "name": "",
          "type": "bool"
        }
      ],
      "stateMutability": "nonpayable",
      "type": "function"
    },
    {
      "inputs": [
        {
          "internalType": "address",
          "name": "to",
          "type": "address"
        },
        {
          "internalType": "uint256",
          "name": "amount",
          "type": "uint256"
        }
      ],
      "name": "mint",
      "outputs": [],
      "stateMutability": "nonpayable",
      "type": "function"
    },
    {
      "inputs": [],
      "name": "name",
      "outputs": [
        {
          "internalType": "string",
          "name": "",
          "type": "string"
        }
      ],
      "stateMutability": "view",
      "type": "function"
    },
    {
      "inputs": [
        {
          "internalType": "address",
          "name": "owner",
          "type": "address"
        }
      ],
      "name": "nonces",
      "outputs": [
        {
          "internalType": "uint256",
          "name": "",
          "type": "uint256"
        }
      ],
      "stateMutability": "view",
      "type": "function"
    },
    {
      "inputs": [],
      "name": "owner",
      "outputs": [
        {
          "internalType": "address",
          "name": "",
          "type": "address"
        }
      ],
      "stateMutability": "view",
      "type": "function"
    },
    {
      "inputs": [],
      "name": "paused",
      "outputs": [
        {
          "internalType": "bool",
          "name": "",
          "type": "bool"
        }
      ],
      "stateMutability": "view",
      "type": "function"
    },
    {
      "inputs": [
        {
          "internalType": "address",
          "name": "owner",
          "type": "address"
        },
        {
          "internalType": "address",
          "name": "spender",
          "type": "address"
        },
        {
          "internalType": "uint256",
          "name": "value",
          "type": "uint256"
        },
        {
          "internalType": "uint256",
          "name": "deadline",
          "type": "uint256"
        },
        {
          "internalType": "uint8",
          "name": "v",
          "type": "uint8"
        },
        {
          "internalType": "bytes32",
          "name": "r",
          "type": "bytes32"
        },
        {
          "internalType": "bytes32",
          "name": "s",
          "type": "bytes32"
        }
      ],
      "name": "permit",
      "outputs": [],
      "stateMutability": "nonpayable",
      "type": "function"
    },
    {
      "inputs": [],
      "name": "renounceOwnership",
      "outputs": [],
      "stateMutability": "nonpayable",
      "type": "function"
    },
    {
      "inputs": [],
      "name": "symbol",
      "outputs": [
        {
          "internalType": "string",
          "name": "",
          "type": "string"
        }
      ],
      "stateMutability": "view",
      "type": "function"
    },
    {
      "inputs": [],
      "name": "totalSupply",
      "outputs": [
        {
          "internalType": "uint256",
          "name": "",
          "type": "uint256"
        }
      ],
      "stateMutability": "view",
      "type": "function"
    },
    {
      "inputs": [
        {
          "internalType": "address",
          "name": "to",
          "type": "address"
        },
        {
          "internalType": "uint256",
          "name": "amount",
          "type": "uint256"
        }
      ],
      "name": "transfer",
      "outputs": [
        {
          "internalType": "bool",
          "name": "",
          "type": "bool"
        }
      ],
      "stateMutability": "nonpayable",
      "type": "function"
    },
    {
      "inputs": [
        {
          "internalType": "address",
          "name": "from",
          "type": "address"
        },
        {
          "internalType": "address",
          "name": "to",
          "type": "address"
        },
        {
          "internalType": "uint256",
          "name": "amount",
          "type": "uint256"
        }
      ],
      "name": "transferFrom",
      "outputs": [
        {
          "internalType": "bool",
          "name": "",
          "type": "bool"
        }
      ],
      "stateMutability": "nonpayable",
      "type": "function"
    },
    {
      "inputs": [
        {
          "internalType": "address",
          "name": "newOwner",
          "type": "address"
        }
      ],
      "name": "transferOwnership",
      "outputs": [],
      "stateMutability": "nonpayable",
      "type": "function"
    }
  ],
  "bytecode": "0x6101606040523480156200001257600080fd5b506040518060400160405280600381526020017f4d4c4e0000000000000000000000000000000000000000000000000000000000815250806040518060400160405280600181526020017f31000000000000000000000000000000000000000000000000000000000000008152506040518060400160405280600581526020017f4d656c6f6e0000000000000000000000000000000000000000000000000000008152506040518060400160405280600381526020017f4d4c4e00000000000000000000000000000000000000000000000000000000008152508160039081620000fd919062000678565b5080600490816200010f919062000678565b505050620001286005836200020460201b90919060201c565b6101208181525050620001466006826200020460201b90919060201c565b6101408181525050818051906020012060e08181525050808051906020012061010081815250504660a08181525050620001856200025c60201b60201c565b608081815250503073ffffffffffffffffffffffffffffffffffffffff1660c08173ffffffffffffffffffffffffffffffffffffffff1681525050505050620001e3620001d7620002b960201b60201c565b620002c160201b60201c565b6000600960146101000a81548160ff02191690831515021790555062000982565b60006020835110156200022a5762000222836200038760201b60201c565b905062000256565b826200023c83620003f460201b60201c565b60000190816200024d919062000678565b5060ff60001b90505b92915050565b60007f8b73c3c69bb8fe3d512ecc4cf759cc79239f7b179b0ffacaa9a75d522b39400f60e0516101005146306040516020016200029e959493929190620007d0565b60405160208183030381529060405280519060200120905090565b600033905090565b6000600960009054906101000a900473ffffffffffffffffffffffffffffffffffffffff16905081600960006101000a81548173ffffffffffffffffffffffffffffffffffffffff021916908373ffffffffffffffffffffffffffffffffffffffff1602179055508173ffffffffffffffffffffffffffffffffffffffff168173ffffffffffffffffffffffffffffffffffffffff167f8be0079c531659141344cd1fd0a4f28419497f9722a3daafe3b4186f6b6457e060405160405180910390a35050565b600080829050601f81511115620003d757826040517f305a27a9000000000000000000000000000000000000000000000000000000008152600401620003ce9190620008bc565b60405180910390fd5b805181620003e59062000912565b60001c1760001b915050919050565b6000819050919050565b600081519050919050565b7f4e487b7100000000000000000000000000000000000000000000000000000000600052604160045260246000fd5b7f4e487b7100000000000000000000000000000000000000000000000000000000600052602260045260246000fd5b600060028204905060018216806200048057607f821691505b60208210810362000496576200049562000438565b5b50919050565b60008190508160005260206000209050919050565b60006020601f8301049050919050565b600082821b905092915050565b600060088302620005007fffffffffffffffffffffffffffffffffffffffffffffffffffffffffffffffff82620004c1565b6200050c8683620004c1565b95508019841693508086168417925050509392505050565b6000819050919050565b6000819050919050565b600062000559620005536200054d8462000524565b6200052e565b62000524565b9050919050565b6000819050919050565b620005758362000538565b6200058d620005848262000560565b848454620004ce565b825550505050565b600090565b620005a462000595565b620005b18184846200056a565b505050565b5b81811015620005d957620005cd6000826200059a565b600181019050620005b7565b5050565b601f8211156200062857620005f2816200049c565b620005fd84620004b1565b810160208510156200060d578190505b620006256200061c85620004b1565b830182620005b6565b50505b505050565b600082821c905092915050565b60006200064d600019846008026200062d565b1980831691505092915050565b60006200066883836200063a565b9150826002028217905092915050565b6200068382620003fe565b67ffffffffffffffff8111156200069f576200069e62000409565b5b620006ab825462000467565b620006b8828285620005dd565b600060209050601f831160018114620006f05760008415620006db578287015190505b620006e785826200065a565b86555062000757565b601f19841662000700866200049c565b60005b828110156200072a5784890151825560018201915060208501945060208101905062000703565b868310156200074a578489015162000746601f8916826200063a565b8355505b6001600288020188555050505b505050505050565b6000819050919050565b62000774816200075f565b82525050565b620007858162000524565b82525050565b600073ffffffffffffffffffffffffffffffffffffffff82169050919050565b6000620007b8826200078b565b9050919050565b620007ca81620007ab565b82525050565b600060a082019050620007e7600083018862000769565b620007f6602083018762000769565b62000805604083018662000769565b6200081460608301856200077a565b620008236080830184620007bf565b9695505050505050565b600082825260208201905092915050565b60005b838110156200085e57808201518184015260208101905062000841565b60008484015250505050565b6000601f19601f8301169050919050565b60006200088882620003fe565b6200089481856200082d565b9350620008a68185602086016200083e565b620008b1816200086a565b840191505092915050565b60006020820190508181036000830152620008d881846200087b565b905092915050565b600081519050919050565b6000819050602082019050919050565b60006200090982516200075f565b80915050919050565b60006200091f82620008e0565b826200092b84620008eb565b90506200093881620008fb565b925060208210156200097b57620009767fffffffffffffffffffffffffffffffffffffffffffffffffffffffffffffffff83602003600802620004c1565b831692505b5050919050565b60805160a05160c05160e0516101005161012051610140516128cc620009dd60003960006106620152600061062e0152600061149f0152600061147e01526000610f9601526000610fec0152600061101501526128cc6000f3fe608060405234801561001057600080fd5b506004361061012c5760003560e01c8063715018a6116100ad578063a457c2d711610071578063a457c2d71461033d578063a9059cbb1461036d578063d505accf1461039d578063dd62ed3e146103b9578063f2fde38b146103e95761012c565b8063715018a6146102a35780637ecebe00146102ad57806384b0196e146102dd5780638da5cb5b1461030157806395d89b411461031f5761012c565b80633644e515116100f45780633644e515146101eb578063395093511461020957806340c10f19146102395780635c975abb1461025557806370a08231146102735761012c565b806306fdde0314610131578063095ea7b31461014f57806318160ddd1461017f57806323b872dd1461019d578063313ce567146101cd575b600080fd5b610139610405565b604051610146919061193f565b60405180910390f35b610169600480360381019061016491906119fa565b610497565b6040516101769190611a55565b60405180910390f35b6101876104ba565b6040516101949190611a7f565b60405180910390f35b6101b760048036038101906101b29190611a9a565b6104c4565b6040516101c49190611a55565b60405180910390f35b6101d56104f3565b6040516101e29190611b09565b60405180910390f35b6101f36104fc565b6040516102009190611b3d565b60405180910390f35b610223600480360381019061021e91906119fa565b61050b565b6040516102309190611a55565b60405180910390f35b610253600480360381019061024e91906119fa565b610542565b005b61025d610558565b60405161026a9190611a55565b60405180910390f35b61028d60048036038101906102889190611b58565b61056f565b60405161029a9190611a7f565b60405180910390f35b6102ab6105b7565b005b6102c760048036038101906102c29190611b58565b6105cb565b6040516102d49190611a7f565b60405180910390f35b6102e561061b565b6040516102f89796959493929190611c8d565b60405180910390f35b61030961071d565b6040516103169190611d11565b60405180910390f35b610327610747565b604051610334919061193f565b60405180910390f35b610357600480360381019061035291906119fa565b6107d9565b6040516103649190611a55565b60405180910390f35b610387600480360381019061038291906119fa565b610850565b6040516103949190611a55565b60405180910390f35b6103b760048036038101906103b29190611d84565b610873565b005b6103d360048036038101906103ce9190611e26565b6109b5565b6040516103e09190611a7f565b60405180910390f35b61040360048036038101906103fe9190611b58565b610a3c565b005b60606003805461041490611e95565b80601f016020809104026020016040519081016040528092919081815260200182805461044090611e95565b801561048d5780601f106104625761010080835404028352916020019161048d565b820191906000526020600020905b81548152906001019060200180831161047057829003601f168201915b5050505050905090565b6000806104a2610abf565b90506104af818585610ac7565b600191505092915050565b6000600254905090565b6000806104cf610abf565b90506104dc858285610c90565b6104e7858585610d1c565b60019150509392505050565b60006012905090565b6000610506610f92565b905090565b600080610516610abf565b905061053781858561052885896109b5565b6105329190611ef5565b610ac7565b600191505092915050565b61054a611049565b61055482826110c7565b5050565b6000600960149054906101000a900460ff16905090565b60008060008373ffffffffffffffffffffffffffffffffffffffff1673ffffffffffffffffffffffffffffffffffffffff168152602001908152602001600020549050919050565b6105bf611049565b6105c9600061121d565b565b6000610614600760008473ffffffffffffffffffffffffffffffffffffffff1673ffffffffffffffffffffffffffffffffffffffff1681526020019081526020016000206112e3565b9050919050565b60006060806000806000606061065b60057f00000000000000000000000000000000000000000000000000000000000000006112f190919063ffffffff16565b61068f60067f00000000000000000000000000000000000000000000000000000000000000006112f190919063ffffffff16565b46306000801b600067ffffffffffffffff8111156106b0576106af611f29565b5b6040519080825280602002602001820160405280156106de5781602001602082028036833780820191505090505b507f0f00000000000000000000000000000000000000000000000000000000000000959493929190965096509650965096509650965090919293949596565b6000600960009054906101000a900473ffffffffffffffffffffffffffffffffffffffff16905090565b60606004805461075690611e95565b80601f016020809104026020016040519081016040528092919081815260200182805461078290611e95565b80156107cf5780601f106107a4576101008083540402835291602001916107cf565b820191906000526020600020905b8154815290600101906020018083116107b257829003601f168201915b5050505050905090565b6000806107e4610abf565b905060006107f282866109b5565b905083811015610837576040517f08c379a000000000000000000000000000000000000000000000000000000000815260040161082e90611fca565b60405180910390fd5b6108448286868403610ac7565b60019250505092915050565b60008061085b610abf565b9050610868818585610d1c565b600191505092915050565b834211156108b6576040517f08c379a00000000000000000000000000000000000000000000000000000000081526004016108ad90612036565b60405180910390fd5b60007f6e71edae12b1b97f4d1f60370fef10105fa2faae0126114a169c64845d6126c98888886108e58c6113a1565b896040516020016108fb96959493929190612056565b604051602081830303815290604052805190602001209050600061091e826113ff565b9050600061092e82878787611419565b90508973ffffffffffffffffffffffffffffffffffffffff168173ffffffffffffffffffffffffffffffffffffffff161461099e576040517f08c379a000000000000000000000000000000000000000000000000000000000815260040161099590612103565b60405180910390fd5b6109a98a8a8a610ac7565b50505050505050505050565b6000600160008473ffffffffffffffffffffffffffffffffffffffff1673ffffffffffffffffffffffffffffffffffffffff16815260200190815260200160002060008373ffffffffffffffffffffffffffffffffffffffff1673ffffffffffffffffffffffffffffffffffffffff16815260200190815260200160002054905092915050565b610a44611049565b600073ffffffffffffffffffffffffffffffffffffffff168173ffffffffffffffffffffffffffffffffffffffff1603610ab3576040517f08c379a0000000000000000000000000000000000000000000000000000000008152600401610aaa90612195565b60405180910390fd5b610abc8161121d565b50565b600033905090565b600073ffffffffffffffffffffffffffffffffffffffff168373ffffffffffffffffffffffffffffffffffffffff1603610b36576040517f08c379a0000000000000000000000000000000000000000000000000000000008152600401610b2d90612227565b60405180910390fd5b600073ffffffffffffffffffffffffffffffffffffffff168273ffffffffffffffffffffffffffffffffffffffff1603610ba5576040517f08c379a0000000000000000000000000000000000000000000000000000000008152600401610b9c906122b9565b60405180910390fd5b80600160008573ffffffffffffffffffffffffffffffffffffffff1673ffffffffffffffffffffffffffffffffffffffff16815260200190815260200160002060008473ffffffffffffffffffffffffffffffffffffffff1673ffffffffffffffffffffffffffffffffffffffff168152602001908152602001600020819055508173ffffffffffffffffffffffffffffffffffffffff168373ffffffffffffffffffffffffffffffffffffffff167f8c5be1e5ebec7d5bd14f71427d1e84f3dd0314c0f7b2291e5b200ac8c7c3b92583604051610c839190611a7f565b60405180910390a3505050565b6000610c9c84846109b5565b90507fffffffffffffffffffffffffffffffffffffffffffffffffffffffffffffffff8114610d165781811015610d08576040517f08c379a0000000000000000000000000000000000000000000000000000000008152600401610cff90612325565b60405180910390fd5b610d158484848403610ac7565b5b50505050565b600073ffffffffffffffffffffffffffffffffffffffff168373ffffffffffffffffffffffffffffffffffffffff1603610d8b576040517f08c379a0000000000000000000000000000000000000000000000000000000008152600401610d82906123b7565b60405180910390fd5b600073ffffffffffffffffffffffffffffffffffffffff168273ffffffffffffffffffffffffffffffffffffffff1603610dfa576040517f08c379a0000000000000000000000000000000000000000000000000000000008152600401610df190612449565b60405180910390fd5b610e05838383611444565b60008060008573ffffffffffffffffffffffffffffffffffffffff1673ffffffffffffffffffffffffffffffffffffffff16815260200190815260200160002054905081811015610e8b576040517f08c379a0000000000000000000000000000000000000000000000000000000008152600401610e82906124db565b60405180910390fd5b8181036000808673ffffffffffffffffffffffffffffffffffffffff1673ffffffffffffffffffffffffffffffffffffffff16815260200190815260200160002081905550816000808573ffffffffffffffffffffffffffffffffffffffff1673ffffffffffffffffffffffffffffffffffffffff168152602001908152602001600020600082825401925050819055508273ffffffffffffffffffffffffffffffffffffffff168473ffffffffffffffffffffffffffffffffffffffff167fddf252ad1be2c89b69c2b068fc378daa952ba7f163c4a11628f55a4df523b3ef84604051610f799190611a7f565b60405180910390a3610f8c848484611454565b50505050565b60007f000000000000000000000000000000000000000000000000000000000000000073ffffffffffffffffffffffffffffffffffffffff163073ffffffffffffffffffffffffffffffffffffffff1614801561100e57507f000000000000000000000000000000000000000000000000000000000000000046145b1561103b577f00000000000000000000000000000000000000000000000000000000000000009050611046565b611043611459565b90505b90565b611051610abf565b73ffffffffffffffffffffffffffffffffffffffff1661106f61071d565b73ffffffffffffffffffffffffffffffffffffffff16146110c5576040517f08c379a00000000000000000000000000000000000000000000000000000000081526004016110bc90612547565b60405180910390fd5b565b600073ffffffffffffffffffffffffffffffffffffffff168273ffffffffffffffffffffffffffffffffffffffff1603611136576040517f08c379a000000000000000000000000000000000000000000000000000000000815260040161112d906125b3565b60405180910390fd5b61114260008383611444565b80600260008282546111549190611ef5565b92505081905550806000808473ffffffffffffffffffffffffffffffffffffffff1673ffffffffffffffffffffffffffffffffffffffff168152602001908152602001600020600082825401925050819055508173ffffffffffffffffffffffffffffffffffffffff16600073ffffffffffffffffffffffffffffffffffffffff167fddf252ad1be2c89b69c2b068fc378daa952ba7f163c4a11628f55a4df523b3ef836040516112059190611a7f565b60405180910390a361121960008383611454565b5050565b6000600960009054906101000a900473ffffffffffffffffffffffffffffffffffffffff16905081600960006101000a81548173ffffffffffffffffffffffffffffffffffffffff021916908373ffffffffffffffffffffffffffffffffffffffff1602179055508173ffffffffffffffffffffffffffffffffffffffff168173ffffffffffffffffffffffffffffffffffffffff167f8be0079c531659141344cd1fd0a4f28419497f9722a3daafe3b4186f6b6457e060405160405180910390a35050565b600081600001549050919050565b606060ff60001b831461130e57611307836114ef565b905061139b565b81805461131a90611e95565b80601f016020809104026020016040519081016040528092919081815260200182805461134690611e95565b80156113935780601f1061136857610100808354040283529160200191611393565b820191906000526020600020905b81548152906001019060200180831161137657829003601f168201915b505050505090505b92915050565b600080600760008473ffffffffffffffffffffffffffffffffffffffff1673ffffffffffffffffffffffffffffffffffffffff16815260200190815260200160002090506113ee816112e3565b91506113f981611563565b50919050565b600061141261140c610f92565b83611579565b9050919050565b600080600061142a878787876115ba565b915091506114378161169c565b8192505050949350505050565b61144f838383611802565b505050565b505050565b60007f8b73c3c69bb8fe3d512ecc4cf759cc79239f7b179b0ffacaa9a75d522b39400f7f00000000000000000000000000000000000000000000000000000000000000007f000000000000000000000000000000000000000000000000000000000000000046306040516020016114d49594939291906125d3565b60405160208183030381529060405280519060200120905090565b606060006114fc8361185a565b90506000602067ffffffffffffffff81111561151b5761151a611f29565b5b6040519080825280601f01601f19166020018201604052801561154d5781602001600182028036833780820191505090505b5090508181528360208201528092505050919050565b6001816000016000828254019250508190555050565b60006040517f190100000000000000000000000000000000000000000000000000000000000081528360028201528260228201526042812091505092915050565b6000807f7fffffffffffffffffffffffffffffff5d576e7357a4501ddfe92f46681b20a08360001c11156115f5576000600391509150611693565b60006001878787876040516000815260200160405260405161161a9493929190612626565b6020604051602081039080840390855afa15801561163c573d6000803e3d6000fd5b505050602060405103519050600073ffffffffffffffffffffffffffffffffffffffff168173ffffffffffffffffffffffffffffffffffffffff160361168a57600060019250925050611693565b80600092509250505b94509492505050565b600060048111156116b0576116af61266b565b5b8160048111156116c3576116c261266b565b5b03156117ff57600160048111156116dd576116dc61266b565b5b8160048111156116f0576116ef61266b565b5b03611730576040517f08c379a0000000000000000000000000000000000000000000000000000000008152600401611727906126e6565b60405180910390fd5b600260048111156117445761174361266b565b5b8160048111156117575761175661266b565b5b03611797576040517f08c379a000000000000000000000000000000000000000000000000000000000815260040161178e90612752565b60405180910390fd5b600360048111156117ab576117aa61266b565b5b8160048111156117be576117bd61266b565b5b036117fe576040517f08c379a00000000000000000000000000000000000000000000000000000000081526004016117f5906127e4565b60405180910390fd5b5b50565b61180d8383836118aa565b611815610558565b15611855576040517f08c379a000000000000000000000000000000000000000000000000000000000815260040161184c90612876565b60405180910390fd5b505050565b60008060ff8360001c169050601f8111156118a1576040517fb3512b0c00000000000000000000000000000000000000000000000000000000815260040160405180910390fd5b80915050919050565b505050565b600081519050919050565b600082825260208201905092915050565b60005b838110156118e95780820151818401526020810190506118ce565b60008484015250505050565b6000601f19601f8301169050919050565b6000611911826118af565b61191b81856118ba565b935061192b8185602086016118cb565b611934816118f5565b840191505092915050565b600060208201905081810360008301526119598184611906565b905092915050565b600080fd5b600073ffffffffffffffffffffffffffffffffffffffff82169050919050565b600061199182611966565b9050919050565b6119a181611986565b81146119ac57600080fd5b50565b6000813590506119be81611998565b92915050565b6000819050919050565b6119d7816119c4565b81146119e257600080fd5b50565b6000813590506119f4816119ce565b92915050565b60008060408385031215611a1157611a10611961565b5b6000611a1f858286016119af565b9250506020611a30858286016119e5565b9150509250929050565b60008115159050919050565b611a4f81611a3a565b82525050565b6000602082019050611a6a6000830184611a46565b92915050565b611a79816119c4565b82525050565b6000602082019050611a946000830184611a70565b92915050565b600080600060608486031215611ab357611ab2611961565b5b6000611ac1868287016119af565b9350506020611ad2868287016119af565b9250506040611ae3868287016119e5565b9150509250925092565b600060ff82169050919050565b611b0381611aed565b82525050565b6000602082019050611b1e6000830184611afa565b92915050565b6000819050919050565b611b3781611b24565b82525050565b6000602082019050611b526000830184611b2e565b92915050565b600060208284031215611b6e57611b6d611961565b5b6000611b7c848285016119af565b91505092915050565b60007fff0000000000000000000000000000000000000000000000000000000000000082169050919050565b611bba81611b85565b82525050565b611bc981611986565b82525050565b600081519050919050565b600082825260208201905092915050565b6000819050602082019050919050565b611c04816119c4565b82525050565b6000611c168383611bfb565b60208301905092915050565b6000602082019050919050565b6000611c3a82611bcf565b611c448185611bda565b9350611c4f83611beb565b8060005b83811015611c80578151611c678882611c0a565b9750611c7283611c22565b925050600181019050611c53565b5085935050505092915050565b600060e082019050611ca2600083018a611bb1565b8181036020830152611cb48189611906565b90508181036040830152611cc88188611906565b9050611cd76060830187611a70565b611ce46080830186611bc0565b611cf160a0830185611b2e565b81810360c0830152611d038184611c2f565b905098975050505050505050565b6000602082019050611d266000830184611bc0565b92915050565b611d3581611aed565b8114611d4057600080fd5b50565b600081359050611d5281611d2c565b92915050565b611d6181611b24565b8114611d6c57600080fd5b50565b600081359050611d7e81611d58565b92915050565b600080600080600080600060e0888a031215611da357611da2611961565b5b6000611db18a828b016119af565b9750506020611dc28a828b016119af565b9650506040611dd38a828b016119e5565b9550506060611de48a828b016119e5565b9450506080611df58a828b01611d43565b93505060a0611e068a828b01611d6f565b92505060c0611e178a828b01611d6f565b91505092959891949750929550565b60008060408385031215611e3d57611e3c611961565b5b6000611e4b858286016119af565b9250506020611e5c858286016119af565b9150509250929050565b7f4e487b7100000000000000000000000000000000000000000000000000000000600052602260045260246000fd5b60006002820490506001821680611ead57607f821691505b602082108103611ec057611ebf611e66565b5b50919050565b7f4e487b7100000000000000000000000000000000000000000000000000000000600052601160045260246000fd5b6000611f00826119c4565b9150611f0b836119c4565b9250828201905080821115611f2357611f22611ec6565b5b92915050565b7f4e487b7100000000000000000000000000000000000000000000000000000000600052604160045260246000fd5b7f45524332303a2064656372656173656420616c6c6f77616e63652062656c6f7760008201527f207a65726f000000000000000000000000000000000000000000000000000000602082015250565b6000611fb46025836118ba565b9150611fbf82611f58565b604082019050919050565b60006020820190508181036000830152611fe381611fa7565b9050919050565b7f45524332305065726d69743a206578706972656420646561646c696e65000000600082015250565b6000612020601d836118ba565b915061202b82611fea565b602082019050919050565b6000602082019050818103600083015261204f81612013565b9050919050565b600060c08201905061206b6000830189611b2e565b6120786020830188611bc0565b6120856040830187611bc0565b6120926060830186611a70565b61209f6080830185611a70565b6120ac60a0830184611a70565b979650505050505050565b7f45524332305065726d69743a20696e76616c6964207369676e61747572650000600082015250565b60006120ed601e836118ba565b91506120f8826120b7565b602082019050919050565b6000602082019050818103600083015261211c816120e0565b9050919050565b7f4f776e61626c653a206e6577206f776e657220697320746865207a65726f206160008201527f6464726573730000000000000000000000000000000000000000000000000000602082015250565b600061217f6026836118ba565b915061218a82612123565b604082019050919050565b600060208201905081810360008301526121ae81612172565b9050919050565b7f45524332303a20617070726f76652066726f6d20746865207a65726f2061646460008201527f7265737300000000000000000000000000000000000000000000000000000000602082015250565b60006122116024836118ba565b915061221c826121b5565b604082019050919050565b6000602082019050818103600083015261224081612204565b9050919050565b7f45524332303a20617070726f766520746f20746865207a65726f20616464726560008201527f7373000000000000000000000000000000000000000000000000000000000000602082015250565b60006122a36022836118ba565b91506122ae82612247565b604082019050919050565b600060208201905081810360008301526122d281612296565b9050919050565b7f45524332303a20696e73756666696369656e7420616c6c6f77616e6365000000600082015250565b600061230f601d836118ba565b915061231a826122d9565b602082019050919050565b6000602082019050818103600083015261233e81612302565b9050919050565b7f45524332303a207472616e736665722066726f6d20746865207a65726f20616460008201527f6472657373000000000000000000000000000000000000000000000000000000602082015250565b60006123a16025836118ba565b91506123ac82612345565b604082019050919050565b600060208201905081810360008301526123d081612394565b9050919050565b7f45524332303a207472616e7366657220746f20746865207a65726f206164647260008201527f6573730000000000000000000000000000000000000000000000000000000000602082015250565b60006124336023836118ba565b915061243e826123d7565b604082019050919050565b6000602082019050818103600083015261246281612426565b9050919050565b7f45524332303a207472616e7366657220616d6f756e742065786365656473206260008201527f616c616e63650000000000000000000000000000000000000000000000000000602082015250565b60006124c56026836118ba565b91506124d082612469565b604082019050919050565b600060208201905081810360008301526124f4816124b8565b9050919050565b7f4f776e61626c653a2063616c6c6572206973206e6f7420746865206f776e6572600082015250565b60006125316020836118ba565b915061253c826124fb565b602082019050919050565b6000602082019050818103600083015261256081612524565b9050919050565b7f45524332303a206d696e7420746f20746865207a65726f206164647265737300600082015250565b600061259d601f836118ba565b91506125a882612567565b602082019050919050565b600060208201905081810360008301526125cc81612590565b9050919050565b600060a0820190506125e86000830188611b2e565b6125f56020830187611b2e565b6126026040830186611b2e565b61260f6060830185611a70565b61261c6080830184611bc0565b9695505050505050565b600060808201905061263b6000830187611b2e565b6126486020830186611afa565b6126556040830185611b2e565b6126626060830184611b2e565b95945050505050565b7f4e487b7100000000000000000000000000000000000000000000000000000000600052602160045260246000fd5b7f45434453413a20696e76616c6964207369676e61747572650000000000000000600082015250565b60006126d06018836118ba565b91506126db8261269a565b602082019050919050565b600060208201905081810360008301526126ff816126c3565b9050919050565b7f45434453413a20696e76616c6964207369676e6174757265206c656e67746800600082015250565b600061273c601f836118ba565b915061274782612706565b602082019050919050565b6000602082019050818103600083015261276b8161272f565b9050919050565b7f45434453413a20696e76616c6964207369676e6174757265202773272076616c60008201527f7565000000000000000000000000000000000000000000000000000000000000602082015250565b60006127ce6022836118ba565b91506127d982612772565b604082019050919050565b600060208201905081810360008301526127fd816127c1565b9050919050565b7f45524332305061757361626c653a20746f6b656e207472616e7366657220776860008201527f696c652070617573656400000000000000000000000000000000000000000000602082015250565b6000612860602a836118ba565b915061286b82612804565b604082019050919050565b6000602082019050818103600083015261288f81612853565b905091905056fea2646970667358221220fbfdd0ccc4dcd7e8c1365132073f515cf9f0e374230e48499a7fd80de4862c8f64736f6c63430008180033",
  "linkReferences": {},
  "deployedLinkReferences": {}
}