{
  "_format": "hh-sol-artifact-1",
  "contractName": "Proposal",
  "sourceName": "contracts/Proposal.sol",
  "abi": [
    {
      "inputs": [
        {
          "internalType": "address",
          "name": "user",
          "type": "address"
        },
        {
          "internalType": "uint256",
          "name": "availableBalance",
          "type": "uint256"
        }
      ],
      "name": "InsufficientBalance",
      "type": "error"
    },
    {
      "inputs": [
        {
          "internalType": "address",
          "name": "account",
          "type": "address"
        }
      ],
      "name": "OwnableUnauthorizedAccount",
      "type": "error"
    },
    {
      "anonymous": false,
      "inputs": [
        {
          "indexed": false,
          "internalType": "address",
          "name": "previousAdmin",
          "type": "address"
        },
        {
          "indexed": false,
          "internalType": "address",
          "name": "newAdmin",
          "type": "address"
        }
      ],
      "name": "AdminChanged",
      "type": "event"
    },
    {
      "anonymous": false,
      "inputs": [
        {
          "indexed": true,
          "internalType": "address",
          "name": "beacon",
          "type": "address"
        }
      ],
      "name": "BeaconUpgraded",
      "type": "event"
    },
    {
      "anonymous": false,
      "inputs": [
        {
          "indexed": true,
          "internalType": "address",
          "name": "founder",
          "type": "address"
        },
        {
          "indexed": true,
          "internalType": "uint256",
          "name": "id",
          "type": "uint256"
        },
        {
          "indexed": false,
          "internalType": "string[]",
          "name": "options",
          "type": "string[]"
        }
      ],
      "name": "Create",
      "type": "event"
    },
    {
      "anonymous": false,
      "inputs": [
        {
          "indexed": true,
          "internalType": "address",
          "name": "user",
          "type": "address"
        },
        {
          "indexed": false,
          "internalType": "uint256",
          "name": "amount",
          "type": "uint256"
        }
      ],
      "name": "Deposited",
      "type": "event"
    },
    {
      "anonymous": false,
      "inputs": [
        {
          "indexed": true,
          "internalType": "address",
          "name": "user",
          "type": "address"
        },
        {
          "indexed": false,
          "internalType": "uint256",
          "name": "points",
          "type": "uint256"
        }
      ],
      "name": "ExchangePoints",
      "type": "event"
    },
    {
      "anonymous": false,
      "inputs": [
        {
          "indexed": false,
          "internalType": "uint8",
          "name": "version",
          "type": "uint8"
        }
      ],
      "name": "Initialized",
      "type": "event"
    },
    {
      "anonymous": false,
      "inputs": [
        {
          "indexed": true,
          "internalType": "uint256",
          "name": "proposalId",
          "type": "uint256"
        },
        {
          "indexed": false,
          "internalType": "address[]",
          "name": "jurors",
          "type": "address[]"
        },
        {
          "indexed": false,
          "internalType": "uint256",
          "name": "reward",
          "type": "uint256"
        },
        {
          "indexed": false,
          "internalType": "uint256",
          "name": "rewardPerJuror",
          "type": "uint256"
        }
      ],
      "name": "JurorsDistributeRewards",
      "type": "event"
    },
    {
      "anonymous": false,
      "inputs": [
        {
          "indexed": true,
          "internalType": "uint256",
          "name": "proposalId",
          "type": "uint256"
        },
        {
          "indexed": false,
          "internalType": "uint256",
          "name": "winOptionId",
          "type": "uint256"
        }
      ],
      "name": "Refunded",
      "type": "event"
    },
    {
      "anonymous": false,
      "inputs": [
        {
          "indexed": false,
          "internalType": "uint256",
          "name": "proposalId",
          "type": "uint256"
        },
        {
          "indexed": false,
          "internalType": "uint256",
          "name": "winningOptionId",
          "type": "uint256"
        },
        {
          "indexed": false,
          "internalType": "address[]",
          "name": "jurors",
          "type": "address[]"
        }
      ],
      "name": "Settle",
      "type": "event"
    },
    {
      "anonymous": false,
      "inputs": [
        {
          "indexed": true,
          "internalType": "address",
          "name": "implementation",
          "type": "address"
        }
      ],
      "name": "Upgraded",
      "type": "event"
    },
    {
      "anonymous": false,
      "inputs": [
        {
          "indexed": true,
          "internalType": "address",
          "name": "_address",
          "type": "address"
        },
        {
          "indexed": true,
          "internalType": "uint256",
          "name": "_proposalId",
          "type": "uint256"
        },
        {
          "indexed": true,
          "internalType": "uint256",
          "name": "_optionId",
          "type": "uint256"
        },
        {
          "indexed": false,
          "internalType": "uint256",
          "name": "_amount",
          "type": "uint256"
        }
      ],
      "name": "Voted",
      "type": "event"
    },
    {
      "anonymous": false,
      "inputs": [
        {
          "indexed": true,
          "internalType": "address",
          "name": "user",
          "type": "address"
        },
        {
          "indexed": false,
          "internalType": "uint256",
          "name": "amount",
          "type": "uint256"
        },
        {
          "indexed": false,
          "internalType": "uint256",
          "name": "balance",
          "type": "uint256"
        }
      ],
      "name": "Withdraw",
      "type": "event"
    },
    {
      "inputs": [
        {
          "internalType": "address",
          "name": "",
          "type": "address"
        }
      ],
      "name": "balances",
      "outputs": [
        {
          "internalType": "uint256",
          "name": "",
          "type": "uint256"
        }
      ],
      "stateMutability": "view",
      "type": "function"
    },
    {
      "inputs": [
        {
          "internalType": "string[]",
          "name": "optionDescs",
          "type": "string[]"
        }
      ],
      "name": "create",
      "outputs": [],
      "stateMutability": "nonpayable",
      "type": "function"
    },
    {
      "inputs": [
        {
          "internalType": "uint256",
          "name": "amount",
          "type": "uint256"
        }
      ],
      "name": "deposit",
      "outputs": [
        {
          "internalType": "uint256",
          "name": "",
          "type": "uint256"
        }
      ],
      "stateMutability": "nonpayable",
      "type": "function"
    },
    {
      "inputs": [
        {
          "internalType": "uint256",
          "name": "points",
          "type": "uint256"
        }
      ],
      "name": "exchangePoints",
      "outputs": [],
      "stateMutability": "nonpayable",
      "type": "function"
    },
    {
      "inputs": [
        {
          "internalType": "address",
          "name": "user",
          "type": "address"
        }
      ],
      "name": "getAvailableBalance",
      "outputs": [
        {
          "internalType": "uint256",
          "name": "",
          "type": "uint256"
        }
      ],
      "stateMutability": "view",
      "type": "function"
    },
    {
      "inputs": [
        {
          "internalType": "uint256",
          "name": "proposalId",
          "type": "uint256"
        }
      ],
      "name": "getDetails",
      "outputs": [
        {
          "internalType": "address",
          "name": "founder",
          "type": "address"
        },
        {
          "internalType": "string[]",
          "name": "optionDescription",
          "type": "string[]"
        },
        {
          "internalType": "uint256[]",
          "name": "counts",
          "type": "uint256[]"
        },
        {
          "internalType": "uint256[]",
          "name": "voters",
          "type": "uint256[]"
        },
        {
          "internalType": "uint256",
          "name": "allVotesCast",
          "type": "uint256"
        },
        {
          "internalType": "uint256",
          "name": "allVoters",
          "type": "uint256"
        }
      ],
      "stateMutability": "view",
      "type": "function"
    },
    {
      "inputs": [
        {
          "internalType": "uint256",
          "name": "proposalId",
          "type": "uint256"
        },
        {
          "internalType": "uint256",
          "name": "optionId",
          "type": "uint256"
        }
      ],
      "name": "getVoting",
      "outputs": [
        {
          "components": [
            {
              "internalType": "address",
              "name": "user",
              "type": "address"
            },
            {
              "internalType": "uint256",
              "name": "amount",
              "type": "uint256"
            }
          ],
          "internalType": "struct Proposal.VoteInfo[]",
          "name": "",
          "type": "tuple[]"
        }
      ],
      "stateMutability": "view",
      "type": "function"
    },
    {
      "inputs": [
        {
          "internalType": "address",
          "name": "tokenAddr",
          "type": "address"
        }
      ],
      "name": "initialize",
      "outputs": [],
      "stateMutability": "nonpayable",
      "type": "function"
    },
    {
      "inputs": [],
      "name": "logicAddress",
      "outputs": [
        {
          "internalType": "address",
          "name": "",
          "type": "address"
        }
      ],
      "stateMutability": "view",
      "type": "function"
    },
    {
      "inputs": [],
      "name": "mlnTokenAddr",
      "outputs": [
        {
          "internalType": "address",
          "name": "",
          "type": "address"
        }
      ],
      "stateMutability": "view",
      "type": "function"
    },
    {
      "inputs": [],
      "name": "owner",
      "outputs": [
        {
          "internalType": "address",
          "name": "",
          "type": "address"
        }
      ],
      "stateMutability": "view",
      "type": "function"
    },
    {
      "inputs": [
        {
          "internalType": "uint256",
          "name": "",
          "type": "uint256"
        }
      ],
      "name": "proposalInfos",
      "outputs": [
        {
          "internalType": "address",
          "name": "founder",
          "type": "address"
        }
      ],
      "stateMutability": "view",
      "type": "function"
    },
    {
      "inputs": [],
      "name": "proxiableUUID",
      "outputs": [
        {
          "internalType": "bytes32",
          "name": "",
          "type": "bytes32"
        }
      ],
      "stateMutability": "view",
      "type": "function"
    },
    {
      "inputs": [
        {
          "internalType": "uint256",
          "name": "proposalId",
          "type": "uint256"
        },
        {
          "internalType": "uint256",
          "name": "winOptionId",
          "type": "uint256"
        },
        {
          "internalType": "address[]",
          "name": "jurors",
          "type": "address[]"
        }
      ],
      "name": "settle",
      "outputs": [],
      "stateMutability": "nonpayable",
      "type": "function"
    },
    {
      "inputs": [
        {
          "internalType": "address",
          "name": "newImplementation",
          "type": "address"
        }
      ],
      "name": "upgradeTo",
      "outputs": [],
      "stateMutability": "nonpayable",
      "type": "function"
    },
    {
      "inputs": [
        {
          "internalType": "address",
          "name": "newImplementation",
          "type": "address"
        },
        {
          "internalType": "bytes",
          "name": "data",
          "type": "bytes"
        }
      ],
      "name": "upgradeToAndCall",
      "outputs": [],
      "stateMutability": "payable",
      "type": "function"
    },
    {
      "inputs": [
        {
          "internalType": "uint256",
          "name": "",
          "type": "uint256"
        },
        {
          "internalType": "address",
          "name": "",
          "type": "address"
        }
      ],
      "name": "userProposalResults",
      "outputs": [
        {
          "internalType": "int256",
          "name": "",
          "type": "int256"
        }
      ],
      "stateMutability": "view",
      "type": "function"
    },
    {
      "inputs": [
        {
          "internalType": "uint256",
          "name": "proposalId",
          "type": "uint256"
        },
        {
          "internalType": "uint256",
          "name": "optionId",
          "type": "uint256"
        },
        {
          "internalType": "uint256",
          "name": "amount",
          "type": "uint256"
        }
      ],
      "name": "vote",
      "outputs": [],
      "stateMutability": "nonpayable",
      "type": "function"
    },
    {
      "inputs": [
        {
          "internalType": "uint256",
          "name": "",
          "type": "uint256"
        },
        {
          "internalType": "uint256",
          "name": "",
          "type": "uint256"
        },
        {
          "internalType": "uint256",
          "name": "",
          "type": "uint256"
        }
      ],
      "name": "voting",
      "outputs": [
        {
          "internalType": "address",
          "name": "user",
          "type": "address"
        },
        {
          "internalType": "uint256",
          "name": "amount",
          "type": "uint256"
        }
      ],
      "stateMutability": "view",
      "type": "function"
    },
    {
      "inputs": [
        {
          "internalType": "address",
          "name": "",
          "type": "address"
        }
      ],
      "name": "votingLock",
      "outputs": [
        {
          "internalType": "uint256",
          "name": "",
          "type": "uint256"
        }
      ],
      "stateMutability": "view",
      "type": "function"
    },
    {
      "inputs": [
        {
          "internalType": "uint256",
          "name": "",
          "type": "uint256"
        }
      ],
      "name": "winningOption",
      "outputs": [
        {
          "internalType": "uint256",
          "name": "",
          "type": "uint256"
        }
      ],
      "stateMutability": "view",
      "type": "function"
    },
    {
      "inputs": [
        {
          "internalType": "uint256",
          "name": "amount",
          "type": "uint256"
        }
      ],
      "name": "withdraw",
      "outputs": [],
      "stateMutability": "nonpayable",
      "type": "function"
    }
  ],
  "bytecode": "0x60a06040523073ffffffffffffffffffffffffffffffffffffffff1660809073ffffffffffffffffffffffffffffffffffffffff1681525034801561004357600080fd5b5060805161435d61007b600039600081816107fb0152818161088901528181610a6701528181610af50152610ba5015261435d6000f3fe6080604052600436106101355760003560e01c80638da5cb5b116100ab578063b6b55f251161006f578063b6b55f251461044f578063b93a89f71461048c578063bdd69096146104ce578063bdd8e72e146104f7578063c3a0aba814610535578063c4d66de81461056057610135565b80638da5cb5b146103565780639b6f67be146103815780639c1fcc4c146103aa578063b00673bc146103d5578063b511328d1461041257610135565b806346a0d50a116100fd57806346a0d50a146102435780634f1ef2861461028057806352d1902d1461029c5780636c24a76f146102c75780637c7b66f7146103045780638a6655d61461032d57610135565b80630c7353e01461013a5780630dca7ed81461017757806327e235e3146101b45780632e1a7d4d146101f15780633659cfe61461021a575b600080fd5b34801561014657600080fd5b50610161600480360381019061015c9190612a56565b610589565b60405161016e9190612aaf565b60405180910390f35b34801561018357600080fd5b5061019e60048036038101906101999190612aca565b6105ae565b6040516101ab9190612b06565b60405180910390f35b3480156101c057600080fd5b506101db60048036038101906101d69190612b21565b6105c6565b6040516101e89190612b06565b60405180910390f35b3480156101fd57600080fd5b5061021860048036038101906102139190612aca565b6105de565b005b34801561022657600080fd5b50610241600480360381019061023c9190612b21565b6107f9565b005b34801561024f57600080fd5b5061026a60048036038101906102659190612b4e565b610981565b6040516102779190612c8a565b60405180910390f35b61029a60048036038101906102959190612df2565b610a65565b005b3480156102a857600080fd5b506102b1610ba1565b6040516102be9190612e67565b60405180910390f35b3480156102d357600080fd5b506102ee60048036038101906102e99190612b21565b610c5a565b6040516102fb9190612b06565b60405180910390f35b34801561031057600080fd5b5061032b60048036038101906103269190612aca565b610cfe565b005b34801561033957600080fd5b50610354600480360381019061034f9190612e82565b610de8565b005b34801561036257600080fd5b5061036b61104d565b6040516103789190612ee4565b60405180910390f35b34801561038d57600080fd5b506103a860048036038101906103a39190612fc7565b611073565b005b3480156103b657600080fd5b506103bf611104565b6040516103cc9190612ee4565b60405180910390f35b3480156103e157600080fd5b506103fc60048036038101906103f79190612b21565b61112a565b6040516104099190612b06565b60405180910390f35b34801561041e57600080fd5b5061043960048036038101906104349190612aca565b611142565b6040516104469190612ee4565b60405180910390f35b34801561045b57600080fd5b5061047660048036038101906104719190612aca565b611190565b6040516104839190612b06565b60405180910390f35b34801561049857600080fd5b506104b360048036038101906104ae9190612aca565b61135e565b6040516104c596959493929190613226565b60405180910390f35b3480156104da57600080fd5b506104f560048036038101906104f0919061341e565b611691565b005b34801561050357600080fd5b5061051e60048036038101906105199190612e82565b611850565b60405161052c929190613467565b60405180910390f35b34801561054157600080fd5b5061054a6118be565b6040516105579190612ee4565b60405180910390f35b34801561056c57600080fd5b5061058760048036038101906105829190612b21565b6118e4565b005b6008602052816000526040600020602052806000526040600020600091509150505481565b60076020528060005260406000206000915090505481565b60046020528060005260406000206000915090505481565b60006105e933610c5a565b90508181106106315733816040517ff6deaa04000000000000000000000000000000000000000000000000000000008152600401610628929190613467565b60405180910390fd5b600260009054906101000a900473ffffffffffffffffffffffffffffffffffffffff1673ffffffffffffffffffffffffffffffffffffffff1663a9059cbb33846040518363ffffffff1660e01b815260040161068e929190613467565b6020604051808303816000875af11580156106ad573d6000803e3d6000fd5b505050506040513d601f19601f820116820180604052508101906106d191906134c8565b610710576040517f08c379a000000000000000000000000000000000000000000000000000000000815260040161070790613552565b60405180910390fd5b81600460003373ffffffffffffffffffffffffffffffffffffffff1673ffffffffffffffffffffffffffffffffffffffff168152602001908152602001600020600082825461075f91906135a1565b925050819055503373ffffffffffffffffffffffffffffffffffffffff167ff279e6a1f5e320cca91135676d9cb6e44ca8a08c0b88342bcdb1144f6511b56883600460003373ffffffffffffffffffffffffffffffffffffffff1673ffffffffffffffffffffffffffffffffffffffff168152602001908152602001600020546040516107ed9291906135d5565b60405180910390a25050565b7f000000000000000000000000000000000000000000000000000000000000000073ffffffffffffffffffffffffffffffffffffffff163073ffffffffffffffffffffffffffffffffffffffff1603610887576040517f08c379a000000000000000000000000000000000000000000000000000000000815260040161087e90613670565b60405180910390fd5b7f000000000000000000000000000000000000000000000000000000000000000073ffffffffffffffffffffffffffffffffffffffff166108c6611a9d565b73ffffffffffffffffffffffffffffffffffffffff161461091c576040517f08c379a000000000000000000000000000000000000000000000000000000000815260040161091390613702565b60405180910390fd5b61092581611af4565b61097e81600067ffffffffffffffff81111561094457610943612cc7565b5b6040519080825280601f01601f1916602001820160405280156109765781602001600182028036833780820191505090505b506000611bca565b50565b6060600660008481526020019081526020016000206000838152602001908152602001600020805480602002602001604051908101604052809291908181526020016000905b82821015610a5957838290600052602060002090600202016040518060400160405290816000820160009054906101000a900473ffffffffffffffffffffffffffffffffffffffff1673ffffffffffffffffffffffffffffffffffffffff1673ffffffffffffffffffffffffffffffffffffffff168152602001600182015481525050815260200190600101906109c7565b50505050905092915050565b7f000000000000000000000000000000000000000000000000000000000000000073ffffffffffffffffffffffffffffffffffffffff163073ffffffffffffffffffffffffffffffffffffffff1603610af3576040517f08c379a0000000000000000000000000000000000000000000000000000000008152600401610aea90613670565b60405180910390fd5b7f000000000000000000000000000000000000000000000000000000000000000073ffffffffffffffffffffffffffffffffffffffff16610b32611a9d565b73ffffffffffffffffffffffffffffffffffffffff1614610b88576040517f08c379a0000000000000000000000000000000000000000000000000000000008152600401610b7f90613702565b60405180910390fd5b610b9182611af4565b610b9d82826001611bca565b5050565b60007f000000000000000000000000000000000000000000000000000000000000000073ffffffffffffffffffffffffffffffffffffffff163073ffffffffffffffffffffffffffffffffffffffff1614610c31576040517f08c379a0000000000000000000000000000000000000000000000000000000008152600401610c2890613794565b60405180910390fd5b7f360894a13ba1a3210667c828492db98dca3e2076cc3735a920a3ca505d382bbc60001b905090565b600080600460008473ffffffffffffffffffffffffffffffffffffffff1673ffffffffffffffffffffffffffffffffffffffff1681526020019081526020016000205490506000600560008573ffffffffffffffffffffffffffffffffffffffff1673ffffffffffffffffffffffffffffffffffffffff16815260200190815260200160002054905060008190508083610cf491906135a1565b9350505050919050565b60008111610d41576040517f08c379a0000000000000000000000000000000000000000000000000000000008152600401610d3890613800565b60405180910390fd5b80600460003373ffffffffffffffffffffffffffffffffffffffff1673ffffffffffffffffffffffffffffffffffffffff1681526020019081526020016000206000828254610d909190613820565b925050819055503373ffffffffffffffffffffffffffffffffffffffff167fa0c8eda28ab82fe28c2bcaa48a1ce2b5eac8dbed005a6e8eb62398577e908d5c82604051610ddd9190612b06565b60405180910390a250565b80610df233610c5a565b1015610e33576040517f08c379a0000000000000000000000000000000000000000000000000000000008152600401610e2a906138a0565b60405180910390fd5b80600560003373ffffffffffffffffffffffffffffffffffffffff1673ffffffffffffffffffffffffffffffffffffffff1681526020019081526020016000206000828254610e829190613820565b92505081905550600060038481548110610e9f57610e9e6138c0565b5b9060005260206000209060020201905081816001018481548110610ec657610ec56138c0565b5b90600052602060002090600302016001016000828254610ee69190613820565b925050819055506001816001018481548110610f0557610f046138c0565b5b90600052602060002090600302016002016000828254610f259190613820565b9250508190555060066000858152602001908152602001600020600084815260200190815260200160002060405180604001604052803373ffffffffffffffffffffffffffffffffffffffff16815260200184815250908060018154018082558091505060019003906000526020600020906002020160009091909190915060008201518160000160006101000a81548173ffffffffffffffffffffffffffffffffffffffff021916908373ffffffffffffffffffffffffffffffffffffffff16021790555060208201518160010155505082843373ffffffffffffffffffffffffffffffffffffffff167fc32b42768a47a585121e9b8d7a2ab9d3f34c326a192dee11ee1732e3d18313f38560405161103f9190612b06565b60405180910390a450505050565b600060029054906101000a900473ffffffffffffffffffffffffffffffffffffffff1681565b7f96a54eb5c3629a7082316372c06617c472b5958a748182a70c0ba0b1c7e3c8868383836040516110a69392919061399e565b60405180910390a160006110ba8484611d38565b905080156110d1576110cc8484611f34565b6110e6565b6110db84836120b6565b6110e58484612232565b5b82600760008681526020019081526020016000208190555050505050565b600160009054906101000a900473ffffffffffffffffffffffffffffffffffffffff1681565b60056020528060005260406000206000915090505481565b6003818154811061115257600080fd5b90600052602060002090600202016000915090508060000160009054906101000a900473ffffffffffffffffffffffffffffffffffffffff16905081565b6000600260009054906101000a900473ffffffffffffffffffffffffffffffffffffffff1673ffffffffffffffffffffffffffffffffffffffff166323b872dd3330856040518463ffffffff1660e01b81526004016111f1939291906139dc565b6020604051808303816000875af1158015611210573d6000803e3d6000fd5b505050506040513d601f19601f8201168201806040525081019061123491906134c8565b611273576040517f08c379a000000000000000000000000000000000000000000000000000000000815260040161126a90613552565b60405180910390fd5b81600460003373ffffffffffffffffffffffffffffffffffffffff1673ffffffffffffffffffffffffffffffffffffffff16815260200190815260200160002060008282546112c29190613820565b925050819055503373ffffffffffffffffffffffffffffffffffffffff167f2da466a7b24304f47e87fa2e1e5a81b9831ce54fec19055ce277ca2f39ba42c48360405161130f9190612b06565b60405180910390a2600460003373ffffffffffffffffffffffffffffffffffffffff1673ffffffffffffffffffffffffffffffffffffffff168152602001908152602001600020549050919050565b6000606080606060008060006003888154811061137e5761137d6138c0565b5b906000526020600020906002020190506000816001018054905090508067ffffffffffffffff8111156113b4576113b3612cc7565b5b6040519080825280602002602001820160405280156113e757816020015b60608152602001906001900390816113d25790505b5096508067ffffffffffffffff81111561140457611403612cc7565b5b6040519080825280602002602001820160405280156114325781602001602082028036833780820191505090505b5095508067ffffffffffffffff81111561144f5761144e612cc7565b5b60405190808252806020026020018201604052801561147d5781602001602082028036833780820191505090505b5094508160000160009054906101000a900473ffffffffffffffffffffffffffffffffffffffff16975060005b81811015611685578260010181815481106114c8576114c76138c0565b5b906000526020600020906003020160000180546114e490613a42565b80601f016020809104026020016040519081016040528092919081815260200182805461151090613a42565b801561155d5780601f106115325761010080835404028352916020019161155d565b820191906000526020600020905b81548152906001019060200180831161154057829003601f168201915b5050505050888281518110611575576115746138c0565b5b6020026020010181905250826001018181548110611596576115956138c0565b5b9060005260206000209060030201600101548782815181106115bb576115ba6138c0565b5b6020026020010181815250508260010181815481106115dd576115dc6138c0565b5b906000526020600020906003020160020154868281518110611602576116016138c0565b5b602002602001018181525050826001018181548110611624576116236138c0565b5b906000526020600020906003020160020154846116419190613820565b9350826001018181548110611659576116586138c0565b5b906000526020600020906003020160010154856116769190613820565b945080806001019150506114aa565b50505091939550919395565b60008151116116d5576040517f08c379a00000000000000000000000000000000000000000000000000000000081526004016116cc90613abf565b60405180910390fd5b600060036001816001815401808255809150500390600052602060002090600202019050338160000160006101000a81548173ffffffffffffffffffffffffffffffffffffffff021916908373ffffffffffffffffffffffffffffffffffffffff16021790555060005b82518110156117e55781600101604051806060016040528085848151811061176a576117696138c0565b5b60200260200101518152602001600081526020016000815250908060018154018082558091505060019003906000526020600020906003020160009091909190915060008201518160000190816117c19190613c8b565b5060208201518160010155604082015181600201555050808060010191505061173f565b50600060016003805490506117fa91906135a1565b9050803373ffffffffffffffffffffffffffffffffffffffff167f66a044198f8a0fc35ed879be5d27c3d6ca15787c13093f47e3ba8a94c78eb796856040516118439190613d5d565b60405180910390a3505050565b6006602052826000526040600020602052816000526040600020818154811061187857600080fd5b906000526020600020906002020160009250925050508060000160009054906101000a900473ffffffffffffffffffffffffffffffffffffffff16908060010154905082565b600260009054906101000a900473ffffffffffffffffffffffffffffffffffffffff1681565b60008060019054906101000a900460ff161590508080156119155750600160008054906101000a900460ff1660ff16105b80611942575061192430612450565b1580156119415750600160008054906101000a900460ff1660ff16145b5b611981576040517f08c379a000000000000000000000000000000000000000000000000000000000815260040161197890613df1565b60405180910390fd5b60016000806101000a81548160ff021916908360ff16021790555080156119be576001600060016101000a81548160ff0219169083151502179055505b81600260006101000a81548173ffffffffffffffffffffffffffffffffffffffff021916908373ffffffffffffffffffffffffffffffffffffffff16021790555033600060026101000a81548173ffffffffffffffffffffffffffffffffffffffff021916908373ffffffffffffffffffffffffffffffffffffffff1602179055508015611a995760008060016101000a81548160ff0219169083151502179055507f7f26b83ff96e1f2b6a682f133852f6798a09c465da95921460cefb38474024986001604051611a909190613e59565b60405180910390a15b5050565b6000611acb7f360894a13ba1a3210667c828492db98dca3e2076cc3735a920a3ca505d382bbc60001b612473565b60000160009054906101000a900473ffffffffffffffffffffffffffffffffffffffff16905090565b3373ffffffffffffffffffffffffffffffffffffffff16600060029054906101000a900473ffffffffffffffffffffffffffffffffffffffff1673ffffffffffffffffffffffffffffffffffffffff1614611b8657336040517f118cdaa7000000000000000000000000000000000000000000000000000000008152600401611b7d9190612ee4565b60405180910390fd5b80600160006101000a81548173ffffffffffffffffffffffffffffffffffffffff021916908373ffffffffffffffffffffffffffffffffffffffff16021790555050565b611bf67f4910fdfa16fed3260ed0e7147f7cc6da11a60208b5b9406d12a635614ffd914360001b61247d565b60000160009054906101000a900460ff1615611c1a57611c1583612487565b611d33565b8273ffffffffffffffffffffffffffffffffffffffff166352d1902d6040518163ffffffff1660e01b8152600401602060405180830381865afa925050508015611c8257506040513d601f19601f82011682018060405250810190611c7f9190613ea0565b60015b611cc1576040517f08c379a0000000000000000000000000000000000000000000000000000000008152600401611cb890613f3f565b60405180910390fd5b7f360894a13ba1a3210667c828492db98dca3e2076cc3735a920a3ca505d382bbc60001b8114611d26576040517f08c379a0000000000000000000000000000000000000000000000000000000008152600401611d1d90613fd1565b60405180910390fd5b50611d32838383612540565b5b505050565b60008060038481548110611d4f57611d4e6138c0565b5b90600052602060002090600202016040518060400160405290816000820160009054906101000a900473ffffffffffffffffffffffffffffffffffffffff1673ffffffffffffffffffffffffffffffffffffffff1673ffffffffffffffffffffffffffffffffffffffff16815260200160018201805480602002602001604051908101604052809291908181526020016000905b82821015611ebb5783829060005260206000209060030201604051806060016040529081600082018054611e1690613a42565b80601f0160208091040260200160405190810160405280929190818152602001828054611e4290613a42565b8015611e8f5780601f10611e6457610100808354040283529160200191611e8f565b820191906000526020600020905b815481529060010190602001808311611e7257829003601f168201915b505050505081526020016001820154815260200160028201548152505081526020019060010190611de3565b5050505081525050905060008160200151905060005b8151811015611f2657848114158015611f0857506000828281518110611efa57611ef96138c0565b5b602002602001015160200151115b15611f195760009350505050611f2e565b8080600101915050611ed1565b506001925050505b92915050565b600060066000838152602001908152602001600020905060005b816000848152602001908152602001600020805490508110156120785760008260008581526020019081526020016000208281548110611f9157611f906138c0565b5b90600052602060002090600202016040518060400160405290816000820160009054906101000a900473ffffffffffffffffffffffffffffffffffffffff1673ffffffffffffffffffffffffffffffffffffffff1673ffffffffffffffffffffffffffffffffffffffff1681526020016001820154815250509050806020015160056000836000015173ffffffffffffffffffffffffffffffffffffffff1673ffffffffffffffffffffffffffffffffffffffff168152602001908152602001600020600082825461206391906135a1565b92505081905550508080600101915050611f4e565b50827fb7c1f9298a18c36af08bd57eabbfbeb04695f24d0438f67614741ec15fb5c4a9836040516120a99190612b06565b60405180910390a2505050565b60006120c18361135e565b50945050505050600060646002836120d99190613ff1565b6120e39190614062565b905060008351826120f49190614062565b905060005b84518110156121ee57816004600087848151811061211a576121196138c0565b5b602002602001015173ffffffffffffffffffffffffffffffffffffffff1673ffffffffffffffffffffffffffffffffffffffff168152602001908152602001600020600082825461216b9190613820565b925050819055508160086000888152602001908152602001600020600087848151811061219b5761219a6138c0565b5b602002602001015173ffffffffffffffffffffffffffffffffffffffff1673ffffffffffffffffffffffffffffffffffffffff1681526020019081526020016000208190555080806001019150506120f9565b50847f1034bcc6d30aa91c93d14ce14f959d5d304d6b8a76f50f026934b85d4e4122ed85848460405161222393929190614093565b60405180910390a25050505050565b600060038381548110612248576122476138c0565b5b9060005260206000209060020201905060008160010180549050905060006006600085815260200190815260200160002090506000806122878761135e565b5094505093505050606460058261229e9190613ff1565b6122a89190614062565b600460008760000160009054906101000a900473ffffffffffffffffffffffffffffffffffffffff1673ffffffffffffffffffffffffffffffffffffffff1673ffffffffffffffffffffffffffffffffffffffff168152602001908152602001600020600082825461231a9190613820565b92505081905550600060646058836123329190613ff1565b61233c9190614062565b905060005b8581101561244557612438898984878c81518110612362576123616138c0565b5b6020026020010151896000878152602001908152602001600020805480602002602001604051908101604052809291908181526020016000905b8282101561242e57838290600052602060002090600202016040518060400160405290816000820160009054906101000a900473ffffffffffffffffffffffffffffffffffffffff1673ffffffffffffffffffffffffffffffffffffffff1673ffffffffffffffffffffffffffffffffffffffff1681526020016001820154815250508152602001906001019061239c565b505050508661256c565b8080600101915050612341565b505050505050505050565b6000808273ffffffffffffffffffffffffffffffffffffffff163b119050919050565b6000819050919050565b6000819050919050565b61249081612450565b6124cf576040517f08c379a00000000000000000000000000000000000000000000000000000000081526004016124c690614143565b60405180910390fd5b806124fc7f360894a13ba1a3210667c828492db98dca3e2076cc3735a920a3ca505d382bbc60001b612473565b60000160006101000a81548173ffffffffffffffffffffffffffffffffffffffff021916908373ffffffffffffffffffffffffffffffffffffffff16021790555050565b612549836127e7565b6000825111806125565750805b15612567576125658383612836565b505b505050565b60005b82518110156127de57600083828151811061258d5761258c6138c0565b5b60200260200101519050806020015160056000836000015173ffffffffffffffffffffffffffffffffffffffff1673ffffffffffffffffffffffffffffffffffffffff16815260200190815260200160002060008282546125ee91906135a1565b925050819055508683036126e95760008587836020015161260f9190613ff1565b6126199190614062565b9050600082602001518261262d91906135a1565b90508060046000856000015173ffffffffffffffffffffffffffffffffffffffff1673ffffffffffffffffffffffffffffffffffffffff16815260200190815260200160002060008282546126829190613820565b9250508190555080600860008c81526020019081526020016000206000856000015173ffffffffffffffffffffffffffffffffffffffff1673ffffffffffffffffffffffffffffffffffffffff1681526020019081526020016000208190555050506127d0565b806020015160046000836000015173ffffffffffffffffffffffffffffffffffffffff1673ffffffffffffffffffffffffffffffffffffffff168152602001908152602001600020600082825461274091906135a1565b925050819055507fffffffffffffffffffffffffffffffffffffffffffffffffffffffffffffffff81602001516127779190614163565b600860008a81526020019081526020016000206000836000015173ffffffffffffffffffffffffffffffffffffffff1673ffffffffffffffffffffffffffffffffffffffff168152602001908152602001600020819055505b50808060010191505061256f565b50505050505050565b6127f081612487565b8073ffffffffffffffffffffffffffffffffffffffff167fbc7cd75a20ee27fd9adebab32041f755214dbc6bffa90cc0225b39da2e5c2d3b60405160405180910390a250565b606061285b838360405180606001604052806027815260200161430160279139612863565b905092915050565b60606000808573ffffffffffffffffffffffffffffffffffffffff168560405161288d9190614222565b600060405180830381855af49150503d80600081146128c8576040519150601f19603f3d011682016040523d82523d6000602084013e6128cd565b606091505b50915091506128de868383876128e9565b925050509392505050565b6060831561294b5760008351036129435761290385612450565b612942576040517f08c379a000000000000000000000000000000000000000000000000000000000815260040161293990614285565b60405180910390fd5b5b829050612956565b612955838361295e565b5b949350505050565b6000825111156129715781518083602001fd5b806040517f08c379a00000000000000000000000000000000000000000000000000000000081526004016129a591906142de565b60405180910390fd5b6000604051905090565b600080fd5b600080fd5b6000819050919050565b6129d5816129c2565b81146129e057600080fd5b50565b6000813590506129f2816129cc565b92915050565b600073ffffffffffffffffffffffffffffffffffffffff82169050919050565b6000612a23826129f8565b9050919050565b612a3381612a18565b8114612a3e57600080fd5b50565b600081359050612a5081612a2a565b92915050565b60008060408385031215612a6d57612a6c6129b8565b5b6000612a7b858286016129e3565b9250506020612a8c85828601612a41565b9150509250929050565b6000819050919050565b612aa981612a96565b82525050565b6000602082019050612ac46000830184612aa0565b92915050565b600060208284031215612ae057612adf6129b8565b5b6000612aee848285016129e3565b91505092915050565b612b00816129c2565b82525050565b6000602082019050612b1b6000830184612af7565b92915050565b600060208284031215612b3757612b366129b8565b5b6000612b4584828501612a41565b91505092915050565b60008060408385031215612b6557612b646129b8565b5b6000612b73858286016129e3565b9250506020612b84858286016129e3565b9150509250929050565b600081519050919050565b600082825260208201905092915050565b6000819050602082019050919050565b612bc381612a18565b82525050565b612bd2816129c2565b82525050565b604082016000820151612bee6000850182612bba565b506020820151612c016020850182612bc9565b50505050565b6000612c138383612bd8565b60408301905092915050565b6000602082019050919050565b6000612c3782612b8e565b612c418185612b99565b9350612c4c83612baa565b8060005b83811015612c7d578151612c648882612c07565b9750612c6f83612c1f565b925050600181019050612c50565b5085935050505092915050565b60006020820190508181036000830152612ca48184612c2c565b905092915050565b600080fd5b600080fd5b6000601f19601f8301169050919050565b7f4e487b7100000000000000000000000000000000000000000000000000000000600052604160045260246000fd5b612cff82612cb6565b810181811067ffffffffffffffff82111715612d1e57612d1d612cc7565b5b80604052505050565b6000612d316129ae565b9050612d3d8282612cf6565b919050565b600067ffffffffffffffff821115612d5d57612d5c612cc7565b5b612d6682612cb6565b9050602081019050919050565b82818337600083830152505050565b6000612d95612d9084612d42565b612d27565b905082815260208101848484011115612db157612db0612cb1565b5b612dbc848285612d73565b509392505050565b600082601f830112612dd957612dd8612cac565b5b8135612de9848260208601612d82565b91505092915050565b60008060408385031215612e0957612e086129b8565b5b6000612e1785828601612a41565b925050602083013567ffffffffffffffff811115612e3857612e376129bd565b5b612e4485828601612dc4565b9150509250929050565b6000819050919050565b612e6181612e4e565b82525050565b6000602082019050612e7c6000830184612e58565b92915050565b600080600060608486031215612e9b57612e9a6129b8565b5b6000612ea9868287016129e3565b9350506020612eba868287016129e3565b9250506040612ecb868287016129e3565b9150509250925092565b612ede81612a18565b82525050565b6000602082019050612ef96000830184612ed5565b92915050565b600067ffffffffffffffff821115612f1a57612f19612cc7565b5b602082029050602081019050919050565b600080fd5b6000612f43612f3e84612eff565b612d27565b90508083825260208201905060208402830185811115612f6657612f65612f2b565b5b835b81811015612f8f5780612f7b8882612a41565b845260208401935050602081019050612f68565b5050509392505050565b600082601f830112612fae57612fad612cac565b5b8135612fbe848260208601612f30565b91505092915050565b600080600060608486031215612fe057612fdf6129b8565b5b6000612fee868287016129e3565b9350506020612fff868287016129e3565b925050604084013567ffffffffffffffff8111156130205761301f6129bd565b5b61302c86828701612f99565b9150509250925092565b600081519050919050565b600082825260208201905092915050565b6000819050602082019050919050565b600081519050919050565b600082825260208201905092915050565b60005b8381101561309c578082015181840152602081019050613081565b60008484015250505050565b60006130b382613062565b6130bd818561306d565b93506130cd81856020860161307e565b6130d681612cb6565b840191505092915050565b60006130ed83836130a8565b905092915050565b6000602082019050919050565b600061310d82613036565b6131178185613041565b93508360208202850161312985613052565b8060005b85811015613165578484038952815161314685826130e1565b9450613151836130f5565b925060208a0199505060018101905061312d565b50829750879550505050505092915050565b600081519050919050565b600082825260208201905092915050565b6000819050602082019050919050565b60006131af8383612bc9565b60208301905092915050565b6000602082019050919050565b60006131d382613177565b6131dd8185613182565b93506131e883613193565b8060005b8381101561321957815161320088826131a3565b975061320b836131bb565b9250506001810190506131ec565b5085935050505092915050565b600060c08201905061323b6000830189612ed5565b818103602083015261324d8188613102565b9050818103604083015261326181876131c8565b9050818103606083015261327581866131c8565b90506132846080830185612af7565b61329160a0830184612af7565b979650505050505050565b600067ffffffffffffffff8211156132b7576132b6612cc7565b5b602082029050602081019050919050565b600067ffffffffffffffff8211156132e3576132e2612cc7565b5b6132ec82612cb6565b9050602081019050919050565b600061330c613307846132c8565b612d27565b90508281526020810184848401111561332857613327612cb1565b5b613333848285612d73565b509392505050565b600082601f8301126133505761334f612cac565b5b81356133608482602086016132f9565b91505092915050565b600061337c6133778461329c565b612d27565b9050808382526020820190506020840283018581111561339f5761339e612f2b565b5b835b818110156133e657803567ffffffffffffffff8111156133c4576133c3612cac565b5b8086016133d1898261333b565b855260208501945050506020810190506133a1565b5050509392505050565b600082601f83011261340557613404612cac565b5b8135613415848260208601613369565b91505092915050565b600060208284031215613434576134336129b8565b5b600082013567ffffffffffffffff811115613452576134516129bd565b5b61345e848285016133f0565b91505092915050565b600060408201905061347c6000830185612ed5565b6134896020830184612af7565b9392505050565b60008115159050919050565b6134a581613490565b81146134b057600080fd5b50565b6000815190506134c28161349c565b92915050565b6000602082840312156134de576134dd6129b8565b5b60006134ec848285016134b3565b91505092915050565b600082825260208201905092915050565b7f5472616e73666572206661696c65640000000000000000000000000000000000600082015250565b600061353c600f836134f5565b915061354782613506565b602082019050919050565b6000602082019050818103600083015261356b8161352f565b9050919050565b7f4e487b7100000000000000000000000000000000000000000000000000000000600052601160045260246000fd5b60006135ac826129c2565b91506135b7836129c2565b92508282039050818111156135cf576135ce613572565b5b92915050565b60006040820190506135ea6000830185612af7565b6135f76020830184612af7565b9392505050565b7f46756e6374696f6e206d7573742062652063616c6c6564207468726f7567682060008201527f64656c656761746563616c6c0000000000000000000000000000000000000000602082015250565b600061365a602c836134f5565b9150613665826135fe565b604082019050919050565b600060208201905081810360008301526136898161364d565b9050919050565b7f46756e6374696f6e206d7573742062652063616c6c6564207468726f7567682060008201527f6163746976652070726f78790000000000000000000000000000000000000000602082015250565b60006136ec602c836134f5565b91506136f782613690565b604082019050919050565b6000602082019050818103600083015261371b816136df565b9050919050565b7f555550535570677261646561626c653a206d757374206e6f742062652063616c60008201527f6c6564207468726f7567682064656c656761746563616c6c0000000000000000602082015250565b600061377e6038836134f5565b915061378982613722565b604082019050919050565b600060208201905081810360008301526137ad81613771565b9050919050565b7f506f696e7473206d7573742062652067726561746572207468616e207a65726f600082015250565b60006137ea6020836134f5565b91506137f5826137b4565b602082019050919050565b60006020820190508181036000830152613819816137dd565b9050919050565b600061382b826129c2565b9150613836836129c2565b925082820190508082111561384e5761384d613572565b5b92915050565b7f496e73756666696369656e7420766f74696e6720726967687473000000000000600082015250565b600061388a601a836134f5565b915061389582613854565b602082019050919050565b600060208201905081810360008301526138b98161387d565b9050919050565b7f4e487b7100000000000000000000000000000000000000000000000000000000600052603260045260246000fd5b600081519050919050565b600082825260208201905092915050565b6000819050602082019050919050565b60006139278383612bba565b60208301905092915050565b6000602082019050919050565b600061394b826138ef565b61395581856138fa565b93506139608361390b565b8060005b83811015613991578151613978888261391b565b975061398383613933565b925050600181019050613964565b5085935050505092915050565b60006060820190506139b36000830186612af7565b6139c06020830185612af7565b81810360408301526139d28184613940565b9050949350505050565b60006060820190506139f16000830186612ed5565b6139fe6020830185612ed5565b613a0b6040830184612af7565b949350505050565b7f4e487b7100000000000000000000000000000000000000000000000000000000600052602260045260246000fd5b60006002820490506001821680613a5a57607f821691505b602082108103613a6d57613a6c613a13565b5b50919050565b7f6c656e206572726f720000000000000000000000000000000000000000000000600082015250565b6000613aa96009836134f5565b9150613ab482613a73565b602082019050919050565b60006020820190508181036000830152613ad881613a9c565b9050919050565b60008190508160005260206000209050919050565b60006020601f8301049050919050565b600082821b905092915050565b600060088302613b417fffffffffffffffffffffffffffffffffffffffffffffffffffffffffffffffff82613b04565b613b4b8683613b04565b95508019841693508086168417925050509392505050565b6000819050919050565b6000613b88613b83613b7e846129c2565b613b63565b6129c2565b9050919050565b6000819050919050565b613ba283613b6d565b613bb6613bae82613b8f565b848454613b11565b825550505050565b600090565b613bcb613bbe565b613bd6818484613b99565b505050565b5b81811015613bfa57613bef600082613bc3565b600181019050613bdc565b5050565b601f821115613c3f57613c1081613adf565b613c1984613af4565b81016020851015613c28578190505b613c3c613c3485613af4565b830182613bdb565b50505b505050565b600082821c905092915050565b6000613c6260001984600802613c44565b1980831691505092915050565b6000613c7b8383613c51565b9150826002028217905092915050565b613c9482613062565b67ffffffffffffffff811115613cad57613cac612cc7565b5b613cb78254613a42565b613cc2828285613bfe565b600060209050601f831160018114613cf55760008415613ce3578287015190505b613ced8582613c6f565b865550613d55565b601f198416613d0386613adf565b60005b82811015613d2b57848901518255600182019150602085019450602081019050613d06565b86831015613d485784890151613d44601f891682613c51565b8355505b6001600288020188555050505b505050505050565b60006020820190508181036000830152613d778184613102565b905092915050565b7f496e697469616c697a61626c653a20636f6e747261637420697320616c72656160008201527f647920696e697469616c697a6564000000000000000000000000000000000000602082015250565b6000613ddb602e836134f5565b9150613de682613d7f565b604082019050919050565b60006020820190508181036000830152613e0a81613dce565b9050919050565b6000819050919050565b600060ff82169050919050565b6000613e43613e3e613e3984613e11565b613b63565b613e1b565b9050919050565b613e5381613e28565b82525050565b6000602082019050613e6e6000830184613e4a565b92915050565b613e7d81612e4e565b8114613e8857600080fd5b50565b600081519050613e9a81613e74565b92915050565b600060208284031215613eb657613eb56129b8565b5b6000613ec484828501613e8b565b91505092915050565b7f45524331393637557067726164653a206e657720696d706c656d656e7461746960008201527f6f6e206973206e6f742055555053000000000000000000000000000000000000602082015250565b6000613f29602e836134f5565b9150613f3482613ecd565b604082019050919050565b60006020820190508181036000830152613f5881613f1c565b9050919050565b7f45524331393637557067726164653a20756e737570706f727465642070726f7860008201527f6961626c65555549440000000000000000000000000000000000000000000000602082015250565b6000613fbb6029836134f5565b9150613fc682613f5f565b604082019050919050565b60006020820190508181036000830152613fea81613fae565b9050919050565b6000613ffc826129c2565b9150614007836129c2565b9250828202614015816129c2565b9150828204841483151761402c5761402b613572565b5b5092915050565b7f4e487b7100000000000000000000000000000000000000000000000000000000600052601260045260246000fd5b600061406d826129c2565b9150614078836129c2565b92508261408857614087614033565b5b828204905092915050565b600060608201905081810360008301526140ad8186613940565b90506140bc6020830185612af7565b6140c96040830184612af7565b949350505050565b7f455243313936373a206e657720696d706c656d656e746174696f6e206973206e60008201527f6f74206120636f6e747261637400000000000000000000000000000000000000602082015250565b600061412d602d836134f5565b9150614138826140d1565b604082019050919050565b6000602082019050818103600083015261415c81614120565b9050919050565b600061416e82612a96565b915061417983612a96565b925082820261418781612a96565b91507f800000000000000000000000000000000000000000000000000000000000000084146000841216156141bf576141be613572565b5b82820584148315176141d4576141d3613572565b5b5092915050565b600081519050919050565b600081905092915050565b60006141fc826141db565b61420681856141e6565b935061421681856020860161307e565b80840191505092915050565b600061422e82846141f1565b915081905092915050565b7f416464726573733a2063616c6c20746f206e6f6e2d636f6e7472616374000000600082015250565b600061426f601d836134f5565b915061427a82614239565b602082019050919050565b6000602082019050818103600083015261429e81614262565b9050919050565b60006142b082613062565b6142ba81856134f5565b93506142ca81856020860161307e565b6142d381612cb6565b840191505092915050565b600060208201905081810360008301526142f881846142a5565b90509291505056fe416464726573733a206c6f772d6c6576656c2064656c65676174652063616c6c206661696c6564a26469706673582212200c554e79de4fb761d40afe6f1189e81ec6ace9bb20593be28a116efd2de8e81564736f6c63430008180033",
  "linkReferences": {},
  "deployedLinkReferences": {}
}