{
  "_format": "hh-sol-artifact-1",
  "contractName": "Proposal",
  "sourceName": "contracts/Proposal.sol",
  "abi": [
    {
      "inputs": [
        {
          "internalType": "address",
          "name": "user",
          "type": "address"
        },
        {
          "internalType": "uint256",
          "name": "availableBalance",
          "type": "uint256"
        }
      ],
      "name": "InsufficientBalance",
      "type": "error"
    },
    {
      "inputs": [
        {
          "internalType": "address",
          "name": "account",
          "type": "address"
        }
      ],
      "name": "OwnableUnauthorizedAccount",
      "type": "error"
    },
    {
      "anonymous": false,
      "inputs": [
        {
          "indexed": false,
          "internalType": "address",
          "name": "previousAdmin",
          "type": "address"
        },
        {
          "indexed": false,
          "internalType": "address",
          "name": "newAdmin",
          "type": "address"
        }
      ],
      "name": "AdminChanged",
      "type": "event"
    },
    {
      "anonymous": false,
      "inputs": [
        {
          "indexed": true,
          "internalType": "address",
          "name": "beacon",
          "type": "address"
        }
      ],
      "name": "BeaconUpgraded",
      "type": "event"
    },
    {
      "anonymous": false,
      "inputs": [
        {
          "indexed": true,
          "internalType": "address",
          "name": "founder",
          "type": "address"
        },
        {
          "indexed": true,
          "internalType": "uint256",
          "name": "id",
          "type": "uint256"
        },
        {
          "indexed": false,
          "internalType": "string[]",
          "name": "options",
          "type": "string[]"
        }
      ],
      "name": "Create",
      "type": "event"
    },
    {
      "anonymous": false,
      "inputs": [
        {
          "indexed": true,
          "internalType": "address",
          "name": "user",
          "type": "address"
        },
        {
          "indexed": false,
          "internalType": "uint256",
          "name": "amount",
          "type": "uint256"
        }
      ],
      "name": "Deposited",
      "type": "event"
    },
    {
      "anonymous": false,
      "inputs": [
        {
          "indexed": true,
          "internalType": "address",
          "name": "user",
          "type": "address"
        },
        {
          "indexed": false,
          "internalType": "uint256",
          "name": "points",
          "type": "uint256"
        }
      ],
      "name": "ExchangePoints",
      "type": "event"
    },
    {
      "anonymous": false,
      "inputs": [
        {
          "indexed": false,
          "internalType": "uint8",
          "name": "version",
          "type": "uint8"
        }
      ],
      "name": "Initialized",
      "type": "event"
    },
    {
      "anonymous": false,
      "inputs": [
        {
          "indexed": true,
          "internalType": "uint256",
          "name": "proposalId",
          "type": "uint256"
        },
        {
          "indexed": false,
          "internalType": "address[]",
          "name": "jurors",
          "type": "address[]"
        },
        {
          "indexed": false,
          "internalType": "uint256",
          "name": "reward",
          "type": "uint256"
        },
        {
          "indexed": false,
          "internalType": "uint256",
          "name": "rewardPerJuror",
          "type": "uint256"
        }
      ],
      "name": "JurorsDistributeRewards",
      "type": "event"
    },
    {
      "anonymous": false,
      "inputs": [
        {
          "indexed": true,
          "internalType": "address",
          "name": "user",
          "type": "address"
        },
        {
          "indexed": false,
          "internalType": "uint256",
          "name": "deadline",
          "type": "uint256"
        },
        {
          "indexed": false,
          "internalType": "uint256",
          "name": "margins",
          "type": "uint256"
        },
        {
          "indexed": false,
          "internalType": "uint256",
          "name": "amount",
          "type": "uint256"
        }
      ],
      "name": "NewPledge",
      "type": "event"
    },
    {
      "anonymous": false,
      "inputs": [
        {
          "indexed": true,
          "internalType": "address",
          "name": "user",
          "type": "address"
        },
        {
          "indexed": false,
          "internalType": "uint256",
          "name": "principal",
          "type": "uint256"
        },
        {
          "indexed": false,
          "internalType": "uint256",
          "name": "interest",
          "type": "uint256"
        },
        {
          "indexed": false,
          "internalType": "uint256",
          "name": "totalAmount",
          "type": "uint256"
        }
      ],
      "name": "PledgeCleared",
      "type": "event"
    },
    {
      "anonymous": false,
      "inputs": [
        {
          "indexed": true,
          "internalType": "uint256",
          "name": "proposalId",
          "type": "uint256"
        },
        {
          "indexed": false,
          "internalType": "uint256",
          "name": "winOptionId",
          "type": "uint256"
        }
      ],
      "name": "Refunded",
      "type": "event"
    },
    {
      "anonymous": false,
      "inputs": [
        {
          "indexed": false,
          "internalType": "uint256",
          "name": "proposalId",
          "type": "uint256"
        },
        {
          "indexed": false,
          "internalType": "uint256",
          "name": "winningOptionId",
          "type": "uint256"
        },
        {
          "indexed": false,
          "internalType": "address[]",
          "name": "jurors",
          "type": "address[]"
        }
      ],
      "name": "Settle",
      "type": "event"
    },
    {
      "anonymous": false,
      "inputs": [
        {
          "indexed": true,
          "internalType": "address",
          "name": "implementation",
          "type": "address"
        }
      ],
      "name": "Upgraded",
      "type": "event"
    },
    {
      "anonymous": false,
      "inputs": [
        {
          "indexed": true,
          "internalType": "address",
          "name": "_address",
          "type": "address"
        },
        {
          "indexed": true,
          "internalType": "uint256",
          "name": "_proposalId",
          "type": "uint256"
        },
        {
          "indexed": true,
          "internalType": "uint256",
          "name": "_optionId",
          "type": "uint256"
        },
        {
          "indexed": false,
          "internalType": "uint256",
          "name": "_amount",
          "type": "uint256"
        }
      ],
      "name": "Voted",
      "type": "event"
    },
    {
      "anonymous": false,
      "inputs": [
        {
          "indexed": true,
          "internalType": "address",
          "name": "user",
          "type": "address"
        },
        {
          "indexed": false,
          "internalType": "uint256",
          "name": "amount",
          "type": "uint256"
        },
        {
          "indexed": false,
          "internalType": "uint256",
          "name": "balance",
          "type": "uint256"
        }
      ],
      "name": "Withdraw",
      "type": "event"
    },
    {
      "inputs": [
        {
          "internalType": "address",
          "name": "",
          "type": "address"
        }
      ],
      "name": "balances",
      "outputs": [
        {
          "internalType": "uint256",
          "name": "",
          "type": "uint256"
        }
      ],
      "stateMutability": "view",
      "type": "function"
    },
    {
      "inputs": [
        {
          "internalType": "address",
          "name": "user",
          "type": "address"
        }
      ],
      "name": "clearPledge",
      "outputs": [],
      "stateMutability": "nonpayable",
      "type": "function"
    },
    {
      "inputs": [
        {
          "internalType": "string[]",
          "name": "optionDescs",
          "type": "string[]"
        }
      ],
      "name": "create",
      "outputs": [],
      "stateMutability": "nonpayable",
      "type": "function"
    },
    {
      "inputs": [
        {
          "internalType": "uint256",
          "name": "deadline",
          "type": "uint256"
        },
        {
          "internalType": "uint256",
          "name": "margins",
          "type": "uint256"
        },
        {
          "internalType": "uint256",
          "name": "amount",
          "type": "uint256"
        }
      ],
      "name": "createPledge",
      "outputs": [],
      "stateMutability": "nonpayable",
      "type": "function"
    },
    {
      "inputs": [
        {
          "internalType": "uint256",
          "name": "amount",
          "type": "uint256"
        }
      ],
      "name": "deposit",
      "outputs": [
        {
          "internalType": "uint256",
          "name": "",
          "type": "uint256"
        }
      ],
      "stateMutability": "nonpayable",
      "type": "function"
    },
    {
      "inputs": [
        {
          "internalType": "uint256",
          "name": "points",
          "type": "uint256"
        }
      ],
      "name": "exchangePoints",
      "outputs": [],
      "stateMutability": "nonpayable",
      "type": "function"
    },
    {
      "inputs": [
        {
          "internalType": "address",
          "name": "user",
          "type": "address"
        }
      ],
      "name": "getAvailableBalance",
      "outputs": [
        {
          "internalType": "uint256",
          "name": "",
          "type": "uint256"
        }
      ],
      "stateMutability": "view",
      "type": "function"
    },
    {
      "inputs": [
        {
          "internalType": "uint256",
          "name": "proposalId",
          "type": "uint256"
        }
      ],
      "name": "getDetails",
      "outputs": [
        {
          "internalType": "address",
          "name": "founder",
          "type": "address"
        },
        {
          "internalType": "string[]",
          "name": "optionDescription",
          "type": "string[]"
        },
        {
          "internalType": "uint256[]",
          "name": "counts",
          "type": "uint256[]"
        },
        {
          "internalType": "uint256[]",
          "name": "voters",
          "type": "uint256[]"
        },
        {
          "internalType": "uint256",
          "name": "allVotesCast",
          "type": "uint256"
        },
        {
          "internalType": "uint256",
          "name": "allVoters",
          "type": "uint256"
        }
      ],
      "stateMutability": "view",
      "type": "function"
    },
    {
      "inputs": [],
      "name": "getPledgeStats",
      "outputs": [
        {
          "internalType": "uint256",
          "name": "",
          "type": "uint256"
        },
        {
          "internalType": "uint256",
          "name": "",
          "type": "uint256"
        }
      ],
      "stateMutability": "view",
      "type": "function"
    },
    {
      "inputs": [],
      "name": "getPledges",
      "outputs": [
        {
          "components": [
            {
              "internalType": "uint256",
              "name": "deadline",
              "type": "uint256"
            },
            {
              "internalType": "uint256",
              "name": "margins",
              "type": "uint256"
            },
            {
              "internalType": "uint256",
              "name": "amount",
              "type": "uint256"
            }
          ],
          "internalType": "struct Proposal.PledgeInfo[]",
          "name": "",
          "type": "tuple[]"
        }
      ],
      "stateMutability": "view",
      "type": "function"
    },
    {
      "inputs": [
        {
          "internalType": "uint256",
          "name": "proposalId",
          "type": "uint256"
        },
        {
          "internalType": "uint256",
          "name": "optionId",
          "type": "uint256"
        }
      ],
      "name": "getVoting",
      "outputs": [
        {
          "components": [
            {
              "internalType": "address",
              "name": "user",
              "type": "address"
            },
            {
              "internalType": "uint256",
              "name": "amount",
              "type": "uint256"
            }
          ],
          "internalType": "struct Proposal.VoteInfo[]",
          "name": "",
          "type": "tuple[]"
        }
      ],
      "stateMutability": "view",
      "type": "function"
    },
    {
      "inputs": [
        {
          "internalType": "address",
          "name": "tokenAddr",
          "type": "address"
        }
      ],
      "name": "initialize",
      "outputs": [],
      "stateMutability": "nonpayable",
      "type": "function"
    },
    {
      "inputs": [],
      "name": "logicAddress",
      "outputs": [
        {
          "internalType": "address",
          "name": "",
          "type": "address"
        }
      ],
      "stateMutability": "view",
      "type": "function"
    },
    {
      "inputs": [],
      "name": "mlnTokenAddr",
      "outputs": [
        {
          "internalType": "address",
          "name": "",
          "type": "address"
        }
      ],
      "stateMutability": "view",
      "type": "function"
    },
    {
      "inputs": [],
      "name": "owner",
      "outputs": [
        {
          "internalType": "address",
          "name": "",
          "type": "address"
        }
      ],
      "stateMutability": "view",
      "type": "function"
    },
    {
      "inputs": [
        {
          "internalType": "address",
          "name": "",
          "type": "address"
        },
        {
          "internalType": "uint256",
          "name": "",
          "type": "uint256"
        }
      ],
      "name": "pledgeInfos",
      "outputs": [
        {
          "internalType": "uint256",
          "name": "deadline",
          "type": "uint256"
        },
        {
          "internalType": "uint256",
          "name": "margins",
          "type": "uint256"
        },
        {
          "internalType": "uint256",
          "name": "amount",
          "type": "uint256"
        }
      ],
      "stateMutability": "view",
      "type": "function"
    },
    {
      "inputs": [
        {
          "internalType": "address",
          "name": "",
          "type": "address"
        }
      ],
      "name": "pledgeLock",
      "outputs": [
        {
          "internalType": "uint256",
          "name": "",
          "type": "uint256"
        }
      ],
      "stateMutability": "view",
      "type": "function"
    },
    {
      "inputs": [
        {
          "internalType": "uint256",
          "name": "",
          "type": "uint256"
        }
      ],
      "name": "proposalInfos",
      "outputs": [
        {
          "internalType": "address",
          "name": "founder",
          "type": "address"
        }
      ],
      "stateMutability": "view",
      "type": "function"
    },
    {
      "inputs": [],
      "name": "proxiableUUID",
      "outputs": [
        {
          "internalType": "bytes32",
          "name": "",
          "type": "bytes32"
        }
      ],
      "stateMutability": "view",
      "type": "function"
    },
    {
      "inputs": [
        {
          "internalType": "uint256",
          "name": "proposalId",
          "type": "uint256"
        },
        {
          "internalType": "uint256",
          "name": "winOptionId",
          "type": "uint256"
        },
        {
          "internalType": "address[]",
          "name": "jurors",
          "type": "address[]"
        }
      ],
      "name": "settle",
      "outputs": [],
      "stateMutability": "nonpayable",
      "type": "function"
    },
    {
      "inputs": [],
      "name": "totalPledgedAmount",
      "outputs": [
        {
          "internalType": "uint256",
          "name": "",
          "type": "uint256"
        }
      ],
      "stateMutability": "view",
      "type": "function"
    },
    {
      "inputs": [],
      "name": "totalPledgers",
      "outputs": [
        {
          "internalType": "uint256",
          "name": "",
          "type": "uint256"
        }
      ],
      "stateMutability": "view",
      "type": "function"
    },
    {
      "inputs": [
        {
          "internalType": "address",
          "name": "newImplementation",
          "type": "address"
        }
      ],
      "name": "upgradeTo",
      "outputs": [],
      "stateMutability": "nonpayable",
      "type": "function"
    },
    {
      "inputs": [
        {
          "internalType": "address",
          "name": "newImplementation",
          "type": "address"
        },
        {
          "internalType": "bytes",
          "name": "data",
          "type": "bytes"
        }
      ],
      "name": "upgradeToAndCall",
      "outputs": [],
      "stateMutability": "payable",
      "type": "function"
    },
    {
      "inputs": [
        {
          "internalType": "uint256",
          "name": "",
          "type": "uint256"
        },
        {
          "internalType": "address",
          "name": "",
          "type": "address"
        }
      ],
      "name": "userProposalResults",
      "outputs": [
        {
          "internalType": "int256",
          "name": "",
          "type": "int256"
        }
      ],
      "stateMutability": "view",
      "type": "function"
    },
    {
      "inputs": [
        {
          "internalType": "uint256",
          "name": "proposalId",
          "type": "uint256"
        },
        {
          "internalType": "uint256",
          "name": "optionId",
          "type": "uint256"
        },
        {
          "internalType": "uint256",
          "name": "amount",
          "type": "uint256"
        }
      ],
      "name": "vote",
      "outputs": [],
      "stateMutability": "nonpayable",
      "type": "function"
    },
    {
      "inputs": [
        {
          "internalType": "uint256",
          "name": "",
          "type": "uint256"
        },
        {
          "internalType": "uint256",
          "name": "",
          "type": "uint256"
        },
        {
          "internalType": "uint256",
          "name": "",
          "type": "uint256"
        }
      ],
      "name": "voting",
      "outputs": [
        {
          "internalType": "address",
          "name": "user",
          "type": "address"
        },
        {
          "internalType": "uint256",
          "name": "amount",
          "type": "uint256"
        }
      ],
      "stateMutability": "view",
      "type": "function"
    },
    {
      "inputs": [
        {
          "internalType": "address",
          "name": "",
          "type": "address"
        }
      ],
      "name": "votingLock",
      "outputs": [
        {
          "internalType": "uint256",
          "name": "",
          "type": "uint256"
        }
      ],
      "stateMutability": "view",
      "type": "function"
    },
    {
      "inputs": [
        {
          "internalType": "uint256",
          "name": "",
          "type": "uint256"
        }
      ],
      "name": "winningOption",
      "outputs": [
        {
          "internalType": "uint256",
          "name": "",
          "type": "uint256"
        }
      ],
      "stateMutability": "view",
      "type": "function"
    },
    {
      "inputs": [
        {
          "internalType": "uint256",
          "name": "amount",
          "type": "uint256"
        }
      ],
      "name": "withdraw",
      "outputs": [],
      "stateMutability": "nonpayable",
      "type": "function"
    }
  ],
  "bytecode": "0x60a06040523073ffffffffffffffffffffffffffffffffffffffff1660809073ffffffffffffffffffffffffffffffffffffffff1681525034801561004357600080fd5b5060805161510e61007b60003960008181610a0f01528181610a9d01528181610cc201528181610d500152610e00015261510e6000f3fe6080604052600436106101cd5760003560e01c80639b6f67be116100f7578063b93a89f711610095578063c3a0aba811610064578063c3a0aba8146106f4578063c4d66de81461071f578063dfc3a3ff14610748578063dfef24f514610771576101cd565b8063b93a89f714610622578063b979413714610664578063bdd690961461068d578063bdd8e72e146106b6576101cd565b8063a1841637116100d1578063a184163714610540578063b00673bc1461056b578063b511328d146105a8578063b6b55f25146105e5576101cd565b80639b6f67be146104c15780639c1fcc4c146104ea5780639c42df6614610515576101cd565b80634f1ef2861161016f57806386dba0541161013e57806386dba054146104045780638a6655d6146104305780638c5fe473146104595780638da5cb5b14610496576101cd565b80634f1ef2861461035757806352d1902d146103735780636c24a76f1461039e5780637c7b66f7146103db576101cd565b80632e1a7d4d116101ab5780632e1a7d4d146102895780633659cfe6146102b25780634185e236146102db57806346a0d50a1461031a576101cd565b80630c7353e0146101d25780630dca7ed81461020f57806327e235e31461024c575b600080fd5b3480156101de57600080fd5b506101f960048036038101906101f49190613508565b61079c565b6040516102069190613561565b60405180910390f35b34801561021b57600080fd5b506102366004803603810190610231919061357c565b6107c1565b60405161024391906135b8565b60405180910390f35b34801561025857600080fd5b50610273600480360381019061026e91906135d3565b6107d9565b60405161028091906135b8565b60405180910390f35b34801561029557600080fd5b506102b060048036038101906102ab919061357c565b6107f1565b005b3480156102be57600080fd5b506102d960048036038101906102d491906135d3565b610a0d565b005b3480156102e757600080fd5b5061030260048036038101906102fd9190613600565b610b95565b60405161031193929190613640565b60405180910390f35b34801561032657600080fd5b50610341600480360381019061033c9190613677565b610bdc565b60405161034e91906137b3565b60405180910390f35b610371600480360381019061036c919061391b565b610cc0565b005b34801561037f57600080fd5b50610388610dfc565b6040516103959190613990565b60405180910390f35b3480156103aa57600080fd5b506103c560048036038101906103c091906135d3565b610eb5565b6040516103d291906135b8565b60405180910390f35b3480156103e757600080fd5b5061040260048036038101906103fd919061357c565b610f53565b005b34801561041057600080fd5b5061041961103d565b6040516104279291906139ab565b60405180910390f35b34801561043c57600080fd5b50610457600480360381019061045291906139d4565b61104e565b005b34801561046557600080fd5b50610480600480360381019061047b91906135d3565b6112b3565b60405161048d91906135b8565b60405180910390f35b3480156104a257600080fd5b506104ab6112cb565b6040516104b89190613a36565b60405180910390f35b3480156104cd57600080fd5b506104e860048036038101906104e39190613b19565b6112f1565b005b3480156104f657600080fd5b506104ff611382565b60405161050c9190613a36565b60405180910390f35b34801561052157600080fd5b5061052a6113a8565b60405161053791906135b8565b60405180910390f35b34801561054c57600080fd5b506105556113ae565b60405161056291906135b8565b60405180910390f35b34801561057757600080fd5b50610592600480360381019061058d91906135d3565b6113b4565b60405161059f91906135b8565b60405180910390f35b3480156105b457600080fd5b506105cf60048036038101906105ca919061357c565b6113cc565b6040516105dc9190613a36565b60405180910390f35b3480156105f157600080fd5b5061060c6004803603810190610607919061357c565b61141a565b60405161061991906135b8565b60405180910390f35b34801561062e57600080fd5b506106496004803603810190610644919061357c565b6115e8565b60405161065b96959493929190613d78565b60405180910390f35b34801561067057600080fd5b5061068b600480360381019061068691906135d3565b61191b565b005b34801561069957600080fd5b506106b460048036038101906106af9190613f70565b611b93565b005b3480156106c257600080fd5b506106dd60048036038101906106d891906139d4565b611d52565b6040516106eb929190613fb9565b60405180910390f35b34801561070057600080fd5b50610709611dc0565b6040516107169190613a36565b60405180910390f35b34801561072b57600080fd5b50610746600480360381019061074191906135d3565b611de6565b005b34801561075457600080fd5b5061076f600480360381019061076a91906139d4565b611f9f565b005b34801561077d57600080fd5b50610786612253565b60405161079391906140d3565b60405180910390f35b600a602052816000526040600020602052806000526040600020600091509150505481565b60096020528060005260406000206000915090505481565b60046020528060005260406000206000915090505481565b60006107fc33610eb5565b9050818110156108455733816040517ff6deaa0400000000000000000000000000000000000000000000000000000000815260040161083c929190613fb9565b60405180910390fd5b600260009054906101000a900473ffffffffffffffffffffffffffffffffffffffff1673ffffffffffffffffffffffffffffffffffffffff1663a9059cbb33846040518363ffffffff1660e01b81526004016108a2929190613fb9565b6020604051808303816000875af11580156108c1573d6000803e3d6000fd5b505050506040513d601f19601f820116820180604052508101906108e5919061412d565b610924576040517f08c379a000000000000000000000000000000000000000000000000000000000815260040161091b906141b7565b60405180910390fd5b81600460003373ffffffffffffffffffffffffffffffffffffffff1673ffffffffffffffffffffffffffffffffffffffff16815260200190815260200160002060008282546109739190614206565b925050819055503373ffffffffffffffffffffffffffffffffffffffff167ff279e6a1f5e320cca91135676d9cb6e44ca8a08c0b88342bcdb1144f6511b56883600460003373ffffffffffffffffffffffffffffffffffffffff1673ffffffffffffffffffffffffffffffffffffffff16815260200190815260200160002054604051610a019291906139ab565b60405180910390a25050565b7f000000000000000000000000000000000000000000000000000000000000000073ffffffffffffffffffffffffffffffffffffffff163073ffffffffffffffffffffffffffffffffffffffff1603610a9b576040517f08c379a0000000000000000000000000000000000000000000000000000000008152600401610a92906142ac565b60405180910390fd5b7f000000000000000000000000000000000000000000000000000000000000000073ffffffffffffffffffffffffffffffffffffffff16610ada61230d565b73ffffffffffffffffffffffffffffffffffffffff1614610b30576040517f08c379a0000000000000000000000000000000000000000000000000000000008152600401610b279061433e565b60405180910390fd5b610b3981612364565b610b9281600067ffffffffffffffff811115610b5857610b576137f0565b5b6040519080825280601f01601f191660200182016040528015610b8a5781602001600182028036833780820191505090505b50600061243a565b50565b60076020528160005260406000208181548110610bb157600080fd5b9060005260206000209060030201600091509150508060000154908060010154908060020154905083565b6060600860008481526020019081526020016000206000838152602001908152602001600020805480602002602001604051908101604052809291908181526020016000905b82821015610cb457838290600052602060002090600202016040518060400160405290816000820160009054906101000a900473ffffffffffffffffffffffffffffffffffffffff1673ffffffffffffffffffffffffffffffffffffffff1673ffffffffffffffffffffffffffffffffffffffff16815260200160018201548152505081526020019060010190610c22565b50505050905092915050565b7f000000000000000000000000000000000000000000000000000000000000000073ffffffffffffffffffffffffffffffffffffffff163073ffffffffffffffffffffffffffffffffffffffff1603610d4e576040517f08c379a0000000000000000000000000000000000000000000000000000000008152600401610d45906142ac565b60405180910390fd5b7f000000000000000000000000000000000000000000000000000000000000000073ffffffffffffffffffffffffffffffffffffffff16610d8d61230d565b73ffffffffffffffffffffffffffffffffffffffff1614610de3576040517f08c379a0000000000000000000000000000000000000000000000000000000008152600401610dda9061433e565b60405180910390fd5b610dec82612364565b610df88282600161243a565b5050565b60007f000000000000000000000000000000000000000000000000000000000000000073ffffffffffffffffffffffffffffffffffffffff163073ffffffffffffffffffffffffffffffffffffffff1614610e8c576040517f08c379a0000000000000000000000000000000000000000000000000000000008152600401610e83906143d0565b60405180910390fd5b7f360894a13ba1a3210667c828492db98dca3e2076cc3735a920a3ca505d382bbc60001b905090565b600080600460008473ffffffffffffffffffffffffffffffffffffffff1673ffffffffffffffffffffffffffffffffffffffff1681526020019081526020016000205490506000600560008573ffffffffffffffffffffffffffffffffffffffff1673ffffffffffffffffffffffffffffffffffffffff1681526020019081526020016000205490508082610f4a9190614206565b92505050919050565b60008111610f96576040517f08c379a0000000000000000000000000000000000000000000000000000000008152600401610f8d9061443c565b60405180910390fd5b80600460003373ffffffffffffffffffffffffffffffffffffffff1673ffffffffffffffffffffffffffffffffffffffff1681526020019081526020016000206000828254610fe5919061445c565b925050819055503373ffffffffffffffffffffffffffffffffffffffff167fa0c8eda28ab82fe28c2bcaa48a1ce2b5eac8dbed005a6e8eb62398577e908d5c8260405161103291906135b8565b60405180910390a250565b600080600c54600b54915091509091565b8061105833610eb5565b1015611099576040517f08c379a0000000000000000000000000000000000000000000000000000000008152600401611090906144dc565b60405180910390fd5b80600560003373ffffffffffffffffffffffffffffffffffffffff1673ffffffffffffffffffffffffffffffffffffffff16815260200190815260200160002060008282546110e8919061445c565b92505081905550600060038481548110611105576111046144fc565b5b906000526020600020906002020190508181600101848154811061112c5761112b6144fc565b5b9060005260206000209060030201600101600082825461114c919061445c565b92505081905550600181600101848154811061116b5761116a6144fc565b5b9060005260206000209060030201600201600082825461118b919061445c565b9250508190555060086000858152602001908152602001600020600084815260200190815260200160002060405180604001604052803373ffffffffffffffffffffffffffffffffffffffff16815260200184815250908060018154018082558091505060019003906000526020600020906002020160009091909190915060008201518160000160006101000a81548173ffffffffffffffffffffffffffffffffffffffff021916908373ffffffffffffffffffffffffffffffffffffffff16021790555060208201518160010155505082843373ffffffffffffffffffffffffffffffffffffffff167fc32b42768a47a585121e9b8d7a2ab9d3f34c326a192dee11ee1732e3d18313f3856040516112a591906135b8565b60405180910390a450505050565b60066020528060005260406000206000915090505481565b600060029054906101000a900473ffffffffffffffffffffffffffffffffffffffff1681565b7f96a54eb5c3629a7082316372c06617c472b5958a748182a70c0ba0b1c7e3c886838383604051611324939291906145da565b60405180910390a1600061133884846125a8565b9050801561134f5761134a84846127a4565b611364565b6113598483612926565b6113638484612aa2565b5b82600960008681526020019081526020016000208190555050505050565b600160009054906101000a900473ffffffffffffffffffffffffffffffffffffffff1681565b600b5481565b600c5481565b60056020528060005260406000206000915090505481565b600381815481106113dc57600080fd5b90600052602060002090600202016000915090508060000160009054906101000a900473ffffffffffffffffffffffffffffffffffffffff16905081565b6000600260009054906101000a900473ffffffffffffffffffffffffffffffffffffffff1673ffffffffffffffffffffffffffffffffffffffff166323b872dd3330856040518463ffffffff1660e01b815260040161147b93929190614618565b6020604051808303816000875af115801561149a573d6000803e3d6000fd5b505050506040513d601f19601f820116820180604052508101906114be919061412d565b6114fd576040517f08c379a00000000000000000000000000000000000000000000000000000000081526004016114f4906141b7565b60405180910390fd5b81600460003373ffffffffffffffffffffffffffffffffffffffff1673ffffffffffffffffffffffffffffffffffffffff168152602001908152602001600020600082825461154c919061445c565b925050819055503373ffffffffffffffffffffffffffffffffffffffff167f2da466a7b24304f47e87fa2e1e5a81b9831ce54fec19055ce277ca2f39ba42c48360405161159991906135b8565b60405180910390a2600460003373ffffffffffffffffffffffffffffffffffffffff1673ffffffffffffffffffffffffffffffffffffffff168152602001908152602001600020549050919050565b60006060806060600080600060038881548110611608576116076144fc565b5b906000526020600020906002020190506000816001018054905090508067ffffffffffffffff81111561163e5761163d6137f0565b5b60405190808252806020026020018201604052801561167157816020015b606081526020019060019003908161165c5790505b5096508067ffffffffffffffff81111561168e5761168d6137f0565b5b6040519080825280602002602001820160405280156116bc5781602001602082028036833780820191505090505b5095508067ffffffffffffffff8111156116d9576116d86137f0565b5b6040519080825280602002602001820160405280156117075781602001602082028036833780820191505090505b5094508160000160009054906101000a900473ffffffffffffffffffffffffffffffffffffffff16975060005b8181101561190f57826001018181548110611752576117516144fc565b5b9060005260206000209060030201600001805461176e9061467e565b80601f016020809104026020016040519081016040528092919081815260200182805461179a9061467e565b80156117e75780601f106117bc576101008083540402835291602001916117e7565b820191906000526020600020905b8154815290600101906020018083116117ca57829003601f168201915b50505050508882815181106117ff576117fe6144fc565b5b60200260200101819052508260010181815481106118205761181f6144fc565b5b906000526020600020906003020160010154878281518110611845576118446144fc565b5b602002602001018181525050826001018181548110611867576118666144fc565b5b90600052602060002090600302016002015486828151811061188c5761188b6144fc565b5b6020026020010181815250508260010181815481106118ae576118ad6144fc565b5b906000526020600020906003020160020154846118cb919061445c565b93508260010181815481106118e3576118e26144fc565b5b90600052602060002090600302016001015485611900919061445c565b94508080600101915050611734565b50505091939550919395565b6000806000805b600760008673ffffffffffffffffffffffffffffffffffffffff1673ffffffffffffffffffffffffffffffffffffffff16815260200190815260200160002080549050811015611ae4576000600760008773ffffffffffffffffffffffffffffffffffffffff1673ffffffffffffffffffffffffffffffffffffffff16815260200190815260200160002082815481106119bf576119be6144fc565b5b9060005260206000209060030201604051806060016040529081600082015481526020016001820154815260200160028201548152505090504281600001511015611ad6576000606482602001516064611a19919061445c565b8360400151611a2891906146af565b611a329190614720565b9050816040015185611a44919061445c565b9450816040015181611a569190614206565b84611a61919061445c565b93508086611a6f919061445c565b9550611a7a83612cc0565b8160400151600660008973ffffffffffffffffffffffffffffffffffffffff1673ffffffffffffffffffffffffffffffffffffffff1681526020019081526020016000206000828254611acd9190614206565b92505081905550505b508080600101915050611922565b5082600460008673ffffffffffffffffffffffffffffffffffffffff1673ffffffffffffffffffffffffffffffffffffffff1681526020019081526020016000206000828254611b34919061445c565b925050819055508373ffffffffffffffffffffffffffffffffffffffff167fa0afcc62883adc46e3210ec3af69c0d44d5bc91010a2475f068a0860cff1e9f2838386604051611b8593929190613640565b60405180910390a250505050565b6000815111611bd7576040517f08c379a0000000000000000000000000000000000000000000000000000000008152600401611bce9061479d565b60405180910390fd5b600060036001816001815401808255809150500390600052602060002090600202019050338160000160006101000a81548173ffffffffffffffffffffffffffffffffffffffff021916908373ffffffffffffffffffffffffffffffffffffffff16021790555060005b8251811015611ce757816001016040518060600160405280858481518110611c6c57611c6b6144fc565b5b6020026020010151815260200160008152602001600081525090806001815401808255809150506001900390600052602060002090600302016000909190919091506000820151816000019081611cc39190614969565b50602082015181600101556040820151816002015550508080600101915050611c41565b5060006001600380549050611cfc9190614206565b9050803373ffffffffffffffffffffffffffffffffffffffff167f66a044198f8a0fc35ed879be5d27c3d6ca15787c13093f47e3ba8a94c78eb79685604051611d459190614a3b565b60405180910390a3505050565b60086020528260005260406000206020528160005260406000208181548110611d7a57600080fd5b906000526020600020906002020160009250925050508060000160009054906101000a900473ffffffffffffffffffffffffffffffffffffffff16908060010154905082565b600260009054906101000a900473ffffffffffffffffffffffffffffffffffffffff1681565b60008060019054906101000a900460ff16159050808015611e175750600160008054906101000a900460ff1660ff16105b80611e445750611e2630612f02565b158015611e435750600160008054906101000a900460ff1660ff16145b5b611e83576040517f08c379a0000000000000000000000000000000000000000000000000000000008152600401611e7a90614acf565b60405180910390fd5b60016000806101000a81548160ff021916908360ff1602179055508015611ec0576001600060016101000a81548160ff0219169083151502179055505b81600260006101000a81548173ffffffffffffffffffffffffffffffffffffffff021916908373ffffffffffffffffffffffffffffffffffffffff16021790555033600060026101000a81548173ffffffffffffffffffffffffffffffffffffffff021916908373ffffffffffffffffffffffffffffffffffffffff1602179055508015611f9b5760008060016101000a81548160ff0219169083151502179055507f7f26b83ff96e1f2b6a682f133852f6798a09c465da95921460cefb38474024986001604051611f929190614b37565b60405180910390a15b5050565b428311611fe1576040517f08c379a0000000000000000000000000000000000000000000000000000000008152600401611fd890614bc4565b60405180910390fd5b600260009054906101000a900473ffffffffffffffffffffffffffffffffffffffff1673ffffffffffffffffffffffffffffffffffffffff166323b872dd3330846040518463ffffffff1660e01b815260040161204093929190614618565b6020604051808303816000875af115801561205f573d6000803e3d6000fd5b505050506040513d601f19601f82011682018060405250810190612083919061412d565b50600060405180606001604052808581526020018481526020018381525090506000600660003373ffffffffffffffffffffffffffffffffffffffff1673ffffffffffffffffffffffffffffffffffffffff168152602001908152602001600020540361210357600c60008154809291906120fd90614be4565b91905055505b600760003373ffffffffffffffffffffffffffffffffffffffff1673ffffffffffffffffffffffffffffffffffffffff168152602001908152602001600020819080600181540180825580915050600190039060005260206000209060030201600090919091909150600082015181600001556020820151816001015560408201518160020155505081600660003373ffffffffffffffffffffffffffffffffffffffff1673ffffffffffffffffffffffffffffffffffffffff16815260200190815260200160002060008282546121db919061445c565b9250508190555081600b60008282546121f4919061445c565b925050819055503373ffffffffffffffffffffffffffffffffffffffff167f485d5bcd7e243593ba58d30097c3ba28f0103e1f8a670262df62d9c4dac8ce1985858560405161224593929190613640565b60405180910390a250505050565b6060600760003373ffffffffffffffffffffffffffffffffffffffff1673ffffffffffffffffffffffffffffffffffffffff168152602001908152602001600020805480602002602001604051908101604052809291908181526020016000905b8282101561230457838290600052602060002090600302016040518060600160405290816000820154815260200160018201548152602001600282015481525050815260200190600101906122b4565b50505050905090565b600061233b7f360894a13ba1a3210667c828492db98dca3e2076cc3735a920a3ca505d382bbc60001b612f25565b60000160009054906101000a900473ffffffffffffffffffffffffffffffffffffffff16905090565b3373ffffffffffffffffffffffffffffffffffffffff16600060029054906101000a900473ffffffffffffffffffffffffffffffffffffffff1673ffffffffffffffffffffffffffffffffffffffff16146123f657336040517f118cdaa70000000000000000000000000000000000000000000000000000000081526004016123ed9190613a36565b60405180910390fd5b80600160006101000a81548173ffffffffffffffffffffffffffffffffffffffff021916908373ffffffffffffffffffffffffffffffffffffffff16021790555050565b6124667f4910fdfa16fed3260ed0e7147f7cc6da11a60208b5b9406d12a635614ffd914360001b612f2f565b60000160009054906101000a900460ff161561248a5761248583612f39565b6125a3565b8273ffffffffffffffffffffffffffffffffffffffff166352d1902d6040518163ffffffff1660e01b8152600401602060405180830381865afa9250505080156124f257506040513d601f19601f820116820180604052508101906124ef9190614c58565b60015b612531576040517f08c379a000000000000000000000000000000000000000000000000000000000815260040161252890614cf7565b60405180910390fd5b7f360894a13ba1a3210667c828492db98dca3e2076cc3735a920a3ca505d382bbc60001b8114612596576040517f08c379a000000000000000000000000000000000000000000000000000000000815260040161258d90614d89565b60405180910390fd5b506125a2838383612ff2565b5b505050565b600080600384815481106125bf576125be6144fc565b5b90600052602060002090600202016040518060400160405290816000820160009054906101000a900473ffffffffffffffffffffffffffffffffffffffff1673ffffffffffffffffffffffffffffffffffffffff1673ffffffffffffffffffffffffffffffffffffffff16815260200160018201805480602002602001604051908101604052809291908181526020016000905b8282101561272b57838290600052602060002090600302016040518060600160405290816000820180546126869061467e565b80601f01602080910402602001604051908101604052809291908181526020018280546126b29061467e565b80156126ff5780601f106126d4576101008083540402835291602001916126ff565b820191906000526020600020905b8154815290600101906020018083116126e257829003601f168201915b505050505081526020016001820154815260200160028201548152505081526020019060010190612653565b5050505081525050905060008160200151905060005b8151811015612796578481141580156127785750600082828151811061276a576127696144fc565b5b602002602001015160200151115b15612789576000935050505061279e565b8080600101915050612741565b506001925050505b92915050565b600060086000838152602001908152602001600020905060005b816000848152602001908152602001600020805490508110156128e85760008260008581526020019081526020016000208281548110612801576128006144fc565b5b90600052602060002090600202016040518060400160405290816000820160009054906101000a900473ffffffffffffffffffffffffffffffffffffffff1673ffffffffffffffffffffffffffffffffffffffff1673ffffffffffffffffffffffffffffffffffffffff1681526020016001820154815250509050806020015160056000836000015173ffffffffffffffffffffffffffffffffffffffff1673ffffffffffffffffffffffffffffffffffffffff16815260200190815260200160002060008282546128d39190614206565b925050819055505080806001019150506127be565b50827fb7c1f9298a18c36af08bd57eabbfbeb04695f24d0438f67614741ec15fb5c4a98360405161291991906135b8565b60405180910390a2505050565b6000612931836115e8565b509450505050506000606460028361294991906146af565b6129539190614720565b905060008351826129649190614720565b905060005b8451811015612a5e57816004600087848151811061298a576129896144fc565b5b602002602001015173ffffffffffffffffffffffffffffffffffffffff1673ffffffffffffffffffffffffffffffffffffffff16815260200190815260200160002060008282546129db919061445c565b9250508190555081600a60008881526020019081526020016000206000878481518110612a0b57612a0a6144fc565b5b602002602001015173ffffffffffffffffffffffffffffffffffffffff1673ffffffffffffffffffffffffffffffffffffffff168152602001908152602001600020819055508080600101915050612969565b50847f1034bcc6d30aa91c93d14ce14f959d5d304d6b8a76f50f026934b85d4e4122ed858484604051612a9393929190614da9565b60405180910390a25050505050565b600060038381548110612ab857612ab76144fc565b5b906000526020600020906002020190506000816001018054905090506000600860008581526020019081526020016000209050600080612af7876115e8565b50945050935050506064600582612b0e91906146af565b612b189190614720565b600460008760000160009054906101000a900473ffffffffffffffffffffffffffffffffffffffff1673ffffffffffffffffffffffffffffffffffffffff1673ffffffffffffffffffffffffffffffffffffffff1681526020019081526020016000206000828254612b8a919061445c565b9250508190555060006064605883612ba291906146af565b612bac9190614720565b905060005b85811015612cb557612ca8898984878c81518110612bd257612bd16144fc565b5b6020026020010151896000878152602001908152602001600020805480602002602001604051908101604052809291908181526020016000905b82821015612c9e57838290600052602060002090600202016040518060400160405290816000820160009054906101000a900473ffffffffffffffffffffffffffffffffffffffff1673ffffffffffffffffffffffffffffffffffffffff1673ffffffffffffffffffffffffffffffffffffffff16815260200160018201548152505081526020019060010190612c0c565b505050508661301e565b8080600101915050612bb1565b505050505050505050565b600760003373ffffffffffffffffffffffffffffffffffffffff1673ffffffffffffffffffffffffffffffffffffffff168152602001908152602001600020805490508110612d44576040517f08c379a0000000000000000000000000000000000000000000000000000000008152600401612d3b90614e33565b60405180910390fd5b60006001600760003373ffffffffffffffffffffffffffffffffffffffff1673ffffffffffffffffffffffffffffffffffffffff16815260200190815260200160002080549050612d959190614206565b9050808214612e7e57600760003373ffffffffffffffffffffffffffffffffffffffff1673ffffffffffffffffffffffffffffffffffffffff1681526020019081526020016000208181548110612def57612dee6144fc565b5b9060005260206000209060030201600760003373ffffffffffffffffffffffffffffffffffffffff1673ffffffffffffffffffffffffffffffffffffffff1681526020019081526020016000208381548110612e4e57612e4d6144fc565b5b90600052602060002090600302016000820154816000015560018201548160010155600282015481600201559050505b600760003373ffffffffffffffffffffffffffffffffffffffff1673ffffffffffffffffffffffffffffffffffffffff168152602001908152602001600020805480612ecd57612ecc614e53565b5b600190038181906000526020600020906003020160008082016000905560018201600090556002820160009055505090555050565b6000808273ffffffffffffffffffffffffffffffffffffffff163b119050919050565b6000819050919050565b6000819050919050565b612f4281612f02565b612f81576040517f08c379a0000000000000000000000000000000000000000000000000000000008152600401612f7890614ef4565b60405180910390fd5b80612fae7f360894a13ba1a3210667c828492db98dca3e2076cc3735a920a3ca505d382bbc60001b612f25565b60000160006101000a81548173ffffffffffffffffffffffffffffffffffffffff021916908373ffffffffffffffffffffffffffffffffffffffff16021790555050565b612ffb83613299565b6000825111806130085750805b156130195761301783836132e8565b505b505050565b60005b825181101561329057600083828151811061303f5761303e6144fc565b5b60200260200101519050806020015160056000836000015173ffffffffffffffffffffffffffffffffffffffff1673ffffffffffffffffffffffffffffffffffffffff16815260200190815260200160002060008282546130a09190614206565b9250508190555086830361319b576000858783602001516130c191906146af565b6130cb9190614720565b905060008260200151826130df9190614206565b90508060046000856000015173ffffffffffffffffffffffffffffffffffffffff1673ffffffffffffffffffffffffffffffffffffffff1681526020019081526020016000206000828254613134919061445c565b9250508190555080600a60008c81526020019081526020016000206000856000015173ffffffffffffffffffffffffffffffffffffffff1673ffffffffffffffffffffffffffffffffffffffff168152602001908152602001600020819055505050613282565b806020015160046000836000015173ffffffffffffffffffffffffffffffffffffffff1673ffffffffffffffffffffffffffffffffffffffff16815260200190815260200160002060008282546131f29190614206565b925050819055507fffffffffffffffffffffffffffffffffffffffffffffffffffffffffffffffff81602001516132299190614f14565b600a60008a81526020019081526020016000206000836000015173ffffffffffffffffffffffffffffffffffffffff1673ffffffffffffffffffffffffffffffffffffffff168152602001908152602001600020819055505b508080600101915050613021565b50505050505050565b6132a281612f39565b8073ffffffffffffffffffffffffffffffffffffffff167fbc7cd75a20ee27fd9adebab32041f755214dbc6bffa90cc0225b39da2e5c2d3b60405160405180910390a250565b606061330d83836040518060600160405280602781526020016150b260279139613315565b905092915050565b60606000808573ffffffffffffffffffffffffffffffffffffffff168560405161333f9190614fd3565b600060405180830381855af49150503d806000811461337a576040519150601f19603f3d011682016040523d82523d6000602084013e61337f565b606091505b50915091506133908683838761339b565b925050509392505050565b606083156133fd5760008351036133f5576133b585612f02565b6133f4576040517f08c379a00000000000000000000000000000000000000000000000000000000081526004016133eb90615036565b60405180910390fd5b5b829050613408565b6134078383613410565b5b949350505050565b6000825111156134235781518083602001fd5b806040517f08c379a0000000000000000000000000000000000000000000000000000000008152600401613457919061508f565b60405180910390fd5b6000604051905090565b600080fd5b600080fd5b6000819050919050565b61348781613474565b811461349257600080fd5b50565b6000813590506134a48161347e565b92915050565b600073ffffffffffffffffffffffffffffffffffffffff82169050919050565b60006134d5826134aa565b9050919050565b6134e5816134ca565b81146134f057600080fd5b50565b600081359050613502816134dc565b92915050565b6000806040838503121561351f5761351e61346a565b5b600061352d85828601613495565b925050602061353e858286016134f3565b9150509250929050565b6000819050919050565b61355b81613548565b82525050565b60006020820190506135766000830184613552565b92915050565b6000602082840312156135925761359161346a565b5b60006135a084828501613495565b91505092915050565b6135b281613474565b82525050565b60006020820190506135cd60008301846135a9565b92915050565b6000602082840312156135e9576135e861346a565b5b60006135f7848285016134f3565b91505092915050565b600080604083850312156136175761361661346a565b5b6000613625858286016134f3565b925050602061363685828601613495565b9150509250929050565b600060608201905061365560008301866135a9565b61366260208301856135a9565b61366f60408301846135a9565b949350505050565b6000806040838503121561368e5761368d61346a565b5b600061369c85828601613495565b92505060206136ad85828601613495565b9150509250929050565b600081519050919050565b600082825260208201905092915050565b6000819050602082019050919050565b6136ec816134ca565b82525050565b6136fb81613474565b82525050565b60408201600082015161371760008501826136e3565b50602082015161372a60208501826136f2565b50505050565b600061373c8383613701565b60408301905092915050565b6000602082019050919050565b6000613760826136b7565b61376a81856136c2565b9350613775836136d3565b8060005b838110156137a657815161378d8882613730565b975061379883613748565b925050600181019050613779565b5085935050505092915050565b600060208201905081810360008301526137cd8184613755565b905092915050565b600080fd5b600080fd5b6000601f19601f8301169050919050565b7f4e487b7100000000000000000000000000000000000000000000000000000000600052604160045260246000fd5b613828826137df565b810181811067ffffffffffffffff82111715613847576138466137f0565b5b80604052505050565b600061385a613460565b9050613866828261381f565b919050565b600067ffffffffffffffff821115613886576138856137f0565b5b61388f826137df565b9050602081019050919050565b82818337600083830152505050565b60006138be6138b98461386b565b613850565b9050828152602081018484840111156138da576138d96137da565b5b6138e584828561389c565b509392505050565b600082601f830112613902576139016137d5565b5b81356139128482602086016138ab565b91505092915050565b600080604083850312156139325761393161346a565b5b6000613940858286016134f3565b925050602083013567ffffffffffffffff8111156139615761396061346f565b5b61396d858286016138ed565b9150509250929050565b6000819050919050565b61398a81613977565b82525050565b60006020820190506139a56000830184613981565b92915050565b60006040820190506139c060008301856135a9565b6139cd60208301846135a9565b9392505050565b6000806000606084860312156139ed576139ec61346a565b5b60006139fb86828701613495565b9350506020613a0c86828701613495565b9250506040613a1d86828701613495565b9150509250925092565b613a30816134ca565b82525050565b6000602082019050613a4b6000830184613a27565b92915050565b600067ffffffffffffffff821115613a6c57613a6b6137f0565b5b602082029050602081019050919050565b600080fd5b6000613a95613a9084613a51565b613850565b90508083825260208201905060208402830185811115613ab857613ab7613a7d565b5b835b81811015613ae15780613acd88826134f3565b845260208401935050602081019050613aba565b5050509392505050565b600082601f830112613b0057613aff6137d5565b5b8135613b10848260208601613a82565b91505092915050565b600080600060608486031215613b3257613b3161346a565b5b6000613b4086828701613495565b9350506020613b5186828701613495565b925050604084013567ffffffffffffffff811115613b7257613b7161346f565b5b613b7e86828701613aeb565b9150509250925092565b600081519050919050565b600082825260208201905092915050565b6000819050602082019050919050565b600081519050919050565b600082825260208201905092915050565b60005b83811015613bee578082015181840152602081019050613bd3565b60008484015250505050565b6000613c0582613bb4565b613c0f8185613bbf565b9350613c1f818560208601613bd0565b613c28816137df565b840191505092915050565b6000613c3f8383613bfa565b905092915050565b6000602082019050919050565b6000613c5f82613b88565b613c698185613b93565b935083602082028501613c7b85613ba4565b8060005b85811015613cb75784840389528151613c988582613c33565b9450613ca383613c47565b925060208a01995050600181019050613c7f565b50829750879550505050505092915050565b600081519050919050565b600082825260208201905092915050565b6000819050602082019050919050565b6000613d0183836136f2565b60208301905092915050565b6000602082019050919050565b6000613d2582613cc9565b613d2f8185613cd4565b9350613d3a83613ce5565b8060005b83811015613d6b578151613d528882613cf5565b9750613d5d83613d0d565b925050600181019050613d3e565b5085935050505092915050565b600060c082019050613d8d6000830189613a27565b8181036020830152613d9f8188613c54565b90508181036040830152613db38187613d1a565b90508181036060830152613dc78186613d1a565b9050613dd660808301856135a9565b613de360a08301846135a9565b979650505050505050565b600067ffffffffffffffff821115613e0957613e086137f0565b5b602082029050602081019050919050565b600067ffffffffffffffff821115613e3557613e346137f0565b5b613e3e826137df565b9050602081019050919050565b6000613e5e613e5984613e1a565b613850565b905082815260208101848484011115613e7a57613e796137da565b5b613e8584828561389c565b509392505050565b600082601f830112613ea257613ea16137d5565b5b8135613eb2848260208601613e4b565b91505092915050565b6000613ece613ec984613dee565b613850565b90508083825260208201905060208402830185811115613ef157613ef0613a7d565b5b835b81811015613f3857803567ffffffffffffffff811115613f1657613f156137d5565b5b808601613f238982613e8d565b85526020850194505050602081019050613ef3565b5050509392505050565b600082601f830112613f5757613f566137d5565b5b8135613f67848260208601613ebb565b91505092915050565b600060208284031215613f8657613f8561346a565b5b600082013567ffffffffffffffff811115613fa457613fa361346f565b5b613fb084828501613f42565b91505092915050565b6000604082019050613fce6000830185613a27565b613fdb60208301846135a9565b9392505050565b600081519050919050565b600082825260208201905092915050565b6000819050602082019050919050565b60608201600082015161402460008501826136f2565b50602082015161403760208501826136f2565b50604082015161404a60408501826136f2565b50505050565b600061405c838361400e565b60608301905092915050565b6000602082019050919050565b600061408082613fe2565b61408a8185613fed565b935061409583613ffe565b8060005b838110156140c65781516140ad8882614050565b97506140b883614068565b925050600181019050614099565b5085935050505092915050565b600060208201905081810360008301526140ed8184614075565b905092915050565b60008115159050919050565b61410a816140f5565b811461411557600080fd5b50565b60008151905061412781614101565b92915050565b6000602082840312156141435761414261346a565b5b600061415184828501614118565b91505092915050565b600082825260208201905092915050565b7f5472616e73666572206661696c65640000000000000000000000000000000000600082015250565b60006141a1600f8361415a565b91506141ac8261416b565b602082019050919050565b600060208201905081810360008301526141d081614194565b9050919050565b7f4e487b7100000000000000000000000000000000000000000000000000000000600052601160045260246000fd5b600061421182613474565b915061421c83613474565b9250828203905081811115614234576142336141d7565b5b92915050565b7f46756e6374696f6e206d7573742062652063616c6c6564207468726f7567682060008201527f64656c656761746563616c6c0000000000000000000000000000000000000000602082015250565b6000614296602c8361415a565b91506142a18261423a565b604082019050919050565b600060208201905081810360008301526142c581614289565b9050919050565b7f46756e6374696f6e206d7573742062652063616c6c6564207468726f7567682060008201527f6163746976652070726f78790000000000000000000000000000000000000000602082015250565b6000614328602c8361415a565b9150614333826142cc565b604082019050919050565b600060208201905081810360008301526143578161431b565b9050919050565b7f555550535570677261646561626c653a206d757374206e6f742062652063616c60008201527f6c6564207468726f7567682064656c656761746563616c6c0000000000000000602082015250565b60006143ba60388361415a565b91506143c58261435e565b604082019050919050565b600060208201905081810360008301526143e9816143ad565b9050919050565b7f506f696e7473206d7573742062652067726561746572207468616e207a65726f600082015250565b600061442660208361415a565b9150614431826143f0565b602082019050919050565b6000602082019050818103600083015261445581614419565b9050919050565b600061446782613474565b915061447283613474565b925082820190508082111561448a576144896141d7565b5b92915050565b7f496e73756666696369656e7420766f74696e6720726967687473000000000000600082015250565b60006144c6601a8361415a565b91506144d182614490565b602082019050919050565b600060208201905081810360008301526144f5816144b9565b9050919050565b7f4e487b7100000000000000000000000000000000000000000000000000000000600052603260045260246000fd5b600081519050919050565b600082825260208201905092915050565b6000819050602082019050919050565b600061456383836136e3565b60208301905092915050565b6000602082019050919050565b60006145878261452b565b6145918185614536565b935061459c83614547565b8060005b838110156145cd5781516145b48882614557565b97506145bf8361456f565b9250506001810190506145a0565b5085935050505092915050565b60006060820190506145ef60008301866135a9565b6145fc60208301856135a9565b818103604083015261460e818461457c565b9050949350505050565b600060608201905061462d6000830186613a27565b61463a6020830185613a27565b61464760408301846135a9565b949350505050565b7f4e487b7100000000000000000000000000000000000000000000000000000000600052602260045260246000fd5b6000600282049050600182168061469657607f821691505b6020821081036146a9576146a861464f565b5b50919050565b60006146ba82613474565b91506146c583613474565b92508282026146d381613474565b915082820484148315176146ea576146e96141d7565b5b5092915050565b7f4e487b7100000000000000000000000000000000000000000000000000000000600052601260045260246000fd5b600061472b82613474565b915061473683613474565b925082614746576147456146f1565b5b828204905092915050565b7f6c656e206572726f720000000000000000000000000000000000000000000000600082015250565b600061478760098361415a565b915061479282614751565b602082019050919050565b600060208201905081810360008301526147b68161477a565b9050919050565b60008190508160005260206000209050919050565b60006020601f8301049050919050565b600082821b905092915050565b60006008830261481f7fffffffffffffffffffffffffffffffffffffffffffffffffffffffffffffffff826147e2565b61482986836147e2565b95508019841693508086168417925050509392505050565b6000819050919050565b600061486661486161485c84613474565b614841565b613474565b9050919050565b6000819050919050565b6148808361484b565b61489461488c8261486d565b8484546147ef565b825550505050565b600090565b6148a961489c565b6148b4818484614877565b505050565b5b818110156148d8576148cd6000826148a1565b6001810190506148ba565b5050565b601f82111561491d576148ee816147bd565b6148f7846147d2565b81016020851015614906578190505b61491a614912856147d2565b8301826148b9565b50505b505050565b600082821c905092915050565b600061494060001984600802614922565b1980831691505092915050565b6000614959838361492f565b9150826002028217905092915050565b61497282613bb4565b67ffffffffffffffff81111561498b5761498a6137f0565b5b614995825461467e565b6149a08282856148dc565b600060209050601f8311600181146149d357600084156149c1578287015190505b6149cb858261494d565b865550614a33565b601f1984166149e1866147bd565b60005b82811015614a09578489015182556001820191506020850194506020810190506149e4565b86831015614a265784890151614a22601f89168261492f565b8355505b6001600288020188555050505b505050505050565b60006020820190508181036000830152614a558184613c54565b905092915050565b7f496e697469616c697a61626c653a20636f6e747261637420697320616c72656160008201527f647920696e697469616c697a6564000000000000000000000000000000000000602082015250565b6000614ab9602e8361415a565b9150614ac482614a5d565b604082019050919050565b60006020820190508181036000830152614ae881614aac565b9050919050565b6000819050919050565b600060ff82169050919050565b6000614b21614b1c614b1784614aef565b614841565b614af9565b9050919050565b614b3181614b06565b82525050565b6000602082019050614b4c6000830184614b28565b92915050565b7f446561646c696e65206d7573742062652067726561746572207468616e20637560008201527f7272656e742074696d6500000000000000000000000000000000000000000000602082015250565b6000614bae602a8361415a565b9150614bb982614b52565b604082019050919050565b60006020820190508181036000830152614bdd81614ba1565b9050919050565b6000614bef82613474565b91507fffffffffffffffffffffffffffffffffffffffffffffffffffffffffffffffff8203614c2157614c206141d7565b5b600182019050919050565b614c3581613977565b8114614c4057600080fd5b50565b600081519050614c5281614c2c565b92915050565b600060208284031215614c6e57614c6d61346a565b5b6000614c7c84828501614c43565b91505092915050565b7f45524331393637557067726164653a206e657720696d706c656d656e7461746960008201527f6f6e206973206e6f742055555053000000000000000000000000000000000000602082015250565b6000614ce1602e8361415a565b9150614cec82614c85565b604082019050919050565b60006020820190508181036000830152614d1081614cd4565b9050919050565b7f45524331393637557067726164653a20756e737570706f727465642070726f7860008201527f6961626c65555549440000000000000000000000000000000000000000000000602082015250565b6000614d7360298361415a565b9150614d7e82614d17565b604082019050919050565b60006020820190508181036000830152614da281614d66565b9050919050565b60006060820190508181036000830152614dc3818661457c565b9050614dd260208301856135a9565b614ddf60408301846135a9565b949350505050565b7f496e646578206f7574206f6620626f756e647300000000000000000000000000600082015250565b6000614e1d60138361415a565b9150614e2882614de7565b602082019050919050565b60006020820190508181036000830152614e4c81614e10565b9050919050565b7f4e487b7100000000000000000000000000000000000000000000000000000000600052603160045260246000fd5b7f455243313936373a206e657720696d706c656d656e746174696f6e206973206e60008201527f6f74206120636f6e747261637400000000000000000000000000000000000000602082015250565b6000614ede602d8361415a565b9150614ee982614e82565b604082019050919050565b60006020820190508181036000830152614f0d81614ed1565b9050919050565b6000614f1f82613548565b9150614f2a83613548565b9250828202614f3881613548565b91507f80000000000000000000000000000000000000000000000000000000000000008414600084121615614f7057614f6f6141d7565b5b8282058414831517614f8557614f846141d7565b5b5092915050565b600081519050919050565b600081905092915050565b6000614fad82614f8c565b614fb78185614f97565b9350614fc7818560208601613bd0565b80840191505092915050565b6000614fdf8284614fa2565b915081905092915050565b7f416464726573733a2063616c6c20746f206e6f6e2d636f6e7472616374000000600082015250565b6000615020601d8361415a565b915061502b82614fea565b602082019050919050565b6000602082019050818103600083015261504f81615013565b9050919050565b600061506182613bb4565b61506b818561415a565b935061507b818560208601613bd0565b615084816137df565b840191505092915050565b600060208201905081810360008301526150a98184615056565b90509291505056fe416464726573733a206c6f772d6c6576656c2064656c65676174652063616c6c206661696c6564a2646970667358221220a60620628bf7abeec75ef324b01aacc7458325e743c864a92cf3bbdc51aefdc664736f6c63430008180033",
  "linkReferences": {},
  "deployedLinkReferences": {}
}