{
  "_format": "hh-sol-artifact-1",
  "contractName": "Proposal",
  "sourceName": "contracts/Proposal.sol",
  "abi": [
    {
      "inputs": [
        {
          "internalType": "address",
          "name": "user",
          "type": "address"
        },
        {
          "internalType": "uint256",
          "name": "availableBalance",
          "type": "uint256"
        }
      ],
      "name": "InsufficientBalance",
      "type": "error"
    },
    {
      "inputs": [
        {
          "internalType": "address",
          "name": "account",
          "type": "address"
        }
      ],
      "name": "OwnableUnauthorizedAccount",
      "type": "error"
    },
    {
      "anonymous": false,
      "inputs": [
        {
          "indexed": false,
          "internalType": "address",
          "name": "previousAdmin",
          "type": "address"
        },
        {
          "indexed": false,
          "internalType": "address",
          "name": "newAdmin",
          "type": "address"
        }
      ],
      "name": "AdminChanged",
      "type": "event"
    },
    {
      "anonymous": false,
      "inputs": [
        {
          "indexed": true,
          "internalType": "address",
          "name": "beacon",
          "type": "address"
        }
      ],
      "name": "BeaconUpgraded",
      "type": "event"
    },
    {
      "anonymous": false,
      "inputs": [
        {
          "indexed": true,
          "internalType": "address",
          "name": "founder",
          "type": "address"
        },
        {
          "indexed": true,
          "internalType": "uint256",
          "name": "id",
          "type": "uint256"
        },
        {
          "indexed": false,
          "internalType": "string[]",
          "name": "options",
          "type": "string[]"
        }
      ],
      "name": "Create",
      "type": "event"
    },
    {
      "anonymous": false,
      "inputs": [
        {
          "indexed": true,
          "internalType": "address",
          "name": "user",
          "type": "address"
        },
        {
          "indexed": false,
          "internalType": "uint256",
          "name": "amount",
          "type": "uint256"
        }
      ],
      "name": "Deposited",
      "type": "event"
    },
    {
      "anonymous": false,
      "inputs": [
        {
          "indexed": true,
          "internalType": "address",
          "name": "user",
          "type": "address"
        },
        {
          "indexed": false,
          "internalType": "uint256",
          "name": "points",
          "type": "uint256"
        }
      ],
      "name": "ExchangePoints",
      "type": "event"
    },
    {
      "anonymous": false,
      "inputs": [
        {
          "indexed": false,
          "internalType": "uint8",
          "name": "version",
          "type": "uint8"
        }
      ],
      "name": "Initialized",
      "type": "event"
    },
    {
      "anonymous": false,
      "inputs": [
        {
          "indexed": true,
          "internalType": "uint256",
          "name": "proposalId",
          "type": "uint256"
        },
        {
          "indexed": false,
          "internalType": "address[]",
          "name": "jurors",
          "type": "address[]"
        },
        {
          "indexed": false,
          "internalType": "uint256",
          "name": "reward",
          "type": "uint256"
        },
        {
          "indexed": false,
          "internalType": "uint256",
          "name": "rewardPerJuror",
          "type": "uint256"
        }
      ],
      "name": "JurorsDistributeRewards",
      "type": "event"
    },
    {
      "anonymous": false,
      "inputs": [
        {
          "indexed": true,
          "internalType": "address",
          "name": "user",
          "type": "address"
        },
        {
          "indexed": false,
          "internalType": "uint256",
          "name": "deadline",
          "type": "uint256"
        },
        {
          "indexed": false,
          "internalType": "uint256",
          "name": "margins",
          "type": "uint256"
        },
        {
          "indexed": false,
          "internalType": "uint256",
          "name": "amount",
          "type": "uint256"
        }
      ],
      "name": "NewPledge",
      "type": "event"
    },
    {
      "anonymous": false,
      "inputs": [
        {
          "indexed": true,
          "internalType": "uint256",
          "name": "proposalId",
          "type": "uint256"
        },
        {
          "indexed": false,
          "internalType": "uint256",
          "name": "winOptionId",
          "type": "uint256"
        }
      ],
      "name": "Refunded",
      "type": "event"
    },
    {
      "anonymous": false,
      "inputs": [
        {
          "indexed": false,
          "internalType": "uint256",
          "name": "proposalId",
          "type": "uint256"
        },
        {
          "indexed": false,
          "internalType": "uint256",
          "name": "winningOptionId",
          "type": "uint256"
        },
        {
          "indexed": false,
          "internalType": "address[]",
          "name": "jurors",
          "type": "address[]"
        }
      ],
      "name": "Settle",
      "type": "event"
    },
    {
      "anonymous": false,
      "inputs": [
        {
          "indexed": true,
          "internalType": "address",
          "name": "implementation",
          "type": "address"
        }
      ],
      "name": "Upgraded",
      "type": "event"
    },
    {
      "anonymous": false,
      "inputs": [
        {
          "indexed": true,
          "internalType": "address",
          "name": "_address",
          "type": "address"
        },
        {
          "indexed": true,
          "internalType": "uint256",
          "name": "_proposalId",
          "type": "uint256"
        },
        {
          "indexed": true,
          "internalType": "uint256",
          "name": "_optionId",
          "type": "uint256"
        },
        {
          "indexed": false,
          "internalType": "uint256",
          "name": "_amount",
          "type": "uint256"
        }
      ],
      "name": "Voted",
      "type": "event"
    },
    {
      "anonymous": false,
      "inputs": [
        {
          "indexed": true,
          "internalType": "address",
          "name": "user",
          "type": "address"
        },
        {
          "indexed": false,
          "internalType": "uint256",
          "name": "amount",
          "type": "uint256"
        },
        {
          "indexed": false,
          "internalType": "uint256",
          "name": "balance",
          "type": "uint256"
        }
      ],
      "name": "Withdraw",
      "type": "event"
    },
    {
      "inputs": [
        {
          "internalType": "address",
          "name": "",
          "type": "address"
        }
      ],
      "name": "balances",
      "outputs": [
        {
          "internalType": "uint256",
          "name": "",
          "type": "uint256"
        }
      ],
      "stateMutability": "view",
      "type": "function"
    },
    {
      "inputs": [
        {
          "internalType": "address",
          "name": "user",
          "type": "address"
        }
      ],
      "name": "clearPledge",
      "outputs": [],
      "stateMutability": "nonpayable",
      "type": "function"
    },
    {
      "inputs": [
        {
          "internalType": "string[]",
          "name": "optionDescs",
          "type": "string[]"
        }
      ],
      "name": "create",
      "outputs": [],
      "stateMutability": "nonpayable",
      "type": "function"
    },
    {
      "inputs": [
        {
          "internalType": "uint256",
          "name": "deadline",
          "type": "uint256"
        },
        {
          "internalType": "uint256",
          "name": "margins",
          "type": "uint256"
        },
        {
          "internalType": "uint256",
          "name": "amount",
          "type": "uint256"
        }
      ],
      "name": "createPledge",
      "outputs": [],
      "stateMutability": "nonpayable",
      "type": "function"
    },
    {
      "inputs": [
        {
          "internalType": "uint256",
          "name": "amount",
          "type": "uint256"
        }
      ],
      "name": "deposit",
      "outputs": [
        {
          "internalType": "uint256",
          "name": "",
          "type": "uint256"
        }
      ],
      "stateMutability": "nonpayable",
      "type": "function"
    },
    {
      "inputs": [
        {
          "internalType": "uint256",
          "name": "points",
          "type": "uint256"
        }
      ],
      "name": "exchangePoints",
      "outputs": [],
      "stateMutability": "nonpayable",
      "type": "function"
    },
    {
      "inputs": [
        {
          "internalType": "address",
          "name": "user",
          "type": "address"
        }
      ],
      "name": "getAvailableBalance",
      "outputs": [
        {
          "internalType": "uint256",
          "name": "",
          "type": "uint256"
        }
      ],
      "stateMutability": "view",
      "type": "function"
    },
    {
      "inputs": [
        {
          "internalType": "uint256",
          "name": "proposalId",
          "type": "uint256"
        }
      ],
      "name": "getDetails",
      "outputs": [
        {
          "internalType": "address",
          "name": "founder",
          "type": "address"
        },
        {
          "internalType": "string[]",
          "name": "optionDescription",
          "type": "string[]"
        },
        {
          "internalType": "uint256[]",
          "name": "counts",
          "type": "uint256[]"
        },
        {
          "internalType": "uint256[]",
          "name": "voters",
          "type": "uint256[]"
        },
        {
          "internalType": "uint256",
          "name": "allVotesCast",
          "type": "uint256"
        },
        {
          "internalType": "uint256",
          "name": "allVoters",
          "type": "uint256"
        }
      ],
      "stateMutability": "view",
      "type": "function"
    },
    {
      "inputs": [],
      "name": "getPledges",
      "outputs": [
        {
          "components": [
            {
              "internalType": "uint256",
              "name": "deadline",
              "type": "uint256"
            },
            {
              "internalType": "uint256",
              "name": "margins",
              "type": "uint256"
            },
            {
              "internalType": "uint256",
              "name": "amount",
              "type": "uint256"
            }
          ],
          "internalType": "struct Proposal.PledgeInfo[]",
          "name": "",
          "type": "tuple[]"
        }
      ],
      "stateMutability": "view",
      "type": "function"
    },
    {
      "inputs": [
        {
          "internalType": "uint256",
          "name": "proposalId",
          "type": "uint256"
        },
        {
          "internalType": "uint256",
          "name": "optionId",
          "type": "uint256"
        }
      ],
      "name": "getVoting",
      "outputs": [
        {
          "components": [
            {
              "internalType": "address",
              "name": "user",
              "type": "address"
            },
            {
              "internalType": "uint256",
              "name": "amount",
              "type": "uint256"
            }
          ],
          "internalType": "struct Proposal.VoteInfo[]",
          "name": "",
          "type": "tuple[]"
        }
      ],
      "stateMutability": "view",
      "type": "function"
    },
    {
      "inputs": [
        {
          "internalType": "address",
          "name": "tokenAddr",
          "type": "address"
        }
      ],
      "name": "initialize",
      "outputs": [],
      "stateMutability": "nonpayable",
      "type": "function"
    },
    {
      "inputs": [],
      "name": "logicAddress",
      "outputs": [
        {
          "internalType": "address",
          "name": "",
          "type": "address"
        }
      ],
      "stateMutability": "view",
      "type": "function"
    },
    {
      "inputs": [],
      "name": "mlnTokenAddr",
      "outputs": [
        {
          "internalType": "address",
          "name": "",
          "type": "address"
        }
      ],
      "stateMutability": "view",
      "type": "function"
    },
    {
      "inputs": [],
      "name": "owner",
      "outputs": [
        {
          "internalType": "address",
          "name": "",
          "type": "address"
        }
      ],
      "stateMutability": "view",
      "type": "function"
    },
    {
      "inputs": [
        {
          "internalType": "address",
          "name": "",
          "type": "address"
        },
        {
          "internalType": "uint256",
          "name": "",
          "type": "uint256"
        }
      ],
      "name": "pledgeInfos",
      "outputs": [
        {
          "internalType": "uint256",
          "name": "deadline",
          "type": "uint256"
        },
        {
          "internalType": "uint256",
          "name": "margins",
          "type": "uint256"
        },
        {
          "internalType": "uint256",
          "name": "amount",
          "type": "uint256"
        }
      ],
      "stateMutability": "view",
      "type": "function"
    },
    {
      "inputs": [
        {
          "internalType": "address",
          "name": "",
          "type": "address"
        }
      ],
      "name": "pledgeLock",
      "outputs": [
        {
          "internalType": "uint256",
          "name": "",
          "type": "uint256"
        }
      ],
      "stateMutability": "view",
      "type": "function"
    },
    {
      "inputs": [
        {
          "internalType": "uint256",
          "name": "",
          "type": "uint256"
        }
      ],
      "name": "proposalInfos",
      "outputs": [
        {
          "internalType": "address",
          "name": "founder",
          "type": "address"
        }
      ],
      "stateMutability": "view",
      "type": "function"
    },
    {
      "inputs": [],
      "name": "proxiableUUID",
      "outputs": [
        {
          "internalType": "bytes32",
          "name": "",
          "type": "bytes32"
        }
      ],
      "stateMutability": "view",
      "type": "function"
    },
    {
      "inputs": [
        {
          "internalType": "uint256",
          "name": "proposalId",
          "type": "uint256"
        },
        {
          "internalType": "uint256",
          "name": "winOptionId",
          "type": "uint256"
        },
        {
          "internalType": "address[]",
          "name": "jurors",
          "type": "address[]"
        }
      ],
      "name": "settle",
      "outputs": [],
      "stateMutability": "nonpayable",
      "type": "function"
    },
    {
      "inputs": [
        {
          "internalType": "address",
          "name": "newImplementation",
          "type": "address"
        }
      ],
      "name": "upgradeTo",
      "outputs": [],
      "stateMutability": "nonpayable",
      "type": "function"
    },
    {
      "inputs": [
        {
          "internalType": "address",
          "name": "newImplementation",
          "type": "address"
        },
        {
          "internalType": "bytes",
          "name": "data",
          "type": "bytes"
        }
      ],
      "name": "upgradeToAndCall",
      "outputs": [],
      "stateMutability": "payable",
      "type": "function"
    },
    {
      "inputs": [
        {
          "internalType": "uint256",
          "name": "",
          "type": "uint256"
        },
        {
          "internalType": "address",
          "name": "",
          "type": "address"
        }
      ],
      "name": "userProposalResults",
      "outputs": [
        {
          "internalType": "int256",
          "name": "",
          "type": "int256"
        }
      ],
      "stateMutability": "view",
      "type": "function"
    },
    {
      "inputs": [
        {
          "internalType": "uint256",
          "name": "proposalId",
          "type": "uint256"
        },
        {
          "internalType": "uint256",
          "name": "optionId",
          "type": "uint256"
        },
        {
          "internalType": "uint256",
          "name": "amount",
          "type": "uint256"
        }
      ],
      "name": "vote",
      "outputs": [],
      "stateMutability": "nonpayable",
      "type": "function"
    },
    {
      "inputs": [
        {
          "internalType": "uint256",
          "name": "",
          "type": "uint256"
        },
        {
          "internalType": "uint256",
          "name": "",
          "type": "uint256"
        },
        {
          "internalType": "uint256",
          "name": "",
          "type": "uint256"
        }
      ],
      "name": "voting",
      "outputs": [
        {
          "internalType": "address",
          "name": "user",
          "type": "address"
        },
        {
          "internalType": "uint256",
          "name": "amount",
          "type": "uint256"
        }
      ],
      "stateMutability": "view",
      "type": "function"
    },
    {
      "inputs": [
        {
          "internalType": "address",
          "name": "",
          "type": "address"
        }
      ],
      "name": "votingLock",
      "outputs": [
        {
          "internalType": "uint256",
          "name": "",
          "type": "uint256"
        }
      ],
      "stateMutability": "view",
      "type": "function"
    },
    {
      "inputs": [
        {
          "internalType": "uint256",
          "name": "",
          "type": "uint256"
        }
      ],
      "name": "winningOption",
      "outputs": [
        {
          "internalType": "uint256",
          "name": "",
          "type": "uint256"
        }
      ],
      "stateMutability": "view",
      "type": "function"
    },
    {
      "inputs": [
        {
          "internalType": "uint256",
          "name": "amount",
          "type": "uint256"
        }
      ],
      "name": "withdraw",
      "outputs": [],
      "stateMutability": "nonpayable",
      "type": "function"
    }
  ],
  "bytecode": "0x60a06040523073ffffffffffffffffffffffffffffffffffffffff1660809073ffffffffffffffffffffffffffffffffffffffff1681525034801561004357600080fd5b50608051614ef161007b6000396000818161095c015281816109ea01528181610c0f01528181610c9d0152610d4d0152614ef16000f3fe60806040526004361061019c5760003560e01c80638da5cb5b116100ec578063b97941371161008a578063c3a0aba811610064578063c3a0aba814610641578063c4d66de81461066c578063dfc3a3ff14610695578063dfef24f5146106be5761019c565b8063b9794137146105b1578063bdd69096146105da578063bdd8e72e146106035761019c565b8063b00673bc116100c6578063b00673bc146104b8578063b511328d146104f5578063b6b55f2514610532578063b93a89f71461056f5761019c565b80638da5cb5b146104395780639b6f67be146104645780639c1fcc4c1461048d5761019c565b806346a0d50a116101595780636c24a76f116101335780636c24a76f1461036d5780637c7b66f7146103aa5780638a6655d6146103d35780638c5fe473146103fc5761019c565b806346a0d50a146102e95780634f1ef2861461032657806352d1902d146103425761019c565b80630c7353e0146101a15780630dca7ed8146101de57806327e235e31461021b5780632e1a7d4d146102585780633659cfe6146102815780634185e236146102aa575b600080fd5b3480156101ad57600080fd5b506101c860048036038101906101c39190613333565b6106e9565b6040516101d5919061338c565b60405180910390f35b3480156101ea57600080fd5b50610205600480360381019061020091906133a7565b61070e565b60405161021291906133e3565b60405180910390f35b34801561022757600080fd5b50610242600480360381019061023d91906133fe565b610726565b60405161024f91906133e3565b60405180910390f35b34801561026457600080fd5b5061027f600480360381019061027a91906133a7565b61073e565b005b34801561028d57600080fd5b506102a860048036038101906102a391906133fe565b61095a565b005b3480156102b657600080fd5b506102d160048036038101906102cc919061342b565b610ae2565b6040516102e09392919061346b565b60405180910390f35b3480156102f557600080fd5b50610310600480360381019061030b91906134a2565b610b29565b60405161031d91906135de565b60405180910390f35b610340600480360381019061033b9190613746565b610c0d565b005b34801561034e57600080fd5b50610357610d49565b60405161036491906137bb565b60405180910390f35b34801561037957600080fd5b50610394600480360381019061038f91906133fe565b610e02565b6040516103a191906133e3565b60405180910390f35b3480156103b657600080fd5b506103d160048036038101906103cc91906133a7565b610ea0565b005b3480156103df57600080fd5b506103fa60048036038101906103f591906137d6565b610f8a565b005b34801561040857600080fd5b50610423600480360381019061041e91906133fe565b6111ef565b60405161043091906133e3565b60405180910390f35b34801561044557600080fd5b5061044e611207565b60405161045b9190613838565b60405180910390f35b34801561047057600080fd5b5061048b6004803603810190610486919061391b565b61122d565b005b34801561049957600080fd5b506104a26112be565b6040516104af9190613838565b60405180910390f35b3480156104c457600080fd5b506104df60048036038101906104da91906133fe565b6112e4565b6040516104ec91906133e3565b60405180910390f35b34801561050157600080fd5b5061051c600480360381019061051791906133a7565b6112fc565b6040516105299190613838565b60405180910390f35b34801561053e57600080fd5b50610559600480360381019061055491906133a7565b61134a565b60405161056691906133e3565b60405180910390f35b34801561057b57600080fd5b50610596600480360381019061059191906133a7565b611518565b6040516105a896959493929190613b7a565b60405180910390f35b3480156105bd57600080fd5b506105d860048036038101906105d391906133fe565b61184b565b005b3480156105e657600080fd5b5061060160048036038101906105fc9190613d72565b611a37565b005b34801561060f57600080fd5b5061062a600480360381019061062591906137d6565b611bf6565b604051610638929190613dbb565b60405180910390f35b34801561064d57600080fd5b50610656611c64565b6040516106639190613838565b60405180910390f35b34801561067857600080fd5b50610693600480360381019061068e91906133fe565b611c8a565b005b3480156106a157600080fd5b506106bc60048036038101906106b791906137d6565b611e43565b005b3480156106ca57600080fd5b506106d361207e565b6040516106e09190613ed5565b60405180910390f35b600a602052816000526040600020602052806000526040600020600091509150505481565b60096020528060005260406000206000915090505481565b60046020528060005260406000206000915090505481565b600061074933610e02565b9050818110156107925733816040517ff6deaa04000000000000000000000000000000000000000000000000000000008152600401610789929190613dbb565b60405180910390fd5b600260009054906101000a900473ffffffffffffffffffffffffffffffffffffffff1673ffffffffffffffffffffffffffffffffffffffff1663a9059cbb33846040518363ffffffff1660e01b81526004016107ef929190613dbb565b6020604051808303816000875af115801561080e573d6000803e3d6000fd5b505050506040513d601f19601f820116820180604052508101906108329190613f2f565b610871576040517f08c379a000000000000000000000000000000000000000000000000000000000815260040161086890613fb9565b60405180910390fd5b81600460003373ffffffffffffffffffffffffffffffffffffffff1673ffffffffffffffffffffffffffffffffffffffff16815260200190815260200160002060008282546108c09190614008565b925050819055503373ffffffffffffffffffffffffffffffffffffffff167ff279e6a1f5e320cca91135676d9cb6e44ca8a08c0b88342bcdb1144f6511b56883600460003373ffffffffffffffffffffffffffffffffffffffff1673ffffffffffffffffffffffffffffffffffffffff1681526020019081526020016000205460405161094e92919061403c565b60405180910390a25050565b7f000000000000000000000000000000000000000000000000000000000000000073ffffffffffffffffffffffffffffffffffffffff163073ffffffffffffffffffffffffffffffffffffffff16036109e8576040517f08c379a00000000000000000000000000000000000000000000000000000000081526004016109df906140d7565b60405180910390fd5b7f000000000000000000000000000000000000000000000000000000000000000073ffffffffffffffffffffffffffffffffffffffff16610a27612138565b73ffffffffffffffffffffffffffffffffffffffff1614610a7d576040517f08c379a0000000000000000000000000000000000000000000000000000000008152600401610a7490614169565b60405180910390fd5b610a868161218f565b610adf81600067ffffffffffffffff811115610aa557610aa461361b565b5b6040519080825280601f01601f191660200182016040528015610ad75781602001600182028036833780820191505090505b506000612265565b50565b60076020528160005260406000208181548110610afe57600080fd5b9060005260206000209060030201600091509150508060000154908060010154908060020154905083565b6060600860008481526020019081526020016000206000838152602001908152602001600020805480602002602001604051908101604052809291908181526020016000905b82821015610c0157838290600052602060002090600202016040518060400160405290816000820160009054906101000a900473ffffffffffffffffffffffffffffffffffffffff1673ffffffffffffffffffffffffffffffffffffffff1673ffffffffffffffffffffffffffffffffffffffff16815260200160018201548152505081526020019060010190610b6f565b50505050905092915050565b7f000000000000000000000000000000000000000000000000000000000000000073ffffffffffffffffffffffffffffffffffffffff163073ffffffffffffffffffffffffffffffffffffffff1603610c9b576040517f08c379a0000000000000000000000000000000000000000000000000000000008152600401610c92906140d7565b60405180910390fd5b7f000000000000000000000000000000000000000000000000000000000000000073ffffffffffffffffffffffffffffffffffffffff16610cda612138565b73ffffffffffffffffffffffffffffffffffffffff1614610d30576040517f08c379a0000000000000000000000000000000000000000000000000000000008152600401610d2790614169565b60405180910390fd5b610d398261218f565b610d4582826001612265565b5050565b60007f000000000000000000000000000000000000000000000000000000000000000073ffffffffffffffffffffffffffffffffffffffff163073ffffffffffffffffffffffffffffffffffffffff1614610dd9576040517f08c379a0000000000000000000000000000000000000000000000000000000008152600401610dd0906141fb565b60405180910390fd5b7f360894a13ba1a3210667c828492db98dca3e2076cc3735a920a3ca505d382bbc60001b905090565b600080600460008473ffffffffffffffffffffffffffffffffffffffff1673ffffffffffffffffffffffffffffffffffffffff1681526020019081526020016000205490506000600560008573ffffffffffffffffffffffffffffffffffffffff1673ffffffffffffffffffffffffffffffffffffffff1681526020019081526020016000205490508082610e979190614008565b92505050919050565b60008111610ee3576040517f08c379a0000000000000000000000000000000000000000000000000000000008152600401610eda90614267565b60405180910390fd5b80600460003373ffffffffffffffffffffffffffffffffffffffff1673ffffffffffffffffffffffffffffffffffffffff1681526020019081526020016000206000828254610f329190614287565b925050819055503373ffffffffffffffffffffffffffffffffffffffff167fa0c8eda28ab82fe28c2bcaa48a1ce2b5eac8dbed005a6e8eb62398577e908d5c82604051610f7f91906133e3565b60405180910390a250565b80610f9433610e02565b1015610fd5576040517f08c379a0000000000000000000000000000000000000000000000000000000008152600401610fcc90614307565b60405180910390fd5b80600560003373ffffffffffffffffffffffffffffffffffffffff1673ffffffffffffffffffffffffffffffffffffffff16815260200190815260200160002060008282546110249190614287565b9250508190555060006003848154811061104157611040614327565b5b906000526020600020906002020190508181600101848154811061106857611067614327565b5b906000526020600020906003020160010160008282546110889190614287565b9250508190555060018160010184815481106110a7576110a6614327565b5b906000526020600020906003020160020160008282546110c79190614287565b9250508190555060086000858152602001908152602001600020600084815260200190815260200160002060405180604001604052803373ffffffffffffffffffffffffffffffffffffffff16815260200184815250908060018154018082558091505060019003906000526020600020906002020160009091909190915060008201518160000160006101000a81548173ffffffffffffffffffffffffffffffffffffffff021916908373ffffffffffffffffffffffffffffffffffffffff16021790555060208201518160010155505082843373ffffffffffffffffffffffffffffffffffffffff167fc32b42768a47a585121e9b8d7a2ab9d3f34c326a192dee11ee1732e3d18313f3856040516111e191906133e3565b60405180910390a450505050565b60066020528060005260406000206000915090505481565b600060029054906101000a900473ffffffffffffffffffffffffffffffffffffffff1681565b7f96a54eb5c3629a7082316372c06617c472b5958a748182a70c0ba0b1c7e3c88683838360405161126093929190614405565b60405180910390a1600061127484846123d3565b9050801561128b5761128684846125cf565b6112a0565b6112958483612751565b61129f84846128cd565b5b82600960008681526020019081526020016000208190555050505050565b600160009054906101000a900473ffffffffffffffffffffffffffffffffffffffff1681565b60056020528060005260406000206000915090505481565b6003818154811061130c57600080fd5b90600052602060002090600202016000915090508060000160009054906101000a900473ffffffffffffffffffffffffffffffffffffffff16905081565b6000600260009054906101000a900473ffffffffffffffffffffffffffffffffffffffff1673ffffffffffffffffffffffffffffffffffffffff166323b872dd3330856040518463ffffffff1660e01b81526004016113ab93929190614443565b6020604051808303816000875af11580156113ca573d6000803e3d6000fd5b505050506040513d601f19601f820116820180604052508101906113ee9190613f2f565b61142d576040517f08c379a000000000000000000000000000000000000000000000000000000000815260040161142490613fb9565b60405180910390fd5b81600460003373ffffffffffffffffffffffffffffffffffffffff1673ffffffffffffffffffffffffffffffffffffffff168152602001908152602001600020600082825461147c9190614287565b925050819055503373ffffffffffffffffffffffffffffffffffffffff167f2da466a7b24304f47e87fa2e1e5a81b9831ce54fec19055ce277ca2f39ba42c4836040516114c991906133e3565b60405180910390a2600460003373ffffffffffffffffffffffffffffffffffffffff1673ffffffffffffffffffffffffffffffffffffffff168152602001908152602001600020549050919050565b6000606080606060008060006003888154811061153857611537614327565b5b906000526020600020906002020190506000816001018054905090508067ffffffffffffffff81111561156e5761156d61361b565b5b6040519080825280602002602001820160405280156115a157816020015b606081526020019060019003908161158c5790505b5096508067ffffffffffffffff8111156115be576115bd61361b565b5b6040519080825280602002602001820160405280156115ec5781602001602082028036833780820191505090505b5095508067ffffffffffffffff8111156116095761160861361b565b5b6040519080825280602002602001820160405280156116375781602001602082028036833780820191505090505b5094508160000160009054906101000a900473ffffffffffffffffffffffffffffffffffffffff16975060005b8181101561183f5782600101818154811061168257611681614327565b5b9060005260206000209060030201600001805461169e906144a9565b80601f01602080910402602001604051908101604052809291908181526020018280546116ca906144a9565b80156117175780601f106116ec57610100808354040283529160200191611717565b820191906000526020600020905b8154815290600101906020018083116116fa57829003601f168201915b505050505088828151811061172f5761172e614327565b5b60200260200101819052508260010181815481106117505761174f614327565b5b90600052602060002090600302016001015487828151811061177557611774614327565b5b60200260200101818152505082600101818154811061179757611796614327565b5b9060005260206000209060030201600201548682815181106117bc576117bb614327565b5b6020026020010181815250508260010181815481106117de576117dd614327565b5b906000526020600020906003020160020154846117fb9190614287565b935082600101818154811061181357611812614327565b5b906000526020600020906003020160010154856118309190614287565b94508080600101915050611664565b50505091939550919395565b6000805b600760008473ffffffffffffffffffffffffffffffffffffffff1673ffffffffffffffffffffffffffffffffffffffff168152602001908152602001600020805490508110156119dc576000600760008573ffffffffffffffffffffffffffffffffffffffff1673ffffffffffffffffffffffffffffffffffffffff16815260200190815260200160002082815481106118ec576118eb614327565b5b90600052602060002090600302016040518060600160405290816000820154815260200160018201548152602001600282015481525050905042816000015110156119ce576064816020015160646119449190614287565b826040015161195391906144da565b61195d919061454b565b836119689190614287565b925061197382612aeb565b8060400151600660008673ffffffffffffffffffffffffffffffffffffffff1673ffffffffffffffffffffffffffffffffffffffff16815260200190815260200160002060008282546119c69190614008565b925050819055505b50808060010191505061184f565b5080600460008473ffffffffffffffffffffffffffffffffffffffff1673ffffffffffffffffffffffffffffffffffffffff1681526020019081526020016000206000828254611a2c9190614287565b925050819055505050565b6000815111611a7b576040517f08c379a0000000000000000000000000000000000000000000000000000000008152600401611a72906145c8565b60405180910390fd5b600060036001816001815401808255809150500390600052602060002090600202019050338160000160006101000a81548173ffffffffffffffffffffffffffffffffffffffff021916908373ffffffffffffffffffffffffffffffffffffffff16021790555060005b8251811015611b8b57816001016040518060600160405280858481518110611b1057611b0f614327565b5b6020026020010151815260200160008152602001600081525090806001815401808255809150506001900390600052602060002090600302016000909190919091506000820151816000019081611b679190614794565b50602082015181600101556040820151816002015550508080600101915050611ae5565b5060006001600380549050611ba09190614008565b9050803373ffffffffffffffffffffffffffffffffffffffff167f66a044198f8a0fc35ed879be5d27c3d6ca15787c13093f47e3ba8a94c78eb79685604051611be99190614866565b60405180910390a3505050565b60086020528260005260406000206020528160005260406000208181548110611c1e57600080fd5b906000526020600020906002020160009250925050508060000160009054906101000a900473ffffffffffffffffffffffffffffffffffffffff16908060010154905082565b600260009054906101000a900473ffffffffffffffffffffffffffffffffffffffff1681565b60008060019054906101000a900460ff16159050808015611cbb5750600160008054906101000a900460ff1660ff16105b80611ce85750611cca30612d2d565b158015611ce75750600160008054906101000a900460ff1660ff16145b5b611d27576040517f08c379a0000000000000000000000000000000000000000000000000000000008152600401611d1e906148fa565b60405180910390fd5b60016000806101000a81548160ff021916908360ff1602179055508015611d64576001600060016101000a81548160ff0219169083151502179055505b81600260006101000a81548173ffffffffffffffffffffffffffffffffffffffff021916908373ffffffffffffffffffffffffffffffffffffffff16021790555033600060026101000a81548173ffffffffffffffffffffffffffffffffffffffff021916908373ffffffffffffffffffffffffffffffffffffffff1602179055508015611e3f5760008060016101000a81548160ff0219169083151502179055507f7f26b83ff96e1f2b6a682f133852f6798a09c465da95921460cefb38474024986001604051611e369190614962565b60405180910390a15b5050565b428311611e85576040517f08c379a0000000000000000000000000000000000000000000000000000000008152600401611e7c906149ef565b60405180910390fd5b600260009054906101000a900473ffffffffffffffffffffffffffffffffffffffff1673ffffffffffffffffffffffffffffffffffffffff166323b872dd3330846040518463ffffffff1660e01b8152600401611ee493929190614443565b6020604051808303816000875af1158015611f03573d6000803e3d6000fd5b505050506040513d601f19601f82011682018060405250810190611f279190613f2f565b5060006040518060600160405280858152602001848152602001838152509050600760003373ffffffffffffffffffffffffffffffffffffffff1673ffffffffffffffffffffffffffffffffffffffff168152602001908152602001600020819080600181540180825580915050600190039060005260206000209060030201600090919091909150600082015181600001556020820151816001015560408201518160020155505081600660003373ffffffffffffffffffffffffffffffffffffffff1673ffffffffffffffffffffffffffffffffffffffff168152602001908152602001600020600082825461201f9190614287565b925050819055503373ffffffffffffffffffffffffffffffffffffffff167f485d5bcd7e243593ba58d30097c3ba28f0103e1f8a670262df62d9c4dac8ce198585856040516120709392919061346b565b60405180910390a250505050565b6060600760003373ffffffffffffffffffffffffffffffffffffffff1673ffffffffffffffffffffffffffffffffffffffff168152602001908152602001600020805480602002602001604051908101604052809291908181526020016000905b8282101561212f57838290600052602060002090600302016040518060600160405290816000820154815260200160018201548152602001600282015481525050815260200190600101906120df565b50505050905090565b60006121667f360894a13ba1a3210667c828492db98dca3e2076cc3735a920a3ca505d382bbc60001b612d50565b60000160009054906101000a900473ffffffffffffffffffffffffffffffffffffffff16905090565b3373ffffffffffffffffffffffffffffffffffffffff16600060029054906101000a900473ffffffffffffffffffffffffffffffffffffffff1673ffffffffffffffffffffffffffffffffffffffff161461222157336040517f118cdaa70000000000000000000000000000000000000000000000000000000081526004016122189190613838565b60405180910390fd5b80600160006101000a81548173ffffffffffffffffffffffffffffffffffffffff021916908373ffffffffffffffffffffffffffffffffffffffff16021790555050565b6122917f4910fdfa16fed3260ed0e7147f7cc6da11a60208b5b9406d12a635614ffd914360001b612d5a565b60000160009054906101000a900460ff16156122b5576122b083612d64565b6123ce565b8273ffffffffffffffffffffffffffffffffffffffff166352d1902d6040518163ffffffff1660e01b8152600401602060405180830381865afa92505050801561231d57506040513d601f19601f8201168201806040525081019061231a9190614a3b565b60015b61235c576040517f08c379a000000000000000000000000000000000000000000000000000000000815260040161235390614ada565b60405180910390fd5b7f360894a13ba1a3210667c828492db98dca3e2076cc3735a920a3ca505d382bbc60001b81146123c1576040517f08c379a00000000000000000000000000000000000000000000000000000000081526004016123b890614b6c565b60405180910390fd5b506123cd838383612e1d565b5b505050565b600080600384815481106123ea576123e9614327565b5b90600052602060002090600202016040518060400160405290816000820160009054906101000a900473ffffffffffffffffffffffffffffffffffffffff1673ffffffffffffffffffffffffffffffffffffffff1673ffffffffffffffffffffffffffffffffffffffff16815260200160018201805480602002602001604051908101604052809291908181526020016000905b8282101561255657838290600052602060002090600302016040518060600160405290816000820180546124b1906144a9565b80601f01602080910402602001604051908101604052809291908181526020018280546124dd906144a9565b801561252a5780601f106124ff5761010080835404028352916020019161252a565b820191906000526020600020905b81548152906001019060200180831161250d57829003601f168201915b50505050508152602001600182015481526020016002820154815250508152602001906001019061247e565b5050505081525050905060008160200151905060005b81518110156125c1578481141580156125a35750600082828151811061259557612594614327565b5b602002602001015160200151115b156125b457600093505050506125c9565b808060010191505061256c565b506001925050505b92915050565b600060086000838152602001908152602001600020905060005b81600084815260200190815260200160002080549050811015612713576000826000858152602001908152602001600020828154811061262c5761262b614327565b5b90600052602060002090600202016040518060400160405290816000820160009054906101000a900473ffffffffffffffffffffffffffffffffffffffff1673ffffffffffffffffffffffffffffffffffffffff1673ffffffffffffffffffffffffffffffffffffffff1681526020016001820154815250509050806020015160056000836000015173ffffffffffffffffffffffffffffffffffffffff1673ffffffffffffffffffffffffffffffffffffffff16815260200190815260200160002060008282546126fe9190614008565b925050819055505080806001019150506125e9565b50827fb7c1f9298a18c36af08bd57eabbfbeb04695f24d0438f67614741ec15fb5c4a98360405161274491906133e3565b60405180910390a2505050565b600061275c83611518565b509450505050506000606460028361277491906144da565b61277e919061454b565b9050600083518261278f919061454b565b905060005b84518110156128895781600460008784815181106127b5576127b4614327565b5b602002602001015173ffffffffffffffffffffffffffffffffffffffff1673ffffffffffffffffffffffffffffffffffffffff16815260200190815260200160002060008282546128069190614287565b9250508190555081600a6000888152602001908152602001600020600087848151811061283657612835614327565b5b602002602001015173ffffffffffffffffffffffffffffffffffffffff1673ffffffffffffffffffffffffffffffffffffffff168152602001908152602001600020819055508080600101915050612794565b50847f1034bcc6d30aa91c93d14ce14f959d5d304d6b8a76f50f026934b85d4e4122ed8584846040516128be93929190614b8c565b60405180910390a25050505050565b6000600383815481106128e3576128e2614327565b5b90600052602060002090600202019050600081600101805490509050600060086000858152602001908152602001600020905060008061292287611518565b5094505093505050606460058261293991906144da565b612943919061454b565b600460008760000160009054906101000a900473ffffffffffffffffffffffffffffffffffffffff1673ffffffffffffffffffffffffffffffffffffffff1673ffffffffffffffffffffffffffffffffffffffff16815260200190815260200160002060008282546129b59190614287565b92505081905550600060646058836129cd91906144da565b6129d7919061454b565b905060005b85811015612ae057612ad3898984878c815181106129fd576129fc614327565b5b6020026020010151896000878152602001908152602001600020805480602002602001604051908101604052809291908181526020016000905b82821015612ac957838290600052602060002090600202016040518060400160405290816000820160009054906101000a900473ffffffffffffffffffffffffffffffffffffffff1673ffffffffffffffffffffffffffffffffffffffff1673ffffffffffffffffffffffffffffffffffffffff16815260200160018201548152505081526020019060010190612a37565b5050505086612e49565b80806001019150506129dc565b505050505050505050565b600760003373ffffffffffffffffffffffffffffffffffffffff1673ffffffffffffffffffffffffffffffffffffffff168152602001908152602001600020805490508110612b6f576040517f08c379a0000000000000000000000000000000000000000000000000000000008152600401612b6690614c16565b60405180910390fd5b60006001600760003373ffffffffffffffffffffffffffffffffffffffff1673ffffffffffffffffffffffffffffffffffffffff16815260200190815260200160002080549050612bc09190614008565b9050808214612ca957600760003373ffffffffffffffffffffffffffffffffffffffff1673ffffffffffffffffffffffffffffffffffffffff1681526020019081526020016000208181548110612c1a57612c19614327565b5b9060005260206000209060030201600760003373ffffffffffffffffffffffffffffffffffffffff1673ffffffffffffffffffffffffffffffffffffffff1681526020019081526020016000208381548110612c7957612c78614327565b5b90600052602060002090600302016000820154816000015560018201548160010155600282015481600201559050505b600760003373ffffffffffffffffffffffffffffffffffffffff1673ffffffffffffffffffffffffffffffffffffffff168152602001908152602001600020805480612cf857612cf7614c36565b5b600190038181906000526020600020906003020160008082016000905560018201600090556002820160009055505090555050565b6000808273ffffffffffffffffffffffffffffffffffffffff163b119050919050565b6000819050919050565b6000819050919050565b612d6d81612d2d565b612dac576040517f08c379a0000000000000000000000000000000000000000000000000000000008152600401612da390614cd7565b60405180910390fd5b80612dd97f360894a13ba1a3210667c828492db98dca3e2076cc3735a920a3ca505d382bbc60001b612d50565b60000160006101000a81548173ffffffffffffffffffffffffffffffffffffffff021916908373ffffffffffffffffffffffffffffffffffffffff16021790555050565b612e26836130c4565b600082511180612e335750805b15612e4457612e428383613113565b505b505050565b60005b82518110156130bb576000838281518110612e6a57612e69614327565b5b60200260200101519050806020015160056000836000015173ffffffffffffffffffffffffffffffffffffffff1673ffffffffffffffffffffffffffffffffffffffff1681526020019081526020016000206000828254612ecb9190614008565b92505081905550868303612fc657600085878360200151612eec91906144da565b612ef6919061454b565b90506000826020015182612f0a9190614008565b90508060046000856000015173ffffffffffffffffffffffffffffffffffffffff1673ffffffffffffffffffffffffffffffffffffffff1681526020019081526020016000206000828254612f5f9190614287565b9250508190555080600a60008c81526020019081526020016000206000856000015173ffffffffffffffffffffffffffffffffffffffff1673ffffffffffffffffffffffffffffffffffffffff1681526020019081526020016000208190555050506130ad565b806020015160046000836000015173ffffffffffffffffffffffffffffffffffffffff1673ffffffffffffffffffffffffffffffffffffffff168152602001908152602001600020600082825461301d9190614008565b925050819055507fffffffffffffffffffffffffffffffffffffffffffffffffffffffffffffffff81602001516130549190614cf7565b600a60008a81526020019081526020016000206000836000015173ffffffffffffffffffffffffffffffffffffffff1673ffffffffffffffffffffffffffffffffffffffff168152602001908152602001600020819055505b508080600101915050612e4c565b50505050505050565b6130cd81612d64565b8073ffffffffffffffffffffffffffffffffffffffff167fbc7cd75a20ee27fd9adebab32041f755214dbc6bffa90cc0225b39da2e5c2d3b60405160405180910390a250565b60606131388383604051806060016040528060278152602001614e9560279139613140565b905092915050565b60606000808573ffffffffffffffffffffffffffffffffffffffff168560405161316a9190614db6565b600060405180830381855af49150503d80600081146131a5576040519150601f19603f3d011682016040523d82523d6000602084013e6131aa565b606091505b50915091506131bb868383876131c6565b925050509392505050565b60608315613228576000835103613220576131e085612d2d565b61321f576040517f08c379a000000000000000000000000000000000000000000000000000000000815260040161321690614e19565b60405180910390fd5b5b829050613233565b613232838361323b565b5b949350505050565b60008251111561324e5781518083602001fd5b806040517f08c379a00000000000000000000000000000000000000000000000000000000081526004016132829190614e72565b60405180910390fd5b6000604051905090565b600080fd5b600080fd5b6000819050919050565b6132b28161329f565b81146132bd57600080fd5b50565b6000813590506132cf816132a9565b92915050565b600073ffffffffffffffffffffffffffffffffffffffff82169050919050565b6000613300826132d5565b9050919050565b613310816132f5565b811461331b57600080fd5b50565b60008135905061332d81613307565b92915050565b6000806040838503121561334a57613349613295565b5b6000613358858286016132c0565b92505060206133698582860161331e565b9150509250929050565b6000819050919050565b61338681613373565b82525050565b60006020820190506133a1600083018461337d565b92915050565b6000602082840312156133bd576133bc613295565b5b60006133cb848285016132c0565b91505092915050565b6133dd8161329f565b82525050565b60006020820190506133f860008301846133d4565b92915050565b60006020828403121561341457613413613295565b5b60006134228482850161331e565b91505092915050565b6000806040838503121561344257613441613295565b5b60006134508582860161331e565b9250506020613461858286016132c0565b9150509250929050565b600060608201905061348060008301866133d4565b61348d60208301856133d4565b61349a60408301846133d4565b949350505050565b600080604083850312156134b9576134b8613295565b5b60006134c7858286016132c0565b92505060206134d8858286016132c0565b9150509250929050565b600081519050919050565b600082825260208201905092915050565b6000819050602082019050919050565b613517816132f5565b82525050565b6135268161329f565b82525050565b604082016000820151613542600085018261350e565b506020820151613555602085018261351d565b50505050565b6000613567838361352c565b60408301905092915050565b6000602082019050919050565b600061358b826134e2565b61359581856134ed565b93506135a0836134fe565b8060005b838110156135d15781516135b8888261355b565b97506135c383613573565b9250506001810190506135a4565b5085935050505092915050565b600060208201905081810360008301526135f88184613580565b905092915050565b600080fd5b600080fd5b6000601f19601f8301169050919050565b7f4e487b7100000000000000000000000000000000000000000000000000000000600052604160045260246000fd5b6136538261360a565b810181811067ffffffffffffffff821117156136725761367161361b565b5b80604052505050565b600061368561328b565b9050613691828261364a565b919050565b600067ffffffffffffffff8211156136b1576136b061361b565b5b6136ba8261360a565b9050602081019050919050565b82818337600083830152505050565b60006136e96136e484613696565b61367b565b90508281526020810184848401111561370557613704613605565b5b6137108482856136c7565b509392505050565b600082601f83011261372d5761372c613600565b5b813561373d8482602086016136d6565b91505092915050565b6000806040838503121561375d5761375c613295565b5b600061376b8582860161331e565b925050602083013567ffffffffffffffff81111561378c5761378b61329a565b5b61379885828601613718565b9150509250929050565b6000819050919050565b6137b5816137a2565b82525050565b60006020820190506137d060008301846137ac565b92915050565b6000806000606084860312156137ef576137ee613295565b5b60006137fd868287016132c0565b935050602061380e868287016132c0565b925050604061381f868287016132c0565b9150509250925092565b613832816132f5565b82525050565b600060208201905061384d6000830184613829565b92915050565b600067ffffffffffffffff82111561386e5761386d61361b565b5b602082029050602081019050919050565b600080fd5b600061389761389284613853565b61367b565b905080838252602082019050602084028301858111156138ba576138b961387f565b5b835b818110156138e357806138cf888261331e565b8452602084019350506020810190506138bc565b5050509392505050565b600082601f83011261390257613901613600565b5b8135613912848260208601613884565b91505092915050565b60008060006060848603121561393457613933613295565b5b6000613942868287016132c0565b9350506020613953868287016132c0565b925050604084013567ffffffffffffffff8111156139745761397361329a565b5b613980868287016138ed565b9150509250925092565b600081519050919050565b600082825260208201905092915050565b6000819050602082019050919050565b600081519050919050565b600082825260208201905092915050565b60005b838110156139f05780820151818401526020810190506139d5565b60008484015250505050565b6000613a07826139b6565b613a1181856139c1565b9350613a218185602086016139d2565b613a2a8161360a565b840191505092915050565b6000613a4183836139fc565b905092915050565b6000602082019050919050565b6000613a618261398a565b613a6b8185613995565b935083602082028501613a7d856139a6565b8060005b85811015613ab95784840389528151613a9a8582613a35565b9450613aa583613a49565b925060208a01995050600181019050613a81565b50829750879550505050505092915050565b600081519050919050565b600082825260208201905092915050565b6000819050602082019050919050565b6000613b03838361351d565b60208301905092915050565b6000602082019050919050565b6000613b2782613acb565b613b318185613ad6565b9350613b3c83613ae7565b8060005b83811015613b6d578151613b548882613af7565b9750613b5f83613b0f565b925050600181019050613b40565b5085935050505092915050565b600060c082019050613b8f6000830189613829565b8181036020830152613ba18188613a56565b90508181036040830152613bb58187613b1c565b90508181036060830152613bc98186613b1c565b9050613bd860808301856133d4565b613be560a08301846133d4565b979650505050505050565b600067ffffffffffffffff821115613c0b57613c0a61361b565b5b602082029050602081019050919050565b600067ffffffffffffffff821115613c3757613c3661361b565b5b613c408261360a565b9050602081019050919050565b6000613c60613c5b84613c1c565b61367b565b905082815260208101848484011115613c7c57613c7b613605565b5b613c878482856136c7565b509392505050565b600082601f830112613ca457613ca3613600565b5b8135613cb4848260208601613c4d565b91505092915050565b6000613cd0613ccb84613bf0565b61367b565b90508083825260208201905060208402830185811115613cf357613cf261387f565b5b835b81811015613d3a57803567ffffffffffffffff811115613d1857613d17613600565b5b808601613d258982613c8f565b85526020850194505050602081019050613cf5565b5050509392505050565b600082601f830112613d5957613d58613600565b5b8135613d69848260208601613cbd565b91505092915050565b600060208284031215613d8857613d87613295565b5b600082013567ffffffffffffffff811115613da657613da561329a565b5b613db284828501613d44565b91505092915050565b6000604082019050613dd06000830185613829565b613ddd60208301846133d4565b9392505050565b600081519050919050565b600082825260208201905092915050565b6000819050602082019050919050565b606082016000820151613e26600085018261351d565b506020820151613e39602085018261351d565b506040820151613e4c604085018261351d565b50505050565b6000613e5e8383613e10565b60608301905092915050565b6000602082019050919050565b6000613e8282613de4565b613e8c8185613def565b9350613e9783613e00565b8060005b83811015613ec8578151613eaf8882613e52565b9750613eba83613e6a565b925050600181019050613e9b565b5085935050505092915050565b60006020820190508181036000830152613eef8184613e77565b905092915050565b60008115159050919050565b613f0c81613ef7565b8114613f1757600080fd5b50565b600081519050613f2981613f03565b92915050565b600060208284031215613f4557613f44613295565b5b6000613f5384828501613f1a565b91505092915050565b600082825260208201905092915050565b7f5472616e73666572206661696c65640000000000000000000000000000000000600082015250565b6000613fa3600f83613f5c565b9150613fae82613f6d565b602082019050919050565b60006020820190508181036000830152613fd281613f96565b9050919050565b7f4e487b7100000000000000000000000000000000000000000000000000000000600052601160045260246000fd5b60006140138261329f565b915061401e8361329f565b925082820390508181111561403657614035613fd9565b5b92915050565b600060408201905061405160008301856133d4565b61405e60208301846133d4565b9392505050565b7f46756e6374696f6e206d7573742062652063616c6c6564207468726f7567682060008201527f64656c656761746563616c6c0000000000000000000000000000000000000000602082015250565b60006140c1602c83613f5c565b91506140cc82614065565b604082019050919050565b600060208201905081810360008301526140f0816140b4565b9050919050565b7f46756e6374696f6e206d7573742062652063616c6c6564207468726f7567682060008201527f6163746976652070726f78790000000000000000000000000000000000000000602082015250565b6000614153602c83613f5c565b915061415e826140f7565b604082019050919050565b6000602082019050818103600083015261418281614146565b9050919050565b7f555550535570677261646561626c653a206d757374206e6f742062652063616c60008201527f6c6564207468726f7567682064656c656761746563616c6c0000000000000000602082015250565b60006141e5603883613f5c565b91506141f082614189565b604082019050919050565b60006020820190508181036000830152614214816141d8565b9050919050565b7f506f696e7473206d7573742062652067726561746572207468616e207a65726f600082015250565b6000614251602083613f5c565b915061425c8261421b565b602082019050919050565b6000602082019050818103600083015261428081614244565b9050919050565b60006142928261329f565b915061429d8361329f565b92508282019050808211156142b5576142b4613fd9565b5b92915050565b7f496e73756666696369656e7420766f74696e6720726967687473000000000000600082015250565b60006142f1601a83613f5c565b91506142fc826142bb565b602082019050919050565b60006020820190508181036000830152614320816142e4565b9050919050565b7f4e487b7100000000000000000000000000000000000000000000000000000000600052603260045260246000fd5b600081519050919050565b600082825260208201905092915050565b6000819050602082019050919050565b600061438e838361350e565b60208301905092915050565b6000602082019050919050565b60006143b282614356565b6143bc8185614361565b93506143c783614372565b8060005b838110156143f85781516143df8882614382565b97506143ea8361439a565b9250506001810190506143cb565b5085935050505092915050565b600060608201905061441a60008301866133d4565b61442760208301856133d4565b818103604083015261443981846143a7565b9050949350505050565b60006060820190506144586000830186613829565b6144656020830185613829565b61447260408301846133d4565b949350505050565b7f4e487b7100000000000000000000000000000000000000000000000000000000600052602260045260246000fd5b600060028204905060018216806144c157607f821691505b6020821081036144d4576144d361447a565b5b50919050565b60006144e58261329f565b91506144f08361329f565b92508282026144fe8161329f565b9150828204841483151761451557614514613fd9565b5b5092915050565b7f4e487b7100000000000000000000000000000000000000000000000000000000600052601260045260246000fd5b60006145568261329f565b91506145618361329f565b9250826145715761457061451c565b5b828204905092915050565b7f6c656e206572726f720000000000000000000000000000000000000000000000600082015250565b60006145b2600983613f5c565b91506145bd8261457c565b602082019050919050565b600060208201905081810360008301526145e1816145a5565b9050919050565b60008190508160005260206000209050919050565b60006020601f8301049050919050565b600082821b905092915050565b60006008830261464a7fffffffffffffffffffffffffffffffffffffffffffffffffffffffffffffffff8261460d565b614654868361460d565b95508019841693508086168417925050509392505050565b6000819050919050565b600061469161468c6146878461329f565b61466c565b61329f565b9050919050565b6000819050919050565b6146ab83614676565b6146bf6146b782614698565b84845461461a565b825550505050565b600090565b6146d46146c7565b6146df8184846146a2565b505050565b5b81811015614703576146f86000826146cc565b6001810190506146e5565b5050565b601f82111561474857614719816145e8565b614722846145fd565b81016020851015614731578190505b61474561473d856145fd565b8301826146e4565b50505b505050565b600082821c905092915050565b600061476b6000198460080261474d565b1980831691505092915050565b6000614784838361475a565b9150826002028217905092915050565b61479d826139b6565b67ffffffffffffffff8111156147b6576147b561361b565b5b6147c082546144a9565b6147cb828285614707565b600060209050601f8311600181146147fe57600084156147ec578287015190505b6147f68582614778565b86555061485e565b601f19841661480c866145e8565b60005b828110156148345784890151825560018201915060208501945060208101905061480f565b86831015614851578489015161484d601f89168261475a565b8355505b6001600288020188555050505b505050505050565b600060208201905081810360008301526148808184613a56565b905092915050565b7f496e697469616c697a61626c653a20636f6e747261637420697320616c72656160008201527f647920696e697469616c697a6564000000000000000000000000000000000000602082015250565b60006148e4602e83613f5c565b91506148ef82614888565b604082019050919050565b60006020820190508181036000830152614913816148d7565b9050919050565b6000819050919050565b600060ff82169050919050565b600061494c6149476149428461491a565b61466c565b614924565b9050919050565b61495c81614931565b82525050565b60006020820190506149776000830184614953565b92915050565b7f446561646c696e65206d7573742062652067726561746572207468616e20637560008201527f7272656e742074696d6500000000000000000000000000000000000000000000602082015250565b60006149d9602a83613f5c565b91506149e48261497d565b604082019050919050565b60006020820190508181036000830152614a08816149cc565b9050919050565b614a18816137a2565b8114614a2357600080fd5b50565b600081519050614a3581614a0f565b92915050565b600060208284031215614a5157614a50613295565b5b6000614a5f84828501614a26565b91505092915050565b7f45524331393637557067726164653a206e657720696d706c656d656e7461746960008201527f6f6e206973206e6f742055555053000000000000000000000000000000000000602082015250565b6000614ac4602e83613f5c565b9150614acf82614a68565b604082019050919050565b60006020820190508181036000830152614af381614ab7565b9050919050565b7f45524331393637557067726164653a20756e737570706f727465642070726f7860008201527f6961626c65555549440000000000000000000000000000000000000000000000602082015250565b6000614b56602983613f5c565b9150614b6182614afa565b604082019050919050565b60006020820190508181036000830152614b8581614b49565b9050919050565b60006060820190508181036000830152614ba681866143a7565b9050614bb560208301856133d4565b614bc260408301846133d4565b949350505050565b7f496e646578206f7574206f6620626f756e647300000000000000000000000000600082015250565b6000614c00601383613f5c565b9150614c0b82614bca565b602082019050919050565b60006020820190508181036000830152614c2f81614bf3565b9050919050565b7f4e487b7100000000000000000000000000000000000000000000000000000000600052603160045260246000fd5b7f455243313936373a206e657720696d706c656d656e746174696f6e206973206e60008201527f6f74206120636f6e747261637400000000000000000000000000000000000000602082015250565b6000614cc1602d83613f5c565b9150614ccc82614c65565b604082019050919050565b60006020820190508181036000830152614cf081614cb4565b9050919050565b6000614d0282613373565b9150614d0d83613373565b9250828202614d1b81613373565b91507f80000000000000000000000000000000000000000000000000000000000000008414600084121615614d5357614d52613fd9565b5b8282058414831517614d6857614d67613fd9565b5b5092915050565b600081519050919050565b600081905092915050565b6000614d9082614d6f565b614d9a8185614d7a565b9350614daa8185602086016139d2565b80840191505092915050565b6000614dc28284614d85565b915081905092915050565b7f416464726573733a2063616c6c20746f206e6f6e2d636f6e7472616374000000600082015250565b6000614e03601d83613f5c565b9150614e0e82614dcd565b602082019050919050565b60006020820190508181036000830152614e3281614df6565b9050919050565b6000614e44826139b6565b614e4e8185613f5c565b9350614e5e8185602086016139d2565b614e678161360a565b840191505092915050565b60006020820190508181036000830152614e8c8184614e39565b90509291505056fe416464726573733a206c6f772d6c6576656c2064656c65676174652063616c6c206661696c6564a264697066735822122009bba1a2ca70f65c5dab3df12b6a91f9f961a3a37bb3de5c5f3a260a8353139164736f6c63430008180033",
  "linkReferences": {},
  "deployedLinkReferences": {}
}