{
  "_format": "hh-sol-artifact-1",
  "contractName": "Proposal",
  "sourceName": "contracts/Proposal.sol",
  "abi": [
    {
      "inputs": [
        {
          "internalType": "address",
          "name": "user",
          "type": "address"
        },
        {
          "internalType": "uint256",
          "name": "availableBalance",
          "type": "uint256"
        }
      ],
      "name": "InsufficientBalance",
      "type": "error"
    },
    {
      "inputs": [
        {
          "internalType": "address",
          "name": "account",
          "type": "address"
        }
      ],
      "name": "OwnableUnauthorizedAccount",
      "type": "error"
    },
    {
      "anonymous": false,
      "inputs": [
        {
          "indexed": false,
          "internalType": "address",
          "name": "previousAdmin",
          "type": "address"
        },
        {
          "indexed": false,
          "internalType": "address",
          "name": "newAdmin",
          "type": "address"
        }
      ],
      "name": "AdminChanged",
      "type": "event"
    },
    {
      "anonymous": false,
      "inputs": [
        {
          "indexed": true,
          "internalType": "address",
          "name": "beacon",
          "type": "address"
        }
      ],
      "name": "BeaconUpgraded",
      "type": "event"
    },
    {
      "anonymous": false,
      "inputs": [
        {
          "indexed": true,
          "internalType": "address",
          "name": "founder",
          "type": "address"
        },
        {
          "indexed": true,
          "internalType": "uint256",
          "name": "id",
          "type": "uint256"
        },
        {
          "indexed": false,
          "internalType": "string[]",
          "name": "options",
          "type": "string[]"
        }
      ],
      "name": "Create",
      "type": "event"
    },
    {
      "anonymous": false,
      "inputs": [
        {
          "indexed": true,
          "internalType": "address",
          "name": "user",
          "type": "address"
        },
        {
          "indexed": false,
          "internalType": "uint256",
          "name": "amount",
          "type": "uint256"
        }
      ],
      "name": "Deposited",
      "type": "event"
    },
    {
      "anonymous": false,
      "inputs": [
        {
          "indexed": true,
          "internalType": "address",
          "name": "user",
          "type": "address"
        },
        {
          "indexed": false,
          "internalType": "uint256",
          "name": "points",
          "type": "uint256"
        }
      ],
      "name": "ExchangePoints",
      "type": "event"
    },
    {
      "anonymous": false,
      "inputs": [
        {
          "indexed": false,
          "internalType": "uint8",
          "name": "version",
          "type": "uint8"
        }
      ],
      "name": "Initialized",
      "type": "event"
    },
    {
      "anonymous": false,
      "inputs": [
        {
          "indexed": true,
          "internalType": "uint256",
          "name": "proposalId",
          "type": "uint256"
        },
        {
          "indexed": false,
          "internalType": "address[]",
          "name": "jurors",
          "type": "address[]"
        },
        {
          "indexed": false,
          "internalType": "uint256",
          "name": "reward",
          "type": "uint256"
        },
        {
          "indexed": false,
          "internalType": "uint256",
          "name": "rewardPerJuror",
          "type": "uint256"
        }
      ],
      "name": "JurorsDistributeRewards",
      "type": "event"
    },
    {
      "anonymous": false,
      "inputs": [
        {
          "indexed": true,
          "internalType": "uint256",
          "name": "proposalId",
          "type": "uint256"
        },
        {
          "indexed": false,
          "internalType": "uint256",
          "name": "winOptionId",
          "type": "uint256"
        }
      ],
      "name": "Refunded",
      "type": "event"
    },
    {
      "anonymous": false,
      "inputs": [
        {
          "indexed": false,
          "internalType": "uint256",
          "name": "proposalId",
          "type": "uint256"
        },
        {
          "indexed": false,
          "internalType": "uint256",
          "name": "winningOptionId",
          "type": "uint256"
        },
        {
          "indexed": false,
          "internalType": "address[]",
          "name": "jurors",
          "type": "address[]"
        }
      ],
      "name": "Settle",
      "type": "event"
    },
    {
      "anonymous": false,
      "inputs": [
        {
          "indexed": true,
          "internalType": "address",
          "name": "implementation",
          "type": "address"
        }
      ],
      "name": "Upgraded",
      "type": "event"
    },
    {
      "anonymous": false,
      "inputs": [
        {
          "indexed": true,
          "internalType": "address",
          "name": "_address",
          "type": "address"
        },
        {
          "indexed": true,
          "internalType": "uint256",
          "name": "_proposalId",
          "type": "uint256"
        },
        {
          "indexed": true,
          "internalType": "uint256",
          "name": "_optionId",
          "type": "uint256"
        },
        {
          "indexed": false,
          "internalType": "uint256",
          "name": "_amount",
          "type": "uint256"
        }
      ],
      "name": "Voted",
      "type": "event"
    },
    {
      "anonymous": false,
      "inputs": [
        {
          "indexed": true,
          "internalType": "address",
          "name": "user",
          "type": "address"
        },
        {
          "indexed": false,
          "internalType": "uint256",
          "name": "amount",
          "type": "uint256"
        },
        {
          "indexed": false,
          "internalType": "uint256",
          "name": "balance",
          "type": "uint256"
        }
      ],
      "name": "Withdraw",
      "type": "event"
    },
    {
      "inputs": [
        {
          "internalType": "address",
          "name": "user",
          "type": "address"
        },
        {
          "internalType": "uint256",
          "name": "interestAmount",
          "type": "uint256"
        }
      ],
      "name": "addInterest",
      "outputs": [],
      "stateMutability": "nonpayable",
      "type": "function"
    },
    {
      "inputs": [
        {
          "internalType": "address",
          "name": "",
          "type": "address"
        }
      ],
      "name": "balances",
      "outputs": [
        {
          "internalType": "uint256",
          "name": "",
          "type": "uint256"
        }
      ],
      "stateMutability": "view",
      "type": "function"
    },
    {
      "inputs": [
        {
          "internalType": "string[]",
          "name": "optionDescs",
          "type": "string[]"
        }
      ],
      "name": "create",
      "outputs": [],
      "stateMutability": "nonpayable",
      "type": "function"
    },
    {
      "inputs": [
        {
          "internalType": "uint256",
          "name": "amount",
          "type": "uint256"
        }
      ],
      "name": "deposit",
      "outputs": [
        {
          "internalType": "uint256",
          "name": "",
          "type": "uint256"
        }
      ],
      "stateMutability": "nonpayable",
      "type": "function"
    },
    {
      "inputs": [
        {
          "internalType": "uint256",
          "name": "points",
          "type": "uint256"
        }
      ],
      "name": "exchangePoints",
      "outputs": [],
      "stateMutability": "nonpayable",
      "type": "function"
    },
    {
      "inputs": [
        {
          "internalType": "address",
          "name": "user",
          "type": "address"
        }
      ],
      "name": "getAvailableBalance",
      "outputs": [
        {
          "internalType": "uint256",
          "name": "",
          "type": "uint256"
        }
      ],
      "stateMutability": "view",
      "type": "function"
    },
    {
      "inputs": [
        {
          "internalType": "uint256",
          "name": "proposalId",
          "type": "uint256"
        }
      ],
      "name": "getDetails",
      "outputs": [
        {
          "internalType": "address",
          "name": "founder",
          "type": "address"
        },
        {
          "internalType": "string[]",
          "name": "optionDescription",
          "type": "string[]"
        },
        {
          "internalType": "uint256[]",
          "name": "counts",
          "type": "uint256[]"
        },
        {
          "internalType": "uint256[]",
          "name": "voters",
          "type": "uint256[]"
        },
        {
          "internalType": "uint256",
          "name": "allVotesCast",
          "type": "uint256"
        },
        {
          "internalType": "uint256",
          "name": "allVoters",
          "type": "uint256"
        }
      ],
      "stateMutability": "view",
      "type": "function"
    },
    {
      "inputs": [
        {
          "internalType": "uint256",
          "name": "proposalId",
          "type": "uint256"
        },
        {
          "internalType": "uint256",
          "name": "optionId",
          "type": "uint256"
        }
      ],
      "name": "getVoting",
      "outputs": [
        {
          "components": [
            {
              "internalType": "address",
              "name": "user",
              "type": "address"
            },
            {
              "internalType": "uint256",
              "name": "amount",
              "type": "uint256"
            }
          ],
          "internalType": "struct Proposal.VoteInfo[]",
          "name": "",
          "type": "tuple[]"
        }
      ],
      "stateMutability": "view",
      "type": "function"
    },
    {
      "inputs": [
        {
          "internalType": "address",
          "name": "_tokenAddr",
          "type": "address"
        },
        {
          "internalType": "address",
          "name": "_juryNFTSwapAddr",
          "type": "address"
        },
        {
          "internalType": "address",
          "name": "_pledgeAddr",
          "type": "address"
        }
      ],
      "name": "initialize",
      "outputs": [],
      "stateMutability": "nonpayable",
      "type": "function"
    },
    {
      "inputs": [],
      "name": "juryNFTSwap",
      "outputs": [
        {
          "internalType": "contract JuryNFTSwap",
          "name": "",
          "type": "address"
        }
      ],
      "stateMutability": "view",
      "type": "function"
    },
    {
      "inputs": [],
      "name": "logicAddress",
      "outputs": [
        {
          "internalType": "address",
          "name": "",
          "type": "address"
        }
      ],
      "stateMutability": "view",
      "type": "function"
    },
    {
      "inputs": [],
      "name": "mlnToken",
      "outputs": [
        {
          "internalType": "contract MelonToken",
          "name": "",
          "type": "address"
        }
      ],
      "stateMutability": "view",
      "type": "function"
    },
    {
      "inputs": [],
      "name": "owner",
      "outputs": [
        {
          "internalType": "address",
          "name": "",
          "type": "address"
        }
      ],
      "stateMutability": "view",
      "type": "function"
    },
    {
      "inputs": [],
      "name": "pledge",
      "outputs": [
        {
          "internalType": "contract Pledge",
          "name": "",
          "type": "address"
        }
      ],
      "stateMutability": "view",
      "type": "function"
    },
    {
      "inputs": [
        {
          "internalType": "uint256",
          "name": "",
          "type": "uint256"
        }
      ],
      "name": "proposalInfos",
      "outputs": [
        {
          "internalType": "address",
          "name": "founder",
          "type": "address"
        }
      ],
      "stateMutability": "view",
      "type": "function"
    },
    {
      "inputs": [],
      "name": "proxiableUUID",
      "outputs": [
        {
          "internalType": "bytes32",
          "name": "",
          "type": "bytes32"
        }
      ],
      "stateMutability": "view",
      "type": "function"
    },
    {
      "inputs": [
        {
          "internalType": "address",
          "name": "_juryNFTSwapAddr",
          "type": "address"
        }
      ],
      "name": "setNewJuryNFTSwap",
      "outputs": [],
      "stateMutability": "nonpayable",
      "type": "function"
    },
    {
      "inputs": [
        {
          "internalType": "address",
          "name": "_pledgeAddr",
          "type": "address"
        }
      ],
      "name": "setNewPledge",
      "outputs": [],
      "stateMutability": "nonpayable",
      "type": "function"
    },
    {
      "inputs": [
        {
          "internalType": "address",
          "name": "_tokenAddr",
          "type": "address"
        }
      ],
      "name": "setNewToken",
      "outputs": [],
      "stateMutability": "nonpayable",
      "type": "function"
    },
    {
      "inputs": [
        {
          "internalType": "uint256",
          "name": "proposalId",
          "type": "uint256"
        },
        {
          "internalType": "uint256",
          "name": "winOptionId",
          "type": "uint256"
        },
        {
          "internalType": "address[]",
          "name": "jurors",
          "type": "address[]"
        }
      ],
      "name": "settle",
      "outputs": [],
      "stateMutability": "nonpayable",
      "type": "function"
    },
    {
      "inputs": [
        {
          "internalType": "address",
          "name": "newImplementation",
          "type": "address"
        }
      ],
      "name": "upgradeTo",
      "outputs": [],
      "stateMutability": "nonpayable",
      "type": "function"
    },
    {
      "inputs": [
        {
          "internalType": "address",
          "name": "newImplementation",
          "type": "address"
        },
        {
          "internalType": "bytes",
          "name": "data",
          "type": "bytes"
        }
      ],
      "name": "upgradeToAndCall",
      "outputs": [],
      "stateMutability": "payable",
      "type": "function"
    },
    {
      "inputs": [
        {
          "internalType": "uint256",
          "name": "",
          "type": "uint256"
        },
        {
          "internalType": "address",
          "name": "",
          "type": "address"
        }
      ],
      "name": "userProposalResults",
      "outputs": [
        {
          "internalType": "int256",
          "name": "",
          "type": "int256"
        }
      ],
      "stateMutability": "view",
      "type": "function"
    },
    {
      "inputs": [
        {
          "internalType": "uint256",
          "name": "proposalId",
          "type": "uint256"
        },
        {
          "internalType": "uint256",
          "name": "optionId",
          "type": "uint256"
        },
        {
          "internalType": "uint256",
          "name": "amount",
          "type": "uint256"
        }
      ],
      "name": "vote",
      "outputs": [],
      "stateMutability": "nonpayable",
      "type": "function"
    },
    {
      "inputs": [
        {
          "internalType": "uint256",
          "name": "",
          "type": "uint256"
        },
        {
          "internalType": "uint256",
          "name": "",
          "type": "uint256"
        },
        {
          "internalType": "uint256",
          "name": "",
          "type": "uint256"
        }
      ],
      "name": "voting",
      "outputs": [
        {
          "internalType": "address",
          "name": "user",
          "type": "address"
        },
        {
          "internalType": "uint256",
          "name": "amount",
          "type": "uint256"
        }
      ],
      "stateMutability": "view",
      "type": "function"
    },
    {
      "inputs": [
        {
          "internalType": "address",
          "name": "",
          "type": "address"
        }
      ],
      "name": "votingLock",
      "outputs": [
        {
          "internalType": "uint256",
          "name": "",
          "type": "uint256"
        }
      ],
      "stateMutability": "view",
      "type": "function"
    },
    {
      "inputs": [
        {
          "internalType": "uint256",
          "name": "",
          "type": "uint256"
        }
      ],
      "name": "winningOption",
      "outputs": [
        {
          "internalType": "uint256",
          "name": "",
          "type": "uint256"
        }
      ],
      "stateMutability": "view",
      "type": "function"
    },
    {
      "inputs": [
        {
          "internalType": "uint256",
          "name": "amount",
          "type": "uint256"
        }
      ],
      "name": "withdraw",
      "outputs": [],
      "stateMutability": "nonpayable",
      "type": "function"
    }
  ],
  "bytecode": "0x60a06040523073ffffffffffffffffffffffffffffffffffffffff1660809073ffffffffffffffffffffffffffffffffffffffff1681525034801561004357600080fd5b50608051614bb061007b600039600081816109f801528181610a8601528181610c6401528181610cf20152610da20152614bb06000f3fe6080604052600436106101b75760003560e01c80638a471df9116100ec578063b6b55f251161008a578063bdd6909611610064578063bdd690961461064c578063bdd8e72e14610675578063c0c53b8b146106b3578063fb3ee525146106dc576101b7565b8063b6b55f25146105a4578063b7914a5b146105e1578063b93a89f71461060a576101b7565b80639b6f67be116100c65780639b6f67be146104d65780639c1fcc4c146104ff578063b00673bc1461052a578063b511328d14610567576101b7565b80638a471df9146104575780638a6655d6146104825780638da5cb5b146104ab576101b7565b806346a0d50a116101595780635ed411e5116101335780635ed411e51461039d5780636c24a76f146103c65780637c7b66f71461040357806388ffe8671461042c576101b7565b806346a0d50a146103195780634f1ef2861461035657806352d1902d14610372576101b7565b8063213b2ff311610195578063213b2ff31461026157806327e235e31461028a5780632e1a7d4d146102c75780633659cfe6146102f0576101b7565b80630c7353e0146101bc5780630dca7ed8146101f957806313eaa47414610236575b600080fd5b3480156101c857600080fd5b506101e360048036038101906101de91906130ec565b610705565b6040516101f09190613145565b60405180910390f35b34801561020557600080fd5b50610220600480360381019061021b9190613160565b61072a565b60405161022d919061319c565b60405180910390f35b34801561024257600080fd5b5061024b610742565b6040516102589190613216565b60405180910390f35b34801561026d57600080fd5b5061028860048036038101906102839190613231565b610768565b005b34801561029657600080fd5b506102b160048036038101906102ac9190613271565b6107c2565b6040516102be919061319c565b60405180910390f35b3480156102d357600080fd5b506102ee60048036038101906102e99190613160565b6107da565b005b3480156102fc57600080fd5b5061031760048036038101906103129190613271565b6109f6565b005b34801561032557600080fd5b50610340600480360381019061033b919061329e565b610b7e565b60405161034d91906133da565b60405180910390f35b610370600480360381019061036b9190613542565b610c62565b005b34801561037e57600080fd5b50610387610d9e565b60405161039491906135b7565b60405180910390f35b3480156103a957600080fd5b506103c460048036038101906103bf9190613271565b610e57565b005b3480156103d257600080fd5b506103ed60048036038101906103e89190613271565b610f2d565b6040516103fa919061319c565b60405180910390f35b34801561040f57600080fd5b5061042a60048036038101906104259190613160565b61113e565b005b34801561043857600080fd5b50610441611228565b60405161044e91906135f3565b60405180910390f35b34801561046357600080fd5b5061046c61124e565b604051610479919061362f565b60405180910390f35b34801561048e57600080fd5b506104a960048036038101906104a4919061364a565b611274565b005b3480156104b757600080fd5b506104c06114d9565b6040516104cd91906136ac565b60405180910390f35b3480156104e257600080fd5b506104fd60048036038101906104f8919061378f565b6114ff565b005b34801561050b57600080fd5b50610514611590565b60405161052191906136ac565b60405180910390f35b34801561053657600080fd5b50610551600480360381019061054c9190613271565b6115b6565b60405161055e919061319c565b60405180910390f35b34801561057357600080fd5b5061058e60048036038101906105899190613160565b6115ce565b60405161059b91906136ac565b60405180910390f35b3480156105b057600080fd5b506105cb60048036038101906105c69190613160565b61161c565b6040516105d8919061319c565b60405180910390f35b3480156105ed57600080fd5b5061060860048036038101906106039190613271565b6117ea565b005b34801561061657600080fd5b50610631600480360381019061062c9190613160565b6118c0565b604051610643969594939291906139ee565b60405180910390f35b34801561065857600080fd5b50610673600480360381019061066e9190613be6565b611bf3565b005b34801561068157600080fd5b5061069c6004803603810190610697919061364a565b611db2565b6040516106aa929190613c2f565b60405180910390f35b3480156106bf57600080fd5b506106da60048036038101906106d59190613c58565b611e20565b005b3480156106e857600080fd5b5061070360048036038101906106fe9190613271565b61205d565b005b600a602052816000526040600020602052806000526040600020600091509150505481565b60096020528060005260406000206000915090505481565b600360009054906101000a900473ffffffffffffffffffffffffffffffffffffffff1681565b80600660008473ffffffffffffffffffffffffffffffffffffffff1673ffffffffffffffffffffffffffffffffffffffff16815260200190815260200160002060008282546107b79190613cda565b925050819055505050565b60066020528060005260406000206000915090505481565b60006107e533610f2d565b90508181101561082e5733816040517ff6deaa04000000000000000000000000000000000000000000000000000000008152600401610825929190613c2f565b60405180910390fd5b600260009054906101000a900473ffffffffffffffffffffffffffffffffffffffff1673ffffffffffffffffffffffffffffffffffffffff1663a9059cbb33846040518363ffffffff1660e01b815260040161088b929190613c2f565b6020604051808303816000875af11580156108aa573d6000803e3d6000fd5b505050506040513d601f19601f820116820180604052508101906108ce9190613d46565b61090d576040517f08c379a000000000000000000000000000000000000000000000000000000000815260040161090490613dd0565b60405180910390fd5b81600660003373ffffffffffffffffffffffffffffffffffffffff1673ffffffffffffffffffffffffffffffffffffffff168152602001908152602001600020600082825461095c9190613df0565b925050819055503373ffffffffffffffffffffffffffffffffffffffff167ff279e6a1f5e320cca91135676d9cb6e44ca8a08c0b88342bcdb1144f6511b56883600660003373ffffffffffffffffffffffffffffffffffffffff1673ffffffffffffffffffffffffffffffffffffffff168152602001908152602001600020546040516109ea929190613e24565b60405180910390a25050565b7f000000000000000000000000000000000000000000000000000000000000000073ffffffffffffffffffffffffffffffffffffffff163073ffffffffffffffffffffffffffffffffffffffff1603610a84576040517f08c379a0000000000000000000000000000000000000000000000000000000008152600401610a7b90613ebf565b60405180910390fd5b7f000000000000000000000000000000000000000000000000000000000000000073ffffffffffffffffffffffffffffffffffffffff16610ac3612133565b73ffffffffffffffffffffffffffffffffffffffff1614610b19576040517f08c379a0000000000000000000000000000000000000000000000000000000008152600401610b1090613f51565b60405180910390fd5b610b228161218a565b610b7b81600067ffffffffffffffff811115610b4157610b40613417565b5b6040519080825280601f01601f191660200182016040528015610b735781602001600182028036833780820191505090505b506000612260565b50565b6060600860008481526020019081526020016000206000838152602001908152602001600020805480602002602001604051908101604052809291908181526020016000905b82821015610c5657838290600052602060002090600202016040518060400160405290816000820160009054906101000a900473ffffffffffffffffffffffffffffffffffffffff1673ffffffffffffffffffffffffffffffffffffffff1673ffffffffffffffffffffffffffffffffffffffff16815260200160018201548152505081526020019060010190610bc4565b50505050905092915050565b7f000000000000000000000000000000000000000000000000000000000000000073ffffffffffffffffffffffffffffffffffffffff163073ffffffffffffffffffffffffffffffffffffffff1603610cf0576040517f08c379a0000000000000000000000000000000000000000000000000000000008152600401610ce790613ebf565b60405180910390fd5b7f000000000000000000000000000000000000000000000000000000000000000073ffffffffffffffffffffffffffffffffffffffff16610d2f612133565b73ffffffffffffffffffffffffffffffffffffffff1614610d85576040517f08c379a0000000000000000000000000000000000000000000000000000000008152600401610d7c90613f51565b60405180910390fd5b610d8e8261218a565b610d9a82826001612260565b5050565b60007f000000000000000000000000000000000000000000000000000000000000000073ffffffffffffffffffffffffffffffffffffffff163073ffffffffffffffffffffffffffffffffffffffff1614610e2e576040517f08c379a0000000000000000000000000000000000000000000000000000000008152600401610e2590613fe3565b60405180910390fd5b7f360894a13ba1a3210667c828492db98dca3e2076cc3735a920a3ca505d382bbc60001b905090565b3373ffffffffffffffffffffffffffffffffffffffff16600060029054906101000a900473ffffffffffffffffffffffffffffffffffffffff1673ffffffffffffffffffffffffffffffffffffffff1614610ee957336040517f118cdaa7000000000000000000000000000000000000000000000000000000008152600401610ee091906136ac565b60405180910390fd5b80600260006101000a81548173ffffffffffffffffffffffffffffffffffffffff021916908373ffffffffffffffffffffffffffffffffffffffff16021790555050565b600080600090506000600460009054906101000a900473ffffffffffffffffffffffffffffffffffffffff1673ffffffffffffffffffffffffffffffffffffffff16638c5fe473856040518263ffffffff1660e01b8152600401610f9191906136ac565b602060405180830381865afa158015610fae573d6000803e3d6000fd5b505050506040513d601f19601f82011682018060405250810190610fd29190614018565b90506000600360009054906101000a900473ffffffffffffffffffffffffffffffffffffffff1673ffffffffffffffffffffffffffffffffffffffff16639f4556d4866040518263ffffffff1660e01b815260040161103191906136ac565b602060405180830381865afa15801561104e573d6000803e3d6000fd5b505050506040513d601f19601f820116820180604052508101906110729190614018565b90506000600760008773ffffffffffffffffffffffffffffffffffffffff1673ffffffffffffffffffffffffffffffffffffffff16815260200190815260200160002054905081846110c49190613cda565b935080846110d29190613cda565b935082846110e09190613cda565b93506000600660008873ffffffffffffffffffffffffffffffffffffffff1673ffffffffffffffffffffffffffffffffffffffff16815260200190815260200160002054905084816111329190613df0565b95505050505050919050565b60008111611181576040517f08c379a000000000000000000000000000000000000000000000000000000000815260040161117890614091565b60405180910390fd5b80600660003373ffffffffffffffffffffffffffffffffffffffff1673ffffffffffffffffffffffffffffffffffffffff16815260200190815260200160002060008282546111d09190613cda565b925050819055503373ffffffffffffffffffffffffffffffffffffffff167fa0c8eda28ab82fe28c2bcaa48a1ce2b5eac8dbed005a6e8eb62398577e908d5c8260405161121d919061319c565b60405180910390a250565b600460009054906101000a900473ffffffffffffffffffffffffffffffffffffffff1681565b600260009054906101000a900473ffffffffffffffffffffffffffffffffffffffff1681565b8061127e33610f2d565b10156112bf576040517f08c379a00000000000000000000000000000000000000000000000000000000081526004016112b6906140fd565b60405180910390fd5b80600760003373ffffffffffffffffffffffffffffffffffffffff1673ffffffffffffffffffffffffffffffffffffffff168152602001908152602001600020600082825461130e9190613cda565b9250508190555060006005848154811061132b5761132a61411d565b5b90600052602060002090600202019050818160010184815481106113525761135161411d565b5b906000526020600020906003020160010160008282546113729190613cda565b9250508190555060018160010184815481106113915761139061411d565b5b906000526020600020906003020160020160008282546113b19190613cda565b9250508190555060086000858152602001908152602001600020600084815260200190815260200160002060405180604001604052803373ffffffffffffffffffffffffffffffffffffffff16815260200184815250908060018154018082558091505060019003906000526020600020906002020160009091909190915060008201518160000160006101000a81548173ffffffffffffffffffffffffffffffffffffffff021916908373ffffffffffffffffffffffffffffffffffffffff16021790555060208201518160010155505082843373ffffffffffffffffffffffffffffffffffffffff167fc32b42768a47a585121e9b8d7a2ab9d3f34c326a192dee11ee1732e3d18313f3856040516114cb919061319c565b60405180910390a450505050565b600060029054906101000a900473ffffffffffffffffffffffffffffffffffffffff1681565b7f96a54eb5c3629a7082316372c06617c472b5958a748182a70c0ba0b1c7e3c886838383604051611532939291906141fb565b60405180910390a1600061154684846123ce565b9050801561155d5761155884846125ca565b611572565b611567848361274c565b61157184846128c8565b5b82600960008681526020019081526020016000208190555050505050565b600160009054906101000a900473ffffffffffffffffffffffffffffffffffffffff1681565b60076020528060005260406000206000915090505481565b600581815481106115de57600080fd5b90600052602060002090600202016000915090508060000160009054906101000a900473ffffffffffffffffffffffffffffffffffffffff16905081565b6000600260009054906101000a900473ffffffffffffffffffffffffffffffffffffffff1673ffffffffffffffffffffffffffffffffffffffff166323b872dd3330856040518463ffffffff1660e01b815260040161167d93929190614239565b6020604051808303816000875af115801561169c573d6000803e3d6000fd5b505050506040513d601f19601f820116820180604052508101906116c09190613d46565b6116ff576040517f08c379a00000000000000000000000000000000000000000000000000000000081526004016116f690613dd0565b60405180910390fd5b81600660003373ffffffffffffffffffffffffffffffffffffffff1673ffffffffffffffffffffffffffffffffffffffff168152602001908152602001600020600082825461174e9190613cda565b925050819055503373ffffffffffffffffffffffffffffffffffffffff167f2da466a7b24304f47e87fa2e1e5a81b9831ce54fec19055ce277ca2f39ba42c48360405161179b919061319c565b60405180910390a2600660003373ffffffffffffffffffffffffffffffffffffffff1673ffffffffffffffffffffffffffffffffffffffff168152602001908152602001600020549050919050565b3373ffffffffffffffffffffffffffffffffffffffff16600060029054906101000a900473ffffffffffffffffffffffffffffffffffffffff1673ffffffffffffffffffffffffffffffffffffffff161461187c57336040517f118cdaa700000000000000000000000000000000000000000000000000000000815260040161187391906136ac565b60405180910390fd5b80600360006101000a81548173ffffffffffffffffffffffffffffffffffffffff021916908373ffffffffffffffffffffffffffffffffffffffff16021790555050565b600060608060606000806000600588815481106118e0576118df61411d565b5b906000526020600020906002020190506000816001018054905090508067ffffffffffffffff81111561191657611915613417565b5b60405190808252806020026020018201604052801561194957816020015b60608152602001906001900390816119345790505b5096508067ffffffffffffffff81111561196657611965613417565b5b6040519080825280602002602001820160405280156119945781602001602082028036833780820191505090505b5095508067ffffffffffffffff8111156119b1576119b0613417565b5b6040519080825280602002602001820160405280156119df5781602001602082028036833780820191505090505b5094508160000160009054906101000a900473ffffffffffffffffffffffffffffffffffffffff16975060005b81811015611be757826001018181548110611a2a57611a2961411d565b5b90600052602060002090600302016000018054611a469061429f565b80601f0160208091040260200160405190810160405280929190818152602001828054611a729061429f565b8015611abf5780601f10611a9457610100808354040283529160200191611abf565b820191906000526020600020905b815481529060010190602001808311611aa257829003601f168201915b5050505050888281518110611ad757611ad661411d565b5b6020026020010181905250826001018181548110611af857611af761411d565b5b906000526020600020906003020160010154878281518110611b1d57611b1c61411d565b5b602002602001018181525050826001018181548110611b3f57611b3e61411d565b5b906000526020600020906003020160020154868281518110611b6457611b6361411d565b5b602002602001018181525050826001018181548110611b8657611b8561411d565b5b90600052602060002090600302016002015484611ba39190613cda565b9350826001018181548110611bbb57611bba61411d565b5b90600052602060002090600302016001015485611bd89190613cda565b94508080600101915050611a0c565b50505091939550919395565b6000815111611c37576040517f08c379a0000000000000000000000000000000000000000000000000000000008152600401611c2e9061431c565b60405180910390fd5b600060056001816001815401808255809150500390600052602060002090600202019050338160000160006101000a81548173ffffffffffffffffffffffffffffffffffffffff021916908373ffffffffffffffffffffffffffffffffffffffff16021790555060005b8251811015611d4757816001016040518060600160405280858481518110611ccc57611ccb61411d565b5b6020026020010151815260200160008152602001600081525090806001815401808255809150506001900390600052602060002090600302016000909190919091506000820151816000019081611d2391906144de565b50602082015181600101556040820151816002015550508080600101915050611ca1565b5060006001600580549050611d5c9190613df0565b9050803373ffffffffffffffffffffffffffffffffffffffff167f66a044198f8a0fc35ed879be5d27c3d6ca15787c13093f47e3ba8a94c78eb79685604051611da591906145b0565b60405180910390a3505050565b60086020528260005260406000206020528160005260406000208181548110611dda57600080fd5b906000526020600020906002020160009250925050508060000160009054906101000a900473ffffffffffffffffffffffffffffffffffffffff16908060010154905082565b60008060019054906101000a900460ff16159050808015611e515750600160008054906101000a900460ff1660ff16105b80611e7e5750611e6030612ae6565b158015611e7d5750600160008054906101000a900460ff1660ff16145b5b611ebd576040517f08c379a0000000000000000000000000000000000000000000000000000000008152600401611eb490614644565b60405180910390fd5b60016000806101000a81548160ff021916908360ff1602179055508015611efa576001600060016101000a81548160ff0219169083151502179055505b83600260006101000a81548173ffffffffffffffffffffffffffffffffffffffff021916908373ffffffffffffffffffffffffffffffffffffffff16021790555082600360006101000a81548173ffffffffffffffffffffffffffffffffffffffff021916908373ffffffffffffffffffffffffffffffffffffffff16021790555081600460006101000a81548173ffffffffffffffffffffffffffffffffffffffff021916908373ffffffffffffffffffffffffffffffffffffffff16021790555033600060026101000a81548173ffffffffffffffffffffffffffffffffffffffff021916908373ffffffffffffffffffffffffffffffffffffffff16021790555080156120575760008060016101000a81548160ff0219169083151502179055507f7f26b83ff96e1f2b6a682f133852f6798a09c465da95921460cefb3847402498600160405161204e91906146ac565b60405180910390a15b50505050565b3373ffffffffffffffffffffffffffffffffffffffff16600060029054906101000a900473ffffffffffffffffffffffffffffffffffffffff1673ffffffffffffffffffffffffffffffffffffffff16146120ef57336040517f118cdaa70000000000000000000000000000000000000000000000000000000081526004016120e691906136ac565b60405180910390fd5b80600460006101000a81548173ffffffffffffffffffffffffffffffffffffffff021916908373ffffffffffffffffffffffffffffffffffffffff16021790555050565b60006121617f360894a13ba1a3210667c828492db98dca3e2076cc3735a920a3ca505d382bbc60001b612b09565b60000160009054906101000a900473ffffffffffffffffffffffffffffffffffffffff16905090565b3373ffffffffffffffffffffffffffffffffffffffff16600060029054906101000a900473ffffffffffffffffffffffffffffffffffffffff1673ffffffffffffffffffffffffffffffffffffffff161461221c57336040517f118cdaa700000000000000000000000000000000000000000000000000000000815260040161221391906136ac565b60405180910390fd5b80600160006101000a81548173ffffffffffffffffffffffffffffffffffffffff021916908373ffffffffffffffffffffffffffffffffffffffff16021790555050565b61228c7f4910fdfa16fed3260ed0e7147f7cc6da11a60208b5b9406d12a635614ffd914360001b612b13565b60000160009054906101000a900460ff16156122b0576122ab83612b1d565b6123c9565b8273ffffffffffffffffffffffffffffffffffffffff166352d1902d6040518163ffffffff1660e01b8152600401602060405180830381865afa92505050801561231857506040513d601f19601f8201168201806040525081019061231591906146f3565b60015b612357576040517f08c379a000000000000000000000000000000000000000000000000000000000815260040161234e90614792565b60405180910390fd5b7f360894a13ba1a3210667c828492db98dca3e2076cc3735a920a3ca505d382bbc60001b81146123bc576040517f08c379a00000000000000000000000000000000000000000000000000000000081526004016123b390614824565b60405180910390fd5b506123c8838383612bd6565b5b505050565b600080600584815481106123e5576123e461411d565b5b90600052602060002090600202016040518060400160405290816000820160009054906101000a900473ffffffffffffffffffffffffffffffffffffffff1673ffffffffffffffffffffffffffffffffffffffff1673ffffffffffffffffffffffffffffffffffffffff16815260200160018201805480602002602001604051908101604052809291908181526020016000905b8282101561255157838290600052602060002090600302016040518060600160405290816000820180546124ac9061429f565b80601f01602080910402602001604051908101604052809291908181526020018280546124d89061429f565b80156125255780601f106124fa57610100808354040283529160200191612525565b820191906000526020600020905b81548152906001019060200180831161250857829003601f168201915b505050505081526020016001820154815260200160028201548152505081526020019060010190612479565b5050505081525050905060008160200151905060005b81518110156125bc5784811415801561259e575060008282815181106125905761258f61411d565b5b602002602001015160200151115b156125af57600093505050506125c4565b8080600101915050612567565b506001925050505b92915050565b600060086000838152602001908152602001600020905060005b8160008481526020019081526020016000208054905081101561270e57600082600085815260200190815260200160002082815481106126275761262661411d565b5b90600052602060002090600202016040518060400160405290816000820160009054906101000a900473ffffffffffffffffffffffffffffffffffffffff1673ffffffffffffffffffffffffffffffffffffffff1673ffffffffffffffffffffffffffffffffffffffff1681526020016001820154815250509050806020015160076000836000015173ffffffffffffffffffffffffffffffffffffffff1673ffffffffffffffffffffffffffffffffffffffff16815260200190815260200160002060008282546126f99190613df0565b925050819055505080806001019150506125e4565b50827fb7c1f9298a18c36af08bd57eabbfbeb04695f24d0438f67614741ec15fb5c4a98360405161273f919061319c565b60405180910390a2505050565b6000612757836118c0565b509450505050506000606460028361276f9190614844565b61277991906148b5565b9050600083518261278a91906148b5565b905060005b84518110156128845781600660008784815181106127b0576127af61411d565b5b602002602001015173ffffffffffffffffffffffffffffffffffffffff1673ffffffffffffffffffffffffffffffffffffffff16815260200190815260200160002060008282546128019190613cda565b9250508190555081600a600088815260200190815260200160002060008784815181106128315761283061411d565b5b602002602001015173ffffffffffffffffffffffffffffffffffffffff1673ffffffffffffffffffffffffffffffffffffffff16815260200190815260200160002081905550808060010191505061278f565b50847f1034bcc6d30aa91c93d14ce14f959d5d304d6b8a76f50f026934b85d4e4122ed8584846040516128b9939291906148e6565b60405180910390a25050505050565b6000600583815481106128de576128dd61411d565b5b90600052602060002090600202019050600081600101805490509050600060086000858152602001908152602001600020905060008061291d876118c0565b509450509350505060646005826129349190614844565b61293e91906148b5565b600660008760000160009054906101000a900473ffffffffffffffffffffffffffffffffffffffff1673ffffffffffffffffffffffffffffffffffffffff1673ffffffffffffffffffffffffffffffffffffffff16815260200190815260200160002060008282546129b09190613cda565b92505081905550600060646058836129c89190614844565b6129d291906148b5565b905060005b85811015612adb57612ace898984878c815181106129f8576129f761411d565b5b6020026020010151896000878152602001908152602001600020805480602002602001604051908101604052809291908181526020016000905b82821015612ac457838290600052602060002090600202016040518060400160405290816000820160009054906101000a900473ffffffffffffffffffffffffffffffffffffffff1673ffffffffffffffffffffffffffffffffffffffff1673ffffffffffffffffffffffffffffffffffffffff16815260200160018201548152505081526020019060010190612a32565b5050505086612c02565b80806001019150506129d7565b505050505050505050565b6000808273ffffffffffffffffffffffffffffffffffffffff163b119050919050565b6000819050919050565b6000819050919050565b612b2681612ae6565b612b65576040517f08c379a0000000000000000000000000000000000000000000000000000000008152600401612b5c90614996565b60405180910390fd5b80612b927f360894a13ba1a3210667c828492db98dca3e2076cc3735a920a3ca505d382bbc60001b612b09565b60000160006101000a81548173ffffffffffffffffffffffffffffffffffffffff021916908373ffffffffffffffffffffffffffffffffffffffff16021790555050565b612bdf83612e7d565b600082511180612bec5750805b15612bfd57612bfb8383612ecc565b505b505050565b60005b8251811015612e74576000838281518110612c2357612c2261411d565b5b60200260200101519050806020015160076000836000015173ffffffffffffffffffffffffffffffffffffffff1673ffffffffffffffffffffffffffffffffffffffff1681526020019081526020016000206000828254612c849190613df0565b92505081905550868303612d7f57600085878360200151612ca59190614844565b612caf91906148b5565b90506000826020015182612cc39190613df0565b90508060066000856000015173ffffffffffffffffffffffffffffffffffffffff1673ffffffffffffffffffffffffffffffffffffffff1681526020019081526020016000206000828254612d189190613cda565b9250508190555080600a60008c81526020019081526020016000206000856000015173ffffffffffffffffffffffffffffffffffffffff1673ffffffffffffffffffffffffffffffffffffffff168152602001908152602001600020819055505050612e66565b806020015160066000836000015173ffffffffffffffffffffffffffffffffffffffff1673ffffffffffffffffffffffffffffffffffffffff1681526020019081526020016000206000828254612dd69190613df0565b925050819055507fffffffffffffffffffffffffffffffffffffffffffffffffffffffffffffffff8160200151612e0d91906149b6565b600a60008a81526020019081526020016000206000836000015173ffffffffffffffffffffffffffffffffffffffff1673ffffffffffffffffffffffffffffffffffffffff168152602001908152602001600020819055505b508080600101915050612c05565b50505050505050565b612e8681612b1d565b8073ffffffffffffffffffffffffffffffffffffffff167fbc7cd75a20ee27fd9adebab32041f755214dbc6bffa90cc0225b39da2e5c2d3b60405160405180910390a250565b6060612ef18383604051806060016040528060278152602001614b5460279139612ef9565b905092915050565b60606000808573ffffffffffffffffffffffffffffffffffffffff1685604051612f239190614a75565b600060405180830381855af49150503d8060008114612f5e576040519150601f19603f3d011682016040523d82523d6000602084013e612f63565b606091505b5091509150612f7486838387612f7f565b925050509392505050565b60608315612fe1576000835103612fd957612f9985612ae6565b612fd8576040517f08c379a0000000000000000000000000000000000000000000000000000000008152600401612fcf90614ad8565b60405180910390fd5b5b829050612fec565b612feb8383612ff4565b5b949350505050565b6000825111156130075781518083602001fd5b806040517f08c379a000000000000000000000000000000000000000000000000000000000815260040161303b9190614b31565b60405180910390fd5b6000604051905090565b600080fd5b600080fd5b6000819050919050565b61306b81613058565b811461307657600080fd5b50565b60008135905061308881613062565b92915050565b600073ffffffffffffffffffffffffffffffffffffffff82169050919050565b60006130b98261308e565b9050919050565b6130c9816130ae565b81146130d457600080fd5b50565b6000813590506130e6816130c0565b92915050565b600080604083850312156131035761310261304e565b5b600061311185828601613079565b9250506020613122858286016130d7565b9150509250929050565b6000819050919050565b61313f8161312c565b82525050565b600060208201905061315a6000830184613136565b92915050565b6000602082840312156131765761317561304e565b5b600061318484828501613079565b91505092915050565b61319681613058565b82525050565b60006020820190506131b1600083018461318d565b92915050565b6000819050919050565b60006131dc6131d76131d28461308e565b6131b7565b61308e565b9050919050565b60006131ee826131c1565b9050919050565b6000613200826131e3565b9050919050565b613210816131f5565b82525050565b600060208201905061322b6000830184613207565b92915050565b600080604083850312156132485761324761304e565b5b6000613256858286016130d7565b925050602061326785828601613079565b9150509250929050565b6000602082840312156132875761328661304e565b5b6000613295848285016130d7565b91505092915050565b600080604083850312156132b5576132b461304e565b5b60006132c385828601613079565b92505060206132d485828601613079565b9150509250929050565b600081519050919050565b600082825260208201905092915050565b6000819050602082019050919050565b613313816130ae565b82525050565b61332281613058565b82525050565b60408201600082015161333e600085018261330a565b5060208201516133516020850182613319565b50505050565b60006133638383613328565b60408301905092915050565b6000602082019050919050565b6000613387826132de565b61339181856132e9565b935061339c836132fa565b8060005b838110156133cd5781516133b48882613357565b97506133bf8361336f565b9250506001810190506133a0565b5085935050505092915050565b600060208201905081810360008301526133f4818461337c565b905092915050565b600080fd5b600080fd5b6000601f19601f8301169050919050565b7f4e487b7100000000000000000000000000000000000000000000000000000000600052604160045260246000fd5b61344f82613406565b810181811067ffffffffffffffff8211171561346e5761346d613417565b5b80604052505050565b6000613481613044565b905061348d8282613446565b919050565b600067ffffffffffffffff8211156134ad576134ac613417565b5b6134b682613406565b9050602081019050919050565b82818337600083830152505050565b60006134e56134e084613492565b613477565b90508281526020810184848401111561350157613500613401565b5b61350c8482856134c3565b509392505050565b600082601f830112613529576135286133fc565b5b81356135398482602086016134d2565b91505092915050565b600080604083850312156135595761355861304e565b5b6000613567858286016130d7565b925050602083013567ffffffffffffffff81111561358857613587613053565b5b61359485828601613514565b9150509250929050565b6000819050919050565b6135b18161359e565b82525050565b60006020820190506135cc60008301846135a8565b92915050565b60006135dd826131e3565b9050919050565b6135ed816135d2565b82525050565b600060208201905061360860008301846135e4565b92915050565b6000613619826131e3565b9050919050565b6136298161360e565b82525050565b60006020820190506136446000830184613620565b92915050565b6000806000606084860312156136635761366261304e565b5b600061367186828701613079565b935050602061368286828701613079565b925050604061369386828701613079565b9150509250925092565b6136a6816130ae565b82525050565b60006020820190506136c1600083018461369d565b92915050565b600067ffffffffffffffff8211156136e2576136e1613417565b5b602082029050602081019050919050565b600080fd5b600061370b613706846136c7565b613477565b9050808382526020820190506020840283018581111561372e5761372d6136f3565b5b835b81811015613757578061374388826130d7565b845260208401935050602081019050613730565b5050509392505050565b600082601f830112613776576137756133fc565b5b81356137868482602086016136f8565b91505092915050565b6000806000606084860312156137a8576137a761304e565b5b60006137b686828701613079565b93505060206137c786828701613079565b925050604084013567ffffffffffffffff8111156137e8576137e7613053565b5b6137f486828701613761565b9150509250925092565b600081519050919050565b600082825260208201905092915050565b6000819050602082019050919050565b600081519050919050565b600082825260208201905092915050565b60005b83811015613864578082015181840152602081019050613849565b60008484015250505050565b600061387b8261382a565b6138858185613835565b9350613895818560208601613846565b61389e81613406565b840191505092915050565b60006138b58383613870565b905092915050565b6000602082019050919050565b60006138d5826137fe565b6138df8185613809565b9350836020820285016138f18561381a565b8060005b8581101561392d578484038952815161390e85826138a9565b9450613919836138bd565b925060208a019950506001810190506138f5565b50829750879550505050505092915050565b600081519050919050565b600082825260208201905092915050565b6000819050602082019050919050565b60006139778383613319565b60208301905092915050565b6000602082019050919050565b600061399b8261393f565b6139a5818561394a565b93506139b08361395b565b8060005b838110156139e15781516139c8888261396b565b97506139d383613983565b9250506001810190506139b4565b5085935050505092915050565b600060c082019050613a03600083018961369d565b8181036020830152613a1581886138ca565b90508181036040830152613a298187613990565b90508181036060830152613a3d8186613990565b9050613a4c608083018561318d565b613a5960a083018461318d565b979650505050505050565b600067ffffffffffffffff821115613a7f57613a7e613417565b5b602082029050602081019050919050565b600067ffffffffffffffff821115613aab57613aaa613417565b5b613ab482613406565b9050602081019050919050565b6000613ad4613acf84613a90565b613477565b905082815260208101848484011115613af057613aef613401565b5b613afb8482856134c3565b509392505050565b600082601f830112613b1857613b176133fc565b5b8135613b28848260208601613ac1565b91505092915050565b6000613b44613b3f84613a64565b613477565b90508083825260208201905060208402830185811115613b6757613b666136f3565b5b835b81811015613bae57803567ffffffffffffffff811115613b8c57613b8b6133fc565b5b808601613b998982613b03565b85526020850194505050602081019050613b69565b5050509392505050565b600082601f830112613bcd57613bcc6133fc565b5b8135613bdd848260208601613b31565b91505092915050565b600060208284031215613bfc57613bfb61304e565b5b600082013567ffffffffffffffff811115613c1a57613c19613053565b5b613c2684828501613bb8565b91505092915050565b6000604082019050613c44600083018561369d565b613c51602083018461318d565b9392505050565b600080600060608486031215613c7157613c7061304e565b5b6000613c7f868287016130d7565b9350506020613c90868287016130d7565b9250506040613ca1868287016130d7565b9150509250925092565b7f4e487b7100000000000000000000000000000000000000000000000000000000600052601160045260246000fd5b6000613ce582613058565b9150613cf083613058565b9250828201905080821115613d0857613d07613cab565b5b92915050565b60008115159050919050565b613d2381613d0e565b8114613d2e57600080fd5b50565b600081519050613d4081613d1a565b92915050565b600060208284031215613d5c57613d5b61304e565b5b6000613d6a84828501613d31565b91505092915050565b600082825260208201905092915050565b7f5472616e73666572206661696c65640000000000000000000000000000000000600082015250565b6000613dba600f83613d73565b9150613dc582613d84565b602082019050919050565b60006020820190508181036000830152613de981613dad565b9050919050565b6000613dfb82613058565b9150613e0683613058565b9250828203905081811115613e1e57613e1d613cab565b5b92915050565b6000604082019050613e39600083018561318d565b613e46602083018461318d565b9392505050565b7f46756e6374696f6e206d7573742062652063616c6c6564207468726f7567682060008201527f64656c656761746563616c6c0000000000000000000000000000000000000000602082015250565b6000613ea9602c83613d73565b9150613eb482613e4d565b604082019050919050565b60006020820190508181036000830152613ed881613e9c565b9050919050565b7f46756e6374696f6e206d7573742062652063616c6c6564207468726f7567682060008201527f6163746976652070726f78790000000000000000000000000000000000000000602082015250565b6000613f3b602c83613d73565b9150613f4682613edf565b604082019050919050565b60006020820190508181036000830152613f6a81613f2e565b9050919050565b7f555550535570677261646561626c653a206d757374206e6f742062652063616c60008201527f6c6564207468726f7567682064656c656761746563616c6c0000000000000000602082015250565b6000613fcd603883613d73565b9150613fd882613f71565b604082019050919050565b60006020820190508181036000830152613ffc81613fc0565b9050919050565b60008151905061401281613062565b92915050565b60006020828403121561402e5761402d61304e565b5b600061403c84828501614003565b91505092915050565b7f506f696e7473206d7573742062652067726561746572207468616e207a65726f600082015250565b600061407b602083613d73565b915061408682614045565b602082019050919050565b600060208201905081810360008301526140aa8161406e565b9050919050565b7f496e73756666696369656e7420766f74696e6720726967687473000000000000600082015250565b60006140e7601a83613d73565b91506140f2826140b1565b602082019050919050565b60006020820190508181036000830152614116816140da565b9050919050565b7f4e487b7100000000000000000000000000000000000000000000000000000000600052603260045260246000fd5b600081519050919050565b600082825260208201905092915050565b6000819050602082019050919050565b6000614184838361330a565b60208301905092915050565b6000602082019050919050565b60006141a88261414c565b6141b28185614157565b93506141bd83614168565b8060005b838110156141ee5781516141d58882614178565b97506141e083614190565b9250506001810190506141c1565b5085935050505092915050565b6000606082019050614210600083018661318d565b61421d602083018561318d565b818103604083015261422f818461419d565b9050949350505050565b600060608201905061424e600083018661369d565b61425b602083018561369d565b614268604083018461318d565b949350505050565b7f4e487b7100000000000000000000000000000000000000000000000000000000600052602260045260246000fd5b600060028204905060018216806142b757607f821691505b6020821081036142ca576142c9614270565b5b50919050565b7f6c656e206572726f720000000000000000000000000000000000000000000000600082015250565b6000614306600983613d73565b9150614311826142d0565b602082019050919050565b60006020820190508181036000830152614335816142f9565b9050919050565b60008190508160005260206000209050919050565b60006020601f8301049050919050565b600082821b905092915050565b60006008830261439e7fffffffffffffffffffffffffffffffffffffffffffffffffffffffffffffffff82614361565b6143a88683614361565b95508019841693508086168417925050509392505050565b60006143db6143d66143d184613058565b6131b7565b613058565b9050919050565b6000819050919050565b6143f5836143c0565b614409614401826143e2565b84845461436e565b825550505050565b600090565b61441e614411565b6144298184846143ec565b505050565b5b8181101561444d57614442600082614416565b60018101905061442f565b5050565b601f821115614492576144638161433c565b61446c84614351565b8101602085101561447b578190505b61448f61448785614351565b83018261442e565b50505b505050565b600082821c905092915050565b60006144b560001984600802614497565b1980831691505092915050565b60006144ce83836144a4565b9150826002028217905092915050565b6144e78261382a565b67ffffffffffffffff811115614500576144ff613417565b5b61450a825461429f565b614515828285614451565b600060209050601f8311600181146145485760008415614536578287015190505b61454085826144c2565b8655506145a8565b601f1984166145568661433c565b60005b8281101561457e57848901518255600182019150602085019450602081019050614559565b8683101561459b5784890151614597601f8916826144a4565b8355505b6001600288020188555050505b505050505050565b600060208201905081810360008301526145ca81846138ca565b905092915050565b7f496e697469616c697a61626c653a20636f6e747261637420697320616c72656160008201527f647920696e697469616c697a6564000000000000000000000000000000000000602082015250565b600061462e602e83613d73565b9150614639826145d2565b604082019050919050565b6000602082019050818103600083015261465d81614621565b9050919050565b6000819050919050565b600060ff82169050919050565b600061469661469161468c84614664565b6131b7565b61466e565b9050919050565b6146a68161467b565b82525050565b60006020820190506146c1600083018461469d565b92915050565b6146d08161359e565b81146146db57600080fd5b50565b6000815190506146ed816146c7565b92915050565b6000602082840312156147095761470861304e565b5b6000614717848285016146de565b91505092915050565b7f45524331393637557067726164653a206e657720696d706c656d656e7461746960008201527f6f6e206973206e6f742055555053000000000000000000000000000000000000602082015250565b600061477c602e83613d73565b915061478782614720565b604082019050919050565b600060208201905081810360008301526147ab8161476f565b9050919050565b7f45524331393637557067726164653a20756e737570706f727465642070726f7860008201527f6961626c65555549440000000000000000000000000000000000000000000000602082015250565b600061480e602983613d73565b9150614819826147b2565b604082019050919050565b6000602082019050818103600083015261483d81614801565b9050919050565b600061484f82613058565b915061485a83613058565b925082820261486881613058565b9150828204841483151761487f5761487e613cab565b5b5092915050565b7f4e487b7100000000000000000000000000000000000000000000000000000000600052601260045260246000fd5b60006148c082613058565b91506148cb83613058565b9250826148db576148da614886565b5b828204905092915050565b60006060820190508181036000830152614900818661419d565b905061490f602083018561318d565b61491c604083018461318d565b949350505050565b7f455243313936373a206e657720696d706c656d656e746174696f6e206973206e60008201527f6f74206120636f6e747261637400000000000000000000000000000000000000602082015250565b6000614980602d83613d73565b915061498b82614924565b604082019050919050565b600060208201905081810360008301526149af81614973565b9050919050565b60006149c18261312c565b91506149cc8361312c565b92508282026149da8161312c565b91507f80000000000000000000000000000000000000000000000000000000000000008414600084121615614a1257614a11613cab565b5b8282058414831517614a2757614a26613cab565b5b5092915050565b600081519050919050565b600081905092915050565b6000614a4f82614a2e565b614a598185614a39565b9350614a69818560208601613846565b80840191505092915050565b6000614a818284614a44565b915081905092915050565b7f416464726573733a2063616c6c20746f206e6f6e2d636f6e7472616374000000600082015250565b6000614ac2601d83613d73565b9150614acd82614a8c565b602082019050919050565b60006020820190508181036000830152614af181614ab5565b9050919050565b6000614b038261382a565b614b0d8185613d73565b9350614b1d818560208601613846565b614b2681613406565b840191505092915050565b60006020820190508181036000830152614b4b8184614af8565b90509291505056fe416464726573733a206c6f772d6c6576656c2064656c65676174652063616c6c206661696c6564a2646970667358221220f60fd9cd8378b133ca2e88e7ea41d3278eb339573e1868a0a858ce78f692161e64736f6c63430008180033",
  "linkReferences": {},
  "deployedLinkReferences": {}
}