{
  "_format": "hh-sol-artifact-1",
  "contractName": "Proposal",
  "sourceName": "contracts/Proposal.sol",
  "abi": [
    {
      "inputs": [
        {
          "internalType": "address",
          "name": "user",
          "type": "address"
        },
        {
          "internalType": "uint256",
          "name": "availableBalance",
          "type": "uint256"
        }
      ],
      "name": "InsufficientBalance",
      "type": "error"
    },
    {
      "inputs": [
        {
          "internalType": "address",
          "name": "account",
          "type": "address"
        }
      ],
      "name": "OwnableUnauthorizedAccount",
      "type": "error"
    },
    {
      "anonymous": false,
      "inputs": [
        {
          "indexed": false,
          "internalType": "address",
          "name": "previousAdmin",
          "type": "address"
        },
        {
          "indexed": false,
          "internalType": "address",
          "name": "newAdmin",
          "type": "address"
        }
      ],
      "name": "AdminChanged",
      "type": "event"
    },
    {
      "anonymous": false,
      "inputs": [
        {
          "indexed": true,
          "internalType": "address",
          "name": "beacon",
          "type": "address"
        }
      ],
      "name": "BeaconUpgraded",
      "type": "event"
    },
    {
      "anonymous": false,
      "inputs": [
        {
          "indexed": true,
          "internalType": "address",
          "name": "founder",
          "type": "address"
        },
        {
          "indexed": true,
          "internalType": "uint256",
          "name": "id",
          "type": "uint256"
        },
        {
          "indexed": false,
          "internalType": "string[]",
          "name": "options",
          "type": "string[]"
        }
      ],
      "name": "CreateProposal",
      "type": "event"
    },
    {
      "anonymous": false,
      "inputs": [
        {
          "indexed": true,
          "internalType": "address",
          "name": "user",
          "type": "address"
        },
        {
          "indexed": false,
          "internalType": "uint256",
          "name": "amount",
          "type": "uint256"
        }
      ],
      "name": "Deposited",
      "type": "event"
    },
    {
      "anonymous": false,
      "inputs": [
        {
          "indexed": true,
          "internalType": "address",
          "name": "user",
          "type": "address"
        },
        {
          "indexed": false,
          "internalType": "uint256",
          "name": "points",
          "type": "uint256"
        }
      ],
      "name": "ExchangePoints",
      "type": "event"
    },
    {
      "anonymous": false,
      "inputs": [
        {
          "indexed": false,
          "internalType": "uint8",
          "name": "version",
          "type": "uint8"
        }
      ],
      "name": "Initialized",
      "type": "event"
    },
    {
      "anonymous": false,
      "inputs": [
        {
          "indexed": true,
          "internalType": "uint256",
          "name": "proposalId",
          "type": "uint256"
        },
        {
          "indexed": false,
          "internalType": "uint256",
          "name": "winOptionId",
          "type": "uint256"
        }
      ],
      "name": "ProposalRefunded",
      "type": "event"
    },
    {
      "anonymous": false,
      "inputs": [
        {
          "indexed": true,
          "internalType": "address",
          "name": "voter",
          "type": "address"
        },
        {
          "indexed": false,
          "internalType": "uint256",
          "name": "proposalId",
          "type": "uint256"
        },
        {
          "indexed": false,
          "internalType": "int256",
          "name": "amount",
          "type": "int256"
        }
      ],
      "name": "ProposalSettlement",
      "type": "event"
    },
    {
      "anonymous": false,
      "inputs": [
        {
          "indexed": true,
          "internalType": "address",
          "name": "implementation",
          "type": "address"
        }
      ],
      "name": "Upgraded",
      "type": "event"
    },
    {
      "anonymous": false,
      "inputs": [
        {
          "indexed": true,
          "internalType": "address",
          "name": "_address",
          "type": "address"
        },
        {
          "indexed": true,
          "internalType": "uint256",
          "name": "_proposalId",
          "type": "uint256"
        },
        {
          "indexed": true,
          "internalType": "uint256",
          "name": "_optionId",
          "type": "uint256"
        },
        {
          "indexed": false,
          "internalType": "uint256",
          "name": "_amount",
          "type": "uint256"
        }
      ],
      "name": "Voted",
      "type": "event"
    },
    {
      "anonymous": false,
      "inputs": [
        {
          "indexed": true,
          "internalType": "address",
          "name": "user",
          "type": "address"
        },
        {
          "indexed": false,
          "internalType": "uint256",
          "name": "amount",
          "type": "uint256"
        },
        {
          "indexed": false,
          "internalType": "uint256",
          "name": "balance",
          "type": "uint256"
        }
      ],
      "name": "Withdraw",
      "type": "event"
    },
    {
      "inputs": [
        {
          "internalType": "address",
          "name": "",
          "type": "address"
        }
      ],
      "name": "balances",
      "outputs": [
        {
          "internalType": "uint256",
          "name": "",
          "type": "uint256"
        }
      ],
      "stateMutability": "view",
      "type": "function"
    },
    {
      "inputs": [
        {
          "internalType": "string[]",
          "name": "optionDescs",
          "type": "string[]"
        }
      ],
      "name": "createProposal",
      "outputs": [],
      "stateMutability": "nonpayable",
      "type": "function"
    },
    {
      "inputs": [
        {
          "internalType": "uint256",
          "name": "amount",
          "type": "uint256"
        }
      ],
      "name": "deposit",
      "outputs": [
        {
          "internalType": "uint256",
          "name": "",
          "type": "uint256"
        }
      ],
      "stateMutability": "nonpayable",
      "type": "function"
    },
    {
      "inputs": [
        {
          "internalType": "uint256",
          "name": "points",
          "type": "uint256"
        }
      ],
      "name": "exchangePoints",
      "outputs": [
        {
          "internalType": "uint256",
          "name": "",
          "type": "uint256"
        }
      ],
      "stateMutability": "nonpayable",
      "type": "function"
    },
    {
      "inputs": [
        {
          "internalType": "address",
          "name": "user",
          "type": "address"
        }
      ],
      "name": "getAvailableBalance",
      "outputs": [
        {
          "internalType": "uint256",
          "name": "",
          "type": "uint256"
        }
      ],
      "stateMutability": "view",
      "type": "function"
    },
    {
      "inputs": [
        {
          "internalType": "uint256",
          "name": "proposalId",
          "type": "uint256"
        }
      ],
      "name": "getProposalInfo",
      "outputs": [
        {
          "internalType": "address",
          "name": "",
          "type": "address"
        },
        {
          "internalType": "string[]",
          "name": "",
          "type": "string[]"
        },
        {
          "internalType": "uint256[]",
          "name": "",
          "type": "uint256[]"
        }
      ],
      "stateMutability": "view",
      "type": "function"
    },
    {
      "inputs": [
        {
          "internalType": "uint256",
          "name": "proposalId",
          "type": "uint256"
        }
      ],
      "name": "getProposalVoters",
      "outputs": [
        {
          "internalType": "uint256[]",
          "name": "",
          "type": "uint256[]"
        },
        {
          "internalType": "uint256",
          "name": "",
          "type": "uint256"
        }
      ],
      "stateMutability": "view",
      "type": "function"
    },
    {
      "inputs": [
        {
          "internalType": "address",
          "name": "tokenAddr",
          "type": "address"
        }
      ],
      "name": "initialize",
      "outputs": [],
      "stateMutability": "nonpayable",
      "type": "function"
    },
    {
      "inputs": [],
      "name": "logicAddress",
      "outputs": [
        {
          "internalType": "address",
          "name": "",
          "type": "address"
        }
      ],
      "stateMutability": "view",
      "type": "function"
    },
    {
      "inputs": [],
      "name": "mlnTokenAddr",
      "outputs": [
        {
          "internalType": "address",
          "name": "",
          "type": "address"
        }
      ],
      "stateMutability": "view",
      "type": "function"
    },
    {
      "inputs": [],
      "name": "owner",
      "outputs": [
        {
          "internalType": "address",
          "name": "",
          "type": "address"
        }
      ],
      "stateMutability": "view",
      "type": "function"
    },
    {
      "inputs": [
        {
          "internalType": "uint256",
          "name": "",
          "type": "uint256"
        }
      ],
      "name": "proposalInfos",
      "outputs": [
        {
          "internalType": "address",
          "name": "founder",
          "type": "address"
        }
      ],
      "stateMutability": "view",
      "type": "function"
    },
    {
      "inputs": [
        {
          "internalType": "uint256",
          "name": "proposalId",
          "type": "uint256"
        },
        {
          "internalType": "uint256",
          "name": "winOptionId",
          "type": "uint256"
        }
      ],
      "name": "proposalSettlement",
      "outputs": [],
      "stateMutability": "nonpayable",
      "type": "function"
    },
    {
      "inputs": [
        {
          "internalType": "uint256",
          "name": "",
          "type": "uint256"
        },
        {
          "internalType": "uint256",
          "name": "",
          "type": "uint256"
        },
        {
          "internalType": "uint256",
          "name": "",
          "type": "uint256"
        }
      ],
      "name": "proposalVotingSituation",
      "outputs": [
        {
          "internalType": "address",
          "name": "user",
          "type": "address"
        },
        {
          "internalType": "uint256",
          "name": "amount",
          "type": "uint256"
        }
      ],
      "stateMutability": "view",
      "type": "function"
    },
    {
      "inputs": [
        {
          "internalType": "uint256",
          "name": "",
          "type": "uint256"
        }
      ],
      "name": "proposalWinningOption",
      "outputs": [
        {
          "internalType": "uint256",
          "name": "",
          "type": "uint256"
        }
      ],
      "stateMutability": "view",
      "type": "function"
    },
    {
      "inputs": [],
      "name": "proxiableUUID",
      "outputs": [
        {
          "internalType": "bytes32",
          "name": "",
          "type": "bytes32"
        }
      ],
      "stateMutability": "view",
      "type": "function"
    },
    {
      "inputs": [
        {
          "internalType": "address",
          "name": "newImplementation",
          "type": "address"
        }
      ],
      "name": "upgradeTo",
      "outputs": [],
      "stateMutability": "nonpayable",
      "type": "function"
    },
    {
      "inputs": [
        {
          "internalType": "address",
          "name": "newImplementation",
          "type": "address"
        },
        {
          "internalType": "bytes",
          "name": "data",
          "type": "bytes"
        }
      ],
      "name": "upgradeToAndCall",
      "outputs": [],
      "stateMutability": "payable",
      "type": "function"
    },
    {
      "inputs": [
        {
          "internalType": "uint256",
          "name": "",
          "type": "uint256"
        },
        {
          "internalType": "address",
          "name": "",
          "type": "address"
        }
      ],
      "name": "userProposalResults",
      "outputs": [
        {
          "internalType": "int256",
          "name": "",
          "type": "int256"
        }
      ],
      "stateMutability": "view",
      "type": "function"
    },
    {
      "inputs": [
        {
          "internalType": "uint256",
          "name": "proposalId",
          "type": "uint256"
        },
        {
          "internalType": "uint256",
          "name": "optionId",
          "type": "uint256"
        },
        {
          "internalType": "uint256",
          "name": "amount",
          "type": "uint256"
        }
      ],
      "name": "vote",
      "outputs": [],
      "stateMutability": "nonpayable",
      "type": "function"
    },
    {
      "inputs": [
        {
          "internalType": "address",
          "name": "",
          "type": "address"
        }
      ],
      "name": "votingLock",
      "outputs": [
        {
          "internalType": "uint256",
          "name": "",
          "type": "uint256"
        }
      ],
      "stateMutability": "view",
      "type": "function"
    },
    {
      "inputs": [
        {
          "internalType": "uint256",
          "name": "amount",
          "type": "uint256"
        }
      ],
      "name": "withdraw",
      "outputs": [],
      "stateMutability": "nonpayable",
      "type": "function"
    }
  ],
  "bytecode": "0x60a06040523073ffffffffffffffffffffffffffffffffffffffff1660809073ffffffffffffffffffffffffffffffffffffffff1681525034801561004357600080fd5b50608051613eb761007b6000396000818161080d0152818161089b01528181610a0301528181610a910152610b410152613eb76000f3fe6080604052600436106101355760003560e01c80638a6655d6116100ab578063b511328d1161006f578063b511328d14610465578063b6b55f25146104a2578063bc903cb8146104df578063c3a0aba81461051e578063c4d66de814610549578063f647344b1461057257610135565b80638a6655d61461036b5780638da5cb5b146103945780639c1fcc4c146103bf578063a68f34f7146103ea578063b00673bc1461042857610135565b806345071c71116100fd57806345071c71146102435780634f1ef2861461028157806352d1902d1461029d5780636c24a76f146102c85780637c7b66f7146103055780638624b42d1461034257610135565b80630c7353e01461013a57806327e235e3146101775780632e1a7d4d146101b45780632efdc9f5146101dd5780633659cfe61461021a575b600080fd5b34801561014657600080fd5b50610161600480360381019061015c91906128f4565b61059b565b60405161016e919061294d565b60405180910390f35b34801561018357600080fd5b5061019e60048036038101906101999190612968565b6105c0565b6040516101ab91906129a4565b60405180910390f35b3480156101c057600080fd5b506101db60048036038101906101d691906129bf565b6105d8565b005b3480156101e957600080fd5b5061020460048036038101906101ff91906129bf565b6107f3565b60405161021191906129a4565b60405180910390f35b34801561022657600080fd5b50610241600480360381019061023c9190612968565b61080b565b005b34801561024f57600080fd5b5061026a600480360381019061026591906129ec565b610993565b604051610278929190612a4e565b60405180910390f35b61029b60048036038101906102969190612bbd565b610a01565b005b3480156102a957600080fd5b506102b2610b3d565b6040516102bf9190612c32565b60405180910390f35b3480156102d457600080fd5b506102ef60048036038101906102ea9190612968565b610bf6565b6040516102fc91906129a4565b60405180910390f35b34801561031157600080fd5b5061032c600480360381019061032791906129bf565b610c9a565b60405161033991906129a4565b60405180910390f35b34801561034e57600080fd5b5061036960048036038101906103649190612dd4565b610dc9565b005b34801561037757600080fd5b50610392600480360381019061038d91906129ec565b610f77565b005b3480156103a057600080fd5b506103a961119d565b6040516103b69190612e1d565b60405180910390f35b3480156103cb57600080fd5b506103d46111c3565b6040516103e19190612e1d565b60405180910390f35b3480156103f657600080fd5b50610411600480360381019061040c91906129bf565b6111e9565b60405161041f929190612ef6565b60405180910390f35b34801561043457600080fd5b5061044f600480360381019061044a9190612968565b611303565b60405161045c91906129a4565b60405180910390f35b34801561047157600080fd5b5061048c600480360381019061048791906129bf565b61131b565b6040516104999190612e1d565b60405180910390f35b3480156104ae57600080fd5b506104c960048036038101906104c491906129bf565b611369565b6040516104d691906129a4565b60405180910390f35b3480156104eb57600080fd5b50610506600480360381019061050191906129bf565b611537565b60405161051593929190613067565b60405180910390f35b34801561052a57600080fd5b50610533611773565b6040516105409190612e1d565b60405180910390f35b34801561055557600080fd5b50610570600480360381019061056b9190612968565b611799565b005b34801561057e57600080fd5b50610599600480360381019061059491906130ac565b611952565b005b6008602052816000526040600020602052806000526040600020600091509150505481565b60046020528060005260406000206000915090505481565b60006105e333610bf6565b905081811061062b5733816040517ff6deaa04000000000000000000000000000000000000000000000000000000008152600401610622929190612a4e565b60405180910390fd5b600260009054906101000a900473ffffffffffffffffffffffffffffffffffffffff1673ffffffffffffffffffffffffffffffffffffffff1663a9059cbb33846040518363ffffffff1660e01b8152600401610688929190612a4e565b6020604051808303816000875af11580156106a7573d6000803e3d6000fd5b505050506040513d601f19601f820116820180604052508101906106cb9190613124565b61070a576040517f08c379a0000000000000000000000000000000000000000000000000000000008152600401610701906131ae565b60405180910390fd5b81600460003373ffffffffffffffffffffffffffffffffffffffff1673ffffffffffffffffffffffffffffffffffffffff168152602001908152602001600020600082825461075991906131fd565b925050819055503373ffffffffffffffffffffffffffffffffffffffff167ff279e6a1f5e320cca91135676d9cb6e44ca8a08c0b88342bcdb1144f6511b56883600460003373ffffffffffffffffffffffffffffffffffffffff1673ffffffffffffffffffffffffffffffffffffffff168152602001908152602001600020546040516107e7929190613231565b60405180910390a25050565b60076020528060005260406000206000915090505481565b7f000000000000000000000000000000000000000000000000000000000000000073ffffffffffffffffffffffffffffffffffffffff163073ffffffffffffffffffffffffffffffffffffffff1603610899576040517f08c379a0000000000000000000000000000000000000000000000000000000008152600401610890906132cc565b60405180910390fd5b7f000000000000000000000000000000000000000000000000000000000000000073ffffffffffffffffffffffffffffffffffffffff166108d861199d565b73ffffffffffffffffffffffffffffffffffffffff161461092e576040517f08c379a00000000000000000000000000000000000000000000000000000000081526004016109259061335e565b60405180910390fd5b610937816119f4565b61099081600067ffffffffffffffff81111561095657610955612a92565b5b6040519080825280601f01601f1916602001820160405280156109885781602001600182028036833780820191505090505b506000611aca565b50565b600660205282600052604060002060205281600052604060002081815481106109bb57600080fd5b906000526020600020906002020160009250925050508060000160009054906101000a900473ffffffffffffffffffffffffffffffffffffffff16908060010154905082565b7f000000000000000000000000000000000000000000000000000000000000000073ffffffffffffffffffffffffffffffffffffffff163073ffffffffffffffffffffffffffffffffffffffff1603610a8f576040517f08c379a0000000000000000000000000000000000000000000000000000000008152600401610a86906132cc565b60405180910390fd5b7f000000000000000000000000000000000000000000000000000000000000000073ffffffffffffffffffffffffffffffffffffffff16610ace61199d565b73ffffffffffffffffffffffffffffffffffffffff1614610b24576040517f08c379a0000000000000000000000000000000000000000000000000000000008152600401610b1b9061335e565b60405180910390fd5b610b2d826119f4565b610b3982826001611aca565b5050565b60007f000000000000000000000000000000000000000000000000000000000000000073ffffffffffffffffffffffffffffffffffffffff163073ffffffffffffffffffffffffffffffffffffffff1614610bcd576040517f08c379a0000000000000000000000000000000000000000000000000000000008152600401610bc4906133f0565b60405180910390fd5b7f360894a13ba1a3210667c828492db98dca3e2076cc3735a920a3ca505d382bbc60001b905090565b600080600460008473ffffffffffffffffffffffffffffffffffffffff1673ffffffffffffffffffffffffffffffffffffffff1681526020019081526020016000205490506000600560008573ffffffffffffffffffffffffffffffffffffffff1673ffffffffffffffffffffffffffffffffffffffff16815260200190815260200160002054905060008190508083610c9091906131fd565b9350505050919050565b6000808211610cde576040517f08c379a0000000000000000000000000000000000000000000000000000000008152600401610cd59061345c565b60405180910390fd5b81600460003373ffffffffffffffffffffffffffffffffffffffff1673ffffffffffffffffffffffffffffffffffffffff1681526020019081526020016000206000828254610d2d919061347c565b925050819055503373ffffffffffffffffffffffffffffffffffffffff167fa0c8eda28ab82fe28c2bcaa48a1ce2b5eac8dbed005a6e8eb62398577e908d5c83604051610d7a91906129a4565b60405180910390a2600460003373ffffffffffffffffffffffffffffffffffffffff1673ffffffffffffffffffffffffffffffffffffffff168152602001908152602001600020549050919050565b6000815111610e0d576040517f08c379a0000000000000000000000000000000000000000000000000000000008152600401610e04906134fc565b60405180910390fd5b600060036001816001815401808255809150500390600052602060002090600202019050338160000160006101000a81548173ffffffffffffffffffffffffffffffffffffffff021916908373ffffffffffffffffffffffffffffffffffffffff16021790555060005b8251811015610f0c57816001016040518060400160405280858481518110610ea257610ea161351c565b5b60200260200101518152602001600081525090806001815401808255809150506001900390600052602060002090600202016000909190919091506000820151816000019081610ef29190613757565b506020820151816001015550508080600101915050610e77565b5060006001600380549050610f2191906131fd565b9050803373ffffffffffffffffffffffffffffffffffffffff167f9a6f89a0fdf2b617e645524a789bbeab5b66bf3517973ca92daf26f077603f8585604051610f6a9190613829565b60405180910390a3505050565b80610f8133610bf6565b1015610fc2576040517f08c379a0000000000000000000000000000000000000000000000000000000008152600401610fb990613897565b60405180910390fd5b80600560003373ffffffffffffffffffffffffffffffffffffffff1673ffffffffffffffffffffffffffffffffffffffff1681526020019081526020016000206000828254611011919061347c565b9250508190555060006003848154811061102e5761102d61351c565b5b90600052602060002090600202019050818160010184815481106110555761105461351c565b5b90600052602060002090600202016001016000828254611075919061347c565b9250508190555060066000858152602001908152602001600020600084815260200190815260200160002060405180604001604052803373ffffffffffffffffffffffffffffffffffffffff16815260200184815250908060018154018082558091505060019003906000526020600020906002020160009091909190915060008201518160000160006101000a81548173ffffffffffffffffffffffffffffffffffffffff021916908373ffffffffffffffffffffffffffffffffffffffff16021790555060208201518160010155505082843373ffffffffffffffffffffffffffffffffffffffff167fc32b42768a47a585121e9b8d7a2ab9d3f34c326a192dee11ee1732e3d18313f38560405161118f91906129a4565b60405180910390a450505050565b600060029054906101000a900473ffffffffffffffffffffffffffffffffffffffff1681565b600160009054906101000a900473ffffffffffffffffffffffffffffffffffffffff1681565b6060600080600384815481106112025761120161351c565b5b9060005260206000209060020201905060008160010180549050905060008167ffffffffffffffff81111561123a57611239612a92565b5b6040519080825280602002602001820160405280156112685781602001602082028036833780820191505090505b5090506000805b838110156112f357600660008981526020019081526020016000206000828152602001908152602001600020805490508382815181106112b2576112b161351c565b5b6020026020010181815250508281815181106112d1576112d061351c565b5b6020026020010151826112e4919061347c565b9150808060010191505061126f565b5081819550955050505050915091565b60056020528060005260406000206000915090505481565b6003818154811061132b57600080fd5b90600052602060002090600202016000915090508060000160009054906101000a900473ffffffffffffffffffffffffffffffffffffffff16905081565b6000600260009054906101000a900473ffffffffffffffffffffffffffffffffffffffff1673ffffffffffffffffffffffffffffffffffffffff166323b872dd3330856040518463ffffffff1660e01b81526004016113ca939291906138b7565b6020604051808303816000875af11580156113e9573d6000803e3d6000fd5b505050506040513d601f19601f8201168201806040525081019061140d9190613124565b61144c576040517f08c379a0000000000000000000000000000000000000000000000000000000008152600401611443906131ae565b60405180910390fd5b81600460003373ffffffffffffffffffffffffffffffffffffffff1673ffffffffffffffffffffffffffffffffffffffff168152602001908152602001600020600082825461149b919061347c565b925050819055503373ffffffffffffffffffffffffffffffffffffffff167f2da466a7b24304f47e87fa2e1e5a81b9831ce54fec19055ce277ca2f39ba42c4836040516114e891906129a4565b60405180910390a2600460003373ffffffffffffffffffffffffffffffffffffffff1673ffffffffffffffffffffffffffffffffffffffff168152602001908152602001600020549050919050565b60006060806000600385815481106115525761155161351c565b5b9060005260206000209060020201905060008160010180549050905060008167ffffffffffffffff81111561158a57611589612a92565b5b6040519080825280602002602001820160405280156115bd57816020015b60608152602001906001900390816115a85790505b50905060008267ffffffffffffffff8111156115dc576115db612a92565b5b60405190808252806020026020018201604052801561160a5781602001602082028036833780820191505090505b50905060005b8381101561173a5784600101818154811061162e5761162d61351c565b5b9060005260206000209060020201600001805461164a9061357a565b80601f01602080910402602001604051908101604052809291908181526020018280546116769061357a565b80156116c35780601f10611698576101008083540402835291602001916116c3565b820191906000526020600020905b8154815290600101906020018083116116a657829003601f168201915b50505050508382815181106116db576116da61351c565b5b60200260200101819052508460010181815481106116fc576116fb61351c565b5b9060005260206000209060020201600101548282815181106117215761172061351c565b5b6020026020010181815250508080600101915050611610565b508360000160009054906101000a900473ffffffffffffffffffffffffffffffffffffffff168282965096509650505050509193909250565b600260009054906101000a900473ffffffffffffffffffffffffffffffffffffffff1681565b60008060019054906101000a900460ff161590508080156117ca5750600160008054906101000a900460ff1660ff16105b806117f757506117d930611c38565b1580156117f65750600160008054906101000a900460ff1660ff16145b5b611836576040517f08c379a000000000000000000000000000000000000000000000000000000000815260040161182d90613960565b60405180910390fd5b60016000806101000a81548160ff021916908360ff1602179055508015611873576001600060016101000a81548160ff0219169083151502179055505b81600260006101000a81548173ffffffffffffffffffffffffffffffffffffffff021916908373ffffffffffffffffffffffffffffffffffffffff16021790555033600060026101000a81548173ffffffffffffffffffffffffffffffffffffffff021916908373ffffffffffffffffffffffffffffffffffffffff160217905550801561194e5760008060016101000a81548160ff0219169083151502179055507f7f26b83ff96e1f2b6a682f133852f6798a09c465da95921460cefb3847402498600160405161194591906139c8565b60405180910390a15b5050565b600061195e8383611c5b565b90508015611975576119708383611e4d565b611980565b61197f8383611fcf565b5b816007600085815260200190815260200160002081905550505050565b60006119cb7f360894a13ba1a3210667c828492db98dca3e2076cc3735a920a3ca505d382bbc60001b61223a565b60000160009054906101000a900473ffffffffffffffffffffffffffffffffffffffff16905090565b3373ffffffffffffffffffffffffffffffffffffffff16600060029054906101000a900473ffffffffffffffffffffffffffffffffffffffff1673ffffffffffffffffffffffffffffffffffffffff1614611a8657336040517f118cdaa7000000000000000000000000000000000000000000000000000000008152600401611a7d9190612e1d565b60405180910390fd5b80600160006101000a81548173ffffffffffffffffffffffffffffffffffffffff021916908373ffffffffffffffffffffffffffffffffffffffff16021790555050565b611af67f4910fdfa16fed3260ed0e7147f7cc6da11a60208b5b9406d12a635614ffd914360001b612244565b60000160009054906101000a900460ff1615611b1a57611b158361224e565b611c33565b8273ffffffffffffffffffffffffffffffffffffffff166352d1902d6040518163ffffffff1660e01b8152600401602060405180830381865afa925050508015611b8257506040513d601f19601f82011682018060405250810190611b7f9190613a0f565b60015b611bc1576040517f08c379a0000000000000000000000000000000000000000000000000000000008152600401611bb890613aae565b60405180910390fd5b7f360894a13ba1a3210667c828492db98dca3e2076cc3735a920a3ca505d382bbc60001b8114611c26576040517f08c379a0000000000000000000000000000000000000000000000000000000008152600401611c1d90613b40565b60405180910390fd5b50611c32838383612307565b5b505050565b6000808273ffffffffffffffffffffffffffffffffffffffff163b119050919050565b60008060038481548110611c7257611c7161351c565b5b90600052602060002090600202016040518060400160405290816000820160009054906101000a900473ffffffffffffffffffffffffffffffffffffffff1673ffffffffffffffffffffffffffffffffffffffff1673ffffffffffffffffffffffffffffffffffffffff16815260200160018201805480602002602001604051908101604052809291908181526020016000905b82821015611dd45783829060005260206000209060020201604051806040016040529081600082018054611d399061357a565b80601f0160208091040260200160405190810160405280929190818152602001828054611d659061357a565b8015611db25780601f10611d8757610100808354040283529160200191611db2565b820191906000526020600020905b815481529060010190602001808311611d9557829003601f168201915b5050505050815260200160018201548152505081526020019060010190611d06565b5050505081525050905060008160200151905060005b8151811015611e3f57848114158015611e2157506000828281518110611e1357611e1261351c565b5b602002602001015160200151115b15611e325760009350505050611e47565b8080600101915050611dea565b506001925050505b92915050565b600060066000838152602001908152602001600020905060005b81600084815260200190815260200160002080549050811015611f915760008260008581526020019081526020016000208281548110611eaa57611ea961351c565b5b90600052602060002090600202016040518060400160405290816000820160009054906101000a900473ffffffffffffffffffffffffffffffffffffffff1673ffffffffffffffffffffffffffffffffffffffff1673ffffffffffffffffffffffffffffffffffffffff1681526020016001820154815250509050806020015160056000836000015173ffffffffffffffffffffffffffffffffffffffff1673ffffffffffffffffffffffffffffffffffffffff1681526020019081526020016000206000828254611f7c91906131fd565b92505081905550508080600101915050611e67565b50827fc445a10c3fa19d3805aeea8b151160c7252c62f5bb08325a6acd73f79e5531ee83604051611fc291906129a4565b60405180910390a2505050565b600060038381548110611fe557611fe461351c565b5b9060005260206000209060020201905060006006600084815260200190815260200160002090506000808360010180549050905060008460010186815481106120315761203061351c565b5b906000526020600020906002020160010154905060005b82811015612092578560010181815481106120665761206561351c565b5b90600052602060002090600202016001015484612083919061347c565b93508080600101915050612048565b5060646005846120a29190613b60565b6120ac9190613bd1565b600460008760000160009054906101000a900473ffffffffffffffffffffffffffffffffffffffff1673ffffffffffffffffffffffffffffffffffffffff1673ffffffffffffffffffffffffffffffffffffffff168152602001908152602001600020600082825461211e919061347c565b9250508190555060006064605a856121369190613b60565b6121409190613bd1565b905060005b8381101561222f57612222898984868a6000878152602001908152602001600020805480602002602001604051908101604052809291908181526020016000905b8282101561221857838290600052602060002090600202016040518060400160405290816000820160009054906101000a900473ffffffffffffffffffffffffffffffffffffffff1673ffffffffffffffffffffffffffffffffffffffff1673ffffffffffffffffffffffffffffffffffffffff16815260200160018201548152505081526020019060010190612186565b5050505086612333565b8080600101915050612145565b505050505050505050565b6000819050919050565b6000819050919050565b61225781611c38565b612296576040517f08c379a000000000000000000000000000000000000000000000000000000000815260040161228d90613c74565b60405180910390fd5b806122c37f360894a13ba1a3210667c828492db98dca3e2076cc3735a920a3ca505d382bbc60001b61223a565b60000160006101000a81548173ffffffffffffffffffffffffffffffffffffffff021916908373ffffffffffffffffffffffffffffffffffffffff16021790555050565b61231083612685565b60008251118061231d5750805b1561232e5761232c83836126d4565b505b505050565b60005b825181101561267c5760008382815181106123545761235361351c565b5b60200260200101519050806020015160056000836000015173ffffffffffffffffffffffffffffffffffffffff1673ffffffffffffffffffffffffffffffffffffffff16815260200190815260200160002060008282546123b591906131fd565b92505081905550868303612504576000858783602001516123d69190613b60565b6123e09190613bd1565b905060008260200151826123f491906131fd565b90508060046000856000015173ffffffffffffffffffffffffffffffffffffffff1673ffffffffffffffffffffffffffffffffffffffff1681526020019081526020016000206000828254612449919061347c565b9250508190555080600860008c81526020019081526020016000206000856000015173ffffffffffffffffffffffffffffffffffffffff1673ffffffffffffffffffffffffffffffffffffffff16815260200190815260200160002081905550826000015173ffffffffffffffffffffffffffffffffffffffff167f4d7fcca217e75e1a57dd8bd07a5bdce0687cc5a93591037097451084d3db3b268b836040516124f5929190613c94565b60405180910390a2505061266e565b806020015160046000836000015173ffffffffffffffffffffffffffffffffffffffff1673ffffffffffffffffffffffffffffffffffffffff168152602001908152602001600020600082825461255b91906131fd565b925050819055507fffffffffffffffffffffffffffffffffffffffffffffffffffffffffffffffff81602001516125929190613cbd565b600860008a81526020019081526020016000206000836000015173ffffffffffffffffffffffffffffffffffffffff1673ffffffffffffffffffffffffffffffffffffffff16815260200190815260200160002081905550806000015173ffffffffffffffffffffffffffffffffffffffff167f4d7fcca217e75e1a57dd8bd07a5bdce0687cc5a93591037097451084d3db3b26897fffffffffffffffffffffffffffffffffffffffffffffffffffffffffffffffff84602001516126579190613cbd565b604051612665929190613c94565b60405180910390a25b508080600101915050612336565b50505050505050565b61268e8161224e565b8073ffffffffffffffffffffffffffffffffffffffff167fbc7cd75a20ee27fd9adebab32041f755214dbc6bffa90cc0225b39da2e5c2d3b60405160405180910390a250565b60606126f98383604051806060016040528060278152602001613e5b60279139612701565b905092915050565b60606000808573ffffffffffffffffffffffffffffffffffffffff168560405161272b9190613d7c565b600060405180830381855af49150503d8060008114612766576040519150601f19603f3d011682016040523d82523d6000602084013e61276b565b606091505b509150915061277c86838387612787565b925050509392505050565b606083156127e95760008351036127e1576127a185611c38565b6127e0576040517f08c379a00000000000000000000000000000000000000000000000000000000081526004016127d790613ddf565b60405180910390fd5b5b8290506127f4565b6127f383836127fc565b5b949350505050565b60008251111561280f5781518083602001fd5b806040517f08c379a00000000000000000000000000000000000000000000000000000000081526004016128439190613e38565b60405180910390fd5b6000604051905090565b600080fd5b600080fd5b6000819050919050565b61287381612860565b811461287e57600080fd5b50565b6000813590506128908161286a565b92915050565b600073ffffffffffffffffffffffffffffffffffffffff82169050919050565b60006128c182612896565b9050919050565b6128d1816128b6565b81146128dc57600080fd5b50565b6000813590506128ee816128c8565b92915050565b6000806040838503121561290b5761290a612856565b5b600061291985828601612881565b925050602061292a858286016128df565b9150509250929050565b6000819050919050565b61294781612934565b82525050565b6000602082019050612962600083018461293e565b92915050565b60006020828403121561297e5761297d612856565b5b600061298c848285016128df565b91505092915050565b61299e81612860565b82525050565b60006020820190506129b96000830184612995565b92915050565b6000602082840312156129d5576129d4612856565b5b60006129e384828501612881565b91505092915050565b600080600060608486031215612a0557612a04612856565b5b6000612a1386828701612881565b9350506020612a2486828701612881565b9250506040612a3586828701612881565b9150509250925092565b612a48816128b6565b82525050565b6000604082019050612a636000830185612a3f565b612a706020830184612995565b9392505050565b600080fd5b600080fd5b6000601f19601f8301169050919050565b7f4e487b7100000000000000000000000000000000000000000000000000000000600052604160045260246000fd5b612aca82612a81565b810181811067ffffffffffffffff82111715612ae957612ae8612a92565b5b80604052505050565b6000612afc61284c565b9050612b088282612ac1565b919050565b600067ffffffffffffffff821115612b2857612b27612a92565b5b612b3182612a81565b9050602081019050919050565b82818337600083830152505050565b6000612b60612b5b84612b0d565b612af2565b905082815260208101848484011115612b7c57612b7b612a7c565b5b612b87848285612b3e565b509392505050565b600082601f830112612ba457612ba3612a77565b5b8135612bb4848260208601612b4d565b91505092915050565b60008060408385031215612bd457612bd3612856565b5b6000612be2858286016128df565b925050602083013567ffffffffffffffff811115612c0357612c0261285b565b5b612c0f85828601612b8f565b9150509250929050565b6000819050919050565b612c2c81612c19565b82525050565b6000602082019050612c476000830184612c23565b92915050565b600067ffffffffffffffff821115612c6857612c67612a92565b5b602082029050602081019050919050565b600080fd5b600067ffffffffffffffff821115612c9957612c98612a92565b5b612ca282612a81565b9050602081019050919050565b6000612cc2612cbd84612c7e565b612af2565b905082815260208101848484011115612cde57612cdd612a7c565b5b612ce9848285612b3e565b509392505050565b600082601f830112612d0657612d05612a77565b5b8135612d16848260208601612caf565b91505092915050565b6000612d32612d2d84612c4d565b612af2565b90508083825260208201905060208402830185811115612d5557612d54612c79565b5b835b81811015612d9c57803567ffffffffffffffff811115612d7a57612d79612a77565b5b808601612d878982612cf1565b85526020850194505050602081019050612d57565b5050509392505050565b600082601f830112612dbb57612dba612a77565b5b8135612dcb848260208601612d1f565b91505092915050565b600060208284031215612dea57612de9612856565b5b600082013567ffffffffffffffff811115612e0857612e0761285b565b5b612e1484828501612da6565b91505092915050565b6000602082019050612e326000830184612a3f565b92915050565b600081519050919050565b600082825260208201905092915050565b6000819050602082019050919050565b612e6d81612860565b82525050565b6000612e7f8383612e64565b60208301905092915050565b6000602082019050919050565b6000612ea382612e38565b612ead8185612e43565b9350612eb883612e54565b8060005b83811015612ee9578151612ed08882612e73565b9750612edb83612e8b565b925050600181019050612ebc565b5085935050505092915050565b60006040820190508181036000830152612f108185612e98565b9050612f1f6020830184612995565b9392505050565b600081519050919050565b600082825260208201905092915050565b6000819050602082019050919050565b600081519050919050565b600082825260208201905092915050565b60005b83811015612f8c578082015181840152602081019050612f71565b60008484015250505050565b6000612fa382612f52565b612fad8185612f5d565b9350612fbd818560208601612f6e565b612fc681612a81565b840191505092915050565b6000612fdd8383612f98565b905092915050565b6000602082019050919050565b6000612ffd82612f26565b6130078185612f31565b93508360208202850161301985612f42565b8060005b8581101561305557848403895281516130368582612fd1565b945061304183612fe5565b925060208a0199505060018101905061301d565b50829750879550505050505092915050565b600060608201905061307c6000830186612a3f565b818103602083015261308e8185612ff2565b905081810360408301526130a28184612e98565b9050949350505050565b600080604083850312156130c3576130c2612856565b5b60006130d185828601612881565b92505060206130e285828601612881565b9150509250929050565b60008115159050919050565b613101816130ec565b811461310c57600080fd5b50565b60008151905061311e816130f8565b92915050565b60006020828403121561313a57613139612856565b5b60006131488482850161310f565b91505092915050565b600082825260208201905092915050565b7f5472616e73666572206661696c65640000000000000000000000000000000000600082015250565b6000613198600f83613151565b91506131a382613162565b602082019050919050565b600060208201905081810360008301526131c78161318b565b9050919050565b7f4e487b7100000000000000000000000000000000000000000000000000000000600052601160045260246000fd5b600061320882612860565b915061321383612860565b925082820390508181111561322b5761322a6131ce565b5b92915050565b60006040820190506132466000830185612995565b6132536020830184612995565b9392505050565b7f46756e6374696f6e206d7573742062652063616c6c6564207468726f7567682060008201527f64656c656761746563616c6c0000000000000000000000000000000000000000602082015250565b60006132b6602c83613151565b91506132c18261325a565b604082019050919050565b600060208201905081810360008301526132e5816132a9565b9050919050565b7f46756e6374696f6e206d7573742062652063616c6c6564207468726f7567682060008201527f6163746976652070726f78790000000000000000000000000000000000000000602082015250565b6000613348602c83613151565b9150613353826132ec565b604082019050919050565b600060208201905081810360008301526133778161333b565b9050919050565b7f555550535570677261646561626c653a206d757374206e6f742062652063616c60008201527f6c6564207468726f7567682064656c656761746563616c6c0000000000000000602082015250565b60006133da603883613151565b91506133e58261337e565b604082019050919050565b60006020820190508181036000830152613409816133cd565b9050919050565b7f506f696e7473206d7573742062652067726561746572207468616e207a65726f600082015250565b6000613446602083613151565b915061345182613410565b602082019050919050565b6000602082019050818103600083015261347581613439565b9050919050565b600061348782612860565b915061349283612860565b92508282019050808211156134aa576134a96131ce565b5b92915050565b7f6c656e206572726f720000000000000000000000000000000000000000000000600082015250565b60006134e6600983613151565b91506134f1826134b0565b602082019050919050565b60006020820190508181036000830152613515816134d9565b9050919050565b7f4e487b7100000000000000000000000000000000000000000000000000000000600052603260045260246000fd5b7f4e487b7100000000000000000000000000000000000000000000000000000000600052602260045260246000fd5b6000600282049050600182168061359257607f821691505b6020821081036135a5576135a461354b565b5b50919050565b60008190508160005260206000209050919050565b60006020601f8301049050919050565b600082821b905092915050565b60006008830261360d7fffffffffffffffffffffffffffffffffffffffffffffffffffffffffffffffff826135d0565b61361786836135d0565b95508019841693508086168417925050509392505050565b6000819050919050565b600061365461364f61364a84612860565b61362f565b612860565b9050919050565b6000819050919050565b61366e83613639565b61368261367a8261365b565b8484546135dd565b825550505050565b600090565b61369761368a565b6136a2818484613665565b505050565b5b818110156136c6576136bb60008261368f565b6001810190506136a8565b5050565b601f82111561370b576136dc816135ab565b6136e5846135c0565b810160208510156136f4578190505b613708613700856135c0565b8301826136a7565b50505b505050565b600082821c905092915050565b600061372e60001984600802613710565b1980831691505092915050565b6000613747838361371d565b9150826002028217905092915050565b61376082612f52565b67ffffffffffffffff81111561377957613778612a92565b5b613783825461357a565b61378e8282856136ca565b600060209050601f8311600181146137c157600084156137af578287015190505b6137b9858261373b565b865550613821565b601f1984166137cf866135ab565b60005b828110156137f7578489015182556001820191506020850194506020810190506137d2565b868310156138145784890151613810601f89168261371d565b8355505b6001600288020188555050505b505050505050565b600060208201905081810360008301526138438184612ff2565b905092915050565b7f496e73756666696369656e7420766f74696e6720726967687473000000000000600082015250565b6000613881601a83613151565b915061388c8261384b565b602082019050919050565b600060208201905081810360008301526138b081613874565b9050919050565b60006060820190506138cc6000830186612a3f565b6138d96020830185612a3f565b6138e66040830184612995565b949350505050565b7f496e697469616c697a61626c653a20636f6e747261637420697320616c72656160008201527f647920696e697469616c697a6564000000000000000000000000000000000000602082015250565b600061394a602e83613151565b9150613955826138ee565b604082019050919050565b600060208201905081810360008301526139798161393d565b9050919050565b6000819050919050565b600060ff82169050919050565b60006139b26139ad6139a884613980565b61362f565b61398a565b9050919050565b6139c281613997565b82525050565b60006020820190506139dd60008301846139b9565b92915050565b6139ec81612c19565b81146139f757600080fd5b50565b600081519050613a09816139e3565b92915050565b600060208284031215613a2557613a24612856565b5b6000613a33848285016139fa565b91505092915050565b7f45524331393637557067726164653a206e657720696d706c656d656e7461746960008201527f6f6e206973206e6f742055555053000000000000000000000000000000000000602082015250565b6000613a98602e83613151565b9150613aa382613a3c565b604082019050919050565b60006020820190508181036000830152613ac781613a8b565b9050919050565b7f45524331393637557067726164653a20756e737570706f727465642070726f7860008201527f6961626c65555549440000000000000000000000000000000000000000000000602082015250565b6000613b2a602983613151565b9150613b3582613ace565b604082019050919050565b60006020820190508181036000830152613b5981613b1d565b9050919050565b6000613b6b82612860565b9150613b7683612860565b9250828202613b8481612860565b91508282048414831517613b9b57613b9a6131ce565b5b5092915050565b7f4e487b7100000000000000000000000000000000000000000000000000000000600052601260045260246000fd5b6000613bdc82612860565b9150613be783612860565b925082613bf757613bf6613ba2565b5b828204905092915050565b7f455243313936373a206e657720696d706c656d656e746174696f6e206973206e60008201527f6f74206120636f6e747261637400000000000000000000000000000000000000602082015250565b6000613c5e602d83613151565b9150613c6982613c02565b604082019050919050565b60006020820190508181036000830152613c8d81613c51565b9050919050565b6000604082019050613ca96000830185612995565b613cb6602083018461293e565b9392505050565b6000613cc882612934565b9150613cd383612934565b9250828202613ce181612934565b91507f80000000000000000000000000000000000000000000000000000000000000008414600084121615613d1957613d186131ce565b5b8282058414831517613d2e57613d2d6131ce565b5b5092915050565b600081519050919050565b600081905092915050565b6000613d5682613d35565b613d608185613d40565b9350613d70818560208601612f6e565b80840191505092915050565b6000613d888284613d4b565b915081905092915050565b7f416464726573733a2063616c6c20746f206e6f6e2d636f6e7472616374000000600082015250565b6000613dc9601d83613151565b9150613dd482613d93565b602082019050919050565b60006020820190508181036000830152613df881613dbc565b9050919050565b6000613e0a82612f52565b613e148185613151565b9350613e24818560208601612f6e565b613e2d81612a81565b840191505092915050565b60006020820190508181036000830152613e528184613dff565b90509291505056fe416464726573733a206c6f772d6c6576656c2064656c65676174652063616c6c206661696c6564a264697066735822122095d6b09b66581b0b569f8fa1c3f12acc7e1c68030bc74643a147745c86a3f06264736f6c63430008180033",
  "linkReferences": {},
  "deployedLinkReferences": {}
}