{
  "_format": "hh-sol-artifact-1",
  "contractName": "Proposal",
  "sourceName": "contracts/Proposal.sol",
  "abi": [
    {
      "inputs": [
        {
          "internalType": "address",
          "name": "user",
          "type": "address"
        },
        {
          "internalType": "uint256",
          "name": "availableBalance",
          "type": "uint256"
        }
      ],
      "name": "InsufficientBalance",
      "type": "error"
    },
    {
      "inputs": [
        {
          "internalType": "address",
          "name": "account",
          "type": "address"
        }
      ],
      "name": "OwnableUnauthorizedAccount",
      "type": "error"
    },
    {
      "anonymous": false,
      "inputs": [
        {
          "indexed": false,
          "internalType": "address",
          "name": "previousAdmin",
          "type": "address"
        },
        {
          "indexed": false,
          "internalType": "address",
          "name": "newAdmin",
          "type": "address"
        }
      ],
      "name": "AdminChanged",
      "type": "event"
    },
    {
      "anonymous": false,
      "inputs": [
        {
          "indexed": true,
          "internalType": "address",
          "name": "beacon",
          "type": "address"
        }
      ],
      "name": "BeaconUpgraded",
      "type": "event"
    },
    {
      "anonymous": false,
      "inputs": [
        {
          "indexed": true,
          "internalType": "address",
          "name": "founder",
          "type": "address"
        },
        {
          "indexed": true,
          "internalType": "uint256",
          "name": "id",
          "type": "uint256"
        },
        {
          "indexed": false,
          "internalType": "string[]",
          "name": "options",
          "type": "string[]"
        }
      ],
      "name": "Create",
      "type": "event"
    },
    {
      "anonymous": false,
      "inputs": [
        {
          "indexed": true,
          "internalType": "address",
          "name": "user",
          "type": "address"
        },
        {
          "indexed": false,
          "internalType": "uint256",
          "name": "amount",
          "type": "uint256"
        }
      ],
      "name": "Deposited",
      "type": "event"
    },
    {
      "anonymous": false,
      "inputs": [
        {
          "indexed": true,
          "internalType": "address",
          "name": "user",
          "type": "address"
        },
        {
          "indexed": false,
          "internalType": "uint256",
          "name": "points",
          "type": "uint256"
        }
      ],
      "name": "ExchangePoints",
      "type": "event"
    },
    {
      "anonymous": false,
      "inputs": [
        {
          "indexed": false,
          "internalType": "uint8",
          "name": "version",
          "type": "uint8"
        }
      ],
      "name": "Initialized",
      "type": "event"
    },
    {
      "anonymous": false,
      "inputs": [
        {
          "indexed": true,
          "internalType": "uint256",
          "name": "proposalId",
          "type": "uint256"
        },
        {
          "indexed": false,
          "internalType": "address[]",
          "name": "jurors",
          "type": "address[]"
        },
        {
          "indexed": false,
          "internalType": "uint256",
          "name": "reward",
          "type": "uint256"
        },
        {
          "indexed": false,
          "internalType": "uint256",
          "name": "rewardPerJuror",
          "type": "uint256"
        }
      ],
      "name": "JurorsDistributeRewards",
      "type": "event"
    },
    {
      "anonymous": false,
      "inputs": [
        {
          "indexed": true,
          "internalType": "uint256",
          "name": "proposalId",
          "type": "uint256"
        },
        {
          "indexed": false,
          "internalType": "uint256",
          "name": "winOptionId",
          "type": "uint256"
        }
      ],
      "name": "Refunded",
      "type": "event"
    },
    {
      "anonymous": false,
      "inputs": [
        {
          "indexed": false,
          "internalType": "uint256",
          "name": "proposalId",
          "type": "uint256"
        },
        {
          "indexed": false,
          "internalType": "uint256",
          "name": "winningOptionId",
          "type": "uint256"
        },
        {
          "indexed": false,
          "internalType": "address[]",
          "name": "jurors",
          "type": "address[]"
        }
      ],
      "name": "Settle",
      "type": "event"
    },
    {
      "anonymous": false,
      "inputs": [
        {
          "indexed": true,
          "internalType": "address",
          "name": "implementation",
          "type": "address"
        }
      ],
      "name": "Upgraded",
      "type": "event"
    },
    {
      "anonymous": false,
      "inputs": [
        {
          "indexed": true,
          "internalType": "address",
          "name": "_address",
          "type": "address"
        },
        {
          "indexed": true,
          "internalType": "uint256",
          "name": "_proposalId",
          "type": "uint256"
        },
        {
          "indexed": true,
          "internalType": "uint256",
          "name": "_optionId",
          "type": "uint256"
        },
        {
          "indexed": false,
          "internalType": "uint256",
          "name": "_amount",
          "type": "uint256"
        }
      ],
      "name": "Voted",
      "type": "event"
    },
    {
      "anonymous": false,
      "inputs": [
        {
          "indexed": true,
          "internalType": "address",
          "name": "user",
          "type": "address"
        },
        {
          "indexed": false,
          "internalType": "uint256",
          "name": "amount",
          "type": "uint256"
        },
        {
          "indexed": false,
          "internalType": "uint256",
          "name": "balance",
          "type": "uint256"
        }
      ],
      "name": "Withdraw",
      "type": "event"
    },
    {
      "inputs": [
        {
          "internalType": "address",
          "name": "",
          "type": "address"
        }
      ],
      "name": "balances",
      "outputs": [
        {
          "internalType": "uint256",
          "name": "",
          "type": "uint256"
        }
      ],
      "stateMutability": "view",
      "type": "function"
    },
    {
      "inputs": [
        {
          "internalType": "string[]",
          "name": "optionDescs",
          "type": "string[]"
        }
      ],
      "name": "create",
      "outputs": [],
      "stateMutability": "nonpayable",
      "type": "function"
    },
    {
      "inputs": [
        {
          "internalType": "uint256",
          "name": "amount",
          "type": "uint256"
        }
      ],
      "name": "deposit",
      "outputs": [
        {
          "internalType": "uint256",
          "name": "",
          "type": "uint256"
        }
      ],
      "stateMutability": "nonpayable",
      "type": "function"
    },
    {
      "inputs": [
        {
          "internalType": "uint256",
          "name": "points",
          "type": "uint256"
        }
      ],
      "name": "exchangePoints",
      "outputs": [],
      "stateMutability": "nonpayable",
      "type": "function"
    },
    {
      "inputs": [
        {
          "internalType": "address",
          "name": "user",
          "type": "address"
        }
      ],
      "name": "getAvailableBalance",
      "outputs": [
        {
          "internalType": "uint256",
          "name": "",
          "type": "uint256"
        }
      ],
      "stateMutability": "view",
      "type": "function"
    },
    {
      "inputs": [
        {
          "internalType": "uint256",
          "name": "proposalId",
          "type": "uint256"
        }
      ],
      "name": "getDetails",
      "outputs": [
        {
          "internalType": "address",
          "name": "founder",
          "type": "address"
        },
        {
          "internalType": "string[]",
          "name": "optionDescription",
          "type": "string[]"
        },
        {
          "internalType": "uint256[]",
          "name": "counts",
          "type": "uint256[]"
        },
        {
          "internalType": "uint256[]",
          "name": "voters",
          "type": "uint256[]"
        },
        {
          "internalType": "uint256",
          "name": "allVotesCast",
          "type": "uint256"
        },
        {
          "internalType": "uint256",
          "name": "allVoters",
          "type": "uint256"
        }
      ],
      "stateMutability": "view",
      "type": "function"
    },
    {
      "inputs": [
        {
          "internalType": "uint256",
          "name": "proposalId",
          "type": "uint256"
        },
        {
          "internalType": "uint256",
          "name": "optionId",
          "type": "uint256"
        }
      ],
      "name": "getVoting",
      "outputs": [
        {
          "components": [
            {
              "internalType": "address",
              "name": "user",
              "type": "address"
            },
            {
              "internalType": "uint256",
              "name": "amount",
              "type": "uint256"
            }
          ],
          "internalType": "struct Proposal.VoteInfo[]",
          "name": "",
          "type": "tuple[]"
        }
      ],
      "stateMutability": "view",
      "type": "function"
    },
    {
      "inputs": [
        {
          "internalType": "address",
          "name": "tokenAddr",
          "type": "address"
        }
      ],
      "name": "initialize",
      "outputs": [],
      "stateMutability": "nonpayable",
      "type": "function"
    },
    {
      "inputs": [],
      "name": "logicAddress",
      "outputs": [
        {
          "internalType": "address",
          "name": "",
          "type": "address"
        }
      ],
      "stateMutability": "view",
      "type": "function"
    },
    {
      "inputs": [],
      "name": "mlnTokenAddr",
      "outputs": [
        {
          "internalType": "address",
          "name": "",
          "type": "address"
        }
      ],
      "stateMutability": "view",
      "type": "function"
    },
    {
      "inputs": [],
      "name": "owner",
      "outputs": [
        {
          "internalType": "address",
          "name": "",
          "type": "address"
        }
      ],
      "stateMutability": "view",
      "type": "function"
    },
    {
      "inputs": [
        {
          "internalType": "uint256",
          "name": "",
          "type": "uint256"
        }
      ],
      "name": "proposalInfos",
      "outputs": [
        {
          "internalType": "address",
          "name": "founder",
          "type": "address"
        }
      ],
      "stateMutability": "view",
      "type": "function"
    },
    {
      "inputs": [],
      "name": "proxiableUUID",
      "outputs": [
        {
          "internalType": "bytes32",
          "name": "",
          "type": "bytes32"
        }
      ],
      "stateMutability": "view",
      "type": "function"
    },
    {
      "inputs": [
        {
          "internalType": "uint256",
          "name": "proposalId",
          "type": "uint256"
        },
        {
          "internalType": "uint256",
          "name": "winOptionId",
          "type": "uint256"
        },
        {
          "internalType": "address[]",
          "name": "jurors",
          "type": "address[]"
        }
      ],
      "name": "settle",
      "outputs": [],
      "stateMutability": "nonpayable",
      "type": "function"
    },
    {
      "inputs": [
        {
          "internalType": "address",
          "name": "newImplementation",
          "type": "address"
        }
      ],
      "name": "upgradeTo",
      "outputs": [],
      "stateMutability": "nonpayable",
      "type": "function"
    },
    {
      "inputs": [
        {
          "internalType": "address",
          "name": "newImplementation",
          "type": "address"
        },
        {
          "internalType": "bytes",
          "name": "data",
          "type": "bytes"
        }
      ],
      "name": "upgradeToAndCall",
      "outputs": [],
      "stateMutability": "payable",
      "type": "function"
    },
    {
      "inputs": [
        {
          "internalType": "uint256",
          "name": "",
          "type": "uint256"
        },
        {
          "internalType": "address",
          "name": "",
          "type": "address"
        }
      ],
      "name": "userProposalResults",
      "outputs": [
        {
          "internalType": "int256",
          "name": "",
          "type": "int256"
        }
      ],
      "stateMutability": "view",
      "type": "function"
    },
    {
      "inputs": [
        {
          "internalType": "uint256",
          "name": "proposalId",
          "type": "uint256"
        },
        {
          "internalType": "uint256",
          "name": "optionId",
          "type": "uint256"
        },
        {
          "internalType": "uint256",
          "name": "amount",
          "type": "uint256"
        }
      ],
      "name": "vote",
      "outputs": [],
      "stateMutability": "nonpayable",
      "type": "function"
    },
    {
      "inputs": [
        {
          "internalType": "uint256",
          "name": "",
          "type": "uint256"
        },
        {
          "internalType": "uint256",
          "name": "",
          "type": "uint256"
        },
        {
          "internalType": "uint256",
          "name": "",
          "type": "uint256"
        }
      ],
      "name": "voting",
      "outputs": [
        {
          "internalType": "address",
          "name": "user",
          "type": "address"
        },
        {
          "internalType": "uint256",
          "name": "amount",
          "type": "uint256"
        }
      ],
      "stateMutability": "view",
      "type": "function"
    },
    {
      "inputs": [
        {
          "internalType": "address",
          "name": "",
          "type": "address"
        }
      ],
      "name": "votingLock",
      "outputs": [
        {
          "internalType": "uint256",
          "name": "",
          "type": "uint256"
        }
      ],
      "stateMutability": "view",
      "type": "function"
    },
    {
      "inputs": [
        {
          "internalType": "uint256",
          "name": "",
          "type": "uint256"
        }
      ],
      "name": "winningOption",
      "outputs": [
        {
          "internalType": "uint256",
          "name": "",
          "type": "uint256"
        }
      ],
      "stateMutability": "view",
      "type": "function"
    },
    {
      "inputs": [
        {
          "internalType": "uint256",
          "name": "amount",
          "type": "uint256"
        }
      ],
      "name": "withdraw",
      "outputs": [],
      "stateMutability": "nonpayable",
      "type": "function"
    }
  ],
  "bytecode": "0x60a06040523073ffffffffffffffffffffffffffffffffffffffff1660809073ffffffffffffffffffffffffffffffffffffffff1681525034801561004357600080fd5b5060805161435e61007b600039600081816107fc0152818161088a01528181610a6801528181610af60152610ba6015261435e6000f3fe6080604052600436106101355760003560e01c80638da5cb5b116100ab578063b6b55f251161006f578063b6b55f251461044f578063b93a89f71461048c578063bdd69096146104ce578063bdd8e72e146104f7578063c3a0aba814610535578063c4d66de81461056057610135565b80638da5cb5b146103565780639b6f67be146103815780639c1fcc4c146103aa578063b00673bc146103d5578063b511328d1461041257610135565b806346a0d50a116100fd57806346a0d50a146102435780634f1ef2861461028057806352d1902d1461029c5780636c24a76f146102c75780637c7b66f7146103045780638a6655d61461032d57610135565b80630c7353e01461013a5780630dca7ed81461017757806327e235e3146101b45780632e1a7d4d146101f15780633659cfe61461021a575b600080fd5b34801561014657600080fd5b50610161600480360381019061015c9190612a57565b610589565b60405161016e9190612ab0565b60405180910390f35b34801561018357600080fd5b5061019e60048036038101906101999190612acb565b6105ae565b6040516101ab9190612b07565b60405180910390f35b3480156101c057600080fd5b506101db60048036038101906101d69190612b22565b6105c6565b6040516101e89190612b07565b60405180910390f35b3480156101fd57600080fd5b5061021860048036038101906102139190612acb565b6105de565b005b34801561022657600080fd5b50610241600480360381019061023c9190612b22565b6107fa565b005b34801561024f57600080fd5b5061026a60048036038101906102659190612b4f565b610982565b6040516102779190612c8b565b60405180910390f35b61029a60048036038101906102959190612df3565b610a66565b005b3480156102a857600080fd5b506102b1610ba2565b6040516102be9190612e68565b60405180910390f35b3480156102d357600080fd5b506102ee60048036038101906102e99190612b22565b610c5b565b6040516102fb9190612b07565b60405180910390f35b34801561031057600080fd5b5061032b60048036038101906103269190612acb565b610cff565b005b34801561033957600080fd5b50610354600480360381019061034f9190612e83565b610de9565b005b34801561036257600080fd5b5061036b61104e565b6040516103789190612ee5565b60405180910390f35b34801561038d57600080fd5b506103a860048036038101906103a39190612fc8565b611074565b005b3480156103b657600080fd5b506103bf611105565b6040516103cc9190612ee5565b60405180910390f35b3480156103e157600080fd5b506103fc60048036038101906103f79190612b22565b61112b565b6040516104099190612b07565b60405180910390f35b34801561041e57600080fd5b5061043960048036038101906104349190612acb565b611143565b6040516104469190612ee5565b60405180910390f35b34801561045b57600080fd5b5061047660048036038101906104719190612acb565b611191565b6040516104839190612b07565b60405180910390f35b34801561049857600080fd5b506104b360048036038101906104ae9190612acb565b61135f565b6040516104c596959493929190613227565b60405180910390f35b3480156104da57600080fd5b506104f560048036038101906104f0919061341f565b611692565b005b34801561050357600080fd5b5061051e60048036038101906105199190612e83565b611851565b60405161052c929190613468565b60405180910390f35b34801561054157600080fd5b5061054a6118bf565b6040516105579190612ee5565b60405180910390f35b34801561056c57600080fd5b5061058760048036038101906105829190612b22565b6118e5565b005b6008602052816000526040600020602052806000526040600020600091509150505481565b60076020528060005260406000206000915090505481565b60046020528060005260406000206000915090505481565b60006105e933610c5b565b9050818110156106325733816040517ff6deaa04000000000000000000000000000000000000000000000000000000008152600401610629929190613468565b60405180910390fd5b600260009054906101000a900473ffffffffffffffffffffffffffffffffffffffff1673ffffffffffffffffffffffffffffffffffffffff1663a9059cbb33846040518363ffffffff1660e01b815260040161068f929190613468565b6020604051808303816000875af11580156106ae573d6000803e3d6000fd5b505050506040513d601f19601f820116820180604052508101906106d291906134c9565b610711576040517f08c379a000000000000000000000000000000000000000000000000000000000815260040161070890613553565b60405180910390fd5b81600460003373ffffffffffffffffffffffffffffffffffffffff1673ffffffffffffffffffffffffffffffffffffffff168152602001908152602001600020600082825461076091906135a2565b925050819055503373ffffffffffffffffffffffffffffffffffffffff167ff279e6a1f5e320cca91135676d9cb6e44ca8a08c0b88342bcdb1144f6511b56883600460003373ffffffffffffffffffffffffffffffffffffffff1673ffffffffffffffffffffffffffffffffffffffff168152602001908152602001600020546040516107ee9291906135d6565b60405180910390a25050565b7f000000000000000000000000000000000000000000000000000000000000000073ffffffffffffffffffffffffffffffffffffffff163073ffffffffffffffffffffffffffffffffffffffff1603610888576040517f08c379a000000000000000000000000000000000000000000000000000000000815260040161087f90613671565b60405180910390fd5b7f000000000000000000000000000000000000000000000000000000000000000073ffffffffffffffffffffffffffffffffffffffff166108c7611a9e565b73ffffffffffffffffffffffffffffffffffffffff161461091d576040517f08c379a000000000000000000000000000000000000000000000000000000000815260040161091490613703565b60405180910390fd5b61092681611af5565b61097f81600067ffffffffffffffff81111561094557610944612cc8565b5b6040519080825280601f01601f1916602001820160405280156109775781602001600182028036833780820191505090505b506000611bcb565b50565b6060600660008481526020019081526020016000206000838152602001908152602001600020805480602002602001604051908101604052809291908181526020016000905b82821015610a5a57838290600052602060002090600202016040518060400160405290816000820160009054906101000a900473ffffffffffffffffffffffffffffffffffffffff1673ffffffffffffffffffffffffffffffffffffffff1673ffffffffffffffffffffffffffffffffffffffff168152602001600182015481525050815260200190600101906109c8565b50505050905092915050565b7f000000000000000000000000000000000000000000000000000000000000000073ffffffffffffffffffffffffffffffffffffffff163073ffffffffffffffffffffffffffffffffffffffff1603610af4576040517f08c379a0000000000000000000000000000000000000000000000000000000008152600401610aeb90613671565b60405180910390fd5b7f000000000000000000000000000000000000000000000000000000000000000073ffffffffffffffffffffffffffffffffffffffff16610b33611a9e565b73ffffffffffffffffffffffffffffffffffffffff1614610b89576040517f08c379a0000000000000000000000000000000000000000000000000000000008152600401610b8090613703565b60405180910390fd5b610b9282611af5565b610b9e82826001611bcb565b5050565b60007f000000000000000000000000000000000000000000000000000000000000000073ffffffffffffffffffffffffffffffffffffffff163073ffffffffffffffffffffffffffffffffffffffff1614610c32576040517f08c379a0000000000000000000000000000000000000000000000000000000008152600401610c2990613795565b60405180910390fd5b7f360894a13ba1a3210667c828492db98dca3e2076cc3735a920a3ca505d382bbc60001b905090565b600080600460008473ffffffffffffffffffffffffffffffffffffffff1673ffffffffffffffffffffffffffffffffffffffff1681526020019081526020016000205490506000600560008573ffffffffffffffffffffffffffffffffffffffff1673ffffffffffffffffffffffffffffffffffffffff16815260200190815260200160002054905060008190508083610cf591906135a2565b9350505050919050565b60008111610d42576040517f08c379a0000000000000000000000000000000000000000000000000000000008152600401610d3990613801565b60405180910390fd5b80600460003373ffffffffffffffffffffffffffffffffffffffff1673ffffffffffffffffffffffffffffffffffffffff1681526020019081526020016000206000828254610d919190613821565b925050819055503373ffffffffffffffffffffffffffffffffffffffff167fa0c8eda28ab82fe28c2bcaa48a1ce2b5eac8dbed005a6e8eb62398577e908d5c82604051610dde9190612b07565b60405180910390a250565b80610df333610c5b565b1015610e34576040517f08c379a0000000000000000000000000000000000000000000000000000000008152600401610e2b906138a1565b60405180910390fd5b80600560003373ffffffffffffffffffffffffffffffffffffffff1673ffffffffffffffffffffffffffffffffffffffff1681526020019081526020016000206000828254610e839190613821565b92505081905550600060038481548110610ea057610e9f6138c1565b5b9060005260206000209060020201905081816001018481548110610ec757610ec66138c1565b5b90600052602060002090600302016001016000828254610ee79190613821565b925050819055506001816001018481548110610f0657610f056138c1565b5b90600052602060002090600302016002016000828254610f269190613821565b9250508190555060066000858152602001908152602001600020600084815260200190815260200160002060405180604001604052803373ffffffffffffffffffffffffffffffffffffffff16815260200184815250908060018154018082558091505060019003906000526020600020906002020160009091909190915060008201518160000160006101000a81548173ffffffffffffffffffffffffffffffffffffffff021916908373ffffffffffffffffffffffffffffffffffffffff16021790555060208201518160010155505082843373ffffffffffffffffffffffffffffffffffffffff167fc32b42768a47a585121e9b8d7a2ab9d3f34c326a192dee11ee1732e3d18313f3856040516110409190612b07565b60405180910390a450505050565b600060029054906101000a900473ffffffffffffffffffffffffffffffffffffffff1681565b7f96a54eb5c3629a7082316372c06617c472b5958a748182a70c0ba0b1c7e3c8868383836040516110a79392919061399f565b60405180910390a160006110bb8484611d39565b905080156110d2576110cd8484611f35565b6110e7565b6110dc84836120b7565b6110e68484612233565b5b82600760008681526020019081526020016000208190555050505050565b600160009054906101000a900473ffffffffffffffffffffffffffffffffffffffff1681565b60056020528060005260406000206000915090505481565b6003818154811061115357600080fd5b90600052602060002090600202016000915090508060000160009054906101000a900473ffffffffffffffffffffffffffffffffffffffff16905081565b6000600260009054906101000a900473ffffffffffffffffffffffffffffffffffffffff1673ffffffffffffffffffffffffffffffffffffffff166323b872dd3330856040518463ffffffff1660e01b81526004016111f2939291906139dd565b6020604051808303816000875af1158015611211573d6000803e3d6000fd5b505050506040513d601f19601f8201168201806040525081019061123591906134c9565b611274576040517f08c379a000000000000000000000000000000000000000000000000000000000815260040161126b90613553565b60405180910390fd5b81600460003373ffffffffffffffffffffffffffffffffffffffff1673ffffffffffffffffffffffffffffffffffffffff16815260200190815260200160002060008282546112c39190613821565b925050819055503373ffffffffffffffffffffffffffffffffffffffff167f2da466a7b24304f47e87fa2e1e5a81b9831ce54fec19055ce277ca2f39ba42c4836040516113109190612b07565b60405180910390a2600460003373ffffffffffffffffffffffffffffffffffffffff1673ffffffffffffffffffffffffffffffffffffffff168152602001908152602001600020549050919050565b6000606080606060008060006003888154811061137f5761137e6138c1565b5b906000526020600020906002020190506000816001018054905090508067ffffffffffffffff8111156113b5576113b4612cc8565b5b6040519080825280602002602001820160405280156113e857816020015b60608152602001906001900390816113d35790505b5096508067ffffffffffffffff81111561140557611404612cc8565b5b6040519080825280602002602001820160405280156114335781602001602082028036833780820191505090505b5095508067ffffffffffffffff8111156114505761144f612cc8565b5b60405190808252806020026020018201604052801561147e5781602001602082028036833780820191505090505b5094508160000160009054906101000a900473ffffffffffffffffffffffffffffffffffffffff16975060005b81811015611686578260010181815481106114c9576114c86138c1565b5b906000526020600020906003020160000180546114e590613a43565b80601f016020809104026020016040519081016040528092919081815260200182805461151190613a43565b801561155e5780601f106115335761010080835404028352916020019161155e565b820191906000526020600020905b81548152906001019060200180831161154157829003601f168201915b5050505050888281518110611576576115756138c1565b5b6020026020010181905250826001018181548110611597576115966138c1565b5b9060005260206000209060030201600101548782815181106115bc576115bb6138c1565b5b6020026020010181815250508260010181815481106115de576115dd6138c1565b5b906000526020600020906003020160020154868281518110611603576116026138c1565b5b602002602001018181525050826001018181548110611625576116246138c1565b5b906000526020600020906003020160020154846116429190613821565b935082600101818154811061165a576116596138c1565b5b906000526020600020906003020160010154856116779190613821565b945080806001019150506114ab565b50505091939550919395565b60008151116116d6576040517f08c379a00000000000000000000000000000000000000000000000000000000081526004016116cd90613ac0565b60405180910390fd5b600060036001816001815401808255809150500390600052602060002090600202019050338160000160006101000a81548173ffffffffffffffffffffffffffffffffffffffff021916908373ffffffffffffffffffffffffffffffffffffffff16021790555060005b82518110156117e65781600101604051806060016040528085848151811061176b5761176a6138c1565b5b60200260200101518152602001600081526020016000815250908060018154018082558091505060019003906000526020600020906003020160009091909190915060008201518160000190816117c29190613c8c565b50602082015181600101556040820151816002015550508080600101915050611740565b50600060016003805490506117fb91906135a2565b9050803373ffffffffffffffffffffffffffffffffffffffff167f66a044198f8a0fc35ed879be5d27c3d6ca15787c13093f47e3ba8a94c78eb796856040516118449190613d5e565b60405180910390a3505050565b6006602052826000526040600020602052816000526040600020818154811061187957600080fd5b906000526020600020906002020160009250925050508060000160009054906101000a900473ffffffffffffffffffffffffffffffffffffffff16908060010154905082565b600260009054906101000a900473ffffffffffffffffffffffffffffffffffffffff1681565b60008060019054906101000a900460ff161590508080156119165750600160008054906101000a900460ff1660ff16105b80611943575061192530612451565b1580156119425750600160008054906101000a900460ff1660ff16145b5b611982576040517f08c379a000000000000000000000000000000000000000000000000000000000815260040161197990613df2565b60405180910390fd5b60016000806101000a81548160ff021916908360ff16021790555080156119bf576001600060016101000a81548160ff0219169083151502179055505b81600260006101000a81548173ffffffffffffffffffffffffffffffffffffffff021916908373ffffffffffffffffffffffffffffffffffffffff16021790555033600060026101000a81548173ffffffffffffffffffffffffffffffffffffffff021916908373ffffffffffffffffffffffffffffffffffffffff1602179055508015611a9a5760008060016101000a81548160ff0219169083151502179055507f7f26b83ff96e1f2b6a682f133852f6798a09c465da95921460cefb38474024986001604051611a919190613e5a565b60405180910390a15b5050565b6000611acc7f360894a13ba1a3210667c828492db98dca3e2076cc3735a920a3ca505d382bbc60001b612474565b60000160009054906101000a900473ffffffffffffffffffffffffffffffffffffffff16905090565b3373ffffffffffffffffffffffffffffffffffffffff16600060029054906101000a900473ffffffffffffffffffffffffffffffffffffffff1673ffffffffffffffffffffffffffffffffffffffff1614611b8757336040517f118cdaa7000000000000000000000000000000000000000000000000000000008152600401611b7e9190612ee5565b60405180910390fd5b80600160006101000a81548173ffffffffffffffffffffffffffffffffffffffff021916908373ffffffffffffffffffffffffffffffffffffffff16021790555050565b611bf77f4910fdfa16fed3260ed0e7147f7cc6da11a60208b5b9406d12a635614ffd914360001b61247e565b60000160009054906101000a900460ff1615611c1b57611c1683612488565b611d34565b8273ffffffffffffffffffffffffffffffffffffffff166352d1902d6040518163ffffffff1660e01b8152600401602060405180830381865afa925050508015611c8357506040513d601f19601f82011682018060405250810190611c809190613ea1565b60015b611cc2576040517f08c379a0000000000000000000000000000000000000000000000000000000008152600401611cb990613f40565b60405180910390fd5b7f360894a13ba1a3210667c828492db98dca3e2076cc3735a920a3ca505d382bbc60001b8114611d27576040517f08c379a0000000000000000000000000000000000000000000000000000000008152600401611d1e90613fd2565b60405180910390fd5b50611d33838383612541565b5b505050565b60008060038481548110611d5057611d4f6138c1565b5b90600052602060002090600202016040518060400160405290816000820160009054906101000a900473ffffffffffffffffffffffffffffffffffffffff1673ffffffffffffffffffffffffffffffffffffffff1673ffffffffffffffffffffffffffffffffffffffff16815260200160018201805480602002602001604051908101604052809291908181526020016000905b82821015611ebc5783829060005260206000209060030201604051806060016040529081600082018054611e1790613a43565b80601f0160208091040260200160405190810160405280929190818152602001828054611e4390613a43565b8015611e905780601f10611e6557610100808354040283529160200191611e90565b820191906000526020600020905b815481529060010190602001808311611e7357829003601f168201915b505050505081526020016001820154815260200160028201548152505081526020019060010190611de4565b5050505081525050905060008160200151905060005b8151811015611f2757848114158015611f0957506000828281518110611efb57611efa6138c1565b5b602002602001015160200151115b15611f1a5760009350505050611f2f565b8080600101915050611ed2565b506001925050505b92915050565b600060066000838152602001908152602001600020905060005b816000848152602001908152602001600020805490508110156120795760008260008581526020019081526020016000208281548110611f9257611f916138c1565b5b90600052602060002090600202016040518060400160405290816000820160009054906101000a900473ffffffffffffffffffffffffffffffffffffffff1673ffffffffffffffffffffffffffffffffffffffff1673ffffffffffffffffffffffffffffffffffffffff1681526020016001820154815250509050806020015160056000836000015173ffffffffffffffffffffffffffffffffffffffff1673ffffffffffffffffffffffffffffffffffffffff168152602001908152602001600020600082825461206491906135a2565b92505081905550508080600101915050611f4f565b50827fb7c1f9298a18c36af08bd57eabbfbeb04695f24d0438f67614741ec15fb5c4a9836040516120aa9190612b07565b60405180910390a2505050565b60006120c28361135f565b50945050505050600060646002836120da9190613ff2565b6120e49190614063565b905060008351826120f59190614063565b905060005b84518110156121ef57816004600087848151811061211b5761211a6138c1565b5b602002602001015173ffffffffffffffffffffffffffffffffffffffff1673ffffffffffffffffffffffffffffffffffffffff168152602001908152602001600020600082825461216c9190613821565b925050819055508160086000888152602001908152602001600020600087848151811061219c5761219b6138c1565b5b602002602001015173ffffffffffffffffffffffffffffffffffffffff1673ffffffffffffffffffffffffffffffffffffffff1681526020019081526020016000208190555080806001019150506120fa565b50847f1034bcc6d30aa91c93d14ce14f959d5d304d6b8a76f50f026934b85d4e4122ed85848460405161222493929190614094565b60405180910390a25050505050565b600060038381548110612249576122486138c1565b5b9060005260206000209060020201905060008160010180549050905060006006600085815260200190815260200160002090506000806122888761135f565b5094505093505050606460058261229f9190613ff2565b6122a99190614063565b600460008760000160009054906101000a900473ffffffffffffffffffffffffffffffffffffffff1673ffffffffffffffffffffffffffffffffffffffff1673ffffffffffffffffffffffffffffffffffffffff168152602001908152602001600020600082825461231b9190613821565b92505081905550600060646058836123339190613ff2565b61233d9190614063565b905060005b8581101561244657612439898984878c81518110612363576123626138c1565b5b6020026020010151896000878152602001908152602001600020805480602002602001604051908101604052809291908181526020016000905b8282101561242f57838290600052602060002090600202016040518060400160405290816000820160009054906101000a900473ffffffffffffffffffffffffffffffffffffffff1673ffffffffffffffffffffffffffffffffffffffff1673ffffffffffffffffffffffffffffffffffffffff1681526020016001820154815250508152602001906001019061239d565b505050508661256d565b8080600101915050612342565b505050505050505050565b6000808273ffffffffffffffffffffffffffffffffffffffff163b119050919050565b6000819050919050565b6000819050919050565b61249181612451565b6124d0576040517f08c379a00000000000000000000000000000000000000000000000000000000081526004016124c790614144565b60405180910390fd5b806124fd7f360894a13ba1a3210667c828492db98dca3e2076cc3735a920a3ca505d382bbc60001b612474565b60000160006101000a81548173ffffffffffffffffffffffffffffffffffffffff021916908373ffffffffffffffffffffffffffffffffffffffff16021790555050565b61254a836127e8565b6000825111806125575750805b15612568576125668383612837565b505b505050565b60005b82518110156127df57600083828151811061258e5761258d6138c1565b5b60200260200101519050806020015160056000836000015173ffffffffffffffffffffffffffffffffffffffff1673ffffffffffffffffffffffffffffffffffffffff16815260200190815260200160002060008282546125ef91906135a2565b925050819055508683036126ea576000858783602001516126109190613ff2565b61261a9190614063565b9050600082602001518261262e91906135a2565b90508060046000856000015173ffffffffffffffffffffffffffffffffffffffff1673ffffffffffffffffffffffffffffffffffffffff16815260200190815260200160002060008282546126839190613821565b9250508190555080600860008c81526020019081526020016000206000856000015173ffffffffffffffffffffffffffffffffffffffff1673ffffffffffffffffffffffffffffffffffffffff1681526020019081526020016000208190555050506127d1565b806020015160046000836000015173ffffffffffffffffffffffffffffffffffffffff1673ffffffffffffffffffffffffffffffffffffffff168152602001908152602001600020600082825461274191906135a2565b925050819055507fffffffffffffffffffffffffffffffffffffffffffffffffffffffffffffffff81602001516127789190614164565b600860008a81526020019081526020016000206000836000015173ffffffffffffffffffffffffffffffffffffffff1673ffffffffffffffffffffffffffffffffffffffff168152602001908152602001600020819055505b508080600101915050612570565b50505050505050565b6127f181612488565b8073ffffffffffffffffffffffffffffffffffffffff167fbc7cd75a20ee27fd9adebab32041f755214dbc6bffa90cc0225b39da2e5c2d3b60405160405180910390a250565b606061285c838360405180606001604052806027815260200161430260279139612864565b905092915050565b60606000808573ffffffffffffffffffffffffffffffffffffffff168560405161288e9190614223565b600060405180830381855af49150503d80600081146128c9576040519150601f19603f3d011682016040523d82523d6000602084013e6128ce565b606091505b50915091506128df868383876128ea565b925050509392505050565b6060831561294c5760008351036129445761290485612451565b612943576040517f08c379a000000000000000000000000000000000000000000000000000000000815260040161293a90614286565b60405180910390fd5b5b829050612957565b612956838361295f565b5b949350505050565b6000825111156129725781518083602001fd5b806040517f08c379a00000000000000000000000000000000000000000000000000000000081526004016129a691906142df565b60405180910390fd5b6000604051905090565b600080fd5b600080fd5b6000819050919050565b6129d6816129c3565b81146129e157600080fd5b50565b6000813590506129f3816129cd565b92915050565b600073ffffffffffffffffffffffffffffffffffffffff82169050919050565b6000612a24826129f9565b9050919050565b612a3481612a19565b8114612a3f57600080fd5b50565b600081359050612a5181612a2b565b92915050565b60008060408385031215612a6e57612a6d6129b9565b5b6000612a7c858286016129e4565b9250506020612a8d85828601612a42565b9150509250929050565b6000819050919050565b612aaa81612a97565b82525050565b6000602082019050612ac56000830184612aa1565b92915050565b600060208284031215612ae157612ae06129b9565b5b6000612aef848285016129e4565b91505092915050565b612b01816129c3565b82525050565b6000602082019050612b1c6000830184612af8565b92915050565b600060208284031215612b3857612b376129b9565b5b6000612b4684828501612a42565b91505092915050565b60008060408385031215612b6657612b656129b9565b5b6000612b74858286016129e4565b9250506020612b85858286016129e4565b9150509250929050565b600081519050919050565b600082825260208201905092915050565b6000819050602082019050919050565b612bc481612a19565b82525050565b612bd3816129c3565b82525050565b604082016000820151612bef6000850182612bbb565b506020820151612c026020850182612bca565b50505050565b6000612c148383612bd9565b60408301905092915050565b6000602082019050919050565b6000612c3882612b8f565b612c428185612b9a565b9350612c4d83612bab565b8060005b83811015612c7e578151612c658882612c08565b9750612c7083612c20565b925050600181019050612c51565b5085935050505092915050565b60006020820190508181036000830152612ca58184612c2d565b905092915050565b600080fd5b600080fd5b6000601f19601f8301169050919050565b7f4e487b7100000000000000000000000000000000000000000000000000000000600052604160045260246000fd5b612d0082612cb7565b810181811067ffffffffffffffff82111715612d1f57612d1e612cc8565b5b80604052505050565b6000612d326129af565b9050612d3e8282612cf7565b919050565b600067ffffffffffffffff821115612d5e57612d5d612cc8565b5b612d6782612cb7565b9050602081019050919050565b82818337600083830152505050565b6000612d96612d9184612d43565b612d28565b905082815260208101848484011115612db257612db1612cb2565b5b612dbd848285612d74565b509392505050565b600082601f830112612dda57612dd9612cad565b5b8135612dea848260208601612d83565b91505092915050565b60008060408385031215612e0a57612e096129b9565b5b6000612e1885828601612a42565b925050602083013567ffffffffffffffff811115612e3957612e386129be565b5b612e4585828601612dc5565b9150509250929050565b6000819050919050565b612e6281612e4f565b82525050565b6000602082019050612e7d6000830184612e59565b92915050565b600080600060608486031215612e9c57612e9b6129b9565b5b6000612eaa868287016129e4565b9350506020612ebb868287016129e4565b9250506040612ecc868287016129e4565b9150509250925092565b612edf81612a19565b82525050565b6000602082019050612efa6000830184612ed6565b92915050565b600067ffffffffffffffff821115612f1b57612f1a612cc8565b5b602082029050602081019050919050565b600080fd5b6000612f44612f3f84612f00565b612d28565b90508083825260208201905060208402830185811115612f6757612f66612f2c565b5b835b81811015612f905780612f7c8882612a42565b845260208401935050602081019050612f69565b5050509392505050565b600082601f830112612faf57612fae612cad565b5b8135612fbf848260208601612f31565b91505092915050565b600080600060608486031215612fe157612fe06129b9565b5b6000612fef868287016129e4565b9350506020613000868287016129e4565b925050604084013567ffffffffffffffff811115613021576130206129be565b5b61302d86828701612f9a565b9150509250925092565b600081519050919050565b600082825260208201905092915050565b6000819050602082019050919050565b600081519050919050565b600082825260208201905092915050565b60005b8381101561309d578082015181840152602081019050613082565b60008484015250505050565b60006130b482613063565b6130be818561306e565b93506130ce81856020860161307f565b6130d781612cb7565b840191505092915050565b60006130ee83836130a9565b905092915050565b6000602082019050919050565b600061310e82613037565b6131188185613042565b93508360208202850161312a85613053565b8060005b85811015613166578484038952815161314785826130e2565b9450613152836130f6565b925060208a0199505060018101905061312e565b50829750879550505050505092915050565b600081519050919050565b600082825260208201905092915050565b6000819050602082019050919050565b60006131b08383612bca565b60208301905092915050565b6000602082019050919050565b60006131d482613178565b6131de8185613183565b93506131e983613194565b8060005b8381101561321a57815161320188826131a4565b975061320c836131bc565b9250506001810190506131ed565b5085935050505092915050565b600060c08201905061323c6000830189612ed6565b818103602083015261324e8188613103565b9050818103604083015261326281876131c9565b9050818103606083015261327681866131c9565b90506132856080830185612af8565b61329260a0830184612af8565b979650505050505050565b600067ffffffffffffffff8211156132b8576132b7612cc8565b5b602082029050602081019050919050565b600067ffffffffffffffff8211156132e4576132e3612cc8565b5b6132ed82612cb7565b9050602081019050919050565b600061330d613308846132c9565b612d28565b90508281526020810184848401111561332957613328612cb2565b5b613334848285612d74565b509392505050565b600082601f83011261335157613350612cad565b5b81356133618482602086016132fa565b91505092915050565b600061337d6133788461329d565b612d28565b905080838252602082019050602084028301858111156133a05761339f612f2c565b5b835b818110156133e757803567ffffffffffffffff8111156133c5576133c4612cad565b5b8086016133d2898261333c565b855260208501945050506020810190506133a2565b5050509392505050565b600082601f83011261340657613405612cad565b5b813561341684826020860161336a565b91505092915050565b600060208284031215613435576134346129b9565b5b600082013567ffffffffffffffff811115613453576134526129be565b5b61345f848285016133f1565b91505092915050565b600060408201905061347d6000830185612ed6565b61348a6020830184612af8565b9392505050565b60008115159050919050565b6134a681613491565b81146134b157600080fd5b50565b6000815190506134c38161349d565b92915050565b6000602082840312156134df576134de6129b9565b5b60006134ed848285016134b4565b91505092915050565b600082825260208201905092915050565b7f5472616e73666572206661696c65640000000000000000000000000000000000600082015250565b600061353d600f836134f6565b915061354882613507565b602082019050919050565b6000602082019050818103600083015261356c81613530565b9050919050565b7f4e487b7100000000000000000000000000000000000000000000000000000000600052601160045260246000fd5b60006135ad826129c3565b91506135b8836129c3565b92508282039050818111156135d0576135cf613573565b5b92915050565b60006040820190506135eb6000830185612af8565b6135f86020830184612af8565b9392505050565b7f46756e6374696f6e206d7573742062652063616c6c6564207468726f7567682060008201527f64656c656761746563616c6c0000000000000000000000000000000000000000602082015250565b600061365b602c836134f6565b9150613666826135ff565b604082019050919050565b6000602082019050818103600083015261368a8161364e565b9050919050565b7f46756e6374696f6e206d7573742062652063616c6c6564207468726f7567682060008201527f6163746976652070726f78790000000000000000000000000000000000000000602082015250565b60006136ed602c836134f6565b91506136f882613691565b604082019050919050565b6000602082019050818103600083015261371c816136e0565b9050919050565b7f555550535570677261646561626c653a206d757374206e6f742062652063616c60008201527f6c6564207468726f7567682064656c656761746563616c6c0000000000000000602082015250565b600061377f6038836134f6565b915061378a82613723565b604082019050919050565b600060208201905081810360008301526137ae81613772565b9050919050565b7f506f696e7473206d7573742062652067726561746572207468616e207a65726f600082015250565b60006137eb6020836134f6565b91506137f6826137b5565b602082019050919050565b6000602082019050818103600083015261381a816137de565b9050919050565b600061382c826129c3565b9150613837836129c3565b925082820190508082111561384f5761384e613573565b5b92915050565b7f496e73756666696369656e7420766f74696e6720726967687473000000000000600082015250565b600061388b601a836134f6565b915061389682613855565b602082019050919050565b600060208201905081810360008301526138ba8161387e565b9050919050565b7f4e487b7100000000000000000000000000000000000000000000000000000000600052603260045260246000fd5b600081519050919050565b600082825260208201905092915050565b6000819050602082019050919050565b60006139288383612bbb565b60208301905092915050565b6000602082019050919050565b600061394c826138f0565b61395681856138fb565b93506139618361390c565b8060005b83811015613992578151613979888261391c565b975061398483613934565b925050600181019050613965565b5085935050505092915050565b60006060820190506139b46000830186612af8565b6139c16020830185612af8565b81810360408301526139d38184613941565b9050949350505050565b60006060820190506139f26000830186612ed6565b6139ff6020830185612ed6565b613a0c6040830184612af8565b949350505050565b7f4e487b7100000000000000000000000000000000000000000000000000000000600052602260045260246000fd5b60006002820490506001821680613a5b57607f821691505b602082108103613a6e57613a6d613a14565b5b50919050565b7f6c656e206572726f720000000000000000000000000000000000000000000000600082015250565b6000613aaa6009836134f6565b9150613ab582613a74565b602082019050919050565b60006020820190508181036000830152613ad981613a9d565b9050919050565b60008190508160005260206000209050919050565b60006020601f8301049050919050565b600082821b905092915050565b600060088302613b427fffffffffffffffffffffffffffffffffffffffffffffffffffffffffffffffff82613b05565b613b4c8683613b05565b95508019841693508086168417925050509392505050565b6000819050919050565b6000613b89613b84613b7f846129c3565b613b64565b6129c3565b9050919050565b6000819050919050565b613ba383613b6e565b613bb7613baf82613b90565b848454613b12565b825550505050565b600090565b613bcc613bbf565b613bd7818484613b9a565b505050565b5b81811015613bfb57613bf0600082613bc4565b600181019050613bdd565b5050565b601f821115613c4057613c1181613ae0565b613c1a84613af5565b81016020851015613c29578190505b613c3d613c3585613af5565b830182613bdc565b50505b505050565b600082821c905092915050565b6000613c6360001984600802613c45565b1980831691505092915050565b6000613c7c8383613c52565b9150826002028217905092915050565b613c9582613063565b67ffffffffffffffff811115613cae57613cad612cc8565b5b613cb88254613a43565b613cc3828285613bff565b600060209050601f831160018114613cf65760008415613ce4578287015190505b613cee8582613c70565b865550613d56565b601f198416613d0486613ae0565b60005b82811015613d2c57848901518255600182019150602085019450602081019050613d07565b86831015613d495784890151613d45601f891682613c52565b8355505b6001600288020188555050505b505050505050565b60006020820190508181036000830152613d788184613103565b905092915050565b7f496e697469616c697a61626c653a20636f6e747261637420697320616c72656160008201527f647920696e697469616c697a6564000000000000000000000000000000000000602082015250565b6000613ddc602e836134f6565b9150613de782613d80565b604082019050919050565b60006020820190508181036000830152613e0b81613dcf565b9050919050565b6000819050919050565b600060ff82169050919050565b6000613e44613e3f613e3a84613e12565b613b64565b613e1c565b9050919050565b613e5481613e29565b82525050565b6000602082019050613e6f6000830184613e4b565b92915050565b613e7e81612e4f565b8114613e8957600080fd5b50565b600081519050613e9b81613e75565b92915050565b600060208284031215613eb757613eb66129b9565b5b6000613ec584828501613e8c565b91505092915050565b7f45524331393637557067726164653a206e657720696d706c656d656e7461746960008201527f6f6e206973206e6f742055555053000000000000000000000000000000000000602082015250565b6000613f2a602e836134f6565b9150613f3582613ece565b604082019050919050565b60006020820190508181036000830152613f5981613f1d565b9050919050565b7f45524331393637557067726164653a20756e737570706f727465642070726f7860008201527f6961626c65555549440000000000000000000000000000000000000000000000602082015250565b6000613fbc6029836134f6565b9150613fc782613f60565b604082019050919050565b60006020820190508181036000830152613feb81613faf565b9050919050565b6000613ffd826129c3565b9150614008836129c3565b9250828202614016816129c3565b9150828204841483151761402d5761402c613573565b5b5092915050565b7f4e487b7100000000000000000000000000000000000000000000000000000000600052601260045260246000fd5b600061406e826129c3565b9150614079836129c3565b92508261408957614088614034565b5b828204905092915050565b600060608201905081810360008301526140ae8186613941565b90506140bd6020830185612af8565b6140ca6040830184612af8565b949350505050565b7f455243313936373a206e657720696d706c656d656e746174696f6e206973206e60008201527f6f74206120636f6e747261637400000000000000000000000000000000000000602082015250565b600061412e602d836134f6565b9150614139826140d2565b604082019050919050565b6000602082019050818103600083015261415d81614121565b9050919050565b600061416f82612a97565b915061417a83612a97565b925082820261418881612a97565b91507f800000000000000000000000000000000000000000000000000000000000000084146000841216156141c0576141bf613573565b5b82820584148315176141d5576141d4613573565b5b5092915050565b600081519050919050565b600081905092915050565b60006141fd826141dc565b61420781856141e7565b935061421781856020860161307f565b80840191505092915050565b600061422f82846141f2565b915081905092915050565b7f416464726573733a2063616c6c20746f206e6f6e2d636f6e7472616374000000600082015250565b6000614270601d836134f6565b915061427b8261423a565b602082019050919050565b6000602082019050818103600083015261429f81614263565b9050919050565b60006142b182613063565b6142bb81856134f6565b93506142cb81856020860161307f565b6142d481612cb7565b840191505092915050565b600060208201905081810360008301526142f981846142a6565b90509291505056fe416464726573733a206c6f772d6c6576656c2064656c65676174652063616c6c206661696c6564a2646970667358221220a0d2ecd12688ea27e709a86b5d3b4cdd08f492a5787fb7370a67568cb02991ba64736f6c63430008180033",
  "linkReferences": {},
  "deployedLinkReferences": {}
}