{
  "_format": "hh-sol-artifact-1",
  "contractName": "Proposal",
  "sourceName": "contracts/Proposal.sol",
  "abi": [
    {
      "inputs": [
        {
          "internalType": "address",
          "name": "user",
          "type": "address"
        },
        {
          "internalType": "uint256",
          "name": "availableBalance",
          "type": "uint256"
        }
      ],
      "name": "InsufficientBalance",
      "type": "error"
    },
    {
      "inputs": [
        {
          "internalType": "address",
          "name": "account",
          "type": "address"
        }
      ],
      "name": "OwnableUnauthorizedAccount",
      "type": "error"
    },
    {
      "anonymous": false,
      "inputs": [
        {
          "indexed": false,
          "internalType": "address",
          "name": "previousAdmin",
          "type": "address"
        },
        {
          "indexed": false,
          "internalType": "address",
          "name": "newAdmin",
          "type": "address"
        }
      ],
      "name": "AdminChanged",
      "type": "event"
    },
    {
      "anonymous": false,
      "inputs": [
        {
          "indexed": true,
          "internalType": "address",
          "name": "beacon",
          "type": "address"
        }
      ],
      "name": "BeaconUpgraded",
      "type": "event"
    },
    {
      "anonymous": false,
      "inputs": [
        {
          "indexed": true,
          "internalType": "address",
          "name": "founder",
          "type": "address"
        },
        {
          "indexed": true,
          "internalType": "uint256",
          "name": "id",
          "type": "uint256"
        },
        {
          "indexed": false,
          "internalType": "string[]",
          "name": "options",
          "type": "string[]"
        }
      ],
      "name": "Create",
      "type": "event"
    },
    {
      "anonymous": false,
      "inputs": [
        {
          "indexed": true,
          "internalType": "address",
          "name": "user",
          "type": "address"
        },
        {
          "indexed": false,
          "internalType": "uint256",
          "name": "amount",
          "type": "uint256"
        }
      ],
      "name": "Deposited",
      "type": "event"
    },
    {
      "anonymous": false,
      "inputs": [
        {
          "indexed": true,
          "internalType": "address",
          "name": "user",
          "type": "address"
        },
        {
          "indexed": false,
          "internalType": "uint256",
          "name": "points",
          "type": "uint256"
        }
      ],
      "name": "ExchangePoints",
      "type": "event"
    },
    {
      "anonymous": false,
      "inputs": [
        {
          "indexed": false,
          "internalType": "uint8",
          "name": "version",
          "type": "uint8"
        }
      ],
      "name": "Initialized",
      "type": "event"
    },
    {
      "anonymous": false,
      "inputs": [
        {
          "indexed": true,
          "internalType": "uint256",
          "name": "proposalId",
          "type": "uint256"
        },
        {
          "indexed": false,
          "internalType": "address[]",
          "name": "jurors",
          "type": "address[]"
        },
        {
          "indexed": false,
          "internalType": "uint256",
          "name": "reward",
          "type": "uint256"
        },
        {
          "indexed": false,
          "internalType": "uint256",
          "name": "rewardPerJuror",
          "type": "uint256"
        }
      ],
      "name": "JurorsDistributeRewards",
      "type": "event"
    },
    {
      "anonymous": false,
      "inputs": [
        {
          "indexed": true,
          "internalType": "address",
          "name": "user",
          "type": "address"
        },
        {
          "indexed": false,
          "internalType": "uint256",
          "name": "deadline",
          "type": "uint256"
        },
        {
          "indexed": false,
          "internalType": "uint256",
          "name": "margins",
          "type": "uint256"
        },
        {
          "indexed": false,
          "internalType": "uint256",
          "name": "amount",
          "type": "uint256"
        }
      ],
      "name": "NewPledge",
      "type": "event"
    },
    {
      "anonymous": false,
      "inputs": [
        {
          "indexed": true,
          "internalType": "uint256",
          "name": "proposalId",
          "type": "uint256"
        },
        {
          "indexed": false,
          "internalType": "uint256",
          "name": "winOptionId",
          "type": "uint256"
        }
      ],
      "name": "Refunded",
      "type": "event"
    },
    {
      "anonymous": false,
      "inputs": [
        {
          "indexed": false,
          "internalType": "uint256",
          "name": "proposalId",
          "type": "uint256"
        },
        {
          "indexed": false,
          "internalType": "uint256",
          "name": "winningOptionId",
          "type": "uint256"
        },
        {
          "indexed": false,
          "internalType": "address[]",
          "name": "jurors",
          "type": "address[]"
        }
      ],
      "name": "Settle",
      "type": "event"
    },
    {
      "anonymous": false,
      "inputs": [
        {
          "indexed": true,
          "internalType": "address",
          "name": "implementation",
          "type": "address"
        }
      ],
      "name": "Upgraded",
      "type": "event"
    },
    {
      "anonymous": false,
      "inputs": [
        {
          "indexed": true,
          "internalType": "address",
          "name": "_address",
          "type": "address"
        },
        {
          "indexed": true,
          "internalType": "uint256",
          "name": "_proposalId",
          "type": "uint256"
        },
        {
          "indexed": true,
          "internalType": "uint256",
          "name": "_optionId",
          "type": "uint256"
        },
        {
          "indexed": false,
          "internalType": "uint256",
          "name": "_amount",
          "type": "uint256"
        }
      ],
      "name": "Voted",
      "type": "event"
    },
    {
      "anonymous": false,
      "inputs": [
        {
          "indexed": true,
          "internalType": "address",
          "name": "user",
          "type": "address"
        },
        {
          "indexed": false,
          "internalType": "uint256",
          "name": "amount",
          "type": "uint256"
        },
        {
          "indexed": false,
          "internalType": "uint256",
          "name": "balance",
          "type": "uint256"
        }
      ],
      "name": "Withdraw",
      "type": "event"
    },
    {
      "inputs": [
        {
          "internalType": "address",
          "name": "",
          "type": "address"
        }
      ],
      "name": "balances",
      "outputs": [
        {
          "internalType": "uint256",
          "name": "",
          "type": "uint256"
        }
      ],
      "stateMutability": "view",
      "type": "function"
    },
    {
      "inputs": [
        {
          "internalType": "address",
          "name": "user",
          "type": "address"
        }
      ],
      "name": "clearPledge",
      "outputs": [],
      "stateMutability": "nonpayable",
      "type": "function"
    },
    {
      "inputs": [
        {
          "internalType": "string[]",
          "name": "optionDescs",
          "type": "string[]"
        }
      ],
      "name": "create",
      "outputs": [],
      "stateMutability": "nonpayable",
      "type": "function"
    },
    {
      "inputs": [
        {
          "internalType": "uint256",
          "name": "times",
          "type": "uint256"
        },
        {
          "internalType": "uint256",
          "name": "margins",
          "type": "uint256"
        },
        {
          "internalType": "uint256",
          "name": "amount",
          "type": "uint256"
        }
      ],
      "name": "createPledge",
      "outputs": [],
      "stateMutability": "nonpayable",
      "type": "function"
    },
    {
      "inputs": [
        {
          "internalType": "uint256",
          "name": "amount",
          "type": "uint256"
        }
      ],
      "name": "deposit",
      "outputs": [
        {
          "internalType": "uint256",
          "name": "",
          "type": "uint256"
        }
      ],
      "stateMutability": "nonpayable",
      "type": "function"
    },
    {
      "inputs": [
        {
          "internalType": "uint256",
          "name": "points",
          "type": "uint256"
        }
      ],
      "name": "exchangePoints",
      "outputs": [],
      "stateMutability": "nonpayable",
      "type": "function"
    },
    {
      "inputs": [
        {
          "internalType": "address",
          "name": "user",
          "type": "address"
        }
      ],
      "name": "getAvailableBalance",
      "outputs": [
        {
          "internalType": "uint256",
          "name": "",
          "type": "uint256"
        }
      ],
      "stateMutability": "view",
      "type": "function"
    },
    {
      "inputs": [
        {
          "internalType": "uint256",
          "name": "proposalId",
          "type": "uint256"
        }
      ],
      "name": "getDetails",
      "outputs": [
        {
          "internalType": "address",
          "name": "founder",
          "type": "address"
        },
        {
          "internalType": "string[]",
          "name": "optionDescription",
          "type": "string[]"
        },
        {
          "internalType": "uint256[]",
          "name": "counts",
          "type": "uint256[]"
        },
        {
          "internalType": "uint256[]",
          "name": "voters",
          "type": "uint256[]"
        },
        {
          "internalType": "uint256",
          "name": "allVotesCast",
          "type": "uint256"
        },
        {
          "internalType": "uint256",
          "name": "allVoters",
          "type": "uint256"
        }
      ],
      "stateMutability": "view",
      "type": "function"
    },
    {
      "inputs": [],
      "name": "getPledges",
      "outputs": [
        {
          "components": [
            {
              "internalType": "uint256",
              "name": "deadline",
              "type": "uint256"
            },
            {
              "internalType": "uint256",
              "name": "margins",
              "type": "uint256"
            },
            {
              "internalType": "uint256",
              "name": "amount",
              "type": "uint256"
            }
          ],
          "internalType": "struct Proposal.PledgeInfo[]",
          "name": "",
          "type": "tuple[]"
        }
      ],
      "stateMutability": "view",
      "type": "function"
    },
    {
      "inputs": [
        {
          "internalType": "uint256",
          "name": "proposalId",
          "type": "uint256"
        },
        {
          "internalType": "uint256",
          "name": "optionId",
          "type": "uint256"
        }
      ],
      "name": "getVoting",
      "outputs": [
        {
          "components": [
            {
              "internalType": "address",
              "name": "user",
              "type": "address"
            },
            {
              "internalType": "uint256",
              "name": "amount",
              "type": "uint256"
            }
          ],
          "internalType": "struct Proposal.VoteInfo[]",
          "name": "",
          "type": "tuple[]"
        }
      ],
      "stateMutability": "view",
      "type": "function"
    },
    {
      "inputs": [
        {
          "internalType": "address",
          "name": "tokenAddr",
          "type": "address"
        }
      ],
      "name": "initialize",
      "outputs": [],
      "stateMutability": "nonpayable",
      "type": "function"
    },
    {
      "inputs": [],
      "name": "logicAddress",
      "outputs": [
        {
          "internalType": "address",
          "name": "",
          "type": "address"
        }
      ],
      "stateMutability": "view",
      "type": "function"
    },
    {
      "inputs": [],
      "name": "mlnTokenAddr",
      "outputs": [
        {
          "internalType": "address",
          "name": "",
          "type": "address"
        }
      ],
      "stateMutability": "view",
      "type": "function"
    },
    {
      "inputs": [],
      "name": "owner",
      "outputs": [
        {
          "internalType": "address",
          "name": "",
          "type": "address"
        }
      ],
      "stateMutability": "view",
      "type": "function"
    },
    {
      "inputs": [
        {
          "internalType": "address",
          "name": "",
          "type": "address"
        },
        {
          "internalType": "uint256",
          "name": "",
          "type": "uint256"
        }
      ],
      "name": "pledgeInfos",
      "outputs": [
        {
          "internalType": "uint256",
          "name": "deadline",
          "type": "uint256"
        },
        {
          "internalType": "uint256",
          "name": "margins",
          "type": "uint256"
        },
        {
          "internalType": "uint256",
          "name": "amount",
          "type": "uint256"
        }
      ],
      "stateMutability": "view",
      "type": "function"
    },
    {
      "inputs": [
        {
          "internalType": "address",
          "name": "",
          "type": "address"
        }
      ],
      "name": "pledgeLock",
      "outputs": [
        {
          "internalType": "uint256",
          "name": "",
          "type": "uint256"
        }
      ],
      "stateMutability": "view",
      "type": "function"
    },
    {
      "inputs": [
        {
          "internalType": "uint256",
          "name": "",
          "type": "uint256"
        }
      ],
      "name": "proposalInfos",
      "outputs": [
        {
          "internalType": "address",
          "name": "founder",
          "type": "address"
        }
      ],
      "stateMutability": "view",
      "type": "function"
    },
    {
      "inputs": [],
      "name": "proxiableUUID",
      "outputs": [
        {
          "internalType": "bytes32",
          "name": "",
          "type": "bytes32"
        }
      ],
      "stateMutability": "view",
      "type": "function"
    },
    {
      "inputs": [
        {
          "internalType": "uint256",
          "name": "proposalId",
          "type": "uint256"
        },
        {
          "internalType": "uint256",
          "name": "winOptionId",
          "type": "uint256"
        },
        {
          "internalType": "address[]",
          "name": "jurors",
          "type": "address[]"
        }
      ],
      "name": "settle",
      "outputs": [],
      "stateMutability": "nonpayable",
      "type": "function"
    },
    {
      "inputs": [
        {
          "internalType": "address",
          "name": "newImplementation",
          "type": "address"
        }
      ],
      "name": "upgradeTo",
      "outputs": [],
      "stateMutability": "nonpayable",
      "type": "function"
    },
    {
      "inputs": [
        {
          "internalType": "address",
          "name": "newImplementation",
          "type": "address"
        },
        {
          "internalType": "bytes",
          "name": "data",
          "type": "bytes"
        }
      ],
      "name": "upgradeToAndCall",
      "outputs": [],
      "stateMutability": "payable",
      "type": "function"
    },
    {
      "inputs": [
        {
          "internalType": "uint256",
          "name": "",
          "type": "uint256"
        },
        {
          "internalType": "address",
          "name": "",
          "type": "address"
        }
      ],
      "name": "userProposalResults",
      "outputs": [
        {
          "internalType": "int256",
          "name": "",
          "type": "int256"
        }
      ],
      "stateMutability": "view",
      "type": "function"
    },
    {
      "inputs": [
        {
          "internalType": "uint256",
          "name": "proposalId",
          "type": "uint256"
        },
        {
          "internalType": "uint256",
          "name": "optionId",
          "type": "uint256"
        },
        {
          "internalType": "uint256",
          "name": "amount",
          "type": "uint256"
        }
      ],
      "name": "vote",
      "outputs": [],
      "stateMutability": "nonpayable",
      "type": "function"
    },
    {
      "inputs": [
        {
          "internalType": "uint256",
          "name": "",
          "type": "uint256"
        },
        {
          "internalType": "uint256",
          "name": "",
          "type": "uint256"
        },
        {
          "internalType": "uint256",
          "name": "",
          "type": "uint256"
        }
      ],
      "name": "voting",
      "outputs": [
        {
          "internalType": "address",
          "name": "user",
          "type": "address"
        },
        {
          "internalType": "uint256",
          "name": "amount",
          "type": "uint256"
        }
      ],
      "stateMutability": "view",
      "type": "function"
    },
    {
      "inputs": [
        {
          "internalType": "address",
          "name": "",
          "type": "address"
        }
      ],
      "name": "votingLock",
      "outputs": [
        {
          "internalType": "uint256",
          "name": "",
          "type": "uint256"
        }
      ],
      "stateMutability": "view",
      "type": "function"
    },
    {
      "inputs": [
        {
          "internalType": "uint256",
          "name": "",
          "type": "uint256"
        }
      ],
      "name": "winningOption",
      "outputs": [
        {
          "internalType": "uint256",
          "name": "",
          "type": "uint256"
        }
      ],
      "stateMutability": "view",
      "type": "function"
    },
    {
      "inputs": [
        {
          "internalType": "uint256",
          "name": "amount",
          "type": "uint256"
        }
      ],
      "name": "withdraw",
      "outputs": [],
      "stateMutability": "nonpayable",
      "type": "function"
    }
  ],
  "bytecode": "0x60a06040523073ffffffffffffffffffffffffffffffffffffffff1660809073ffffffffffffffffffffffffffffffffffffffff1681525034801561004357600080fd5b50608051614e3a61007b6000396000818161095c015281816109ea01528181610c0f01528181610c9d0152610d4d0152614e3a6000f3fe60806040526004361061019c5760003560e01c80638da5cb5b116100ec578063b97941371161008a578063c3a0aba811610064578063c3a0aba814610641578063c4d66de81461066c578063dfc3a3ff14610695578063dfef24f5146106be5761019c565b8063b9794137146105b1578063bdd69096146105da578063bdd8e72e146106035761019c565b8063b00673bc116100c6578063b00673bc146104b8578063b511328d146104f5578063b6b55f2514610532578063b93a89f71461056f5761019c565b80638da5cb5b146104395780639b6f67be146104645780639c1fcc4c1461048d5761019c565b806346a0d50a116101595780636c24a76f116101335780636c24a76f1461036d5780637c7b66f7146103aa5780638a6655d6146103d35780638c5fe473146103fc5761019c565b806346a0d50a146102e95780634f1ef2861461032657806352d1902d146103425761019c565b80630c7353e0146101a15780630dca7ed8146101de57806327e235e31461021b5780632e1a7d4d146102585780633659cfe6146102815780634185e236146102aa575b600080fd5b3480156101ad57600080fd5b506101c860048036038101906101c3919061330e565b6106e9565b6040516101d59190613367565b60405180910390f35b3480156101ea57600080fd5b5061020560048036038101906102009190613382565b61070e565b60405161021291906133be565b60405180910390f35b34801561022757600080fd5b50610242600480360381019061023d91906133d9565b610726565b60405161024f91906133be565b60405180910390f35b34801561026457600080fd5b5061027f600480360381019061027a9190613382565b61073e565b005b34801561028d57600080fd5b506102a860048036038101906102a391906133d9565b61095a565b005b3480156102b657600080fd5b506102d160048036038101906102cc9190613406565b610ae2565b6040516102e093929190613446565b60405180910390f35b3480156102f557600080fd5b50610310600480360381019061030b919061347d565b610b29565b60405161031d91906135b9565b60405180910390f35b610340600480360381019061033b9190613721565b610c0d565b005b34801561034e57600080fd5b50610357610d49565b6040516103649190613796565b60405180910390f35b34801561037957600080fd5b50610394600480360381019061038f91906133d9565b610e02565b6040516103a191906133be565b60405180910390f35b3480156103b657600080fd5b506103d160048036038101906103cc9190613382565b610ea0565b005b3480156103df57600080fd5b506103fa60048036038101906103f591906137b1565b610f8a565b005b34801561040857600080fd5b50610423600480360381019061041e91906133d9565b6111ef565b60405161043091906133be565b60405180910390f35b34801561044557600080fd5b5061044e611207565b60405161045b9190613813565b60405180910390f35b34801561047057600080fd5b5061048b600480360381019061048691906138f6565b61122d565b005b34801561049957600080fd5b506104a26112be565b6040516104af9190613813565b60405180910390f35b3480156104c457600080fd5b506104df60048036038101906104da91906133d9565b6112e4565b6040516104ec91906133be565b60405180910390f35b34801561050157600080fd5b5061051c60048036038101906105179190613382565b6112fc565b6040516105299190613813565b60405180910390f35b34801561053e57600080fd5b5061055960048036038101906105549190613382565b61134a565b60405161056691906133be565b60405180910390f35b34801561057b57600080fd5b5061059660048036038101906105919190613382565b611518565b6040516105a896959493929190613b55565b60405180910390f35b3480156105bd57600080fd5b506105d860048036038101906105d391906133d9565b61184b565b005b3480156105e657600080fd5b5061060160048036038101906105fc9190613d4d565b611a37565b005b34801561060f57600080fd5b5061062a600480360381019061062591906137b1565b611bf6565b604051610638929190613d96565b60405180910390f35b34801561064d57600080fd5b50610656611c64565b6040516106639190613813565b60405180910390f35b34801561067857600080fd5b50610693600480360381019061068e91906133d9565b611c8a565b005b3480156106a157600080fd5b506106bc60048036038101906106b791906137b1565b611e43565b005b3480156106ca57600080fd5b506106d3612059565b6040516106e09190613eb0565b60405180910390f35b600a602052816000526040600020602052806000526040600020600091509150505481565b60096020528060005260406000206000915090505481565b60046020528060005260406000206000915090505481565b600061074933610e02565b9050818110156107925733816040517ff6deaa04000000000000000000000000000000000000000000000000000000008152600401610789929190613d96565b60405180910390fd5b600260009054906101000a900473ffffffffffffffffffffffffffffffffffffffff1673ffffffffffffffffffffffffffffffffffffffff1663a9059cbb33846040518363ffffffff1660e01b81526004016107ef929190613d96565b6020604051808303816000875af115801561080e573d6000803e3d6000fd5b505050506040513d601f19601f820116820180604052508101906108329190613f0a565b610871576040517f08c379a000000000000000000000000000000000000000000000000000000000815260040161086890613f94565b60405180910390fd5b81600460003373ffffffffffffffffffffffffffffffffffffffff1673ffffffffffffffffffffffffffffffffffffffff16815260200190815260200160002060008282546108c09190613fe3565b925050819055503373ffffffffffffffffffffffffffffffffffffffff167ff279e6a1f5e320cca91135676d9cb6e44ca8a08c0b88342bcdb1144f6511b56883600460003373ffffffffffffffffffffffffffffffffffffffff1673ffffffffffffffffffffffffffffffffffffffff1681526020019081526020016000205460405161094e929190614017565b60405180910390a25050565b7f000000000000000000000000000000000000000000000000000000000000000073ffffffffffffffffffffffffffffffffffffffff163073ffffffffffffffffffffffffffffffffffffffff16036109e8576040517f08c379a00000000000000000000000000000000000000000000000000000000081526004016109df906140b2565b60405180910390fd5b7f000000000000000000000000000000000000000000000000000000000000000073ffffffffffffffffffffffffffffffffffffffff16610a27612113565b73ffffffffffffffffffffffffffffffffffffffff1614610a7d576040517f08c379a0000000000000000000000000000000000000000000000000000000008152600401610a7490614144565b60405180910390fd5b610a868161216a565b610adf81600067ffffffffffffffff811115610aa557610aa46135f6565b5b6040519080825280601f01601f191660200182016040528015610ad75781602001600182028036833780820191505090505b506000612240565b50565b60076020528160005260406000208181548110610afe57600080fd5b9060005260206000209060030201600091509150508060000154908060010154908060020154905083565b6060600860008481526020019081526020016000206000838152602001908152602001600020805480602002602001604051908101604052809291908181526020016000905b82821015610c0157838290600052602060002090600202016040518060400160405290816000820160009054906101000a900473ffffffffffffffffffffffffffffffffffffffff1673ffffffffffffffffffffffffffffffffffffffff1673ffffffffffffffffffffffffffffffffffffffff16815260200160018201548152505081526020019060010190610b6f565b50505050905092915050565b7f000000000000000000000000000000000000000000000000000000000000000073ffffffffffffffffffffffffffffffffffffffff163073ffffffffffffffffffffffffffffffffffffffff1603610c9b576040517f08c379a0000000000000000000000000000000000000000000000000000000008152600401610c92906140b2565b60405180910390fd5b7f000000000000000000000000000000000000000000000000000000000000000073ffffffffffffffffffffffffffffffffffffffff16610cda612113565b73ffffffffffffffffffffffffffffffffffffffff1614610d30576040517f08c379a0000000000000000000000000000000000000000000000000000000008152600401610d2790614144565b60405180910390fd5b610d398261216a565b610d4582826001612240565b5050565b60007f000000000000000000000000000000000000000000000000000000000000000073ffffffffffffffffffffffffffffffffffffffff163073ffffffffffffffffffffffffffffffffffffffff1614610dd9576040517f08c379a0000000000000000000000000000000000000000000000000000000008152600401610dd0906141d6565b60405180910390fd5b7f360894a13ba1a3210667c828492db98dca3e2076cc3735a920a3ca505d382bbc60001b905090565b600080600460008473ffffffffffffffffffffffffffffffffffffffff1673ffffffffffffffffffffffffffffffffffffffff1681526020019081526020016000205490506000600560008573ffffffffffffffffffffffffffffffffffffffff1673ffffffffffffffffffffffffffffffffffffffff1681526020019081526020016000205490508082610e979190613fe3565b92505050919050565b60008111610ee3576040517f08c379a0000000000000000000000000000000000000000000000000000000008152600401610eda90614242565b60405180910390fd5b80600460003373ffffffffffffffffffffffffffffffffffffffff1673ffffffffffffffffffffffffffffffffffffffff1681526020019081526020016000206000828254610f329190614262565b925050819055503373ffffffffffffffffffffffffffffffffffffffff167fa0c8eda28ab82fe28c2bcaa48a1ce2b5eac8dbed005a6e8eb62398577e908d5c82604051610f7f91906133be565b60405180910390a250565b80610f9433610e02565b1015610fd5576040517f08c379a0000000000000000000000000000000000000000000000000000000008152600401610fcc906142e2565b60405180910390fd5b80600560003373ffffffffffffffffffffffffffffffffffffffff1673ffffffffffffffffffffffffffffffffffffffff16815260200190815260200160002060008282546110249190614262565b9250508190555060006003848154811061104157611040614302565b5b906000526020600020906002020190508181600101848154811061106857611067614302565b5b906000526020600020906003020160010160008282546110889190614262565b9250508190555060018160010184815481106110a7576110a6614302565b5b906000526020600020906003020160020160008282546110c79190614262565b9250508190555060086000858152602001908152602001600020600084815260200190815260200160002060405180604001604052803373ffffffffffffffffffffffffffffffffffffffff16815260200184815250908060018154018082558091505060019003906000526020600020906002020160009091909190915060008201518160000160006101000a81548173ffffffffffffffffffffffffffffffffffffffff021916908373ffffffffffffffffffffffffffffffffffffffff16021790555060208201518160010155505082843373ffffffffffffffffffffffffffffffffffffffff167fc32b42768a47a585121e9b8d7a2ab9d3f34c326a192dee11ee1732e3d18313f3856040516111e191906133be565b60405180910390a450505050565b60066020528060005260406000206000915090505481565b600060029054906101000a900473ffffffffffffffffffffffffffffffffffffffff1681565b7f96a54eb5c3629a7082316372c06617c472b5958a748182a70c0ba0b1c7e3c886838383604051611260939291906143e0565b60405180910390a1600061127484846123ae565b9050801561128b5761128684846125aa565b6112a0565b611295848361272c565b61129f84846128a8565b5b82600960008681526020019081526020016000208190555050505050565b600160009054906101000a900473ffffffffffffffffffffffffffffffffffffffff1681565b60056020528060005260406000206000915090505481565b6003818154811061130c57600080fd5b90600052602060002090600202016000915090508060000160009054906101000a900473ffffffffffffffffffffffffffffffffffffffff16905081565b6000600260009054906101000a900473ffffffffffffffffffffffffffffffffffffffff1673ffffffffffffffffffffffffffffffffffffffff166323b872dd3330856040518463ffffffff1660e01b81526004016113ab9392919061441e565b6020604051808303816000875af11580156113ca573d6000803e3d6000fd5b505050506040513d601f19601f820116820180604052508101906113ee9190613f0a565b61142d576040517f08c379a000000000000000000000000000000000000000000000000000000000815260040161142490613f94565b60405180910390fd5b81600460003373ffffffffffffffffffffffffffffffffffffffff1673ffffffffffffffffffffffffffffffffffffffff168152602001908152602001600020600082825461147c9190614262565b925050819055503373ffffffffffffffffffffffffffffffffffffffff167f2da466a7b24304f47e87fa2e1e5a81b9831ce54fec19055ce277ca2f39ba42c4836040516114c991906133be565b60405180910390a2600460003373ffffffffffffffffffffffffffffffffffffffff1673ffffffffffffffffffffffffffffffffffffffff168152602001908152602001600020549050919050565b6000606080606060008060006003888154811061153857611537614302565b5b906000526020600020906002020190506000816001018054905090508067ffffffffffffffff81111561156e5761156d6135f6565b5b6040519080825280602002602001820160405280156115a157816020015b606081526020019060019003908161158c5790505b5096508067ffffffffffffffff8111156115be576115bd6135f6565b5b6040519080825280602002602001820160405280156115ec5781602001602082028036833780820191505090505b5095508067ffffffffffffffff811115611609576116086135f6565b5b6040519080825280602002602001820160405280156116375781602001602082028036833780820191505090505b5094508160000160009054906101000a900473ffffffffffffffffffffffffffffffffffffffff16975060005b8181101561183f5782600101818154811061168257611681614302565b5b9060005260206000209060030201600001805461169e90614484565b80601f01602080910402602001604051908101604052809291908181526020018280546116ca90614484565b80156117175780601f106116ec57610100808354040283529160200191611717565b820191906000526020600020905b8154815290600101906020018083116116fa57829003601f168201915b505050505088828151811061172f5761172e614302565b5b60200260200101819052508260010181815481106117505761174f614302565b5b90600052602060002090600302016001015487828151811061177557611774614302565b5b60200260200101818152505082600101818154811061179757611796614302565b5b9060005260206000209060030201600201548682815181106117bc576117bb614302565b5b6020026020010181815250508260010181815481106117de576117dd614302565b5b906000526020600020906003020160020154846117fb9190614262565b935082600101818154811061181357611812614302565b5b906000526020600020906003020160010154856118309190614262565b94508080600101915050611664565b50505091939550919395565b6000805b600760008473ffffffffffffffffffffffffffffffffffffffff1673ffffffffffffffffffffffffffffffffffffffff168152602001908152602001600020805490508110156119dc576000600760008573ffffffffffffffffffffffffffffffffffffffff1673ffffffffffffffffffffffffffffffffffffffff16815260200190815260200160002082815481106118ec576118eb614302565b5b90600052602060002090600302016040518060600160405290816000820154815260200160018201548152602001600282015481525050905042816000015110156119ce576064816020015160646119449190614262565b826040015161195391906144b5565b61195d9190614526565b836119689190614262565b925061197382612ac6565b8060400151600660008673ffffffffffffffffffffffffffffffffffffffff1673ffffffffffffffffffffffffffffffffffffffff16815260200190815260200160002060008282546119c69190613fe3565b925050819055505b50808060010191505061184f565b5080600460008473ffffffffffffffffffffffffffffffffffffffff1673ffffffffffffffffffffffffffffffffffffffff1681526020019081526020016000206000828254611a2c9190614262565b925050819055505050565b6000815111611a7b576040517f08c379a0000000000000000000000000000000000000000000000000000000008152600401611a72906145a3565b60405180910390fd5b600060036001816001815401808255809150500390600052602060002090600202019050338160000160006101000a81548173ffffffffffffffffffffffffffffffffffffffff021916908373ffffffffffffffffffffffffffffffffffffffff16021790555060005b8251811015611b8b57816001016040518060600160405280858481518110611b1057611b0f614302565b5b6020026020010151815260200160008152602001600081525090806001815401808255809150506001900390600052602060002090600302016000909190919091506000820151816000019081611b67919061476f565b50602082015181600101556040820151816002015550508080600101915050611ae5565b5060006001600380549050611ba09190613fe3565b9050803373ffffffffffffffffffffffffffffffffffffffff167f66a044198f8a0fc35ed879be5d27c3d6ca15787c13093f47e3ba8a94c78eb79685604051611be99190614841565b60405180910390a3505050565b60086020528260005260406000206020528160005260406000208181548110611c1e57600080fd5b906000526020600020906002020160009250925050508060000160009054906101000a900473ffffffffffffffffffffffffffffffffffffffff16908060010154905082565b600260009054906101000a900473ffffffffffffffffffffffffffffffffffffffff1681565b60008060019054906101000a900460ff16159050808015611cbb5750600160008054906101000a900460ff1660ff16105b80611ce85750611cca30612d08565b158015611ce75750600160008054906101000a900460ff1660ff16145b5b611d27576040517f08c379a0000000000000000000000000000000000000000000000000000000008152600401611d1e906148d5565b60405180910390fd5b60016000806101000a81548160ff021916908360ff1602179055508015611d64576001600060016101000a81548160ff0219169083151502179055505b81600260006101000a81548173ffffffffffffffffffffffffffffffffffffffff021916908373ffffffffffffffffffffffffffffffffffffffff16021790555033600060026101000a81548173ffffffffffffffffffffffffffffffffffffffff021916908373ffffffffffffffffffffffffffffffffffffffff1602179055508015611e3f5760008060016101000a81548160ff0219169083151502179055507f7f26b83ff96e1f2b6a682f133852f6798a09c465da95921460cefb38474024986001604051611e36919061493d565b60405180910390a15b5050565b600260009054906101000a900473ffffffffffffffffffffffffffffffffffffffff1673ffffffffffffffffffffffffffffffffffffffff166323b872dd3330846040518463ffffffff1660e01b8152600401611ea29392919061441e565b6020604051808303816000875af1158015611ec1573d6000803e3d6000fd5b505050506040513d601f19601f82011682018060405250810190611ee59190613f0a565b506000600184611ef591906144b5565b42611f009190614262565b905060006040518060600160405280838152602001858152602001848152509050600760003373ffffffffffffffffffffffffffffffffffffffff1673ffffffffffffffffffffffffffffffffffffffff168152602001908152602001600020819080600181540180825580915050600190039060005260206000209060030201600090919091909150600082015181600001556020820151816001015560408201518160020155505082600660003373ffffffffffffffffffffffffffffffffffffffff1673ffffffffffffffffffffffffffffffffffffffff1681526020019081526020016000206000828254611ff99190614262565b925050819055503373ffffffffffffffffffffffffffffffffffffffff167f485d5bcd7e243593ba58d30097c3ba28f0103e1f8a670262df62d9c4dac8ce1983868660405161204a93929190613446565b60405180910390a25050505050565b6060600760003373ffffffffffffffffffffffffffffffffffffffff1673ffffffffffffffffffffffffffffffffffffffff168152602001908152602001600020805480602002602001604051908101604052809291908181526020016000905b8282101561210a57838290600052602060002090600302016040518060600160405290816000820154815260200160018201548152602001600282015481525050815260200190600101906120ba565b50505050905090565b60006121417f360894a13ba1a3210667c828492db98dca3e2076cc3735a920a3ca505d382bbc60001b612d2b565b60000160009054906101000a900473ffffffffffffffffffffffffffffffffffffffff16905090565b3373ffffffffffffffffffffffffffffffffffffffff16600060029054906101000a900473ffffffffffffffffffffffffffffffffffffffff1673ffffffffffffffffffffffffffffffffffffffff16146121fc57336040517f118cdaa70000000000000000000000000000000000000000000000000000000081526004016121f39190613813565b60405180910390fd5b80600160006101000a81548173ffffffffffffffffffffffffffffffffffffffff021916908373ffffffffffffffffffffffffffffffffffffffff16021790555050565b61226c7f4910fdfa16fed3260ed0e7147f7cc6da11a60208b5b9406d12a635614ffd914360001b612d35565b60000160009054906101000a900460ff16156122905761228b83612d3f565b6123a9565b8273ffffffffffffffffffffffffffffffffffffffff166352d1902d6040518163ffffffff1660e01b8152600401602060405180830381865afa9250505080156122f857506040513d601f19601f820116820180604052508101906122f59190614984565b60015b612337576040517f08c379a000000000000000000000000000000000000000000000000000000000815260040161232e90614a23565b60405180910390fd5b7f360894a13ba1a3210667c828492db98dca3e2076cc3735a920a3ca505d382bbc60001b811461239c576040517f08c379a000000000000000000000000000000000000000000000000000000000815260040161239390614ab5565b60405180910390fd5b506123a8838383612df8565b5b505050565b600080600384815481106123c5576123c4614302565b5b90600052602060002090600202016040518060400160405290816000820160009054906101000a900473ffffffffffffffffffffffffffffffffffffffff1673ffffffffffffffffffffffffffffffffffffffff1673ffffffffffffffffffffffffffffffffffffffff16815260200160018201805480602002602001604051908101604052809291908181526020016000905b82821015612531578382906000526020600020906003020160405180606001604052908160008201805461248c90614484565b80601f01602080910402602001604051908101604052809291908181526020018280546124b890614484565b80156125055780601f106124da57610100808354040283529160200191612505565b820191906000526020600020905b8154815290600101906020018083116124e857829003601f168201915b505050505081526020016001820154815260200160028201548152505081526020019060010190612459565b5050505081525050905060008160200151905060005b815181101561259c5784811415801561257e575060008282815181106125705761256f614302565b5b602002602001015160200151115b1561258f57600093505050506125a4565b8080600101915050612547565b506001925050505b92915050565b600060086000838152602001908152602001600020905060005b816000848152602001908152602001600020805490508110156126ee576000826000858152602001908152602001600020828154811061260757612606614302565b5b90600052602060002090600202016040518060400160405290816000820160009054906101000a900473ffffffffffffffffffffffffffffffffffffffff1673ffffffffffffffffffffffffffffffffffffffff1673ffffffffffffffffffffffffffffffffffffffff1681526020016001820154815250509050806020015160056000836000015173ffffffffffffffffffffffffffffffffffffffff1673ffffffffffffffffffffffffffffffffffffffff16815260200190815260200160002060008282546126d99190613fe3565b925050819055505080806001019150506125c4565b50827fb7c1f9298a18c36af08bd57eabbfbeb04695f24d0438f67614741ec15fb5c4a98360405161271f91906133be565b60405180910390a2505050565b600061273783611518565b509450505050506000606460028361274f91906144b5565b6127599190614526565b9050600083518261276a9190614526565b905060005b84518110156128645781600460008784815181106127905761278f614302565b5b602002602001015173ffffffffffffffffffffffffffffffffffffffff1673ffffffffffffffffffffffffffffffffffffffff16815260200190815260200160002060008282546127e19190614262565b9250508190555081600a6000888152602001908152602001600020600087848151811061281157612810614302565b5b602002602001015173ffffffffffffffffffffffffffffffffffffffff1673ffffffffffffffffffffffffffffffffffffffff16815260200190815260200160002081905550808060010191505061276f565b50847f1034bcc6d30aa91c93d14ce14f959d5d304d6b8a76f50f026934b85d4e4122ed85848460405161289993929190614ad5565b60405180910390a25050505050565b6000600383815481106128be576128bd614302565b5b9060005260206000209060020201905060008160010180549050905060006008600085815260200190815260200160002090506000806128fd87611518565b5094505093505050606460058261291491906144b5565b61291e9190614526565b600460008760000160009054906101000a900473ffffffffffffffffffffffffffffffffffffffff1673ffffffffffffffffffffffffffffffffffffffff1673ffffffffffffffffffffffffffffffffffffffff16815260200190815260200160002060008282546129909190614262565b92505081905550600060646058836129a891906144b5565b6129b29190614526565b905060005b85811015612abb57612aae898984878c815181106129d8576129d7614302565b5b6020026020010151896000878152602001908152602001600020805480602002602001604051908101604052809291908181526020016000905b82821015612aa457838290600052602060002090600202016040518060400160405290816000820160009054906101000a900473ffffffffffffffffffffffffffffffffffffffff1673ffffffffffffffffffffffffffffffffffffffff1673ffffffffffffffffffffffffffffffffffffffff16815260200160018201548152505081526020019060010190612a12565b5050505086612e24565b80806001019150506129b7565b505050505050505050565b600760003373ffffffffffffffffffffffffffffffffffffffff1673ffffffffffffffffffffffffffffffffffffffff168152602001908152602001600020805490508110612b4a576040517f08c379a0000000000000000000000000000000000000000000000000000000008152600401612b4190614b5f565b60405180910390fd5b60006001600760003373ffffffffffffffffffffffffffffffffffffffff1673ffffffffffffffffffffffffffffffffffffffff16815260200190815260200160002080549050612b9b9190613fe3565b9050808214612c8457600760003373ffffffffffffffffffffffffffffffffffffffff1673ffffffffffffffffffffffffffffffffffffffff1681526020019081526020016000208181548110612bf557612bf4614302565b5b9060005260206000209060030201600760003373ffffffffffffffffffffffffffffffffffffffff1673ffffffffffffffffffffffffffffffffffffffff1681526020019081526020016000208381548110612c5457612c53614302565b5b90600052602060002090600302016000820154816000015560018201548160010155600282015481600201559050505b600760003373ffffffffffffffffffffffffffffffffffffffff1673ffffffffffffffffffffffffffffffffffffffff168152602001908152602001600020805480612cd357612cd2614b7f565b5b600190038181906000526020600020906003020160008082016000905560018201600090556002820160009055505090555050565b6000808273ffffffffffffffffffffffffffffffffffffffff163b119050919050565b6000819050919050565b6000819050919050565b612d4881612d08565b612d87576040517f08c379a0000000000000000000000000000000000000000000000000000000008152600401612d7e90614c20565b60405180910390fd5b80612db47f360894a13ba1a3210667c828492db98dca3e2076cc3735a920a3ca505d382bbc60001b612d2b565b60000160006101000a81548173ffffffffffffffffffffffffffffffffffffffff021916908373ffffffffffffffffffffffffffffffffffffffff16021790555050565b612e018361309f565b600082511180612e0e5750805b15612e1f57612e1d83836130ee565b505b505050565b60005b8251811015613096576000838281518110612e4557612e44614302565b5b60200260200101519050806020015160056000836000015173ffffffffffffffffffffffffffffffffffffffff1673ffffffffffffffffffffffffffffffffffffffff1681526020019081526020016000206000828254612ea69190613fe3565b92505081905550868303612fa157600085878360200151612ec791906144b5565b612ed19190614526565b90506000826020015182612ee59190613fe3565b90508060046000856000015173ffffffffffffffffffffffffffffffffffffffff1673ffffffffffffffffffffffffffffffffffffffff1681526020019081526020016000206000828254612f3a9190614262565b9250508190555080600a60008c81526020019081526020016000206000856000015173ffffffffffffffffffffffffffffffffffffffff1673ffffffffffffffffffffffffffffffffffffffff168152602001908152602001600020819055505050613088565b806020015160046000836000015173ffffffffffffffffffffffffffffffffffffffff1673ffffffffffffffffffffffffffffffffffffffff1681526020019081526020016000206000828254612ff89190613fe3565b925050819055507fffffffffffffffffffffffffffffffffffffffffffffffffffffffffffffffff816020015161302f9190614c40565b600a60008a81526020019081526020016000206000836000015173ffffffffffffffffffffffffffffffffffffffff1673ffffffffffffffffffffffffffffffffffffffff168152602001908152602001600020819055505b508080600101915050612e27565b50505050505050565b6130a881612d3f565b8073ffffffffffffffffffffffffffffffffffffffff167fbc7cd75a20ee27fd9adebab32041f755214dbc6bffa90cc0225b39da2e5c2d3b60405160405180910390a250565b60606131138383604051806060016040528060278152602001614dde6027913961311b565b905092915050565b60606000808573ffffffffffffffffffffffffffffffffffffffff16856040516131459190614cff565b600060405180830381855af49150503d8060008114613180576040519150601f19603f3d011682016040523d82523d6000602084013e613185565b606091505b5091509150613196868383876131a1565b925050509392505050565b606083156132035760008351036131fb576131bb85612d08565b6131fa576040517f08c379a00000000000000000000000000000000000000000000000000000000081526004016131f190614d62565b60405180910390fd5b5b82905061320e565b61320d8383613216565b5b949350505050565b6000825111156132295781518083602001fd5b806040517f08c379a000000000000000000000000000000000000000000000000000000000815260040161325d9190614dbb565b60405180910390fd5b6000604051905090565b600080fd5b600080fd5b6000819050919050565b61328d8161327a565b811461329857600080fd5b50565b6000813590506132aa81613284565b92915050565b600073ffffffffffffffffffffffffffffffffffffffff82169050919050565b60006132db826132b0565b9050919050565b6132eb816132d0565b81146132f657600080fd5b50565b600081359050613308816132e2565b92915050565b6000806040838503121561332557613324613270565b5b60006133338582860161329b565b9250506020613344858286016132f9565b9150509250929050565b6000819050919050565b6133618161334e565b82525050565b600060208201905061337c6000830184613358565b92915050565b60006020828403121561339857613397613270565b5b60006133a68482850161329b565b91505092915050565b6133b88161327a565b82525050565b60006020820190506133d360008301846133af565b92915050565b6000602082840312156133ef576133ee613270565b5b60006133fd848285016132f9565b91505092915050565b6000806040838503121561341d5761341c613270565b5b600061342b858286016132f9565b925050602061343c8582860161329b565b9150509250929050565b600060608201905061345b60008301866133af565b61346860208301856133af565b61347560408301846133af565b949350505050565b6000806040838503121561349457613493613270565b5b60006134a28582860161329b565b92505060206134b38582860161329b565b9150509250929050565b600081519050919050565b600082825260208201905092915050565b6000819050602082019050919050565b6134f2816132d0565b82525050565b6135018161327a565b82525050565b60408201600082015161351d60008501826134e9565b50602082015161353060208501826134f8565b50505050565b60006135428383613507565b60408301905092915050565b6000602082019050919050565b6000613566826134bd565b61357081856134c8565b935061357b836134d9565b8060005b838110156135ac5781516135938882613536565b975061359e8361354e565b92505060018101905061357f565b5085935050505092915050565b600060208201905081810360008301526135d3818461355b565b905092915050565b600080fd5b600080fd5b6000601f19601f8301169050919050565b7f4e487b7100000000000000000000000000000000000000000000000000000000600052604160045260246000fd5b61362e826135e5565b810181811067ffffffffffffffff8211171561364d5761364c6135f6565b5b80604052505050565b6000613660613266565b905061366c8282613625565b919050565b600067ffffffffffffffff82111561368c5761368b6135f6565b5b613695826135e5565b9050602081019050919050565b82818337600083830152505050565b60006136c46136bf84613671565b613656565b9050828152602081018484840111156136e0576136df6135e0565b5b6136eb8482856136a2565b509392505050565b600082601f830112613708576137076135db565b5b81356137188482602086016136b1565b91505092915050565b6000806040838503121561373857613737613270565b5b6000613746858286016132f9565b925050602083013567ffffffffffffffff81111561376757613766613275565b5b613773858286016136f3565b9150509250929050565b6000819050919050565b6137908161377d565b82525050565b60006020820190506137ab6000830184613787565b92915050565b6000806000606084860312156137ca576137c9613270565b5b60006137d88682870161329b565b93505060206137e98682870161329b565b92505060406137fa8682870161329b565b9150509250925092565b61380d816132d0565b82525050565b60006020820190506138286000830184613804565b92915050565b600067ffffffffffffffff821115613849576138486135f6565b5b602082029050602081019050919050565b600080fd5b600061387261386d8461382e565b613656565b905080838252602082019050602084028301858111156138955761389461385a565b5b835b818110156138be57806138aa88826132f9565b845260208401935050602081019050613897565b5050509392505050565b600082601f8301126138dd576138dc6135db565b5b81356138ed84826020860161385f565b91505092915050565b60008060006060848603121561390f5761390e613270565b5b600061391d8682870161329b565b935050602061392e8682870161329b565b925050604084013567ffffffffffffffff81111561394f5761394e613275565b5b61395b868287016138c8565b9150509250925092565b600081519050919050565b600082825260208201905092915050565b6000819050602082019050919050565b600081519050919050565b600082825260208201905092915050565b60005b838110156139cb5780820151818401526020810190506139b0565b60008484015250505050565b60006139e282613991565b6139ec818561399c565b93506139fc8185602086016139ad565b613a05816135e5565b840191505092915050565b6000613a1c83836139d7565b905092915050565b6000602082019050919050565b6000613a3c82613965565b613a468185613970565b935083602082028501613a5885613981565b8060005b85811015613a945784840389528151613a758582613a10565b9450613a8083613a24565b925060208a01995050600181019050613a5c565b50829750879550505050505092915050565b600081519050919050565b600082825260208201905092915050565b6000819050602082019050919050565b6000613ade83836134f8565b60208301905092915050565b6000602082019050919050565b6000613b0282613aa6565b613b0c8185613ab1565b9350613b1783613ac2565b8060005b83811015613b48578151613b2f8882613ad2565b9750613b3a83613aea565b925050600181019050613b1b565b5085935050505092915050565b600060c082019050613b6a6000830189613804565b8181036020830152613b7c8188613a31565b90508181036040830152613b908187613af7565b90508181036060830152613ba48186613af7565b9050613bb360808301856133af565b613bc060a08301846133af565b979650505050505050565b600067ffffffffffffffff821115613be657613be56135f6565b5b602082029050602081019050919050565b600067ffffffffffffffff821115613c1257613c116135f6565b5b613c1b826135e5565b9050602081019050919050565b6000613c3b613c3684613bf7565b613656565b905082815260208101848484011115613c5757613c566135e0565b5b613c628482856136a2565b509392505050565b600082601f830112613c7f57613c7e6135db565b5b8135613c8f848260208601613c28565b91505092915050565b6000613cab613ca684613bcb565b613656565b90508083825260208201905060208402830185811115613cce57613ccd61385a565b5b835b81811015613d1557803567ffffffffffffffff811115613cf357613cf26135db565b5b808601613d008982613c6a565b85526020850194505050602081019050613cd0565b5050509392505050565b600082601f830112613d3457613d336135db565b5b8135613d44848260208601613c98565b91505092915050565b600060208284031215613d6357613d62613270565b5b600082013567ffffffffffffffff811115613d8157613d80613275565b5b613d8d84828501613d1f565b91505092915050565b6000604082019050613dab6000830185613804565b613db860208301846133af565b9392505050565b600081519050919050565b600082825260208201905092915050565b6000819050602082019050919050565b606082016000820151613e0160008501826134f8565b506020820151613e1460208501826134f8565b506040820151613e2760408501826134f8565b50505050565b6000613e398383613deb565b60608301905092915050565b6000602082019050919050565b6000613e5d82613dbf565b613e678185613dca565b9350613e7283613ddb565b8060005b83811015613ea3578151613e8a8882613e2d565b9750613e9583613e45565b925050600181019050613e76565b5085935050505092915050565b60006020820190508181036000830152613eca8184613e52565b905092915050565b60008115159050919050565b613ee781613ed2565b8114613ef257600080fd5b50565b600081519050613f0481613ede565b92915050565b600060208284031215613f2057613f1f613270565b5b6000613f2e84828501613ef5565b91505092915050565b600082825260208201905092915050565b7f5472616e73666572206661696c65640000000000000000000000000000000000600082015250565b6000613f7e600f83613f37565b9150613f8982613f48565b602082019050919050565b60006020820190508181036000830152613fad81613f71565b9050919050565b7f4e487b7100000000000000000000000000000000000000000000000000000000600052601160045260246000fd5b6000613fee8261327a565b9150613ff98361327a565b925082820390508181111561401157614010613fb4565b5b92915050565b600060408201905061402c60008301856133af565b61403960208301846133af565b9392505050565b7f46756e6374696f6e206d7573742062652063616c6c6564207468726f7567682060008201527f64656c656761746563616c6c0000000000000000000000000000000000000000602082015250565b600061409c602c83613f37565b91506140a782614040565b604082019050919050565b600060208201905081810360008301526140cb8161408f565b9050919050565b7f46756e6374696f6e206d7573742062652063616c6c6564207468726f7567682060008201527f6163746976652070726f78790000000000000000000000000000000000000000602082015250565b600061412e602c83613f37565b9150614139826140d2565b604082019050919050565b6000602082019050818103600083015261415d81614121565b9050919050565b7f555550535570677261646561626c653a206d757374206e6f742062652063616c60008201527f6c6564207468726f7567682064656c656761746563616c6c0000000000000000602082015250565b60006141c0603883613f37565b91506141cb82614164565b604082019050919050565b600060208201905081810360008301526141ef816141b3565b9050919050565b7f506f696e7473206d7573742062652067726561746572207468616e207a65726f600082015250565b600061422c602083613f37565b9150614237826141f6565b602082019050919050565b6000602082019050818103600083015261425b8161421f565b9050919050565b600061426d8261327a565b91506142788361327a565b92508282019050808211156142905761428f613fb4565b5b92915050565b7f496e73756666696369656e7420766f74696e6720726967687473000000000000600082015250565b60006142cc601a83613f37565b91506142d782614296565b602082019050919050565b600060208201905081810360008301526142fb816142bf565b9050919050565b7f4e487b7100000000000000000000000000000000000000000000000000000000600052603260045260246000fd5b600081519050919050565b600082825260208201905092915050565b6000819050602082019050919050565b600061436983836134e9565b60208301905092915050565b6000602082019050919050565b600061438d82614331565b614397818561433c565b93506143a28361434d565b8060005b838110156143d35781516143ba888261435d565b97506143c583614375565b9250506001810190506143a6565b5085935050505092915050565b60006060820190506143f560008301866133af565b61440260208301856133af565b81810360408301526144148184614382565b9050949350505050565b60006060820190506144336000830186613804565b6144406020830185613804565b61444d60408301846133af565b949350505050565b7f4e487b7100000000000000000000000000000000000000000000000000000000600052602260045260246000fd5b6000600282049050600182168061449c57607f821691505b6020821081036144af576144ae614455565b5b50919050565b60006144c08261327a565b91506144cb8361327a565b92508282026144d98161327a565b915082820484148315176144f0576144ef613fb4565b5b5092915050565b7f4e487b7100000000000000000000000000000000000000000000000000000000600052601260045260246000fd5b60006145318261327a565b915061453c8361327a565b92508261454c5761454b6144f7565b5b828204905092915050565b7f6c656e206572726f720000000000000000000000000000000000000000000000600082015250565b600061458d600983613f37565b915061459882614557565b602082019050919050565b600060208201905081810360008301526145bc81614580565b9050919050565b60008190508160005260206000209050919050565b60006020601f8301049050919050565b600082821b905092915050565b6000600883026146257fffffffffffffffffffffffffffffffffffffffffffffffffffffffffffffffff826145e8565b61462f86836145e8565b95508019841693508086168417925050509392505050565b6000819050919050565b600061466c6146676146628461327a565b614647565b61327a565b9050919050565b6000819050919050565b61468683614651565b61469a61469282614673565b8484546145f5565b825550505050565b600090565b6146af6146a2565b6146ba81848461467d565b505050565b5b818110156146de576146d36000826146a7565b6001810190506146c0565b5050565b601f821115614723576146f4816145c3565b6146fd846145d8565b8101602085101561470c578190505b614720614718856145d8565b8301826146bf565b50505b505050565b600082821c905092915050565b600061474660001984600802614728565b1980831691505092915050565b600061475f8383614735565b9150826002028217905092915050565b61477882613991565b67ffffffffffffffff811115614791576147906135f6565b5b61479b8254614484565b6147a68282856146e2565b600060209050601f8311600181146147d957600084156147c7578287015190505b6147d18582614753565b865550614839565b601f1984166147e7866145c3565b60005b8281101561480f578489015182556001820191506020850194506020810190506147ea565b8683101561482c5784890151614828601f891682614735565b8355505b6001600288020188555050505b505050505050565b6000602082019050818103600083015261485b8184613a31565b905092915050565b7f496e697469616c697a61626c653a20636f6e747261637420697320616c72656160008201527f647920696e697469616c697a6564000000000000000000000000000000000000602082015250565b60006148bf602e83613f37565b91506148ca82614863565b604082019050919050565b600060208201905081810360008301526148ee816148b2565b9050919050565b6000819050919050565b600060ff82169050919050565b600061492761492261491d846148f5565b614647565b6148ff565b9050919050565b6149378161490c565b82525050565b6000602082019050614952600083018461492e565b92915050565b6149618161377d565b811461496c57600080fd5b50565b60008151905061497e81614958565b92915050565b60006020828403121561499a57614999613270565b5b60006149a88482850161496f565b91505092915050565b7f45524331393637557067726164653a206e657720696d706c656d656e7461746960008201527f6f6e206973206e6f742055555053000000000000000000000000000000000000602082015250565b6000614a0d602e83613f37565b9150614a18826149b1565b604082019050919050565b60006020820190508181036000830152614a3c81614a00565b9050919050565b7f45524331393637557067726164653a20756e737570706f727465642070726f7860008201527f6961626c65555549440000000000000000000000000000000000000000000000602082015250565b6000614a9f602983613f37565b9150614aaa82614a43565b604082019050919050565b60006020820190508181036000830152614ace81614a92565b9050919050565b60006060820190508181036000830152614aef8186614382565b9050614afe60208301856133af565b614b0b60408301846133af565b949350505050565b7f496e646578206f7574206f6620626f756e647300000000000000000000000000600082015250565b6000614b49601383613f37565b9150614b5482614b13565b602082019050919050565b60006020820190508181036000830152614b7881614b3c565b9050919050565b7f4e487b7100000000000000000000000000000000000000000000000000000000600052603160045260246000fd5b7f455243313936373a206e657720696d706c656d656e746174696f6e206973206e60008201527f6f74206120636f6e747261637400000000000000000000000000000000000000602082015250565b6000614c0a602d83613f37565b9150614c1582614bae565b604082019050919050565b60006020820190508181036000830152614c3981614bfd565b9050919050565b6000614c4b8261334e565b9150614c568361334e565b9250828202614c648161334e565b91507f80000000000000000000000000000000000000000000000000000000000000008414600084121615614c9c57614c9b613fb4565b5b8282058414831517614cb157614cb0613fb4565b5b5092915050565b600081519050919050565b600081905092915050565b6000614cd982614cb8565b614ce38185614cc3565b9350614cf38185602086016139ad565b80840191505092915050565b6000614d0b8284614cce565b915081905092915050565b7f416464726573733a2063616c6c20746f206e6f6e2d636f6e7472616374000000600082015250565b6000614d4c601d83613f37565b9150614d5782614d16565b602082019050919050565b60006020820190508181036000830152614d7b81614d3f565b9050919050565b6000614d8d82613991565b614d978185613f37565b9350614da78185602086016139ad565b614db0816135e5565b840191505092915050565b60006020820190508181036000830152614dd58184614d82565b90509291505056fe416464726573733a206c6f772d6c6576656c2064656c65676174652063616c6c206661696c6564a2646970667358221220df64cb4cf80a5911913d853d7a567dc9d18a8034454a7455a70ae24e6228162964736f6c63430008180033",
  "linkReferences": {},
  "deployedLinkReferences": {}
}