{
  "_format": "hh-sol-artifact-1",
  "contractName": "Jury",
  "sourceName": "contracts/Jury.sol",
  "abi": [
    {
      "inputs": [
        {
          "internalType": "uint256",
          "name": "proposalId",
          "type": "uint256"
        }
      ],
      "name": "JuryHasBeenCreated",
      "type": "error"
    },
    {
      "inputs": [
        {
          "internalType": "uint256",
          "name": "proposalId",
          "type": "uint256"
        },
        {
          "internalType": "uint256",
          "name": "deadline",
          "type": "uint256"
        }
      ],
      "name": "NotYetDue",
      "type": "error"
    },
    {
      "anonymous": false,
      "inputs": [
        {
          "indexed": false,
          "internalType": "address",
          "name": "previousAdmin",
          "type": "address"
        },
        {
          "indexed": false,
          "internalType": "address",
          "name": "newAdmin",
          "type": "address"
        }
      ],
      "name": "AdminChanged",
      "type": "event"
    },
    {
      "anonymous": false,
      "inputs": [
        {
          "indexed": true,
          "internalType": "address",
          "name": "beacon",
          "type": "address"
        }
      ],
      "name": "BeaconUpgraded",
      "type": "event"
    },
    {
      "anonymous": false,
      "inputs": [
        {
          "indexed": false,
          "internalType": "uint256",
          "name": "proposalId",
          "type": "uint256"
        },
        {
          "indexed": false,
          "internalType": "uint256",
          "name": "winOption",
          "type": "uint256"
        },
        {
          "indexed": false,
          "internalType": "uint256",
          "name": "deadline",
          "type": "uint256"
        }
      ],
      "name": "CreateProposalJury",
      "type": "event"
    },
    {
      "anonymous": false,
      "inputs": [
        {
          "indexed": false,
          "internalType": "uint256",
          "name": "proposalId",
          "type": "uint256"
        }
      ],
      "name": "Fail",
      "type": "event"
    },
    {
      "anonymous": false,
      "inputs": [
        {
          "indexed": false,
          "internalType": "uint8",
          "name": "version",
          "type": "uint8"
        }
      ],
      "name": "Initialized",
      "type": "event"
    },
    {
      "anonymous": false,
      "inputs": [
        {
          "indexed": false,
          "internalType": "uint256",
          "name": "proposalId",
          "type": "uint256"
        }
      ],
      "name": "Success",
      "type": "event"
    },
    {
      "anonymous": false,
      "inputs": [
        {
          "indexed": true,
          "internalType": "address",
          "name": "implementation",
          "type": "address"
        }
      ],
      "name": "Upgraded",
      "type": "event"
    },
    {
      "inputs": [
        {
          "internalType": "uint256",
          "name": "proposalId",
          "type": "uint256"
        },
        {
          "internalType": "uint256",
          "name": "winOptionId",
          "type": "uint256"
        },
        {
          "internalType": "uint256",
          "name": "deadline",
          "type": "uint256"
        }
      ],
      "name": "create",
      "outputs": [],
      "stateMutability": "nonpayable",
      "type": "function"
    },
    {
      "inputs": [
        {
          "internalType": "uint256",
          "name": "proposald",
          "type": "uint256"
        }
      ],
      "name": "deleteById",
      "outputs": [],
      "stateMutability": "nonpayable",
      "type": "function"
    },
    {
      "inputs": [
        {
          "internalType": "uint256",
          "name": "proposalId",
          "type": "uint256"
        }
      ],
      "name": "getDetail",
      "outputs": [
        {
          "internalType": "address[]",
          "name": "jurors",
          "type": "address[]"
        },
        {
          "internalType": "uint256[]",
          "name": "optionId",
          "type": "uint256[]"
        }
      ],
      "stateMutability": "view",
      "type": "function"
    },
    {
      "inputs": [
        {
          "internalType": "uint256",
          "name": "proposalId",
          "type": "uint256"
        }
      ],
      "name": "handleResult",
      "outputs": [],
      "stateMutability": "nonpayable",
      "type": "function"
    },
    {
      "inputs": [],
      "name": "impleAddr",
      "outputs": [
        {
          "internalType": "address",
          "name": "",
          "type": "address"
        }
      ],
      "stateMutability": "view",
      "type": "function"
    },
    {
      "inputs": [
        {
          "internalType": "address",
          "name": "_proposalAddr",
          "type": "address"
        }
      ],
      "name": "initialize",
      "outputs": [],
      "stateMutability": "nonpayable",
      "type": "function"
    },
    {
      "inputs": [
        {
          "internalType": "uint256",
          "name": "",
          "type": "uint256"
        }
      ],
      "name": "juryInfos",
      "outputs": [
        {
          "internalType": "uint256",
          "name": "winOptionId",
          "type": "uint256"
        },
        {
          "internalType": "uint256",
          "name": "deadline",
          "type": "uint256"
        }
      ],
      "stateMutability": "view",
      "type": "function"
    },
    {
      "inputs": [],
      "name": "proposalAddr",
      "outputs": [
        {
          "internalType": "address",
          "name": "",
          "type": "address"
        }
      ],
      "stateMutability": "view",
      "type": "function"
    },
    {
      "inputs": [],
      "name": "proxiableUUID",
      "outputs": [
        {
          "internalType": "bytes32",
          "name": "",
          "type": "bytes32"
        }
      ],
      "stateMutability": "view",
      "type": "function"
    },
    {
      "inputs": [
        {
          "internalType": "address",
          "name": "_proposalAddr",
          "type": "address"
        }
      ],
      "name": "setNewProposal",
      "outputs": [],
      "stateMutability": "nonpayable",
      "type": "function"
    },
    {
      "inputs": [
        {
          "internalType": "address",
          "name": "newImplementation",
          "type": "address"
        }
      ],
      "name": "upgradeTo",
      "outputs": [],
      "stateMutability": "nonpayable",
      "type": "function"
    },
    {
      "inputs": [
        {
          "internalType": "address",
          "name": "newImplementation",
          "type": "address"
        },
        {
          "internalType": "bytes",
          "name": "data",
          "type": "bytes"
        }
      ],
      "name": "upgradeToAndCall",
      "outputs": [],
      "stateMutability": "payable",
      "type": "function"
    },
    {
      "inputs": [
        {
          "internalType": "uint256",
          "name": "proposalId",
          "type": "uint256"
        },
        {
          "internalType": "uint256",
          "name": "optionId",
          "type": "uint256"
        }
      ],
      "name": "vote",
      "outputs": [],
      "stateMutability": "nonpayable",
      "type": "function"
    }
  ],
  "bytecode": "0x60a06040523073ffffffffffffffffffffffffffffffffffffffff1660809073ffffffffffffffffffffffffffffffffffffffff1681525034801561004357600080fd5b5060805161217761007b60003960008181610327015281816103b5015281816104e801528181610576015261062601526121776000f3fe6080604052600436106100c25760003560e01c8063ad4c01711161007f578063c2d57bbc11610059578063c2d57bbc14610259578063c4d66de814610282578063c97fe94b146102ab578063db9e7185146102d4576100c2565b8063ad4c0171146101c9578063b384abef146101f2578063bc17a16a1461021b576100c2565b806323a21cc3146100c75780633659cfe6146100f25780634e542c5f1461011b5780634f1ef2861461014457806352d1902d146101605780639d66a9cd1461018b575b600080fd5b3480156100d357600080fd5b506100dc6102ff565b6040516100e991906114ed565b60405180910390f35b3480156100fe57600080fd5b5061011960048036038101906101149190611548565b610325565b005b34801561012757600080fd5b50610142600480360381019061013d91906115ab565b6104ad565b005b61015e6004803603810190610159919061171e565b6104e6565b005b34801561016c57600080fd5b50610175610622565b6040516101829190611793565b60405180910390f35b34801561019757600080fd5b506101b260048036038101906101ad91906115ab565b6106db565b6040516101c092919061192a565b60405180910390f35b3480156101d557600080fd5b506101f060048036038101906101eb9190611548565b61092b565b005b3480156101fe57600080fd5b5061021960048036038101906102149190611961565b61096f565b005b34801561022757600080fd5b50610242600480360381019061023d91906115ab565b610a3c565b6040516102509291906119b0565b60405180910390f35b34801561026557600080fd5b50610280600480360381019061027b91906115ab565b610a60565b005b34801561028e57600080fd5b506102a960048036038101906102a49190611548565b610cf3565b005b3480156102b757600080fd5b506102d260048036038101906102cd91906119d9565b610e6b565b005b3480156102e057600080fd5b506102e9610f30565b6040516102f691906114ed565b60405180910390f35b600160009054906101000a900473ffffffffffffffffffffffffffffffffffffffff1681565b7f000000000000000000000000000000000000000000000000000000000000000073ffffffffffffffffffffffffffffffffffffffff163073ffffffffffffffffffffffffffffffffffffffff16036103b3576040517f08c379a00000000000000000000000000000000000000000000000000000000081526004016103aa90611aaf565b60405180910390fd5b7f000000000000000000000000000000000000000000000000000000000000000073ffffffffffffffffffffffffffffffffffffffff166103f2610f56565b73ffffffffffffffffffffffffffffffffffffffff1614610448576040517f08c379a000000000000000000000000000000000000000000000000000000000815260040161043f90611b41565b60405180910390fd5b61045181610fad565b6104aa81600067ffffffffffffffff8111156104705761046f6115f3565b5b6040519080825280601f01601f1916602001820160405280156104a25781602001600182028036833780820191505090505b506000610ff1565b50565b600260008281526020019081526020016000206000808201600090556001820160006104d99190611442565b6002820160009055505050565b7f000000000000000000000000000000000000000000000000000000000000000073ffffffffffffffffffffffffffffffffffffffff163073ffffffffffffffffffffffffffffffffffffffff1603610574576040517f08c379a000000000000000000000000000000000000000000000000000000000815260040161056b90611aaf565b60405180910390fd5b7f000000000000000000000000000000000000000000000000000000000000000073ffffffffffffffffffffffffffffffffffffffff166105b3610f56565b73ffffffffffffffffffffffffffffffffffffffff1614610609576040517f08c379a000000000000000000000000000000000000000000000000000000000815260040161060090611b41565b60405180910390fd5b61061282610fad565b61061e82826001610ff1565b5050565b60007f000000000000000000000000000000000000000000000000000000000000000073ffffffffffffffffffffffffffffffffffffffff163073ffffffffffffffffffffffffffffffffffffffff16146106b2576040517f08c379a00000000000000000000000000000000000000000000000000000000081526004016106a990611bd3565b60405180910390fd5b7f360894a13ba1a3210667c828492db98dca3e2076cc3735a920a3ca505d382bbc60001b905090565b6060806000600260008581526020019081526020016000206040518060600160405290816000820154815260200160018201805480602002602001604051908101604052809291908181526020016000905b828210156107bf57838290600052602060002090600202016040518060400160405290816000820160009054906101000a900473ffffffffffffffffffffffffffffffffffffffff1673ffffffffffffffffffffffffffffffffffffffff1673ffffffffffffffffffffffffffffffffffffffff1681526020016001820154815250508152602001906001019061072d565b5050505081526020016002820154815250509050600081602001519050805167ffffffffffffffff8111156107f7576107f66115f3565b5b6040519080825280602002602001820160405280156108255781602001602082028036833780820191505090505b509350805167ffffffffffffffff811115610843576108426115f3565b5b6040519080825280602002602001820160405280156108715781602001602082028036833780820191505090505b50925060005b815181101561092357600082828151811061089557610894611bf3565b5b6020026020010151905080600001518683815181106108b7576108b6611bf3565b5b602002602001019073ffffffffffffffffffffffffffffffffffffffff16908173ffffffffffffffffffffffffffffffffffffffff1681525050806020015185838151811061090957610908611bf3565b5b602002602001018181525050508080600101915050610877565b505050915091565b80600060026101000a81548173ffffffffffffffffffffffffffffffffffffffff021916908373ffffffffffffffffffffffffffffffffffffffff16021790555050565b600060405180604001604052803373ffffffffffffffffffffffffffffffffffffffff16815260200183815250905060006002600085815260200190815260200160002090508060010182908060018154018082558091505060019003906000526020600020906002020160009091909190915060008201518160000160006101000a81548173ffffffffffffffffffffffffffffffffffffffff021916908373ffffffffffffffffffffffffffffffffffffffff16021790555060208201518160010155505050505050565b60026020528060005260406000206000915090508060000154908060020154905082565b6000600260008381526020019081526020016000209050600081600101805480602002602001604051908101604052809291908181526020016000905b82821015610b2f57838290600052602060002090600202016040518060400160405290816000820160009054906101000a900473ffffffffffffffffffffffffffffffffffffffff1673ffffffffffffffffffffffffffffffffffffffff1673ffffffffffffffffffffffffffffffffffffffff16815260200160018201548152505081526020019060010190610a9d565b5050505090506000610b40846106db565b5090504283600201541115610b92578383600201546040517fe96ecc2f000000000000000000000000000000000000000000000000000000008152600401610b899291906119b0565b60405180910390fd5b60005b8251811015610c1f576000838281518110610bb357610bb2611bf3565b5b602002602001015190508460000154816020015114610c1157600095507f123de41493f6e442c2fdb676dd1c3d9f1e0a7b7531ca0cdb9f1026f7569e2bff86604051610bff9190611c22565b60405180910390a15050505050610cf0565b508080600101915050610b95565b50600060029054906101000a900473ffffffffffffffffffffffffffffffffffffffff1673ffffffffffffffffffffffffffffffffffffffff16639b6f67be858560000154846040518463ffffffff1660e01b8152600401610c8393929190611c3d565b600060405180830381600087803b158015610c9d57600080fd5b505af1158015610cb1573d6000803e3d6000fd5b505050507f36d4ea4d2a836eb91a99a36614ff84d373648ee61d232da708aa2eb96ef45c5884604051610ce49190611c22565b60405180910390a15050505b50565b60008060019054906101000a900460ff16159050808015610d245750600160008054906101000a900460ff1660ff16105b80610d515750610d333061115f565b158015610d505750600160008054906101000a900460ff1660ff16145b5b610d90576040517f08c379a0000000000000000000000000000000000000000000000000000000008152600401610d8790611ced565b60405180910390fd5b60016000806101000a81548160ff021916908360ff1602179055508015610dcd576001600060016101000a81548160ff0219169083151502179055505b81600060026101000a81548173ffffffffffffffffffffffffffffffffffffffff021916908373ffffffffffffffffffffffffffffffffffffffff1602179055508015610e675760008060016101000a81548160ff0219169083151502179055507f7f26b83ff96e1f2b6a682f133852f6798a09c465da95921460cefb38474024986001604051610e5e9190611d5f565b60405180910390a15b5050565b6000600260008581526020019081526020016000206002015414610ec657826040517f6c9a4584000000000000000000000000000000000000000000000000000000008152600401610ebd9190611c22565b60405180910390fd5b60006002600085815260200190815260200160002090508281600001819055508181600201819055507f6cc3d22573be20dfd1b2cdaf1c53f2c6964223283a4b3ed2b8e51ef4a5e0a97f848484604051610f2293929190611d7a565b60405180910390a150505050565b600060029054906101000a900473ffffffffffffffffffffffffffffffffffffffff1681565b6000610f847f360894a13ba1a3210667c828492db98dca3e2076cc3735a920a3ca505d382bbc60001b611182565b60000160009054906101000a900473ffffffffffffffffffffffffffffffffffffffff16905090565b80600160006101000a81548173ffffffffffffffffffffffffffffffffffffffff021916908373ffffffffffffffffffffffffffffffffffffffff16021790555050565b61101d7f4910fdfa16fed3260ed0e7147f7cc6da11a60208b5b9406d12a635614ffd914360001b61118c565b60000160009054906101000a900460ff16156110415761103c83611196565b61115a565b8273ffffffffffffffffffffffffffffffffffffffff166352d1902d6040518163ffffffff1660e01b8152600401602060405180830381865afa9250505080156110a957506040513d601f19601f820116820180604052508101906110a69190611ddd565b60015b6110e8576040517f08c379a00000000000000000000000000000000000000000000000000000000081526004016110df90611e7c565b60405180910390fd5b7f360894a13ba1a3210667c828492db98dca3e2076cc3735a920a3ca505d382bbc60001b811461114d576040517f08c379a000000000000000000000000000000000000000000000000000000000815260040161114490611f0e565b60405180910390fd5b5061115983838361124f565b5b505050565b6000808273ffffffffffffffffffffffffffffffffffffffff163b119050919050565b6000819050919050565b6000819050919050565b61119f8161115f565b6111de576040517f08c379a00000000000000000000000000000000000000000000000000000000081526004016111d590611fa0565b60405180910390fd5b8061120b7f360894a13ba1a3210667c828492db98dca3e2076cc3735a920a3ca505d382bbc60001b611182565b60000160006101000a81548173ffffffffffffffffffffffffffffffffffffffff021916908373ffffffffffffffffffffffffffffffffffffffff16021790555050565b6112588361127b565b6000825111806112655750805b156112765761127483836112ca565b505b505050565b61128481611196565b8073ffffffffffffffffffffffffffffffffffffffff167fbc7cd75a20ee27fd9adebab32041f755214dbc6bffa90cc0225b39da2e5c2d3b60405160405180910390a250565b60606112ef838360405180606001604052806027815260200161211b602791396112f7565b905092915050565b60606000808573ffffffffffffffffffffffffffffffffffffffff16856040516113219190612031565b600060405180830381855af49150503d806000811461135c576040519150601f19603f3d011682016040523d82523d6000602084013e611361565b606091505b50915091506113728683838761137d565b925050509392505050565b606083156113df5760008351036113d7576113978561115f565b6113d6576040517f08c379a00000000000000000000000000000000000000000000000000000000081526004016113cd90612094565b60405180910390fd5b5b8290506113ea565b6113e983836113f2565b5b949350505050565b6000825111156114055781518083602001fd5b806040517f08c379a000000000000000000000000000000000000000000000000000000000815260040161143991906120f8565b60405180910390fd5b50805460008255600202906000526020600020908101906114639190611466565b50565b5b808211156114a857600080820160006101000a81549073ffffffffffffffffffffffffffffffffffffffff0219169055600182016000905550600201611467565b5090565b600073ffffffffffffffffffffffffffffffffffffffff82169050919050565b60006114d7826114ac565b9050919050565b6114e7816114cc565b82525050565b600060208201905061150260008301846114de565b92915050565b6000604051905090565b600080fd5b600080fd5b611525816114cc565b811461153057600080fd5b50565b6000813590506115428161151c565b92915050565b60006020828403121561155e5761155d611512565b5b600061156c84828501611533565b91505092915050565b6000819050919050565b61158881611575565b811461159357600080fd5b50565b6000813590506115a58161157f565b92915050565b6000602082840312156115c1576115c0611512565b5b60006115cf84828501611596565b91505092915050565b600080fd5b600080fd5b6000601f19601f8301169050919050565b7f4e487b7100000000000000000000000000000000000000000000000000000000600052604160045260246000fd5b61162b826115e2565b810181811067ffffffffffffffff8211171561164a576116496115f3565b5b80604052505050565b600061165d611508565b90506116698282611622565b919050565b600067ffffffffffffffff821115611689576116886115f3565b5b611692826115e2565b9050602081019050919050565b82818337600083830152505050565b60006116c16116bc8461166e565b611653565b9050828152602081018484840111156116dd576116dc6115dd565b5b6116e884828561169f565b509392505050565b600082601f830112611705576117046115d8565b5b81356117158482602086016116ae565b91505092915050565b6000806040838503121561173557611734611512565b5b600061174385828601611533565b925050602083013567ffffffffffffffff81111561176457611763611517565b5b611770858286016116f0565b9150509250929050565b6000819050919050565b61178d8161177a565b82525050565b60006020820190506117a86000830184611784565b92915050565b600081519050919050565b600082825260208201905092915050565b6000819050602082019050919050565b6117e3816114cc565b82525050565b60006117f583836117da565b60208301905092915050565b6000602082019050919050565b6000611819826117ae565b61182381856117b9565b935061182e836117ca565b8060005b8381101561185f57815161184688826117e9565b975061185183611801565b925050600181019050611832565b5085935050505092915050565b600081519050919050565b600082825260208201905092915050565b6000819050602082019050919050565b6118a181611575565b82525050565b60006118b38383611898565b60208301905092915050565b6000602082019050919050565b60006118d78261186c565b6118e18185611877565b93506118ec83611888565b8060005b8381101561191d57815161190488826118a7565b975061190f836118bf565b9250506001810190506118f0565b5085935050505092915050565b60006040820190508181036000830152611944818561180e565b9050818103602083015261195881846118cc565b90509392505050565b6000806040838503121561197857611977611512565b5b600061198685828601611596565b925050602061199785828601611596565b9150509250929050565b6119aa81611575565b82525050565b60006040820190506119c560008301856119a1565b6119d260208301846119a1565b9392505050565b6000806000606084860312156119f2576119f1611512565b5b6000611a0086828701611596565b9350506020611a1186828701611596565b9250506040611a2286828701611596565b9150509250925092565b600082825260208201905092915050565b7f46756e6374696f6e206d7573742062652063616c6c6564207468726f7567682060008201527f64656c656761746563616c6c0000000000000000000000000000000000000000602082015250565b6000611a99602c83611a2c565b9150611aa482611a3d565b604082019050919050565b60006020820190508181036000830152611ac881611a8c565b9050919050565b7f46756e6374696f6e206d7573742062652063616c6c6564207468726f7567682060008201527f6163746976652070726f78790000000000000000000000000000000000000000602082015250565b6000611b2b602c83611a2c565b9150611b3682611acf565b604082019050919050565b60006020820190508181036000830152611b5a81611b1e565b9050919050565b7f555550535570677261646561626c653a206d757374206e6f742062652063616c60008201527f6c6564207468726f7567682064656c656761746563616c6c0000000000000000602082015250565b6000611bbd603883611a2c565b9150611bc882611b61565b604082019050919050565b60006020820190508181036000830152611bec81611bb0565b9050919050565b7f4e487b7100000000000000000000000000000000000000000000000000000000600052603260045260246000fd5b6000602082019050611c3760008301846119a1565b92915050565b6000606082019050611c5260008301866119a1565b611c5f60208301856119a1565b8181036040830152611c71818461180e565b9050949350505050565b7f496e697469616c697a61626c653a20636f6e747261637420697320616c72656160008201527f647920696e697469616c697a6564000000000000000000000000000000000000602082015250565b6000611cd7602e83611a2c565b9150611ce282611c7b565b604082019050919050565b60006020820190508181036000830152611d0681611cca565b9050919050565b6000819050919050565b600060ff82169050919050565b6000819050919050565b6000611d49611d44611d3f84611d0d565b611d24565b611d17565b9050919050565b611d5981611d2e565b82525050565b6000602082019050611d746000830184611d50565b92915050565b6000606082019050611d8f60008301866119a1565b611d9c60208301856119a1565b611da960408301846119a1565b949350505050565b611dba8161177a565b8114611dc557600080fd5b50565b600081519050611dd781611db1565b92915050565b600060208284031215611df357611df2611512565b5b6000611e0184828501611dc8565b91505092915050565b7f45524331393637557067726164653a206e657720696d706c656d656e7461746960008201527f6f6e206973206e6f742055555053000000000000000000000000000000000000602082015250565b6000611e66602e83611a2c565b9150611e7182611e0a565b604082019050919050565b60006020820190508181036000830152611e9581611e59565b9050919050565b7f45524331393637557067726164653a20756e737570706f727465642070726f7860008201527f6961626c65555549440000000000000000000000000000000000000000000000602082015250565b6000611ef8602983611a2c565b9150611f0382611e9c565b604082019050919050565b60006020820190508181036000830152611f2781611eeb565b9050919050565b7f455243313936373a206e657720696d706c656d656e746174696f6e206973206e60008201527f6f74206120636f6e747261637400000000000000000000000000000000000000602082015250565b6000611f8a602d83611a2c565b9150611f9582611f2e565b604082019050919050565b60006020820190508181036000830152611fb981611f7d565b9050919050565b600081519050919050565b600081905092915050565b60005b83811015611ff4578082015181840152602081019050611fd9565b60008484015250505050565b600061200b82611fc0565b6120158185611fcb565b9350612025818560208601611fd6565b80840191505092915050565b600061203d8284612000565b915081905092915050565b7f416464726573733a2063616c6c20746f206e6f6e2d636f6e7472616374000000600082015250565b600061207e601d83611a2c565b915061208982612048565b602082019050919050565b600060208201905081810360008301526120ad81612071565b9050919050565b600081519050919050565b60006120ca826120b4565b6120d48185611a2c565b93506120e4818560208601611fd6565b6120ed816115e2565b840191505092915050565b6000602082019050818103600083015261211281846120bf565b90509291505056fe416464726573733a206c6f772d6c6576656c2064656c65676174652063616c6c206661696c6564a2646970667358221220d3e8edeac8846d90b3f36acbe315394a3543f862e0d62d953612445adb9af62b64736f6c63430008180033",
  "linkReferences": {},
  "deployedLinkReferences": {}
}