{
  "_format": "hh-sol-artifact-1",
  "contractName": "FlareToken",
  "sourceName": "contracts/FlareToken.sol",
  "abi": [
    {
      "inputs": [],
      "stateMutability": "nonpayable",
      "type": "constructor"
    },
    {
      "inputs": [],
      "name": "ECDSAInvalidSignature",
      "type": "error"
    },
    {
      "inputs": [
        {
          "internalType": "uint256",
          "name": "length",
          "type": "uint256"
        }
      ],
      "name": "ECDSAInvalidSignatureLength",
      "type": "error"
    },
    {
      "inputs": [
        {
          "internalType": "bytes32",
          "name": "s",
          "type": "bytes32"
        }
      ],
      "name": "ECDSAInvalidSignatureS",
      "type": "error"
    },
    {
      "inputs": [
        {
          "internalType": "address",
          "name": "spender",
          "type": "address"
        },
        {
          "internalType": "uint256",
          "name": "allowance",
          "type": "uint256"
        },
        {
          "internalType": "uint256",
          "name": "needed",
          "type": "uint256"
        }
      ],
      "name": "ERC20InsufficientAllowance",
      "type": "error"
    },
    {
      "inputs": [
        {
          "internalType": "address",
          "name": "sender",
          "type": "address"
        },
        {
          "internalType": "uint256",
          "name": "balance",
          "type": "uint256"
        },
        {
          "internalType": "uint256",
          "name": "needed",
          "type": "uint256"
        }
      ],
      "name": "ERC20InsufficientBalance",
      "type": "error"
    },
    {
      "inputs": [
        {
          "internalType": "address",
          "name": "approver",
          "type": "address"
        }
      ],
      "name": "ERC20InvalidApprover",
      "type": "error"
    },
    {
      "inputs": [
        {
          "internalType": "address",
          "name": "receiver",
          "type": "address"
        }
      ],
      "name": "ERC20InvalidReceiver",
      "type": "error"
    },
    {
      "inputs": [
        {
          "internalType": "address",
          "name": "sender",
          "type": "address"
        }
      ],
      "name": "ERC20InvalidSender",
      "type": "error"
    },
    {
      "inputs": [
        {
          "internalType": "address",
          "name": "spender",
          "type": "address"
        }
      ],
      "name": "ERC20InvalidSpender",
      "type": "error"
    },
    {
      "inputs": [
        {
          "internalType": "uint256",
          "name": "deadline",
          "type": "uint256"
        }
      ],
      "name": "ERC2612ExpiredSignature",
      "type": "error"
    },
    {
      "inputs": [
        {
          "internalType": "address",
          "name": "signer",
          "type": "address"
        },
        {
          "internalType": "address",
          "name": "owner",
          "type": "address"
        }
      ],
      "name": "ERC2612InvalidSigner",
      "type": "error"
    },
    {
      "inputs": [
        {
          "internalType": "address",
          "name": "account",
          "type": "address"
        },
        {
          "internalType": "uint256",
          "name": "currentNonce",
          "type": "uint256"
        }
      ],
      "name": "InvalidAccountNonce",
      "type": "error"
    },
    {
      "inputs": [],
      "name": "InvalidShortString",
      "type": "error"
    },
    {
      "inputs": [
        {
          "internalType": "string",
          "name": "str",
          "type": "string"
        }
      ],
      "name": "StringTooLong",
      "type": "error"
    },
    {
      "anonymous": false,
      "inputs": [
        {
          "indexed": true,
          "internalType": "address",
          "name": "owner",
          "type": "address"
        },
        {
          "indexed": true,
          "internalType": "address",
          "name": "spender",
          "type": "address"
        },
        {
          "indexed": false,
          "internalType": "uint256",
          "name": "value",
          "type": "uint256"
        }
      ],
      "name": "Approval",
      "type": "event"
    },
    {
      "anonymous": false,
      "inputs": [],
      "name": "EIP712DomainChanged",
      "type": "event"
    },
    {
      "anonymous": false,
      "inputs": [
        {
          "indexed": true,
          "internalType": "address",
          "name": "from",
          "type": "address"
        },
        {
          "indexed": true,
          "internalType": "address",
          "name": "to",
          "type": "address"
        },
        {
          "indexed": false,
          "internalType": "uint256",
          "name": "value",
          "type": "uint256"
        }
      ],
      "name": "Transfer",
      "type": "event"
    },
    {
      "inputs": [],
      "name": "DOMAIN_SEPARATOR",
      "outputs": [
        {
          "internalType": "bytes32",
          "name": "",
          "type": "bytes32"
        }
      ],
      "stateMutability": "view",
      "type": "function"
    },
    {
      "inputs": [
        {
          "internalType": "address",
          "name": "owner",
          "type": "address"
        },
        {
          "internalType": "address",
          "name": "spender",
          "type": "address"
        }
      ],
      "name": "allowance",
      "outputs": [
        {
          "internalType": "uint256",
          "name": "",
          "type": "uint256"
        }
      ],
      "stateMutability": "view",
      "type": "function"
    },
    {
      "inputs": [
        {
          "internalType": "address",
          "name": "spender",
          "type": "address"
        },
        {
          "internalType": "uint256",
          "name": "value",
          "type": "uint256"
        }
      ],
      "name": "approve",
      "outputs": [
        {
          "internalType": "bool",
          "name": "",
          "type": "bool"
        }
      ],
      "stateMutability": "nonpayable",
      "type": "function"
    },
    {
      "inputs": [
        {
          "internalType": "address",
          "name": "account",
          "type": "address"
        }
      ],
      "name": "balanceOf",
      "outputs": [
        {
          "internalType": "uint256",
          "name": "",
          "type": "uint256"
        }
      ],
      "stateMutability": "view",
      "type": "function"
    },
    {
      "inputs": [],
      "name": "decimals",
      "outputs": [
        {
          "internalType": "uint8",
          "name": "",
          "type": "uint8"
        }
      ],
      "stateMutability": "view",
      "type": "function"
    },
    {
      "inputs": [],
      "name": "eip712Domain",
      "outputs": [
        {
          "internalType": "bytes1",
          "name": "fields",
          "type": "bytes1"
        },
        {
          "internalType": "string",
          "name": "name",
          "type": "string"
        },
        {
          "internalType": "string",
          "name": "version",
          "type": "string"
        },
        {
          "internalType": "uint256",
          "name": "chainId",
          "type": "uint256"
        },
        {
          "internalType": "address",
          "name": "verifyingContract",
          "type": "address"
        },
        {
          "internalType": "bytes32",
          "name": "salt",
          "type": "bytes32"
        },
        {
          "internalType": "uint256[]",
          "name": "extensions",
          "type": "uint256[]"
        }
      ],
      "stateMutability": "view",
      "type": "function"
    },
    {
      "inputs": [
        {
          "internalType": "address",
          "name": "to",
          "type": "address"
        },
        {
          "internalType": "uint256",
          "name": "amount",
          "type": "uint256"
        }
      ],
      "name": "mint",
      "outputs": [],
      "stateMutability": "nonpayable",
      "type": "function"
    },
    {
      "inputs": [],
      "name": "name",
      "outputs": [
        {
          "internalType": "string",
          "name": "",
          "type": "string"
        }
      ],
      "stateMutability": "view",
      "type": "function"
    },
    {
      "inputs": [
        {
          "internalType": "address",
          "name": "owner",
          "type": "address"
        }
      ],
      "name": "nonces",
      "outputs": [
        {
          "internalType": "uint256",
          "name": "",
          "type": "uint256"
        }
      ],
      "stateMutability": "view",
      "type": "function"
    },
    {
      "inputs": [
        {
          "internalType": "address",
          "name": "owner",
          "type": "address"
        },
        {
          "internalType": "address",
          "name": "spender",
          "type": "address"
        },
        {
          "internalType": "uint256",
          "name": "value",
          "type": "uint256"
        },
        {
          "internalType": "uint256",
          "name": "deadline",
          "type": "uint256"
        },
        {
          "internalType": "uint8",
          "name": "v",
          "type": "uint8"
        },
        {
          "internalType": "bytes32",
          "name": "r",
          "type": "bytes32"
        },
        {
          "internalType": "bytes32",
          "name": "s",
          "type": "bytes32"
        }
      ],
      "name": "permit",
      "outputs": [],
      "stateMutability": "nonpayable",
      "type": "function"
    },
    {
      "inputs": [],
      "name": "symbol",
      "outputs": [
        {
          "internalType": "string",
          "name": "",
          "type": "string"
        }
      ],
      "stateMutability": "view",
      "type": "function"
    },
    {
      "inputs": [],
      "name": "totalSupply",
      "outputs": [
        {
          "internalType": "uint256",
          "name": "",
          "type": "uint256"
        }
      ],
      "stateMutability": "view",
      "type": "function"
    },
    {
      "inputs": [
        {
          "internalType": "address",
          "name": "to",
          "type": "address"
        },
        {
          "internalType": "uint256",
          "name": "value",
          "type": "uint256"
        }
      ],
      "name": "transfer",
      "outputs": [
        {
          "internalType": "bool",
          "name": "",
          "type": "bool"
        }
      ],
      "stateMutability": "nonpayable",
      "type": "function"
    },
    {
      "inputs": [
        {
          "internalType": "address",
          "name": "from",
          "type": "address"
        },
        {
          "internalType": "address",
          "name": "to",
          "type": "address"
        },
        {
          "internalType": "uint256",
          "name": "value",
          "type": "uint256"
        }
      ],
      "name": "transferFrom",
      "outputs": [
        {
          "internalType": "bool",
          "name": "",
          "type": "bool"
        }
      ],
      "stateMutability": "nonpayable",
      "type": "function"
    }
  ],
  "bytecode": "0x6101606040523480156200001257600080fd5b506040518060400160405280600581526020017f666c617265000000000000000000000000000000000000000000000000000000815250806040518060400160405280600181526020017f31000000000000000000000000000000000000000000000000000000000000008152506040518060400160405280600581526020017f666c6172650000000000000000000000000000000000000000000000000000008152506040518060400160405280600881526020017f666c6172655f56310000000000000000000000000000000000000000000000008152508160039081620000fd919062000877565b5080600490816200010f919062000877565b505050620001286005836200020b60201b90919060201c565b6101208181525050620001466006826200020b60201b90919060201c565b6101408181525050818051906020012060e08181525050808051906020012061010081815250504660a08181525050620001856200026360201b60201c565b608081815250503073ffffffffffffffffffffffffffffffffffffffff1660c08173ffffffffffffffffffffffffffffffffffffffff16815250505050506200020533620001d8620002c060201b60201c565b600a620001e6919062000aee565b6509184e72a000620001f9919062000b3f565b620002c960201b60201c565b62000e5f565b6000602083511015620002315762000229836200035660201b60201c565b90506200025d565b826200024383620003c360201b60201c565b600001908162000254919062000877565b5060ff60001b90505b92915050565b60007f8b73c3c69bb8fe3d512ecc4cf759cc79239f7b179b0ffacaa9a75d522b39400f60e051610100514630604051602001620002a595949392919062000bfb565b60405160208183030381529060405280519060200120905090565b60006012905090565b600073ffffffffffffffffffffffffffffffffffffffff168273ffffffffffffffffffffffffffffffffffffffff16036200033e5760006040517fec442f0500000000000000000000000000000000000000000000000000000000815260040162000335919062000c58565b60405180910390fd5b6200035260008383620003cd60201b60201c565b5050565b600080829050601f81511115620003a657826040517f305a27a90000000000000000000000000000000000000000000000000000000081526004016200039d919062000d04565b60405180910390fd5b805181620003b49062000d5a565b60001c1760001b915050919050565b6000819050919050565b600073ffffffffffffffffffffffffffffffffffffffff168373ffffffffffffffffffffffffffffffffffffffff16036200042357806002600082825462000416919062000dca565b92505081905550620004f9565b60008060008573ffffffffffffffffffffffffffffffffffffffff1673ffffffffffffffffffffffffffffffffffffffff16815260200190815260200160002054905081811015620004b2578381836040517fe450d38c000000000000000000000000000000000000000000000000000000008152600401620004a99392919062000e05565b60405180910390fd5b8181036000808673ffffffffffffffffffffffffffffffffffffffff1673ffffffffffffffffffffffffffffffffffffffff16815260200190815260200160002081905550505b600073ffffffffffffffffffffffffffffffffffffffff168273ffffffffffffffffffffffffffffffffffffffff160362000544578060026000828254039250508190555062000591565b806000808473ffffffffffffffffffffffffffffffffffffffff1673ffffffffffffffffffffffffffffffffffffffff168152602001908152602001600020600082825401925050819055505b8173ffffffffffffffffffffffffffffffffffffffff168373ffffffffffffffffffffffffffffffffffffffff167fddf252ad1be2c89b69c2b068fc378daa952ba7f163c4a11628f55a4df523b3ef83604051620005f0919062000e42565b60405180910390a3505050565b600081519050919050565b7f4e487b7100000000000000000000000000000000000000000000000000000000600052604160045260246000fd5b7f4e487b7100000000000000000000000000000000000000000000000000000000600052602260045260246000fd5b600060028204905060018216806200067f57607f821691505b60208210810362000695576200069462000637565b5b50919050565b60008190508160005260206000209050919050565b60006020601f8301049050919050565b600082821b905092915050565b600060088302620006ff7fffffffffffffffffffffffffffffffffffffffffffffffffffffffffffffffff82620006c0565b6200070b8683620006c0565b95508019841693508086168417925050509392505050565b6000819050919050565b6000819050919050565b600062000758620007526200074c8462000723565b6200072d565b62000723565b9050919050565b6000819050919050565b620007748362000737565b6200078c62000783826200075f565b848454620006cd565b825550505050565b600090565b620007a362000794565b620007b081848462000769565b505050565b5b81811015620007d857620007cc60008262000799565b600181019050620007b6565b5050565b601f8211156200082757620007f1816200069b565b620007fc84620006b0565b810160208510156200080c578190505b620008246200081b85620006b0565b830182620007b5565b50505b505050565b600082821c905092915050565b60006200084c600019846008026200082c565b1980831691505092915050565b600062000867838362000839565b9150826002028217905092915050565b6200088282620005fd565b67ffffffffffffffff8111156200089e576200089d62000608565b5b620008aa825462000666565b620008b7828285620007dc565b600060209050601f831160018114620008ef5760008415620008da578287015190505b620008e6858262000859565b86555062000956565b601f198416620008ff866200069b565b60005b82811015620009295784890151825560018201915060208501945060208101905062000902565b8683101562000949578489015162000945601f89168262000839565b8355505b6001600288020188555050505b505050505050565b7f4e487b7100000000000000000000000000000000000000000000000000000000600052601160045260246000fd5b60008160011c9050919050565b6000808291508390505b6001851115620009ec57808604811115620009c457620009c36200095e565b5b6001851615620009d45780820291505b8081029050620009e4856200098d565b9450620009a4565b94509492505050565b60008262000a07576001905062000ada565b8162000a17576000905062000ada565b816001811462000a30576002811462000a3b5762000a71565b600191505062000ada565b60ff84111562000a505762000a4f6200095e565b5b8360020a91508482111562000a6a5762000a696200095e565b5b5062000ada565b5060208310610133831016604e8410600b841016171562000aab5782820a90508381111562000aa55762000aa46200095e565b5b62000ada565b62000aba84848460016200099a565b9250905081840481111562000ad45762000ad36200095e565b5b81810290505b9392505050565b600060ff82169050919050565b600062000afb8262000723565b915062000b088362000ae1565b925062000b377fffffffffffffffffffffffffffffffffffffffffffffffffffffffffffffffff8484620009f5565b905092915050565b600062000b4c8262000723565b915062000b598362000723565b925082820262000b698162000723565b9150828204841483151762000b835762000b826200095e565b5b5092915050565b6000819050919050565b62000b9f8162000b8a565b82525050565b62000bb08162000723565b82525050565b600073ffffffffffffffffffffffffffffffffffffffff82169050919050565b600062000be38262000bb6565b9050919050565b62000bf58162000bd6565b82525050565b600060a08201905062000c12600083018862000b94565b62000c21602083018762000b94565b62000c30604083018662000b94565b62000c3f606083018562000ba5565b62000c4e608083018462000bea565b9695505050505050565b600060208201905062000c6f600083018462000bea565b92915050565b600082825260208201905092915050565b60005b8381101562000ca657808201518184015260208101905062000c89565b60008484015250505050565b6000601f19601f8301169050919050565b600062000cd082620005fd565b62000cdc818562000c75565b935062000cee81856020860162000c86565b62000cf98162000cb2565b840191505092915050565b6000602082019050818103600083015262000d20818462000cc3565b905092915050565b600081519050919050565b6000819050602082019050919050565b600062000d51825162000b8a565b80915050919050565b600062000d678262000d28565b8262000d738462000d33565b905062000d808162000d43565b9250602082101562000dc35762000dbe7fffffffffffffffffffffffffffffffffffffffffffffffffffffffffffffffff83602003600802620006c0565b831692505b5050919050565b600062000dd78262000723565b915062000de48362000723565b925082820190508082111562000dff5762000dfe6200095e565b5b92915050565b600060608201905062000e1c600083018662000bea565b62000e2b602083018562000ba5565b62000e3a604083018462000ba5565b949350505050565b600060208201905062000e59600083018462000ba5565b92915050565b60805160a05160c05160e051610100516101205161014051611ebc62000eba6000396000610b2301526000610ae8015260006110380152600061101701526000610961015260006109b7015260006109e00152611ebc6000f3fe608060405234801561001057600080fd5b50600436106100ea5760003560e01c806370a082311161008c57806395d89b411161006657806395d89b4114610267578063a9059cbb14610285578063d505accf146102b5578063dd62ed3e146102d1576100ea565b806370a08231146101e35780637ecebe001461021357806384b0196e14610243576100ea565b806323b872dd116100c857806323b872dd1461015b578063313ce5671461018b5780633644e515146101a957806340c10f19146101c7576100ea565b806306fdde03146100ef578063095ea7b31461010d57806318160ddd1461013d575b600080fd5b6100f7610301565b6040516101049190611525565b60405180910390f35b610127600480360381019061012291906115e0565b610393565b604051610134919061163b565b60405180910390f35b6101456103b6565b6040516101529190611665565b60405180910390f35b61017560048036038101906101709190611680565b6103c0565b604051610182919061163b565b60405180910390f35b6101936103ef565b6040516101a091906116ef565b60405180910390f35b6101b16103f8565b6040516101be9190611723565b60405180910390f35b6101e160048036038101906101dc91906115e0565b610407565b005b6101fd60048036038101906101f8919061173e565b610433565b60405161020a9190611665565b60405180910390f35b61022d6004803603810190610228919061173e565b61047b565b60405161023a9190611665565b60405180910390f35b61024b61048d565b60405161025e9796959493929190611873565b60405180910390f35b61026f610537565b60405161027c9190611525565b60405180910390f35b61029f600480360381019061029a91906115e0565b6105c9565b6040516102ac919061163b565b60405180910390f35b6102cf60048036038101906102ca919061194f565b6105ec565b005b6102eb60048036038101906102e691906119f1565b610734565b6040516102f89190611665565b60405180910390f35b60606003805461031090611a60565b80601f016020809104026020016040519081016040528092919081815260200182805461033c90611a60565b80156103895780601f1061035e57610100808354040283529160200191610389565b820191906000526020600020905b81548152906001019060200180831161036c57829003601f168201915b5050505050905090565b60008061039e6107bb565b90506103ab8185856107c3565b600191505092915050565b6000600254905090565b6000806103cb6107bb565b90506103d88582856107d5565b6103e3858585610869565b60019150509392505050565b60006012905090565b600061040261095d565b905090565b61042f826104136103ef565b600a61041f9190611bf3565b8361042a9190611c3e565b610a14565b5050565b60008060008373ffffffffffffffffffffffffffffffffffffffff1673ffffffffffffffffffffffffffffffffffffffff168152602001908152602001600020549050919050565b600061048682610a96565b9050919050565b6000606080600080600060606104a1610adf565b6104a9610b1a565b46306000801b600067ffffffffffffffff8111156104ca576104c9611c80565b5b6040519080825280602002602001820160405280156104f85781602001602082028036833780820191505090505b507f0f00000000000000000000000000000000000000000000000000000000000000959493929190965096509650965096509650965090919293949596565b60606004805461054690611a60565b80601f016020809104026020016040519081016040528092919081815260200182805461057290611a60565b80156105bf5780601f10610594576101008083540402835291602001916105bf565b820191906000526020600020905b8154815290600101906020018083116105a257829003601f168201915b5050505050905090565b6000806105d46107bb565b90506105e1818585610869565b600191505092915050565b8342111561063157836040517f627913020000000000000000000000000000000000000000000000000000000081526004016106289190611665565b60405180910390fd5b60007f6e71edae12b1b97f4d1f60370fef10105fa2faae0126114a169c64845d6126c98888886106608c610b55565b8960405160200161067696959493929190611caf565b604051602081830303815290604052805190602001209050600061069982610bac565b905060006106a982878787610bc6565b90508973ffffffffffffffffffffffffffffffffffffffff168173ffffffffffffffffffffffffffffffffffffffff161461071d57808a6040517f4b800e46000000000000000000000000000000000000000000000000000000008152600401610714929190611d10565b60405180910390fd5b6107288a8a8a6107c3565b50505050505050505050565b6000600160008473ffffffffffffffffffffffffffffffffffffffff1673ffffffffffffffffffffffffffffffffffffffff16815260200190815260200160002060008373ffffffffffffffffffffffffffffffffffffffff1673ffffffffffffffffffffffffffffffffffffffff16815260200190815260200160002054905092915050565b600033905090565b6107d08383836001610bf6565b505050565b60006107e18484610734565b90507fffffffffffffffffffffffffffffffffffffffffffffffffffffffffffffffff81146108635781811015610853578281836040517ffb8f41b200000000000000000000000000000000000000000000000000000000815260040161084a93929190611d39565b60405180910390fd5b61086284848484036000610bf6565b5b50505050565b600073ffffffffffffffffffffffffffffffffffffffff168373ffffffffffffffffffffffffffffffffffffffff16036108db5760006040517f96c6fd1e0000000000000000000000000000000000000000000000000000000081526004016108d29190611d70565b60405180910390fd5b600073ffffffffffffffffffffffffffffffffffffffff168273ffffffffffffffffffffffffffffffffffffffff160361094d5760006040517fec442f050000000000000000000000000000000000000000000000000000000081526004016109449190611d70565b60405180910390fd5b610958838383610dcd565b505050565b60007f000000000000000000000000000000000000000000000000000000000000000073ffffffffffffffffffffffffffffffffffffffff163073ffffffffffffffffffffffffffffffffffffffff161480156109d957507f000000000000000000000000000000000000000000000000000000000000000046145b15610a06577f00000000000000000000000000000000000000000000000000000000000000009050610a11565b610a0e610ff2565b90505b90565b600073ffffffffffffffffffffffffffffffffffffffff168273ffffffffffffffffffffffffffffffffffffffff1603610a865760006040517fec442f05000000000000000000000000000000000000000000000000000000008152600401610a7d9190611d70565b60405180910390fd5b610a9260008383610dcd565b5050565b6000600760008373ffffffffffffffffffffffffffffffffffffffff1673ffffffffffffffffffffffffffffffffffffffff168152602001908152602001600020549050919050565b6060610b1560057f000000000000000000000000000000000000000000000000000000000000000061108890919063ffffffff16565b905090565b6060610b5060067f000000000000000000000000000000000000000000000000000000000000000061108890919063ffffffff16565b905090565b6000600760008373ffffffffffffffffffffffffffffffffffffffff1673ffffffffffffffffffffffffffffffffffffffff1681526020019081526020016000206000815480929190600101919050559050919050565b6000610bbf610bb961095d565b83611138565b9050919050565b600080600080610bd888888888611179565b925092509250610be8828261126d565b829350505050949350505050565b600073ffffffffffffffffffffffffffffffffffffffff168473ffffffffffffffffffffffffffffffffffffffff1603610c685760006040517fe602df05000000000000000000000000000000000000000000000000000000008152600401610c5f9190611d70565b60405180910390fd5b600073ffffffffffffffffffffffffffffffffffffffff168373ffffffffffffffffffffffffffffffffffffffff1603610cda5760006040517f94280d62000000000000000000000000000000000000000000000000000000008152600401610cd19190611d70565b60405180910390fd5b81600160008673ffffffffffffffffffffffffffffffffffffffff1673ffffffffffffffffffffffffffffffffffffffff16815260200190815260200160002060008573ffffffffffffffffffffffffffffffffffffffff1673ffffffffffffffffffffffffffffffffffffffff168152602001908152602001600020819055508015610dc7578273ffffffffffffffffffffffffffffffffffffffff168473ffffffffffffffffffffffffffffffffffffffff167f8c5be1e5ebec7d5bd14f71427d1e84f3dd0314c0f7b2291e5b200ac8c7c3b92584604051610dbe9190611665565b60405180910390a35b50505050565b600073ffffffffffffffffffffffffffffffffffffffff168373ffffffffffffffffffffffffffffffffffffffff1603610e1f578060026000828254610e139190611d8b565b92505081905550610ef2565b60008060008573ffffffffffffffffffffffffffffffffffffffff1673ffffffffffffffffffffffffffffffffffffffff16815260200190815260200160002054905081811015610eab578381836040517fe450d38c000000000000000000000000000000000000000000000000000000008152600401610ea293929190611d39565b60405180910390fd5b8181036000808673ffffffffffffffffffffffffffffffffffffffff1673ffffffffffffffffffffffffffffffffffffffff16815260200190815260200160002081905550505b600073ffffffffffffffffffffffffffffffffffffffff168273ffffffffffffffffffffffffffffffffffffffff1603610f3b5780600260008282540392505081905550610f88565b806000808473ffffffffffffffffffffffffffffffffffffffff1673ffffffffffffffffffffffffffffffffffffffff168152602001908152602001600020600082825401925050819055505b8173ffffffffffffffffffffffffffffffffffffffff168373ffffffffffffffffffffffffffffffffffffffff167fddf252ad1be2c89b69c2b068fc378daa952ba7f163c4a11628f55a4df523b3ef83604051610fe59190611665565b60405180910390a3505050565b60007f8b73c3c69bb8fe3d512ecc4cf759cc79239f7b179b0ffacaa9a75d522b39400f7f00000000000000000000000000000000000000000000000000000000000000007f0000000000000000000000000000000000000000000000000000000000000000463060405160200161106d959493929190611dbf565b60405160208183030381529060405280519060200120905090565b606060ff60001b83146110a55761109e836113d1565b9050611132565b8180546110b190611a60565b80601f01602080910402602001604051908101604052809291908181526020018280546110dd90611a60565b801561112a5780601f106110ff5761010080835404028352916020019161112a565b820191906000526020600020905b81548152906001019060200180831161110d57829003601f168201915b505050505090505b92915050565b60006040517f190100000000000000000000000000000000000000000000000000000000000081528360028201528260228201526042812091505092915050565b60008060007f7fffffffffffffffffffffffffffffff5d576e7357a4501ddfe92f46681b20a08460001c11156111b9576000600385925092509250611263565b6000600188888888604051600081526020016040526040516111de9493929190611e12565b6020604051602081039080840390855afa158015611200573d6000803e3d6000fd5b505050602060405103519050600073ffffffffffffffffffffffffffffffffffffffff168173ffffffffffffffffffffffffffffffffffffffff160361125457600060016000801b93509350935050611263565b8060008060001b935093509350505b9450945094915050565b6000600381111561128157611280611e57565b5b82600381111561129457611293611e57565b5b03156113cd57600160038111156112ae576112ad611e57565b5b8260038111156112c1576112c0611e57565b5b036112f8576040517ff645eedf00000000000000000000000000000000000000000000000000000000815260040160405180910390fd5b6002600381111561130c5761130b611e57565b5b82600381111561131f5761131e611e57565b5b03611364578060001c6040517ffce698f700000000000000000000000000000000000000000000000000000000815260040161135b9190611665565b60405180910390fd5b60038081111561137757611376611e57565b5b82600381111561138a57611389611e57565b5b036113cc57806040517fd78bce0c0000000000000000000000000000000000000000000000000000000081526004016113c39190611723565b60405180910390fd5b5b5050565b606060006113de83611445565b90506000602067ffffffffffffffff8111156113fd576113fc611c80565b5b6040519080825280601f01601f19166020018201604052801561142f5781602001600182028036833780820191505090505b5090508181528360208201528092505050919050565b60008060ff8360001c169050601f81111561148c576040517fb3512b0c00000000000000000000000000000000000000000000000000000000815260040160405180910390fd5b80915050919050565b600081519050919050565b600082825260208201905092915050565b60005b838110156114cf5780820151818401526020810190506114b4565b60008484015250505050565b6000601f19601f8301169050919050565b60006114f782611495565b61150181856114a0565b93506115118185602086016114b1565b61151a816114db565b840191505092915050565b6000602082019050818103600083015261153f81846114ec565b905092915050565b600080fd5b600073ffffffffffffffffffffffffffffffffffffffff82169050919050565b60006115778261154c565b9050919050565b6115878161156c565b811461159257600080fd5b50565b6000813590506115a48161157e565b92915050565b6000819050919050565b6115bd816115aa565b81146115c857600080fd5b50565b6000813590506115da816115b4565b92915050565b600080604083850312156115f7576115f6611547565b5b600061160585828601611595565b9250506020611616858286016115cb565b9150509250929050565b60008115159050919050565b61163581611620565b82525050565b6000602082019050611650600083018461162c565b92915050565b61165f816115aa565b82525050565b600060208201905061167a6000830184611656565b92915050565b60008060006060848603121561169957611698611547565b5b60006116a786828701611595565b93505060206116b886828701611595565b92505060406116c9868287016115cb565b9150509250925092565b600060ff82169050919050565b6116e9816116d3565b82525050565b600060208201905061170460008301846116e0565b92915050565b6000819050919050565b61171d8161170a565b82525050565b60006020820190506117386000830184611714565b92915050565b60006020828403121561175457611753611547565b5b600061176284828501611595565b91505092915050565b60007fff0000000000000000000000000000000000000000000000000000000000000082169050919050565b6117a08161176b565b82525050565b6117af8161156c565b82525050565b600081519050919050565b600082825260208201905092915050565b6000819050602082019050919050565b6117ea816115aa565b82525050565b60006117fc83836117e1565b60208301905092915050565b6000602082019050919050565b6000611820826117b5565b61182a81856117c0565b9350611835836117d1565b8060005b8381101561186657815161184d88826117f0565b975061185883611808565b925050600181019050611839565b5085935050505092915050565b600060e082019050611888600083018a611797565b818103602083015261189a81896114ec565b905081810360408301526118ae81886114ec565b90506118bd6060830187611656565b6118ca60808301866117a6565b6118d760a0830185611714565b81810360c08301526118e98184611815565b905098975050505050505050565b611900816116d3565b811461190b57600080fd5b50565b60008135905061191d816118f7565b92915050565b61192c8161170a565b811461193757600080fd5b50565b60008135905061194981611923565b92915050565b600080600080600080600060e0888a03121561196e5761196d611547565b5b600061197c8a828b01611595565b975050602061198d8a828b01611595565b965050604061199e8a828b016115cb565b95505060606119af8a828b016115cb565b94505060806119c08a828b0161190e565b93505060a06119d18a828b0161193a565b92505060c06119e28a828b0161193a565b91505092959891949750929550565b60008060408385031215611a0857611a07611547565b5b6000611a1685828601611595565b9250506020611a2785828601611595565b9150509250929050565b7f4e487b7100000000000000000000000000000000000000000000000000000000600052602260045260246000fd5b60006002820490506001821680611a7857607f821691505b602082108103611a8b57611a8a611a31565b5b50919050565b7f4e487b7100000000000000000000000000000000000000000000000000000000600052601160045260246000fd5b60008160011c9050919050565b6000808291508390505b6001851115611b1757808604811115611af357611af2611a91565b5b6001851615611b025780820291505b8081029050611b1085611ac0565b9450611ad7565b94509492505050565b600082611b305760019050611bec565b81611b3e5760009050611bec565b8160018114611b545760028114611b5e57611b8d565b6001915050611bec565b60ff841115611b7057611b6f611a91565b5b8360020a915084821115611b8757611b86611a91565b5b50611bec565b5060208310610133831016604e8410600b8410161715611bc25782820a905083811115611bbd57611bbc611a91565b5b611bec565b611bcf8484846001611acd565b92509050818404811115611be657611be5611a91565b5b81810290505b9392505050565b6000611bfe826115aa565b9150611c09836116d3565b9250611c367fffffffffffffffffffffffffffffffffffffffffffffffffffffffffffffffff8484611b20565b905092915050565b6000611c49826115aa565b9150611c54836115aa565b9250828202611c62816115aa565b91508282048414831517611c7957611c78611a91565b5b5092915050565b7f4e487b7100000000000000000000000000000000000000000000000000000000600052604160045260246000fd5b600060c082019050611cc46000830189611714565b611cd160208301886117a6565b611cde60408301876117a6565b611ceb6060830186611656565b611cf86080830185611656565b611d0560a0830184611656565b979650505050505050565b6000604082019050611d2560008301856117a6565b611d3260208301846117a6565b9392505050565b6000606082019050611d4e60008301866117a6565b611d5b6020830185611656565b611d686040830184611656565b949350505050565b6000602082019050611d8560008301846117a6565b92915050565b6000611d96826115aa565b9150611da1836115aa565b9250828201905080821115611db957611db8611a91565b5b92915050565b600060a082019050611dd46000830188611714565b611de16020830187611714565b611dee6040830186611714565b611dfb6060830185611656565b611e0860808301846117a6565b9695505050505050565b6000608082019050611e276000830187611714565b611e3460208301866116e0565b611e416040830185611714565b611e4e6060830184611714565b95945050505050565b7f4e487b7100000000000000000000000000000000000000000000000000000000600052602160045260246000fdfea2646970667358221220c4c3e031202b764742d3a2bf339001d42a79ba692d96cffa5f4b36d53d4f794d64736f6c63430008180033",
  "linkReferences": {},
  "deployedLinkReferences": {}
}